:02000002D0002C
:1040000000400D00F48E0D00000006000C000501BC
:084010000401E80500000000B6
:04401800A87F0D0070
:1040200009480A49884208B505D0094A824202D0A7
:10403000121A03F075FF0748074A0021121A03F00D
:104040007AFF014808BD00BF20DF0320548A0D001D
:1040500098E3032098E30320F0E7032070B501F014
:10406000E7FA074C074BE41AA40800251E46A542B0
:1040700004D056F8253098470135F8E770BD00BFE9
:10408000448A0D00048A0D0000F020B808B500F045
:1040900063F8BDE8084001F08DBA01F053B801F0B3
:1040A00051B8000008B5034A00210C2000F0BEFF03
:1040B000FEE700BF1D4E0D000078B0FA80F0400909
:1040C00070470123037070477047000010B50E4C15
:1040D00001F0AEFB4FF4165101F09EFB3C2220464E
:1040E000022100F0F3FA0221204600F0F8FD2046FC
:1040F00000F0BEFB4FF4FA6001F01EFA2046BDE866
:10410000104000F07BBA00BFA4E3032037B50025C0
:104110003F2364222946009501F002FA0C4C01234A
:1041200002B2B4F900100B4800F008FA094800F098
:104130009FFB236801337F2B02DC236003B030BD7B
:104140000448256003B0BDE8304000F057BA00BF16
:10415000A0E30320A4E303207FB5274E274C00F003
:1041600065FE32682060831A052B3CD903F042FBC0
:104170000022234B234D03F0DDFC1DA3D3E90023D4
:1041800003F0AEFB41EC100B02F01EF8002251ECE4
:10419000100B1D4B03F0A4FB00221C4B03F0EEF9A7
:1041A00003F060FE07EE900AFDEEE77A286017EE56
:1041B000900AFFF7ABFF2368336001F039FB064636
:1041C000286803F039FBCDE90201206803F012FBF7
:1041D00000220B4B03F0AEFC0D4ACDE9000100219B
:1041E000304601F050F904B070BD00BFAFF300805D
:1041F000BEBCA37B2F1BE43FCCE303209CE3032046
:1042000000408F40C8E303200000444000004940C4
:10421000BC7F0D0010B52421044601F079FE204634
:1042200010BD000010B5074C00F080FD04212046B1
:1042300000F0CEF92046044A0449BDE8104001F0E0
:1042400059BE00BFA4E3032098E30320C9400D003A
:10425000F0B5447EBDF81450022C08D0032C0FD0CA
:10426000012C70D10489013CA21A12B20CE04489DD
:10427000013CA21A0489E41A611A12B209B262E07E
:104280004489E41A611A09B2002A5BDBB0F90840DC
:10429000944240F390800029BEBF5B181BB20021FE
:1042A000B0F90A00CC188442C4BF431A1BB2002BD9
:1042B00040F38180C9B2C8083F4F02EBC01211F031
:1042C0000701DBB207EB020417D0C1F10801C8B245
:1042D0003A4983420E5C3FBFC3EB000EFF2141FA17
:1042E0000EF10E40B95C012D0CBF3143B143834246
:1042F000B95460D3181AC3B28034072B17D9012DD3
:104300000CBFFF20002004F180011A46083AD2B207
:10431000072A01F8800C01F18001F7D8A3F1080207
:10432000C2F3C402013204EBC21403F00703002BF2
:1043300041D0234AD25C2378012D0CBF1343934311
:104340002370F0BDF0BD002A35DBB0F90A4094427D
:1043500031DD0029BCBFC9180BB2B0F90870B8BF75
:104360000021CE18BE42C4BF631A1BB2002B22DD4F
:10437000D01001EBC011104802F0070201440120E7
:1043800000FA02F28542D2B209D1013B1BB25C1C99
:1043900011D011F8010B104301F8010CF5E7D243DD
:1043A000D2B2013B1BB2581C05D011F8010B1040D2
:1043B00001F8010CF5E7F0BD30DF032028DF032012
:1043C00020DF0320F0B5447EBDF81450022C08D045
:1043D000032C0FD0012C12D10489E41AA21A12B2B4
:1043E0006DE00489013C611A4489E41AA21A09B2F9
:1043F00012B204E04489013C611A09B25FE000296D
:104400005CDBB0F908408C4240F39180002ABCBFCD
:10441000D21813B2B0F90A00B8BF0022D4188442EF
:10442000C4BF831A1BB2002B40F38180D4B2404E2C
:10443000DAB2E30801EBC31114F0070406EB010341
:1044400017D0C4F10804E0B23A4C8242275C3FBF67
:10445000C2EB000EFF2444FA0EF42740745C012DD9
:104460000CBF3C43BC438242745460D3101AC2B2A6
:104470008033072A17D9012D0CBFFF24002403F134
:10448000800011460839C9B2072900F8804C00F1B4
:104490008000F7D8A2F10801C1F3C401013103EB98
:1044A000C11302F00702002A41D02349895C1A781F
:1044B000012D0CBF0A438A431A70F0BDF0BD0029DC
:1044C00035DBB0F90A408C4231DD002ABCBFD2187E
:1044D00013B2B0F90870B8BF0022D618BE42C4BFEC
:1044E000A31A1BB2002B22DDC81002EBC012104829
:1044F00001F007011044012202FA01F19542C9B20C
:1045000009D15A1E13B25C1C11D010F8012B0A43BA
:1045100000F8012CF5E7C943C9B25A1E13B25A1C60
:1045200005D010F8012B0A4000F8012CF5E7F0BD8A
:1045300030DF032028DF032020DF0320F8B50D1E25
:10454000064614461F463FDB00F0D8FB85423BDAA7
:10455000002C39DB304600F0D4FB844234DA30469C
:1045600000F0BBFB022827D131897089013901385D
:10457000491B001B0DB204B206E0012804D13389A7
:10458000013B1B1B2C461DB20820012F94FBF0F0B1
:1045900000B20E4B04F0070205EBC01104D19740A6
:1045A0005A5C17435F54F8BD585C012707FA02F2C2
:1045B00020EA02025A54F8BD0328DED17389013B78
:1045C0005B1B25461CB2DFE7F8BD00BF30DF0320D0
:1045D00038B5402204460D46802100F09FFA064B74
:1045E0002360FF23637784F82130E377A37784F88F
:1045F0002050204638BD00BFDC7F0D004FF48062A4
:104600000021014803F097BC30DF032038B5094D85
:10461000296811F001040AD12846FFF74DFD30B199
:104620002146054800F0E2FD2846FFF74AFD024812
:1046300038BD00BFD0E30320D4E3032038B590F9A0
:104640001D30013304460D4628D090F92100012188
:1046500080B201F0D2FB94F91F00002180B201F07A
:10466000CCFB94F92100002180B201F0C6FB94F844
:1046700022302BB1FFF7CAFF294600F061FE05E0AA
:104680002B460122A17F607F01F0D0FB94F921002D
:10469000012180B2BDE8384001F0AFBB01F004FC5D
:1046A00094F91B1001F0B4F901F0FEFB036800213E
:1046B0009B68984701F0F8FB036829469B68984778
:1046C00001F0F2FBBDE8384001F0A9B938B5044665
:1046D0000D46217790F91D30C276013337D090F91D
:1046E0001F00012180B201F077FB94F92100012124
:1046F00080B201F071FB94F822305BB994F91D008F
:10470000012180B201F068FB94F91E00012180B202
:1047100001F062FB94F82230EBB194F92100012101
:1047200080B201F06AFBFFF771FF012100F079FD13
:10473000FFF76CFF102100F0DFFDFFF767FF00219E
:1047400000F080FDFFF762FF00F05AFD03E001F08A
:10475000ABFB01F053F994F92000012180B201F084
:104760003BFB94F92000012180B201F046FB0120BF
:1047700000F0E2FE94F92000002180B201F03DFB40
:104780000A2000F0D9FE94F92000012180B201F046
:1047900034FB2046AE21FFF751FF2046D521FFF71D
:1047A0004DFF20468021FFF749FF2046A821FFF753
:1047B00045FF20463F21FFF741FF2046D321FFF769
:1047C0003DFF20460021FFF739FF20464021FFF73B
:1047D00035FF8D212046FFF731FF012D0CBF102141
:1047E00014212046FFF72AFF20462021FFF726FF4D
:1047F00020460021FFF722FF2046A121FFF71EFFE0
:104800002046C821FFF71AFF2046DA21FFF716FFDE
:1048100020461221FFF712FF81212046FFF70EFFED
:10482000012D0CBF9F21CF212046FFF707FFD92183
:104830002046FFF703FF012D0CBF2221F121204666
:10484000FFF7FCFE2046DB21FFF7F8FE2046402163
:10485000FFF7F4FE2046A421FFF7F0FE2046A62134
:10486000FFF7ECFE2046AF21BDE83840FFF7E6BE7B
:104870002DE9F04121210446FFF7E0FE002120460A
:10488000FFF7DCFE7F212046FFF7D8FE22212046DD
:10489000FFF7D4FE00212046FFF7D0FE0721204677
:1048A000FFF7CCFE94F91D30DFF8BC80013335D022
:1048B00094F92100012180B201F09FFA94F91F00C0
:1048C000012180B201F099FA94F92100002180B20F
:1048D00001F093FA012000F0A1FA002594F82230AB
:1048E00018F805602BB1FFF791FE314600F028FD66
:1048F00005E033460122A17F607F01F097FA013580
:10490000B5F5806FEAD1012000F088FA94F9210012
:10491000012180B2BDE8F04101F06FBA002501F03D
:10492000C3FA94F91B1001F073F801F0BDFA0368A3
:1049300040219B689847002601F0B6FAAF1903683A
:10494000BFB29B6818F8071001369847102EF3D1B4
:10495000103501F0A9FAADB201F061F8B5F5806F3C
:10496000DDD1BDE8F08100BF30DF032000F0DEB90B
:104970002DE9F04F85B01E46BDF93830BDF83CA09A
:1049800015469A1A002AB8BF52420092721A002A9B
:10499000B8BF524201920C46009A01998A42814660
:1049A00005DD32461E46134622462C461546B442C5
:1049B00005DD2A461D4613462246344616465A1B36
:1049C000002AB8BF5242C4EB06089D42B4BF01237F
:1049D0004FF0FF331FFA88F8029303920FFA88F71B
:1049E000022297FBF2F7B4421FDC019A009B93422C
:1049F000D9F80030C8BF2246D3F810B0C8BF294646
:104A00005346DCBF2A4621464846D847039BFF1A37
:104A1000BBB21FB2002F05DA029A08EB0307154458
:104A20002DB23FB2013424B2DDE705B0BDE8F08F0E
:104A30002DE9F347BDF82C600768BDF928A0009662
:104A40000446FF6991460D469846B847236800968C
:104A50000AF1FF324A44DF6929464346204612B232
:104A6000B847236800969F694A4653462946204620
:104A7000B84723680A9608F1FF3129449D694A46E0
:104A8000534609B22046AC4602B0BDE8F047604745
:104A900037B5013B13440468BDF8185001951BB2AB
:104AA000009364690B46A04703B030BD37B5BDF82D
:104AB000185004688DE82400013B0B4464691BB264
:104AC000A04703B030BD2DE9F347BDF92880BDF8FC
:104AD0002C90054617460C4601EB030A54450BDAA9
:104AE0002B68CDF800909E69214643463A462846F9
:104AF0000134B04724B2F1E702B0BDE8F08713B546
:104B0000B0F90E200468019100920022B0F90C3037
:104B1000646A1146A04702B010BD704730B50181EC
:104B20000024084D42818181C2814FF6FF7101222C
:104B3000446005604476048244820276C1828182A8
:104B4000827630BD14800D002DE9F04F8FB0054600
:104B50000691BDF860100791BDF864100891B0F996
:104B60000C1006989DF8688081427CDDB5F90E1026
:104B7000914278DD062111FB0800002873DD02EB6D
:104B8000C80000286FDD03EB830396B20C9306F197
:104B900008039BB2099100240D93052C1CBF334BD5
:104BA0000C9A059616BF1B194FF0000913F80290D6
:104BB00004961FFA88F30393039ABDF8183004FB98
:104BC000023213FA84F312B21BB20A9237460FFA7A
:104BD00088FA0B9319F0010F11D0B8F1010F2B686F
:104BE00003D1D3F810B0079B14E0079A0192CDF8D7
:104BF00000A0D3F824B0BDF91020534618E0079B5D
:104C0000089A934217D0B8F1010F2B6807D1D3F857
:104C100010B013463AB20B992846D8470BE0089AD1
:104C20000192CDF800A0BDF91420D3F824B053466A
:104C30000A992846D847049B039A13449BB20493CD
:104C4000059B13449BB2013705930D9BBFB29F4256
:104C50004FEA5909BED1099B013B013413F0FF0310
:104C600064B2099399D10FB0BDE8F08F44800D0074
:104C700030B50A2985B004460B4604D1027E438A2A
:104C800003EBC20323E00D2924D0057EB0F91220E6
:104C9000B0F910100295C58A0195858A0095FFF735
:104CA00053FF227E238A91B201EB410003EB4003C4
:104CB000A07E1BB2238268B1B4F90C006FF0050529
:104CC00005FB0202934205DD638A03EBC1036382A5
:104CD00000232382012005B030BD407E704701F0E3
:104CE0000301012941760389428904D0032902D0B6
:104CF0008381C28170478281C3817047B0F90C0003
:104D00007047B0F90E00704700F010B808B5024BBC
:104D10001B689B68019308BD6802030008B5024B3D
:104D20001B68DB68019308BD6802030008B5024BED
:104D30001B681B68019308BD2C02030008B5024BD9
:104D40001B689B68019308BD2C02030008B5024B49
:104D50001B68DB68019308BD2C02030008B5024BF9
:104D60001B681B69019308BD2C02030008B5024BA8
:104D70001B681B68019308BD3002030008B5024B95
:104D80001B689B68019308BD3002030008B5024B05
:104D90001B68DB68019308BD3002030008B5024BB5
:104DA0001B681B69019308BD3002030008B5024B64
:104DB0001B685B69019308BD3002030008B5024B14
:104DC0001B68DB69019308BD3002030008B5024B84
:104DD0001B681B6A019308BD3002030008B5024B33
:104DE0001B685B6A019308BD3002030008B5024BE3
:104DF0001B681B6C019308BD3002030008B5024B11
:104E00001B685B6C019308BD3002030008B5024BC0
:104E10001B685B68019308BD1802030008B5024BCC
:104E20001B68DB68019308BD1802030008B5024B3C
:104E30001B685B69019308BD1802030008B5024BAB
:104E40001B689B68019308BD4802030008B5024B2C
:104E50001B681B69019308BD4802030008B5024B9B
:104E60001B685B69019308BD4802030008B5024B4B
:104E70001B685B6C019308BD4802030008B5024B38
:104E80001B689B6C019308BD4802030008B5024BE8
:104E90001B685B69019308BD6402030008B5024BFF
:104EA0001B681B68019308BD3C02030008B5024B58
:104EB0001B68DB68019308BD3C02030008B5024B88
:104EC0001B681B69019308BD3C02030008B5024B37
:104ED0001B685B69019308BD3C02030008B5024BE7
:104EE0001B689B69019308BD3C02030008B5024B97
:104EF0001B68DB69019308BD3C02030008B5024B47
:104F00001B681B6A019308BD3C02030008B5024BF5
:104F10001B689B6A019308BD3C02030008B5024B65
:104F20001B68DB68019308BD2802030008B5024B2B
:104F30001B689B69019308BD2802030008B5024B5A
:104F40001B68DB69019308BD2802030008B5024B0A
:104F50001B681B6A019308BD2802030008B5024BB9
:104F60001B685B6A019308BD2802030008B5024B69
:104F70001B689B6A019308BD2802030008B5024B19
:104F80001B68DB6A019308BD2802030008B5024BC9
:104F90001B681B6B019308BD2802030008B5024B78
:104FA0001B685B6B019308BD2802030008B5024B28
:104FB0001B681B6C019308BD2802030008B5024B57
:104FC0001B681B68019308BD4C02030008B5024B27
:104FD0001B685B68019308BD4C02030008B5024BD7
:104FE0001B681B69019308BD4C02030008B5024B06
:104FF0001B685B69019308BD4C02030008B5024BB6
:105000001B689B69019308BD4C02030008B5024B65
:105010001B68DB69019308BD4C02030008B5024B15
:105020001B681B6A019308BD4C02030008B5024BC4
:105030001B685B6B019308BD6002030008B5024B5F
:105040001B685B68019308BD2002030008B5024B92
:105050001B685B69019308BD2002030008B5034B80
:105060001B68D3F88830019308BD000020020300BC
:1050700008B5034B1B68D3F89430019308BD0000BA
:105080002002030008B5024B1B685B68019308BD52
:105090004002030008B5024B1B689B68019308BDE2
:1050A0004002030008B5024B1B68DB68019308BD92
:1050B0004002030008B5024B1B681B69019308BD41
:1050C0004002030008B5024B1B685B69019308BDF1
:1050D0004002030008B5024B1B689B69019308BDA1
:1050E0004002030008B5024B1B68DB69019308BD51
:1050F0004002030008B5024B1B681B6A019308BD00
:105100004002030008B5024B1B681B6B019308BDEE
:105110004002030008B5024B1B685B6B019308BD9E
:105120004002030008B5024B1B68DB6B019308BD0E
:105130004402030008B5024B1B681B68019308BDBD
:105140001C02030008B5024B1B685B68019308BD95
:105150001C02030008B5024B1B685B6A019308BD83
:105160001C020300002211464068FFF7C3BF002263
:1051700011464068FFF7CEBF00224068FFF7C2BF6C
:10518000002281F001014068FFF7ACBF00231A46FE
:1051900019464068FFF79EBF00231A46194640682B
:1051A000FFF790BF002211464068FFF783BF00223F
:1051B00011464068FFF76EBF002202214068FFF7EA
:1051C00071BF00231A464068FFF75CBF024B032201
:1051D0005A60024A1A607047DCE3032048850D00DC
:1051E0000021FFF703BE0021FFF708BE10B50446FB
:1051F00001700846FFF7E2FD00236360204610BD02
:1052000010B504460078FFF7EBFF48B920784FF659
:10521000FF71FFF7ABFD2078BDE81040FFF7E3BF5B
:1052200010BD38B5044600780D46FFF7D9FF40B9E8
:1052300020782946FFF7A2FD2078BDE83840FFF727
:10524000D2BF38BD38B5044600780D46FFF7C8FF19
:1052500040B920782946FFF799FD2078BDE838400D
:10526000FFF7C1BF38BD0000400830B5186000240A
:1052700018688842E5B206D90134082C02D04008EB
:105280001860F5E70725024B5B5D137030BD00BF6A
:1052900074850D002DE9F04188B0002304460078A4
:1052A00002930E461746FFF79BFF054600BB94F896
:1052B00000800146142203A802F03DFE0B232A467B
:1052C00003A94046ADF80C30FFF788FD02AB0DF1A5
:1052D000070207FB06F104988DF80750FFF7C4FF9B
:1052E00020789DF80710FFF759FD2078FFF77BFF26
:1052F000029808B0BDE8F08138B5044600780D4644
:10530000FFF76EFFC8B9616871B10C4BC25CAA426D
:1053100002D001300828F9D10130C0B2C1400122C9
:105320002046FFF7B7FF03E029462078FFF736FD58
:105330002078BDE83840FFF756BF38BD74850D00B2
:1053400008B50078FFF732FDC0B208BD0078FFF75E
:105350003DBD10B50446006818B1FFF7F3FE002309
:10536000236010BD10B50446FFF7F3FF204610BDC3
:1053700010B5094C00204FF6FF732060A080A0718B
:1053800020816381FFF75AFE2046044A0449BDE8A4
:10539000104000F0AFBD00BFE4E3032098E303201A
:1053A00065530D0010B50446006808B1FFF766FDAF
:1053B000204610BD10B5064C002320462360FFF7A1
:1053C00055FD2046034A0449BDE8104000F092BD57
:1053D000F0E3032098E30320A5530D00F8B506463B
:1053E0000D468F180024BD420CD0336815F8011B00
:1053F0009B6830469847002801DB0444F3E7002C03
:1054000008BF04462046F8BD70B505460C46084660
:1054100049B102F0C1FD2B68024621462846DB68EF
:10542000BDE87040184770BD03689B68184738B5E1
:105430000D210546FFF7F8FF0A2104462846FFF72D
:10544000F3FF204438BD30B58BB00B4600218DF8FA
:105450002410012A98BF0A220DF12304B3FBF2F5B0
:1054600005FB123303F0FF03092B94BF30333733AE
:10547000DBB2214604F801392B46002DEED1FFF7AF
:10548000C3FF0BB030BD0CB42DE9F04387B000AFC3
:1054900007F13804054654F8049B3C600E46234649
:1054A0004A461421381DFFF755FE132805D8391D2B
:1054B0002846FFF7A9FF044613E000F1080323F094
:1054C0000703E846ADEB030D411C23464A466846F8
:1054D0003C60FFF73FFE69462846FFF795FF04460C
:1054E000C5461EB12846FFF7A2FF044420461C37DC
:1054F000BD46BDE8F04302B070470000014B024AD0
:105500001A607047F4E30320EF850D00024B1A6820
:10551000024B1A60704700BF30E30320F8E303201A
:105520008A4230B507D0039D441AED1A6C43521AD3
:1055300094FBF2F4E01830BD0021FFF787BD10B5F1
:105540008368044613B1032201469847204610BDE4
:1055500010B50446FFF7F3FF204610BD0348044A88
:1055600004490023836000F0C5BC00BFFCE30320B6
:1055700098E3032051550D0008B50C4B33B100F0F2
:1055800057F903681B699847002809DC084B63B189
:1055900000F0D0F903681B699847002803DC08BDB8
:1055A000AFF30080F2E7AFF3008008BD0000000019
:1055B0000000000008B5FFF7DFFFFFF737FC014BE5
:1055C000186008BD30E703200248034A0349121A55
:1055D00002F0A6BC00F4032004F40320508A0D005E
:1055E00007B5002300931A466FF07701FFF740FDDF
:1055F00003B05DF804FB000007B543880A2B08D010
:10560000502B09D1094B1B683BB103B05DF804EB8B
:105610001847FFF7E5FF06E0002300931A466FF0F6
:105620007701FFF725FD03B05DF804FB0CE40320D0
:1056300038B5104C104D2368AB42104B0CBF012203
:1056400000221A7002D0FFF7BFFF2560FFF7DEFBD4
:10565000044602F079FC0A4B13B12046AFF30080F8
:1056600000210748FFF75EFD00210648BDE83840ED
:10567000FFF7F4BC00F403201E1C279A10E403205B
:1056800000000000F9550D00704710B518210446C0
:1056900000F03EFC204610BDF0B5037D062B8DB01A
:1056A0000E4600F104074FF0000402D000F1080597
:1056B00018E00CAD394605F8304D2F232A460A2054
:1056C000FFF7E4FB284602F067FC33680246DB681C
:1056D0002946304698470FE024B12E213046FFF787
:1056E000A3FE044415F8011D0A223046FFF7ABFE65
:1056F000BD420444F0D120460DB0F0BD10B5054BBD
:105700000446112240F8043B002102F014FC20461C
:1057100010BD00BF90860D000346074A10B543F840
:10572000042B01F1100251F8044B43F8044B914251
:10573000F9D10A781A7010BD90860D0010B59DF849
:10574000084044EA032343EA024242EA0161042397
:105750004160037510BD37B50D788B784A78C978EC
:1057600000912946FFF7EAFF03B030BD417470474E
:10577000704708B50021007CFFF740FC30EA2000AC
:1057800028BF4FF0FF3008BD08B50121007CFFF7AE
:1057900035FC30EA200028BF4FF0FF3008BD08B5C7
:1057A000007CFFF723FC20EAE07008BD08B5007C10
:1057B000FFF714FC20EAE07008BD007CFFF72EBC68
:1057C00010B51421044600F0A3FB204610BD38B5E7
:1057D0000446007C0D46FFF709FC002801DC607CD4
:1057E00028B12946207CFFF711FC20EAE07038BD83
:1057F00010B50446002363604FF47A73A360054B31
:10580000236001230846217463741146FFF7D6FB19
:10581000204610BDA4860D000022007CFFF7D6BBF9
:1058200010B514220446002102F085FB204610BD6D
:1058300030B50E4D87B001A8FFF7F2FF296811F0CF
:10584000010410D12846FEF737FC60B101AA2146B9
:105850000748FFF7CDFF2846FEF733FC054A064907
:10586000034800F047FB024807B030BD14E40320B2
:1058700018E4032098E3032071570D00704741742A
:10588000704708B5007CFFF741FB20EAE07008BDD7
:1058900008B5007CFFF712FB20EAE07008BD08B5F0
:1058A000007CFFF71BFB30EA200028BF4FF0FF30E1
:1058B00008BD08B5007CFFF709FB30EA200028BFCF
:1058C0004FF0FF3008BD007CFFF710BB10B514216E
:1058D000044600F01DFB204610BD70B5457C044613
:1058E0000E4625B9007CFFF711FB002805DD314687
:1058F000207CBDE87040FFF7D9BA284670BD000093
:1059000010B5044608461146002262604FF47A72D0
:10591000A260054A22600122207462741A46FFF7D1
:10592000BDFA204610BD00BFD4860D00007CFFF7F5
:10593000E5BA000038B50C4D296811F0010411D109
:105940002846FEF7B9FB68B1084A094B09482146C9
:10595000FFF7D6FF2846FEF7B4FB074A074905487C
:1059600000F0C8FA034838BDC4E40320C8E40320AB
:1059700040E403202CE4032098E303207D580D002D
:105980007047F8B5064615460C468F18BC4206D03F
:10599000336814F8011B9B6830469847F6E72846A1
:1059A000F8BD0022007CFFF7D1BA0021007CFFF790
:1059B000D5BA0021007CFFF7D9BA0021007CFFF79F
:1059C000DDBA0021007CFFF7E1BA10B514210446CE
:1059D00000F09EFA204610BD10B504460023636017
:1059E0004FF47A73A360044B217408462360114678
:1059F000FFF7DCFA204610BD04870D0000231A468D
:105A00001946007CFFF78ABA0022007CFFF78EBAA5
:105A1000C9B2FFF7F9BF0022007CFFF78FBA01215E
:105A2000FFF7F9BF0021007CFFF7B8BA002211464A
:105A30004068FFF75FBB002211464068FFF76ABB72
:105A400000224068FFF75EBB002281F00101406840
:105A5000FFF748BB00231A4601214068FFF73ABB15
:105A600000231A4619464068FFF72CBB0022114656
:105A70004068FFF71FBB002211464068FFF70ABBD2
:105A8000002202214068FFF70DBB00231A46406840
:105A9000FFF7F8BA38B5054688B104684CB1A36879
:105AA0001BB103222146204698471021204600F0D2
:105AB0002FFA28461421BDE8384000F029BA38BD35
:105AC00010B103685B681847704710B50368044657
:105AD000BBB15868FFF7B2F978B923685A7C12B99C
:105AE0005868FFF7B3F923685868FFF7B7F92068DB
:105AF0000023236028B1FFF7CDFF206808B1FFF72E
:105B0000C9FF204610BD38B50446D0F8C40108B11D
:105B1000FEF7C5FAD4F8C00108B1FFF7AFF9D4F821
:105B2000BC5135B12846FFF7D0FF0421284600F0CC
:105B3000EFF9206808B1FFF7C3FF204638BD000029
:105B400010B5044B044640F8083BFFF7DCFF204645
:105B500010BD00BF2C870D0038B50E4C0E4B2360D6
:105B60000025022304F5E4706360A560C4F8C45105
:105B7000C4F8C851FFF77AF9084BC4F8CC5184F83F
:105B8000D05123602046064A0649BDE8384000F05F
:105B9000B1B900BF4CE5032094870D002C870D00A0
:105BA00098E30320415B0D00002211464068FFF797
:105BB00081BA002211464068FFF79CBA00221146C4
:105BC0004068FFF7A7BA00224068FFF79BBA00229F
:105BD00081F001014068FFF785BA00231A46194693
:105BE0004068FFF777BA00231A4619464068FFF766
:105BF00069BA002211464068FFF74CBA0022022120
:105C00004068FFF74FBA00231A464068FFF73ABAD8
:105C1000024B04225A60024A1A60704720E70320B0
:105C200060870D0000231A464068FFF72BBA002258
:105C300002214068FFF736BA002211464068FFF79C
:105C400029BA002211464068FFF734BA00231A46E9
:105C500019464068FFF736BA00231A4619464068CD
:105C6000FFF738BA002281F001014068FFF73ABA25
:105C700000224068FFF746BA002211464068FFF74D
:105C800049BA002211464068FFF734BA2DE9F043C3
:105C9000002495B016460D460746FFF72FFD214616
:105CA00020220CA8009402F046F940230C932146D0
:105CB0006B460CAA3046FFF731F80446002844D161
:105CC000024601216868FFF7F5F902218046224665
:105CD0006868FFF7EFF9009E81462146002E34D018
:105CE000002932D17368022B02D00A2B09D02AE096
:105CF000B8F1000F27D0716938460431FFF72BFD4A
:105D000020E0B9F1000F1ED07469112201A802F041
:105D100012F906238DF8143001AD04F1080318348C
:105D2000186859682A4603C20833A3421546F7D1BA
:105D300001A906A807ADFFF7EFFC0FCD3C1D0FC46E
:105D40002B6823700121F669C8E70098FEF7DEFF93
:105D5000384615B0BDE8F083024B034A1A600022B2
:105D60005A60704728E7032094870D0070B5184EDD
:105D7000316811F0010504460AD13046FEF79CF95E
:105D800030B129461348FFF731FA3046FEF799F94A
:105D90001048FFF7DBFA28B1A4F10B03022B01D85E
:105DA000002070BD00F080F8FFF73CFE08B1012C28
:105DB000F6D9FFF7BFFDFFF7B9FD18B1A4F109034C
:105DC000012BEDD9232C8CBF0020012070BD00BF1A
:105DD000D0E30320D4E30320232838B504460D463E
:105DE0000AD8FF2908D0FFF7C1FF28B1294620466D
:105DF000BDE83840FEF7A2BF38BD38B504460D46B1
:105E0000FEF7A4FFFF2810D0062804D84D2323FA5C
:105E100000F0C30709D42046FFF7A8FF28B12946A0
:105E20002046BDE83840FEF799BF38BD2DE9F04166
:105E300090461E46072407460D46B8F1000F04D1D0
:105E4000C4F1070146FA01F101E046FA04F101F05C
:105E500001013846FFF7D1FF01212846FFF7CDFFAA
:105E600000212846FFF7C9FF14F1FF34E5D2BDE851
:105E7000F081000070B5044614252A46094E002121
:105E800002F059F8258020253146A5602561284675
:105E900000F040F831466060284600F03BF8E060D2
:105EA000204670BDC0870D0030B50E4D296811F039
:105EB000010487B013D12846FEF7FEF878B101A897
:105EC000FFF7D8FF01AA21460748FFF785FD2846BE
:105ED000FEF7F7F8054A0649034800F00BF80248B8
:105EE00007B030BD34E7032038E7032098E30320F0
:105EF00081590D000B460146184602F003B8000018
:105F0000024B1868BFF35F8F704700BF4CE7032058
:105F1000FEF7C3B800F000B810B5002814BF04465F
:105F200001242046FFF706F920B9FFF7E9FF08B181
:105F30008047F6E710BD0000184B1A68D1075CBF18
:105F400001221A60164B1A68D2075CBF01221A6040
:105F5000144B1A68D0075CBF01221A60124B1A68F2
:105F6000D1075CBF01221A60104B1A68D2075CBFD0
:105F700001221A600E4B1A68D0075CBF01221A601A
:105F80000C4B1A68D1075CBF01221A600A4B1A68D1
:105F9000D2075CBF01221A60704700BF6CE7032084
:105FA00068E7032064E7032060E703205CE7032041
:105FB00058E7032054E7032050E70320244B1A68D6
:105FC000D0075CBF01221A60224B1A68D1075CBF60
:105FD00001221A60204B1A68D2075CBF01221A60A6
:105FE0001E4B1A68D0075CBF01221A601C4B1A684E
:105FF000D1075CBF01221A601A4B1A68D2075CBF36
:1060000001221A60184B1A68D0075CBF01221A607F
:10601000164B1A68D1075CBF01221A60144B1A682C
:10602000D2075CBF01221A60124B1A68D0075CBF0E
:1060300001221A60104B1A68D1075CBF01221A6056
:106040000E4B1A68D2075CBF01221A60704700BF6E
:106050009CE7032098E7032094E7032090E70320C0
:106060008CE7032088E7032084E7032080E70320F0
:106070007CE7032078E7032074E7032070E7032020
:10608000244B1A68D0075CBF01221A60224B1A68A1
:10609000D1075CBF01221A60204B1A68D2075CBF8F
:1060A00001221A601E4B1A68D0075CBF01221A60D9
:1060B0001C4B1A68D1075CBF01221A601A4B1A6880
:1060C000D2075CBF01221A60184B1A68D0075CBF68
:1060D00001221A60164B1A68D1075CBF01221A60B0
:1060E000144B1A68D2075CBF01221A60124B1A685F
:1060F000D0075CBF01221A60104B1A68D1075CBF41
:1061000001221A600E4B1A68D2075CBF01221A6086
:10611000704700BFCCE70320C8E70320C4E7032093
:10612000C0E70320BCE70320B8E70320B4E703205F
:10613000B0E70320ACE70320A8E70320A4E703208F
:10614000A0E70320184B1A68D1075CBF01221A6030
:10615000164B1A68D2075CBF01221A60144B1A68EA
:10616000D0075CBF01221A60124B1A68D1075CBFCE
:1061700001221A60104B1A68D2075CBF01221A6014
:106180000E4B1A68D0075CBF01221A600C4B1A68CC
:10619000D1075CBF01221A600A4B1A68D2075CBFA4
:1061A00001221A60704700BFECE70320E8E70320F4
:1061B000E4E70320E0E70320DCE70320D8E703203F
:1061C000D4E70320D0E7032000B551EC100B2C4A94
:1061D00021F00043934285B027DD2A4A934209DD2E
:1061E00010EE102A0B4601F0C7F941EC100B05B078
:1061F0005DF804FB684600F047F800F00300012852
:1062000027D002281DD068B39DED021B9DED000B29
:1062100000F062FA53EC102B10EE100A03F100416B
:1062200041EC100B05B05DF804FB00209FED121B44
:1062300000F0A6FF51EC100B41EC100B05B05DF81F
:1062400004FB01209DED021B9DED000B00F098FF6B
:10625000E0E79DED021B9DED000B00F03DFA51ECD7
:10626000100BC2E701209DED021B9DED000B00F01D
:1062700087FF51EC100BB8E70000000000000000A1
:10628000FB21E93FFFFFEF7F2DE9F04F53EC102B8F
:10629000974923F0004B8B458FB040F38780954999
:1062A0008B451C46824629DC002C194610EE100A4C
:1062B00085A3D3E9002340F3A58101F05DF98E4B5E
:1062C0009B4504460D4600F0878081A3D3E9002357
:1062D00001F052F902460B46CAE90023204629463E
:1062E00001F04AF97AA3D3E9002301F045F9012529
:1062F000CAE9020128460FB0BDE8F08F7F498B45FF
:1063000040F387807E498B455BDC4FEA2B55A5F235
:106310001645ABEB05571046394610EE106A01F0F2
:1063200079FD01F077FA8046894642464B46304671
:106330003946CDE9088901F01FF90022714B01F0BF
:10634000CFFA8946804601F065FD01F063FA064602
:106350000F4632463B4640464946CDE90A6701F0C2
:106360000BF90022674B01F0BBFA00220023CDE9B4
:106370000C0101F01DFD002800F070810023304663
:106380003946002201F014FD002814BF0123022326
:106390005D4A0192022100912A46514608A800F068
:1063A000DFFA002CC0F24C81054606E080ED000BC0
:1063B00000250024C0E90245002528460FB0BDE8AD
:1063C000F08F10EE100A194601F0D6F80025CAE940
:1063D0000201CAE90001F0E73FA3D3E9002301F07D
:1063E000CBF83FA3D3E900230D46044601F0C4F8DF
:1063F00002460B46CAE900232946204601F0BCF8B4
:1064000037A3D3E9002301F0B7F80125CAE9020157
:10641000D3E700F07FFF57EC106B10EE100A32A3A9
:10642000D3E90023394601F05BFA0022374B01F033
:10643000A5F801F0EFFC054601F0ECF922A3D3E941
:106440000023CDE9040101F04BFA02460B46304629
:10645000394601F091F81EA3D3E90023804689460E
:10646000DDE9040101F03CFA1F2DCDE9020151DC08
:10647000274B6A1E53F822309B454BD002460B46F1
:106480004046494601F078F806460F46CAE90067DB
:1064900032463B464046494601F06EF8DDE90223AC
:1064A00001F06AF8002CCAE9020186DA07F100441B
:1064B00001F100436D42CAF80060CAF80440CAF80E
:1064C0000800CAF80C3078E700004054FB21F93F7F
:1064D0003163621A61B4D03D0000601A61B4D03DEE
:1064E0007370032E8A19A33B83C8C96D305FE43FE4
:1064F000FB21E93F7BD90240FB21F93FFB213941D8
:10650000FFFFEF7F0000704144880D000000E03F76
:10651000C4870D00DDE902234046494601F02CF80E
:106520004FEA2B5BC1F30A53C3EB0B0306460F463E
:10653000102BCAE90067ABDD5DA3D3E90023DDE9D9
:10654000040101F0CDF906460F4602460B464046CF
:10655000494601F011F8CDE9060102460B464046D6
:10656000494601F009F832463B4601F005F852A3CE
:10657000D3E9002306460F46DDE9040101F0B0F936
:1065800032463B4600F0F8FF0B46CDE902010246D9
:10659000DDE9060100F0F0FFC1F30A53C3EB0B0B7A
:1065A00006460F46BBF1310FCAE9006776DD45A309
:1065B000D3E90023DDE9040101F092F906460F4614
:1065C00002460B46DDE9060100F0D6FF02460B4607
:1065D00080468946DDE9060100F0CEFF32463B46A3
:1065E00000F0CAFF39A3D3E9002306460F46DDE9D0
:1065F000040101F075F932463B4600F0BDFFCDE9DC
:1066000002013BE700F0BAFF2D4B9B4504460D46C7
:1066100026D025A3D3E9002300F0B0FF02460B46A5
:10662000CAE900232946204600F0A6FF1EA3D3E9AD
:10663000002300F0A3FF4FF0FF35CAE90201BCE6DA
:10664000DAF80420DAF80C3002F1004203F10043DA
:106650004542CAF80420CAF80C30AEE6032397E698
:1066600013A3D3E9002300F089FF13A3D3E9002388
:106670000D46044600F082FF02460B46CAE900239D
:106680002946204600F078FF0BA3D3E9002300F051
:1066900075FF4FF0FF35CAE902018EE6DDE9068994
:1066A000F6E600BFAFF300803163621A61B4D03DFB
:1066B0000000601A61B4D03D7370032E8A19A33BA9
:1066C000FB21F93F0000002E8A19A33BC149202578
:1066D0009A837B39000000002DE9F04F57EC106BD6
:1066E0002DED028BB0EE418AF0EE618A27F0004971
:1066F000B9F1795F83B072DA10EE100A394601F011
:1067000089FB002800F0F68032463B463046394689
:1067100001F0E6F87CA3D3E9002304460D4601F01E
:10672000DFF87BA3D3E9002300F028FF22462B46A5
:1067300001F0D6F878A3D3E9002300F01DFF22462C
:106740002B4601F0CDF876A3D3E9002300F016FF25
:1067500022462B4601F0C4F873A3D3E9002300F0CE
:106760000BFF22462B4601F0BBF871A3D3E90023AF
:1067700000F004FF22462B4601F0B2F882468B4619
:106780000022714B2046294601F0AAF85246804665
:1067900089465B462046294601F0A2F853EC182BA7
:1067A00004460D463046394601F09AF802460B463B
:1067B0002046294600F0E0FE02460B464046494688
:1067C00000F0DAFE02460B460020604900F0D4FEDD
:1067D00041EC100B03B0BDEC028BBDE8F08F10EE66
:1067E000102A10EE100A3B46394601F079F846A30C
:1067F000D3E9002304460D4601F072F844A3D3E91F
:10680000002300F0BBFE22462B4601F069F842A3AC
:10681000D3E9002300F0B0FE22462B4601F060F8D9
:106820003FA3D3E9002300F0A9FE22462B4601F046
:1068300057F83DA3D3E9002300F09EFE22462B46E5
:1068400001F04EF83AA3D3E9002300F097FE2B465F
:10685000224601F045F83E4B994582468B468FDD36
:106860003C4B99453DDC0022A9F500130020374937
:106870009046994600F080FECDE900010022324B9F
:106880002046294601F02CF842464B4600F074FEA3
:106890005246804689465B462046294601F020F84C
:1068A00053EC182B04460D463046394601F018F8D3
:1068B00002460B462046294600F05EFE02460B4685
:1068C0004046494600F058FE02460B46DDE900010D
:1068D00000F052FE41EC100B03B0BDEC028BBDE8A2
:1068E000F08F9FED157B4FF000088DED007BDFF8FA
:1068F0006890C3E79FED120B03B0BDEC028BBDE8BF
:10690000F08F00BFAFF30080D43888BEE9FAA8BD8D
:10691000C4B1B4BD9EEE213EAD529C804F7E923EEE
:106920009015CB19A001FA3E7751C1166CC1563FA4
:106930004C5555555555A53F000000000000E73F58
:10694000000000000000F03F0000E03F0000F03FCA
:106950003233D33F0000E93F0000D23F0000000087
:106960002DE9F04FADF51B7D814CA49E814D54F86F
:10697000264007942646D41E85FB0475E417C4EB15
:10698000A50424EAE4741D460A93631CA3EB830365
:10699000013D02EBC30306932B460B940095651B48
:1069A000F4180390089116D42C44013422AEA59F0C
:1069B00008E057F8250000F02DFF0135A542E6E874
:1069C000020108D0002DF4DA013500200021A54293
:1069D000E6E80201F6D1079B002BC0F2C283079BB9
:1069E00003F1010B0A9B22A9DB001A4601EB030904
:1069F0000493039B0DF5E47A19460AEBCB0B01EBEC
:106A00000208009B002BC0F28F81039C4D4600269C
:106A1000002775E90223F4E8020100F061FF024655
:106A20000B463046394600F0A9FD444506460F4660
:106A3000EFD1EAE80267DA4509F10809E1D10799DF
:106A40000498039C049101F18043023B9B00204485
:106A50001A1D83460EA8024403440D920C93049A17
:106A60009AA901EBC203002A53E9284529DD0DF557
:106A7000E47A0AEBC2080DF1340900223E4B2046AD
:106A8000294600F02DFF01F0C5F900F0C3FE0022F9
:106A90003A4B06460F4600F023FF02460B462046BF
:106AA000294600F069FD01F0B5F978E9022349F8BB
:106AB000040F3946304600F061FDD04504460D46CE
:106AC000DBD1DDF8189045EC104B484600F0BCFCDB
:106AD00055EC104B00224FF07F5310EE100A294660
:106AE00000F0FEFE41EC100B00F01EFC002251EC09
:106AF000100B234B00F0F4FE02460B4620462946BD
:106B000000F03AFD0D46044601F084F9804600F09D
:106B100081FE0B4602462946204600F02DFD4B46DD
:106B2000002B06460F4640F3E580049A0EA9013A71
:106B3000C9F1180351F8225045FA03F101FA03F3A1
:106B40000EA8EB1A40F82230C9F11705884443FA21
:106B500005F5002D41DD049B002B08F1010840F3F1
:106B6000C982002214460DA90498AE4612E000BF67
:106B70004C890D00ABAAAA2A0000703E00007041AB
:106B800000002040C3F180750BB10D60012401327B
:106B900090420DDD51F8043F002CF3D0C3F1FF13F8
:106BA000013203F57F4390420B604FF00104F1DCAA
:106BB0007546069B002B0EDD012B00F0A380022BF7
:106BC00009D1049B5A1E0EAB0EA953F82230C3F311
:106BD000150341F82230022D74D0002200233046E4
:106BE000394601F0E5F8002800F04982049A079B35
:106BF000501E834210DC02F18043013B0EAA0D9C23
:106C000002EB8303002253F80419A34242EA010273
:106C1000F9D1002A40F0A480079B0EAA013B52F84C
:106C20002330002B40F064820C9A012352F804199F
:106C300001330029FAD0049AD31802F1010A9A45C7
:106C400009933CDC0B9B0A9A09990AEB0309049B04
:106C5000984690448B1809F18049A59A09F1FF39AB
:106C600002EB890922AA02EBC303049372AB02EB85
:106C7000C80803EBCA0A59F8040F00F0CBFD009BCB
:106C8000002BE8E802014FF000064FF0000711DB8F
:106C9000039C454675E90223F4E8020100F020FE5A
:106CA00002460B463046394600F068FC5C45064615
:106CB0000F46EFD1049B9845EAE80267DBD1099BB8
:106CC0000493CCE632463B460020B34900F054FC26
:106CD00006460F46002C80D006989FEDAB0B00F0C7
:106CE000B3FB3046394653EC102B00F045FC06460A
:106CF0000F4672E711D1049B0EAA013B52F82350B4
:106D0000ED1526E7049B5A1E0EAB0EA953F8223050
:106D1000C3F3160341F822305DE700229F4B01F0D8
:106D200065F858B9054658E700260027EAE80267E3
:106D3000DA4509F108097FF464AE80E6049B002B74
:106D400008F10108C8BF02253FF70BAF32463B46AA
:106D50000020914900F010FC022506460F463CE752
:106D60000EA9CDF8248051F82030069900901839EA
:106D70000246039506916BB900F18043013B0EA8D2
:106D800000EB830353F80409013A18390028F9D0BD
:106D90000092069106989FED7C0B00F055FB009B3E
:106DA000002B55EC104BC0F2C181DA000DF5E478F0
:106DB0000EA901EB830608EB020B069204360BF1D9
:106DC000080756F8040D00F025FD22462B4600F07A
:106DD00087FD002267E90201714B2046294600F039
:106DE0007FFD474504460D46EBD14AACDDF81C90CB
:106DF00004944FF0000AB9F1000FC0F22B81DFF8C4
:106E0000A4815D4662A3D3E9002300260027002465
:106E100003E0A24510DBF8E80223F5E8020100F0E8
:106E20005FFD02460B463046394600F0A7FB0134B1
:106E3000A14506460F46ECDA049B03EBCA03ABF10F
:106E4000080BC3E9006770AB9B450AF1010AD2D178
:106E5000A49B049C032B00F28D80DFE813F0DD007F
:106E6000A500A5000400009B002B40F35C81009B63
:106E700003F1005B069B0BF1FF3BE2184FEACB03EB
:106E8000D2E9008903F10802103304EB020AE51885
:106E90003AED027B42464B4651EC170B8DED047BDD
:106EA00000F06CFB06460F4602460B46DDE9040186
:106EB00000F062FB4B46424600F060FB65E90201D0
:106EC0004CAB9D42B046B946CAE90067E0D1009B91
:106ED000012B40F32881069B234493ED007B4FEA6E
:106EE000CB0B0BF1100A8DED007BA2440BF1080BCC
:106EF00004EB0B05D0460DF59C7BCDF810A075E991
:106F0000029ADDE900014A46534600F037FB064687
:106F10000F4602460B464846514600F02DFBDDE980
:106F2000002300F02BFB68E90201C345CDE90067AF
:106F3000C5E90067E3D1DDF810A0002000217AE95F
:106F4000022300F01BFBD345F9D1039B002B00F07B
:106F5000D3806268E368089F2568A4683D6002F1F9
:106F6000004203F1004301F100417A60FB60BC6024
:106F700038617961099B03F007000DF51B7DBDE8C1
:106F8000F08F00BFAFF30080000000000000F03F72
:106F900000000040FB21F93F0000F03F0000E03F0F
:106FA0000000703E68890D00069D083525440020CC
:106FB000002175E9022300F0E1FAA542F9D1039B13
:106FC000002B4AD0089E024601F1004386E80C00DF
:106FD0000B460246D4E9000100F0CEFA009B002BDC
:106FE0000DDD4CAD0124F5E8022300F0C7FA009B4B
:106FF0000134A342F7DA039B002B00F0A78001F1D4
:10700000004308990246C1E90223099B03F00700E7
:107010000DF51B7DBDE8F08F069B009D0833002019
:1070200000211C4474E90223013D00F0A7FA6B1C07
:10703000F8D1039B0246002B00F08E8001F1004343
:107040000899C1E90023099B03F007000DF51B7D9A
:10705000BDE8F08F00260027EEE6089B0246C3E954
:1070600000010B46D4E9000100F086FA009C002CD8
:1070700002460B46B5DC0899C1E90223C5E7069B29
:107080000395584247EC106BCDF8248000F0DCF9F2
:1070900055EC104B0022384B10EE100A294600F038
:1070A000A5FE002834D00022344B2046294600F0AB
:1070B00017FC00F0AFFE064600F0ACFB00222E4BA2
:1070C00000F00EFC02460B462046294600F054FA1A
:1070D00000F0A0FE0499069B0A461833013206937D
:1070E0000B460EA9009241F8230041F8226051E6B8
:1070F0000123A0E500245CE5D4E90067D4E902237C
:10710000089DC5E90401C5E90067C5E9022331E727
:107110002946204600F07EFE049A00920EA941F80E
:10712000220037E64AAC002000210EE7A49B032B87
:107130003FF620AF01A252F823F000BF73710D009B
:107140006B710D006B710D0025710D000B460899D8
:107150000246C1E9022358E70B460899C1E900231A
:1071600071E70A9BDB00049369E4002000214AAC2C
:1071700025E7002000215CE7000070410000703E20
:107180002DE9F04F55EC104B2DED028BB0EE418AFE
:10719000F0EE618A25F00043B3F1795F83B0824657
:1071A00007DA10EE100A294600F034FE002800F03D
:1071B0008E8022462B462046294600F091FB06464B
:1071C0000F4602460B462046294600F089FB47A39E
:1071D000D3E90023804689463046394600F080FBDB
:1071E00044A3D3E9002300F0C7F932463B4600F040
:1071F00077FB42A3D3E9002300F0C0F932463B46B7
:1072000000F06EFB3FA3D3E9002300F0B5F932464E
:107210003B4600F065FB3DA3D3E9002300F0AEF947
:10722000CDE90001BAF1000F37D000222E4B51EC0E
:10723000180B00F055FBDDE9002382468B464046E3
:10724000494600F04DFB02460B465046594600F0B9
:1072500093F932463B4600F043FB53EC182B00F009
:107260008BF91FA3D3E9002306460F464046494643
:1072700000F036FB02460B463046394600F07EF9F8
:1072800002460B462046294600F076F941EC100BE9
:1072900003B0BDEC028BBDE8F08F02460B463046D2
:1072A000394600F01DFB0EA3D3E9002300F064F97A
:1072B00042464B4600F014FB22462B4600F05EF996
:1072C00041EC100B03B0BDEC028BBDE8F08F45EC38
:1072D000104B03B0BDEC028BBDE8F08FAFF3008024
:1072E000495555555555C53F0000E03F7CD5CF5A0F
:1072F0003AD9E53DEB9C2B8AE6E55A3E7DFEB15737
:10730000E31DC73ED561C119A0012A3FA6F810119F
:107310001111813F53EC102B23F0004343EC102B51
:10732000704700BF0000000051EC100BC1F30A537E
:107330002DE9F041A3F2FF35132D0C460F4610EE58
:10734000106A1DDC002D43DB3D4B43FA05F801EAD2
:107350000803034319D038A3D3E9002300F00EF942
:107360000022002300F04CFD20B1002C49DB27EA6D
:10737000080400262346324643EC102BBDE8F0817A
:10738000332D06DDB5F5806F32D041EC100BBDE832
:10739000F081A3F213434FF0FF3828FA03F810EA04
:1073A000080FF2D024A3D3E9002300F0E7F800226D
:1073B000002300F025FD0028DCD0002C27DB3C4614
:1073C00026EA08062346324643EC102BBDE8F0813E
:1073D00019A3D3E9002300F0D1F80022002300F024
:1073E0000FFD0028C6D0002C1CDB00263446C1E768
:1073F00010EE102A0B4600F0C1F841EC100BBDE86E
:10740000F0814FF4801343FA05F52F44AFE7142DB4
:1074100010D00123C5F1340503FA05F5AE1928BFD4
:10742000FF18CCE724F00042064B324318BF1C463D
:1074300000269FE70137C2E79C7500883CE4377E51
:10744000FFFF0F000000F0BF53EC102B70B5C3F32B
:107450000A541946054614BB23F0004111432AD0B3
:1074600019460022384B394E10EE100A00F038FA57
:10747000B54202460B461FDBC1F30A54363C2C448E
:1074800040F2FE7084421FDC002C2DDD21F0FF4114
:1074900021F4E00141EA045343EC102B70BD40F2AB
:1074A000FF708442EBD110EE100A194600F066F826
:1074B00041EC100B70BD70BD1FA3D3E9002300F099
:1074C0000FFA41EC100B70BD43EC112B9FED1C0B20
:1074D00000F040F81AA3D3E9002351EC100B00F0A0
:1074E000FFF941EC100B70BD14F1350F13DA4CF2BB
:1074F00050318D4243EC112BE8DC9FED0F0B00F077
:1075000029F80DA3D3E9002351EC100B00F0E8F9A2
:1075100041EC100B70BD21F0FF4121F4E001363445
:1075200041EA0453104619460022094B00F0D8F9ED
:1075300041EC100B70BD00BF59F3F8C21F6EA501DE
:107540009C7500883CE4377E00005043B03CFFFF50
:107550000000903C53EC102B11EE900A23F00041F8
:1075600000F0004041EA000343EC102B704700BFDD
:1075700081F0004102E000BF83F0004330B54FEAE4
:1075800041044FEA430594EA050F08BF90EA020F51
:107590001FBF54EA000C55EA020C7FEA645C7FEAE4
:1075A000655C00F0E2804FEA5454D4EB5555B8BF07
:1075B0006D420CDD2C4480EA020281EA030382EA78
:1075C000000083EA010180EA020281EA0303362D0A
:1075D00088BF30BD11F0004F4FEA01314FF4801CDD
:1075E0004CEA113102D0404261EB410113F0004FEF
:1075F0004FEA03334CEA133302D0524263EB4303A6
:1076000094EA050F00F0A780A4F10104D5F1200E43
:107610000DDB02FA0EFC22FA05F2801841F100019E
:1076200003FA0EF2801843FA05F359410EE0A5F172
:1076300020050EF1200E012A03FA0EFC28BF4CF0A3
:10764000020C43FA05F3C01851EBE37101F0004559
:1076500007D54FF0000EDCF1000C7EEB00006EEB66
:107660000101B1F5801F1BD3B1F5001F0CD34908F0
:107670005FEA30004FEA3C0C04F101044FEA445247
:1076800012F5800F80F09A80BCF1004F08BF5FEACE
:10769000500C50F1000041EB045141EA050130BDAE
:1076A0005FEA4C0C404141EB010111F4801FA4F151
:1076B0000104E9D191F0000F04BF01460020B1FAA6
:1076C00081F308BF2033A3F10B03B3F120020CDADE
:1076D0000C3208DD02F1140CC2F10C0201FA0CF0BC
:1076E00021FA02F10CE002F11402D8BFC2F1200C21
:1076F00001FA02F120FA0CFCDCBF41EA0C019040D7
:10770000E41AA2BF01EB0451294330BD6FEA04041F
:107710001F3C1CDA0C340EDC04F11404C4F120020A
:1077200020FA04F001FA02F340EA030021FA04F31C
:1077300045EA030130BDC4F10C04C4F1200220FA73
:1077400002F001FA04F340EA0300294630BD21FAB1
:1077500004F0294630BD94F0000F83F4801306BF77
:1077600081F480110134013D4EE77FEA645C18BF6B
:107770007FEA655C29D094EA050F08BF90EA020F02
:1077800005D054EA000C04BF1946104630BD91EAFA
:10779000030F1EBF0021002030BD5FEA545C05D1FD
:1077A0004000494128BF41F0004130BD14F580043C
:1077B0003CBF01F5801130BD01F0004545F0FE41B0
:1077C00041F470014FF0000030BD7FEA645C1ABFE5
:1077D000194610467FEA655C1CBF0B46024650EA1C
:1077E000013406BF52EA033591EA030F41F4002148
:1077F00030BD00BF90F0000F04BF0021704730B5CE
:107800004FF4806404F132044FF000054FF00001A2
:1078100050E700BF90F0000F04BF0021704730B563
:107820004FF4806404F1320410F0004548BF404238
:107830004FF000013EE700BF42004FEAE2014FEA8D
:1078400031014FEA02701FBF12F07F4393F07F4F68
:1078500081F06051704792F0000F14BF93F07F4F9A
:10786000704730B54FF4607401F0004521F00041DD
:1078700020E700BF50EA010208BF704730B54FF063
:1078800000050AE050EA010208BF704730B511F068
:10789000004502D5404261EB41014FF4806404F1A0
:1078A00032045FEA915C3FF4DCAE4FF003025FEA22
:1078B000DC0C18BF03325FEADC0C18BF033202EBAA
:1078C000DC02C2F1200300FA03FC20FA02F001FA04
:1078D00003FE40EA0E0021FA02F11444C1E600BFA3
:1078E00070B54FF0FF0C4CF4E06C1CEA11541DBF56
:1078F0001CEA135594EA0C0F95EA0C0F00F0DEF821
:107900002C4481EA030621EA4C5123EA4C5350EA05
:10791000013518BF52EA033541F4801143F4801356
:1079200038D0A0FB02CE4FF00005E1FB02E506F0E7
:107930000042E0FB03E54FF00006E1FB03569CF03C
:10794000000F18BF4EF0010EA4F1FF04B6F5007F42
:1079500064F5407404D25FEA4E0E6D4146EB0606B4
:1079600042EAC62141EA55514FEAC52040EA5E503D
:107970004FEACE2EB4F1FD0C88BFBCF5E06F1ED8E7
:10798000BEF1004F08BF5FEA500E50F1000041EB1E
:10799000045170BD06F0004646EA010140EA0200CB
:1079A00081EA0301B4EB5C04C2BFD4EB0C0541EAED
:1079B000045170BD41F480114FF0000E013C00F302
:1079C000AB8014F1360FDEBF002001F0004170BD26
:1079D000C4F10004203C35DA0C341BDC04F114043F
:1079E000C4F1200500FA05F320FA04F001FA05F2CB
:1079F00040EA020001F0004221F0004110EBD37098
:107A000021FA04F642EB06015EEA430E08BF20EAC3
:107A1000D37070BDC4F10C04C4F1200500FA04F366
:107A200020FA05F001FA04F240EA020001F00041F8
:107A300010EBD37041F100015EEA430E08BF20EA6B
:107A4000D37070BDC4F1200500FA05F24EEA020EB3
:107A500020FA04F301FA05F243EA020321FA04F0E2
:107A600001F0004121FA04F220EA020000EBD37099
:107A70005EEA430E08BF20EAD37070BD94F0000F99
:107A80000FD101F00046400041EB010111F4801FCD
:107A900008BF013CF7D041EA060195F0000F18BF7E
:107AA000704703F00046520043EB030313F4801FBA
:107AB00008BF013DF7D043EA0603704794EA0C0F74
:107AC0000CEA135518BF95EA0C0F0CD050EA41068A
:107AD00018BF52EA4306D1D181EA030101F0004107
:107AE0004FF0000070BD50EA410606BF104619462F
:107AF00052EA430619D094EA0C0F02D150EA01363B
:107B000013D195EA0C0F05D152EA03361CBF10467B
:107B100019460AD181EA030101F0004141F0FE411A
:107B200041F470014FF0000070BD41F0FE4141F49E
:107B3000780170BD70B54FF0FF0C4CF4E06C1CEA9E
:107B400011541DBF1CEA135594EA0C0F95EA0C0F53
:107B500000F0A7F8A4EB050481EA030E52EA03350E
:107B60004FEA013100F088804FEA03334FF080552F
:107B700045EA131343EA12634FEA022245EA11155C
:107B800045EA10654FEA00260EF000419D4208BF0D
:107B9000964244F1FD0404F5407402D25B084FEABA
:107BA0003202B61A65EB03055B084FEA32024FF466
:107BB00080104FF4002CB6EB020E75EB030E22BFC3
:107BC000B61A754640EA0C005B084FEA3202B6EB83
:107BD000020E75EB030E22BFB61A754640EA5C0032
:107BE0005B084FEA3202B6EB020E75EB030E22BFC2
:107BF000B61A754640EA9C005B084FEA3202B6EBC3
:107C0000020E75EB030E22BFB61A754640EADC0081
:107C100055EA060E18D04FEA051545EA16754FEAE3
:107C200006164FEAC30343EA52734FEAC2025FEA01
:107C30001C1CC0D111F4801F0BD141EA00014FF090
:107C400000004FF0004CB6E711F4801F04BF014361
:107C50000020B4F1FD0C88BFBCF5E06F3FF6AFAE7D
:107C6000B5EB030C04BFB6EB020C5FEA500C50F10D
:107C7000000041EB045170BD0EF0004E4EEA113190
:107C800014EB5C04C2BFD4EB0C0541EA045170BD97
:107C900041F480114FF0000E013C90E645EA060EDB
:107CA0008DE60CEA135594EA0C0F08BF95EA0C0F09
:107CB0003FF43BAF94EA0C0F0AD150EA01347FF451
:107CC00034AF95EA0C0F7FF425AF104619462CE728
:107CD00095EA0C0F06D152EA03353FF4FDAE10468B
:107CE000194622E750EA410618BF52EA43067FF4DC
:107CF000C5AE50EA41047FF40DAF52EA43057FF46C
:107D0000EBAE12E74FF0FF3C06E000BF4FF0010C76
:107D100002E000BF4FF0010C4DF804CD4FEA410CDA
:107D20007FEA6C5C4FEA430C18BF7FEA6C5C1BD0A7
:107D300001B050EA410C0CBF52EA430C91EA030F28
:107D400002BF90EA020F0020704710F1000F91EA85
:107D5000030F58BF994208BF90422CBFD8176FEA53
:107D6000E37040F0010070474FEA410C7FEA6C5C21
:107D700002D150EA013C07D14FEA430C7FEA6C5C28
:107D8000D6D152EA033CD3D05DF8040B704700BF54
:107D90008446104662468C461946634600E000BFA2
:107DA00001B5FFF7B7FF002848BF10F1000F01BD74
:107DB0004DF808EDFFF7F4FF0CBF012000205DF83F
:107DC00008FB00BF4DF808EDFFF7EAFF34BF0120C4
:107DD00000205DF808FB00BF4DF808EDFFF7E0FF5D
:107DE00094BF012000205DF808FB00BF4DF808EDAE
:107DF000FFF7CEFF94BF012000205DF808FB00BF15
:107E00004DF808EDFFF7C4FF34BF012000205DF8F6
:107E100008FB00BF4FEA410212F5001215D211D53E
:107E20006FF47873B3EB625212D94FEAC12343F077
:107E3000004343EA505311F0004F23FA02F018BFF9
:107E4000404270474FF00000704750EA013005D1C2
:107E500011F0004008BF6FF0004070474FF0000085
:107E6000704700BF4FEA4102B2F1E04324BFB3F5CF
:107E7000001CDCF1FE5C0DD901F0004C4FEAC002A1
:107E80004CEA5070B2F1004F40EB830008BF20F085
:107E90000100704711F0804F21D113F13872BCBF3F
:107EA00001F00040704741F480114FEA5252C2F194
:107EB0001802C2F1200C10FA0CF320FA02F018BFDD
:107EC00040F001004FEAC1234FEAD32303FA0CFC30
:107ED00040EA0C0023FA02F34FEA4303CCE77FEABF
:107EE000625307D150EA01331EBF4FF0FE4040F409
:107EF0004000704701F0004040F0FE4040F40000B8
:107F0000704700BF10B5054C13462CB10A46014618
:107F10000220AFF3008010BD204610BD000000001D
:107F200010B5431E0A44914204D011F8014B03F8E6
:107F3000014FF8E710BD02440346934202D003F814
:107F4000011BFAE77047000038B5124B1C68A36BA1
:107F50000546D3B91820FDF7EDF843F20E33A063C0
:107F600003804AF6CD33438041F2342383804EF2BE
:107F70006D63C3804DF6EC630381052343810B23BE
:107F8000838101220023C0E90423A36B00221D6129
:107F90005A6138BD94E30320034613F8012B002AED
:107FA000FBD1181A0138704721400D005D400D00CB
:107FB00089400D008D400D000000000054696D6582
:107FC000203D2025662C2044617461203D202569D8
:107FD000200A00000000000000000000C9400D0061
:107FE00015420D00714C0D00DD530D003D450D0097
:107FF00071490D00C5430D0051420D00314A0D007D
:10800000C74A0D00FF4A0D001B4B0D000000000089
:10801000000000000000000000000000714C0D0096
:10802000DD530D00A5400D0071490D00914A0D0072
:10803000AD4A0D00314A0D00C74A0D00FF4A0D0040
:108040001B4B0D0000000000003E5B4F5B3E3E6B93
:108050004F6B3E1C3E7C3E1C183C7E3C181C577DE2
:10806000571C1C5E7F5E1C00183C1800FFE7C3E72E
:10807000FF0018241800FFE7DBE7FF30483A060E40
:108080002629792926407F050507407F05253F5A87
:108090003CE73C5A7F3E1C1C08081C1C3E7F1422F7
:1080A0007F22145F5F005F5F06097F017F006689A2
:1080B000956A606060606094A2FFA29408047E04E8
:1080C0000810207E201008082A1C08081C2A08080E
:1080D0001E101010100C1E0C1E0C30383E383006CE
:1080E0000E3E0E06000000000000005F00000007CA
:1080F000000700147F147F14242A7F2A12231308F8
:10810000646236495620500008070300001C2241D3
:10811000000041221C002A1C7F1C2A08083E080877
:108120000080703000080808080800006060002027
:10813000100804023E5149453E00427F400072490A
:108140004949462141494D331814127F10274545AE
:1081500045393C4A494931412111090736494949C4
:1081600036464949291E0000140000004034000032
:10817000000814224114141414140041221408029B
:10818000015909063E415D594E7C1211127C7F490E
:108190004949363E414141227F4141413E7F494963
:1081A00049417F090909013E414151737F0808088F
:1081B0007F00417F41002040413F017F0814224160
:1081C0007F404040407F021C027F7F0408107F3EBA
:1081D0004141413E7F090909063E4151215E7F0927
:1081E000192946264949493203017F01033F40408E
:1081F000403F1F2040201F3F4038403F6314081479
:108200006303047804036159494D43007F414141B0
:108210000204081020004141417F04020102044091
:1082200040404040000307080020545478407F2815
:108230004444383844444428384444287F3854540B
:10824000541800087E090218A4A49C787F0804042E
:108250007800447D40002040403D007F10284400CD
:1082600000417F40007C047804787C08040478385E
:1082700044444438FC1824241818242418FC7C088E
:10828000040408485454542404043F44243C40400B
:10829000207C1C2040201C3C4030403C44281028BE
:1082A000444C9090907C4464544C44000836410007
:1082B0000000770000004136080002010204023C81
:1082C0002623263C1EA1A161123A4040207A385450
:1082D00054555921555579412154547841215554CB
:1082E000784020545579400C1E527212395555551C
:1082F00059395454545939555454580000457C4107
:108300000002457D420001457C40F0292429F0F01F
:10831000282528F07C545545002054547C547C0A70
:10832000097F4932494949323248484832324A483D
:1083300048303A4141217A3A42402078009DA0A03D
:108340007D39444444393D4040403D3C24FF242491
:10835000487E4943662B2FFC2F2BFF0929F620C0AE
:10836000887E090320545479410000447D413048FF
:10837000484A32384040227A007A0A0A727D0D1942
:10838000317D2629292F28262929292630484D40A4
:1083900020380808080808080808382F10C8ACBAA0
:1083A0002F102834FA00007B000008142A1422221F
:1083B000142A1408AA005500AAAA55AA55AA000012
:1083C00000FF00101010FF00141414FF001010FF25
:1083D00000FF1010F010F0141414FC001414F70037
:1083E000FF0000FF00FF1414F404FC141417101F06
:1083F00010101F101F1414141F00101010F0000094
:1084000000001F101010101F10101010F0100000AE
:1084100000FF101010101010101010FF10000000BE
:10842000FF140000FF00FF00001F10170000FC04F5
:10843000F414141710171414F404F40000FF00F7D8
:1084400014141414141414F700F71414141714103B
:10845000101F101F141414F4141010F010F000006A
:108460001F101F0000001F14000000FC140000F08B
:1084700010F01010FF10FF141414FF141010101F30
:1084800000000000F010FFFFFFFFFFF0F0F0F0F041
:10849000FFFFFF0000000000FFFF0F0F0F0F0F385E
:1084A000444438447C2A2A3E147E02020606027E98
:1084B000027E0263554941633844443C04407E20B7
:1084C0001E2006027E020299A5E7A5991C2A492AC8
:1084D0001C4C7201724C304A4D4D30304878483057
:1084E000BC625A463D3E494949007E0101017E2A4F
:1084F0002A2A2A2A44445F444440514A4440404482
:108500004A51400000FF0103E080FF000008086BB3
:108510006B083612362436060F090F0600001818AD
:108520000000001010003040FF0101001F01011E7B
:1085300000191D1712003C3C3C3C000000000000EC
:108540000000000000000000C3510D00B9510D00F3
:10855000AF510D00A5510D0099510D008D510D0029
:1085600081510D0079510D006F510D0065510D00C5
:108570008D5C0D0000081018202830386261756489
:108580000053657269616C0053657269616C3100FA
:108590007479706500706172616D00636D6400696B
:1085A0006400686E64007374726D0066696C7400B8
:1085B0006C766C0061646448616E646C6572007214
:1085C000656D6F766548616E646C657200656E7589
:1085D0006D48616E646C657273004A534F4E5374FC
:1085E0007265616D4C6F6748616E646C65720061A5
:1085F000707000253031307520005D20002564004A
:108600002C200028293A2000205B00636F6465203D
:108610003D200025690064657461696C73203D200C
:10862000000D0A0066006C6E00666E00636F646584
:108630000064657461696C006E6F6E6500747261D0
:10864000636500696E666F007761726E00657272B5
:108650006F720070616E696300616C6C005A002576
:108660002B3033643A253032750025592D256D2D78
:1086700025645425483A254D3A2553257A006173DF
:108680006374696D650000000000000000000000D8
:1086900099560D0089560D008B560D000000000004
:1086A0000000000071570D00C1570D00CF570D009D
:1086B000DD530D00AD570D0073570D0089570D00A8
:1086C000BB570D009F570D006D570D0000000000B7
:1086D000000000007D580D00CD580D00DB580D0046
:1086E000DD530D0091580D00B3580D009F580D003B
:1086F000C7580D007F580D0083580D000000000082
:108700000000000081590D00CB590D00A3590D0048
:1087100083590D00AB590D00B3590D00BB590D0025
:10872000C3590D0000000000000000008B5A0D002E
:10873000815A0D00775A0D006D5A0D00615A0D00D7
:10874000555A0D00495A0D00415A0D00375A0D0077
:108750002D5A0D008D5C0D0000000000000000008F
:10876000075C0D00FD5B0D00F35B0D00A95B0D00C8
:10877000E75B0D00DB5B0D00CF5B0D00C75B0D0001
:10878000BD5B0D00B35B0D008D5C0D0000000000B3
:1087900000000000255C0D002F5C0D00395C0D0011
:1087A000435C0D004D5C0D00595C0D00655C0D00D7
:1087B000715C0D00795C0D00835C0D008D5C0D001B
:1087C00000000000FB21F93FFB2109407CD9124049
:1087D000FB2119407A6A1F407CD92240BBFD25400D
:1087E000FB2129403A462C407A6A2F405C473140B1
:1087F0007CD932409C6B3440BBFD3540DB8F374029
:10880000FB2139401BB43A403A463C405AD83D40DF
:108810007A6A3F404C7E40405C4741406C10424089
:108820007CD942408CA243409C6B4440AC344540D0
:10883000BBFD4540CBC64640DB8F4740EB58484028
:10884000FB21494083F9A200444E6E00FC2915002B
:10885000D1572700DD34F50062DBC0003C9995005C
:10886000419043006351FE00BBDEAB00B761C50021
:108870003A6E2400D24D42004906E00009EA2E007B
:108880001C92D100EB1DFE0029B11C00E83EA700A0
:10889000F535820044BB2E009CE98400B4267000AC
:1088A000417E5F00D6913900538339009CF4390032
:1088B0008B5F840028F9BD00F81F3B00DEFF9700A6
:1088C0000F980500112FEF000A5A8B006D1F6D00E5
:1088D000CF7E360009CB2700464FB7009E663F008B
:1088E0002DEA5F00BA277500E5EBC7003D7BF1007C
:1088F000F739070092528A00FB6BEA001FB15F0054
:10890000085D8D00300356007BFC4600F0AB6B0029
:1089100020BCCF0036F49A00E3A91D005E619100EF
:10892000081BE60085996500A0145F008D40680073
:1089300080D8FF0027734D0006063100CA56150087
:10894000C9A873007BE260006B8CC00002000000CD
:10895000030000000400000006000000000000000A
:1089600000000040FB21F93F000000002D44743E50
:10897000000000809846F83C0000006051CC783B35
:1089800000000080831BF0390000004020257A3869
:10899000000000802282E336000000001DF36935EC
:1089A00000000000000000000000000000000000C7
:1089B00000000000000000000000000000000000B7
:1089C00000000000000000000000000000000000A7
:1089D0000000000000000000000000000000000097
:1089E0000000000000000000000000000000000087
:1089F0000000000000000000000000000000000077
:108A00004300000025420D006D490D00094D0D0089
:108A1000CD510D0071530D00B5530D00FD540D00E7
:108A20000D550D005D550D00595B0D00115C0D00DD
:108A3000595D0D00395F0D00BD5F0D0081600D00B7
:108A400045610D0000000000000000000000000073
:048A50000000000022
:108A5400000103070F1F3F7F0080C0E0F0F8FCFE19
:108A64000000000000000000000000000000000002
:108A740000000000000000000000000000000000F2
:108A840000000000000000000000000000000000E2
:108A94000000000000000000000000000000008052
:108AA40080800000000000000000000000000000C2
:108AB400008080C0C0000000000000000000000032
:108AC40000000000000000000000000000000000A2
:108AD4000000000000000000000000000000000092
:108AE4000000000000000000000000000000000082
:108AF4000000000080C0E0F0F8FCF8E00000000096
:108B040000000000000000000000000000808080E1
:108B1400808000808000000000808080808000FFD2
:108B2400FFFF000000008080808000008080000043
:108B340080FFFF80800080800080808080008080B3
:108B44000000000000808000008C8E84000080F80B
:108B5400F8F88000000000000000000000000000A1
:108B6400F0F0F0F0F0F0F0F0F0F0F0F0E0E0C080C1
:108B740000E0FCFEFFFFFF7FFFFFFFFFFF000000A0
:108B84000000000000000000000000FEFFC701011B
:108B9400010183FFFF00007CFEC70101010183FF87
:108BA400FFFF0038FEC78301010183C7FFFF0000F8
:108BB40001FFFF010100FFFF0701010100007FFF2A
:108BC40080000000FFFF7F0000FFFFFF000001FFA7
:108BD400FFFF010000000000000000000000000092
:108BE400030F3F7F7FFFFFFFFFFFFFFFE7C7C78F35
:108BF4008F9FBFFFFFC3C0F0FFFFFFFFFFFCFCFC24
:108C0400FCFCFCFCFCF8F8F0F0E0C00001030303FA
:108C14000303010303000000000103030303010134
:108C24000301000000010303030301010303000027
:108C34000003030000000303000000000000000123
:108C44000303030303010000000103010000000308
:108C5400030100000000000000000000000000000C
:108C640000000080C0E0F0F9FFFFFFFFFF3F1F0F8F
:108C740087C7F7FFFF1F1F3DFCF8F8F8F87C7DFF5E
:108C8400FFFFFFFFFFFFFF7F3F0F070030300000B3
:108C940000000000000000000000000000000000D0
:108CA40000000000FEFEFC000000000000000000C8
:108CB40000000000000000000000000000E0C00010
:108CC4000000000000000000000030300000000040
:108CD4000000000000000000000000000000000090
:108CE40000C0FEFFFFFFFFFFFFFFFFFF7F7F3F1F6F
:108CF4000F071F7FFFFFF8F8FFFFFFFFFFFEF8E0FD
:108D0400000000010000000000000000FEFE000062
:108D140000FCFEFC0C06060EFCF80000F0F81C0E2D
:108D24000606060CFFFFFF0000FEFE00000000FC2C
:108D3400FEFC00183C7E66E6CE84000006FFFF06BB
:108D440006FCFEFC0C0606060000FEFE0000C0F851
:108D5400FC4E4646464E7C7840183C76E6CECC80A7
:108D640000000000000000000000000000000000FF
:108D74000000000001070F1F1F3F3F3F3F1F0F036D
:108D84000000000000000000000000000F0F0000C1
:108D9400000F0F0F000000000F0F000003070E0C60
:108DA40018180C060F0F0F0000010F0E0C180C0FF3
:108DB400070100040E0C180C0F070000000F0F0031
:108DC400000F0F0F0000000000000F0F000000074D
:108DD400070C0C181C0C060600040E0C180C0F07CC
:108DE400000000000000000000000000000000007F
:108DF400000000000000000000000000000000006F
:108E0400000000000000000000000000000000005E
:108E1400000000000000000000000000000000004E
:108E2400000000000000000000000000000000003E
:108E3400000000000000000000000000000000002E
:108E4400000000000000000000000000000000001E
:108E5400000000000000000000000000000000000E
:108E64007E860D0000000000A0890D00C0890D0061
:108E7400E0890D0000000000000000000000000078
:108E840000000000008A0D00000000000000000047
:108E940000000000000000000000000000000000CE
:108EA40000000000000000000000000000000000BE
:108EB40000000000000000000000000000000000AE
:088EC4000000000034E303206C
:108ECC00FFFFFFFF00000102030405060708090A63
:108EDC000B0C0D0E0F101112131415161718191A5E
:088EEC001B1C1D1E1F202800A5
:048EF4007856341266
:04000003D0004020C9
:00000001FF
