:02000002D0002C
:1040000000400D00288B0D00000006000C0005018B
:084010000401DE0500000000C0
:0440180094800D0083
:10401C0009480A49884208B505D0094A824202D0AB
:10402C00121A03F02FFB0748074A0021121A03F05B
:10403C004FFB014808BD00BF20E10320348A0D006E
:10404C00ECE10320ECE10320F0E7032070B501F074
:10405C004FFE074C074BE41AA40800251E46A54248
:10406C0004D056F8253098470135F8E770BD00BFED
:10407C00308A0D00EC890D0000F038B808B500F05E
:10408C00A5F9BDE8084001F0F5BD01F02FBA01F02B
:10409C0035BA01F033BA000008B5034A00210C20F0
:1040AC0001F048F9FEE700BFC1500D000078B0FAEE
:1040BC0080F040097047012303707047704700007F
:1040CC0010B5034B0360044600F0F4FA204610BD13
:1040DC00B0800D0010B50446FFF7F2FF20464FF4F8
:1040EC00987103F017F8204610BD000010B502F0CF
:1040FC00D9F94FF4165102F0C9F91A4B1A4C188819
:10410C00002102F057FF0121208802F053FF01210A
:10411C00072002F04FFF0021208802F05CFFB9EE6F
:10412C00080A01F0E9FC01F0B9F910B1002001F026
:10413C00C5F9002302220D490D4801F09FF9002317
:10414C0002220C490C4801F099F90C490C48002347
:10415C00012201F093F90B490B48BDE8104000F027
:10416C0031BD00BF24E103202CE103207CE30320BC
:10417C00B9810D0014E203209B810D0078E303202C
:10418C00B8800D00FCE2032028E2032037B5164C62
:10419C00164D236883421BDA02F084F92368144A13
:1041AC00009301212B68134C01F055FC4FF47A70ED
:1041BC0001F012FD0121208802F00DFF0E4B186852
:1041CC0001F00AFD2088002102F005FF012009E022
:1041DC0002F068F923680093084A2B68012101F06A
:1041EC003AFC002003B030BD20E103207CE3032027
:1041FC00C6800D002CE1032030E10320E3800D008C
:10420C0070B586B001F0D7FC1F4C204E204D0146F6
:10421C0002A801F08DFC02A9204601F034FB02A893
:10422C0001F0BAFA314620460023192201F057FB5F
:10423C002146184C13230B2202A801F069FB02A99A
:10424C00204601F020FB02A801F0A6FA0023092267
:10425C002946204601F043FB02F024F9216801F0C5
:10426C00D0FB02F01FF90C4B0C4A1B680093002189
:10427C00334601F0F0FB02F015F92B46084A0021F9
:10428C0001F0E9FB06B070BD68E3032080E3032076
:10429C00F0E1032018E203207CE30320FF800D00F3
:1042AC0022810D0038B5046805467CB16368013B7A
:1042BC0063605BB9236820469B689847A368013B01
:1042CC00A3601BB923682046DB689847284638BD95
:1042DC0010B5044B044640F8183BFFF7E3FF2046AB
:1042EC0010BD00BFCC860D0010B50446FFF7F0FFE3
:1042FC0020461C2102F00EFF204610BD70B504466E
:10430C000E46154600F0DEFA01223146204600F03A
:10431C004DFA20463A2100F0FDF92A462046024982
:10432C00BDE8704000F035BA24870D0070B5D2B0EE
:10433C0006460D46144612A94FF4807206A800F0EA
:10434C00D7F91C4B06937D227B2106A800F0C5FAF9
:10435C00324606A81849FFF7D1FF2A46174906A886
:10436C00FFF7CCFF06A800F0ADFA012206A814490D
:10437C0000F01CFA06A83A2100F0CCF9214606A858
:10438C0000F0C4FA06A800F0D3F9079B03930D4B79
:10439C00039A1B780C498DF8003004A83C2301F0DB
:1043AC0015FE05A8FFF77EFF06A8FFF789FE52B0A1
:1043BC0070BD00BFB0800D00B9810D009B810D0058
:1043CC00B8800D0034E3032033810D002DE9F04358
:1043DC00574B584C1888584D584E89B002F014FE63
:1043EC002060FFF7D3FE564B2870188802F00CFEA5
:1043FC0030602068FFF704FF524800F013FB58B1FF
:10440C003168514800F0E4FD2168504800F0E0FDAF
:10441C0029784F4800F0DCFD4E4F2168DFF84C91B5
:10442C000A2204A801F048FA3B78049A4A498DF80C
:10443C00003002A83C2301F0C9FD03A8FFF732FFAE
:10444C0004A801F0A9F90A22316804A801F034FA91
:10445C003B78049A41498DF8003002A83C2301F0C6
:10446C00B5FD03A8FFF71EFF04A801F095F90A2279
:10447C00297804A801F020FA3B78049A38498DF881
:10448C00003002A83C2301F0A1FD03A8FFF70AFFAE
:10449C0004A801F081F9334F2A7831682068FFF7BE
:1044AC0045FF00233B603B68092B3DDC42F2107159
:1044BC00244800F0A3FB98B34845F7D109F1050057
:1044CC0002F0C2FFDFF8A880C8F8000001F0EAFF94
:1044DC000021D8F80030244A01F0BDFAD8F80010B9
:1044EC000129E3D1072002F076FD40F6B830FFF742
:1044FC004DFE2870134800F095FA60B131681248EF
:10450C0000F066FD2168114800F062FD0A4B10486E
:10451C00197800F05DFD0021072002F05CFDC5E775
:10452C003B6801333B60BEE709B0BDE8F08300BFD8
:10453C0024E103207CE3032078E3032014E203202E
:10454C0028E1032028E2032058E3032008E203209B
:10455C00FCE1032034E30320B9810D009B810D00A5
:10456C00B8800D0038E303203C810D00FCE20320F1
:10457C0064E3032010B5D421044602F0CBFD2046A1
:10458C0010BD0000F7B5294B294E2A4D2A4C2B4F54
:10459C0001221A7000F03EFD304602F0E9FB2A467B
:1045AC002749304602F0A8FD264B009340F25B727F
:1045BC00254B2649204600F06BFA254B25492360F4
:1045CC002A462046C4F8D06002F096FD214600230E
:1045DC00214A2248224E00F0E7FC21460023214AC2
:1045EC00214800F0E1FC21460023204A204800F03D
:1045FC00DBFC21461F4C204A2048002300F0EAFC3B
:10460C003946204601F00FF920461D4C2A4631460A
:10461C0002F072FD3946204601F005F92A46314672
:10462C00204603B0BDE8F04002F066BD34E3032041
:10463C003CE30320ECE1032028E2032095820D00EB
:10464C00DD420D0068810D0051810D0058810D0077
:10465C0048820D00C9400D0089810D0058E30320EC
:10466C00A5570D00A7810D0008E20320C2810D00A3
:10467C00FCE1032068E30320DA810D00FCE2032057
:10468C0018E2032010B5054B0360037C04461BB9EC
:10469C00406808B100F032FF204610BDF8810D00D3
:1046AC0010B50446FFF7EEFF2046142102F032FD50
:1046BC00204610BD10B5034B03600446FFF7E2FF24
:1046CC00204610BD08820D0010B50446FFF7F2FF1E
:1046DC002046302102F01EFD204610BD0023012291
:1046EC00C36043610276437680F82A30704700003D
:1046FC00002310B5C36001230374054B03604FF016
:10470C00FF3341608260C362FFF7E8FF10BD00BF5A
:10471C0008820D00C368826810B593423FBF42689F
:10472C005C1CC460D15424BF012380F82A3010BD16
:10473C0010B54369044643B100EB4303597E09B1FC
:10474C00FFF7E8FF6369013B6361A368E068616898
:10475C0098424FF000022ABF5B180A5403F8012C50
:10476C0010BD70B50446C068A56866682D1A13465E
:10477C0030440A46294600F0E1FE85422DBFE3682D
:10478C00A368E360C01836BF0123E06084F82A30C8
:10479C0070BD0EB403B503AA52F8041B0192FFF7C7
:1047AC00E0FF02B05DF804EB03B070472DE9F04177
:1047BC0004460E46174612B12221FFF7ABFF002527
:1047CC00715D06EB0508002971D0E268A3689A4276
:1047DC006DD20B0633D501F0F003E02B17D198F80E
:1047EC00013003F0C002802A11D105F1020816F83D
:1047FC00082002F0C000802809D102F03F029B0182
:10480C0042EA013203F47C631A4392B211E001F0E4
:10481C00E003C02B46D105F1010816F8083003F06F
:10482C00C002802A3ED1890101F4F86203F03F03F3
:10483C001A4323492046FFF7ACFF454635E00C29C7
:10484C0018D00BD8092921D00A2919D0082929D127
:10485C005C212046FFF75EFF622123E022291BD05A
:10486C005C2919D00D291DD15C212046FFF752FF80
:10487C00722117E05C212046FFF74CFF662111E006
:10488C005C212046FFF746FF6E210BE05C212046A1
:10489C00FFF740FF742105E05C212046FFF73AFF4B
:1048AC0098F800102046FFF735FF013588E72FB147
:1048BC0020462221BDE8F041FFF72CBFBDE8F08176
:1048CC0019820D00426900EB42031A7E12B10022DC
:1048DC001A7670472C21FFF71DBFF8B543690133D9
:1048EC00082B0E4617460ED8FFF7ECFF43695A1CEF
:1048FC0000EB43030124426131469C76DF76FFF7DF
:10490C0009FF2046F8BD0020F8BD00000A4611B191
:10491C000022024900E00249FFF748BF20820D0047
:10492C0025820D0000F076BB08B5D0F8D0000368E6
:10493C001B6B9847003018BF012008BDF8B5064620
:10494C000F461446C4B1D6F8D00003681B6B9847C9
:10495C0008B90020F8BDD6F8D000FA2C036825461B
:10496C00A8BFFA25DB682A463946984780B2241A34
:10497C008542A4B2E6D0ECE70120F8BD2DE9F8435E
:10498C000646884691461F461D460024D6F8D000A0
:10499C0003681B6B9847D0B1002D18DBD6F8D000FC
:1049AC0003681B69984760B1D6F8D00003685B694F
:1049BC00984708F804000134A4B24C4507D03D4692
:1049CC00ECE70A3D0A202DB201F006F9DEE720469D
:1049DC00BDE8F88370B5044600F12205962200214B
:1049EC00284602F075FE6168284602F0ABFED4F84A
:1049FC00D0002289036829465E6A0023B047003044
:104A0C0018BF012070BD10B50446D0F8D000036863
:104A1C001B6B984720B1D4F8D0000368DB6A984729
:104A2C00012010BD70B503689B6804469847C8B94F
:104A3C00204600F060FA042570B1013D15F0FF0529
:104A4C000AD0204600F0AAF841F2883001F0C4F8F0
:104A5C00204600F050FAEFE7236820469B68BDE83B
:104A6C007040184770BD00F0D5BA70B504460846C2
:104A7C000E4602F08AFE03122370607085B2023477
:104A8C002A463146204602F0C2FE601970BD000075
:104A9C0030B50361039B0D4D028143610C4A0560E7
:104AAC0000234160C260C0F8BC30C0F8C030C0F810
:104ABC00C430C0F8C830C0F8CC308361C36180F812
:104ACC00203080F82130A0F8B83030BD6C820D0059
:104ADC0095820D002DE9F74F0FFA83FA03680192C6
:104AEC009D690122534606460C46A847C0B20128D0
:104AFC0001D0002034E0651C04F1050B80464FF01A
:104B0C00000933689B6901221F46294653463046EB
:104B1C00B847C0B20128ECD115F8013B03F07F0275
:104B2C005D4502FB08994FEAC818E2D01B06E8D491
:104B3C00019B2C1B1B1B013B9945336806D9019A21
:104B4C009F69013A121B534692B203E09F691FFA08
:104B5C0089F2534629463046B847C0B2204480B249
:104B6C0003B0BDE8F08F0000F8B505460C461646BC
:104B7C001F463B46962221462846FFF7ABFF48B11D
:104B8C002378B6EB131F05D001F08CFC024900F022
:104B9C0038FFEEE7F8BD00BF96820D0010B5E0239C
:104BAC0080F82230002380F82330036804465B69C8
:104BBC00022200F122019847236820461B69BDE8B8
:104BCC001040184700F1B80230B5134600F1CC0480
:104BDC0053F8045F8D420FD0A342F9D1002352F851
:104BEC00044F24B900EB8300C0F8BC1004E001337F
:104BFC00052BF4D1002030BD012030BD2DE9F04F44
:104C0C0000F122098BB287B0962249460446FFF781
:104C1C0061FF064610B394F82570BBB2019304F102
:104C2C00260304F1B80A002502935AF804BFBBF11D
:104C3C00000F0ED0DBF800100391084602F0A5FD22
:104C4C00B8428046039904D13A46029802F0A6FD78
:104C5C0028B10135052DE8D100204AE049E094F84F
:104C6C0022A00AF0060ABAF1020F3FD1E21992F81B
:104C7C00267092F8272042EA0727142200210BF114
:104C8C00050002F025FD019BC3F57F40FC30064476
:104C9C0004EB8505CAEB0606B6B2152ED5F8BC009A
:104CAC0008F1040128BF132651443246494405300B
:104CBC0002F0F3FCD5F8BC305E8394F8223003F09C
:104CCC000603022B0FD18DF815303B128DF81630E0
:104CDC0023688DF8177040228DF814205B6904222C
:104CEC0005A920469847D5F8BC0002E00746824645
:104CFC00C3E707B0BDE8F08F38B50446084610236B
:104D0C0000F8023B0D462949FFF7AFFE0423037060
:104D1C0002234370A369ABB11B789BB1062343708C
:104D2C0094F82030012B01D10E2302E0022B01D18B
:104D3C001E23437094F82130012B02BF437843F0BB
:104D4C002003437023691B781BB1437863F07F0306
:104D5C00437063691B781BB1437843F04003437085
:104D6C00012383702C23C370E1680B781BB10430D2
:104D7C00FFF77BFE02E0037143710630A16931B18C
:104D8C000B7823B1FFF771FEE169FFF76EFE216925
:104D9C000B780BB1FFF769FE61690B780BB1FFF76C
:104DAC0064FE401BC0B2831E6B7038BDB5820D0013
:104DBC002DE9F843054610460E4691461F4602F073
:104DCC00E4FC9DF82480BDF8204080B2B8F1000FBF
:104DDC0001D1831C00E0031D4FEA480230469BB210
:104DEC0042F03002234400F8012B9BB203F07F0207
:104DFC00DB0918BF42F0800200F8012B002BF5D123
:104E0C004946FFF732FE0346B8F1000F0CD0B5F857
:104E1C00B820120A0270B5F8B8204270B5F8B82064
:104E2C0001320233A5F8B82022463946184602F062
:104E3C0034FC2044801B80B2BDE8F88373B59DF828
:104E4C00186000F1220504468DE8480013460A4616
:104E5C002946FFF7ADFF236802465B6929462046C9
:104E6C00984708B9002017E0B6B14FF4FA739622B0
:104E7C0029462046FFF72EFE0428F3D194F8223061
:104E8C001B11042BEED1A38CB4F8B8005BBA013320
:104E9C009BB2C31A5842584102B070BDF7B50546D3
:104EAC0010461F460E46144602F06FFC009783B264
:104EBC00224631462846FFF7C1FF03B0F0BD38B596
:104ECC001D4682230B700C46B0F8B810090AA1706D
:104EDC00B0F8B830E370B0F8B8100131A0F8B810E1
:104EEC001146201DFFF7C1FD00F8015B001BC0B28D
:104EFC00831E637038BD2DE9F0410368DB680446FE
:104F0C00984718B94FF0FF30BDE8F08104F1220545
:104F1C0029462046FFF7F0FE236882B25B692946DA
:104F2C00204698470028EDD041F27073962229460E
:104F3C002046FFF7CFFDC0B20428E3D1638CB3F554
:104F4C00087FDFD194F8250010B140B2BDE8F081A4
:104F5C0004F1B80704F1CC0857F8043FFBB1032661
:104F6C003A682946137912682046FFF7A8FF236890
:104F7C0082B25B692946204698470028C2D04FF47C
:104F8C00FA73092229462046FFF7EEFD38B9013E97
:104F9C0016F0FF06E4D16FF00100BDE8F081474543
:104FAC00DAD10020BDE8F08110B580E8060003726C
:104FBC0010BD1FB504460A22084601A900F06FFB7C
:104FCC00237A01AA94E80300FFF768FF04B010BD30
:104FDC00FFF7EFBF10B503710023416302604383F9
:104FEC00C361436203628362C362036310BD00F05A
:104FFC0011B8000008B5024B1B689B68019308BDF3
:10500C006802030008B5024B1B68DB68019308BDFE
:10501C006802030008B5024B1B681B68019308BDAE
:10502C002C02030008B5024B1B685B68019308BD9A
:10503C002C02030008B5024B1B689B68019308BD4A
:10504C002C02030008B5024B1B68DB68019308BDFA
:10505C002C02030008B5024B1B681B69019308BDA9
:10506C002C02030008B5024B1B681B6B019308BD97
:10507C002C02030008B5024B1B68DB69019308BDC9
:10508C003002030008B5024B1B681B6A019308BD74
:10509C003002030008B5024B1B685B69019308BD25
:1050AC006C02030008B5024B1B685B68019308BDDA
:1050BC001802030008B5024B1B68DB68019308BD9E
:1050CC001802030008B5024B1B685B69019308BD0D
:1050DC001802030008B5024B1B68DB69019308BD7D
:1050EC001802030008B5024B1B689B6D019308BDA9
:1050FC001802030008B5024B1B689B68019308BD9E
:10510C004802030008B5024B1B681B69019308BDDC
:10511C004802030008B5024B1B685B69019308BD8C
:10512C004802030008B5024B1B685B6C019308BD79
:10513C004802030008B5024B1B689B6C019308BD29
:10514C004802030008B5024B1B685B69019308BD5C
:10515C006402030008B5024B1B681B6A019308BD6F
:10516C006402030008B5024B1B689B6A019308BDDF
:10517C006402030008B5024B1B681B68019308BD51
:10518C003C02030008B5024B1B68DB68019308BDA9
:10519C003C02030008B5024B1B681B69019308BD58
:1051AC003C02030008B5024B1B685B69019308BD08
:1051BC003C02030008B5024B1B689B69019308BDB8
:1051CC003C02030008B5024B1B68DB69019308BD68
:1051DC003C02030008B5024B1B681B6A019308BD17
:1051EC003C02030008B5024B1B689B6A019308BD87
:1051FC003C02030008B5024B1B681B6A019308BDF7
:10520C002802030008B5024B1B685B6A019308BDBA
:10521C002802030008B5024B1B689B6A019308BD6A
:10522C002802030008B5024B1B68DB6A019308BD1A
:10523C002802030008B5024B1B681B6B019308BDC9
:10524C002802030008B5024B1B685B6B019308BD79
:10525C002802030008B5024B1B681B6C019308BDA8
:10526C002802030008B5024B1B689B69019308BD1B
:10527C003802030008B5024B1B68DB69019308BDBB
:10528C003802030008B5024B1B681B6A019308BD6A
:10529C003802030008B5024B1B689B6A019308BDDA
:1052AC003802030008B5024B1B681B6B019308BD49
:1052BC003802030008B5024B1B689B6B019308BDB9
:1052CC003802030008B5024B1B681B68019308BD2C
:1052DC004C02030008B5024B1B685B68019308BDC8
:1052EC004C02030008B5024B1B681B69019308BDF7
:1052FC004C02030008B5024B1B685B69019308BDA7
:10530C004C02030008B5024B1B689B69019308BD56
:10531C004C02030008B5024B1B68DB69019308BD06
:10532C004C02030008B5024B1B681B6A019308BDB5
:10533C004C02030008B5024B1B685B6B019308BD64
:10534C006002030008B5024B1B681B6D019308BD7E
:10535C006002030008B5024B1B681B68019308BD73
:10536C002002030008B5024B1B685B68019308BD63
:10537C002002030008B5024B1B685B69019308BD52
:10538C002002030008B5024B1B68DB6C019308BDBF
:10539C002002030008B5024B1B685B6D019308BD2E
:1053AC002002030008B5024B1B689B6D019308BDDE
:1053BC002002030008B5034B1B68D3F88830019317
:1053CC0008BD00002002030008B5034B1B68D3F88E
:1053DC009430019308BD00002002030008B5024B75
:1053EC001B685B68019308BD4002030008B5024BC3
:1053FC001B689B68019308BD4002030008B5024B73
:10540C001B68DB68019308BD4002030008B5024B22
:10541C001B681B69019308BD4002030008B5024BD1
:10542C001B685B69019308BD4002030008B5024B81
:10543C001B689B69019308BD4002030008B5024B31
:10544C001B68DB69019308BD4002030008B5024BE1
:10545C001B681B6A019308BD4002030008B5024B90
:10546C001B681B6B019308BD4002030008B5024B7F
:10547C001B685B6B019308BD4002030008B5024B2F
:10548C001B681B68019308BD4402030008B5024B5E
:10549C001B689B68019308BD4402030008B5024BCE
:1054AC001B685B69019308BD4402030008B5024BFD
:1054BC001B681B6A019308BD4402030008B5024B2C
:1054CC001B68DB6A019308BD4402030008B5024B5C
:1054DC001B681B6B019308BD4402030008B5024B0B
:1054EC001B68DB6B019308BD4402030008B5024B3B
:1054FC001B681B68019308BD1C02030008B5024B16
:10550C001B685B68019308BD1C02030008B5024BC5
:10551C001B689B68019308BD1C02030008B5024B75
:10552C001B681B69019308BD1C02030008B5024BE4
:10553C001B689B69019308BD1C02030008B5024B54
:10554C001B685B6A019308BD1C02030008B5024B83
:10555C001B68DB6A019308BD1C02030008B5024BF3
:10556C001B681B6B019308BD1C02030008B5024BA2
:10557C001B68DB6B019308BD1C0203000022114663
:10558C004068FFF763BF002211464068FFF76EBF0B
:10559C0000224068FFF762BF002281F001014068E1
:1055AC00FFF74CBF00231A4619464068FFF73EBF71
:1055BC0000231A4619464068FFF730BF00221146F7
:1055CC004068FFF723BF002211464068FFF70EBF6B
:1055DC00002202214068FFF711BF00231A464068E1
:1055EC00FFF7FCBE024B03225A60024A1A60704756
:1055FC009CE3032084840D00704710B50C210446F5
:10560C0001F088FD204610BD10B5054B0360044623
:10561C0001710846FFF72EFD0023A360204610BD44
:10562C00B8840D000079FFF72DBD10B50446006855
:10563C0018B1FFF763FF0023236010BD10B50446BB
:10564C00FFF7F3FF204610BD10B5094C00204FF6B4
:10565C00FF732060A080A07120816381FFF782FE20
:10566C002046044A0449BDE8104001F045BD00BF86
:10567C00A4E30320ECE1032049560D0010B50446C9
:10568C0002F083F8013823182046984206D202789B
:10569C00197800F8011B03F80129F6E710BD2DE974
:1056AC00F041931E232B15468CB034BF15460A25AA
:1056BC0000230A2D0C468DF82C3007D1984205DAC0
:1056CC002D2301F101080B70404201E0B0B1A0465E
:1056DC000DF12B0601272A46014601A801F0BEFF59
:1056EC00029B0198092BCCBF3722302252FA83F34C
:1056FC0006F8013901370028EDD106E030238DF88A
:10570C002B30A0460DF12A0602273A46711C404662
:10571C0001F0B8FF20460CB0BDE8F08170B50C4626
:10572C00911E222920D82546294610B9234430221F
:10573C000EE0B0FBF2F602FB1600C1B205F8011B3D
:10574C00092894BF3031573105F8011C3046EBE77E
:10575C00994202D201F8012BFAE7002320460B7084
:10576C00FFF78CFF204670BD002070BD38B5031EBE
:10577C000C4615460BDAB3F1004F4FF02D0214BF57
:10578C005842184601230A702A46194400E00123A6
:10579C00FFF7C4FF204638BD10B504460068FFF77C
:1057AC00ADFE204610BD10B50446006808B1FFF7E9
:1057BC00A5FE00232360A360636010BD38B50446CA
:1057CC000D4600680131FFF7A1FE10B184E82100FD
:1057DC00012038BD10B50368044613B143688B42F1
:1057EC0007D22046FFF7EAFF20B1A3680BB9226865
:1057FC001370012010BD70B50E46114604461546B7
:10580C00FFF7E8FF18B92046FFF7CDFF09E02A465D
:10581C003146A560206801F035FF2268A36800219D
:10582C00D154204670BD38B5002304460360436054
:10583C00836003730D4639B1084601F0A6FF294673
:10584C0002462046FFF7D7FF204638BD38B505463F
:10585C0000680C4660B16A688B689A4206D3096886
:10586C0001F070FFA368AB6000230AE0FFF746FE6F
:10587C0023682B6063686B60A368AB6000232360B4
:10588C006360A36038BD884210B5044601D0FFF7B1
:10589C00DDFF204610BD38B505460C4641B1084623
:1058AC0001F073FF214602462846FFF7A4FF01E0F2
:1058BC00FFF779FF284638BD10B5044600238AB09F
:1058CC0023606360A3602373084601A9FFF74EFFB2
:1058DC0001A92046FFF7DFFF20460AB010BD70B5C6
:1058EC000E469AB191B185689D4202D800230B7087
:1058FC0070BD541EED1A0168AC4228BF2C461944E9
:10590C002246304601F083FF0023335570BD000062
:10591C00F8B59A420F461D460C4988BF13461446EB
:10592C00064684BF2C461D46FFF77DFFBA6894429D
:10593C000AD83968954294BFC4EB0502C4EB020245
:10594C0021443046FFF757FF3046F8BD95820D00D5
:10595C0010B50446006808B1FFF7ECFB204610BDFB
:10596C000B68036013B15A6801325A60704700002B
:10597C0010B5064C002320462360FFF7D3FB2046CE
:10598C00034A0449BDE8104001F0B6BBB0E3032064
:10599C00ECE103205D590D00F8B506460D468F1855
:1059AC000024BD420CD0336815F8011B9B683046AF
:1059BC009847002801DB0444F3E7002C08BF044699
:1059CC002046F8BD70B505460C46084649B101F0B5
:1059DC00DCFE2B68024621462846DB68BDE8704099
:1059EC00184770BD03689B68184738B50D210546EC
:1059FC00FFF7F8FF0A2104462846FFF7F3FF20447F
:105A0C0038BD38B50546FFF7DDFF04462846FFF7DD
:105A1C00ECFF204438BD30B58BB00B4600218DF81F
:105A2C002410012A98BF0A220DF12304B3FBF2F5CE
:105A3C0005FB123303F0FF03092B94BF30333733CC
:105A4C00DBB2214604F801392B46002DEED1FFF7CD
:105A5C00B9FF0BB030BD0CB42DE9F04387B000AFEB
:105A6C0007F13804054654F8049B3C600E46234667
:105A7C004A461421381DFFF761FD132805D8391D3E
:105A8C002846FFF79FFF044613E000F1080323F0BC
:105A9C000703E846ADEB030D411C23464A46684616
:105AAC003C60FFF74BFD69462846FFF78BFF044629
:105ABC00C5461EB12846FFF798FF044420461C3704
:105ACC00BD46BDE8F04302B070470000014B024AEE
:105ADC001A607047B4E3032033850D0008B500202D
:105AEC00FFF7F4FC28B1FFF7D9FC80F00100C0B23D
:105AFC0008BD012008BD0000FAEE087AB4EEE70AF2
:105B0C00F1EE10FA0FD4F2EE0C7AB4EEE70AF1EEE5
:105B1C0010FA08DCDFED047A044B20EE270ABDEE08
:105B2C00C00A83ED000A704700006145C0E3032002
:105B3C0037B50E4B1B6819440D4B1B68044602A865
:105B4C00194440F8041D01F091FC01F041FC05469C
:105B5C0001F01BFE2844002300F8013C2946204696
:105B6C00FFF761FE204603B030BD00BFC0E3032049
:105B7C00BCE3032010B50020FFF7B4FA044668B963
:105B8C00FFF7E8FB01280BD12046FFF70BFC38B9D7
:105B9C00FFF7A4FF30B9FFF779FCF9E7012010BD3E
:105BAC00002010BDFFF79AFF0020FFF79BFA003092
:105BBC0018BF012010BD08B5FFF7DCFFBDE8084099
:105BCC00FFF788BA024B1A68024B1A60704700BF85
:105BDC0034E10320B8E303200021FFF7CBBB10B561
:105BEC008368044613B1032201469847204610BD32
:105BFC0010B50446FFF7F3FF204610BD13B50B4656
:105C0C00044603C88DE8030093E8030084E803000E
:105C1C009DE8030083E8030002B010BD0348044A6A
:105C2C0004490023836001F067BA00BFC4E303207A
:105C3C00ECE10320FD5B0D0008B50C4B33B100F01B
:105C4C0031FC03681B699847002809DC084B63B1D9
:105C5C0000F0AAFC03681B699847002803DC08BD08
:105C6C00AFF30080F2E7AFF3008008BD0000000046
:105C7C000000000008B5FFF7DFFFFFF723FA014B28
:105C8C00186008BD08E703200248034A0349121AAA
:105C9C0001F0F8BC00F4032004F40320308A0D005A
:105CAC0007B5002300931A466FF07701FFF78CFBC2
:105CBC0003B05DF804FB000007B543880A2B08D03D
:105CCC00502B09D1094B1B683BB103B05DF804EBB9
:105CDC001847FFF7E5FF06E0002300931A466FF024
:105CEC007701FFF771FB03B05DF804FBD4E30320ED
:105CFC0038B5104C104D2368AB42104B0CBF012231
:105D0C0000221A7002D0FFF7BFFF2560FFF7CAF917
:105D1C00044601F0E5FC0A4B13B12046AFF30080BA
:105D2C0000210748FFF7DAFB00210648BDE83840A0
:105D3C00FFF740BB00F403201E1C279AD8E3032076
:105D4C0000000000C55C0D0070470020704710B5C6
:105D5C001021044601F0DEF9204610BD08B508B14B
:105D6C00FFF7F5FF08BD0022026010B54FF69C72DC
:105D7C008280B1F9044084808A8002680C680460D7
:105D8C000A6010BD10B504460068FFF7B7FB20464B
:105D9C0010BD38B5C468F4B12378022B03D104F1DB
:105DAC000C00FFF7EFFF656835B12846FFF717FFCA
:105DBC001021284601F0AEF9A56835B12846FFF749
:105DCC000EFF1021284601F0A5F920461421BDE84C
:105DDC00384001F09FB938BD13B5044691E8050071
:105DEC0000234B600B602060626001A8019300935C
:105DFC00FEF758FA204602B010BDF7B50C4602ADBE
:105E0C0054F8043B45F8083D06460F4601A82146C8
:105E1C00FFF7A6FD29463046FFF7DEFF01A8FEF787
:105E2C0041FA2046FEF73EFA3846082101F072F995
:105E3C00304603B0F0BD000038B5002304460360C3
:105E4C0010200D46FEF721F928B101234360836031
:105E5C00024B0360C5602060204638BDC4850D0030
:105E6C00826810B50AB901F068F9C368BDE8104042
:105E7C00184708B5006800F11001FFF7F1FF08BDE5
:105E8C00826810B50AB901F058F9C368BDE8104032
:105E9C00184708B5006800F11001FFF7F1FF08BDC5
:105EAC0038B5002383608B6804460D462BB1022263
:105EBC009847EB68E360AB68A360204638BD0000F0
:105ECC00F0B589B004686846FFF74DFF00238DF8E4
:105EDC0008304FF00202D4E84F3F002B03D1C4E846
:105EEC00412F0029F7D102D08DF8083063E014F16E
:105EFC000C0503D069462846FFF735FFBFF35F8FCB
:105F0C0001236370002004F10803BFF35F8F53E893
:105F1C00006F43E80002002AF9D1BFF35F8F002E17
:105F2C0049D0FFF72FFA20B129463046FFF798FFEA
:105F3C003AE0314602A8FFF7B3FFE068B4F910501D
:105F4C0008B101F007FC06901020ADF81C50FEF7CC
:105F5C009CF80546E8B1002787601820FEF795F8F5
:105F6C00044688B10146876002A8FFF747FE049BF0
:105F7C00A268A360059B049206A9E268E36004F1A1
:105F8C0010000592FFF7EFFE0D4BEB600D4B2C60F4
:105F9C00AB6006A8FFF7F6FE02A8FFF720FE002272
:105FAC0029460948FFF7F6F93046FFF718FE10218D
:105FBC00304601F0AFF86846FFF7E4FE09B0F0BDDB
:105FCC007F5E0D00F5600D0001660D002DE9F04FB0
:105FDC008BB006460F46904699469DF850A0FFF7A9
:105FEC005DFA07AD834630BB4FF62E73059005A9BD
:105FFC002846ADF81830FFF7B6FE1420FEF745F82A
:10600C00044658B10223037001234370C0F804B056
:10601C00C0F808B029460C30FFF7A5FE30462146E3
:10602C0040F8044BFFF708FF2846FFF7ABFE05A826
:10603C00FFF7A8FE52E000240C2314206C60AC6027
:10604C000793FEF722F8014618B1047044704460BF
:10605C00846004A80391FFF7EFFE224B08930820FD
:10606C00FEF713F8044628B1039B40F8043B04A93F
:10607C00FFF776FC00955FFA8AF34A4641463846AC
:10608C000994FFF713FA20B9039B5B7803F0FF0226
:10609C0083B1039B059304A906A8FFF761FC05A92E
:1060AC003046FFF799FE06A8FEF7FCF804A8FEF7A9
:1060BC00F9F813E04FF69C7305A903A80592ADF807
:1060CC001830FFF7FDFE05A8FFF75CFE05A809993F
:1060DC00FFF793FE06A8FEF7E5F8DAE730460BB0BB
:1060EC00BDE8F08F65620D00022AF8B5044606D0B3
:1060FC00032A17D0012A22D10B6803601FE0182055
:10610C000E68FDF7C2FF054650B13146FFF7C8FED9
:10611C003069B6F9147008B101F01CFB2861AF822C
:10612C0025600CE0046854B104F11000FFF72AFE5E
:10613C002046FFF754FD1821204600F0EBFF00200D
:10614C00F8BD38B5002383608B6804460D462BB12F
:10615C0002229847EB68E360AB68A360204638BD29
:10616C00022A70B5044606D0032A11D0012A18D190
:10617C000B68036015E014200E68FDF786FF0546DA
:10618C0020B13146FFF7DDFF337C2B74256008E02E
:10619C00046834B12046FFF722FD1421204600F09C
:1061AC00B9FF002070BD0000F0B5002387B00C468D
:1061BC00BFF35F8F50E8006F40E80032002AF9D13E
:1061CC00BFF35F8F002E3FD01846FFF7DBF8074672
:1061DC0020B121463046FFF753FE2EE0314601A890
:1061EC00FFF7AFFF23788DF814301020FDF74DFF2B
:1061FC000546D0B187601420FDF747FF044678B1FF
:10620C008760014601A8FFF7F9FC039BA268A36015
:10621C00049B0392E268E3609DF8143004922374AB
:10622C000A4BEB600A4B2C60AB6001A8FFF7D7FC64
:10623C00002229460748FFF7ADF83046FFF7CFFCA0
:10624C001021304600F066FF07B0F0BD9F5E0D00D8
:10625C006D610D0001660D0030B585B004460D462C
:10626C0068461146FFF7C9FD7CB124B228460DB132
:10627C0001F070FA029002A96846ADF80C40FFF7E5
:10628C001FFE02A8FFF77EFD1DE000988DF8084068
:10629C004FF00102D0E84F3FA34203D1C0E8412F99
:1062AC000029F7D102D08DF808300CE010F10C0168
:1062BC004FF0010318BF0373BFF35F8F043000F876
:1062CC00033CFFF771FF01A8FDF7ECFF05B030BDF3
:1062DC00704710B51821044600F01CFF204610BD75
:1062EC00F0B5037D062B8DB00E4600F104074FF080
:1062FC00000402D000F1080518E00CAD394605F891
:10630C00304D2F232A460A20FEF71CFF284601F0A9
:10631C003CFA33680246DB682946304698470FE062
:10632C0024B12E213046FFF75DFB044415F8011D06
:10633C000A223046FFF76FFBBD420444F0D12046E1
:10634C000DB0F0BD10B5054B0446112240F8043BCE
:10635C00002101F0BDF9204610BD00BFE0850D0005
:10636C000346074A10B543F8042B01F1100251F80B
:10637C00044B43F8044B9142F9D10A781A7010BDC2
:10638C00E0850D00037D042B01D1406808E0062B4D
:10639C000AD1436853B9836843B9C36833B90069F8
:1063AC00003018BF01207047002070470120704753
:1063BC0010B59DF8084044EA032343EA024242EA3E
:1063CC00016104234160037510BD37B50D788B78DE
:1063DC004A78C97800912946FFF7EAFF03B030BD2F
:1063EC0041747047704708B50021007CFEF78AFFA6
:1063FC0030EA200028BF4FF0FF3008BD08B501215E
:10640C00007CFEF77FFF30EA200028BF4FF0FF3002
:10641C0008BD08B5007CFEF76DFF20EAE07008BDF2
:10642C0008B5007CFEF75EFF20EAE07008BD007C3A
:10643C00FEF778BF10B51421044600F06BFE204621
:10644C0010BD38B50446007C0D46FEF753FF0028FE
:10645C0001DC607C28B12946207CFEF75BFF20EA3A
:10646C00E07038BD10B50446002363604FF47A73B6
:10647C00A360054B23600123084621746374114605
:10648C00FEF720FF204610BDF4850D000022007C95
:10649C00FEF720BF10B514220446002101F018F9B4
:1064AC00204610BD30B50E4D87B001A8FFF7F2FFA6
:1064BC00296811F0010410D12846FDF7F7FD60B1F1
:1064CC0001AA21460748FFF7CDFF2846FDF7F3FD4B
:1064DC00054A0649034800F00FFE024807B030BDDC
:1064EC00DCE30320E0E30320ECE10320F1630D0087
:1064FC0070474174704708B5007CFEF773FE20EAC4
:10650C00E07008BD08B5007CFEF744FE20EAE070A0
:10651C0008BD08B5007CFEF74DFE30EA200028BF10
:10652C004FF0FF3008BD08B5007CFEF73BFE30EAAB
:10653C00200028BF4FF0FF3008BD007CFEF742BEA4
:10654C0010B51421044600F0E5FD204610BD70B5D1
:10655C00457C04460E4625B9007CFEF743FE002818
:10656C0005DD3146207CBDE87040FEF70BBE2846A9
:10657C0070BD000010B5044608461146002262604A
:10658C004FF47A72A260054A226001222074627470
:10659C001A46FEF7EFFD204610BD00BF24860D0005
:1065AC00007CFEF717BE000038B50C4D296811F0C1
:1065BC00010411D12846FDF779FD68B1084A094B51
:1065CC0009482146FFF7D6FF2846FDF774FD074A18
:1065DC000749054800F090FD034838BD8CE40320C2
:1065EC0090E4032008E40320F4E30320ECE103200F
:1065FC00FD640D0010B5836804460BB900F09DFDD9
:10660C00C3689847A3681BB10322214620469847CC
:10661C0020461021BDE8104000F07CBD7047F8B555
:10662C00064615460C468F18BC4206D0336814F843
:10663C00011B9B6830469847F6E72846F8BD0022B8
:10664C00007CFEF7D7BD0021007CFEF7DBBD0021EE
:10665C00007CFEF7DFBD0021007CFEF7E3BD0021CE
:10666C00007CFEF7E7BD10B51421044600F052FD86
:10667C00204610BD10B50446002363604FF47A73B6
:10668C00A360044B2174084623601146FEF7E2FD1B
:10669C00204610BD54860D000021007CFEF7D2BDB3
:1066AC00002211464068FEF7D1BE00221146406818
:1066BC00FEF7DCBE00224068FEF7D0BE002281F05F
:1066CC0001014068FEF7BABE00231A46012140685A
:1066DC00FEF7ACBE00231A4619464068FEF79EBE74
:1066EC00002211464068FEF791BE00221146406818
:1066FC00FEF77CBE002202214068FEF77FBE00231D
:10670C001A464068FEF76ABE38B5054688B104687B
:10671C004CB1A3681BB10322214620469847102197
:10672C00204600F0F7FC28461421BDE8384000F064
:10673C00F1BC38BD10B103685B681847704710B5E1
:10674C0003680446BBB15868FEF7D4FC78B92368DB
:10675C005A7C12B95868FEF7D5FC23685868FEF7C6
:10676C00D9FC20680023236028B1FFF7CDFF2068F7
:10677C0008B1FFF7C9FF204610BD38B50446D0F864
:10678C00C40108B1FDF785FCD4F8C00108B1FEF7CF
:10679C00D1FCD4F8BC5135B12846FFF7D0FF042109
:1067AC00284600F0B7FC206808B1FFF7C3FF20466D
:1067BC0038BD000010B5044B044640F8083BFFF709
:1067CC00DCFF204610BD00BF7C860D0038B50E4C9A
:1067DC000E4B23600025022304F5E4706360A56072
:1067EC00C4F8C451C4F8C851FEF79CFC084BC4F85B
:1067FC00CC5184F8D05123602046064A0649BDE8A6
:10680C00384000F079BC00BF14E5032064870D000C
:10681C007C860D00ECE10320C1670D0037B502AC9E
:10682C00036804F8011DDD6B01224FF0FF33214694
:10683C00A84703B030BD10B40368DC6B4FF0FF33D6
:10684C00A4465DF8044B604737B502AC036804F806
:10685C00011DDD6B214613460122A84703B030BD54
:10686C00704738B543691A68002A044605DAB3F84C
:10687C008620B3F884309A4201D001250BE00368DE
:10688C001B699847002814BF0125002503D12368F4
:10689C002046DB6A9847284638BD43691868C043D0
:1068AC00C00F704770470020704710B51421044684
:1068BC0000F030FC204610BDFDF7E9BB7FB5164655
:1068CC0000224260029203925A1C04460D4608D0E4
:1068DC004FF47A72B3FBF2F1029102FB11314A438D
:1068EC00039260690823009341F205026B4440F661
:1068FC00FF710068FEF7B6FC002808DB6069002316
:10690C00324629460068FEF7CDFC002804DAFEF773
:10691C002DFE03686360002004B070BD10B50368E1
:10692C0004469B689847A368013BA3602BB9236876
:10693C002046DB68BDE81040184710BD70B5044612
:10694C004D69054B44F8043B8C3506460FCD0FC4FE
:10695C002B682370304670BDE0850D0010B543697F
:10696C00B3F88620B3F884309A42044605D06269A5
:10697C00B2F884301344187910BD03681B6998472A
:10698C000028F4D14FF0FF3010BD10B54369B3F8B7
:10699C008620B3F884309A42044608D06269B2F873
:1069AC008430591C1344A2F88410187910BD036864
:1069BC001B6998470028F1D14FF0FF3010BDF8B596
:1069CC0043691746B3F88620B3F884309A420546DB
:1069DC000E4606D103681B69984710B94FF0FF3477
:1069EC0014E06969B1F88430B1F88640E41ABC420D
:1069FC0028BF3C46194422460431304600F042FE82
:106A0C006A69B2F884302344A2F884302046F8BD79
:106A1C002DE9F0439846036893B0DB6A0D460646B1
:106A2C001746984712AB002443F8484D224621469E
:106A3C002846FEF7E7FA814600283DD1009B002B43
:106A4C0056D05B69002B53D006A8FFF77BFC009B4C
:106A5C005C696378022B01D1211D13E00A2B14D140
:106A6C001122494601A800F033FEA36833BBE3684A
:106A7C0023BB4FF6FF702569FEF76CFB85421DD1D9
:106A8C0004F1140106A8FFF7A0FC06A8FFF77AFC96
:106A9C0000282DD0336807ADD3F82090184B0C93F9
:106AAC000FCD0DAC0FC42B6823703A4643460CA98E
:106ABC003046C84781461BE0A14619E004F10803A3
:106ACC0001AD1834186859682A4603C20833A3422A
:106ADC001546F7D1062301A90CA80DAD8DF814307D
:106AEC00FFF73EFC0FCD07AC0FC42B682370CCE72F
:106AFC000098FEF77FFA484613B0BDE8F08300BF5C
:106B0C00E0850D0042690023A2F884304269A2F8A6
:106B1C00863070472DE9F0411E4603680C468AB05A
:106B2C00DB6A054617469847237DD5F81480042B5D
:106B3C000CBF02200A2006220121FEF7BBFBC8F87D
:106B4C0000006B691B68002B18DB2846FFF7DAFF87
:106B5C00D6B1002303A9F0B20393ADF81030FEF7C1
:106B6C0099FA58B968690623009341F20B0203ABFA
:106B7C0040F6FF710068FEF775FB28B12B682846BC
:106B8C00DB6A002498473BE01C263246002103A810
:106B9C0000F09EFD237D8DF80C60042B0CD102239C
:106BAC0038468DF80D30FEF7DDFAADF80E00606852
:106BBC00FEF7D0FA049013E00A2338468DF80D3016
:106BCC00FEF7D0FA05AEADF80E00231D04F1140744
:106BDC0018685968324603C20833BB421646F7D1CF
:106BEC006B691C2203A91868FEF74CFB0028C5D161
:106BFC0004340FCC6D698C350FC523682B700124C0
:106C0C0020460AB0BDE8F08110B543690446186807
:106C1C00002801DBFEF72EFB63694FF0FF321A6090
:106C2C006069112200218C3000F052FD2046BDE835
:106C3C001040FFF767BF000030B54269B2F88630EC
:106C4C008BB004461BB1B2F884209A4240D06369E1
:106C5C00186800283FDBB3F886507F2D3BD8191DF0
:106C6C00C5F1800208232944FEF714FB00280CDD33
:106C7C006369B3F886200AB9A3F884206269B2F874
:106C8C0086301844A2F8860025E0FEF76FFC0368F6
:106C9C000B2B20D0FEF76AFC03680B2B1BD0202398
:106CAC00002502930395FEF761FC036801930E4BDC
:106CBC00009302AA2B460D493220FEF743FB636971
:106CCC001868FEF7D7FA63694FF0FF321A6002E0DA
:106CDC00FFF718FFBBE76269B2F88630B2F88400A0
:106CEC00181A0BB030BD00BF17870D0010870D00B0
:106CFC0010B5002304460160A0F88430A0F886305B
:106D0C008830FFF71FFB204610BD00004FF47A724D
:106D1C0070B500238260144A436002604361836152
:106D2C000446A0200E46FDF7B0F9054610B13146D9
:106D3C00FFF7DEFF1420FDF7A8F9034628B1012266
:106D4C0042608260094A02600561A0696561A361C5
:106D5C0028B14368013B43600BB9FFF7DFFD2046C8
:106D6C00FFF7D0FE204670BDCC860D00B0860D001E
:106D7C0010B54FF0FF310446FFF7C8FF204610BD99
:106D8C0010B504460068002801DBFEF773FA2046B4
:106D9C0010BD10B504692046FFF7F2FF24B1204660
:106DAC00BDE81040FDF773B910BD002211464068D4
:106DBC00FEF72CBB002211464068FEF747BB0022B1
:106DCC0011464068FEF752BB00224068FEF746BBF6
:106DDC00002281F001014068FEF730BB00231A4607
:106DEC0019464068FEF722BB00231A461946406834
:106DFC00FEF714BB002211464068FEF7F7BA0022DA
:106E0C0002214068FEF7FABA00231A464068FEF7E2
:106E1C00E5BA0000024B04225A60024A1A6070471D
:106E2C00E8E6032030870D0000231A464068FEF781
:106E3C00D5BA002202214068FEF7E0BA00221146C2
:106E4C004068FEF7D3BA002211464068FEF7DEBA5E
:106E5C0000231A4619464068FEF7E0BA00231A468A
:106E6C0019464068FEF7E2BA002281F00101406841
:106E7C00FEF7E4BA00224068FEF7F0BA0022114691
:106E8C004068FEF7F3BA002211464068FEF7DEBAFE
:106E9C002DE9F043002495B016460D460746FFF742
:106EAC0051FA214620220CA8009400F011FC40233A
:106EBC000C9321466B460CAA3046FEF7A3F8044609
:106ECC00002844D1024601216868FEF79FFA02218E
:106EDC00804622466868FEF799FA009E8146214654
:106EEC00002E34D0002932D17368022B02D00A2B29
:106EFC0009D02AE0B8F1000F27D071693846043167
:106F0C00FFF763FA20E0B9F1000F1ED0746911226B
:106F1C0001A800F0DDFB06238DF8143001AD04F15F
:106F2C0008031834186859682A4603C20833A34268
:106F3C001546F7D101A906A807ADFFF711FA0FCD39
:106F4C003C1D0FC42B6823700121F669C8E700981B
:106F5C00FEF750F8384615B0BDE8F083024B034AF3
:106F6C001A6000225A607047F0E6032064870D0017
:106F7C0010B5044600F060F8FEF754FB28B1A4F1FC
:106F8C000B03022B01D8002010BD00F08FF8FFF787
:106F9C0083FB08B1012CF6D9FFF706FBFFF700FBCA
:106FAC0018B1A4F10903012BEDD9232C8CBF0020BF
:106FBC00012010BD232838B504460D460AD8FF29F8
:106FCC0008D0FFF7D5FF28B129462046BDE8384048
:106FDC00FEF730B838BD38B504460D46FEF732F82A
:106FEC00FF2810D0062804D84D2323FA00F0C3073D
:106FFC0009D42046FFF7BCFF28B129462046BDE83E
:10700C003840FEF727B838BD0D2810B504469CBF94
:10701C000E34A4B22046FFF7ABFF50B1032120463B
:10702C00FEF700F8032804D12046BDE81040FEF717
:10703C0019B8002010BD000038B50B4D296811F0AF
:10704C0001040FD12846FDF731F858B12146074805
:10705C00FEF7DAFA2846FDF72EF8054A05490348EB
:10706C0000F04AF8014838BD04E70320F8E6032095
:10707C00ECE1032005560D0070B5044614252A4694
:10708C00094E002100F024FB258020253146A56007
:10709C002561284600F040F831466060284600F033
:1070AC003BF8E060204670BD90870D0030B50E4D6A
:1070BC00296811F0010487B013D12846FCF7F6FFBC
:1070CC0078B101A8FFF7D8FF01AA21460748FFF7BE
:1070DC00D1FA2846FCF7EFFF054A0649034800F0B1
:1070EC000BF8024807B030BD0CE7032010E7032073
:1070FC00ECE1032029660D000B460146184600F012
:10710C00A7B90000024B1868BFF35F8F704700BF30
:10711C0024E70320FCF7BBBF00F000B810B5002833
:10712C0014BF044601242046FEF7E0F920B9FFF70E
:10713C00E9FF08B18047F6E710BD08B5FEF706FA7F
:10714C00184B1A68D1075CBF01221A60164B1A68DB
:10715C00D2075CBF01221A60144B1A68D0075CBFBF
:10716C0001221A60124B1A68D1075CBF01221A6007
:10717C00104B1A68D2075CBF01221A600E4B1A68BA
:10718C00D0075CBF01221A600C4B1A68D1075CBF98
:10719C0001221A600A4B1A68D2075CBF01221A60DE
:1071AC00704700BF44E7032040E703203CE703207F
:1071BC0038E7032034E7032030E703202CE70320D3
:1071CC0028E70320244B1A68D0075CBF01221A6001
:1071DC00224B1A68D1075CBF01221A60204B1A6837
:1071EC00D2075CBF01221A601E4B1A68D0075CBF25
:1071FC0001221A601C4B1A68D1075CBF01221A606D
:10720C001A4B1A68D2075CBF01221A60184B1A6815
:10721C00D0075CBF01221A60164B1A68D1075CBFFD
:10722C0001221A60144B1A68D2075CBF01221A6043
:10723C00124B1A68D0075CBF01221A60104B1A68F7
:10724C00D1075CBF01221A600E4B1A68D2075CBFD3
:10725C0001221A60704700BF74E7032070E7032017
:10726C006CE7032068E7032064E7032060E7032052
:10727C005CE7032058E7032054E7032050E7032082
:10728C004CE7032048E70320244B1A68D0075CBF67
:10729C0001221A60224B1A68D1075CBF01221A60C6
:1072AC00204B1A68D2075CBF01221A601E4B1A6869
:1072BC00D0075CBF01221A601C4B1A68D1075CBF57
:1072CC0001221A601A4B1A68D2075CBF01221A609D
:1072DC00184B1A68D0075CBF01221A60164B1A684B
:1072EC00D1075CBF01221A60144B1A68D2075CBF2D
:1072FC0001221A60124B1A68D0075CBF01221A6077
:10730C00104B1A68D1075CBF01221A600E4B1A6829
:10731C00D2075CBF01221A60704700BFA4E70320AC
:10732C00A0E703209CE7032098E7032094E70320C1
:10733C0090E703208CE7032088E7032084E70320F1
:10734C0080E703207CE7032078E70320184B1A68BA
:10735C00D1075CBF01221A60164B1A68D2075CBFBA
:10736C0001221A60144B1A68D0075CBF01221A6004
:10737C00124B1A68D1075CBF01221A60104B1A68B5
:10738C00D2075CBF01221A600E4B1A68D0075CBF93
:10739C0001221A600C4B1A68D1075CBF01221A60DB
:1073AC000A4B1A68D2075CBF01221A60704700BFF3
:1073BC00C4E70320C0E70320BCE70320B8E70320A1
:1073CC00B4E70320B0E70320ACE70320A8E70320D1
:1073DC00094B70B51C68256C06463DB91A20FEF7A2
:1073EC0085F81A222064294600F072F9216C304687
:1073FC00BDE8704000F002B89CE1032010B50C46CB
:10740C0041690369826986B001F26C71049101686B
:10741C0003914168029181680191C168009107490B
:10742C0003EB43030B44064902EB42020A44204699
:10743C000449FEF773F8204606B010BDA6870D0070
:10744C0091870D00CA870D000A22002100F078BA3E
:10745C0010B5054C13462CB10A4601460220AFF379
:10746C00008010BD204610BD0000000038B5074B51
:10747C001C68E36B05461BB92420FEF737F8E06364
:10748C00E16B2846BDE8384000F002B89CE10320CF
:10749C002DE9F0410C46804600F058FD2146074688
:1074AC00404600F057FD466906F26C76B307044679
:1074BC0005D1642296FBF2F302FB13634BB94FF434
:1074CC00C87596FBF5F305FB1365B5FA85F35B09F7
:1074DC0000E001235F4A302505FB032500F06AFB21
:1074EC0000F06AFB5C4B1B68F3B17B689E4205D1D4
:1074FC003968D8F80030FA6941B90AE0304600F032
:10750C00B1FA0028F4D14FF0FF330DE0934208DBC1
:10751C0001E0934207DABA6B9342ACBF002301231C
:10752C0002E0002300E001232362236A012B0CBF3D
:10753C00F96B396A4FF461633C2091FBF3F603FB62
:10754C001613616893FBF0F200FB12302368891A62
:10755C00A26861601B1A921B3B2B2360A26003DDA7
:10756C00013161603C3B04E0002B03DA01396160BE
:10757C003C33236063683B2B03DD0132A2603C3B50
:10758C0004E0002B03DA013AA2603C336360A36889
:10759C00172B22DDE2690132E261A2690132062A6F
:1075AC00C8BF0022A261E268183B0132A3602369C4
:1075BC00E26055F823108A4246DD01330C2B0CBFD8
:1075CC0063692361A2EB0102E26001BF0133002277
:1075DC002261636108BFE26136E0002B34DAE269B4
:1075EC00013AE261A269013A48BF0622A261E2684F
:1075FC001833013AE260A36032BB2369013B01D42A
:10760C0023611DE00B23236163695A1E12F0030FE3
:10761C00626103F26B7305D1642193FBF1F201FB00
:10762C0012324AB94FF4C87193FBF1F201FB1233D9
:10763C00B3FA83F35B0900E0012303F5B673E3614E
:10764C00236955F82330E36000F0B5FA2046BDE815
:10765C00F08100BF50890D00E4E70320002910B52C
:10766C0091FBF2F402FB141304DB002B07DA013458
:10767C009B1A04E0002BC4BF04F1FF349B18046078
:10768C00436010BD10B5431E0A44914204D011F85A
:10769C00014B03F8014FF8E710BD884210B501EB20
:1076AC00020301D8421E0BE09842FBD28118D21A79
:1076BC00D34204D013F8014D01F8014DF8E710BD89
:1076CC00994204D011F8014B02F8014FF8E710BDB4
:1076DC0002440346934202D003F8011BFAE77047B9
:1076EC0038B5124B1C68A36B0546D3B91820FDF7AF
:1076FC00FDFE43F20E33A06303804AF6CD33438084
:10770C0041F2342383804EF26D63C3804DF6EC63FB
:10771C000381052343810B23838101220023C0E9CC
:10772C000423A36B00221D615A6138BD9CE1032028
:10773C0010F8012B11F8013B012A28BF9A42F7D00F
:10774C00D01A7047034611F8012B03F8012B002ABD
:10775C00F9D17047024B0146186800F003B800BF1E
:10776C009CE1032070B5064608460C4600F00DF867
:10777C00451C29463046FDF7F1FE064618B12A464F
:10778C002146FFF77FFF304670BD034613F8012BEF
:10779C00002AFBD1181A013870470000104B70B545
:1077AC001E680A44914217D010F8013BF418647813
:1077BC0004F00304012C11F8014B06EB040508BF7F
:1077CC0020336D7805F00305012D08BF20341B1BF9
:1077DC0003D1002CE6D100E00023184670BD00BF99
:1077EC0038E1032030B582B1451E013915F8013F4F
:1077FC0011F8014FA34206D1EC431444E04201D0EE
:10780C00002BF3D11C46181B30BD104630BD10B5F3
:10781C00034642B111F8014B03F8014B013A002C1D
:10782C00F7D11A4400E010BD934202D003F8014B8B
:10783C00FAE710BD2DE9F04780464048D0F800909B
:10784C000F463D4615F8014B09EB0400407800F05B
:10785C00080000F0FF0608B12F46F2E72D2C03D1EB
:10786C00BD1C7C78012603E02B2C04BF7C78BD1C4E
:10787C0013B1102B0AD15BE0302C57D1287800F0D3
:10788C00DF0058284DD16C7810230235002E14BF20
:10789C004FF0004C6FF0004C0027BCFBF3FA38465D
:1078AC0003FB1ACC09EB040E9EF801E01EF0040F4A
:1078BC0001D0303C0BE01EF0030E1BD0BEF1010FCB
:1078CC000CBF4FF0370E4FF0570ECEEB0404A34213
:1078DC0010DDB7F1FF3F0AD0504506D801D1644501
:1078EC0003DC03FB0040012701E04FF0FF3715F8E4
:1078FC00014BD7E77B1C0CD1002E4FF0220314BF99
:10790C004FF000406FF00040C8F800302AB9BDE8D5
:10791C00F08706B1404272B107B1691E1160BDE833
:10792C00F0873024002BB1D10823AFE70A23ADE751
:10793C00302CA3D0AAE7BDE8F08700BF38E10320C4
:10794C0013460A46014602480068FFF773BF00BFA2
:10795C009CE103202DE9F04780463C48D0F800908C
:10796C000E46354615F8014B09EB0400407800F043
:10797C00080000F0FF0708B12E46F2E72D2C03D1CA
:10798C00B51C7478012703E02B2C04BF7478B51C4C
:10799C0013B1102B0AD153E0302C4FD1287800F0C2
:1079AC00DF00582845D16C78102302354FF0FF3C8E
:1079BC000026BCFBF3FC03FB0CFA6FEA0A0A304608
:1079CC0009EB040E9EF801E01EF0040F01D0303CD0
:1079DC000BE01EF0030E1AD0BEF1010F0CBF4FF0DE
:1079EC00370E4FF0570ECEEB0404A3420FDD002EE2
:1079FC0008DB604506D801D1544503DC03FB00408D
:107A0C00012601E04FF0FF3615F8014BD8E7002EA8
:107A1C0007DA2223C8F800304FF0FF302AB9BDE84E
:107A2C00F08707B1404272B106B1691E1160BDE822
:107A3C00F0873024002BB9D10823B7E70A23B5E728
:107A4C00302CABD0B2E7BDE8F08700BF38E10320A3
:107A5C0013460A46014602480068FFF77BBF00BF89
:107A6C009CE103202DE9F74F044600F06FFA40F239
:107A7C00B1739C4240F396806FF4F663E318A4F262
:107A8C00B2729B1040F26D1505FB0235A4F26D72BB
:107A9C006FF0630392FBF3F36FF4C8622B44A518E9
:107AAC004FF4C87295FBF2F51D44642394FBF2F776
:107ABC0094FBF3F602FB174703FB164600F1380361
:107ACC00B7FA87FE019304F0030344604FEA5E1E8D
:107ADC00014600934FF0070C0B7A4A2B0ED14B69E1
:107AEC00009AEC1802B906B927B93B2BD4BF002376
:107AFC00012300E000232344013B3FE0442B02D14F
:107B0C004B692B443AE0009B2BB9002E0CBFF0467E
:107B1C004FF0010800E0F046244BCC68302202FB09
:107B2C000838A8F1040AA9460123A34204DA5AF83A
:107B3C0004BF0133D944F8E709F1040393FBFCFBC0
:107B4C00CBEBCB0A012CCAEB030A4B69B8BF01245F
:107B5C0004F18044B3EB0A0A0B6904F1FF3403F11E
:107B6C00FF3348BF0AF1070AC3EBC30358F824409C
:107B7C005344A34201DB073BFBE74B448C690C4AA3
:107B8C0002FB03430C6A234441F81C3F019B9942BE
:107B9C00A2D1C369826B9342ACBF00230123036063
:107BAC00012000E0002003B0BDE8F08F50890D00EB
:107BBC008051010070477047014B186800F002B803
:107BCC009CE103202DE9F04F8DB0074600F0BEF983
:107BDC00B049B14E0446384600F0B0F9054660B9DC
:107BEC00AE4BAF4A1860AF4B1860AF4B30681A60A1
:107BFC005A60FDF783FC356048E1316879B930682B
:107C0C00FDF77CFC2846FFF7C0FD411C3846FDF70C
:107C1C00A5FC306048B12946FFF794FD05E0FFF75D
:107C2C0087FD002800F03281E9E72B789F4AA049B4
:107C3C003A2B08BF01350AAE33462846FDF776FCD1
:107C4C00002840F323810A9BEF18EB5C2D2B03D10A
:107C5C0001374FF0FF3503E02B2B08BF013701250F
:107C6C000DF1200A0DF11E0B4FF000080396CDF814
:107C7C0008A00196CDF800B0334607AA8D49ADF89F
:107C8C001E803846ADF82080FDF750FC404540F38F
:107C9C00FD80BDF81E20BDF82030DFF824923C2179
:107CAC0001FB0233BDF81C204FF4616101FB023370
:107CBC005D4325627C4D7D4B2B600A9B7C491F44A8
:107CCC004A4633463846FDF731FC404508DC2B6804
:107CDC006B60724B226A1A60724BC3F80080D5E05D
:107CEC000A9BC5F80490FD18FB5C2D2B03D10135C4
:107CFC004FF0FF3703E02B2B08BF01350127002382
:107D0C00ADF81C30ADF81E30ADF820300A93039658
:107D1C00CDF808A00196CDF800B0334607AA654906
:107D2C002846FDF703FC002804DC236AA3F56163F5
:107D3C00E3630EE0BDF81E20BDF820303C2101FBB2
:107D4C000233BDF81C204FF4616101FB02335F4329
:107D5C00E7630A9B27461D444FF000092B782C2B18
:107D6C0008BF013595F80080B8F14D0F26D10DF103
:107D7C002603029309AB00930396019633460DF14B
:107D8C0022024D492846FDF7D1FB03287ED1BDF8D0
:107D9C0022104B1E0B2B79D8BDF82420531E042B1C
:107DAC0074D8BDF82630062B70D887F80880F96097
:107DBC003A617B610A9B05EB03082AE0B8F14A0F94
:107DCC0006BF0135434644230A220BA928460593D6
:107DDC00FFF73EFEDDF82C80ADF826004545059BEF
:107DEC0014D14D23B9F1000F07D123720323E360A3
:107DFC0002232361C4F814900BE084F824300B2385
:107E0C00A3620123E3620023236302E080B23B728E
:107E1C0078610223ADF81C300023ADF81E30ADF8AC
:107E2C0020300A9398F800302F2B0BD10396CDF805
:107E3C0008A00196CDF800B0334607AA1F4940466A
:107E4C00FDF774FBBDF81E20BDF820303C2101FB72
:107E5C000233BDF81C204FF4616101FB0233BB619E
:107E6C000A9D09F10109B9F1020F454407F11C07FC
:107E7C007FF474AF6068FFF7F5FD084B226A1A6057
:107E8C00E36B9B1A074A18BF012313600DB0BDE8C2
:107E9C00F08F00BFB0890D00E0E70320E8E7032076
:107EAC00B3890D00E4E70320A0E10320D3E703200E
:107EBC00B7890D00DA890D00C6890D00D9890D002E
:107ECC00C8E703202DE9F84F07468B46904600F093
:107EDC00D9F8194B1D689A463DB15C46234613F8F8
:107EEC00012B42B13D2A1C46F8D1384600F0CBF8A4
:107EFC000020BDE8F88FCBEB0404A94659F8040B1D
:107F0C000028F2D022465946FFF76CFC88B959F884
:107F1C00043C1E191B5D3D2B0BD1DAF80030ED1A19
:107F2C00AD103846C8F8005000F0ADF8701CBDE834
:107F3C00F88F4D46E1E700BFE8E1032007B501AA41
:107F4C00FFF7C0FF03B05DF804FB0000004870476A
:107F5C00A8E103200268474BF0B592FBF3F403FB56
:107F6C001422002ABCBF02F5A83202F5C0724FF4ED
:107F7C00616004F52F2492FBF0F300FB13224FF009
:107F8C003C00ACBF04F66C2404F66B248B6092FBB3
:107F9C00F0F300FB13224B600A600723E21C92FBF8
:107FAC00F3F3C3EBC303D31A8B61334B334D94FB05
:107FBC00F5F503FB054448F6AC62B4FBF2F222443F
:107FCC0040F2B457B4FBF7F3D21A2D48B4FBF0F0DF
:107FDC0048F69466131AB3FBF6F6344440F26D126D
:107FEC00B3FBF2F0B3FBF7F3E31A02FB1033992463
:107FFC0003EB83020232B2FBF4F20A2A04FB02F412
:10800C0004F102064FF00504B6FBF4F434BF02266B
:10801C006FF0090616444FF4C87202FB05055F1C8D
:10802C00012E98BF0135B3F5997FA7EB040702D356
:10803C00A3F5997214E0820705D16424B0FBF4F225
:10804C0004FB12024AB94FF4C872B0FBF2F402FB03
:10805C001400B0FA80F2520900E001223B331A44BA
:10806C00A5F26C750023CA614D610E61CF600B6285
:10807C000846F0BD805101004FC5FDFFB13A02002A
:10808C00B03A0200704770471D400D0059400D007A
:10809C0085400D0089400D0000000000000000002C
:1080AC0000000000CD400D00E1400D00506C616EF1
:1080BC007420576174657265640054686520256985
:1080CC00203E2025692C207475726E696E67206FB6
:1080DC006E2070756D7000546865202569203C20F9
:1080EC002569206E6F207761746572206E656564FA
:1080FC00656400417420257320746865206D6F6978
:10810C0073747572652072656164696E672069733A
:10811C00202569200A005468652074696D65206902
:10812C0073202573200A00656E762D76616C7300C2
:10813C00427574746F6E205374617465206973207A
:10814C002569200A0072617368617000696F2E6185
:10815C00646166727569742E636F6D0035393831E0
:10816C0036396661336261393436333639343161CC
:10817C0033333039373665343265326300726173AC
:10818C006861702F66656564732F486F6D655F5409
:10819C00656D70657261747572650072617368618A
:1081AC00702F66656564732F486F6D655F4D6F69E1
:1081BC007374757265007261736861702F666565A2
:1081CC0064732F486F6D655F5761746572007261DF
:1081DC00736861702F66656564732F4C45445F4FFF
:1081EC006E000000000000000000000091460D0031
:1081FC00AD460D000000000000000000C1460D005F
:10820C00D5460D00256C750025303478005C75253D
:10821C0030345800747275650066616C73650025A6
:10822C002E2A6600256600252E2A6C6600256C66B3
:10823C00000000000000000000000000C9400D001C
:10824C0081450D0035490D00E1490D00134A0D0023
:10825C0049490D0089490D00000000000000000094
:10826C000000000000000000A5400D00A5400D001E
:10827C00A5400D00A5400D00A5400D00205B3078F9
:10828C000030005D2C20000A090044726F7070658C
:10829C00642061207061636B657400556E6B6E6F4A
:1082AC00776E206572726F72004D51545400252503
:1082BC0025642E256466004661696C656420746FC4
:1082CC002073756273637269626500436F6E6E65CD
:1082DC006374696F6E206661696C656400546865CF
:1082EC002053657276657220646F6573206E6F74AF
:1082FC0020737570706F727420746865206C65766D
:10830C00656C206F6620746865204D515454207044
:10831C00726F746F636F6C207265717565737465C1
:10832C00640054686520436C69656E7420696465EB
:10833C006E74696669657220697320636F72726509
:10834C006374205554462D3820627574206E6F74FA
:10835C0020616C6C6F77656420627920746865208D
:10836C0053657276657200546865204D51545420E3
:10837C007365727669636520697320756E617661C9
:10838C00696C61626C65005468652064617461207D
:10839C00696E207468652075736572206E616D65F9
:1083AC00206F722070617373776F72642069732011
:1083BC006D616C666F726D6564004E6F74206175D3
:1083CC0074686F72697A656420746F20636F6E6E67
:1083DC0065637400457863656564656420726563E4
:1083EC006F6E6E6563742072617465206C696D6963
:1083FC00742E20506C6561736520747279206167EE
:10840C0061696E206C617465722E00596F752068FD
:10841C00617665206265656E2062616E6E656420B2
:10842C0066726F6D20636F6E6E656374696E672E16
:10843C0020506C6561736520636F6E74616374208A
:10844C00746865204D5154542073657276657220A2
:10845C0061646D696E6973747261746F7220666F9A
:10846C0072206D6F72652064657461696C732E0087
:10847C000000000000000000E7550D00DD550D0068
:10848C00D3550D00C9550D00BD550D00B1550D004E
:10849C00A5550D009D550D0093550D0089550D00EA
:1084AC009D6E0D00000000000000000005560D0040
:1084BC0007560D00626175640053657269616C004A
:1084CC0053657269616C310074797065007061720A
:1084DC00616D00636D6400696400686E64007374A0
:1084EC00726D0066696C74006C766C006164644833
:1084FC00616E646C65720072656D6F766548616E55
:10850C00646C657200656E756D48616E646C657245
:10851C0073004A534F4E53747265616D4C6F6748CC
:10852C00616E646C6572006170700025303130755D
:10853C0020005D200028293A2000205B00636F6436
:10854C0065203D200025690064657461696C7320A9
:10855C003D20000D0A006C6E00666E00636F646552
:10856C000064657461696C006E6F6E650074726195
:10857C00636500696E666F007761726E0070616E84
:10858C00696300616C6C00252B3033643A25303202
:10859C00750025592D256D2D25645425483A254DFA
:1085AC003A2553257A0061736374696D6500000088
:1085BC000000000000000000555D0D005B5D0D002B
:1085CC009F5D0D00695D0D00575D0D000000000002
:1085DC0000000000ED620D00DD620D00DF620D0099
:1085EC000000000000000000F1630D0041640D006C
:1085FC004F640D00A5590D002D640D00F3630D00A3
:10860C0009640D003B640D001F640D00ED630D004B
:10861C000000000000000000FD640D004D650D0021
:10862C005B650D00A5590D0011650D0033650D003E
:10863C001F650D0047650D00FF640D0003650D00FF
:10864C00000000000000000029660D0073660D009C
:10865C004B660D002B660D0053660D005B660D001E
:10866C0063660D006B660D0000000000000000004A
:10867C000B670D0001670D00F7660D00ED660D0030
:10868C00E1660D00D5660D00C9660D00C1660D00D2
:10869C00B7660D00AD660D009D6E0D00000000006C
:1086AC0000000000B1680D00B7680D009F6D0D0053
:1086BC00C5680D00B3680D0000000000000000004C
:1086CC00DD420D00F5420D0029680D0043680D00D8
:1086DC00456C0D0097690D0069690D006D680D0002
:1086EC00216B0D001D6A0D00CB690D00156C0D0082
:1086FC006F680D00A7680D0055680D00C9680D0066
:10870C0049690D00776972696E670072656376203E
:10871C006572726F72203D2025640000000000001D
:10872C0000000000156E0D000B6E0D00016E0D00AB
:10873C00B76D0D00F56D0D00E96D0D00DD6D0D00D3
:10874C00D56D0D00CB6D0D00C16D0D009D6E0D0036
:10875C000000000000000000356E0D003F6E0D00A3
:10876C00496E0D00536E0D005D6E0D00696E0D00AF
:10877C00756E0D00816E0D00896E0D00936E0D00EF
:10878C009D6E0D000053756E4D6F6E54756557657B
:10879C00645468754672695361744A616E466562C9
:1087AC004D61724170724D61794A756E4A756C41BA
:1087BC0075675365704F63744E6F76446563252EF1
:1087CC00337320252E337325336420252E32643ADF
:1087DC00252E32643A252E32642025640A000020AE
:1087EC002020202020202020282828282820202055
:1087FC002020202020202020202020202020208805
:10880C001010101010101010101010101010100468
:10881C0004040404040404040410101010101010B8
:10882C0041414141414101010101010101010101AC
:10883C0001010101010101010101101010101010C2
:10884C00424242424242020202020202020202027C
:10885C000202020202020202020210101010200098
:10886C0000000000000000000000000000000000FC
:10887C0000000000000000000000000000000000EC
:10888C0000000000000000000000000000000000DC
:10889C0000000000000000000000000000000000CC
:1088AC0000000000000000000000000000000000BC
:1088BC0000000000000000000000000000000000AC
:1088CC00000000000000000000000000000000009C
:1088DC00000000000000000000000000000000008C
:1088EC00000000000000000000000000000000007C
:1088FC00000000000000000000000000000000006C
:10890C00000000000000000000000000000000005B
:10891C00000000000000000000000000000000004B
:10892C00000000000000000000000000000000003B
:10893C00000000000000000000000000000000002B
:10894C00430000001F0000001C0000001F0000007E
:10895C001E0000001F0000001E0000001F00000091
:10896C001F0000001E0000001F0000001E00000081
:10897C001F0000001F0000001D0000001F00000071
:10898C001E0000001F0000001E0000001F00000061
:10899C001F0000001E0000001F0000001E00000051
:1089AC001F000000545A00474D54002531305B5EC7
:1089BC00302D392C2B2D5D256E004D256875256EBF
:1089CC002E256875256E2E256875256E002F256859
:1089DC0075256E3A256875256E3A256875256E00E5
:1089EC0091450D0031490D00734A0D00FB4F0D00F0
:1089FC00F1550D0055560D007D590D00D95A0D003D
:108A0C00D15B0D00295C0D00D9670D00216E0D00A6
:108A1C00696F0D004D710D00D1710D0095720D0037
:048A2C0059730D006D
:048A30000000000042
:108A34008C0A000011000000100000000400000077
:108A4400E2040000B2850D00EA870D00000000007A
:108A5400EC880D000C890D002C890D00000000002D
:108A64000000000000000000000000004C890D0020
:108A740000000000000000000000000000000000F2
:108A840000000000000000000000000000000000E2
:108A940000000000000000000000000000000000D2
:108AA4000000000000000000000000003CE1032082
:108AB400B3890D00B3890D0001000000000000001F
:108AC4004A00000000000000000000000000000058
:108AD4000000000000000000000000004A00000048
:108AE4000000000000000000000000000000000082
:0C8AF4000000000000000000ECE7032080
:108B0000FFFFFFFF00000102030405060708090A32
:108B10000B0C0D0E0F101112131415161718191A2D
:088B20001B1C1D1E1F20280074
:048B28007856341235
:04000003D000401CCD
:00000001FF
