:02000002D0002C
:1040000000400D00D0C10D00000006000C000501AD
:084010000401DE0500000000C0
:04401800FCB40D00E7
:1040200009480A49884208B505D0094A824202D0A7
:10403000121A06F061FD0748074A0021121A06F01D
:1040400081FD014808BD00BFA4E00320DCC00D00D5
:1040500070E1032070E10320F0E7032070B502F067
:10406000E7FE074C074BE41AA40800251E46A542AC
:1040700004D056F8253098470135F8E770BD00BFE9
:10408000C8C00D0080C00D0000F038B808B500F0C1
:104090008FFABDE8084002F08DBE02F0C1B802F010
:1040A000C7B802F0C5B8000008B5034A00210C20CB
:1040B00001F0DAFFFEE700BFA95D0D000078B0FA5D
:1040C00080F040097047012303707047704700007B
:1040D00010B5034B0360044600F046FC204610BDBB
:1040E00018B50D0010B50446FFF7F2FF20464FF457
:1040F000987104F003F9204610BD000010B503F0DC
:1041000071FA4FF4165103F061FA364B364C1888A9
:10411000002104F031F80121208804F02DF801215C
:10412000072004F029F80021208804F036F8B9EEC1
:10413000080A02F081FD02F04BF810B1002002F0F5
:1041400057F8002302222949294802F031F80023B8
:1041500009222849284802F02BF800230122274988
:10416000274802F025F82749274801F04FFB03F0C4
:1041700039FA264902F01FFC7621254801F05AF849
:10418000244B186060BB03F02DFA234902F009FCB0
:1041900003F028FA214902F0F1FB03F023FA044668
:1041A0001B4801F0E1F910220146204602F005FC0F
:1041B000204602F0EAFB03F015FA194902F0DEFB93
:1041C00003F010FA174902F0D9FB03F00BFA164975
:1041D00002F0D4FB03F006FA144902F0CFFBFEE72D
:1041E00010BD00BFA8E00320ACE0032070E3032073
:1041F00095B70D00B8E1032077B70D0028E3032041
:1042000020B50D00B8E20320D0E103202EB50D004B
:104210002CE30320F4E203203AB50D0082B50D0033
:1042200093B50D00DAB50D0004B60D002EB60D00E5
:1042300037B5164C164D236883421BDA03F0D2F9CA
:104240002368144A009301212B68134C02F0A3FC4D
:104250004FF47A7002F060FD0121208803F09DFF89
:104260000E4B186802F058FD2088002103F095FFDE
:10427000012009E003F0B6F923680093084A2B688F
:10428000012102F088FC002003B030BDA4E003202F
:1042900070E3032058B60D00ACE00320B0E003202B
:1042A00075B60D0070B586B002F025FD1F4C204E8E
:1042B000204D014602A802F0DBFC02A9204602F0D4
:1042C0009CFA02A802F022FA314620460023192265
:1042D00002F0D2FA2146184C13230B2202A802F056
:1042E000E3FA02A9204602F088FA02A802F00EFAC8
:1042F000002309222946204602F0BEFA03F072F993
:10430000216802F04EFB03F06DF90C4B0C4A1B6860
:1043100000930021334602F03EFC03F063F92B4684
:10432000084A002102F037FC06B070BD18E30320F4
:1043300080E3032074E10320C0E1032070E3032045
:1043400091B60D00B4B60D0038B503F04BF92D4908
:104350002D4C02F013FB03F045F90546204600F012
:1043600075FF0221284602F007FC03F03BF92749BC
:1043700002F017FB03F036F9254902F0FFFA03F0CB
:1043800031F90546204600F08FFFDFED227A022149
:1043900080EE270A284602F0EFFB03F023F91E49BE
:1043A00002F0FFFA03F01EF91C4902F0E7FA03F0ED
:1043B00019F99FED1B0A0546204601F09DF80221E0
:1043C000284602F0D9FB03F00DF9164902F0E9FA8C
:1043D00003F008F9144902F0D1FA03F003F9054695
:1043E000204601F03FF80221284602F0C5FB03F009
:1043F000F9F80E4902F0D5FA03F0F4F8BDE83840B8
:1044000002F0C3BAC5B60D002CE30320D4B60D00EC
:10441000D8B60D000000C842E4B60D00E9B60D00A4
:1044200000507D44FDB60D0000B70D000CB70D0027
:1044300038B5046805467CB16368013B63605BB9CD
:10444000236820469B689847A368013BA3601BB97B
:1044500023682046DB689847284638BD10B5044BD2
:10446000044640F8183BFFF7E3FF204610BD00BFAD
:1044700044BD0D0010B50446FFF7F0FF20461C2197
:1044800003F03CFF204610BD38B504462DED028BED
:104490000D46B0EE408A00F06FFB2946204601220F
:1044A00000F0DEFA20463A2100F08EFAB0EE480A1B
:1044B000BDEC028B2046BDE8384000F08DBB00000B
:1044C00030B52DED048BD3B005460C464FF4807209
:1044D00012A906A8F0EE608AB0EE418AB0EE409ACA
:1044E00000F060FA294B06937D227B2106A800F09C
:1044F0004EFB06A800F040FB012206A8244900F06C
:10450000AFFA06A83A2100F05FFA2A4606A8214928
:1045100000F099FAB0EE490A06A81F49FFF7B4FF68
:10452000B0EE680A06A81D49FFF7AEFFB0EE480AD4
:104530001B4906A8FFF7A8FF06A800F01DFB0122F3
:1045400006A8184900F08CFA06A83A2100F03CFAB7
:10455000214606A800F034FB06A800F043FA079BAA
:104560000393114B039A1B7810498DF8003004A86F
:104570003C2302F0CBFD05A8FFF75AFF06A8FFF782
:10458000A7FD53B0BDEC048B30BD00BF18B50D00C6
:1045900095B70D009CBD0D0077B70D00C8B70D0095
:1045A000E3B70D0020B50D00F0E203200FB70D00BA
:1045B0002DE9F0437A4B7B4C18887B4D7B4E7C4F2A
:1045C0008BB003F016FE2060FFF732FE28707948AA
:1045D00000F03CFE10EE100A05F08AFA6EA3D3E953
:1045E000002305F0D9FA0022734B05F023F9C6E940
:1045F0000001704800F058FEDFED707A80EE277AF7
:10460000B84617EE100A05F073FAC7E900016948C9
:1046100000F028FF10EE100A05F06AFA684BC3E9B3
:1046200000012068FFF73EFEFFF78EFE654801F0AF
:104630001DF868B1022196ED000B634801F0EEFA17
:104640002168624801F0E8FA2978614801F0E4FA4B
:10465000604F2168DFF894910A2206A802F0E6F87C
:104660003B78069A5C498DF8003004A83C2302F0A0
:104670004DFD05A8FFF7DCFE06A802F047F896ED11
:10468000000B062106A802F0E4F83B78069A53498D
:104690008DF8003004A83C2302F038FD05A8FFF790
:1046A000C7FE06A802F032F80A22297806A802F00E
:1046B000BDF83B78069A4A498DF8003004A83C239F
:1046C00002F024FD05A8FFF7B3FE06A802F01EF8CD
:1046D0003B4B2F78D3E9000105F056FD0390D8E954
:1046E000000105F051FD0290D6E9000105F04CFDF6
:1046F000394600EE100A9DED031ADDED020A20682E
:10470000384FFFF7DDFE00233B603B68092B3FDCA1
:1047100042F210712B4801F095F8A8B34845F7D143
:1047200009F1050006F0CAF8DFF8C480C8F80000F7
:1047300002F058FF0021D8F800302B4A02F02BFA83
:10474000D8F800100129E3D1072003F026FD40F638
:10475000B830FFF76DFD28701A4800F087FF70B180
:10476000022196ED000B184801F058FA216817480D
:1047700001F052FA0C4B1648197801F04DFA00215D
:10478000072003F00AFDC3E73B6801333B60BCE749
:104790000BB0BDE8F08300BFCDCCCCCCCCCCFC3F83
:1047A000A8E0032070E3032028E30320B8E10320FE
:1047B00078E303202CE30320000040400000C842BF
:1047C000B0E20320D0E1032008E30320A8E10320A6
:1047D00080E10320F0E2032095B70D0077B70D00CC
:1047E00020B50D00F8E2032018B70D00B8E2032051
:1047F00014E3032010B5D421044603F07FFD2046C6
:1048000010BD0000F7B5314B314E324D324C334FB5
:1048100001221A7001F040FA304603F08BFB2A4661
:104820002F49304603F05CFD2E4B009340F25B7243
:104830002D4B2E49204600F04FFF2D4B2D49236074
:104840002A462046C4F8D06003F04AFD21460023E2
:10485000294A2A482A4E01F0CBF921460023294A49
:10486000294801F0C5F921460023284A284801F0CB
:10487000BFF921460023274A274801F0B9F921460C
:104880000023264A264801F0B3F90023254A26488A
:104890002146264C01F0E0F9254800F0EDF93946B3
:1048A000204601F07AFF2046224C2A46314603F08A
:1048B00017FD3946204601F070FF2A463146204652
:1048C00003B0BDE8F04003F00BBD00BFF0E20320F1
:1048D0008CE1032070E10320D0E10320F9B80D0042
:1048E0005D440D0044B70D002DB70D0034B70D0029
:1048F000ACB80D00CD400D0065B70D0008E30320F6
:104900000D670D0083B70D00A8E103209EB70D00D1
:1049100080E10320B6B70D00A4E20320D1B70D005B
:10492000FCE20320ECB70D00B8E2032018E30320FB
:104930002CE30320C0E1032010B5054B0360037C8A
:1049400004461BB9406808B101F072FC204610BD56
:1049500008B80D0010B50446FFF7EEFF20461421FD
:1049600003F0CCFC204610BD10B5034B0360044699
:10497000FFF7E2FF204610BD18B80D0010B5044641
:10498000FFF7F2FF2046302103F0B8FC204610BDAF
:1049900000230122C36043610276437680F82A3007
:1049A00070470000002310B5C36001230374054B5A
:1049B00003604FF0FF3341608260C362FFF7E8FF9E
:1049C00010BD00BF18B80D00C368826810B59342CF
:1049D0003FBF42685C1CC460D15424BF012380F8EF
:1049E0002A3010BD10B54369044643B100EB4303C0
:1049F000597E09B1FFF7E8FF6369013B6361A36872
:104A0000E068616898424FF000022ABF5B180A54C0
:104A100003F8012C10BD70B50446C068A56866682F
:104A20002D1A134630440A46294601F029FC8542D6
:104A30002DBFE368A368E360C01836BF0123E060C0
:104A400084F82A3070BD0EB403B503AA52F8041BD3
:104A50000192FFF7E0FF02B05DF804EB03B070478E
:104A60002DE9F04104460E46174612B12221FFF708
:104A7000ABFF0025715D06EB0508002971D0E268E7
:104A8000A3689A426DD20B0633D501F0F003E02BF8
:104A900017D198F8013003F0C002802A11D105F136
:104AA000020816F8082002F0C000802809D102F0A0
:104AB0003F029B0142EA013203F47C631A4392B243
:104AC00011E001F0E003C02B46D105F1010816F812
:104AD000083003F0C002802A3ED1890101F4F86257
:104AE00003F03F031A4323492046FFF7ACFF454636
:104AF00035E00C2918D00BD8092921D00A2919D062
:104B0000082929D15C212046FFF75EFF622123E0BE
:104B100022291BD05C2919D00D291DD15C212046EA
:104B2000FFF752FF722117E05C212046FFF74CFF90
:104B3000662111E05C212046FFF746FF6E210BE065
:104B40005C212046FFF740FF742105E05C212046F0
:104B5000FFF73AFF98F800102046FFF735FF0135C0
:104B600088E72FB120462221BDE8F041FFF72CBF96
:104B7000BDE8F08129B80D00426900EB42031A7EBE
:104B800012B100221A7670472C21FFF71DBFF8B52D
:104B900043690133082B0E4617460ED8FFF7ECFF8A
:104BA00043695A1C00EB43030124426131469C7661
:104BB000DF76FFF709FF2046F8BD0020F8BD0000B2
:104BC0000A4611B10022024900E00249FFF748BF3E
:104BD00030B80D0035B80D0037B5044610EE100A98
:104BE000E56A002D0ADB04F083FF2A46CDE90001C7
:104BF00008492046FFF727FF03B030BD04F078FFD7
:104C00000B4605490246204603B0BDE83040FFF799
:104C10001ABF00BF3BB80D0040B80D0001F03CB812
:104C20007FB5024608461379956833B13DB90C4902
:104C300004B0BDE8704001F0A1BE0A4B00E00A4B91
:104C4000167B0A4C0A49527B0292012E08BF21466C
:104C500001910095074A002101F09DFF04B070BD4D
:104C60006DB80D00F9B80D005CB80D0065B80D0009
:104C700069B80D0083B80D00FF220274427482747B
:104C8000C27470472DE9F04190F9133001330546A5
:104C90000F4606D103F0C4FA3946BDE8F04101F0F1
:104CA00003BC072600244FF0010895F913000021EA
:104CB00080B203F072FA95F9110008FA06F1394052
:104CC00080B203F06AFA95F91300012180B203F073
:104CD00064FA95F91200640080B2E4B203F076FA47
:104CE00008B144F0010416F1FF36DED22046BDE8DB
:104CF000F08100007FB590F91030013304460E4674
:104D0000154611D10179006802F09DFD2068036805
:104D100031469B6898472068036829469B689847F6
:104D2000206802F098FD31E090F91330013310D182
:104D300003F076FA164B174A0093029200230122E1
:104D400069468DF804308DF80C208DF80D3001F097
:104D50003BFB94F91000002180B203F01EFA06F02C
:104D60007F012046FFF78EFF29462046FFF78AFF86
:104D700094F91000012180B203F00FFA94F9133076
:104D8000013303D103F04CFA01F005FB04B070BD10
:104D900058B80D0020A10700F8B590F83C509DF8D8
:104DA00018609DF81CE09DF8207061F3871562F390
:104DB000020563F3C50590F8403080F83C5066F377
:104DC000471380F8403090F838306EF3C50304463E
:104DD00067F3020380F8383006F00702F221FFF78C
:104DE00089FF94F83820C2F3C20302F007019B0048
:104DF00043EA411343EAD2122046F521FFF77AFF36
:104E000094F83C20C2F3C20302F007019B0043EA7E
:104E1000411343EA92122046F421BDE8F840FFF71F
:104E200069BF000030B590F91030013385B00446F9
:104E30000D4616D10179006802F005FD206803686F
:104E400029469B689847206802F005FD01222179D8
:104E5000206802F0F5FC206803685B699847C5B2DA
:104E600032E090F91330013310D103F0D9F9184B27
:104E7000184A009302920023012269468DF80430FB
:104E80008DF80C208DF80D3001F09EFA94F9100089
:104E9000002180B203F081F945F080012046FFF740
:104EA000F1FE00212046FFF7EDFE054694F91000C3
:104EB000012180B203F071F994F91330013303D169
:104EC00003F0AEF901F067FA284605B030BD00BF27
:104ED00058B80D0020A1070030B590F9103001330B
:104EE00085B004460D461DD10179006802F0ABFC87
:104EF0002068036829469B689847206802F0ABFC4D
:104F000002222179206802F09BFC206803685B691B
:104F100098470546206803685B69984740EA052082
:104F200085B239E090F91330013310D103F078F9EC
:104F30001B4B1C4A009302920023012269468DF804
:104F400004308DF80C208DF80D3001F03DFA94F905
:104F50001000002180B203F020F945F080012046C6
:104F6000FFF790FE00212046FFF78CFE002105464A
:104F70002046FFF787FE40EA052085B294F910002D
:104F8000012180B203F009F994F91330013303D100
:104F900003F046F901F0FFF9284605B030BD00BF27
:104FA00058B80D0020A1070008B5FFF795FF40BADB
:104FB00080B208BD30B590F91030013385B0044699
:104FC0000D4621D10179006802F03DFC206803689C
:104FD00029469B689847206802F03DFC032221790E
:104FE000206802F02DFC206803685B699847050281
:104FF000206803685B6998472843050220680368B6
:105000005B69984705433DE090F91330013310D1B7
:1050100003F006F91D4B1E4A009302920023012261
:1050200069468DF804308DF80C208DF80D3001F0B4
:10503000CBF994F91000002180B203F0AEF845F0EE
:1050400080012046FFF71EFE00212046FFF71AFED2
:10505000002105022046FFF715FE28430502002126
:105060002046FFF70FFE054394F91000012180B29E
:1050700003F093F894F91330013303D103F0D0F81F
:1050800001F089F9284605B030BD00BF58B80D00C1
:1050900020A1070038B588210446FFF785FF8A2143
:1050A000A0822046FFF780FF8C21E0822046FFF798
:1050B0007BFF8E2120832046FFF776FF90216083BF
:1050C0002046FFF771FF9221A0832046FFF76CFF77
:1050D0009421E0832046FFF767FF96212084204635
:1050E000FFF762FF982160842046FFF75DFF9A2159
:1050F000A0842046FFF758FF9C21E0842046FFF75C
:1051000053FF9E2120852046FFF74EFFA121608599
:105110002046FFF787FEE12184F82C002046FFF7A8
:1051200043FFE321E0852046FFF77CFEE42184F87D
:1051300030002046FFF776FEE52105462046FFF7C2
:1051400071FE00F00F0040EA05106086E62120465F
:10515000FFF768FEE52105462046FFF763FE0011D4
:1051600040EA0510A086E7212046FFF75BFE84F8A1
:10517000360038BD08B5F321FFF754FE00F00100FA
:1051800008BD30B5044690F91000421C85B003D12B
:10519000206802F021FB22E0012180B202F0FDFF35
:1051A00094F91000012180B202F0E6FF94F9130097
:1051B000431C04D103F034F801F0DCF80FE00121C6
:1051C00080B202F0D9FF94F91100012180B202F0FF
:1051D000D3FF94F91200002180B202F0CDFFD0215C
:1051E0002046FFF71FFE6028A06020D12046B6228F
:1051F000E021FFF77FFD4FF4967001F08DFD204612
:10520000FFF7B8FF054608B16420F6E72046FFF730
:1052100041FF052300931A4603212046029501957C
:10522000FFF7BAFD642001F077FD012000E00020C7
:1052300005B030BD10B50171044603F02BF82060B5
:105240002046BDE81040FFF79CBF000010B5FA21D2
:105250000446FFF7AFFEB0F5000F1ED0A28A9FED07
:10526000107AC2EB20235200C2EBE010B4F91620F2
:105270005B435043B4F918201B1353439B1303EBB8
:10528000E020E06000EB80008030001207EE900A22
:10529000F8EEE77A87EE870A10BD9FED020A10BD8F
:1052A0000000C8420000C07F2DE9F84F0646FFF716
:1052B000CDFFF7213046FFF77DFEB0F5000F074622
:1052C00000F0C180F468B6F91C20E517B4F5FA3493
:1052D00045F1FF35A4FB048904FB05F309EB430901
:1052E00002FB05F1D31704FB0311A2FB04230B44BB
:1052F000190341EA12511003B6F91E20D31702FB1D
:1053000009FE08FB03EEA2FB082373444FEA122AAE
:105310004AEA036A1AEB000A728B4FEA232B4BEB23
:10532000010B1AF100004BF50041A0FB02AB02FBA0
:1053300001BB4FEA6B024FEAEB7352EA030100F044
:105340008680B6F924A04FEAEA7B0AFB09F108FB44
:105350000B11AAFB0889B6F922A089444FEAEA7B1F
:105360000AFB05F104FB0B11AAFB04450D444FEAAF
:10537000454B4FEA444A38111AEB080AC0F5801031
:105380004BEAD43B4BEB090B4FEAE0794FEAC97586
:1053900045EA5005C407B6F920004FF0000818EBA5
:1053A0000A084FEAC00949EB0B0940F63547B4EB50
:1053B000080465EB0905A4FB070107FB051105F0CF
:1053C00041F8B6F92A204C13450B45EAC14502FBCA
:1053D00004F7D31705FB0377A2FB05233B44544393
:1053E00005FB0344A2FB05232344540E44EAC314E3
:1053F000B6F9282024184FEA63654D41D31751436D
:1054000000FB0313A2FB00011944C20C42EA413223
:105410001219B6F926404FEAE1436B41100AE5172D
:10542000220140EA036019122B0143EA1473801829
:10543000594104F0C9FF9FED080A07EE900A27EED4
:10544000800ABDE8F88F9FED050ABDE8F88F9FED53
:10545000040ABDE8F88F00BF0000803B0000C07F59
:105460000000000010B50446FFF7F0FEFD212046C5
:10547000FFF732FDB0F5004F38D0B4F93230E268B2
:10548000B4F934101B05A2F59632C3EB803302FB4E
:10549000113303F58043D91394F8303094F9360072
:1054A0005343DB124243921203F5004353439B12D2
:1054B000B4F92E2003F50013534303F500539B1357
:1054C0004B43DA1394F82C105243D2114A43A3EB06
:1054D000221323EAE373B3F1C85FA8BF4FF0C853A8
:1054E0001B1300EE103ABAEECB0A10BD9FED010A75
:1054F00010BD00BF0000C07F08B52DED028BB0EEDF
:10550000408AFFF7D1FEDFED167A80EE270AC0EE63
:10551000087A17EE900A04F0EBFA9FED0D1B41ECB0
:10552000100B03F049F8002053EC102B0D4904F048
:105530007FF909A3D3E9002304F02EFB04F024FE35
:10554000BDEC028B00EE100A08BD00BFAFF3008077
:10555000EBE2361AC05BC83F0000000040A5E54002
:105560000000C8420000F03F8068704700F094BB24
:1055700008B5D0F8D00003681B6B9847003018BFFF
:10558000012008BDF8B506460F461446C4B1D6F84A
:10559000D00003681B6B984708B90020F8BDD6F807
:1055A000D000FA2C03682546A8BFFA25DB682A46F6
:1055B0003946984780B2241A8542A4B2E6D0ECE777
:1055C0000120F8BD2DE9F8430646884691461F465E
:1055D0001D460024D6F8D00003681B6B9847D0B155
:1055E000002D18DBD6F8D00003681B69984760B11E
:1055F000D6F8D00003685B69984708F804000134C6
:10560000A4B24C4507D03D46ECE70A3D0A202DB236
:1056100001F082FBDEE72046BDE8F88370B5044662
:1056200000F1220596220021284605F08BFA6168D8
:10563000284605F0C1FAD4F8D0002289036829462B
:105640005E6A0023B047003018BF012070BD10B55E
:105650000446D0F8D00003681B6B984720B1D4F8FB
:10566000D0000368DB6A9847012010BD70B503685D
:105670009B6804469847C8B9204600F060FA0425A4
:1056800070B1013D15F0FF050AD0204600F0AAF8E0
:1056900041F2883001F040FB204600F050FAEFE77D
:1056A000236820469B68BDE87040184770BD00F035
:1056B000F3BA70B5044608460E4605F0A0FA031288
:1056C0002370607085B202342A463146204605F0C8
:1056D000D8FA601970BD000030B50361039B0D4D11
:1056E000028143610C4A056000234160C260C0F83A
:1056F000BC30C0F8C030C0F8C430C0F8C830C0F802
:10570000CC308361C36180F8203080F82130A0F86C
:10571000B83030BDD0B80D00F9B80D002DE9F74F05
:105720000FFA83FA036801929D69012253460646E7
:105730000C46A847C0B2012801D0002034E0651C07
:1057400004F1050B80464FF0000933689B69012284
:105750001F46294653463046B847C0B20128ECD10F
:1057600015F8013B03F07F025D4502FB08994FEA03
:10577000C818E2D01B06E8D4019B2C1B1B1B013B65
:105780009945336806D9019A9F69013A121B53461D
:1057900092B203E09F691FFA89F2534629463046C8
:1057A000B847C0B2204480B203B0BDE8F08F00001B
:1057B000F8B505460C4616461F463B46962221463E
:1057C0002846FFF7ABFF48B12378B6EB131F05D08F
:1057D00001F008FF024901F0E4F8EEE7F8BD00BF70
:1057E000FAB80D0010B5E02380F82230002380F8CD
:1057F0002330036804465B69022200F122019847C6
:10580000236820461B69BDE81040184700F1B80224
:1058100030B5134600F1CC0453F8045F8D420FD02D
:10582000A342F9D1002352F8044F24B900EB8300BE
:10583000C0F8BC1004E00133052BF4D1002030BDCA
:10584000012030BD2DE9F04F00F122098BB287B065
:10585000962249460446FFF761FF064610B394F8C6
:105860002570BBB2019304F1260304F1B80A0025A8
:1058700002935AF804BFBBF1000F0ED0DBF8001002
:105880000391084605F0BBF9B8428046039904D15C
:105890003A46029805F0BCF928B10135052DE8D14A
:1058A00000204AE049E094F822A00AF0060ABAF182
:1058B000020F3FD1E21992F8267092F8272042EAAF
:1058C0000727142200210BF1050005F03BF9019B8D
:1058D000C3F57F40FC30064404EB8505CAEB0606A1
:1058E000B6B2152ED5F8BC0008F1040128BF132666
:1058F000514432464944053005F009F9D5F8BC3029
:105900005E8394F8223003F00603022B0FD18DF84A
:1059100015303B128DF8163023688DF81770402231
:105920008DF814205B69042205A920469847D5F814
:10593000BC0002E007468246C3E707B0BDE8F08F2F
:1059400038B504460846102300F8023B0D462949A5
:10595000FFF7AFFE0423037002234370A369ABB1CA
:105960001B789BB10623437094F82030012B01D1A2
:105970000E2302E0022B01D11E23437094F8213044
:10598000012B02BF437843F02003437023691B7847
:105990001BB1437863F07F03437063691B781BB1CD
:1059A000437843F040034370012383702C23C3707A
:1059B000E1680B781BB10430FFF77BFE02E0037156
:1059C00043710630A16931B10B7823B1FFF771FE45
:1059D000E169FFF76EFE21690B780BB1FFF769FEF5
:1059E00061690B780BB1FFF764FE401BC0B2831EE8
:1059F0006B7038BD19B90D002DE9F8430546104606
:105A00000E4691461F4605F0FAF89DF82480BDF831
:105A1000204080B2B8F1000F01D1831C00E0031DCB
:105A20004FEA480230469BB242F03002234400F86D
:105A3000012B9BB203F07F02DB0918BF42F080020A
:105A400000F8012B002BF5D14946FFF732FE034643
:105A5000B8F1000F0CD0B5F8B820120A0270B5F8F2
:105A6000B8204270B5F8B82001320233A5F8B8204A
:105A700022463946184605F04AF82044801B80B279
:105A8000BDE8F88373B59DF8186000F1220504465F
:105A90008DE8480013460A462946FFF7ADFF236804
:105AA00002465B6929462046984708B9002017E05E
:105AB000B6B14FF4FA73962229462046FFF72EFE20
:105AC0000428F3D194F822301B11042BEED1A38CBF
:105AD000B4F8B8005BBA01339BB2C31A58425841BC
:105AE00002B070BDF7B5054610461F460E46144677
:105AF00005F085F8009783B2224631462846FFF725
:105B0000C1FF03B0F0BD38B51D4682230B700C46B3
:105B1000B0F8B810090AA170B0F8B830E370B0F866
:105B2000B8100131A0F8B8101146201DFFF7C1FDD3
:105B300000F8015B001BC0B2831E637038BD2DE905
:105B4000F0410368DB680446984718B94FF0FF300E
:105B5000BDE8F08104F1220529462046FFF7F0FE5A
:105B6000236882B25B692946204698470028EDD019
:105B700041F27073962229462046FFF7CFFDC0B24E
:105B80000428E3D1638CB3F5087FDFD194F82500B6
:105B900010B140B2BDE8F08104F1B80704F1CC08BF
:105BA00057F8043FFBB103263A6829461379126877
:105BB0002046FFF7A8FF236882B25B69294620468A
:105BC00098470028C2D04FF4FA730922294620468C
:105BD000FFF7EEFD38B9013E16F0FF06E4D16FF095
:105BE0000100BDE8F0814745DAD10020BDE8F08131
:105BF00010B580E80600037210BD1FB504460A22E6
:105C0000084601A900F0A1FC237A01AA94E8030048
:105C1000FFF768FF04B010BDFFF7EFBF10B592B0FB
:105C200004460B4600220B4902A88DED000B00F044
:105C30000FFB9DED000B02A953EC102B07A800F001
:105C400007FB237A07AA94E80300FFF74BFF12B083
:105C500010BD00BF1EB90D0010B5037100234163D4
:105C600002604383C361436203628362C36203636E
:105C700010BD00F011B8000008B5024B1B689B680E
:105C8000019308BD6802030008B5024B1B68DB687E
:105C9000019308BD6802030008B5024B1B681B682E
:105CA000019308BD2C02030008B5024B1B685B681A
:105CB000019308BD2C02030008B5024B1B689B68CA
:105CC000019308BD2C02030008B5024B1B68DB687A
:105CD000019308BD2C02030008B5024B1B681B6929
:105CE000019308BD2C02030008B5024B1B685B69D9
:105CF000019308BD2C02030008B5024B1B681B6B07
:105D0000019308BD2C02030008B5024B1B681B68F9
:105D1000019308BD3002030008B5024B1B685B69A4
:105D2000019308BD3002030008B5024B1B68DB6914
:105D3000019308BD3002030008B5024B1B681B6AC3
:105D4000019308BD3002030008B5024B1B685B6A73
:105D5000019308BD3002030008B5024B1B68DB6BE2
:105D6000019308BD3002030008B5024B1B681B6C91
:105D7000019308BD3002030008B5024B1B685B6C41
:105D8000019308BD3002030008B5024B1B685B6934
:105D9000019308BD6C02030008B5024B1B685B68E9
:105DA000019308BD1802030008B5024B1B68DB68AD
:105DB000019308BD1802030008B5024B1B685B691C
:105DC000019308BD1802030008B5024B1B68DB698C
:105DD000019308BD1802030008B5024B1B689B6DB8
:105DE000019308BD1802030008B5024B1B689B68AD
:105DF000019308BD4802030008B5024B1B681B69EC
:105E0000019308BD4802030008B5024B1B685B699B
:105E1000019308BD4802030008B5024B1B685B6C88
:105E2000019308BD4802030008B5024B1B689B6C38
:105E3000019308BD4802030008B5024B1B685B696B
:105E4000019308BD6402030008B5024B1B681B6A7E
:105E5000019308BD6402030008B5024B1B689B6AEE
:105E6000019308BD6402030008B5024B1B681B6860
:105E7000019308BD3C02030008B5024B1B68DB68B8
:105E8000019308BD3C02030008B5024B1B681B6967
:105E9000019308BD3C02030008B5024B1B685B6917
:105EA000019308BD3C02030008B5024B1B689B69C7
:105EB000019308BD3C02030008B5024B1B68DB6977
:105EC000019308BD3C02030008B5024B1B681B6A26
:105ED000019308BD3C02030008B5024B1B689B6A96
:105EE000019308BD3C02030008B5024B1B68DB6848
:105EF000019308BD2802030008B5024B1B689B698B
:105F0000019308BD2802030008B5024B1B68DB693A
:105F1000019308BD2802030008B5024B1B681B6AE9
:105F2000019308BD2802030008B5024B1B685B6A99
:105F3000019308BD2802030008B5024B1B689B6A49
:105F4000019308BD2802030008B5024B1B68DB6AF9
:105F5000019308BD2802030008B5024B1B681B6BA8
:105F6000019308BD2802030008B5024B1B685B6B58
:105F7000019308BD2802030008B5024B1B681B6C87
:105F8000019308BD2802030008B5024B1B681B6D76
:105F9000019308BD2802030008B5024B1B689B69EA
:105FA000019308BD3802030008B5024B1B68DB698A
:105FB000019308BD3802030008B5024B1B681B6A39
:105FC000019308BD3802030008B5024B1B689B6AA9
:105FD000019308BD3802030008B5024B1B681B6B18
:105FE000019308BD3802030008B5024B1B689B6B88
:105FF000019308BD3802030008B5024B1B681B68FB
:10600000019308BD4C02030008B5024B1B685B6896
:10601000019308BD4C02030008B5024B1B681B69C5
:10602000019308BD4C02030008B5024B1B685B6975
:10603000019308BD4C02030008B5024B1B689B6925
:10604000019308BD4C02030008B5024B1B68DB69D5
:10605000019308BD4C02030008B5024B1B681B6A84
:10606000019308BD4C02030008B5024B1B685B6B33
:10607000019308BD6002030008B5024B1B681B6D4D
:10608000019308BD6002030008B5024B1B681B6842
:10609000019308BD2002030008B5024B1B685B6832
:1060A000019308BD2002030008B5024B1B685B6921
:1060B000019308BD2002030008B5024B1B68DB6C8E
:1060C000019308BD2002030008B5024B1B685B6DFD
:1060D000019308BD2002030008B5024B1B689B6DAD
:1060E000019308BD2002030008B5034B1B68D3F8D9
:1060F0008830019308BD00002002030008B5034B5F
:106100001B68D3F89430019308BD000020020300FF
:1061100008B5024B1B685B68019308BD4002030091
:1061200008B5024B1B689B68019308BD4002030041
:1061300008B5024B1B68DB68019308BD40020300F1
:1061400008B5024B1B681B69019308BD40020300A0
:1061500008B5024B1B685B69019308BD4002030050
:1061600008B5024B1B689B69019308BD4002030000
:1061700008B5024B1B68DB69019308BD40020300B0
:1061800008B5024B1B681B6A019308BD400203005F
:1061900008B5024B1B681B6B019308BD400203004E
:1061A00008B5024B1B685B6B019308BD40020300FE
:1061B00008B5024B1B681B68019308BD440203002D
:1061C00008B5024B1B689B68019308BD440203009D
:1061D00008B5024B1B685B69019308BD44020300CC
:1061E00008B5024B1B681B6A019308BD44020300FB
:1061F00008B5024B1B68DB6A019308BD440203002B
:1062000008B5024B1B681B6B019308BD44020300D9
:1062100008B5024B1B68DB6B019308BD4402030009
:1062200008B5024B1B681B68019308BD1C020300E4
:1062300008B5024B1B685B68019308BD1C02030094
:1062400008B5024B1B689B68019308BD1C02030044
:1062500008B5024B1B68DB68019308BD1C020300F4
:1062600008B5024B1B681B69019308BD1C020300A3
:1062700008B5024B1B689B69019308BD1C02030013
:1062800008B5024B1B685B6A019308BD1C02030042
:1062900008B5024B1B68DB6A019308BD1C020300B2
:1062A00008B5024B1B681B6B019308BD1C02030061
:1062B00008B5024B1B68DB6B019308BD1C02030091
:1062C000002211464068FFF75BBF0022114640687C
:1062D000FFF766BF00224068FFF75ABF002281F037
:1062E00001014068FFF744BF00231A461946406881
:1062F000FFF736BF00231A4619464068FFF728BF4C
:10630000002211464068FFF71BBF0022114640687B
:10631000FFF706BF002202214068FFF709BF0023F4
:106320001A464068FFF7F4BE024B03225A60024A45
:106330001A6070479CE30320E8BA0D00704710B55F
:106340000C21044601F0DAFF204610BD0021FFF7C2
:106350000BBD0021FFF710BD10B5054B03600446CF
:1063600001710846FFF7E0FC0023A360204610BD42
:106370001CBB0D0010B504460079FFF7E7FF48B9D4
:1063800020794FF6FF71FFF7BFFC2079BDE8104080
:10639000FFF7DFBF10BD0079FFF7DBBF400830B566
:1063A0001860002418688842E5B206D90134082C28
:1063B00002D040081860F5E70725024B5B5D1370BB
:1063C00030BD00BF24BB0D002DE9F04307468FB060
:1063D00000790E46FFF7BAFF002862DB3C791422F1
:1063E000002109A804F0AEFB0B232046002209A9D6
:1063F000ADF82430FFF7A8FC9DF82D4054B19DF86E
:106400002C5035B9DDF830809DF834909DF835403A
:1064100003E00024A146A0460125337905B1BBB9AC
:106420009D420BD1B268424508D18DF820908DF87D
:106430002140BDF82010B289914209D053B1002407
:10644000387901940094234622460121FFF784FC09
:10645000002026E08DF80F30B1680A9804AB0DF1EA
:106460000F02FFF79BFF317905B1B1B9A94208D0FE
:10647000002438790194747B337B9DF80F200094BD
:10648000E4E7B3684345F3D38DF820908DF82140BD
:10649000BDF82020B3899A42EAD1049B4345E7D155
:1064A000D6E70FB0BDE8F08338B5044600790D4655
:1064B000FFF74CFF40B929462079FFF72DFC054630
:1064C0002079FFF746FF00E00025E8B238BD0079EB
:1064D000FFF732BC10B50446006818B1FFF7A8FEFC
:1064E0000023236010BD10B50446FFF7F3FF2046DC
:1064F00010BD000010B5094C00204FF6FF7320605E
:10650000A080A07120816381FFF7C6FD2046044A68
:106510000449BDE8104001F0E3BE00BFA4E303203E
:1065200070E10320E7640D0010B5044604F067FB3A
:10653000013823182046984206D20278197800F8CC
:10654000011B03F80129F6E710BD2DE9F041931E68
:10655000232B15468CB034BF15460A2500230A2D7F
:106560000C468DF82C3007D1984205DA2D2301F125
:1065700001080B70404201E0B0B1A0460DF12B06BE
:1065800001272A46014601A804F0A2FA029B0198BD
:10659000092BCCBF3722302252FA83F306F8013997
:1065A00001370028EDD106E030238DF82B30A046CE
:1065B0000DF12A0602273A46711C404604F09CFA67
:1065C00020460CB0BDE8F08170B50C46911E222922
:1065D00020D82546294610B9234430220EE0B0FBCE
:1065E000F2F602FB1600C1B205F8011B092894BFA0
:1065F0003031573105F8011C3046EBE7994202D2A1
:1066000001F8012BFAE7002320460B70FFF78CFFFF
:10661000204670BD002070BD38B5031E0C461546DF
:106620000BDAB3F1004F4FF02D0214BF5842184659
:1066300001230A702A46194400E00123FFF7C4FF32
:10664000204638BD2DE9F14F59EC108B07460E4618
:106650000022002310EE100A494603F00FFD28B176
:1066600009F1004399462D2333700136002301249C
:106670000A22D9B28F4202D954430133F9E72046A6
:1066800003F024FA42464B4603F086FA82468B46D4
:1066900003F040FF8046894603F048FA02460B4665
:1066A0005046594603F0C4F80022174B03F0FAFC99
:1066B00018B118F1010849F10009E51722462B46E7
:1066C0004046494603F00EFF01230A223146FFF7F8
:1066D0007BFFAFB1304604F092FA2E2333540130E1
:1066E000064422462B464046494603F0FBFE3B4605
:1066F000104631460A2201B0BDE8F04FFFF764BFF3
:1067000001B0BDE8F08F00BF0000E03F10B50446C7
:106710000068FFF78DFD204610BD10B504460068E7
:1067200008B1FFF785FD00232360A360636010BDFF
:1067300038B504460D4600680131FFF781FD10B100
:1067400084E82100012038BD10B50368044613B168
:1067500043688B4207D22046FFF7EAFF20B1A368C7
:106760000BB922681370012010BD70B50E4611469A
:1067700004461546FFF7E8FF18B92046FFF7CDFF9E
:1067800009E02A463146A560206804F0B5F9226880
:10679000A3680021D154204670BD38B500230446BB
:1067A00003604360836003730D4639B1084604F00B
:1067B00026FA294602462046FFF7D7FF204638BD75
:1067C00038B5054600680C4660B16A688B689A4225
:1067D00006D3096804F0F0F9A368AB6000230AE06F
:1067E000FFF726FD23682B6063686B60A368AB60CE
:1067F000002323606360A36038BD884210B504465F
:1068000001D0FFF7DDFF204610BD38B505460C4628
:1068100041B1084604F0F3F9214602462846FFF745
:10682000A4FF01E0FFF779FF284638BD10B5044604
:1068300000238AB023606360A3602373084601A924
:10684000FFF7EAFE01A92046FFF7DFFF20460AB066
:1068500010BD10B500238AB0044603604360836016
:106860000373C8B201A9FFF7EDFE01A92046FFF7A7
:10687000CCFF20460AB010BD70B50E469AB191B15A
:1068800085689D4202D800230B7070BD541EED1A1E
:106890000168AC4228BF2C4619442246304604F019
:1068A000F0F90023335570BDF8B59A420F461D46E6
:1068B0000C4988BF13461446064684BF2C461D4625
:1068C000FFF76BFFBA6894420AD83968954294BFC3
:1068D000C4EB0502C4EB020221443046FFF745FF3A
:1068E0003046F8BDF9B80D0010B50446006808B18F
:1068F000FFF79AFA204610BD0B68036013B15A687F
:1069000001325A607047000010B5064C0023204643
:106910002360FFF781FA2046034A0449BDE810408E
:1069200001F0DEBCB0E3032070E10320E9680D0054
:10693000F8B506460D468F180024BD420CD03368CA
:1069400015F8011B9B6830469847002801DB04447A
:10695000F3E7002C08BF04462046F8BD70B5054695
:106960000C46084649B104F04AF92B680246214614
:106970002846DB68BDE87040184770BD08B5FFF7D2
:10698000EDFF08BD03689B68184738B50D21054623
:10699000FFF7F8FF0A2104462846FFF7F3FF2044DB
:1069A00038BD38B50546FFF7D9FF04462846FFF73E
:1069B000ECFF204438BDFFF7F4BF30B58BB00B4679
:1069C00000218DF82410012A98BF0A220DF123041A
:1069D000B3FBF2F505FB123303F0FF03092B94BF61
:1069E00030333733DBB2214604F801392B46002D12
:1069F000EED1FFF7B3FF0BB030BD00002DE9F0473B
:106A000057EC106B82460D4610EE102A3B4610EEF6
:106A1000100A394603F05AFB08B14E4912E027F03C
:106A200000494FF0FF324C4B3046494603F04EFBD5
:106A300068B94FF0FF32484B3046494603F028FB17
:106A400028B946495046FFF789FFBDE8F0874FF067
:106A50006042434B3046394603F02EFB08B14149B2
:106A6000F0E74FF06042404B3046394603F006FBFA
:106A70000028F4D1002200233046394603F0FEFA04
:106A800040B12D215046FFF77DFF07F1004304463A
:106A90001F4600E0044635494FF0000800205FFA29
:106AA00088F39D4206D90022314B03F09FF908F18B
:106AB0000108F4E732463B4602F0BCFE0F460646AC
:106AC00003F042FB0A22014680465046FFF775FF5D
:106AD0000444E5B3404602F0E9FF02460B46304667
:106AE000394602F0A5FE06460F4650462149FFF7FB
:106AF00035FF044400221E4B3046394603F04CF863
:106B000006460F4603F0F8FAB0F1000907DA2D2126
:106B10005046FFF737FFC9F10001804602E04946C1
:106B20004FF000080A225046FFF747FF4044044454
:106B3000484602F0CBFF02460B463046394602F08B
:106B400077FE013D15F0FF0506460F46D2D12046DF
:106B5000BDE8F0872CBB0D00FFFFEF7F34BB0D00BD
:106B6000FFFFEF4130BB0D00FFFFEFC10000E03F32
:106B70000000244079BA0D0038B5044610EE100A22
:106B8000CDB202F0B5FF41EC100B29462046BDE81E
:106B90003840FFF733BF0CB42DE9F04387B000AFA6
:106BA00007F13804054654F8049B3C600E46234622
:106BB0004A461421381DFFF763FB132805D8391DF9
:106BC0002846FFF7CBFE044613E000F1080323F04C
:106BD0000703E846ADEB030D411C23464A466846D1
:106BE0003C60FFF74DFB69462846FFF7B7FE0446B9
:106BF000C5461EB12846FFF7C8FE044420461C3790
:106C0000BD46BDE8F04302B070470000014B024AA8
:106C10001A607047B4E30320ABBB0D0008B5002039
:106C2000FFF7EEFA28B1FFF7D3FA80F00100C0B207
:106C300008BD012008BD0000FAEE087AB4EEE70AAC
:106C4000F1EE10FA0FD4F2EE0C7AB4EEE70AF1EEA0
:106C500010FA08DCDFED047A044B20EE270ABDEEC3
:106C6000C00A83ED000A704700006145C0E30320BD
:106C700037B50E4B1B6819440D4B1B68044602A820
:106C8000194440F8041D03F02BFE03F0DBFD05461C
:106C900003F0B5FF2844002300F8013C29462046B4
:106CA000FFF77BFD204603B030BD00BFC0E30320EB
:106CB000BCE3032010B50020FFF78EF8044668B946
:106CC000FFF7E2F901280BD12046FFF705FA38B9A2
:106CD000FFF7A4FF30B9FFF773FAF9E7012010BD01
:106CE000002010BDFFF79AFF0020FFF775F8003075
:106CF00018BF012010BD08B5FFF7DCFFBDE8084054
:106D0000FFF762B8024B1A68024B1A60704700BF67
:106D1000B4E00320B8E303200021FFF7C5B910B5A4
:106D20008368044613B1032201469847204610BDEC
:106D300010B50446FFF7F3FF204610BD13B50B4610
:106D4000044603C88DE8030093E8030084E80300C9
:106D50009DE8030083E8030002B010BD0348044A25
:106D600004490023836001F0BBBA00BFC4E30320E1
:106D700070E10320316D0D0008B50C4B33B100F00C
:106D800031FC03681B699847002809DC084B63B194
:106D900000F0AAFC03681B699847002803DC08BDC3
:106DA000AFF30080F2E7AFF3008008BD0000000001
:106DB0000000000008B5FFF7DFFFFEF7FDFF014B05
:106DC000186008BD08E703200248034A0349121A65
:106DD00003F092BE00F4032004F40320D8C00D0099
:106DE00007B5002300931A466FF07701FFF786F985
:106DF00003B05DF804FB000007B543880A2B08D0F8
:106E0000502B09D1094B1B683BB103B05DF804EB73
:106E10001847FFF7E5FF06E0002300931A466FF0DE
:106E20007701FFF76BF903B05DF804FBD4E30320AF
:106E300038B5104C104D2368AB42104B0CBF0122EB
:106E400000221A7002D0FFF7BFFF2560FEF7A4FFF3
:106E5000044603F07FFE0A4B13B12046AFF30080D7
:106E600000210748FFF7D4F900210648BDE8384063
:106E7000FFF73AB900F403201E1C279AD8E3032039
:106E800000000000F96D0D0070470020704710B53C
:106E90001021044601F032FA204610BD08B508B1B1
:106EA000FFF7F5FF08BD0022026010B54FF69C7297
:106EB0008280B1F9044084808A8002680C68046092
:106EC0000A6010BD10B504460068FFF7B1F920460E
:106ED00010BD38B5C468F4B12378022B03D104F196
:106EE0000C00FFF7EFFF656835B12846FFF717FF85
:106EF0001021284601F002FAA56835B12846FFF7AF
:106F00000EFF1021284601F0F9F920461421BDE8B2
:106F1000384001F0F3B938BD13B5044691E80500D7
:106F200000234B600B602060626001A80193009316
:106F3000FDF77EFA204602B010BDF7B50C4602AD53
:106F400054F8043B45F8083D06460F4601A8214683
:106F5000FFF7D2FC29463046FFF7DEFF01A8FDF718
:106F600067FA2046FDF764FA3846082101F0C6F9B1
:106F7000304603B0F0BD000038B50023044603607E
:106F800010200D46FDF789F828B101234360836086
:106F9000024B0360C5602060204638BD3CBC0D003C
:106FA000826810B50AB901F0BCF9C368BDE81040A9
:106FB000184708B5006800F11001FFF7F1FF08BDA0
:106FC000826810B50AB901F0ACF9C368BDE8104099
:106FD000184708B5006800F11001FFF7F1FF08BD80
:106FE00038B5002383608B6804460D462BB102221E
:106FF0009847EB68E360AB68A360204638BD0000AB
:10700000F0B589B004686846FFF74DFF00238DF89E
:1070100008304FF00202D4E84F3F002B03D1C4E800
:10702000412F0029F7D102D08DF8083063E014F128
:107030000C0503D069462846FFF735FFBFF35F8F85
:1070400001236370002004F10803BFF35F8F53E84E
:10705000006F43E80002002AF9D1BFF35F8F002ED2
:1070600049D0FFF729F820B129463046FFF798FFAD
:107070003AE0314602A8FFF7B3FFE068B4F91050D8
:1070800008B103F0A1FD06901020ADF81C50FDF7EB
:1070900004F80546E8B1002787601820FCF7FDFFDB
:1070A000044688B10146876002A8FFF747FE049BAB
:1070B000A268A360059B049206A9E268E36004F15C
:1070C00010000592FFF7EFFE0D4BEB600D4B2C60AF
:1070D000AB6006A8FFF7F6FE02A8FFF720FE00222D
:1070E00029460948FEF7F0FF3046FFF718FE102149
:1070F000304601F003F96846FFF7E4FE09B0F0BD41
:10710000B36F0D0029720D0035770D002DE9F04F9A
:107110008BB006460F46904699469DF850A0FFF763
:1071200057F807AD834630BB4FF62E73059005A97F
:107130002846ADF81830FFF7B6FE1420FCF7ADFF77
:10714000044658B10223037001234370C0F804B011
:10715000C0F808B029460C30FFF7A5FE304621469E
:1071600040F8044BFFF708FF2846FFF7ABFE05A8E1
:10717000FFF7A8FE52E000240C2314206C60AC60E2
:107180000793FCF78AFF014618B10470447044600D
:10719000846004A80391FFF7EFFE224B08930820B8
:1071A000FCF77BFF044628B1039B40F8043B04A98D
:1071B000FFF7A2FB00955FFA8AF34A46414638463C
:1071C0000994FFF70DF820B9039B5B7803F0FF02E9
:1071D00083B1039B059304A906A8FFF78DFB05A9BE
:1071E0003046FFF799FE06A8FDF722F904A8FDF73F
:1071F0001FF913E04FF69C7305A903A80592ADF89B
:107200001830FFF7FDFE05A8FFF75CFE05A80999F9
:10721000FFF793FE06A8FDF70BF9DAE730460BB04F
:10722000BDE8F08F99730D00022AF8B5044606D028
:10723000032A17D0012A22D10B6803601FE018200F
:107240000E68FCF72AFF054650B13146FFF7C8FE2D
:107250003069B6F9147008B103F0B6FC2861AF824A
:1072600025600CE0046854B104F11000FFF72AFE19
:107270002046FFF754FD1821204601F03FF800207A
:10728000F8BD38B5002383608B6804460D462BB1EA
:1072900002229847EB68E360AB68A360204638BDE4
:1072A000022A70B5044606D0032A11D0012A18D14B
:1072B0000B68036015E014200E68FCF7EEFE05462F
:1072C00020B13146FFF7DDFF337C2B74256008E0E9
:1072D000046834B12046FFF722FD1421204601F056
:1072E0000DF8002070BD0000F0B5002387B00C46FB
:1072F000BFF35F8F50E8006F40E80032002AF9D1F9
:10730000BFF35F8F002E3FD01846FEF7D5FE07462D
:1073100020B121463046FFF753FE2EE0314601A84A
:10732000FFF7AFFF23788DF814301020FCF7B5FE7F
:107330000546D0B187601420FCF7AFFE044678B153
:107340008760014601A8FFF7F9FC039BA268A360D0
:10735000049B0392E268E3609DF814300492237466
:107360000A4BEB600A4B2C60AB6001A8FFF7D7FC1F
:10737000002229460748FEF7A7FE3046FFF7CFFC5C
:107380001021304600F0BAFF07B0F0BDD36F0D00FA
:10739000A1720D0035770D0030B585B004460D465D
:1073A00068461146FFF7C9FD7CB124B228460DB1ED
:1073B00003F00AFC029002A96846ADF80C40FFF702
:1073C0001FFE02A8FFF77EFD1DE000988DF8084023
:1073D0004FF00102D0E84F3FA34203D1C0E8412F54
:1073E0000029F7D102D08DF808300CE010F10C0123
:1073F0004FF0010318BF0373BFF35F8F043000F831
:10740000033CFFF771FF01A8FDF712F805B030BD8E
:10741000704710B51821044600F070FF204610BDDB
:10742000F0B5037D062B8DB00E4600F104074FF03A
:10743000000402D000F1080518E00CAD394605F84B
:10744000304D2F232A460A20FEF7F6FC284603F08B
:10745000D6FB33680246DB682946304698470FE082
:1074600024B12E213046FFF78DFA044415F8011D92
:107470000A223046FFF7A1FABD420444F0D120466B
:107480000DB0F0BD10B5054B0446112240F8043B89
:10749000002103F057FB204610BD00BF58BC0D0073
:1074A0000346074A10B543F8042B01F1100251F8C6
:1074B000044B43F8044B9142F9D10A781A7010BD7D
:1074C00058BC0D00037D042B01D1406808E0062B59
:1074D0000AD1436853B9836843B9C36833B90069B3
:1074E000003018BF0120704700207047012070470E
:1074F00010B59DF8084044EA032343EA024242EAF9
:10750000016104234160037510BD37B50D788B7898
:107510004A78C97800912946FFF7EAFF03B030BDE9
:1075200041747047704708B50021007CFEF784FD68
:1075300030EA200028BF4FF0FF3008BD08B5012118
:10754000007CFEF779FD30EA200028BF4FF0FF30C5
:1075500008BD08B5007CFEF767FD20EAE07008BDB5
:1075600008B5007CFEF758FD20EAE07008BD007CFD
:10757000FEF772BD10B51421044600F0BFFE204690
:1075800010BD38B50446007C0D46FEF74DFD0028C1
:1075900001DC607C28B12946207CFEF755FD20EAFD
:1075A000E07038BD10B50446002363604FF47A7371
:1075B000A360054B236001230846217463741146C0
:1075C000FEF71AFD204610BD6CBC0D000022007CA9
:1075D000FEF71ABD10B514220446002103F0B2FADA
:1075E000204610BD30B50E4D87B001A8FFF7F2FF61
:1075F000296811F0010410D12846FCF75FFD60B145
:1076000001AA21460748FFF7CDFF2846FCF75BFD9E
:10761000054A0649034800F063FE024807B030BD42
:10762000DCE30320E0E3032070E1032025750D0077
:1076300070474174704708B5007CFEF74DFC20EAA6
:10764000E07008BD08B5007CFEF71EFC20EAE07083
:1076500008BD08B5007CFEF727FC30EA200028BFF3
:107660004FF0FF3008BD08B5007CFEF715FC30EA8E
:10767000200028BF4FF0FF3008BD007CFEF71CBC87
:1076800010B51421044600F039FE204610BD70B537
:10769000457C04460E4625B9007CFEF71DFC0028FB
:1076A00005DD3146207CBDE87040FEF7E5BB28468D
:1076B00070BD000010B50446084611460022626005
:1076C0004FF47A72A260054A22600122207462742B
:1076D0001A46FEF7C9FB204610BD00BF9CBC0D003A
:1076E000007CFEF7F1BB000038B50C4D296811F0A5
:1076F000010411D12846FCF7E1FC68B1084A094BA6
:1077000009482146FFF7D6FF2846FCF7DCFC074A6C
:107710000749054800F0E4FD034838BD8CE4032028
:1077200090E4032008E40320F4E3032070E1032045
:1077300031760D0010B5836804460BB900F0F1FDF9
:10774000C3689847A3681BB1032221462046984787
:1077500020461021BDE8104000F0D0BD7047F8B5BC
:10776000064615460C468F18BC4206D0336814F8FE
:10777000011B9B6830469847F6E72846F8BD002273
:10778000007CFEF7C9BB0021007CFEF7CDBB0021C9
:10779000007CFEF7D1BB0021007CFEF7D5BB0021A9
:1077A000007CFEF7D9BB10B51421044600F0A6FDFD
:1077B000204610BD10B50446002363604FF47A7371
:1077C000A360044B2174084623601146FEF7D4FBE6
:1077D000204610BDCCBC0D0000231A461946007C83
:1077E000FEF782BB70B50C4686B0142506462A46C5
:1077F000002101A803F0A6F923788DF8083063680A
:107800000393E36804930022237A307CADF804509C
:1078100001A90593FEF7B8FB06B070BD1FB5003394
:107820008DF800104FF06401039118BF01236946E1
:1078300001928DF80830FFF7D5FF05B05DF804FB25
:107840000123FFF7EBBF0022007CFEF755BB0022AF
:10785000007CFEF759BB0121FFF7F9BF0021007C36
:10786000FEF782BB002211464068FEF789BC002269
:1078700011464068FEF794BC00224068FEF788BCC1
:10788000002281F001014068FEF772BC00231A4615
:1078900001214068FEF764BC00231A46194640687F
:1078A000FEF756BC002211464068FEF749BC002294
:1078B00011464068FEF734BC002202214068FEF702
:1078C00037BC00231A464068FEF722BC38B505468F
:1078D00088B104684CB1A3681BB10322214620463D
:1078E00098471021204600F009FD28461421BDE8E4
:1078F000384000F003BD38BD10B103685B6818471D
:10790000704710B503680446BBB15868FEF76CFABF
:1079100078B923685A7C12B95868FEF76DFA236863
:107920005868FEF771FA20680023236028B1FFF73A
:10793000CDFF206808B1FFF7C9FF204610BD38B55C
:107940000446D0F8C40108B1FCF7ABFBD4F8C00181
:1079500008B1FEF769FAD4F8BC5135B12846FFF7F3
:10796000D0FF0421284600F0C9FC206808B1FFF7C9
:10797000C3FF204638BD000010B5044B044640F854
:10798000083BFFF7DCFF204610BD00BFF4BC0D0034
:1079900038B50E4C0E4B23600025022304F5E4702D
:1079A0006360A560C4F8C451C4F8C851FEF734FA46
:1079B000084BC4F8CC5184F8D05123602046064AC5
:1079C0000649BDE8384000F08BBC00BF14E5032039
:1079D000DCBD0D00F4BC0D0070E1032079790D00D1
:1079E00037B502AC036804F8011DDD6B01224FF0CE
:1079F000FF332146A84703B030BD10B40368DC6BE9
:107A00004FF0FF33A4465DF8044B604737B502AC36
:107A1000036804F8011DDD6B214613460122A847C7
:107A200003B030BD704738B543691A68002A044670
:107A300005DAB3F88620B3F884309A4201D00125E4
:107A40000BE003681B699847002814BF0125002537
:107A500003D123682046DB6A9847284638BD43692E
:107A60001868C043C00F704770470020704710B5BA
:107A70001421044600F042FC204610BDFCF70FBB69
:107A80007FB5164600224260029203925A1C0446B9
:107A90000D4608D04FF47A72B3FBF2F1029102FB6B
:107AA00011314A43039260690823009341F20502B1
:107AB0006B4440F6FF710068FEF76EFA002808DBA1
:107AC00060690023324629460068FEF785FA0028DF
:107AD00004DAFEF7EDFB03686360002004B070BDBC
:107AE00010B5036804469B689847A368013BA360F0
:107AF0002BB923682046DB68BDE81040184710BD4D
:107B000070B504464D69054B44F8043B8C35064678
:107B10000FCD0FC42B682370304670BD58BC0D00CC
:107B200010B54369B3F88620B3F884309A4204460E
:107B300005D06269B2F884301344187910BD036827
:107B40001B6998470028F4D14FF0FF3010BD10B5E5
:107B50004369B3F88620B3F884309A42044608D0CB
:107B60006269B2F88430591C1344A2F88410187961
:107B700010BD03681B6998470028F1D14FF0FF3012
:107B800010BDF8B543691746B3F88620B3F88430C2
:107B90009A4205460E4606D103681B69984710B9FC
:107BA0004FF0FF3414E06969B1F88430B1F88640D1
:107BB000E41ABC4228BF3C461944224604313046F0
:107BC00002F09AFF6A69B2F884302344A2F8843044
:107BD0002046F8BD2DE9F0439846036893B0DB6A70
:107BE0000D4606461746984712AB002443F8484D09
:107BF000224621462846FEF747F8814600283DD117
:107C0000009B002B56D05B69002B53D006A8FFF7D2
:107C100039FC009B5C696378022B01D1211D13E0C4
:107C20000A2B14D11122494601A802F08BFFA36848
:107C300033BBE36823BB4FF6FF702569FEF704F9F9
:107C400085421DD104F1140106A8FFF75EFC06A8C9
:107C5000FFF738FC00282DD0336807ADD3F820900B
:107C6000184B0C930FCD0DAC0FC42B6823703A4604
:107C700043460CA93046C84781461BE0A14619E09F
:107C800004F1080301AD1834186859682A4603C284
:107C90000833A3421546F7D1062301A90CA80DAD60
:107CA0008DF81430FFF7FCFB0FCD07AC0FC42B6829
:107CB0002370CCE70098FDF7DFFF484613B0BDE81E
:107CC000F08300BF58BC0D0042690023A2F8843045
:107CD0004269A2F8863070472DE9F0411E460368DC
:107CE0000C468AB0DB6A054617469847237DD5F8CF
:107CF0001480042B0CBF02200A2006220121FEF76B
:107D000073F9C8F800006B691B68002B18DB284664
:107D1000FFF7DAFFD6B1002303A9F0B20393ADF861
:107D20001030FEF731F858B968690623009341F224
:107D30000B0203AB40F6FF710068FEF72DF928B186
:107D40002B682846DB6A002498473BE01C26324615
:107D5000002103A802F0F6FE237D8DF80C60042BB1
:107D60000CD1022338468DF80D30FEF775F8ADF8CA
:107D70000E006068FEF768F8049013E00A233846A6
:107D80008DF80D30FEF768F805AEADF80E00231D36
:107D900004F1140718685968324603C20833BB421D
:107DA0001646F7D16B691C2203A91868FEF704F97F
:107DB0000028C5D104340FCC6D698C350FC52368FC
:107DC0002B70012420460AB0BDE8F08110B543694C
:107DD00004461868002801DBFEF7E6F863694FF0F7
:107DE000FF321A606069112200218C3002F0AAFE75
:107DF0002046BDE81040FFF767BF000030B542697C
:107E0000B2F886308BB004461BB1B2F884209A4297
:107E100040D06369186800283FDBB3F886507F2D97
:107E20003BD8191DC5F1800208232944FEF7CCF880
:107E300000280CDD6369B3F886200AB9A3F8842012
:107E40006269B2F886301844A2F8860025E0FEF791
:107E50002FFA03680B2B20D0FEF72AFA03680B2BAE
:107E60001BD02023002502930395FEF721FA036817
:107E700001930E4B009302AA2B460D493220FEF7C8
:107E8000FBF863691868FEF78FF863694FF0FF32FB
:107E90001A6002E0FFF718FFBBE76269B2F88630AC
:107EA000B2F88400181A0BB030BD00BF8FBD0D00B2
:107EB00088BD0D0010B5002304460160A0F8843091
:107EC000A0F886308830FFF7DDFA204610BD0000AC
:107ED0004FF47A7270B500238260144A43600260E6
:107EE000436183610446A0200E46FCF7D6F80546A0
:107EF00010B13146FFF7DEFF1420FCF7CEF8034641
:107F000028B1012242608260094A02600561A069CD
:107F10006561A36128B14368013B43600BB9FFF77A
:107F2000DFFD2046FFF7D0FE204670BD44BD0D00AA
:107F300028BD0D0010B54FF0FF310446FFF7C8FF14
:107F4000204610BD10B504460068002801DBFEF78E
:107F50002BF8204610BD10B504692046FFF7F2FF4C
:107F600024B12046BDE81040FCF799B810BD0022AE
:107F700011464068FEF7E4B8002211464068FEF75B
:107F8000FFB8002211464068FEF70AB90022406897
:107F9000FEF7FEB8002281F001014068FEF7E8B864
:107FA00000231A4619464068FEF7DAB800231A463D
:107FB00019464068FEF7CCB8002211464068FEF72B
:107FC000AFB8002202214068FEF7B2B800231A467B
:107FD0004068FEF79DB80000024B04225A60024A36
:107FE0001A607047E8E60320A8BD0D0000231A467A
:107FF0004068FEF78DB8002202214068FEF798B86D
:10800000002211464068FEF78BB8002211464068F6
:10801000FEF796B800231A4619464068FEF798B84E
:1080200000231A4619464068FEF79AB8002281F0EC
:1080300001014068FEF79CB800224068FEF7A8B82E
:10804000002211464068FEF7ABB800221146406896
:10805000FEF796B82DE9F043002495B016460D467C
:108060000746FFF70FFA214620220CA8009402F0E1
:1080700069FD40230C9321466B460CAA3046FDF760
:1080800003FE0446002844D1024601216868FEF739
:1080900057F80221804622466868FEF751F8009E94
:1080A00081462146002E34D0002932D17368022B3C
:1080B00002D00A2B09D02AE0B8F1000F27D071694D
:1080C00038460431FFF721FA20E0B9F1000F1ED045
:1080D0007469112201A802F035FD06238DF81430D1
:1080E00001AD04F108031834186859682A4603C220
:1080F0000833A3421546F7D101A906A807ADFFF73B
:10810000CFF90FCD3C1D0FC42B6823700121F669F8
:10811000C8E70098FDF7B0FD384615B0BDE8F0831C
:10812000024B034A1A6000225A607047F0E60320AF
:10813000DCBD0D0010B5044600F072F8FEF7C7F97B
:1081400028B1A4F10B03022B01D8002010BD00F0D0
:10815000A1F8FFF783FB08B1012CF6D9FFF7C4FAA9
:10816000FFF7BEFA18B1A4F10903012BEDD9232CB6
:108170008CBF0020012010BD232838B504460D46D1
:108180000AD8FF2908D0FFF7D5FF28B12946204695
:10819000BDE83840FDF790BD38BD38B504460D4602
:1081A000FDF792FDFF2810D0062804D84D2323FAAE
:1081B00000F0C30709D42046FFF7BCFF28B12946C9
:1081C0002046BDE83840FDF787BD38BD10B50446F0
:1081D000FDF77AFD0438C0B2012808D92046FFF720
:1081E000A9FF20B12046BDE81040FDF77DBD00206D
:1081F00010BD0D2810B504469CBF0E34A4B2204615
:10820000FFF798FF50B103212046FDF74DFD0328ED
:1082100004D12046BDE81040FDF76EBD002010BD22
:1082200038B50B4D296811F001040FD12846FBF732
:1082300045FF58B121460748FEF78EF82846FBF760
:1082400042FF054A0549034800F04AF8014838BD95
:1082500004E70320F8E6032070E103203D630D00EE
:1082600070B5044614252A46094E002102F06AFC26
:10827000258020253146A5602561284600F040F87C
:1082800031466060284600F03BF8E060204670BD53
:1082900008BE0D0030B50E4D296811F0010487B0FD
:1082A00013D12846FBF70AFF78B101A8FFF7D8FFE2
:1082B00001AA21460748FFF77DFA2846FBF703FF8E
:1082C000054A0649034800F00BF8024807B030BDE4
:1082D0000CE7032010E7032070E103205D770D0019
:1082E0000B460146184602F0EDBA0000024B186832
:1082F000BFF35F8F704700BF24E70320FBF7CFBEBB
:1083000000F000B810B5002814BF04460124204630
:10831000FDF786FF20B9FFF7E9FF08B18047F6E7D0
:1083200010BD08B5FDF7B4FF184B1A68D1075CBF44
:1083300001221A60164B1A68D2075CBF01221A602C
:10834000144B1A68D0075CBF01221A60124B1A68DE
:10835000D1075CBF01221A60104B1A68D2075CBFBC
:1083600001221A600E4B1A68D0075CBF01221A6006
:108370000C4B1A68D1075CBF01221A600A4B1A68BD
:10838000D2075CBF01221A60704700BF44E7032098
:1083900040E703203CE7032038E7032034E70320CD
:1083A00030E703202CE7032028E70320244B1A683A
:1083B000D0075CBF01221A60224B1A68D1075CBF4C
:1083C00001221A60204B1A68D2075CBF01221A6092
:1083D0001E4B1A68D0075CBF01221A601C4B1A683A
:1083E000D1075CBF01221A601A4B1A68D2075CBF22
:1083F00001221A60184B1A68D0075CBF01221A606C
:10840000164B1A68D1075CBF01221A60144B1A6818
:10841000D2075CBF01221A60124B1A68D0075CBFFA
:1084200001221A60104B1A68D1075CBF01221A6042
:108430000E4B1A68D2075CBF01221A60704700BF5A
:1084400074E7032070E703206CE7032068E703204C
:1084500064E7032060E703205CE7032058E703207C
:1084600054E7032050E703204CE7032048E70320AC
:10847000244B1A68D0075CBF01221A60224B1A688D
:10848000D1075CBF01221A60204B1A68D2075CBF7B
:1084900001221A601E4B1A68D0075CBF01221A60C5
:1084A0001C4B1A68D1075CBF01221A601A4B1A686C
:1084B000D2075CBF01221A60184B1A68D0075CBF54
:1084C00001221A60164B1A68D1075CBF01221A609C
:1084D000144B1A68D2075CBF01221A60124B1A684B
:1084E000D0075CBF01221A60104B1A68D1075CBF2D
:1084F00001221A600E4B1A68D2075CBF01221A6073
:10850000704700BFA4E70320A0E703209CE70320F7
:1085100098E7032094E7032090E703208CE70320EB
:1085200088E7032084E7032080E703207CE703201B
:1085300078E70320184B1A68D1075CBF01221A6044
:10854000164B1A68D2075CBF01221A60144B1A68D6
:10855000D0075CBF01221A60124B1A68D1075CBFBA
:1085600001221A60104B1A68D2075CBF01221A6000
:108570000E4B1A68D0075CBF01221A600C4B1A68B8
:10858000D1075CBF01221A600A4B1A68D2075CBF90
:1085900001221A60704700BFC4E70320C0E7032030
:1085A000BCE70320B8E70320B4E70320B0E70320CB
:1085B000ACE70320A8E703202DE9F04F2DED028B57
:1085C000DFF824A38BB057EC106B55EC114B00F087
:1085D0008FF99AF90080B0EE408AF0EE608AB8F127
:1085E000FF3F48D022462B462046294601F06EFD2B
:1085F000834600283FD132463B463046394601F09B
:1086000065FD8146002840F09080304639460022C2
:10861000002301F029FD002836D000220023204647
:10862000294601F021FD8346B8B19FEDA57B0122CB
:10863000A94BCDF820900092CDE90267CDE9044521
:108640008DED067B0193B8F1000F5BD09FED9E0B83
:108650000BB0BDEC028BBDE8F08F45EC104B00F089
:10866000A7FF40B1002200232046294601F006FD65
:10867000002840F0C580B0EE480AF0EE680A0BB062
:10868000BDEC028BBDE8F08FB0EE480AF0EE680A50
:1086900000F08EFF8046002861D04FF000084FF0B8
:1086A000000951EC180B42464B4601F0DDFC002856
:1086B000E1D047EC106B00F07BFF0028DBD045ECED
:1086C000104B00F075FF0028D5D09AF90030824A8F
:1086D000019204210022022BCDE90267CDE9044575
:1086E000CDE906890091089203D0684600F068FF42
:1086F00070B9FDF7DDFD2223036009E09FED707B7B
:108700008DED067B684600F05BFF002800F08E8050
:10871000089B1BB1FDF7CCFD089B03609DED060B8C
:108720000BB0BDEC028BBDE8F08F00220023204689
:10873000294601F099FC00289DD09FED630B664B04
:10874000CDF820B00122B8F1020FCDE90267CDE9E2
:1087500004458DED060B8DE80C00D3D18FE747EC77
:10876000106B00F025FF002897D045EC104B00F06F
:108770001FFF002891D053EC182B18EE100A194651
:1087800001F0A4FC00287CD103239AF90080009317
:10879000514B0890CDE90267CDE904450193B8F14A
:1087A000000F48D1DFF844914FF0604800220023C9
:1087B00030463946CDE9068901F060FC002894D0A6
:1087C0000022464B2046294601F0E6F904460D46B4
:1087D00045EC104B00F000FF204653EC102B2946CF
:1087E00001F042FC002849D13D4B9AF900804FF03E
:1087F0006042CDE90623B8F1020F7FF476AF78E747
:10880000354A9AF90030CDF820B00121CDE9026750
:10881000CDE904458DE80600002B3FF46FAF3149E8
:108820000020022BCDE906017FF46CAFFDF740FD7F
:10883000212303606CE79FED267B00220023304656
:1088400039468DED067B01F019FC0028D3D00022BB
:10885000224B2046294601F09FF904460D4645EC7F
:10886000104B00F0B9FE204653EC102B294601F0C6
:10887000FBFB18B91B4B0022CDE906239AF90080B7
:10888000B9E7154B9AF90090CDF820800122CDE987
:108890000267CDE904458DE80C00B9F1000F3FF403
:1088A0002DAF002200231046194601F09FFAB9F1BE
:1088B000020FCDE90601B9D024E700BFAFF3008075
:1088C0000000000000000000000000000000F03F79
:1088D000000000000000F07F0CBE0D000000E03F33
:1088E000FFFFEFC70000F0FFB8E00320FFFFEF47F6
:1088F0002DE9F04F51EC110B21F0004858EA00042B
:1089000093B03CD053EC102B6D4E23F00044B44296
:1089100010EE10AA1D462BDC894611EE10EA26D077
:10892000B04525DC664EB04577D0002D16461F4673
:10893000CDE9000175DB4FF0000BBEF1000F2DD12A
:108940005F4B984500F089805E4B98455ED0B9F149
:10895000804F00F0DE835C4B99451FD1002D1DDB5D
:1089600047EC106B13B0BDE8F04F00F049BD5AB1B1
:1089700004F1404404F5801454EA0A0306D19FED43
:108980004A0B13B0BDE8F08FA045CBDD4F4813B0C4
:10899000BDE8F04F00F018BE4FF0000B47EC106B35
:1089A00000F0FEFD51EC100BBAF1000F1ED0ED0FE0
:1089B00005F1FF3A5BEA0A0363D0454B984540F363
:1089C0008D8003F10473984540F33884414B9C42F9
:1089D00062DDB9F1000F62DD35A3D3E90023104653
:1089E000194601F0D9F841EC100BCAE724B1354B18
:1089F00025F040429A42DAD1B9F1000FC0F2CB83A0
:108A0000002DC0F2748341EC100BBAE7B9F1000FEE
:108A1000C0F27A8447EC106BB3E7BEF1000F84D04C
:108A2000A6E72D4B984529DCA3F15473984582DDC8
:108A30004FEA2853A3F2FF33142B40F37F84C3F192
:108A400034032EFA03F202FA03F39E457FF473AF68
:108A500002F00102C2F1020B6FE704F1404303F59B
:108A6000801353EA0A038AD01A4B9C4240F3858351
:108A7000B9F1000F13DB9DED000B82E74FF0020B05
:108A80005BE732463B461046194600F0D1FE0246EF
:108A90000B4601F0ABF9B6E7B9F1000F9CDB9FED97
:108AA000060B6EE7AFF30080000000000000F03F0F
:108AB0009C7500883CE4377E000000000000000048
:108AC0000000F07F0000F03F0000E03F10BE0D000E
:108AD0000000E041FFFFEF3FFFFF3F43B4F5801F81
:108AE0004FF0000205DAD64B01F056F86FF0340271
:108AF0000C462315D34EC4F31304A3F2FF331344DF
:108B000044F07F55B4421A460D9345F4401540F3A6
:108B10004983CD4B9C4240F32D849FEDB37B8DED7B
:108B2000087B8DED0E7B9FEDB27B13468DED067BB2
:108B300001330D93A5F580154FF00008DDE90623FC
:108B40002946CDE90A0100F073FEDDE90623064659
:108B50000F46DDE90A0100F06DFE02460B460020DB
:108B6000BA4901F043F903460C46CDE910340246F8
:108B70000B463046394601F00FF86B1043F00053B6
:108B800003F5002303EB08050A4600230146CDE95F
:108B900002120293DDE902890024CDE904122B467A
:108BA00022464046494600F0F7FF02460B46304653
:108BB000394600F03DFEDDE9062306460F46204615
:108BC000294600F035FE02460B46DDE90A0100F0B9
:108BD0002FFE42464B4600F0DFFF02460B46304672
:108BE000394600F025FEDDE9102300F0D5FFDDE970
:108BF0000445CDE9060122462B462046294600F0D1
:108C0000CBFF7DA3D3E9002304460D4600F0C4FF4B
:108C10007BA3D3E9002300F00DFE22462B4600F093
:108C2000BBFF79A3D3E9002300F004FE22462B46C4
:108C300000F0B2FF76A3D3E9002300F0FBFD22464B
:108C40002B4600F0A9FF74A3D3E9002300F0F2FD46
:108C500022462B4600F0A0FF71A3D3E9002300F0C9
:108C6000E9FD224606460F462B462046294600F0DF
:108C700093FF02460B463046394600F08DFF4246D0
:108C800004460D464B46DDE9040100F0D3FDDDE965
:108C9000062300F081FF22462B4600F0CBFD424622
:108CA00006460F464B464046494600F075FF0022F7
:108CB000674BCDE90A0100F0BDFD32463B4600F0AE
:108CC000B9FD02980D46044622462B4640464946C9
:108CD00000F062FF0022804689465D4B204629460F
:108CE00000F0A6FDDDE90A2300F0A2FD02460B46D6
:108CF0003046394600F09CFDDDE9042300F04CFFCE
:108D0000224606460F462B46DDE9060100F044FFE9
:108D100002460B463046394600F08CFD06460F46AB
:108D200002460B4640464946CDE9048900F082FDE3
:108D300002983DA3D3E9002304460D4600F02CFF22
:108D4000DDE90423804689462046294600F070FD6F
:108D500002460B463046394600F06AFD34A3D3E99B
:108D6000002300F019FF34A3D3E9002306460F4681
:108D70002046294600F010FF02460B463046394691
:108D800000F058FDDDE90E2300F054FD06460D9875
:108D90000F4600F09BFE324604460D463B464046D9
:108DA000494600F047FDDDE9082300F043FD224677
:108DB0002B4600F03FFD029822462B46CDE90201EA
:108DC00000F036FDDDE9082300F032FD42464B4657
:108DD00000F02EFD02460B463046394600F028FDD5
:108DE0008046894636E000BF000000000000000019
:108DF000000000000000F03FEF4E454A287ECA3FC9
:108E000065DBC9934A86CD3F01411DA96074D13FFE
:108E10004D268F515555D53FFFAB6FDBB66DDB3F10
:108E2000033333333333E33F000000E009C7EE3F41
:108E3000FD033ADC09C7EE3FF5015B14E02F3EBEAF
:108E4000000040438E98030079B60B000000F03F0D
:108E5000000008400BF1FF3353EA0A0300F0888159
:108E60009FEDD77B8DED067BDDE900AB53465C467D
:108E7000CDE9003400230093DDE900455046224649
:108E80002B46594600F0D4FCDDE9022300F084FEB5
:108E9000524606460F465B464046494600F07CFE79
:108EA00002460B463046394600F0C4FC2246804656
:108EB00089462B46DDE90201CDE9048900F06CFE0C
:108EC0000B46024606460F464046494600F0B2FCB5
:108ED000D54B994204460D468A4640F3238101F161
:108EE0003F4303F5E003034340F01882B6A3D3E900
:108EF0000023DDE9040100F09DFC324680468946EE
:108F00003B462046294600F093FC02460B4640466D
:108F1000494601F0D1F8002840F00082A8464FEA07
:108F200028534FF48012A3F2FE3342FA03F3534462
:108F3000C3F30A52BD4DA2F2FF321541C3F3130B26
:108F40000020C2F1140423EA05014BF4801BBAF19E
:108F5000000F02460B464BFA04FB30463946B8BFB9
:108F6000CBF1000B00F064FC02460B4606460F46B0
:108F7000DDE9040100F05EFC4FEA0B5A002494A3E3
:108F8000D3E9002320460D4600F006FE3246804617
:108F900089463B462046294600F04AFC02460B46DD
:108FA000DDE9040100F044FC8BA3D3E9002300F0C9
:108FB000F3FD8BA3D3E9002306460F46204629463E
:108FC00000F0EAFD02460B463046394600F032FC1E
:108FD00006460F4602460B464046494600F02AFC2C
:108FE00042464B4604460D4600F022FC02460B4624
:108FF0003046394600F01CFC2246804689462B4606
:109000002046294600F0C8FD77A3D3E90023064691
:109010000F4600F0C1FD76A3D3E9002300F008FC61
:1090200032463B4600F0B8FD73A3D3E9002300F0BD
:1090300001FC32463B4600F0AFFD71A3D3E90023AB
:1090400000F0F6FB32463B4600F0A6FD6EA3D3E9E6
:10905000002300F0EFFB32463B4600F09DFD024648
:109060000B462046294600F0E3FB06460F46024623
:109070000B462046294600F08FFD0022CDE9000175
:109080004FF080433046394600F0D2FB02460B4693
:10909000DDE9000100F0AAFE424606460F464B46B7
:1090A0002046294600F078FD42464B4600F0C2FBC0
:1090B00002460B463046394600F0BAFB22462B46A4
:1090C00000F0B6FB02460B460020594900F0B0FB09
:1090D0008A44BAF5801F02460B46C0F25B815146B6
:1090E000DDE9062300F058FD41EC100B49E404F1E2
:1090F000404404F5801454EA0B0300F03781BBF1BF
:10910000010F7FF480AC024601F1004343EC102BC9
:1091100037E432463B463046394600F03DFD41ECEF
:10912000100B2EE4434B21F00048984540F3158185
:10913000414B0B4403430CD132463B4600F078FBD5
:1091400002460B46DDE9040100F0A2FF00283FF4CF
:10915000E6AE2FA3D3E90023DDE9060100F01CFDF4
:109160002BA3D3E9002300F017FD41EC100B08E41A
:109170009FED297B8DED067B76E6B9F1000FBFF6FA
:109180008EACDDE9003400EE103A04F1004300EE4D
:10919000903AFFF7F6BB02460B460020244900F048
:1091A00025FE2DE49FED1E7B8DED087B8DED0E7B66
:1091B0009FED037B4FF000088DED067BBEE400BF02
:1091C000000000000000F03FFE822B654715973C31
:1091D00000000000432EE63FEF39FAFE422EE63F44
:1091E000396CA80C615C20BED0A4BE726937663EA3
:1091F000F16BD2C541BDBB3E2CDE25AF6A56113F97
:1092000093BDBE166CC1663F3E5555555555C53F7D
:1092100059F3F8C21F6EA501000000000000F0BF66
:109220000000000000000000FFFF8F40FFFF0F0064
:109230000000F03FFFCB904000346F3F6C4B9C42EE
:109240007FF72AAC6B4B9C423FF7C3AB0022694BC4
:1092500000F0EEFA56A3D3E9002304460D4600F0D1
:109260009BFC55A3D3E90023804689462046294626
:1092700000F092FC0022CDE902015F4B2046294616
:1092800000F08AFC02460B464DA1D1E9000100F036
:10929000CFFA22462B4600F07FFC02460B46002008
:1092A000564900F0C5FA22462B4606460F46204690
:1092B000294600F071FC02460B463046394600F064
:1092C0006BFC41A3D3E9002300F066FC02460B4689
:1092D000DDE9020100F0ACFA02460B4604460D46F9
:1092E0004046494600F0A6FA42464B460020CDE9EA
:1092F000020100F09DFA02460B462046294600F086
:1093000097FA80468946A5E532463B460020394912
:1093100000F06CFD41EC100BFFF733BB2CA3D3E93D
:109320000023DDE9060100F037FC29A3D3E900237F
:1093300000F032FC41EC100BFFF723BBBEF1000F35
:109340007FF42AABC3F1140348FA03F202FA03F3E1
:10935000984527D0F346FFF7F7BA284B98453FF7D3
:10936000DEADDDE900349A469B4607E602460B4631
:10937000FFF789BB9FED187B8DED087B9FED187B78
:109380008DED0E7B9FED187B4FF480288DED067BD5
:10939000FFF7D4BB584643EC102B00F0B1F951EC69
:1093A000100B9DE602F00102C2F1020BFFF7CCBAEE
:1093B000000000604715F73F44DF5DF80BAE543EF8
:1093C000555555555555D53FFE822B654715F73FE9
:1093D0009C7500883CE4377E0000004003B8E23F03
:1093E00006D0CF43EBFD4C3E000000000000F83FEC
:1093F000FEFFEF3F0000F03F0000D03F0000E03FE5
:109400002DE9F041654955EC104B0E462940B1421B
:1094100000F09780002D2B4610EE102A74DD2F15DA
:109420007FD0A7F2FF37C3F31303F90743F4801388
:1094300065D403EBD27100260B447F105200B64670
:1094400016204FF400110EEB01049C424FEAD27536
:109450004FEA420203DC1B1B04EB010E0E440138F1
:1094600005EB43034FEA5101EDD1844620244FF030
:10947000004109E020D003EBD275013C4FEA5101D5
:109480002B444FEA420220D09E4501EB0C05F1DA55
:10949000002D05EB010C09DBF0469542CEEB0303F2
:1094A00000D9013B521B0844C646E4E7BCF1000F5B
:1094B000F2DB0EF10108F0E795421ED8002D05EB16
:1094C000010C50DB98460023ECE7134304D0421C08
:1094D0004DD000F00103184440087110F30701F16A
:1094E0007F5101F5001148BF40F0004001EB0753E8
:1094F000024643EC102BBDE8F0817346BBE75B00EE
:1095000003EBD273520094E725F00041214328D0A9
:10951000ADBB2F46D30A153F5205002BFAD0DD0212
:1095200028D4002100E001465B00DC0201F10100CB
:10953000F9D5C0F1200422FA04F423437F1A8240B3
:109540006FE710EE102A2B4610EE100A294600F0A5
:1095500023FB22462B4600F06DF941EC100BBDE8D1
:10956000F081BDE8F081BCF1000FA2DAAAE7013674
:109570002046B2E720244FF0FF310020DBE710EE59
:10958000102A2B462046294600F052F902460B4687
:1095900000F02CFC41EC100BBDE8F0810000F07FE6
:1095A00053EC102B23F0004343EC102B704700BF0B
:1095B00010EE903A43F0004000F58010C00F704765
:1095C00000207047000000009FED010B704700BFB6
:1095D000000000000000F87FF0B553EC102BC3F33F
:1095E0000A56A6F2FF30132883B019464FEAD37407
:1095F00010EE105A2FDC002849DB3F4E064103EAEB
:10960000060717432CD0760833401D430CD04FF487
:109610008023132821EA060643FA00F141EA0601F5
:109620000CBF4FF000450025344800EBC4042A4627
:10963000D4E9004510462B46224600F0FBF8CDE960
:10964000000122462B46DDE9000100F0F1F841EC73
:10965000100B03B0F0BD332806DDB0F5806F42D0AB
:1096600043EC102B03B0F0BDA6F213464FF0FF30D1
:10967000F0400242F4D040080242D5D04FF080437F
:1096800025EA000043FA06F646EA0005CCE723F097
:109690000040104310EE107AE2D0C3F313000743EA
:1096A000784207431548590C3F0B490407F400273B
:1096B00000EBC40047EA0103D0E9006719461046F1
:1096C0003B46324600F0B6F8CDE900013B46324653
:1096D000DDE9000100F0ACF821F0004343EAC47179
:1096E00041EC100BBEE710EE100A194600F0A2F88C
:1096F00041EC100BB6E700BFFFFF0F0018BE0D00D6
:1097000053EC102B70B5C3F30A541946054614BB2D
:1097100023F0004111432AD019460022384B394E1C
:1097200010EE100A00F038FAB54202460B461FDB75
:10973000C1F30A54363C2C4440F2FE7084421FDCD4
:10974000002C2DDD21F0FF4121F4E00141EA04531A
:1097500043EC102B70BD40F2FF708442EBD110EE51
:10976000100A194600F066F841EC100B70BD70BD90
:109770001FA3D3E9002300F00FFA41EC100B70BDDA
:1097800043EC112B9FED1C0B00F040F81AA3D3E91A
:10979000002351EC100B00F0FFF941EC100B70BDF1
:1097A00014F1350F13DA4CF250318D4243EC112B8A
:1097B000E8DC9FED0F0B00F029F80DA3D3E900239F
:1097C00051EC100B00F0E8F941EC100B70BD21F0EA
:1097D000FF4121F4E001363441EA045310461946B2
:1097E0000022094B00F0D8F941EC100B70BD00BF0E
:1097F00059F3F8C21F6EA5019C7500883CE4377EC2
:1098000000005043B03CFFFF0000903C53EC102B95
:1098100011EE900A23F0004100F0004041EA0003FD
:1098200043EC102B704700BF81F0004102E000BF05
:1098300083F0004330B54FEA41044FEA430594EA10
:10984000050F08BF90EA020F1FBF54EA000C55EA4B
:10985000020C7FEA645C7FEA655C00F0E2804FEA1C
:109860005454D4EB5555B8BF6D420CDD2C4480EAFE
:10987000020281EA030382EA000083EA010180EA2E
:10988000020281EA0303362D88BF30BD11F0004F7C
:109890004FEA01314FF4801C4CEA113102D04042B2
:1098A00061EB410113F0004F4FEA03334CEA1333ED
:1098B00002D0524263EB430394EA050F00F0A78005
:1098C000A4F10104D5F1200E0DDB02FA0EFC22FA00
:1098D00005F2801841F1000103FA0EF2801843FAF4
:1098E00005F359410EE0A5F120050EF1200E012AE5
:1098F00003FA0EFC28BF4CF0020C43FA05F3C01823
:1099000051EBE37101F0004507D54FF0000EDCF19B
:10991000000C7EEB00006EEB0101B1F5801F1BD344
:10992000B1F5001F0CD349085FEA30004FEA3C0C48
:1099300004F101044FEA445212F5800F80F09A803E
:10994000BCF1004F08BF5FEA500C50F1000041EB42
:10995000045141EA050130BD5FEA4C0C404141EB46
:10996000010111F4801FA4F10104E9D191F0000F6D
:1099700004BF01460020B1FA81F308BF2033A3F1F0
:109980000B03B3F120020CDA0C3208DD02F1140CE7
:10999000C2F10C0201FA0CF021FA02F10CE002F122
:1099A0001402D8BFC2F1200C01FA02F120FA0CFC1B
:1099B000DCBF41EA0C019040E41AA2BF01EB045164
:1099C000294330BD6FEA04041F3C1CDA0C340EDC62
:1099D00004F11404C4F1200220FA04F001FA02F3A5
:1099E00040EA030021FA04F345EA030130BDC4F163
:1099F0000C04C4F1200220FA02F001FA04F340EA58
:109A00000300294630BD21FA04F0294630BD94F008
:109A1000000F83F4801306BF81F480110134013DEF
:109A20004EE77FEA645C18BF7FEA655C29D094EA60
:109A3000050F08BF90EA020F05D054EA000C04BFDE
:109A40001946104630BD91EA030F1EBF00210020C9
:109A500030BD5FEA545C05D14000494128BF41F068
:109A6000004130BD14F580043CBF01F5801130BDCC
:109A700001F0004545F0FE4141F470014FF0000057
:109A800030BD7FEA645C1ABF194610467FEA655C08
:109A90001CBF0B46024650EA013406BF52EA0335AA
:109AA00091EA030F41F4002130BD00BF90F0000F98
:109AB00004BF0021704730B54FF4806404F13204D4
:109AC0004FF000054FF0000150E700BF90F0000F8D
:109AD00004BF0021704730B54FF4806404F13204B4
