:02000002D0002C
:1040000000400D005C760D00000006000C0005016C
:084010000401DE0500000000C0
:04401800186F0D0010
:10401C0009480A49884208B505D0094A824202D0AB
:10402C00121A02F03FFB0748074A0021121A02F04D
:10403C0044FB014808BD00BF70E2032064750D000D
:10404C0040E3032040E30320F0E7032070B501F0C8
:10405C0055F9074C074BE41AA40800251E46A54247
:10406C0004D056F8253098470135F8E770BD00BFED
:10407C005C750D0020750D0000F02CB808B500F033
:10408C0077F9BDE8084001F0FBB800F07DBD00F009
:10409C0083BD00F081BD0078B0FA80F04009704714
:1040AC00012303707047000010B5034B03600446F6
:1040BC0000F014FA204610BD346F0D0010B5044604
:1040CC00FFF7F2FF20464FF4987102F04BF82046B0
:1040DC0010BD000010B501F0D5FC4FF4165101F0E5
:1040EC00C5FC164B164C1888002101F08BFF0121E2
:1040FC00208801F087FF0021208801F094FFB9EEA1
:10410C00080A00F0FFFF00F017FD10B1002000F0CE
:10411C0023FD002302220B490B4800F0FDFC002379
:10412C0002220A490A4800F0F7FC0023012209493F
:10413C000948BDE8104000F0EFBC00BF74E203205A
:10414C007CE203207CE303203C6F0D0050E3032052
:10415C00456F0D0078E30320516F0D0037B5164CF9
:10416C00164D236883421BDA01F08CFC2368144A39
:10417C00009301212B68134C00F073FF4FF47A70FD
:10418C0001F030F80121208801F04DFF0E4B18682A
:10419C0001F028F82088002101F045FF012009E0FA
:1041AC0001F070FC23680093084A2B68012100F091
:1041BC0058FF002003B030BD70E203207CE30320E5
:1041CC005F6F0D007CE2032080E203207C6F0D000A
:1041DC0070B586B000F0F5FF1F4C204E204D014607
:1041EC0002A800F0ABFF02A9204600F053FE02A883
:1041FC0000F0D9FD314620460023192200F076FE4E
:10420C002146184C13230B2202A800F087FE02A9AA
:10421C00204600F03FFE02A800F0C5FD0023092255
:10422C002946204600F062FE01F02CFC216800F0CB
:10423C00EEFE01F027FC0C4B0C4A1B68009300218E
:10424C00334600F00EFF01F01DFC2B46084A0021FE
:10425C0000F007FF06B070BD68E3032080E3032085
:10426C0044E3032054E303207CE30320986F0D0008
:10427C00BB6F0D0038B5046805467CB16368013B23
:10428C0063605BB9236820469B689847A368013B31
:10429C00A3601BB923682046DB689847284638BDC5
:1042AC0070B504460E46154600F020FA0122314640
:1042BC00204600F08FF920463A2100F03FF92A46BB
:1042CC0020460249BDE8704000F077B9CC6F0D0074
:1042DC0070B5D2B006460D46144612A94FF4807242
:1042EC0006A800F019F91C4B06937D227B2106A829
:1042FC0000F007FA324606A81849FFF7D1FF2A4604
:10430C00174906A8FFF7CCFF06A800F0EFF9012229
:10431C0006A8144900F05EF906A83A2100F00EF93F
:10432C00214606A800F006FA06A800F015F9079B2E
:10433C0003930D4B039A1B780C498DF8003004A89D
:10434C003C2301F049F905A8FFF794FF06A8FFF7F5
:10435C00ABFE52B070BD00BF346F0D003C6F0D0052
:10436C00456F0D00516F0D0064E30320CF6F0D00FE
:10437C00F0B52E4B2E4C18882E4E2F4D2F4F89B04A
:10438C0001F06AFE2060FFF7E9FE2D4B30701888B3
:10439C0001F062FE28602068FFF71AFF21680A22EC
:1043AC0004A800F090FD3B78049A26498DF8003063
:1043BC0002A83C2301F010F903A8FFF75BFF04A847
:1043CC0000F0F1FC29680A2204A800F07CFD3B787F
:1043DC00049A1D498DF8003002A83C2301F0FCF82A
:1043EC0003A8FFF747FF04A800F0DDFC31780A2290
:1043FC0004A800F068FD3B78049A14498DF800304D
:10440C0002A83C2301F0E8F803A8FFF733FF04A847
:10441C0000F0C9FC327829682068FFF759FF0C4B73
:10442C00186800F0DFFE09B0F0BD00BF74E2032095
:10443C007CE3032078E3032050E3032064E30320B0
:10444C0078E203203C6F0D00456F0D00516F0D009D
:10445C0084E20320F8B50F4B0F4F104C104E114D4A
:10446C0001221A7000F084F93946204600F0E2FC73
:10447C0020460D4C3246294601F066FE3946204650
:10448C0000F0D8FC324629462046BDE8F84001F041
:10449C005BBE00BF64E3032010710D0068E30320D2
:1044AC0040E30320B34D0D0054E3032010B5054B3E
:1044BC000360037C04461BB9406808B100F06CFB38
:1044CC00204610BDE06F0D0010B50446FFF7EEFF5F
:1044DC002046142101F046FE204610BD10B5034BBA
:1044EC0003600446FFF7E2FF204610BDF06F0D009D
:1044FC0010B50446FFF7F2FF2046302101F032FEE2
:10450C00204610BD00230122C3604361027643762E
:10451C0080F82A3070470000002310B5C3600123D7
:10452C000374054B03604FF0FF3341608260C3623C
:10453C00FFF7E8FF10BD00BFF06F0D00C368826885
:10454C0010B593423FBF42685C1CC460D15424BF79
:10455C00012380F82A3010BD10B54369044643B1DD
:10456C0000EB4303597E09B1FFF7E8FF6369013B98
:10457C006361A368E068616898424FF000022ABF4B
:10458C005B180A5403F8012C10BD70B50446C068C2
:10459C00A56866682D1A134630440A46294600F071
:1045AC001BFB85422DBFE368A368E360C01836BFD0
:1045BC000123E06084F82A3070BD0EB403B503AA61
:1045CC0052F8041B0192FFF7E0FF02B05DF804EB18
:1045DC0003B070472DE9F04104460E46174612B160
:1045EC002221FFF7ABFF0025715D06EB05080029C2
:1045FC0071D0E268A3689A426DD20B0633D501F0F4
:10460C00F003E02B17D198F8013003F0C002802A98
:10461C0011D105F1020816F8082002F0C00080281C
:10462C0009D102F03F029B0142EA013203F47C63A0
:10463C001A4392B211E001F0E003C02B46D105F110
:10464C00010816F8083003F0C002802A3ED1890117
:10465C0001F4F86203F03F031A4323492046FFF7A5
:10466C00ACFF454635E00C2918D00BD8092921D0D0
:10467C000A2919D0082929D15C212046FFF75EFFB1
:10468C00622123E022291BD05C2919D00D291DD1D0
:10469C005C212046FFF752FF722117E05C21204677
:1046AC00FFF74CFF662111E05C212046FFF746FF27
:1046BC006E210BE05C212046FFF740FF742105E0E2
:1046CC005C212046FFF73AFF98F800102046FFF7D0
:1046DC0035FF013588E72FB120462221BDE8F04196
:1046EC00FFF72CBFBDE8F08101700D00426900EBB3
:1046FC0042031A7E12B100221A7670472C21FFF762
:10470C001DBFF8B543690133082B0E4617460ED86A
:10471C00FFF7ECFF43695A1C00EB43030124426191
:10472C0031469C76DF76FFF709FF2046F8BD002066
:10473C00F8BD00000A4611B10022024900E002490E
:10474C00FFF748BF08700D000D700D0000F010B899
:10475C0008B5024B1B689B68019308BD68020300F7
:10476C0008B5024B1B68DB68019308BD68020300A7
:10477C0008B5024B1B681B68019308BD2C02030093
:10478C0008B5024B1B685B68019308BD2C02030043
:10479C0008B5024B1B689B68019308BD2C020300F3
:1047AC0008B5024B1B68DB68019308BD2C020300A3
:1047BC0008B5024B1B681B69019308BD2C02030052
:1047CC0008B5024B1B681B6B019308BD2C02030040
:1047DC0008B5024B1B68DB69019308BD300203006E
:1047EC0008B5024B1B681B6A019308BD300203001D
:1047FC0008B5024B1B685B68019308BD18020300E7
:10480C0008B5024B1B685B69019308BD18020300D5
:10481C0008B5024B1B68DB69019308BD1802030045
:10482C0008B5024B1B689B6D019308BD1802030071
:10483C0008B5024B1B689B68019308BD4802030036
:10484C0008B5024B1B681B69019308BD48020300A5
:10485C0008B5024B1B685B69019308BD4802030055
:10486C0008B5024B1B685B6C019308BD4802030042
:10487C0008B5024B1B689B6C019308BD48020300F2
:10488C0008B5024B1B685B69019308BD6402030009
:10489C0008B5024B1B681B68019308BD3C02030062
:1048AC0008B5024B1B68DB68019308BD3C02030092
:1048BC0008B5024B1B681B69019308BD3C02030041
:1048CC0008B5024B1B685B69019308BD3C020300F1
:1048DC0008B5024B1B689B69019308BD3C020300A1
:1048EC0008B5024B1B68DB69019308BD3C02030051
:1048FC0008B5024B1B681B6A019308BD3C02030000
:10490C0008B5024B1B689B6A019308BD3C0203006F
:10491C0008B5024B1B681B6A019308BD28020300F3
:10492C0008B5024B1B685B6A019308BD28020300A3
:10493C0008B5024B1B689B6A019308BD2802030053
:10494C0008B5024B1B68DB6A019308BD2802030003
:10495C0008B5024B1B681B6B019308BD28020300B2
:10496C0008B5024B1B685B6B019308BD2802030062
:10497C0008B5024B1B681B6C019308BD2802030091
:10498C0008B5024B1B681B68019308BD4C02030061
:10499C0008B5024B1B685B68019308BD4C02030011
:1049AC0008B5024B1B681B69019308BD4C02030040
:1049BC0008B5024B1B685B69019308BD4C020300F0
:1049CC0008B5024B1B689B69019308BD4C020300A0
:1049DC0008B5024B1B68DB69019308BD4C02030050
:1049EC0008B5024B1B681B6A019308BD4C020300FF
:1049FC0008B5024B1B681B68019308BD200203001D
:104A0C0008B5024B1B685B68019308BD20020300CC
:104A1C0008B5024B1B685B69019308BD20020300BB
:104A2C0008B5024B1B68DB6C019308BD2002030028
:104A3C0008B5024B1B685B6D019308BD2002030097
:104A4C0008B5024B1B689B6D019308BD2002030047
:104A5C0008B5034B1B68D3F88830019308BD0000E0
:104A6C002002030008B5034B1B68D3F89430019364
:104A7C0008BD00002002030008B5024B1B685B68F0
:104A8C00019308BD4002030008B5024B1B689B68EC
:104A9C00019308BD4002030008B5024B1B68DB689C
:104AAC00019308BD4002030008B5024B1B681B694B
:104ABC00019308BD4002030008B5024B1B685B69FB
:104ACC00019308BD4002030008B5024B1B689B69AB
:104ADC00019308BD4002030008B5024B1B68DB695B
:104AEC00019308BD4002030008B5024B1B681B6A0A
:104AFC00019308BD4002030008B5024B1B681B6BF9
:104B0C00019308BD4002030008B5024B1B685B6BA8
:104B1C00019308BD4002030008B5024B1B681B68DB
:104B2C00019308BD4402030008B5024B1B689B6847
:104B3C00019308BD4402030008B5024B1B685B6976
:104B4C00019308BD4402030008B5024B1B681B6AA5
:104B5C00019308BD4402030008B5024B1B68DB6AD5
:104B6C00019308BD4402030008B5024B1B681B6B84
:104B7C00019308BD4402030008B5024B1B68DB6BB4
:104B8C00019308BD4402030008B5024B1B681B6867
:104B9C00019308BD1C02030008B5024B1B685B683F
:104BAC00019308BD1C02030008B5024B1B689B68EF
:104BBC00019308BD1C02030008B5024B1B681B695E
:104BCC00019308BD1C02030008B5024B1B689B69CE
:104BDC00019308BD1C02030008B5024B1B685B6AFD
:104BEC00019308BD1C02030008B5024B1B68DB6A6D
:104BFC00019308BD1C02030008B5024B1B681B6B1C
:104C0C00019308BD1C020300002211464068FFF707
:104C1C006BBF002211464068FFF776BF0022406848
:104C2C00FFF76ABF002281F001014068FFF754BF13
:104C3C0000231A4619464068FFF746BF00231A4660
:104C4C0019464068FFF738BF002211464068FFF74D
:104C5C002BBF002211464068FFF716BF002202212D
:104C6C004068FFF719BF00231A464068FFF704BFDE
:104C7C00024B03225A60024A1A6070479CE30320DD
:104C8C0030700D00704710B50C21044601F06AFA23
:104C9C00204610BD10B5054B036004460171084653
:104CAC00FFF796FD0023A360204610BD64700D0035
:104CBC000079FFF795BD10B50446006818B1FFF7F1
:104CCC006BFF0023236010BD10B50446FFF7F3FF04
:104CDC00204610BD10B5094C00204FF6FF73206024
:104CEC00A080A07120816381FFF78AFE2046044AD0
:104CFC000449BDE8104001F027BA00BFA4E303202B
:104D0C0040E30320D54C0D0010B5044601F033FDF3
:104D1C00013823182046984206D20278197800F8F8
:104D2C00011B03F80129F6E710BD70B50C46911E66
:104D3C00222920D82546294610B9234430220EE0DA
:104D4C00B0FBF2F602FB1600C1B205F8011B0928F4
:104D5C0094BF3031573105F8011C3046EBE79942CE
:104D6C0002D201F8012BFAE7002320460B70FFF763
:104D7C00CBFF204670BD002070BD38B5031E0C461D
:104D8C0015460BDAB3F1004F4FF02D0214BF584209
:104D9C00184601230A702A46194400E00123FFF744
:104DAC00C4FF204638BD10B504460068FFF7F4FE7A
:104DBC00204610BD10B50446006808B1FFF7ECFEA4
:104DCC0000232360A360636010BD38B504460D4614
:104DDC0000680131FFF7E8FE10B184E821000120E2
:104DEC0038BD10B50368044613B143688B4207D233
:104DFC002046FFF7EAFF20B1A3680BB922681370B5
:104E0C00012010BD70B50E46114604461546FFF73D
:104E1C00E8FF18B92046FFF7CDFF09E02A463146D6
:104E2C00A560206801F03EFC2268A3680021D154E3
:104E3C00204670BD38B50023044603604360836090
:104E4C0003730D4639B1084601F095FC294602461C
:104E5C002046FFF7D7FF204638BD38B50546006819
:104E6C000C4660B16A688B689A4206D3096801F0F7
:104E7C005FFCA368AB6000230AE0FFF78DFE23689C
:104E8C002B6063686B60A368AB6000232360636076
:104E9C00A36038BD884210B5044601D0FFF7DDFF92
:104EAC00204610BD38B505460C4641B1084601F008
:104EBC0062FC214602462846FFF7A4FF01E0FFF7FB
:104ECC0079FF284638BD10B5044600238AB023600C
:104EDC006360A3602373084601A9FFF74EFF01A985
:104EEC002046FFF7DFFF20460AB010BD70B50E4616
:104EFC009AB191B185689D4202D800230B7070BDA8
:104F0C00541EED1A0168AC4228BF2C4619442246A7
:104F1C00304601F04DFC0023335570BDF8B59A4274
:104F2C000F461D460C4988BF13461446064684BFDF
:104F3C002C461D46FFF77EFFBA6894420AD83968A2
:104F4C00954294BFC4EB0502C4EB020221443046E7
:104F5C00FFF758FF3046F8BD10710D0010B5044630
:104F6C00006808B1FFF784FC204610BD0B68036095
:104F7C0013B15A6801325A607047000010B5064CE4
:104F8C00002320462360FFF76BFC2046034A0449AC
:104F9C00BDE8104001F0D8B8B0E3032040E3032093
:104FAC00694F0D00F8B506460D468F180024BD421A
:104FBC000CD0336815F8011B9B68304698470028C5
:104FCC0001DB0444F3E7002C08BF04462046F8BD7F
:104FDC0070B505460C46084649B101F0CCFB2B6870
:104FEC00024621462846DB68BDE87040184770BD74
:104FFC0003689B68184738B50D210546FFF7F8FF85
:10500C000A2104462846FFF7F3FF204438BD38B583
:10501C000546FFF7DDFF04462846FFF7ECFF20446A
:10502C0038BD30B58BB00B4600218DF82410012A09
:10503C0098BF0A220DF12304B3FBF2F505FB1233E2
:10504C0003F0FF03092B94BF30333733DBB2214617
:10505C0004F801392B46002DEED1FFF7B9FF0BB048
:10506C0030BD0CB42DE9F04387B000AF07F1380424
:10507C00054654F8049B3C600E4623464A461421D0
:10508C00381DFFF7A9FD132805D8391D2846FFF751
:10509C009FFF044613E000F1080323F00703E846E2
:1050AC00ADEB030D411C23464A4668463C60FFF7B6
:1050BC0093FD69462846FFF78BFF0446C5461EB193
:1050CC002846FFF798FF044420461C37BD46BDE830
:1050DC00F04302B070470000014B024A1A6070475F
:1050EC00B4E30320DF700D0008B50020FFF73CFD92
:1050FC0028B1FFF721FD80F00100C0B208BD0120EE
:10510C0008BD0000FAEE087AB4EEE70AF1EE10FAE8
:10511C000FD4F2EE0C7AB4EEE70AF1EE10FA08DCDA
:10512C00DFED047A044B20EE270ABDEEC00A83EDB6
:10513C00000A704700006145C0E3032037B50E4BF1
:10514C001B6819440D4B1B68044602A8194440F80F
:10515C00041D01F0AFF901F063F9054601F00BFBFA
:10516C002844002300F8013C29462046FFF762FE44
:10517C00204603B030BD00BFC0E30320BCE30320D6
:10518C0010B50020FFF74CFB044668B9FFF730FC64
:10519C0001280BD12046FFF753FC38B9FFF7A4FFC9
:1051AC0030B9FFF7C1FCF9E7012010BD002010BD9C
:1051BC00FFF79AFF0020FFF733FB003018BF0120E8
:1051CC0010BD08B5FFF7DCFFBDE80840FFF720BBBA
:1051DC00024B1A68024B1A60704700BF88E203202A
:1051EC00B8E303200021FFF713BC10B58368044615
:1051FC0013B1032201469847204610BD10B5044652
:10520C00FFF7F3FF204610BD13B50B46044603C849
:10521C008DE8030093E8030084E803009DE8030095
:10522C0083E8030002B010BD0348044A044900237C
:10523C00836000F089BF00BFC4E3032040E3032078
:10524C0009520D0008B50C4B33B100F01BFC036880
:10525C001B699847002809DC084B63B100F094FCEB
:10526C0003681B699847002803DC08BDAFF3008076
:10527C00F2E7AFF3008008BD000000000000000062
:10528C0008B5FFF7DFFFFFF7BBFA014B186008BD4D
:10529C0008E703200248034A0349121A01F002BA34
:1052AC0000F4032004F4032060750D0007B50023FF
:1052BC0000931A466FF07701FFF7D4FB03B05DF84B
:1052CC0004FB000007B543880A2B08D0502B09D1EA
:1052DC00094B1B683BB103B05DF804EB1847FFF7B3
:1052EC00E5FF06E0002300931A466FF07701FFF705
:1052FC00B9FB03B05DF804FBD4E3032038B5104CC4
:10530C00104D2368AB42104B0CBF012200221A70C7
:10531C0002D0FFF7BFFF2560FFF76AFA044601F0E1
:10532C00D5F90A4B13B12046AFF300800021074892
:10533C00FFF722FC00210648BDE83840FFF788BB88
:10534C0000F403201E1C279AD8E303200000000061
:10535C00D1520D0070470020704710B51021044643
:10536C0000F000FF204610BD08B508B1FFF7F5FFAF
:10537C0008BD0022026010B54FF69C728280B1F914
:10538C00044084808A8002680C6804600A6010BD46
:10539C0010B504460068FFF7FFFB204610BD38B57A
:1053AC00C468F4B12378022B03D104F10C00FFF78D
:1053BC00EFFF656835B12846FFF717FF1021284627
:1053CC0000F0D0FEA56835B12846FFF70EFF10217E
:1053DC00284600F0C7FE20461421BDE8384000F0F6
:1053EC00C1BE38BD13B5044691E8050000234B60DF
:1053FC000B602060626001A801930093FEF73AFFF6
:10540C00204602B010BDF7B50C4602AD54F8043B73
:10541C0045F8083D06460F4601A82146FFF7A6FDB4
:10542C0029463046FFF7DEFF01A8FEF723FF204692
:10543C00FEF720FF3846082100F094FE304603B0FA
:10544C00F0BD000038B500230446036010200D4663
:10545C00FEF71BFE28B1012343608360024B0360FF
:10546C00C5602060204638BD78710D00826810B58B
:10547C000AB900F08AFEC368BDE81040184708B5A9
:10548C00006800F11001FFF7F1FF08BD826810B54C
:10549C000AB900F07AFEC368BDE81040184708B599
:1054AC00006800F11001FFF7F1FF08BD38B50023CB
:1054BC0083608B6804460D462BB102229847EB683B
:1054CC00E360AB68A360204638BD0000F0B589B03E
:1054DC0004686846FFF74DFF00238DF808304FF045
:1054EC000202D4E84F3F002B03D1C4E8412F00291E
:1054FC00F7D102D08DF8083063E014F10C0503D01D
:10550C0069462846FFF735FFBFF35F8F01236370B1
:10551C00002004F10803BFF35F8F53E8006F43E8EA
:10552C000002002AF9D1BFF35F8F002E49D0FFF79C
:10553C0077FA20B129463046FFF798FF3AE031461A
:10554C0002A8FFF7B3FFE068B4F9105008B101F0FE
:10555C00F7F806901020ADF81C50FEF796FD0546A6
:10556C00E8B1002787601820FEF78FFD044688B14C
:10557C000146876002A8FFF747FE049BA268A36060
:10558C00059B049206A9E268E36004F11000059201
:10559C00FFF7EFFE0D4BEB600D4B2C60AB6006A8DC
:1055AC00FFF7F6FE02A8FFF720FE00222946094865
:1055BC00FFF73EFA3046FFF718FE1021304600F098
:1055CC00D1FD6846FFF7E4FE09B0F0BD8B540D0029
:1055DC0001570D00E15B0D002DE9F04F8BB0064635
:1055EC000F46904699469DF850A0FFF7A5FA07ADD7
:1055FC00834630BB4FF62E73059005A92846ADF8AF
:10560C001830FFF7B6FE1420FEF73FFD044658B1E4
:10561C000223037001234370C0F804B0C0F808B033
:10562C0029460C30FFF7A5FE3046214640F8044BC6
:10563C00FFF708FF2846FFF7ABFE05A8FFF7A8FE0B
:10564C0052E000240C2314206C60AC600793FEF72E
:10565C001CFD014618B1047044704460846004A8B9
:10566C000391FFF7EFFE224B08930820FEF70DFD88
:10567C00044628B1039B40F8043B04A9FFF776FCD1
:10568C0000955FFA8AF34A46414638460994FFF77B
:10569C005BFA20B9039B5B7803F0FF0283B1039B99
:1056AC00059304A906A8FFF761FC05A93046FFF78E
:1056BC0099FE06A8FEF7DEFD04A8FEF7DBFD13E05D
:1056CC004FF69C7305A903A80592ADF81830FFF7A7
:1056DC00FDFE05A8FFF75CFE05A80999FFF793FEF0
:1056EC0006A8FEF7C7FDDAE730460BB0BDE8F08F31
:1056FC0071580D00022AF8B5044606D0032A17D0BB
:10570C00012A22D10B6803601FE018200E68FEF7F7
:10571C00BCFC054650B13146FFF7C8FE3069B6F9FE
:10572C00147008B101F00CF82861AF8225600CE010
:10573C00046854B104F11000FFF72AFE2046FFF76D
:10574C0054FD1821204600F00DFD0020F8BD38B5A1
:10575C00002383608B6804460D462BB102229847C8
:10576C00EB68E360AB68A360204638BD022A70B5D5
:10577C00044606D0032A11D0012A18D10B68036005
:10578C0015E014200E68FEF780FC054620B131466A
:10579C00FFF7DDFF337C2B74256008E0046834B11F
:1057AC002046FFF722FD1421204600F0DBFC0020F0
:1057BC0070BD0000F0B5002387B00C46BFF35F8FBF
:1057CC0050E8006F40E80032002AF9D1BFF35F8F38
:1057DC00002E3FD01846FFF723F9074620B121468B
:1057EC003046FFF753FE2EE0314601A8FFF7AFFF1E
:1057FC0023788DF814301020FEF747FC0546D0B105
:10580C0087601420FEF741FC044678B1876001469E
:10581C0001A8FFF7F9FC039BA268A360049B039209
:10582C00E268E3609DF81430049223740A4BEB6039
:10583C000A4B2C60AB6001A8FFF7D7FC002229466D
:10584C000748FFF7F5F83046FFF7CFFC102130463C
:10585C0000F088FC07B0F0BDAB540D0079570D007B
:10586C00E15B0D0030B585B004460D466846114627
:10587C00FFF7C9FD7CB124B228460DB100F060FFE2
:10588C00029002A96846ADF80C40FFF71FFE02A873
:10589C00FFF77EFD1DE000988DF808404FF00102E7
:1058AC00D0E84F3FA34203D1C0E8412F0029F7D1E4
:1058BC0002D08DF808300CE010F10C014FF0010310
:1058CC0018BF0373BFF35F8F043000F8033CFFF77E
:1058DC0071FF01A8FEF7CEFC05B030BD704710B5C6
:1058EC001821044600F03EFC204610BDF0B5037DA7
:1058FC00062B8DB00E4600F104074FF0000402D0C9
:10590C0000F1080518E00CAD394605F8304D2F2391
:10591C002A460A20FEF7B4FF284600F02CFF336815
:10592C000246DB682946304698470FE024B12E2109
:10593C003046FFF75DFB044415F8011D0A22304682
:10594C00FFF76FFBBD420444F0D120460DB0F0BD13
:10595C0010B5054B0446112240F8043B002100F021
:10596C00ACFE204610BD00BF94710D000346074AE3
:10597C0010B543F8042B01F1100251F8044B43F815
:10598C00044B9142F9D10A781A7010BD94710D0034
:10599C0010B59DF8084044EA032343EA024242EA68
:1059AC00016104234160037510BD37B50D788B7808
:1059BC004A78C97800912946FFF7EAFF03B030BD59
:1059CC0041747047704708B50021007CFEF7F8FF62
:1059DC0030EA200028BF4FF0FF3008BD08B5012188
:1059EC00007CFEF7EDFF30EA200028BF4FF0FF30BF
:1059FC0008BD08B5007CFEF7DBFF20EAE07008BDAF
:105A0C0008B5007CFEF7CCFF20EAE07008BD007CF6
:105A1C00FEF7E6BF10B51421044600F0A3FB2046A8
:105A2C0010BD38B50446007C0D46FEF7C1FF0028BA
:105A3C0001DC607C28B12946207CFEF7C9FF20EAF6
:105A4C00E07038BD10B50446002363604FF47A73E0
:105A5C00A360054B2360012308462174637411462F
:105A6C00FEF78EFF204610BDA8710D000022007CB1
:105A7C00FEF78EBF10B514220446002100F01DFE67
:105A8C00204610BD30B50E4D87B001A8FFF7F2FFD0
:105A9C00296811F0010410D12846FEF7FCFA60B118
:105AAC0001AA21460748FFF7CDFF2846FEF7F8FA72
:105ABC00054A0649034800F047FB024807B030BDD1
:105ACC00DCE30320E0E3032040E30320D1590D0085
:105ADC0070474174704708B5007CFEF711FF20EA4F
:105AEC00E07008BD08B5007CFEF7E2FE20EAE0702D
:105AFC0008BD08B5007CFEF7EBFE30EA200028BF9D
:105B0C004FF0FF3008BD08B5007CFEF7D9FE30EA37
:105B1C00200028BF4FF0FF3008BD007CFEF7E0BE30
:105B2C0010B51421044600F01DFB204610BD70B5C5
:105B3C00457C04460E4625B9007CFEF7E1FE0028A4
:105B4C0005DD3146207CBDE87040FEF7A9BE284635
:105B5C0070BD000010B50446084611460022626074
:105B6C004FF47A72A260054A22600122207462749A
:105B7C001A46FEF78DFE204610BD00BFD8710D00F1
:105B8C00007CFEF7B5BE000038B50C4D296811F04D
:105B9C00010411D12846FEF77EFA68B1084A094B78
:105BAC0009482146FFF7D6FF2846FEF779FA074A3F
:105BBC000749054800F0C8FA034838BD8CE40320B7
:105BCC0090E4032008E40320F4E3032040E30320E3
:105BDC00DD5A0D0010B5836804460BB900F0D5FAF8
:105BEC00C3689847A3681BB10322214620469847F7
:105BFC0020461021BDE8104000F0B4BA7047F8B54B
:105C0C00064615460C468F18BC4206D0336814F86D
:105C1C00011B9B6830469847F6E72846F8BD0022E2
:105C2C00007CFEF775BE0021007CFEF779BE0021DA
:105C3C00007CFEF77DBE0021007CFEF781BE0021BA
:105C4C00007CFEF785BE10B51421044600F08AFADC
:105C5C00204610BD10B50446002363604FF47A73E0
:105C6C00A360044B2174084623601146FEF780FEA6
:105C7C00204610BD08720D000021007CFEF770BE9E
:105C8C00002211464068FEF72FBF002211464068E3
:105C9C00FEF73ABF00224068FEF72EBF002281F0CB
:105CAC0001014068FEF718BF00231A460121406825
:105CBC00FEF70ABF00231A4619464068FEF7FCBEE1
:105CCC00002211464068FEF7EFBE002211464068E4
:105CDC00FEF7DABE002202214068FEF7DDBE00238B
:105CEC001A464068FEF7C8BE38B5054688B1046848
:105CFC004CB1A3681BB103222146204698471021C2
:105D0C00204600F02FFA28461421BDE8384000F058
:105D1C0029BA38BD10B103685B681847704710B5D5
:105D2C0003680446BBB15868FEF782FD78B9236856
:105D3C005A7C12B95868FEF783FD23685868FEF741
:105D4C0087FD20680023236028B1FFF7CDFF206872
:105D5C0008B1FFF7C9FF204610BD38B50446D0F88E
:105D6C00C40108B1FEF795F9D4F8C00108B1FEF7EB
:105D7C007FFDD4F8BC5135B12846FFF7D0FF042184
:105D8C00284600F0EFF9206808B1FFF7C3FF204662
:105D9C0038BD000010B5044B044640F8083BFFF733
:105DAC00DCFF204610BD00BF30720D0038B50E4C24
:105DBC000E4B23600025022304F5E4706360A5609C
:105DCC00C4F8C451C4F8C851FEF74AFD084BC4F8D6
:105DDC00CC5184F8D05123602046064A0649BDE8D0
:105DEC00384000F0B1B900BF14E5032098720D00E3
:105DFC0030720D0040E30320A15D0D00002211461E
:105E0C004068FEF751BE002211464068FEF76CBE9A
:105E1C00002211464068FEF777BE00224068FEF76C
:105E2C006BBE002281F001014068FEF755BE0023D5
:105E3C001A4619464068FEF747BE00231A46194613
:105E4C004068FEF739BE002211464068FEF71CBEC2
:105E5C00002202214068FEF71FBE00231A4640684C
:105E6C00FEF70ABE024B04225A60024A1A607047BF
:105E7C00E8E6032064720D0000231A464068FEF722
:105E8C00FBBD002202214068FEF706BE002211462F
:105E9C004068FEF7F9BD002211464068FEF704BECB
:105EAC0000231A4619464068FEF706BE00231A4620
:105EBC0019464068FEF708BE002281F001014068D7
:105ECC00FEF70ABE00224068FEF716BE00221146FD
:105EDC004068FEF719BE002211464068FEF704BE6A
:105EEC002DE9F043002495B016460D460746FFF702
:105EFC002FFD214620220CA8009400F0DEFB40234D
:105F0C000C9321466B460CAA3046FEF729FC04463E
:105F1C00002844D1024601216868FEF7C5FD022124
:105F2C00804622466868FEF7BFFD009E81462146EA
:105F3C00002E34D0002932D17368022B02D00A2BE8
:105F4C0009D02AE0B8F1000F27D071693846043126
:105F5C00FFF72BFD20E0B9F1000F1ED07469112260
:105F6C0001A800F0AAFB06238DF8143001AD04F152
:105F7C0008031834186859682A4603C20833A34228
:105F8C001546F7D101A906A807ADFFF7EFFC0FCD19
:105F9C003C1D0FC42B6823700121F669C8E70098DB
:105FAC00FEF7D6FB384615B0BDE8F083024B034A2A
:105FBC001A6000225A607047F0E6032098720D00B8
:105FCC0010B5044600F060F8FEF772FE28B1A4F19B
:105FDC000B03022B01D8002010BD00F08FF8FFF747
:105FEC004BFE08B1012CF6D9FFF7CEFDFFF7C8FD2B
:105FFC0018B1A4F10903012BEDD9232C8CBF00207F
:10600C00012010BD232838B504460D460AD8FF29B7
:10601C0008D0FFF7D5FF28B129462046BDE8384007
:10602C00FEF7B6BB38BD38B504460D46FEF7B8FBD7
:10603C00FF2810D0062804D84D2323FA00F0C307FC
:10604C0009D42046FFF7BCFF28B129462046BDE8FD
:10605C003840FEF7ADBB38BD0D2810B504469CBFCB
:10606C000E34A4B22046FFF7ABFF50B103212046FB
:10607C00FEF786FB032804D12046BDE81040FEF74E
:10608C009FBB002010BD000038B50B4D296811F0E6
:10609C0001040FD12846FDF7FEFF58B121460748F1
:1060AC00FEF7F8FD2846FDF7FBFF054A05490348B6
:1060BC0000F04AF8014838BD04E70320F8E6032055
:1060CC0040E30320914C0D0070B5044614252A467C
:1060DC00094E002100F0F1FA258020253146A560FB
:1060EC002561284600F040F831466060284600F0F3
:1060FC003BF8E060204670BDC4720D0030B50E4D0B
:10610C00296811F0010487B013D12846FDF7C3FFAD
:10611C0078B101A8FFF7D8FF01AA21460748FFF77D
:10612C0099FD2846FDF7BCFF054A0649034800F0D7
:10613C000BF8024807B030BD0CE7032010E7032032
:10614C0040E30320095C0D000B460146184600F0A5
:10615C00A3B90000024B1868BFF35F8F704700BFF4
:10616C0024E70320FDF793BF00F000B810B500281A
:10617C0014BF044601242046FEF706FD20B9FFF7A4
:10618C00E9FF08B18047F6E710BD08B5FEF72CFD16
:10619C00184B1A68D1075CBF01221A60164B1A689B
:1061AC00D2075CBF01221A60144B1A68D0075CBF7F
:1061BC0001221A60124B1A68D1075CBF01221A60C7
:1061CC00104B1A68D2075CBF01221A600E4B1A687A
:1061DC00D0075CBF01221A600C4B1A68D1075CBF58
:1061EC0001221A600A4B1A68D2075CBF01221A609E
:1061FC00704700BF44E7032040E703203CE703203F
:10620C0038E7032034E7032030E703202CE7032092
:10621C0028E70320244B1A68D0075CBF01221A60C0
:10622C00224B1A68D1075CBF01221A60204B1A68F6
:10623C00D2075CBF01221A601E4B1A68D0075CBFE4
:10624C0001221A601C4B1A68D1075CBF01221A602C
:10625C001A4B1A68D2075CBF01221A60184B1A68D5
:10626C00D0075CBF01221A60164B1A68D1075CBFBD
:10627C0001221A60144B1A68D2075CBF01221A6003
:10628C00124B1A68D0075CBF01221A60104B1A68B7
:10629C00D1075CBF01221A600E4B1A68D2075CBF93
:1062AC0001221A60704700BF74E7032070E70320D7
:1062BC006CE7032068E7032064E7032060E7032012
:1062CC005CE7032058E7032054E7032050E7032042
:1062DC004CE7032048E70320244B1A68D0075CBF27
:1062EC0001221A60224B1A68D1075CBF01221A6086
:1062FC00204B1A68D2075CBF01221A601E4B1A6829
:10630C00D0075CBF01221A601C4B1A68D1075CBF16
:10631C0001221A601A4B1A68D2075CBF01221A605C
:10632C00184B1A68D0075CBF01221A60164B1A680A
:10633C00D1075CBF01221A60144B1A68D2075CBFEC
:10634C0001221A60124B1A68D0075CBF01221A6036
:10635C00104B1A68D1075CBF01221A600E4B1A68E9
:10636C00D2075CBF01221A60704700BFA4E703206C
:10637C00A0E703209CE7032098E7032094E7032081
:10638C0090E703208CE7032088E7032084E70320B1
:10639C0080E703207CE7032078E70320184B1A687A
:1063AC00D1075CBF01221A60164B1A68D2075CBF7A
:1063BC0001221A60144B1A68D0075CBF01221A60C4
:1063CC00124B1A68D1075CBF01221A60104B1A6875
:1063DC00D2075CBF01221A600E4B1A68D0075CBF53
:1063EC0001221A600C4B1A68D1075CBF01221A609B
:1063FC000A4B1A68D2075CBF01221A60704700BFB3
:10640C00C4E70320C0E70320BCE70320B8E7032060
:10641C00B4E70320B0E70320ACE70320A8E7032090
:10642C00094B70B51C68256C06463DB91A20FEF761
:10643C00ABFB1A222064294600F03FF9216C304650
:10644C00BDE8704000F002B8F0E2032010B50C4635
:10645C0041690369826986B001F26C71049101682B
:10646C0003914168029181680191C16800910749CB
:10647C0003EB43030B44064902EB42020A44204659
:10648C000449FEF799FB204606B010BDDA720D00E8
:10649C00C5720D00FE720D0010B5054C13462CB1E3
:1064AC000A4601460220AFF3008010BD204610BD05
:1064BC000000000038B5074B1C68E36B05461BB9A0
:1064CC002420FEF761FBE063E16B2846BDE8384011
:1064DC0000F002B8F0E203202DE9F0410C468046B2
:1064EC0000F076FC21460746404600F075FC4669F4
:1064FC0006F26C76B307044605D1642296FBF2F3E0
:10650C0002FB13634BB94FF4C87596FBF5F305FB0F
:10651C001365B5FA85F35B0900E001235F4A30256A
:10652C0005FB032500F088FA00F088FA5C4B1B6829
:10653C00F3B17B689E4205D13968D8F80030FA690E
:10654C0041B90AE0304600F0CFF90028F4D14FF001
:10655C00FF330DE0934208DB01E0934207DABA6B9C
:10656C009342ACBF0023012302E0002300E001238F
:10657C002362236A012B0CBFF96B396A4FF46163F8
:10658C003C2091FBF3F603FB1613616893FBF0F2CE
:10659C0000FB12302368891AA26861601B1A921BD7
:1065AC003B2B2360A26003DD013161603C3B04E0C6
:1065BC00002B03DA013961603C33236063683B2BA9
:1065CC0003DD0132A2603C3B04E0002B03DA013A0C
:1065DC00A2603C336360A368172B22DDE2690132B1
:1065EC00E261A2690132062AC8BF0022A261E268F8
:1065FC00183B0132A3602369E26055F823108A42EC
:10660C0046DD01330C2B0CBF63692361A2EB010245
:10661C00E26001BF013300222261636108BFE261C5
:10662C0036E0002B34DAE269013AE261A269013A00
:10663C0048BF0622A261E2681833013AE260A36007
:10664C0032BB2369013B01D423611DE00B23236181
:10665C0063695A1E12F0030F626103F26B7305D16A
:10666C00642193FBF1F201FB12324AB94FF4C87169
:10667C0093FBF1F201FB1233B3FA83F35B0900E0F5
:10668C00012303F5B673E361236955F82330E36006
:10669C0000F0D3F92046BDE8F08100BF84740D00F2
:1066AC00E4E7032010B5431E0A44914204D011F8CC
:1066BC00014B03F8014FF8E710BD02440346934227
:1066CC0002D003F8011BFAE77047000038B5124BF3
:1066DC001C68A36B0546D3B91820FEF755FA43F294
:1066EC000E33A06303804AF6CD33438041F234234A
:1066FC0083804EF26D63C3804DF6EC6303810523FA
:10670C0043810B23838101220023C0E90423A36B63
:10671C0000221D615A6138BDF0E2032010F8012BF4
:10672C0011F8013B012A28BF9A42F7D0D01A7047C2
:10673C00034611F8012B03F8012B002AF9D17047FD
:10674C00024B0146186800F003B800BFF0E20320CA
:10675C0070B5064608460C4600F00DF8451C294657
:10676C003046FEF749FA064618B12A462146FFF78D
:10677C0099FF304670BD034613F8012B002AFBD15C
:10678C00181A0138704730B582B1451E013915F819
:10679C00013F11F8014FA34206D1EC431444E042EF
:1067AC0001D0002BF3D11C46181B30BD104630BD58
:1067BC0010B5034642B111F8014B03F8014B013AF5
:1067CC00002CF7D11A4400E010BD934202D003F81C
:1067DC00014BFAE710BD00002DE9F04780463C481C
:1067EC00D0F800900E46354615F8014B09EB040025
:1067FC00407800F0080000F0FF0708B12E46F2E7E1
:10680C002D2C03D1B51C7478012703E02B2C04BF6D
:10681C007478B51C13B1102B0AD153E0302C4FD126
:10682C00287800F0DF00582845D16C781023023509
:10683C004FF0FF3C0026BCFBF3FC03FB0CFA6FEAA9
:10684C000A0A304609EB040E9EF801E01EF0040F14
:10685C0001D0303C0BE01EF0030E1AD0BEF1010F3C
:10686C000CBF4FF0370E4FF0570ECEEB0404A34283
:10687C000FDD002E08DB604506D801D1544503DC42
:10688C0003FB0040012601E04FF0FF3615F8014BE9
:10689C00D8E7002E07DA2223C8F800304FF0FF307B
:1068AC002AB9BDE8F08707B1404272B106B1691E42
:1068BC001160BDE8F0873024002BB9D10823B7E76D
:1068CC000A23B5E7302CABD0B2E7BDE8F08700BFA8
:1068DC008CE2032013460A46014602480068FFF783
:1068EC007BBF00BFF0E203202DE9F74F044600F018
:1068FC006FFA40F2B1739C4240F396806FF4F663EA
:10690C00E318A4F2B2729B1040F26D1505FB023530
:10691C00A4F26D726FF0630392FBF3F36FF4C86231
:10692C002B44A5184FF4C87295FBF2F51D44642353
:10693C0094FBF2F794FBF3F602FB174703FB1646A6
:10694C0000F13803B7FA87FE019304F003034460A7
:10695C004FEA5E1E014600934FF0070C0B7A4A2B50
:10696C000ED14B69009AEC1802B906B927B93B2B2A
:10697C00D4BF0023012300E000232344013B3FE06C
:10698C00442B02D14B692B443AE0009B2BB9002ECF
:10699C000CBFF0464FF0010800E0F046244BCC68E9
:1069AC00302202FB0838A8F1040AA9460123A342AD
:1069BC0004DA5AF804BF0133D944F8E709F10403A7
:1069CC0093FBFCFBCBEBCB0A012CCAEB030A4B6908
:1069DC00B8BF012404F18044B3EB0A0A0B6904F13B
:1069EC00FF3403F1FF3348BF0AF1070AC3EBC303BB
:1069FC0058F824405344A34201DB073BFBE74B44CC
:106A0C008C690C4A02FB03430C6A234441F81C3F7B
:106A1C00019B9942A2D1C369826B9342ACBF002304
:106A2C0001230360012000E0002003B0BDE8F08FDB
:106A3C0084740D008051010070477047014B186839
:106A4C0000F002B8F0E203202DE9F04F8DB00746BC
:106A5C0000F0BEF9B049B14E0446384600F0B0F92A
:106A6C00054660B9AE4BAF4A1860AF4B1860AF4BE0
:106A7C0030681A605A60FEF78FF8356048E131686B
:106A8C0079B93068FEF788F82846FFF774FE411C88
:106A9C003846FEF7B1F8306048B12946FFF748FE9A
:106AAC0005E0FFF73BFE002800F03281E9E72B7888
:106ABC009F4AA0493A2B08BF01350AAE33462846F7
:106ACC00FEF782F8002840F323810A9BEF18EB5C59
:106ADC002D2B03D101374FF0FF3503E02B2B08BFD3
:106AEC00013701250DF1200A0DF11E0B4FF00008A6
:106AFC000396CDF808A00196CDF800B0334607AA4E
:106B0C008D49ADF81E803846ADF82080FEF75CF854
:106B1C00404540F3FD80BDF81E20BDF82030DFF865
:106B2C0024923C2101FB0233BDF81C204FF461611F
:106B3C0001FB02335D4325627C4D7D4B2B600A9B30
:106B4C007C491F444A4633463846FEF73DF84045DB
:106B5C0008DC2B686B60724B226A1A60724BC3F8AC
:106B6C000080D5E00A9BC5F80490FD18FB5C2D2B2A
:106B7C0003D101354FF0FF3703E02B2B08BF013554
:106B8C0001270023ADF81C30ADF81E30ADF82030D5
:106B9C000A930396CDF808A00196CDF800B03346C1
:106BAC0007AA65492846FEF70FF8002804DC236A7B
:106BBC00A3F56163E3630EE0BDF81E20BDF8203041
:106BCC003C2101FB0233BDF81C204FF4616101FB39
:106BDC0002335F43E7630A9B27461D444FF00009CD
:106BEC002B782C2B08BF013595F80080B8F14D0F90
:106BFC0026D10DF12603029309AB0093039601965F
:106C0C0033460DF122024D492846FDF7DDFF0328DE
:106C1C007ED1BDF822104B1E0B2B79D8BDF8242049
:106C2C00531E042B74D8BDF82630062B70D887F869
:106C3C000880F9603A617B610A9B05EB03082AE046
:106C4C00B8F14A0F06BF0135434644230A220BA96B
:106C5C0028460593FFF73EFEDDF82C80ADF82600A4
:106C6C004545059B14D14D23B9F1000F07D1237273
:106C7C000323E36002232361C4F814900BE084F82F
:106C8C0024300B23A3620123E3620023236302E07D
:106C9C0080B23B7278610223ADF81C300023ADF852
:106CAC001E30ADF820300A9398F800302F2B0BD102
:106CBC000396CDF808A00196CDF800B0334607AA8C
:106CCC001F494046FDF780FFBDF81E20BDF820305F
:106CDC003C2101FB0233BDF81C204FF4616101FB28
:106CEC000233BB610A9D09F10109B9F1020F454458
:106CFC0007F11C077FF474AF6068FFF7F5FD084BD4
:106D0C00226A1A60E36B9B1A074A18BF01231360AF
:106D1C000DB0BDE8F08F00BFE4740D00E0E7032078
:106D2C00E8E70320E7740D00E4E70320F4E2032016
:106D3C00D3E70320EB740D000E750D00FA740D00F3
:106D4C000D750D00C8E703202DE9F84F07468B465B
:106D5C00904600F0D9F8194B1D689A463DB15C4637
:106D6C00234613F8012B42B13D2A1C46F8D1384674
:106D7C0000F0CBF80020BDE8F88FCBEB0404A9465B
:106D8C0059F8040B0028F2D022465946FFF7FBFCB9
:106D9C0088B959F8043C1E191B5D3D2B0BD1DAF850
:106DAC000030ED1AAD103846C8F8005000F0ADF8C0
:106DBC00701CBDE8F88F4D46E1E700BF3CE30320B3
:106DCC0007B501AAFFF7C0FF03B05DF804FB000094
:106DDC0000487047FCE203200268474BF0B592FB79
:106DEC00F3F403FB1422002ABCBF02F5A83202F50F
:106DFC00C0724FF4616004F52F2492FBF0F300FB9A
:106E0C0013224FF03C00ACBF04F66C2404F66B2448
:106E1C008B6092FBF0F300FB13224B600A6007239C
:106E2C00E21C92FBF3F3C3EBC303D31A8B61334B1A
:106E3C00334D94FBF5F503FB054448F6AC62B4FB0B
:106E4C00F2F2224440F2B457B4FBF7F3D21A2D48B5
:106E5C00B4FBF0F048F69466131AB3FBF6F6344420
:106E6C0040F26D12B3FBF2F0B3FBF7F3E31A02FB43
:106E7C001033992403EB83020232B2FBF4F20A2A98
:106E8C0004FB02F404F102064FF00504B6FBF4F423
:106E9C0034BF02266FF0090616444FF4C87202FB89
:106EAC0005055F1C012E98BF0135B3F5997FA7EB43
:106EBC00040702D3A3F5997214E0820705D1642468
:106ECC00B0FBF4F204FB12024AB94FF4C872B0FBE7
:106EDC00F2F402FB1400B0FA80F2520900E0012235
:106EEC003B331A44A5F26C750023CA614D610E61E7
:106EFC00CF600B620846F0BD805101004FC5FDFF0D
:106F0C00B13A0200B03A0200704770471D400D00C4
:106F1C0059400D0085400D0089400D000000000017
:106F2C000000000000000000B5400D00C9400D003D
:106F3C004D6F6973747572650054656D706572611F
:106F4C007475726500506C616E7420576174657253
:106F5C00656400546865202569203E2025692C2035
:106F6C007475726E696E67206F6E2070756D70002F
:106F7C00546865202569203C202569206E6F207798
:106F8C0061746572206E65656465640041742025CA
:106F9C007320746865206D6F6973747572652072E7
:106FAC00656164696E67206973202569200A005445
:106FBC0068652074696D65206973202573200A004B
:106FCC00256400656E762D76616C73000000000000
:106FDC0000000000B9440D00D5440D000000000075
:106FEC0000000000E9440D00FD440D00256C750007
:106FFC0025303478005C7525303458007472756512
:10700C000066616C736500252E2A660025660025D6
:10701C002E2A6C6600256C66000000000000000043
:10702C0000000000734C0D00694C0D005F4C0D000E
:10703C00554C0D00494C0D003D4C0D00314C0D00D4
:10704C00294C0D001F4C0D00154C0D00ED5E0D0074
:10705C000000000000000000914C0D00934C0D004E
:10706C00626175640053657269616C005365726985
:10707C00616C31007479706500706172616D0063D0
:10708C006D6400696400686E64007374726D0066F0
:10709C00696C74006C766C0061646448616E646C3D
:1070AC0065720072656D6F766548616E646C6572B1
:1070BC0000656E756D48616E646C657273004A5341
:1070CC004F4E53747265616D4C6F6748616E646CA2
:1070DC0065720061707000253031307520005D20C4
:1070EC00002C200028293A2000205B00636F646587
:1070FC00203D200025690064657461696C73203D36
:10710C0020000D0A006C6E00666E00636F646500F3
:10711C0064657461696C006E6F6E65007472616396
:10712C006500696E666F007761726E006572726FD2
:10713C00720070616E696300616C6C00252B3033DA
:10714C00643A253032750025592D256D2D25645452
:10715C0025483A254D3A2553257A006173637469A5
:10716C006D650000000000000000000061530D0080
:10717C0067530D00AB530D0075530D0063530D0099
:10718C000000000000000000F9580D00E9580D0047
:10719C00EB580D000000000000000000D1590D005C
:1071AC00215A0D002F5A0D00B14F0D000D5A0D0034
:1071BC00D3590D00E9590D001B5A0D00FF590D0054
:1071CC00CD590D000000000000000000DD5A0D003C
:1071DC002D5B0D003B5B0D00B14F0D00F15A0D0006
:1071EC00135B0D00FF5A0D00275B0D00DF5A0D00DD
:1071FC00E35A0D000000000000000000095C0D00C7
:10720C00535C0D002B5C0D000B5C0D00335C0D0012
:10721C003B5C0D00435C0D004B5C0D00000000005E
:10722C0000000000EB5C0D00E15C0D00D75C0D0074
:10723C00CD5C0D00C15C0D00B55C0D00A95C0D00B2
:10724C00A15C0D00975C0D008D5C0D00ED5E0D00DA
:10725C000000000000000000675E0D005D5E0D0088
:10726C00535E0D00095E0D00475E0D003B5E0D0088
:10727C002F5E0D00275E0D001D5E0D00135E0D00D0
:10728C00ED5E0D000000000000000000855E0D00AA
:10729C008F5E0D00995E0D00A35E0D00AD5E0D00BE
:1072AC00B95E0D00C55E0D00D15E0D00D95E0D00FE
:1072BC00E35E0D00ED5E0D000053756E4D6F6E5468
:1072CC0075655765645468754672695361744A6193
:1072DC006E4665624D61724170724D61794A756E90
:1072EC004A756C4175675365704F63744E6F764485
:1072FC006563252E337320252E33732533642025A7
:10730C002E32643A252E32643A252E3264202564BE
:10731C000A00002020202020202020202828282897
:10732C002820202020202020202020202020202049
:10733C002020208810101010101010101010101099
:10734C0010101004040404040404040404101010A9
:10735C001010101041414141414101010101010155
:10736C0001010101010101010101010101011010E3
:10737C001010101042424242424202020202020229
:10738C0002020202020202020202020202021010B5
:10739C0010102000000000000000000000000000A1
:1073AC0000000000000000000000000000000000D1
:1073BC0000000000000000000000000000000000C1
:1073CC0000000000000000000000000000000000B1
:1073DC0000000000000000000000000000000000A1
:1073EC000000000000000000000000000000000091
:1073FC000000000000000000000000000000000081
:10740C000000000000000000000000000000000070
:10741C000000000000000000000000000000000060
:10742C000000000000000000000000000000000050
:10743C000000000000000000000000000000000040
:10744C000000000000000000000000000000000030
:10745C000000000000000000000000000000000020
:10746C000000000000000000000000000000000010
:10747C0000000000430000001F0000001C00000082
:10748C001F0000001E0000001F0000001E00000076
:10749C001F0000001F0000001E0000001F00000065
:1074AC001E0000001F0000001F0000001D00000057
:1074BC001F0000001E0000001F0000001E00000046
:1074CC001F0000001F0000001E0000001F00000035
:1074DC001E0000001F000000545A00474D540025A8
:1074EC0031305B5E302D392C2B2D5D256E004D25FA
:1074FC006875256E2E256875256E2E256875256E8A
:10750C00002F256875256E3A256875256E3A256815
:10751C0075256E0061440D0059470D007D4C0D0022
:10752C00E14C0D00894F0D00E5500D00DD510D00B3
:10753C0035520D00B95D0D00715E0D00B95F0D0087
:10754C009D610D0021620D00E5620D00A9630D0027
:04755C00000000002B
:047560000000000027
:107564008C0A00001100000010000000040000005C
:10757400DC05000060EA000067710D001E730D0059
:107584000000000020740D0040740D0060740D00B4
:1075940000000000000000000000000000000000E7
:1075A40080740D00000000000000000000000000D6
:1075B40000000000000000000000000000000000C7
:1075C40000000000000000000000000000000000B7
:1075D40000000000000000000000000000000000A7
:1075E40090E20320E7740D00E7740D000100000031
:1075F400000000004A00000000000000000000003D
:107604000000000000000000000000000000000076
:107614004A0000000000000000000000000000001C
:10762400000000000000000000000000ECE7032060
:10763400FFFFFFFF00000102030405060708090A13
:107644000B0C0D0E0F101112131415161718191A0E
:087654001B1C1D1E1F20280055
:04765C007856341216
:04000003D000401CCD
:00000001FF
