:02000002D0002C
:1040000000400D00808B0D00000006000C00050133
:084010000401DE0500000000C0
:0440180098850D007A
:1040200009480A49884208B505D0094A824202D0A7
:10403000121A04F06DFA0748074A0021121A04F018
:1040400072FA014808BD00BF14E30320EC8A0D009A
:1040500080E3032080E30320F0E7032070B501F044
:1040600043FB074C074BE41AA40800251E46A54253
:1040700004D056F8253098470135F8E770BD00BFE9
:10408000DC8A0D00A08A0D0000F014B808B500F01D
:10409000EBF8BDE8084001F0E9BA00F0C1BF00F05C
:1040A000BFBF0078B0FA80F0400970470123037069
:1040B0007047000010B501F01DFC4FF4165101F0DF
:1040C00007FC01F017FC01F00AFC0028F9D001F010
:1040D00011FC214901F04FF9204800F0E5FB60BBDD
:1040E00001F008FC1E4901F03CF901F003FC1D49F8
:1040F00001F024F901F0FEFB0446184800F078FDB9
:1041000010220146204601F038F9204601F01DF941
:1041100001F0F0FB144901F011F901F0EBFB134938
:1041200001F00CF901F0E6FB114901F007F901F08B
:10413000E1FB104901F002F9FEE701F0DBFB0E495B
:1041400001F00FF90D4B4FF47A721A6001F0D2FBB7
:10415000BDE8104001F0F9B8AC850D0088E30320FC
:10416000B8850D0000860D0011860D0058860D00E3
:1041700082860D00AC860D00D6860D0084E30320F8
:1041800038B501F0B7FB2D492D4C01F0D7F801F0FF
:10419000B1FB0546204600F09BFB0221284601F0BA
:1041A000CBF901F0A7FB274901F0DBF801F0A2FBF6
:1041B000254901F0C3F801F09DFB0546204600F0BB
:1041C000B5FBDFED227A022180EE270A284601F0B6
:1041D000B3F901F08FFB1E4901F0C3F801F08AFB2F
:1041E0001C4901F0ABF801F085FB9FED1B0A054669
:1041F000204600F0C5FC0221284601F09DF901F09F
:1042000079FB164901F0ADF801F074FB144901F097
:1042100095F801F06FFB0546204600F065FC022191
:10422000284601F089F901F065FB0E4901F099F883
:1042300001F060FBBDE8384001F087B8E9860D0069
:1042400088E30320F8860D00FC860D000000C842BC
:1042500008870D000D870D0000507D4421870D005B
:1042600024870D0030870D0008B5FFF789FF034B49
:104270001868BDE8084001F0BBB900BF84E3032023
:1042800008B500F0C9FC0248BDE8084000F02EB8AF
:1042900088E303207FB5024608461379956833B159
:1042A0003DB90C4904B0BDE8704001F047B80A4B75
:1042B00000E00A4B167B0A4C0A49527B0292012EFF
:1042C00008BF214601910095074A002101F043F9FA
:1042D00004B070BD51870D0089880D0040870D0026
:1042E00049870D004D870D0067870D00FF2202747E
:1042F00042748274C27470472DE9F04190F9133012
:10430000013305460F4606D101F020FE3946BDE8CF
:10431000F04100F091BF072600244FF0010895F905
:104320001300002180B201F0E4FD95F9110008FAB4
:1043300006F1394080B201F0DCFD95F9130001214E
:1043400080B201F0D6FD95F91200640080B2E4B2AB
:1043500001F0E8FD08B144F0010416F1FF36DED2A9
:104360002046BDE8F08100007FB590F910300133A0
:1043700004460E46154611D10179006801F0D7FBBD
:104380002068036831469B6898472068036829467F
:104390009B689847206801F0D2FB31E090F9133018
:1043A000013310D101F0D2FD164B174A009302924F
:1043B0000023012269468DF804308DF80C208DF819
:1043C0000D3000F0C9FE94F91000002180B201F018
:1043D00090FD06F07F012046FFF78EFF294620461C
:1043E000FFF78AFF94F91000012180B201F081FDEE
:1043F00094F91330013303D101F0A8FD00F093FECE
:1044000004B070BD3C870D0020A10700F8B590F8FE
:104410003C509DF818609DF81CE09DF8207061F3F9
:10442000871562F3020563F3C50590F8403080F804
:104430003C5066F3471380F8403090F838306EF304
:10444000C503044667F3020380F8383006F007021C
:10445000F221FFF789FF94F83820C2F3C20302F07B
:1044600007019B0043EA411343EAD2122046F5219B
:10447000FFF77AFF94F83C20C2F3C20302F0070171
:104480009B0043EA411343EA92122046F421BDE81F
:10449000F840FFF769BF000030B590F910300133E4
:1044A00085B004460D4616D10179006801F03FFB46
:1044B0002068036829469B689847206801F03FFB05
:1044C00001222179206801F02FFB206803685B69D5
:1044D0009847C5B232E090F91330013310D101F0A2
:1044E00035FD184B184A00930292002301226946B9
:1044F0008DF804308DF80C208DF80D3000F02CFE76
:1045000094F91000002180B201F0F3FC45F0800125
:104510002046FFF7F1FE00212046FFF7EDFE05469D
:1045200094F91000012180B201F0E3FC94F91330FA
:10453000013303D101F00AFD00F0F5FD284605B076
:1045400030BD00BF3C870D0020A1070030B590F9B9
:104550001030013385B004460D461DD10179006845
:1045600001F0E5FA2068036829469B6898472068AF
:1045700001F0E5FA02222179206801F0D5FA2068DD
:1045800003685B6998470546206803685B6998473C
:1045900040EA052085B239E090F91330013310D19B
:1045A00001F0D4FC1B4B1C4A009302920023012211
:1045B00069468DF804308DF80C208DF80D3000F030
:1045C000CBFD94F91000002180B201F092FC45F07F
:1045D00080012046FFF790FE00212046FFF78CFE69
:1045E000002105462046FFF787FE40EA052085B2F8
:1045F00094F91000012180B201F07BFC94F9133092
:10460000013303D101F0A2FC00F08DFD284605B076
:1046100030BD00BF3C870D0020A1070008B5FFF7A3
:1046200095FF40BA80B208BD30B590F91030013323
:1046300085B004460D4621D10179006801F077FA72
:104640002068036829469B689847206801F077FA3C
:1046500003222179206801F067FA206803685B690A
:1046600098470502206803685B699847284305025C
:10467000206803685B69984705433DE090F9133073
:10468000013310D101F062FC1D4B1E4A00930292CF
:104690000023012269468DF804308DF80C208DF836
:1046A0000D3000F059FD94F91000002180B201F0A6
:1046B00020FC45F080012046FFF71EFE0021204629
:1046C000FFF71AFE002105022046FFF715FE2843DA
:1046D000050200212046FFF70FFE054394F9100064
:1046E000012180B201F005FC94F91330013303D1AC
:1046F00001F02CFC00F017FD284605B030BD00BFCE
:104700003C870D0020A1070038B588210446FFF73B
:1047100085FF8A21A0822046FFF780FF8C21E0825E
:104720002046FFF77BFF8E2120832046FFF776FF90
:10473000902160832046FFF771FF9221A0832046DD
:10474000FFF76CFF9421E0832046FFF767FF962177
:1047500020842046FFF762FF982160842046FFF7FF
:104760005DFF9A21A0842046FFF758FF9C21E0843A
:104770002046FFF753FF9E2120852046FFF74EFF7E
:10478000A12160852046FFF787FEE12184F82C00F7
:104790002046FFF743FFE321E0852046FFF77CFE3C
:1047A000E42184F830002046FFF776FEE521054637
:1047B0002046FFF771FE00F00F0040EA051060860A
:1047C000E6212046FFF768FEE52105462046FFF773
:1047D00063FE001140EA0510A086E7212046FFF79E
:1047E0005BFE84F8360038BD08B5F321FFF754FEB0
:1047F00000F0010008BD30B5044690F91000421CDD
:1048000085B003D1206801F05BF922E0012180B27C
:1048100001F06FFB94F91000012180B201F058FB08
:1048200094F91300431C04D101F090FB00F06AFCE2
:104830000FE0012180B201F04BFB94F9110001213E
:1048400080B201F045FB94F91200002180B201F022
:104850003FFBD0212046FFF71FFE6028A06020D13B
:104860002046B622E021FFF77FFD4FF4967000F05E
:10487000BFFE2046FFF7B8FF054608B16420F6E703
:104880002046FFF741FF052300931A4603212046E7
:1048900002950195FFF7BAFD642000F0A9FE012002
:1048A00000E0002005B030BD772310B50371044649
:1048B00001F086FB20602046FFF79DFF30B976238C
:1048C00023712046BDE81040FFF795BF10BD0000E2
:1048D00010B5FA210446FFF7A7FEB0F5000F1ED071
:1048E000A28A9FED107AC2EB20235200C2EBE010A7
:1048F000B4F916205B435043B4F918201B135343FB
:104900009B1303EBE020E06000EB8000803000129E
:1049100007EE900AF8EEE77A87EE870A10BD9FED62
:10492000020A10BD0000C8420000C07F2DE9F84F08
:104930000646FFF7CDFFF7213046FFF775FEB0F5CD
:10494000000F074600F0C180F468B6F91C20E51797
:10495000B4F5FA3445F1FF35A4FB048904FB05F3F3
:1049600009EB430902FB05F1D31704FB0311A2FB7A
:1049700004230B44190341EA12511003B6F91E2017
:10498000D31702FB09FE08FB03EEA2FB08237344C6
:104990004FEA122A4AEA036A1AEB000A728B4FEABC
:1049A000232B4BEB010B1AF100004BF50041A0FB50
:1049B00002AB02FB01BB4FEA6B024FEAEB7352EA18
:1049C000030100F08680B6F924A04FEAEA7B0AFBD7
:1049D00009F108FB0B11AAFB0889B6F922A089444A
:1049E0004FEAEA7B0AFB05F104FB0B11AAFB044525
:1049F0000D444FEA454B4FEA444A38111AEB080A76
:104A0000C0F580104BEAD43B4BEB090B4FEAE07941
:104A10004FEAC97545EA5005C407B6F920004FF0C2
:104A2000000818EB0A084FEAC00949EB0B0940F6E9
:104A30003547B4EB080465EB0905A4FB070107FB48
:104A4000051103F093FBB6F92A204C13450B45EAF8
:104A5000C14502FB04F7D31705FB0377A2FB05232F
:104A60003B44544305FB0344A2FB05232344540E5B
:104A700044EAC314B6F9282024184FEA63654D416F
:104A8000D317514300FB0313A2FB00011944C20CCE
:104A900042EA41321219B6F926404FEAE1436B412E
:104AA000100AE517220140EA036019122B0143EABC
:104AB00014738018594103F01BFB9FED080A07EEA1
:104AC000900A27EE800ABDE8F88F9FED050ABDE841
:104AD000F88F9FED040ABDE8F88F00BF0000803B0F
:104AE0000000C07F0000000010B50446FFF7F0FE94
:104AF000FD212046FFF72AFDB0F5004F38D0B4F96C
:104B00003230E268B4F934101B05A2F59632C3EBDB
:104B1000803302FB113303F58043D91394F830300E
:104B200094F936005343DB124243921203F50043DB
:104B300053439B12B4F92E2003F50013534303F59E
:104B400000539B134B43DA1394F82C105243D211A9
:104B50004A43A3EB221323EAE373B3F1C85FA8BF70
:104B60004FF0C8531B1300EE103ABAEECB0A10BD3B
:104B70009FED010A10BD00BF0000C07F00000000D3
:104B800008B52DED028BB0EE408AFFF7CFFEDFEDCA
:104B9000167A80EE270AC0EE087A17EE900A02F025
:104BA0003BFE9FED0D1B41EC100B01F099FB00202B
:104BB00053EC102B0D4902F0CFFC09A3D3E90023DD
:104BC00002F07EFE03F074F9BDEC028B00EE100AD9
:104BD00008BD00BFAFF30080EBE2361AC05BC83FF0
:104BE0000000000040A5E5400000C8420000F03F82
:104BF0008068704700F010B808B5024B1B689B68CE
:104C0000019308BD6802030008B5024B1B68DB680E
:104C1000019308BD6802030008B5024B1B681B68BE
:104C2000019308BD2C02030008B5024B1B689B686A
:104C3000019308BD2C02030008B5024B1B68DB681A
:104C4000019308BD2C02030008B5024B1B681B69C9
:104C5000019308BD2C02030008B5024B1B685B6979
:104C6000019308BD2C02030008B5024B1B681B68AA
:104C7000019308BD3002030008B5024B1B685B6955
:104C8000019308BD3002030008B5024B1B68DB69C5
:104C9000019308BD3002030008B5024B1B681B6A74
:104CA000019308BD3002030008B5024B1B685B6A24
:104CB000019308BD3002030008B5024B1B68DB6B93
:104CC000019308BD3002030008B5024B1B681B6C42
:104CD000019308BD3002030008B5024B1B685B6CF2
:104CE000019308BD3002030008B5024B1B685B68E6
:104CF000019308BD1802030008B5024B1B685B69ED
:104D0000019308BD1802030008B5024B1B689B689D
:104D1000019308BD4802030008B5024B1B681B69DC
:104D2000019308BD4802030008B5024B1B685B698C
:104D3000019308BD4802030008B5024B1B685B6C79
:104D4000019308BD4802030008B5024B1B689B6C29
:104D5000019308BD4802030008B5024B1B685B695C
:104D6000019308BD6402030008B5024B1B681B6871
:104D7000019308BD3C02030008B5024B1B68DB68C9
:104D8000019308BD3C02030008B5024B1B681B6978
:104D9000019308BD3C02030008B5024B1B685B6928
:104DA000019308BD3C02030008B5024B1B689B69D8
:104DB000019308BD3C02030008B5024B1B68DB6988
:104DC000019308BD3C02030008B5024B1B681B6A37
:104DD000019308BD3C02030008B5024B1B689B6AA7
:104DE000019308BD3C02030008B5024B1B68DB6859
:104DF000019308BD2802030008B5024B1B689B699C
:104E0000019308BD2802030008B5024B1B68DB694B
:104E1000019308BD2802030008B5024B1B681B6AFA
:104E2000019308BD2802030008B5024B1B685B6AAA
:104E3000019308BD2802030008B5024B1B689B6A5A
:104E4000019308BD2802030008B5024B1B68DB6A0A
:104E5000019308BD2802030008B5024B1B681B6BB9
:104E6000019308BD2802030008B5024B1B685B6B69
:104E7000019308BD2802030008B5024B1B681B6C98
:104E8000019308BD2802030008B5024B1B681B6D87
:104E9000019308BD2802030008B5024B1B681B687C
:104EA000019308BD4C02030008B5024B1B685B6808
:104EB000019308BD4C02030008B5024B1B681B6937
:104EC000019308BD4C02030008B5024B1B685B69E7
:104ED000019308BD4C02030008B5024B1B689B6997
:104EE000019308BD4C02030008B5024B1B68DB6947
:104EF000019308BD4C02030008B5024B1B681B6AF6
:104F0000019308BD4C02030008B5024B1B685B6AA5
:104F1000019308BD4C02030008B5024B1B685B6897
:104F2000019308BD2002030008B5024B1B685B69B2
:104F3000019308BD2002030008B5034B1B68D3F89A
:104F40008830019308BD00002002030008B5034B20
:104F50001B68D3F89430019308BD000020020300C1
:104F600008B5024B1B685B68019308BD4002030053
:104F700008B5024B1B689B68019308BD4002030003
:104F800008B5024B1B68DB68019308BD40020300B3
:104F900008B5024B1B681B69019308BD4002030062
:104FA00008B5024B1B685B69019308BD4002030012
:104FB00008B5024B1B689B69019308BD40020300C2
:104FC00008B5024B1B68DB69019308BD4002030072
:104FD00008B5024B1B681B6A019308BD4002030021
:104FE00008B5024B1B681B6B019308BD4002030010
:104FF00008B5024B1B685B6B019308BD40020300C0
:1050000008B5024B1B68DB6B019308BD440203002B
:1050100008B5024B1B681B68019308BD1C02030006
:1050200008B5024B1B685B68019308BD1C020300B6
:1050300008B5024B1B685B6A019308BD1C020300A4
:1050400008B5024B1B68DB6B019308BD1C02030013
:10505000002211464068FFF7BBBF0022114640689E
:10506000FFF7C6BF00224068FFF7BABF002281F0F9
:1050700001014068FFF7A4BF00231A4619464068A3
:10508000FFF796BF00231A4619464068FFF788BF0E
:10509000002211464068FFF77BBF0022114640689E
:1050A000FFF766BF002202214068FFF769BF0023B7
:1050B0001A464068FFF754BF024B03225A60024A67
:1050C0001A607047CCE3032090870D00704710B53D
:1050D0000C21044600F0A8FF204610BD0021FFF778
:1050E000F3BD0021FFF7F8BD10B5054B0360044682
:1050F00001710846FFF7C8FD0023A360204610BDDC
:10510000C4870D0010B504460079FFF7E7FF48B9E2
:1051100020794FF6FF71FFF7A7FD2079BDE8104019
:10512000FFF7DFBF10BD0079FFF7DBBF400830B5E8
:105130001860002418688842E5B206D90134082CAA
:1051400002D040081860F5E70725024B5B5D13703D
:1051500030BD00BFCC870D002DE9F04307468FB06E
:1051600000790E46FFF7BAFF002862DB3C79142273
:10517000002109A803F0D7F90B232046002209A932
:10518000ADF82430FFF790FD9DF82D4054B19DF807
:105190002C5035B9DDF830809DF834909DF83540BD
:1051A00003E00024A146A0460125337905B1BBB92F
:1051B0009D420BD1B268424508D18DF820908DF800
:1051C0002140BDF82010B289914209D053B100248A
:1051D000387901940094234622460121FFF76CFDA3
:1051E000002026E08DF80F30B1680A9804AB0DF16D
:1051F0000F02FFF79BFF317905B1B1B9A94208D081
:10520000002438790194747B337B9DF80F2000943F
:10521000E4E7B3684345F3D38DF820908DF821403F
:10522000BDF82020B3899A42EAD1049B4345E7D1D7
:10523000D6E70FB0BDE8F08338B5044600790D46D7
:10524000FFF74CFF40B929462079FFF715FD0546C9
:105250002079FFF746FF00E00025E8B238BD00796D
:10526000FFF71ABD10B50446006818B1FFF7D8FE65
:105270000023236010BD10B50446FFF7F3FF20465E
:1052800010BD000010B5094C00204FF6FF732060E0
:10529000A080A07120816381FFF73EFE2046044A72
:1052A0000449BDE8104000F0B1BE00BFD4E30320C4
:1052B00080E3032077520D0010B50446006808B162
:1052C000FFF742FD204610BD10B5064C00232046D6
:1052D0002360FFF731FD2046034A0449BDE8104032
:1052E00000F094BEE0E3032080E30320B9520D00F8
:1052F000F8B506460D468F180024BD420CD0336821
:1053000015F8011B9B6830469847002801DB0444D0
:10531000F3E7002C08BF04462046F8BD70B50546EB
:105320000C46084649B103F02FF92B680246214686
:105330002846DB68BDE87040184770BD08B5FFF728
:10534000EDFF08BD03689B68184738B50D21054679
:10535000FFF7F8FF0A2104462846FFF7F3FF204431
:1053600038BD38B50546FFF7D9FF04462846FFF794
:10537000ECFF204438BDFFF7F4BF30B58BB00B46CF
:1053800000218DF82410012A98BF0A220DF1230470
:10539000B3FBF2F505FB123303F0FF03092B94BFB7
:1053A00030333733DBB2214604F801392B46002D68
:1053B000EED1FFF7B3FF0BB030BD00002DE9F04791
:1053C00057EC106B82460D4610EE102A3B4610EE4D
:1053D000100A394602F00EFD08B14E4912E027F0DE
:1053E00000494FF0FF324C4B3046494602F002FD77
:1053F00068B94FF0FF32484B3046494602F0DCFCBA
:1054000028B946495046FFF789FFBDE8F0874FF0BD
:105410006042434B3046394602F0E2FC08B1414954
:10542000F0E74FF06042404B3046394602F0BAFC9C
:105430000028F4D1002200233046394602F0B2FCA5
:1054400040B12D215046FFF77DFF07F10043044690
:105450001F4600E0044635494FF0000800205FFA7F
:1054600088F39D4206D90022314B02F053FB08F12C
:105470000108F4E732463B4602F070F80F46064654
:1054800002F0F6FC0A22014680465046FFF775FFFF
:105490000444E5B3404602F09DF902460B4630460F
:1054A000394602F059F806460F4650462149FFF7A3
:1054B00035FF044400221E4B3046394602F000FA04
:1054C00006460F4602F0ACFCB0F1000907DA2D21C8
:1054D0005046FFF737FFC9F10001804602E0494618
:1054E0004FF000080A225046FFF747FF40440444AB
:1054F000484602F07FF902460B463046394602F034
:105500002BF8013D15F0FF0506460F46D2D1204687
:10551000BDE8F087D4870D00FFFFEF7FDE870D0029
:10552000FFFFEF41D8870D00FFFFEFC10000E03F14
:1055300000002440DC870D0038B5044610EE100A48
:10554000CDB202F069F941EC100B29462046BDE8C6
:105550003840FFF733BF0CB42DE9F04387B000AFFC
:1055600007F13804054654F8049B3C600E46234678
:105570004A461421381DFFF75BFD132805D8391D55
:105580002846FFF7CBFE044613E000F1080323F0A2
:105590000703E846ADEB030D411C23464A46684627
:1055A0003C60FFF745FD69462846FFF7B7FE044615
:1055B000C5461EB12846FFF7C8FE044420461C37E6
:1055C000BD46BDE8F04302B070470000014B024AFF
:1055D0001A607047E4E3032055880D00024B1A68F7
:1055E000024B1A60704700BF14E30320E8E3032076
:1055F0000021FFF799BC10B58368044613B103225C
:1056000001469847204610BD10B50446FFF7F3FF4A
:10561000204610BD0348044A04490023836000F07B
:10562000F5BC00BFECE3032080E3032009560D0026
:1056300008B50C4B33B100F05DF903681B6998475E
:10564000002809DC084B63B100F0D6F903681B6938
:105650009847002803DC08BDAFF30080F2E7AFF302
:10566000008008BD000000000000000008B5FFF742
:10567000DFFFFFF741FB014B186008BD30E7032057
:105680000248034A0349121A02F042BF00F4032001
:1056900004F40320E88A0D0007B5002300931A469E
:1056A0006FF07701FFF752FC03B05DF804FB0000D8
:1056B00007B543880A2B08D0502B09D1094B1B682A
:1056C0003BB103B05DF804EB1847FFF7E5FF06E0D8
:1056D000002300931A466FF07701FFF737FC03B001
:1056E0005DF804FBFCE3032038B5104C104D236833
:1056F000AB42104B0CBF012200221A7002D0FFF700
:10570000BFFF2560FFF7F0FA044602F015FF0A4BD1
:1057100013B12046AFF3008000210748FFF770FC6B
:1057200000210648BDE83840FFF706BC00F403201E
:105730001E1C279A00E4032000000000B1560D0053
:10574000704710B51821044600F06EFC204610BDCD
:10575000F0B5037D062B8DB00E4600F104074FF027
:10576000000402D000F1080518E00CAD394605F838
:10577000304D2F232A460A20FFF7EEFA284602F082
:1057800003FF33680246DB682946304698470FE03E
:1057900024B12E213046FFF7D5FD044415F8011D34
:1057A0000A223046FFF7E9FDBD420444F0D120460D
:1057B0000DB0F0BD10B5054B0446112240F8043B76
:1057C000002102F0B0FE204610BD00BFF4880D009D
:1057D0000346074A10B543F8042B01F1100251F8B3
:1057E000044B43F8044B9142F9D10A781A7010BD6A
:1057F000F4880D0010B59DF8084044EA032343EAFD
:10580000024242EA016104234160037510BD37B5CD
:105810000D788B784A78C97800912946FFF7EAFF1E
:1058200003B030BD41747047704708B50021007C5B
:10583000FFF752FB30EA200028BF4FF0FF3008BDD1
:1058400008B50121007CFFF747FB30EA200028BFA4
:105850004FF0FF3008BD08B5007CFFF735FB20EAAC
:10586000E07008BD08B5007CFFF726FB20EAE07079
:1058700008BD007CFFF740BB10B51421044600F0C2
:10588000D3FB204610BD38B50446007C0D46FFF71B
:105890001BFB002801DC607C28B12946207CFFF737
:1058A00023FB20EAE07038BD10B504460023636096
:1058B0004FF47A73A360054B2360012308462174DB
:1058C00063741146FFF7E8FA204610BD08890D0001
:1058D0000022007CFFF7E8BA007CFFF715BBFFF75A
:1058E000FBBF10B514220446002102F01CFE204626
:1058F00010BD000030B50E4D87B001A8FFF7F1FFD5
:10590000296811F0010410D12846FEF7CAFB60B1E6
:1059100001AA21460748FFF7C7FF2846FEF7C6FB46
:10592000054A0649034800F071FB024807B030BD44
:1059300004E4032008E4032080E3032029580D0039
:1059400070474174704708B5007CFFF745FA20EABC
:10595000E07008BD08B5007CFFF716FA20EAE07099
:1059600008BD08B5007CFFF71FFA30EA200028BF09
:105970004FF0FF3008BD08B5007CFFF70DFA30EAA4
:10598000200028BF4FF0FF3008BD007CFFF714BA9D
:1059900010B51421044600F047FB204610BD70B539
:1059A000457C04460E4625B9007CFFF715FA002811
:1059B00005DD3146207CBDE87040FFF7DDB92846A3
:1059C00070BD000010B50446084611460022626012
:1059D0004FF47A72A260054A226001222074627438
:1059E0001A46FFF7C1F9204610BD00BF38890D00E7
:1059F000007CFFF7E9B9000038B50C4D296811F0BB
:105A0000010411D12846FEF74CFB68B1084A094B46
:105A100009482146FFF7D6FF2846FEF747FB074A0D
:105A20000749054800F0F2FA034838BDB4E4032002
:105A3000B8E4032030E403201CE4032080E30320C7
:105A400041590D007047F8B5064615460C468F18AB
:105A5000BC4206D0336814F8011B9B683046984757
:105A6000F6E72846F8BD0022007CFFF7D5B90021F3
:105A7000007CFFF7D9B90021007CFFF7DDB90021D8
:105A8000007CFFF7E1B90021007CFFF7E5B910B514
:105A90001421044600F0C8FA204610BD10B5044693
:105AA000002363604FF47A73A360044B21740846AB
:105AB00023601146FFF7E0F9204610BD68890D000C
:105AC00000231A461946007CFFF78EB970B50C46C4
:105AD00086B0142506462A46002101A802F023FDBF
:105AE00023788DF8083063680393E36804930022F9
:105AF000237A307CADF8045001A90593FFF7C4F96F
:105B000006B070BD1FB500338DF800104FF0640172
:105B1000039118BF0123694601928DF80830FFF701
:105B2000D5FF05B05DF804FB0123FFF7EBBF0022B2
:105B3000007CFFF761B90022007CFFF765B9012105
:105B4000FFF7F9BF0021007CFFF78EB90022114654
:105B50004068FFF73DBA002211464068FFF748BA97
:105B600000224068FFF73CBA002281F00101406842
:105B7000FFF726BA00231A4601214068FFF718BA3A
:105B800000231A4619464068FFF70ABA0022114658
:105B90004068FFF7FDB9002211464068FFF7E8B9F9
:105BA000002202214068FFF7EBB900231A46406843
:105BB000FFF7D6B938B5054688B104684CB1A3687B
:105BC0001BB103222146204698471021204600F0B1
:105BD0002BFA28461421BDE8384000F025BA38BD1C
:105BE00010B103685B681847704710B50368044636
:105BF000BBB15868FFF788F878B923685A7C12B9A6
:105C00005868FFF789F823685868FFF78DF820680F
:105C10000023236028B1FFF7CDFF206808B1FFF70C
:105C2000C9FF204610BD38B50446D0F8C40108B1FC
:105C3000FEF735FAD4F8C00108B1FFF785F8D4F8BB
:105C4000BC5135B12846FFF7D0FF0421284600F0AB
:105C5000EBF9206808B1FFF7C3FF204638BD00000C
:105C600010B5044B044640F8083BFFF7DCFF204624
:105C700010BD00BF90890D0038B50E4C0E4B23604F
:105C80000025022304F5E4706360A560C4F8C451E4
:105C9000C4F8C851FFF750F8084BC4F8CC5184F849
:105CA000D05123602046064A0649BDE8384000F03E
:105CB000ADB900BF3CE50320F8890D0090890D00C7
:105CC00080E30320615C0D00002211464068FFF76D
:105CD0005FB9002211464068FFF77AB900221146E9
:105CE0004068FFF785B900224068FFF779B90022C4
:105CF00081F001014068FFF763B900231A46194695
:105D00004068FFF755B900231A4619464068FFF767
:105D100047B9002211464068FFF72AB90022022144
:105D20004068FFF72DB900231A464068FFF718B9FD
:105D3000024B04225A60024A1A60704710E703209F
:105D4000C4890D0000231A464068FFF709B90022F4
:105D500002214068FFF714B9002211464068FFF79E
:105D600007B9002211464068FFF712B900231A460E
:105D700019464068FFF714B900231A4619464068CF
:105D8000FFF716B9002281F001014068FFF718B94A
:105D900000224068FFF724B9002211464068FFF74F
:105DA00027B9002211464068FFF712B92DE9F043E8
:105DB000002495B016460D460746FFF7FBFC21462A
:105DC00020220CA8009402F0AEFB40230C93214645
:105DD0006B460CAA3046FEF717FF0446002844D154
:105DE000024601216868FFF7D3F802218046224667
:105DF0006868FFF7CDF8009E81462146002E34D01A
:105E0000002932D17368022B02D00A2B09D02AE074
:105E1000B8F1000F27D0716938460431FFF7F7FC5D
:105E200020E0B9F1000F1ED07469112201A802F020
:105E30007AFB06238DF8143001AD04F10803183401
:105E4000186859682A4603C20833A3421546F7D199
:105E500001A906A807ADFFF7BBFC0FCD3C1D0FC481
:105E60002B6823700121F669C8E70098FEF7C4FE8D
:105E7000384615B0BDE8F083024B034A1A60002291
:105E80005A60704718E70320F8890D0010B50446E2
:105E900000F05CF8FFF7E3F928B1A4F10B03022B43
:105EA00001D8002010BD00F08BF8FFF74BFE08B1C1
:105EB000012CF6D9FFF7A0FDFFF79AFD18B1A4F168
:105EC0000903012BEDD9232C8CBF0020012010BD2C
:105ED000232838B504460D460AD8FF2908D0FFF715
:105EE000D5FF28B129462046BDE83840FEF79CBEC4
:105EF00038BD38B504460D46FEF79EFEFF2810D08B
:105F0000062804D84D2323FA00F0C30709D42046FD
:105F1000FFF7BCFF28B129462046BDE83840FEF710
:105F200093BE38BD10B50446FEF786FE0438C0B2F5
:105F3000012808D92046FFF7A9FF20B12046BDE877
:105F40001040FEF789BE002010BD000038B50B4D93
:105F5000296811F001040FD12846FEF7A2F858B1C4
:105F600021460748FFF7C0F82846FEF79FF8054A84
:105F70000549034800F04AF8014838BD2CE70320E2
:105F800020E7032080E30320CD500D0070B50446C8
:105F900014252A46094E002102F0C5FA2580202545
:105FA0003146A5602561284600F040F83146606022
:105FB000284600F03BF8E060204670BD248A0D00C2
:105FC00030B50E4D296811F0010487B013D1284671
:105FD000FEF767F878B101A8FFF7D8FF01AA2146BC
:105FE0000748FFF75BFD2846FEF760F8054A0649BB
:105FF000034800F00BF8024807B030BD34E7032037
:1060000038E7032080E30320455A0D000B46014684
:10601000184602F06FBA0000024B1868BFF35F8F9A
:10602000704700BF4CE70320FEF737B800F000B818
:1060300010B5002814BF044601242046FEF7E8FFEF
:1060400020B9FFF7E9FF08B18047F6E710BD00006F
:10605000184B1A68D1075CBF01221A60164B1A68E8
:10606000D2075CBF01221A60144B1A68D0075CBFCC
:1060700001221A60124B1A68D1075CBF01221A6014
:10608000104B1A68D2075CBF01221A600E4B1A68C7
:10609000D0075CBF01221A600C4B1A68D1075CBFA5
:1060A00001221A600A4B1A68D2075CBF01221A60EB
:1060B000704700BF6CE7032068E7032064E7032014
:1060C00060E703205CE7032058E7032054E7032040
:1060D00050E70320244B1A68D0075CBF01221A60E6
:1060E000224B1A68D1075CBF01221A60204B1A6844
:1060F000D2075CBF01221A601E4B1A68D0075CBF32
:1061000001221A601C4B1A68D1075CBF01221A6079
:106110001A4B1A68D2075CBF01221A60184B1A6822
:10612000D0075CBF01221A60164B1A68D1075CBF0A
:1061300001221A60144B1A68D2075CBF01221A6050
:10614000124B1A68D0075CBF01221A60104B1A6804
:10615000D1075CBF01221A600E4B1A68D2075CBFE0
:1061600001221A60704700BF9CE7032098E70320D4
:1061700094E7032090E703208CE7032088E70320BF
:1061800084E7032080E703207CE7032078E70320EF
:1061900074E7032070E70320244B1A68D0075CBF24
:1061A00001221A60224B1A68D1075CBF01221A60D3
:1061B000204B1A68D2075CBF01221A601E4B1A6876
:1061C000D0075CBF01221A601C4B1A68D1075CBF64
:1061D00001221A601A4B1A68D2075CBF01221A60AA
:1061E000184B1A68D0075CBF01221A60164B1A6858
:1061F000D1075CBF01221A60144B1A68D2075CBF3A
:1062000001221A60124B1A68D0075CBF01221A6083
:10621000104B1A68D1075CBF01221A600E4B1A6836
:10622000D2075CBF01221A60704700BFCCE7032091
:10623000C8E70320C4E70320C0E70320BCE703202E
:10624000B8E70320B4E70320B0E70320ACE703205E
:10625000A8E70320A4E70320A0E70320184B1A684F
:10626000D1075CBF01221A60164B1A68D2075CBFC7
:1062700001221A60144B1A68D0075CBF01221A6011
:10628000124B1A68D1075CBF01221A60104B1A68C2
:10629000D2075CBF01221A600E4B1A68D0075CBFA0
:1062A00001221A600C4B1A68D1075CBF01221A60E8
:1062B0000A4B1A68D2075CBF01221A60704700BF00
:1062C000ECE70320E8E70320E4E70320E0E703200E
:1062D000DCE70320D8E70320D4E70320D0E703203E
:1062E0002DE9F04F2DED028BDFF824A38BB057EC96
:1062F000106B55EC114B00F08FF99AF90080B0EE5D
:10630000408AF0EE608AB8F1FF3F48D022462B4623
:106310002046294601F06EFD834600283FD13246D3
:106320003B463046394601F065FD8146002840F085
:106330009080304639460022002301F029FD0028D4
:1063400036D0002200232046294601F021FD834655
:10635000B8B19FEDA57B0122A94BCDF8209000920A
:10636000CDE90267CDE904458DED067B0193B8F1D7
:10637000000F5BD09FED9E0B0BB0BDEC028BBDE818
:10638000F08F45EC104B00F0A7FF40B10022002336
:106390002046294601F006FD002840F0C580B0EEF9
:1063A000480AF0EE680A0BB0BDEC028BBDE8F08F36
:1063B000B0EE480AF0EE680A00F08EFF8046002832
:1063C00061D04FF000084FF0000951EC180B424625
:1063D0004B4601F0DDFC0028E1D047EC106B00F0EB
:1063E0007BFF0028DBD045EC104B00F075FF002848
:1063F000D5D09AF90030824A019204210022022B62
:10640000CDE90267CDE90445CDE9068900910892FE
:1064100003D0684600F068FF70B9FEF711FE222332
:10642000036009E09FED707B8DED067B684600F010
:106430005BFF002800F08E80089B1BB1FEF700FE7A
:10644000089B03609DED060B0BB0BDEC028BBDE815
:10645000F08F002200232046294601F099FC0028F5
:106460009DD09FED630B664BCDF820B00122B8F1B3
:10647000020FCDE90267CDE904458DED060B8DE8ED
:106480000C00D3D18FE747EC106B00F025FF0028FC
:1064900097D045EC104B00F01FFF002891D053EC33
:1064A000182B18EE100A194601F0A4FC00287CD124
:1064B00003239AF900800093514B0890CDE90267BD
:1064C000CDE904450193B8F1000F48D1DFF84491BC
:1064D0004FF060480022002330463946CDE9068956
:1064E00001F060FC002894D00022464B204629464B
:1064F00001F0E6F904460D4645EC104B00F000FFB4
:10650000204653EC102B294601F042FC002849D1CB
:106510003D4B9AF900804FF06042CDE90623B8F177
:10652000020F7FF476AF78E7354A9AF90030CDF85C
:1065300020B00121CDE90267CDE904458DE80600D0
:10654000002B3FF46FAF31490020022BCDE906014B
:106550007FF46CAFFEF774FD212303606CE79FEDC1
:10656000267B00220023304639468DED067B01F064
:1065700019FC0028D3D00022224B2046294601F0E6
:106580009FF904460D4645EC104B00F0B9FE20463D
:1065900053EC102B294601F0FBFB18B91B4B0022D2
:1065A000CDE906239AF90080B9E7154B9AF90090D6
:1065B000CDF820800122CDE90267CDE904458DE8C0
:1065C0000C00B9F1000F3FF42DAF0022002310465C
:1065D000194601F09FFAB9F1020FCDE90601B9D0D1
:1065E00024E700BFAFF300800000000000000000BF
:1065F000000000000000F03F000000000000F07FFD
:10660000288A0D000000E03FFFFFEFC70000F0FF09
:1066100018E30320FFFFEF472DE9F04F51EC110B7A
:1066200021F0004858EA000493B03CD053EC102B02
:106630006D4E23F00044B44210EE10AA1D462BDC30
:10664000894611EE10EA26D0B04525DC664EB045ED
:1066500077D0002D16461F46CDE9000175DB4FF0BF
:10666000000BBEF1000F2DD15F4B984500F08980E3
:106670005E4B98455ED0B9F1804F00F0DE835C4BF5
:1066800099451FD1002D1DDB47EC106B13B0BDE801
:10669000F04F00F049BD5AB104F1404404F58014B4
:1066A00054EA0A0306D19FED4A0B13B0BDE8F08F00
:1066B000A045CBDD4F4813B0BDE8F04F00F018BE49
:1066C0004FF0000B47EC106B00F0FEFD51EC100B8F
:1066D000BAF1000F1ED0ED0F05F1FF3A5BEA0A0395
:1066E00063D0454B984540F38D8003F10473984582
:1066F00040F33884414B9C4262DDB9F1000F62DD0A
:1067000035A3D3E900231046194601F0D9F841EC2E
:10671000100BCAE724B1354B25F040429A42DAD13A
:10672000B9F1000FC0F2CB83002DC0F2748341ECAD
:10673000100BBAE7B9F1000FC0F27A8447EC106B86
:10674000B3E7BEF1000F84D0A6E72D4B984529DCB6
:10675000A3F15473984582DD4FEA2853A3F2FF3327
:10676000142B40F37F84C3F134032EFA03F202FAB0
:1067700003F39E457FF473AF02F00102C2F1020BF6
:106780006FE704F1404303F5801353EA0A038AD00C
:106790001A4B9C4240F38583B9F1000F13DB9DED4A
:1067A000000B82E74FF0020B5BE732463B46104698
:1067B000194600F0D1FE02460B4601F0ABF9B6E7F0
:1067C000B9F1000F9CDB9FED060B6EE7AFF3008085
:1067D000000000000000F03F9C7500883CE4377E1C
:1067E00000000000000000000000F07F0000F03F0B
:1067F0000000E03F2C8A0D000000E041FFFFEF3F6A
:10680000FFFF3F43B4F5801F4FF0000205DAD64B7F
:1068100001F056F86FF034020C462315D34EC4F342
:106820001304A3F2FF33134444F07F55B4421A46D5
:106830000D9345F4401540F34983CD4B9C4240F302
:106840002D849FEDB37B8DED087B8DED0E7B9FED51
:10685000B27B13468DED067B01330D93A5F58015B4
:106860004FF00008DDE906232946CDE90A0100F0D2
:1068700073FEDDE9062306460F46DDE90A0100F056
:106880006DFE02460B460020BA4901F043F903466B
:106890000C46CDE9103402460B463046394601F02D
:1068A0000FF86B1043F0005303F5002303EB0805CA
:1068B0000A4600230146CDE902120293DDE902896E
:1068C0000024CDE904122B4622464046494600F0FA
:1068D000F7FF02460B463046394600F03DFEDDE943
:1068E000062306460F462046294600F035FE02469E
:1068F0000B46DDE90A0100F02FFE42464B4600F050
:10690000DFFF02460B463046394600F025FEDDE942
:10691000102300F0D5FFDDE90445CDE9060122464C
:106920002B462046294600F0CBFF7DA3D3E9002368
:1069300004460D4600F0C4FF7BA3D3E9002300F01A
:106940000DFE22462B4600F0BBFF79A3D3E90023BE
:1069500000F004FE22462B4600F0B2FF76A3D3E9F6
:10696000002300F0FBFD22462B4600F0A9FF74A394
:10697000D3E9002300F0F2FD22462B4600F0A0FFF1
:1069800071A3D3E9002300F0E9FD224606460F4635
:106990002B462046294600F093FF02460B46304620
:1069A000394600F08DFF424604460D464B46DDE970
:1069B000040100F0D3FDDDE9062300F081FF22464B
:1069C0002B4600F0CBFD424606460F464B4640465E
:1069D000494600F075FF0022674BCDE90A0100F03F
:1069E000BDFD32463B4600F0B9FD02980D46044617
:1069F00022462B464046494600F062FF0022804670
:106A000089465D4B2046294600F0A6FDDDE90A23B4
:106A100000F0A2FD02460B463046394600F09CFDD0
:106A2000DDE9042300F04CFF224606460F462B46C4
:106A3000DDE9060100F044FF02460B4630463946C8
:106A400000F08CFD06460F4602460B46404649467E
:106A5000CDE9048900F082FD02983DA3D3E900232B
:106A600004460D4600F02CFFDDE9042380468946EC
:106A70002046294600F070FD02460B463046394656
:106A800000F06AFD34A3D3E9002300F019FF34A31A
:106A9000D3E9002306460F462046294600F010FFA2
:106AA00002460B463046394600F058FDDDE90E231C
:106AB00000F054FD06460D980F4600F09BFE32464E
:106AC00004460D463B464046494600F047FDDDE999
:106AD000082300F043FD22462B4600F03FFD0298BC
:106AE00022462B46CDE9020100F036FDDDE9082300
:106AF00000F032FD42464B4600F02EFD02460B46AA
:106B00003046394600F028FD8046894636E000BF11
:106B10000000000000000000000000000000F03F46
:106B2000EF4E454A287ECA3F65DBC9934A86CD3F72
:106B300001411DA96074D13F4D268F515555D53F58
:106B4000FFAB6FDBB66DDB3F033333333333E33FF0
:106B5000000000E009C7EE3FFD033ADC09C7EE3F45
:106B6000F5015B14E02F3EBE000040438E98030009
:106B700079B60B000000F03F000008400BF1FF3336
:106B800053EA0A0300F088819FEDD77B8DED067BE9
:106B9000DDE900AB53465C46CDE9003400230093A9
:106BA000DDE90045504622462B46594600F0D4FC0C
:106BB000DDE9022300F084FE524606460F465B469E
:106BC0004046494600F07CFE02460B4630463946B8
:106BD00000F0C4FC2246804689462B46DDE90201CE
:106BE000CDE9048900F06CFE0B46024606460F46CE
:106BF0004046494600F0B2FCD54B994204460D464A
:106C00008A4640F3238101F13F4303F5E003034348
:106C100040F01882B6A3D3E90023DDE9040100F0B7
:106C20009DFC3246804689463B462046294600F078
:106C300093FC02460B464046494601F0D1F8002835
:106C400040F00082A8464FEA28534FF48012A3F286
:106C5000FE3342FA03F35344C3F30A52BD4DA2F28A
:106C6000FF321541C3F3130B0020C2F1140423EAD1
:106C700005014BF4801BBAF1000F02460B464BFA9C
:106C800004FB30463946B8BFCBF1000B00F064FC82
:106C900002460B4606460F46DDE9040100F05EFCA5
:106CA0004FEA0B5A002494A3D3E9002320460D4653
:106CB00000F006FE3246804689463B46204629467D
:106CC00000F04AFC02460B46DDE9040100F044FCFA
:106CD0008BA3D3E9002300F0F3FD8BA3D3E90023BA
:106CE00006460F462046294600F0EAFD02460B46BE
:106CF0003046394600F032FC06460F4602460B4647
:106D00004046494600F02AFC42464B4604460D46A2
:106D100000F022FC02460B463046394600F01CFCCF
:106D20002246804689462B462046294600F0C8FD6B
:106D300077A3D3E9002306460F4600F0C1FD76A3F2
:106D4000D3E9002300F008FC32463B4600F0B8FDD2
:106D500073A3D3E9002300F001FC32463B4600F068
:106D6000AFFD71A3D3E9002300F0F6FB32463B46AA
:106D700000F0A6FD6EA3D3E9002300F0EFFB32463E
:106D80003B4600F09DFD02460B462046294600F09A
:106D9000E3FB06460F4602460B462046294600F016
:106DA0008FFD0022CDE900014FF080433046394687
:106DB00000F0D2FB02460B46DDE9000100F0AAFE1E
:106DC000424606460F464B462046294600F078FDCF
:106DD00042464B4600F0C2FB02460B46304639465F
:106DE00000F0BAFB22462B4600F0B6FB02460B46EB
:106DF0000020594900F0B0FB8A44BAF5801F0246D2
:106E00000B46C0F25B815146DDE9062300F058FDD8
:106E100041EC100B49E404F1404404F5801454EAB9
:106E20000B0300F03781BBF1010F7FF480AC024609
:106E300001F1004343EC102B37E432463B46304629
:106E4000394600F03DFD41EC100B2EE4434B21F0A0
:106E50000048984540F31581414B0B4403430CD146
:106E600032463B4600F078FB02460B46DDE9040162
:106E700000F0A2FF00283FF4E6AE2FA3D3E90023E1
:106E8000DDE9060100F01CFD2BA3D3E9002300F08F
:106E900017FD41EC100B08E49FED297B8DED067B7F
:106EA00076E6B9F1000FBFF68EACDDE9003400EEF6
:106EB000103A04F1004300EE903AFFF7F6BB0246A9
:106EC0000B460020244900F025FE2DE49FED1E7B9B
:106ED0008DED087B8DED0E7B9FED037B4FF0000861
:106EE0008DED067BBEE400BF000000000000F03F17
:106EF000FE822B654715973C00000000432EE63FBD
:106F0000EF39FAFE422EE63F396CA80C615C20BED8
:106F1000D0A4BE726937663EF16BD2C541BDBB3E9F
:106F20002CDE25AF6A56113F93BDBE166CC1663F7D
:106F30003E5555555555C53F59F3F8C21F6EA5012D
:106F4000000000000000F0BF000000000000000092
:106F5000FFFF8F40FFFF0F000000F03FFFCB90408E
:106F600000346F3F6C4B9C427FF72AAC6B4B9C42CA
:106F70003FF7C3AB0022694B00F0EEFA56A3D3E90A
:106F8000002304460D4600F09BFC55A3D3E90023E3
:106F9000804689462046294600F092FC0022CDE931
:106FA00002015F4B2046294600F08AFC02460B4650
:106FB0004DA1D1E9000100F0CFFA22462B4600F0A6
:106FC0007FFC02460B460020564900F0C5FA2246D7
:106FD0002B4606460F462046294600F071FC024625
:106FE0000B463046394600F06BFC41A3D3E9002341
:106FF00000F066FC02460B46DDE9020100F0ACFA47
:1070000002460B4604460D464046494600F0A6FAA5
:1070100042464B460020CDE9020100F09DFA0246AF
:107020000B462046294600F097FA80468946A5E59A
:1070300032463B460020394900F06CFD41EC100B14
:10704000FFF733BB2CA3D3E90023DDE9060100F0F1
:1070500037FC29A3D3E9002300F032FC41EC100BEC
:10706000FFF723BBBEF1000F7FF42AABC3F114037B
:1070700048FA03F202FA03F3984527D0F346FFF7E4
:10708000F7BA284B98453FF7DEADDDE900349A4664
:107090009B4607E602460B46FFF789BB9FED187B30
:1070A0008DED087B9FED187B8DED0E7B9FED187BA2
:1070B0004FF480288DED067BFFF7D4BB584643EC98
:1070C000102B00F0B1F951EC100B9DE602F001021B
:1070D000C2F1020BFFF7CCBA000000604715F73F82
:1070E00044DF5DF80BAE543E555555555555D53FCB
:1070F000FE822B654715F73F9C7500883CE4377E80
:107100000000004003B8E23F06D0CF43EBFD4C3E09
:10711000000000000000F83FFEFFEF3F0000F03FDE
:107120000000D03F0000E03F2DE9F041654955ECFB
:10713000104B0E462940B14200F09780002D2B469F
:1071400010EE102A74DD2F157FD0A7F2FF37C3F39E
:107150001303F90743F4801365D403EBD2710026BF
:107160000B447F105200B64616204FF400110EEB70
:1071700001049C424FEAD2754FEA420203DC1B1B1A
:1071800004EB010E0E44013805EB43034FEA5101B5
:10719000EDD1844620244FF0004109E020D003EBDC
:1071A000D275013C4FEA51012B444FEA420220D0F4
:1071B0009E4501EB0C05F1DA002D05EB010C09DB16
:1071C000F0469542CEEB030300D9013B521B084425
:1071D000C646E4E7BCF1000FF2DB0EF10108F0E770
:1071E00095421ED8002D05EB010C50DB984600237C
:1071F000ECE7134304D0421C4DD000F001031844C7
:1072000040087110F30701F17F5101F5001148BFEB
:1072100040F0004001EB0753024643EC102BBDE861
:10722000F0817346BBE75B0003EBD273520094E737
:1072300025F00041214328D0ADBB2F46D30A153F8E
:107240005205002BFAD0DD0228D4002100E00146CF
:107250005B00DC0201F10100F9D5C0F1200422FA43
:1072600004F423437F1A82406FE710EE102A2B4666
:1072700010EE100A294600F023FB22462B4600F0B0
:107280006DF941EC100BBDE8F081BDE8F081BCF177
:10729000000FA2DAAAE701362046B2E720244FF019
:1072A000FF310020DBE710EE102A2B46204629464E
:1072B00000F052F902460B4600F02CFC41EC100B9A
:1072C000BDE8F0810000F07F53EC102B23F0004369
:1072D00043EC102B704700BF10EE903A43F0004093
:1072E00000F58010C00F70470020704700000000BC
:1072F0009FED010B704700BF000000000000F87F09
:10730000F0B553EC102BC3F30A56A6F2FF30132846
:1073100083B019464FEAD37410EE105A2FDC0028C0
:1073200049DB3F4E064103EA060717432CD0760897
:1073300033401D430CD04FF48023132821EA060666
:1073400043FA00F141EA06010CBF4FF00045002569
:10735000344800EBC4042A46D4E9004510462B46C5
:10736000224600F0FBF8CDE9000122462B46DDE97C
:10737000000100F0F1F841EC100B03B0F0BD332830
:1073800006DDB0F5806F42D043EC102B03B0F0BDAA
:10739000A6F213464FF0FF30F0400242F4D040080E
:1073A0000242D5D04FF0804325EA000043FA06F6AA
:1073B00046EA0005CCE723F00040104310EE107AB7
:1073C000E2D0C3F313000743784207431548590C32
:1073D0003F0B490407F4002700EBC40047EA010310
:1073E000D0E90067194610463B46324600F0B6F831
:1073F000CDE900013B463246DDE9000100F0ACF882
:1074000021F0004343EAC47141EC100BBEE710EEDB
:10741000100A194600F0A2F841EC100BB6E700BFC5
:10742000FFFF0F00308A0D0053EC102B70B5C3F333
:107430000A541946054614BB23F0004111432AD0D3
:1074400019460022384B394E10EE100A00F038FA77
:10745000B54202460B461FDBC1F30A54363C2C44AE
:1074600040F2FE7084421FDC002C2DDD21F0FF4134
:1074700021F4E00141EA045343EC102B70BD40F2CB
:10748000FF708442EBD110EE100A194600F066F846
:1074900041EC100B70BD70BD1FA3D3E9002300F0B9
:1074A0000FFA41EC100B70BD43EC112B9FED1C0B40
:1074B00000F040F81AA3D3E9002351EC100B00F0C0
:1074C000FFF941EC100B70BD14F1350F13DA4CF2DB
:1074D00050318D4243EC112BE8DC9FED0F0B00F097
:1074E00029F80DA3D3E9002351EC100B00F0E8F9C3
:1074F00041EC100B70BD21F0FF4121F4E001363466
:1075000041EA0453104619460022094B00F0D8F90D
:1075100041EC100B70BD00BF59F3F8C21F6EA501FE
:107520009C7500883CE4377E00005043B03CFFFF70
:107530000000903C53EC102B11EE900A23F0004118
:1075400000F0004041EA000343EC102B704700BFFD
:1075500081F0004102E000BF83F0004330B54FEA04
:1075600041044FEA430594EA050F08BF90EA020F71
:107570001FBF54EA000C55EA020C7FEA645C7FEA04
:10758000655C00F0E2804FEA5454D4EB5555B8BF27
:107590006D420CDD2C4480EA020281EA030382EA98
:1075A000000083EA010180EA020281EA0303362D2A
:1075B00088BF30BD11F0004F4FEA01314FF4801CFD
:1075C0004CEA113102D0404261EB410113F0004F0F
:1075D0004FEA03334CEA133302D0524263EB4303C6
:1075E00094EA050F00F0A780A4F10104D5F1200E64
:1075F0000DDB02FA0EFC22FA05F2801841F10001BF
:1076000003FA0EF2801843FA05F359410EE0A5F192
:1076100020050EF1200E012A03FA0EFC28BF4CF0C3
:10762000020C43FA05F3C01851EBE37101F0004579
:1076300007D54FF0000EDCF1000C7EEB00006EEB86
:107640000101B1F5801F1BD3B1F5001F0CD3490810
:107650005FEA30004FEA3C0C04F101044FEA445267
:1076600012F5800F80F09A80BCF1004F08BF5FEAEE
:10767000500C50F1000041EB045141EA050130BDCE
:107680005FEA4C0C404141EB010111F4801FA4F171
:107690000104E9D191F0000F04BF01460020B1FAC6
:1076A00081F308BF2033A3F10B03B3F120020CDAFE
:1076B0000C3208DD02F1140CC2F10C0201FA0CF0DC
:1076C00021FA02F10CE002F11402D8BFC2F1200C41
:1076D00001FA02F120FA0CFCDCBF41EA0C019040F7
:1076E000E41AA2BF01EB0451294330BD6FEA040440
:1076F0001F3C1CDA0C340EDC04F11404C4F120022B
:1077000020FA04F001FA02F340EA030021FA04F33C
:1077100045EA030130BDC4F10C04C4F1200220FA93
:1077200002F001FA04F340EA0300294630BD21FAD1
:1077300004F0294630BD94F0000F83F4801306BF97
:1077400081F480110134013D4EE77FEA645C18BF8B
:107750007FEA655C29D094EA050F08BF90EA020F22
:1077600005D054EA000C04BF1946104630BD91EA1A
:10777000030F1EBF0021002030BD5FEA545C05D11D
:107780004000494128BF41F0004130BD14F580045C
:107790003CBF01F5801130BD01F0004545F0FE41D0
:1077A00041F470014FF0000030BD7FEA645C1ABF05
:1077B000194610467FEA655C1CBF0B46024650EA3C
:1077C000013406BF52EA033591EA030F41F4002168
:1077D00030BD00BF90F0000F04BF0021704730B5EE
:1077E0004FF4806404F132044FF000054FF00001C3
:1077F00050E700BF90F0000F04BF0021704730B584
:107800004FF4806404F1320410F0004548BF404258
:107810004FF000013EE700BF42004FEAE2014FEAAD
:1078200031014FEA02701FBF12F07F4393F07F4F88
:1078300081F06051704792F0000F14BF93F07F4FBA
:10784000704730B54FF4607401F0004521F00041FD
:1078500020E700BF50EA010208BF704730B54FF083
:1078600000050AE050EA010208BF704730B511F088
:10787000004502D5404261EB41014FF4806404F1C0
:1078800032045FEA915C3FF4DCAE4FF003025FEA42
:10789000DC0C18BF03325FEADC0C18BF033202EBCA
:1078A000DC02C2F1200300FA03FC20FA02F001FA24
:1078B00003FE40EA0E0021FA02F11444C1E600BFC3
:1078C00070B54FF0FF0C4CF4E06C1CEA11541DBF76
:1078D0001CEA135594EA0C0F95EA0C0F00F0DEF841
:1078E0002C4481EA030621EA4C5123EA4C5350EA26
:1078F000013518BF52EA033541F4801143F4801377
:1079000038D0A0FB02CE4FF00005E1FB02E506F007
:107910000042E0FB03E54FF00006E1FB03569CF05C
:10792000000F18BF4EF0010EA4F1FF04B6F5007F62
:1079300064F5407404D25FEA4E0E6D4146EB0606D4
:1079400042EAC62141EA55514FEAC52040EA5E505D
:107950004FEACE2EB4F1FD0C88BFBCF5E06F1ED807
:10796000BEF1004F08BF5FEA500E50F1000041EB3E
:10797000045170BD06F0004646EA010140EA0200EB
:1079800081EA0301B4EB5C04C2BFD4EB0C0541EA0D
:10799000045170BD41F480114FF0000E013C00F322
:1079A000AB8014F1360FDEBF002001F0004170BD46
:1079B000C4F10004203C35DA0C341BDC04F114045F
:1079C000C4F1200500FA05F320FA04F001FA05F2EB
:1079D00040EA020001F0004221F0004110EBD370B8
:1079E00021FA04F642EB06015EEA430E08BF20EAE4
:1079F000D37070BDC4F10C04C4F1200500FA04F387
:107A000020FA05F001FA04F240EA020001F0004118
:107A100010EBD37041F100015EEA430E08BF20EA8B
:107A2000D37070BDC4F1200500FA05F24EEA020ED3
:107A300020FA04F301FA05F243EA020321FA04F002
:107A400001F0004121FA04F220EA020000EBD370B9
:107A50005EEA430E08BF20EAD37070BD94F0000FB9
:107A60000FD101F00046400041EB010111F4801FED
:107A700008BF013CF7D041EA060195F0000F18BF9E
:107A8000704703F00046520043EB030313F4801FDA
:107A900008BF013DF7D043EA0603704794EA0C0F94
:107AA0000CEA135518BF95EA0C0F0CD050EA4106AA
:107AB00018BF52EA4306D1D181EA030101F0004127
:107AC0004FF0000070BD50EA410606BF104619464F
:107AD00052EA430619D094EA0C0F02D150EA01365B
:107AE00013D195EA0C0F05D152EA03361CBF10469C
:107AF00019460AD181EA030101F0004141F0FE413B
:107B000041F470014FF0000070BD41F0FE4141F4BE
:107B1000780170BD70B54FF0FF0C4CF4E06C1CEABE
:107B200011541DBF1CEA135594EA0C0F95EA0C0F73
:107B300000F0A7F8A4EB050481EA030E52EA03352E
:107B40004FEA013100F088804FEA03334FF080554F
:107B500045EA131343EA12634FEA022245EA11157C
:107B600045EA10654FEA00260EF000419D4208BF2D
:107B7000964244F1FD0404F5407402D25B084FEADA
:107B80003202B61A65EB03055B084FEA32024FF486
:107B900080104FF4002CB6EB020E75EB030E22BFE3
:107BA000B61A754640EA0C005B084FEA3202B6EBA3
:107BB000020E75EB030E22BFB61A754640EA5C0052
:107BC0005B084FEA3202B6EB020E75EB030E22BFE2
:107BD000B61A754640EA9C005B084FEA3202B6EBE3
:107BE000020E75EB030E22BFB61A754640EADC00A2
:107BF00055EA060E18D04FEA051545EA16754FEA04
:107C000006164FEAC30343EA52734FEAC2025FEA21
:107C10001C1CC0D111F4801F0BD141EA00014FF0B0
:107C200000004FF0004CB6E711F4801F04BF014381
:107C30000020B4F1FD0C88BFBCF5E06F3FF6AFAE9D
:107C4000B5EB030C04BFB6EB020C5FEA500C50F12D
:107C5000000041EB045170BD0EF0004E4EEA1131B0
:107C600014EB5C04C2BFD4EB0C0541EA045170BDB7
:107C700041F480114FF0000E013C90E645EA060EFB
:107C80008DE60CEA135594EA0C0F08BF95EA0C0F29
:107C90003FF43BAF94EA0C0F0AD150EA01347FF471
:107CA00034AF95EA0C0F7FF425AF104619462CE748
:107CB00095EA0C0F06D152EA03353FF4FDAE1046AB
:107CC000194622E750EA410618BF52EA43067FF4FC
:107CD000C5AE50EA41047FF40DAF52EA43057FF48C
:107CE000EBAE12E74FF0FF3C06E000BF4FF0010C97
:107CF00002E000BF4FF0010C4DF804CD4FEA410CFB
:107D00007FEA6C5C4FEA430C18BF7FEA6C5C1BD0C7
:107D100001B050EA410C0CBF52EA430C91EA030F48
:107D200002BF90EA020F0020704710F1000F91EAA5
:107D3000030F58BF994208BF90422CBFD8176FEA73
:107D4000E37040F0010070474FEA410C7FEA6C5C41
:107D500002D150EA013C07D14FEA430C7FEA6C5C48
:107D6000D6D152EA033CD3D05DF8040B704700BF74
:107D70008446104662468C461946634600E000BFC2
:107D800001B5FFF7B7FF002848BF10F1000F01BD94
:107D90004DF808EDFFF7F4FF0CBF012000205DF85F
:107DA00008FB00BF4DF808EDFFF7EAFF34BF0120E4
:107DB00000205DF808FB00BF4DF808EDFFF7E0FF7D
:107DC00094BF012000205DF808FB00BF4DF808EDCE
:107DD000FFF7CEFF94BF012000205DF808FB00BF35
:107DE0004DF808EDFFF7C4FF34BF012000205DF817
:107DF00008FB00BF4FEA410C7FEA6C5C02D150EAFD
:107E0000013C0AD14FEA430C7FEA6C5C02D152EA92
:107E1000033C02D14FF0000070474FF00100704763
:107E20004FEA410212F5001215D211D56FF47873A2
:107E3000B3EB625212D94FEAC12343F0004343EA45
:107E4000505311F0004F23FA02F018BF4042704720
:107E50004FF00000704750EA013005D111F00040AA
:107E600008BF6FF0004070474FF00000704700BF40
:107E70004A0011D212F5001211D20DD56FF47873A9
:107E8000B3EB62520ED44FEAC12343F0004343EAFE
:107E9000505323FA02F070474FF00000704750EA49
:107EA000013002D14FF0FF3070474FF000007047B3
:107EB0004FEA4102B2F1E04324BFB3F5001CDCF10C
:107EC000FE5C0DD901F0004C4FEAC0024CEA507044
:107ED000B2F1004F40EB830008BF20F00100704773
:107EE00011F0804F21D113F13872BCBF01F0004076
:107EF000704741F480114FEA5252C2F11802C2F1A8
:107F0000200C10FA0CF320FA02F018BF40F0010028
:107F10004FEAC1234FEAD32303FA0CFC40EA0C00DA
:107F200023FA02F34FEA4303CCE77FEA625307D117
:107F300050EA01331EBF4FF0FE4040F4400070474E
:107F400001F0004040F0FE4040F40000704700BFE8
:107F500080F0004002E000BF81F0004142001FBFFE
:107F60005FEA410392EA030F7FEA226C7FEA236C07
:107F70006AD04FEA1262D2EB1363C1BFD2184140FC
:107F800048404140B8BF5B42192B88BF704710F092
:107F9000004F40F4000020F07F4018BF404211F035
:107FA000004F41F4000121F07F4118BF494292EA9D
:107FB000030F3FD0A2F1010241FA03FC10EB0C00C9
:107FC000C3F1200301FA03F100F0004302D5494256
:107FD00060EB4000B0F5000F13D3B0F1807F06D303
:107FE00040084FEA310102F10102FE2A51D2B1F1FB
:107FF000004F40EBC25008BF20F0010040EA0300F0
:108000007047490040EB000010F4000FA2F101029C
:10801000EDD1B0FA80FCACF1080CB2EB0C0200FA26
:108020000CF0AABF00EBC25052421843BCBFD04074
:108030001843704792F0000F81F4000106BF80F4EE
:1080400000000132013BB5E74FEA41037FEA226CB1
:1080500018BF7FEA236C21D092EA030F04D092F07C
:10806000000F08BF0846704790EA010F1CBF0020B0
:10807000704712F07F4F04D1400028BF40F000400D
:10808000704712F100723CBF00F50000704700F02D
:10809000004343F0FE4040F4000070477FEA226254
:1080A00016BF08467FEA23630146420206BF5FEA25
:1080B000412390EA010F40F4800070474FF0000325
:1080C00004E000BF10F0004348BF40425FEA000CEC
:1080D00008BF704743F0964301464FF000001CE094
:1080E00050EA010208BF70474FF000030AE000BFEA
:1080F00050EA010208BF704711F0004302D5404228
:1081000061EB41015FEA010C02BF84460146002099
:1081100043F0B64308BFA3F18053A3F50003BCFAB4
:108120008CF2083AA3EBC25310DB01FA02FC634461
:1081300000FA02FCC2F12002BCF1004F20FA02F268
:1081400043EB020008BF20F00100704702F120025B
:1081500001FA02FCC2F1200250EA4C0021FA02F2BC
:1081600043EB020008BF20EADC7070477BB972B9AC
:108170000029BEBF00204FF0004106E008BF0028E4
:108180001CBF6FF000414FF0FF3000F0B1B9ADF10E
:10819000080C6DE904CE002909DB002B1ADB00F086
:1081A00035F8DDF804E0DDE9022304B07047404211
:1081B00061EB4101002B1BDB00F028F8DDF804E047
:1081C000DDE9022304B0404261EB4101524263EB1E
:1081D00043037047524263EB430300F017F8DDF8A6
:1081E00004E0DDE9022304B0404261EB4101704745
:1081F000524263EB430300F009F8DDF804E0DDE9E7
:10820000022304B0524263EB430370472DE9F04769
:108210008C460E460446089D002B50D18A421746D4
:108220006CD9B2FA82FEBEF1000F0BD0CEF1200461
:1082300020FA04F401FA0EF644EA060C02FA0EF7EC
:1082400000FA0EF44FEA1749220CBCFBF9F01FFAB2
:1082500087F809FB10C642EA064600FB08F3B34262
:1082600009D9F61900F1FF3280F02281B34240F2C1
:108270001F8102383E44F61AA2B2B6FBF9F309FB9D
:10828000136642EA064403FB08F8A04509D9E4193D
:1082900003F1FF3280F00A81A04540F20781023BE2
:1082A0003C44C8EB040443EA00400021002D62D0A6
:1082B00024FA0EF400232C606B60BDE8F0878B423B
:1082C00007D9002D55D0002185E841000846BDE8BA
:1082D000F087B3FA83F1002940F09080B34202D3D3
:1082E000824200F2F880841A66EB03060120B4464D
:1082F000002D40D085E81010BDE8F08712B90127A5
:10830000B7FBF2F7B7FA87FEBEF1000F35D1F31BCA
:108310004FEA17481FFA87FC0121B3FBF8F0220C43
:1083200008FB103642EA06460CFB00F3B34207D9BD
:10833000F61900F1FF3202D2B34200F2CE801046AD
:10834000F61AA2B2B6FBF8F308FB136642EA06443B
:108350000CFB03FCA44507D9E41903F1FF3202D258
:10836000A44500F2B5801346CCEB040443EA004078
:108370009CE729462846BDE8F087CEF1200106FAA1
:108380000EF307FA0EF720FA01F94FEA1748CE402C
:1083900049EA0309B6FBF8FA4FEA194408FB1A66E2
:1083A0001FFA87FC44EA06430AFB0CF29A4200FAE1
:1083B0000EF40AD9DB190AF1FF3180F087809A4266
:1083C00040F28480AAF1020A3B449B1A1FFA89F901
:1083D000B3FBF8F108FB113349EA034301FB0CF648
:1083E0009E4207D9DB1901F1FF326BD29E4269D957
:1083F00002393B449B1B41EA0A418EE7C1F1200E42
:1084000022FA0EF48B40234320FA0EF706FA01F409
:108410004FEA134C26FA0EF63C43B6FBFCF9270C48
:108420000CFB19661FFA83F847EA064609FB08F7B2
:10843000B74202FA01F200FA01FA08D9F61809F176
:10844000FF3041D2B7423FD9A9F102091E44F61BC1
:10845000A0B2B6FBFCF40CFB146640EA064704FB32
:1084600008F8B84507D9FF1804F1FF3028D2B845FD
:1084700026D9023C1F4444EA0940C8EB0707A0FB89
:1084800002894F4544464E4614D329D065B3BAEB12
:10849000040367EB060707FA0EFECB40CF404EEA17
:1084A000030385E888000021BDE8F0871346F8E65D
:1084B0001046E0E6B8EB020469EB03060138E5E795
:1084C0000446D8E7114695E78146C0E78A467CE72F
:1084D000023B3C4448E708460AE702383E442FE79F
:1084E000C245E7D33E46D1E72946BDE8F08700BF45
:1084F000704700BF10B5054C13462CB10A46014623
:108500000220AFF3008010BD204610BD0000000027
:1085100010B5431E0A44914204D011F8014B03F8F0
:10852000014FF8E710BD02440346934202D003F81E
:10853000011BFAE77047000038B5124B1C68A36BAB
:108540000546D3B91820FCF763FD43F20E33A06350
:1085500003804AF6CD33438041F2342383804EF2C8
:108560006D63C3804DF6EC630381052343810B23C8
:10857000838101220023C0E90423A36B00221D6133
:108580005A6138BD7CE30320034613F8012B002A0F
:10859000FBD1181A0138704721400D005D400D00D5
:1085A00089400D008D400D0000000000424D453215
:1085B0003830207465737400436F756C64206E6F7F
:1085C000742066696E6420612076616C6964204263
:1085D0004D453238302073656E736F722C2063689E
:1085E00065636B20776972696E672C2061646472C1
:1085F0006573732C2073656E736F7220494421007C
:1086000053656E736F724944207761733A203078F6
:108610000020202020202020204944206F66203088
:108620007846462070726F6261626C79206D656178
:108630006E7320612062616420616464726573738B
:108640002C206120424D5020313830206F72204262
:108650004D50203038350A002020204944206F66D4
:1086600020307835362D3078353820726570726557
:1086700073656E7473206120424D50203238302C67
:108680000A0020202020202020204944206F66203E
:108690003078363020726570726573656E74732041
:1086A0006120424D45203238302E0A002020202003
:1086B000202020204944206F6620307836312072F7
:1086C0006570726573656E7473206120424D45203C
:1086D0003638302E0A002D2D2044656661756C7485
:1086E0002054657374202D2D0054656D7065726182
:1086F00074757265203D2000202A43005072657316
:1087000073757265203D20002068506100417070D3
:10871000726F782E20416C746974756465203D20F9
:1087200000206D0048756D6964697479203D2000F2
:1087300020250000000000000000000095420D0010
:1087400064656661756C7420004D5342004C534261
:10875000003C53504953657474696E6773206465B7
:108760006661756C743E003C53504953657474697E
:108770006E6773202573256C75202573204D4F443B
:108780004525643E000000000000000000000000DD
:10879000AF500D00A5500D009B500D0091500D00E5
:1087A00085500D0079500D006D500D0065500D0085
:1087B0005B500D0051500D00AD5D0D00000000003C
:1087C00000000000CD500D00CF500D000008101823
:1087D000202830386E616E006F7666002E00696E5C
:1087E0006600626175640053657269616C0053656F
:1087F0007269616C31007479706500706172616DCD
:1088000000636D6400696400686E64007374726D67
:108810000066696C74006C766C0061646448616E1B
:10882000646C65720072656D6F766548616E646C2C
:10883000657200656E756D48616E646C657273007B
:108840004A534F4E53747265616D4C6F6748616E49
:10885000646C6572006170700025303130752000E5
:108860005D20002564002C200028293A2000205B90
:1088700000636F6465203D200025690064657461B4
:10888000696C73203D20000D0A006C6E00666E005E
:10889000636F64650064657461696C006E6F6E651A
:1088A00000747261636500696E666F007761726E55
:1088B000006572726F720070616E696300616C6C4A
:1088C000005A00252B3033643A2530327500255983
:1088D0002D256D2D25645425483A254D3A255325DF
:1088E0007A0061736374696D650000000000000028
:1088F0000000000051570D0041570D0043570D0077
:10890000000000000000000029580D0079580D00FB
:1089100087580D00F1520D0065580D002B580D00C1
:1089200041580D0073580D0057580D0025580D0083
:10893000000000000000000041590D0091590D0099
:108940009F590D00F1520D0055590D0077590D003A
:1089500063590D008B590D0043590D0047590D0007
:108960000000000000000000455A0D008F5A0D0065
:10897000675A0D00475A0D006F5A0D00775A0D00C7
:108980007F5A0D00875A0D00000000000000000013
:10899000AB5B0D00A15B0D00975B0D008D5B0D00C7
:1089A000815B0D00755B0D00695B0D00615B0D0067
:1089B000575B0D004D5B0D00AD5D0D00000000002C
:1089C00000000000275D0D001D5D0D00135D0D0012
:1089D000C95C0D00075D0D00FB5C0D00EF5C0D0038
:1089E000E75C0D00DD5C0D00D35C0D00AD5D0D009E
:1089F0000000000000000000455D0D004F5D0D000F
:108A0000595D0D00635D0D006D5D0D00795D0D001C
:108A1000855D0D00915D0D00995D0D00A35D0D005C
:108A2000AD5D0D0000000000706F770000000000D9
:108A3000000000000000304300000000000030C3D0
:108A40000000000000000000000000000000000026
:108A50000000000000000000000000000000000016
:108A60000000000000000000000000000000000006
:108A700000000000000000000000000000000000F6
:108A800000000000000000000000000000000000E6
:108A900000000000000000000000000000000000D6
:108AA00081420D00F54B0D00B9500D0085520D00AF
:108AB000C9520D00CD550D00DD550D0015560D00A8
:108AC000795C0D00315D0D00795E0D0051600D0087
:108AD000D5600D0099610D005D620D000000000081
:088AE0002CF7FF7F01000000EC
:048AE800000000008A
:108AEC00E2880D000100000000000000408A0D002B
:108AFC00608A0D00808A0D0000000000000000005C
:108B0C000000000000000000FA860D0000000000CC
:108B1C000000000000000000000000000000000049
:108B2C000000000000000000000000000000000039
:108B3C000000000000000000000000000000000029
:0C8B4C0000000000000000001CE30320FB
:108B5800FFFFFFFF00000102030405060708090ADA
:108B68000B0C0D0E0F101112131415161718191AD5
:088B78001B1C1D1E1F2028001C
:048B800078563412DD
:04000003D0004020C9
:00000001FF
