:02000002D0002C
:1040000000400D0018900D00000006000D00050195
:084010000401E80500000000B6
:0440180028800D00EF
:1040200009480A49884208B505D0094A824202D0A7
:10403000121A03F0ABFE0748074A0021121A03F0D8
:10404000B0FE014808BD00BF1CDE0320748B0D00CC
:1040500098E2032098E20320F0E7032070B502F015
:1040600089F9074C074BE41AA40800251E46A5420F
:1040700004D056F8253098470135F8E770BD00BFE9
:10408000708B0D00288B0D0000F05CB808B500F0B7
:1040900035FABDE8084002F02FB901F0ABBE01F0DF
:1040A000B1BE01F0AFBE000008B5034A00210C20EC
:1040B00001F0F4FDFEE700BF7D5A0D000078B0FA74
:1040C00080F040097047012303707047704700007B
:1040D00010B5034B0360044600F0C8FF204610BD36
:1040E00044800D0010B50446FFF7F2FF20464FF460
:1040F000987103F0C1F8204610BD000010B50F4CB8
:10410000204600F017FC2046022100F085FF2046E3
:10411000012100F086FF05222046142100F079FFDE
:104120000749204602F023F8204600F03DFD2046D6
:104130000121BDE8104000F06FBF00BF78E303200D
:104140004C800D0008B502F0D9FC4FF4165102F076
:10415000C9FC02F0A7FD4FF4165102F09DFD01F0DD
:1041600095FC094B1860094B094801221A7002217D
:104170003C2200F047FCFFF7C1FF03210220BDE80D
:10418000084002F0CBBF00BFA0E303209CE3032064
:1041900078E3032038B504462DED028B0D46B0EED2
:1041A000408A01F06BF829462046012200F0DAFF30
:1041B00020463A2100F08AFFB0EE480ABDEC028B9F
:1041C0002046BDE8384001F07DB8000010B52DED67
:1041D000048BD2B04FF4807212A906A8F0EE608A68
:1041E000B0EE418AB0EE409A00F05EFF384B069385
:1041F0000B21012002F0F1FD7D2204467B2106A85F
:1042000001F047F8B0EE490A324906A8FFF7C2FFAD
:10421000B0EE680A304906A8FFF7BCFFB0EE480AC6
:104220002E4906A8FFF7B6FF06A801F027F80122DD
:104230002B4906A800F096FF3A2106A800F046FF99
:104240002246284906A800F080FF079B0393264BCF
:10425000039A1B788DF8003024493C2304A802F00F
:10426000F7F9059C7CB16368013B63605BB9236827
:1042700020469B689847A368013BA3601BB923684D
:104280002046DB6898471A4800F054FB0221184882
:1042900000F0C2FE0121164800F0C3FE05221421E1
:1042A000134800F0B6FE1349114801F060FF1048B2
:1042B00000F07AFC01210E4800F0AEFE06A800F0E6
:1042C00013FF06A8FFF704FF52B0BDEC048B10BD2E
:1042D00044800D005C800D0065800D006F800D0036
:1042E00078800D0082800D0074E3032085800D002E
:1042F00078E303208E800D002DE9F04F724CADB0B5
:1043000001F0C4FB2368C01A41F28733984240F29F
:10431000D78001F0BBFB20606C4C2378002B00F0B1
:10432000C28001F0B3FB636BC01A42F20F73984274
:1043300000F2B980204601F0BBF851EC100B03F0FD
:10434000C3FC0546204601F0DBF851EC100B03F0EE
:10435000BBFC4FF0000A84F879A00646D4F8800030
:1043600003F03AFA5A4B002203F0C6FB03F0ACFC10
:10437000074604F1480001F00FF9834604F14800B4
:1043800001F014F9804604F1480001F01DF981465E
:1043900004F1480001F024F9BBF1070F84F889A06B
:1043A0000346D4F890A002D9ABF1070401E00BF169
:1043B00011040693E4B202F0A1FB069B454A029366
:1043C000002123468DE8000301F0FBFE02F096FB7E
:1043D0008346284603F012FACDE90601304603F081
:1043E0000DFACDE90801384603F008FA9DED087B87
:1043F0008DED027B9DED067BCDE90A01CDE904013F
:10440000354A8DED007B0021584601F0DAFE334B32
:104410001A7872B100221A7001F038FB304B1B6819
:10442000C3EB000B02F06AFB5B462E4A012101F050
:10443000C8FE2D4800F07EFA002211462A4800F0FE
:10444000E8FD2346294A284800218DE8000301F0B1
:10445000B8FE9DED0A7B8DED047B9DED087B8DED17
:10446000027B9DED067B224A1F488DED007B0021DB
:1044700001F0A7FE5FFA8AF31E4A1B48002101F0F3
:10448000A0FE194800F090FB022002F071FEB8B1C6
:1044900001EE107A00EE906A00EE105A2DB0BDE8E1
:1044A000F04FFFF793BE14490CA803F0EFFC0B4B41
:1044B0001A782AB901221A7001F0E8FA084B18603C
:1044C0002DB0BDE8F08F00BFA4E303209CE20320E1
:1044D0000000594096800D00B5800D009CE303203C
:1044E000A0E30320D2800D0078E30320F2800D00CA
:1044F00009810D0025810D0034810D0008B502F001
:10450000D1FB03681B69984700280DDD02F0CAFB48
:1045100003685B699847C1B2044801F0C5F90028F7
:10452000EDD0FFF7E9FEEAE708BD00BF9CE20320FB
:1045300010B52421044602F09FFE204610BD000065
:1045400038B50C4B0C4D01241C7001F017FA0421F6
:10455000284600F0D9F9094A0949284602F07EFEAA
:104560002046002101F0B2FB0648BDE8384000F0CB
:10457000CDBE00BF74E3032078E3032098E203205C
:10458000CD400D009CE20320F0B5447EBDF81450F0
:10459000022C08D0032C0FD0012C70D10489013CCF
:1045A000A21A12B20CE04489013CA21A0489E41A4E
:1045B000611A12B209B262E04489E41A611A09B2BE
:1045C000002A5BDBB0F90840944240F39080002958
:1045D000BEBF5B181BB20021B0F90A00CC188442A0
:1045E000C4BF431A1BB2002B40F38180C9B2C80874
:1045F0003F4F02EBC01211F00701DBB207EB0204E0
:1046000017D0C1F10801C8B23A4983420E5C3FBFDE
:10461000C3EB000EFF2141FA0EF10E40B95C012DF3
:104620000CBF3143B1438342B95460D3181AC3B2AB
:104630008034072B17D9012D0CBFFF20002004F177
:1046400080011A46083AD2B2072A01F8800C01F11B
:104650008001F7D8A3F10802C2F3C402013204EBCF
:10466000C21403F00703002B41D0234AD25C237805
:10467000012D0CBF134393432370F0BDF0BD002AFE
:1046800035DBB0F90A40944231DD0029BCBFC918BE
:104690000BB2B0F90870B8BF0021CE18BE42C4BF3B
:1046A000631A1BB2002B22DDD01001EBC0111048A1
:1046B00002F007020144012000FA02F28542D2B260
:1046C00009D1013B1BB25C1C11D011F8010B104346
:1046D00001F8010CF5E7D243D2B2013B1BB2581CE2
:1046E00005D011F8010B104001F8010CF5E7F0BD01
:1046F0002CDE032024DE03201CDE0320F0B5447EE4
:10470000BDF81450022C08D0032C0FD0012C12D16C
:104710000489E41AA21A12B26DE00489013C611AFC
:104720004489E41AA21A09B212B204E04489013C95
:10473000611A09B25FE000295CDBB0F908408C42E5
:1047400040F39180002ABCBFD21813B2B0F90A001E
:10475000B8BF0022D4188442C4BF831A1BB2002BF6
:1047600040F38180D4B2404EDAB2E30801EBC311CA
:1047700014F0070406EB010317D0C4F10804E0B2FB
:104780003A4C8242275C3FBFC2EB000EFF2444FA42
:104790000EF42740745C012D0CBF3C43BC438242A5
:1047A000745460D3101AC2B28033072A17D9012D6E
:1047B0000CBFFF24002403F1800011460839C9B260
:1047C000072900F8804C00F18000F7D8A2F1080119
:1047D000C1F3C401013103EBC11302F00702002A47
:1047E00041D02349895C1A78012D0CBF0A438A43C2
:1047F0001A70F0BDF0BD002935DBB0F90A408C42DB
:1048000031DD002ABCBFD21813B2B0F90870B8BFAE
:104810000022D618BE42C4BFA31A1BB2002B22DD51
:10482000C81002EBC012104801F007011044012229
:1048300002FA01F19542C9B209D15A1E13B25C1CA9
:1048400011D010F8012B0A4300F8012CF5E7C943F9
:10485000C9B25A1E13B25A1C05D010F8012B0A40D7
:1048600000F8012CF5E7F0BD2CDE032024DE032048
:104870001CDE0320F8B50D1E064614461F463FDB1E
:1048800000F0D4FB85423BDA002C39DB304600F0E7
:10489000D0FB844234DA304600F0C6FB022827D130
:1048A0003189708901390138491B001B0DB204B2EE
:1048B00006E0012804D13389013B1B1B2C461DB2A5
:1048C0000820012F94FBF0F000B20E4B04F0070219
:1048D00005EBC01104D197405A5C17435F54F8BDF3
:1048E000585C012707FA02F220EA02025A54F8BD86
:1048F0000328DED17389013B5B1B25461CB2DFE731
:10490000F8BD00BF2CDE032038B5402204460D461A
:10491000802100F09FFA064B2360FF23637784F821
:104920002130E377A37784F82050204638BD00BFBC
:1049300048810D004FF480620021014803F031BA34
:104940002CDE032038B5094D296811F001040AD185
:104950002846FFF7B3FB30B12146054801F0B6FA0F
:104960002846FFF7B0FB024838BD00BFA8E303208C
:10497000ACE3032038B590F91D30013304460D46F1
:1049800028D090F92100012180B202F0D8FB94F9DF
:104990001F00002180B202F0D2FB94F92100002117
:1049A00080B202F0CCFB94F822302BB1FFF7CAFFA3
:1049B000294601F035FB05E02B460122A17F607FEF
:1049C00002F0E9FB94F92100012180B2BDE83840F2
:1049D00002F0B5BB02F01CFC94F91B1002F0E4F9E4
:1049E00002F016FC036800219B68984702F010FC57
:1049F000036829469B68984702F00AFCBDE83840E6
:104A000002F0D9B938B504460D46217790F91D302A
:104A1000C276013337D090F91F00012180B202F035
:104A20007DFB94F92100012180B202F077FB94F81C
:104A300022305BB994F91D00012180B202F06EFBB7
:104A400094F91E00012180B202F068FB94F8223034
:104A5000EBB194F92100012180B202F070FBFFF765
:104A600071FF012101F04DFAFFF76CFF102101F0F9
:104A7000B3FAFFF767FF002101F054FAFFF762FF76
:104A800001F02EFA03E002F0C3FB02F083F994F97F
:104A90002000012180B202F041FB94F920000121A5
:104AA00080B202F04CFB012001F0D8FB94F9200009
:104AB000002180B202F043FB0A2001F0CFFB94F901
:104AC0002000012180B202F03AFB2046AE21FFF720
:104AD00051FF2046D521FFF74DFF20468021FFF7EB
:104AE00049FF2046A821FFF745FF20463F21FFF759
:104AF00041FF2046D321FFF73DFF20460021FFF76D
:104B000039FF20464021FFF735FF8D212046FFF772
:104B100031FF012D0CBF102114212046FFF72AFF81
:104B200020462021FFF726FF20460021FFF722FF25
:104B30002046A121FFF71EFF2046C821FFF71AFFDC
:104B40002046DA21FFF716FF20461221FFF712FF59
:104B500081212046FFF70EFF012D0CBF9F21CF21A1
:104B60002046FFF707FFD9212046FFF703FF012D5D
:104B70000CBF2221F1212046FFF7FCFE2046DB215D
:104B8000FFF7F8FE20464021FFF7F4FE2046A4215F
:104B9000FFF7F0FE2046A621FFF7ECFE2046AF21EE
:104BA000BDE83840FFF7E6BE2DE9F041212104467B
:104BB000FFF7E0FE00212046FFF7DCFE7F212046C4
:104BC000FFF7D8FE22212046FFF7D4FE0021204621
:104BD000FFF7D0FE07212046FFF7CCFE94F91D30E9
:104BE000DFF8BC80013335D094F92100012180B277
:104BF00002F0A5FA94F91F00012180B202F09FFA99
:104C000094F92100002180B202F099FA012000F00D
:104C100035FF002594F8223018F805602BB1FFF716
:104C200091FE314601F0FCF905E033460122A17FF7
:104C3000607F02F0B0FA0135B5F5806FEAD101204E
:104C400000F01CFF94F92100012180B2BDE8F04181
:104C500002F075BA002502F0DBFA94F91B1002F09D
:104C6000A3F802F0D5FA036840219B689847002614
:104C700002F0CEFAAF190368BFB29B6818F80710AC
:104C800001369847102EF3D1103502F0C1FAADB2BB
:104C900002F091F8B5F5806FDDD1BDE8F08100BF7D
:104CA0002CDE032000F06ABE2DE9F04F85B01E46D1
:104CB000BDF93830BDF83CA015469A1A002AB8BF95
:104CC00052420092721A002AB8BF524201920C4618
:104CD000009A01998A42814605DD32461E461346F6
:104CE00022462C461546B44205DD2A461D4613468B
:104CF0002246344616465A1B002AB8BF5242C4EB1D
:104D000006089D42B4BF01234FF0FF331FFA88F815
:104D1000029303920FFA88F7022297FBF2F7B4424C
:104D20001FDC019A009B9342D9F80030C8BF22468D
:104D3000D3F810B0C8BF29465346DCBF2A462146E7
:104D40004846D847039BFF1ABBB21FB2002F05DAB3
:104D5000029A08EB030715442DB23FB2013424B286
:104D6000DDE705B0BDE8F08F2DE9F347BDF82C6015
:104D70000768BDF928A000960446FF6991460D46D4
:104D80009846B847236800960AF1FF324A44DF6923
:104D900029464346204612B2B847236800969F69C9
:104DA0004A46534629462046B84723680A9608F1E2
:104DB000FF3129449D694A46534609B22046AC4614
:104DC00002B0BDE8F047604737B5013B13440468C3
:104DD000BDF8185001951BB2009364690B46A047BB
:104DE00003B030BD37B5BDF8185004688DE8240015
:104DF000013B0B4464691BB2A04703B030BD2DE9F1
:104E0000F347BDF92880BDF82C90054617460C469F
:104E100001EB030A54450BDA2B68CDF800909E692C
:104E2000214643463A4628460134B04724B2F1E7CA
:104E300002B0BDE8F08713B5B0F90E200468019107
:104E400000920022B0F90C30646A1146A04702B00B
:104E500010BD704730B501810024084D4281818129
:104E6000C2814FF6FF7101224460056044760482DE
:104E700044820276C1828182827630BD80810D00BB
:104E80002DE9F04F8FB005460691BDF860100791EF
:104E9000BDF864100891B0F90C1006989DF8688070
:104EA00081427CDDB5F90E10914278DD062111FBBF
:104EB0000800002873DD02EBC80000286FDD03EB5B
:104EC000830396B20C9306F108039BB20991002468
:104ED0000D93052C1CBF334B0C9A059616BF1B195E
:104EE0004FF0000913F8029004961FFA88F3039319
:104EF000039ABDF8183004FB023213FA84F312B29D
:104F00001BB20A9237460FFA88FA0B9319F0010F79
:104F100011D0B8F1010F2B6803D1D3F810B0079B63
:104F200014E0079A0192CDF800A0D3F824B0BDF99F
:104F30001020534618E0079B089A934217D0B8F107
:104F4000010F2B6807D1D3F810B013463AB20B9972
:104F50002846D8470BE0089A0192CDF800A0BDF989
:104F60001420D3F824B053460A992846D847049B06
:104F7000039A13449BB20493059B13449BB20137DD
:104F800005930D9BBFB29F424FEA5909BED1099BC1
:104F9000013B013413F0FF0364B2099399D10FB0C0
:104FA000BDE8F08FB0810D0030B50A2985B0044608
:104FB0000B4604D1027E438A03EBC20323E00D2992
:104FC00024D0057EB0F91220B0F910100295C58AE0
:104FD0000195858A0095FFF753FF227E238A91B2BF
:104FE00001EB410003EB4003A07E1BB2238268B1BA
:104FF000B4F90C006FF0050505FB0202934205DDD4
:10500000638A03EBC103638200232382012005B07E
:1050100030BD018242827047002908BF012101761C
:105020007047C18281827047407E7047B0F90C00A2
:105030007047B0F90E00704700F0A0BC10B5054BEA
:105040000360037C04461BB9406808B100F0DAFE37
:10505000204610BDB4860D0010B50446FFF7EEFFE4
:105060002046142102F008F9204610BD10B5034B6C
:1050700003600446FFF7E2FF204610BDC4860D0022
:1050800010B50446FFF7F2FF2046302102F0F4F895
:10509000204610BD00230122C3604361027643769F
:1050A00080F82A3070470000002310B5C360012348
:1050B0000374054B03604FF0FF3341608260C362AD
:1050C000FFF7E8FF10BD00BFC4860D00C36882680B
:1050D00010B593423FBF42685C1CC460D15424BFEA
:1050E000012380F82A3010BD10B54369044643B14E
:1050F00000EB4303597E09B1FFF7E8FF6369013B09
:105100006361A368E068616898424FF000022ABFBB
:105110005B180A5403F8012C10BD70B50446C06832
:10512000A56866682D1A134630440A46294600F0E1
:1051300071FE85422DBFE368A368E360C01836BFE7
:105140000123E06084F82A3070BD0EB403B503AAD1
:1051500052F8041B0192FFF7E0FF02B05DF804EB88
:1051600003B070472DE9F04104460E46174612B1D0
:105170002221FFF7ABFF0025715D06EB0508002932
:1051800071D0E268A3689A426DD20B0633D501F064
:10519000F003E02B17D198F8013003F0C002802A09
:1051A00011D105F1020816F8082002F0C00080288D
:1051B00009D102F03F029B0142EA013203F47C6311
:1051C0001A4392B211E001F0E003C02B46D105F181
:1051D000010816F8083003F0C002802A3ED1890188
:1051E00001F4F86203F03F031A4323492046FFF716
:1051F000ACFF454635E00C2918D00BD8092921D041
:105200000A2919D0082929D15C212046FFF75EFF21
:10521000622123E022291BD05C2919D00D291DD140
:105220005C212046FFF752FF722117E05C212046E7
:10523000FFF74CFF662111E05C212046FFF746FF97
:105240006E210BE05C212046FFF740FF742105E052
:105250005C212046FFF73AFF98F800102046FFF740
:1052600035FF013588E72FB120462221BDE8F04106
:10527000FFF72CBFBDE8F081D5860D00426900EB39
:1052800042031A7E12B100221A7670472C21FFF7D2
:105290001DBFF8B543690133082B0E4617460ED8DB
:1052A000FFF7ECFF43695A1C00EB43030124426102
:1052B00031469C76DF76FFF709FF2046F8BD0020D7
:1052C000F8BD000037B5044610EE100AE56A002D5F
:1052D0000ADB02F093FA2A46CDE90001084920468C
:1052E000FFF733FF03B030BD02F088FA0B460549E3
:1052F0000246204603B0BDE83040FFF726BF00BF9E
:10530000E7860D00EC860D0000F038BB002202217C
:105310000270427082808260027302824261027671
:105320008283026280F824200285C26280F83020E5
:1053300080F8382080F83920C26380F8482080F84F
:105340004920C26480F8582080F85920026680F80D
:10535000682080F86920026780F8782080F879203A
:10536000C0F8802080F8882080F88920C0F890203C
:1053700080F8982080F89920C0F8A02080F8A82014
:1053800080F8A92080F8B91080F8BA2080F8BB20F6
:1053900080F8BC20C0F8C020C0F8C420C0F8C820E5
:1053A000C0F8CC20C0F8D020C0F8D42080F8AA20C3
:1053B0007047A1F14103052B02D8A1F137007047D6
:1053C000A1F16103052B94BFA1F15700A1F13000B9
:1053D000704738B5057804462D2D08BF01342046A6
:1053E00002F0C2FC64235843224614F8013BA3F1A7
:1053F00030010929F8D92E2B0BD15378303B092BDA
:1054000007D80A2101FB03009378303B092B98BF92
:10541000C0182D2D08BF404238BD000038B50446E5
:105420000D4602F0A1FC6423B0FBF3F203FB120073
:10543000114B2A80434320460278A2F1300109290A
:10544000044600F10100F7D92E2A0BD10A490A209F
:1054500014F8012F303A092A04D8B1FBF0F101FB0E
:105460000233F5E703EB830301330322B3FBF2F3CB
:105470006B6000232B7238BD8096980010B50346F0
:10548000044653F81C2F42605A6882601B7A0373EB
:10549000034653F8282F02615A6842611B7A03764B
:1054A00000F0F4FA012360636370237010BD000004
:1054B000D0B5002304464370806802F07DF90EA346
:1054C000D3E9002302F018FB0646A0880F4602F03D
:1054D00083F90B4602463946304602F031F8237B09
:1054E0001BB1024601F1004301E002460B4643ECCA
:1054F000102BD0BDAFF300800000000065CDCD4182
:10550000D0B5002304464370406902F055F90EA35C
:10551000D3E9002302F0F0FA0646208A0F4602F093
:105520005BF90B4602463946304602F009F8237E05
:105530001BB1024601F1004301E002460B4643EC79
:10554000102BD0BDAFF300800000000065CDCD4131
:1055500010B583684360044600F098FA0123E060C8
:105560006370237010BD10B583684360044600F07B
:105570008DFA0123E0606370237010BD10B50446FE
:105580000846FFF726FFA06010BD10B50446084688
:1055900002F0EAFBA06010BD00234370436802489C
:1055A000B3FBF0F0C0B2704740420F0000234370DD
:1055B000436842F21070B3FBF0F36420B3FBF0F2E7
:1055C00000FB1230C0B27047002343704368642070
:1055D000B3FBF0F3B3FBF0F200FB1230C0B2704744
:1055E0000023437040686422B0FBF2F302FB130017
:1055F000C0B2704710B5C3688360044600F046FA35
:10560000012360606370237010BD10B50446084626
:10561000FFF7DFFEE06010BD10B5C368836004468D
:1056200000F034FA012360606370237010BD10B580
:105630000446084602F098FBE06010BD10B5014634
:105640000446103002F022FC00F020FA0123206210
:1056500084F8253084F8243010BD102202F041BCBB
:10566000F8B590F8A9500446002D67D090F8AA101C
:10567000FFF79FFE94F8AB1002462046FFF799FE15
:1056800094F8A83000EB0210C0B283424FD1D4F896
:10569000D4300133C4F8D43094F8BC3023B1D4F8FA
:1056A000CC300133C4F8CC3094F8B930B3B1012B0D
:1056B0002AD104F13800FFF74BFF04F14800FFF74F
:1056C00052FF94F8BC30FBB12046FFF7D7FE04F13F
:1056D0005800FFF78FFF04F1680013E004F1480061
:1056E000FFF741FF94F8BC3033B12046FFF7C6FE08
:1056F00004F17800FFF77EFF04F18800FFF78CFFCC
:1057000004F19800FFF776FFD4F8C460002E00F093
:10571000C580D4F8C430B06A996A02F0ADFB0028A5
:1057200040F0BC803046FFF789FF366BEEE7D4F8D7
:10573000D0300133C4F8D0300025AFE090F8BA2063
:105740002ABB00F1AA075649384602F095FB08B972
:10575000012308E05349384602F08EFB10B984F863
:10576000B95002E0022384F8B930D4F8C030C4F84C
:10577000C430D4F8C460002E00F090803946B06A7E
:1057800002F07AFB002880F28580336BEFE790F817
:10579000B910022966D090F8AA30002B62D042EAF4
:1057A0004112013A282A5DD8DFE802F01520232AA9
:1057B00031464D53575C5C5C5C5C5C5C5C5C5C5C87
:1057C0005C5C5C5C5C5C5C5C5C5C5C5C151B202316
:1057D0002A31383C400000F1AA014830FFF7CEFEE4
:1057E00040E0A3F141004342434129E000F11C01A4
:1057F00008E0A3F153014B424B4180F8243031E0E3
:1058000000F1280104F1AA00FFF708FE2AE0A3F145
:1058100057025342534180F8303023E000F1AA018F
:1058200058301DE000F1AA01683019E000F1AA012A
:105830003830FFF7AAFE15E0302B94BF0023012378
:1058400084F8BC300EE000F1AA018830FFF7EFFECB
:1058500008E000F1AA01983002E000F1AA017830D6
:10586000FFF7D3FED4F8C46004F1AA07B6B1D4F8A8
:10587000C430B06A996A02F0FFFA78B9F26A94F813
:10588000BA309A420ADC03D139463046FFF7E5FECA
:10589000366BEBE702D00023C4F8C4302846F8BDCD
:1058A000F9860D00FF860D0038B5D0F8C8302429E0
:1058B00003F1010304460D46C0F8C8302AD090F821
:1058C000BB3004D80A290CD00D2932D109E02A298D
:1058D00007D02C292DD190F8A82082F02C0280F836
:1058E000A8200E2B4FF0000005D8234483F8AA000F
:1058F0002046FFF7B5FE94F8BA30013384F8BA3089
:10590000002384F8BB30A5F12A035D425D4184F891
:10591000A95038BD0020022384F8BB0084F8BA00E7
:1059200084F8A80084F8B93084F8A90084F8BC0091
:1059300038BD0D2B9FBF5A1C1B1984F8BB2083F860
:10594000AA5094F8A90028B994F8A8104D4084F8FA
:10595000A85038BD002038BD00F010B808B5024B83
:105960001B689B68019308BD6802030008B5024BE1
:105970001B68DB68019308BD6802030008B5024B91
:105980001B681B68019308BD2C02030008B5024B7D
:105990001B689B68019308BD2C02030008B5024BED
:1059A0001B68DB68019308BD2C02030008B5024B9D
:1059B0001B681B69019308BD2C02030008B5024B4C
:1059C0001B685B69019308BD2C02030008B5024BFC
:1059D0001B681B68019308BD3002030008B5024B29
:1059E0001B689B68019308BD3002030008B5024B99
:1059F0001B68DB68019308BD3002030008B5024B49
:105A00001B681B69019308BD3002030008B5024BF7
:105A10001B685B69019308BD3002030008B5024BA7
:105A20001B68DB69019308BD3002030008B5024B17
:105A30001B681B6A019308BD3002030008B5024BC6
:105A40001B685B6A019308BD3002030008B5024B76
:105A50001B681B6C019308BD3002030008B5024BA4
:105A60001B685B6C019308BD3002030008B5024B54
:105A70001B685B68019308BD1802030008B5024B60
:105A80001B68DB68019308BD1802030008B5024BD0
:105A90001B685B69019308BD1802030008B5024B3F
:105AA0001B689B68019308BD4802030008B5024BC0
:105AB0001B681B69019308BD4802030008B5024B2F
:105AC0001B685B69019308BD4802030008B5024BDF
:105AD0001B685B6C019308BD4802030008B5024BCC
:105AE0001B689B6C019308BD4802030008B5024B7C
:105AF0001B685B69019308BD6402030008B5024B93
:105B00001B681B68019308BD3C02030008B5024BEB
:105B10001B68DB68019308BD3C02030008B5024B1B
:105B20001B681B69019308BD3C02030008B5024BCA
:105B30001B685B69019308BD3C02030008B5024B7A
:105B40001B689B69019308BD3C02030008B5024B2A
:105B50001B68DB69019308BD3C02030008B5024BDA
:105B60001B681B6A019308BD3C02030008B5024B89
:105B70001B689B6A019308BD3C02030008B5024BF9
:105B80001B68DB6A019308BD3C02030008B5024BA9
:105B90001B68DB68019308BD2802030008B5024BAF
:105BA0001B689B69019308BD2802030008B5024BDE
:105BB0001B68DB69019308BD2802030008B5024B8E
:105BC0001B681B6A019308BD2802030008B5024B3D
:105BD0001B685B6A019308BD2802030008B5024BED
:105BE0001B689B6A019308BD2802030008B5024B9D
:105BF0001B68DB6A019308BD2802030008B5024B4D
:105C00001B681B6B019308BD2802030008B5024BFB
:105C10001B685B6B019308BD2802030008B5024BAB
:105C20001B681B6C019308BD2802030008B5024BDA
:105C30001B681B68019308BD4C02030008B5024BAA
:105C40001B685B68019308BD4C02030008B5024B5A
:105C50001B681B69019308BD4C02030008B5024B89
:105C60001B685B69019308BD4C02030008B5024B39
:105C70001B689B69019308BD4C02030008B5024BE9
:105C80001B68DB69019308BD4C02030008B5024B99
:105C90001B681B6A019308BD4C02030008B5024B48
:105CA0001B685B6B019308BD6002030008B5024BE3
:105CB0001B685B68019308BD2002030008B5024B16
:105CC0001B685B69019308BD2002030008B5024B05
:105CD0001B68DB6A019308BD2002030008B5024B74
:105CE0001B68DB6C019308BD2002030008B5024B62
:105CF0001B685B6D019308BD2002030008B5034BD0
:105D00001B68D3F88830019308BD0000200203000F
:105D100008B5034B1B68D3F89430019308BD00000D
:105D20002002030008B5024B1B685B68019308BDA5
:105D30004002030008B5024B1B689B68019308BD35
:105D40004002030008B5024B1B68DB68019308BDE5
:105D50004002030008B5024B1B681B69019308BD94
:105D60004002030008B5024B1B685B69019308BD44
:105D70004002030008B5024B1B689B69019308BDF4
:105D80004002030008B5024B1B68DB69019308BDA4
:105D90004002030008B5024B1B681B6A019308BD53
:105DA0004002030008B5024B1B681B6B019308BD42
:105DB0004002030008B5024B1B685B6B019308BDF2
:105DC0004002030008B5024B1B685B69019308BDE4
:105DD0004402030008B5024B1B681B6A019308BD0F
:105DE0004402030008B5024B1B68DB6B019308BD3E
:105DF0004402030008B5024B1B681B68019308BDF1
:105E00001C02030008B5024B1B685B68019308BDC8
:105E10001C02030008B5024B1B685B6A019308BDB6
:105E20001C02030008B5024B1B68DB6A019308BD26
:105E30001C02030008B5024B1B681B6B019308BDD5
:105E40001C020300002211464068FFF7A3BF002296
:105E500011464068FFF7AEBF00224068FFF7A2BFBF
:105E6000002281F001014068FFF78CBF00231A4631
:105E700019464068FFF77EBF00231A46194640685E
:105E8000FFF770BF002211464068FFF763BF002292
:105E900011464068FFF74EBF002202214068FFF71D
:105EA00051BF00231A464068FFF73CBF024B032254
:105EB0005A60024A1A607047B4E3032034870D0029
:105EC0000021FFF7C3BD0021FFF7C8BD10B5044690
:105ED00001700846FFF7A2FD00236360204610BD55
:105EE00010B504460078FFF7EBFF48B920784FF66D
:105EF000FF71FFF76BFD2078BDE81040FFF7E3BFAF
:105F000010BD38B5044600780D46FFF7D9FF40B9FB
:105F100020782946FFF762FD2078BDE83840FFF77A
:105F2000D2BF38BD38B5044600780D46FFF7C8FF2C
:105F300040B920782946FFF759FD2078BDE8384060
:105F4000FFF7C1BF38BD0000400830B5186000241D
:105F500018688842E5B206D90134082C02D04008FE
:105F60001860F5E70725024B5B5D137030BD00BF7D
:105F700060870D002DE9F04188B0002304460078C9
:105F800002930E461746FFF79BFF054600BB94F8A9
:105F900000800146142203A801F003FF0B232A46C8
:105FA00003A94046ADF80C30FFF748FD02AB0DF1F8
:105FB000070207FB06F104988DF80750FFF7C4FFAE
:105FC00020789DF80710FFF719FD2078FFF77BFF79
:105FD000029808B0BDE8F08138B5044600780D4657
:105FE000FFF76EFFC8B9616871B10C4BC25CAA4281
:105FF00002D001300828F9D10130C0B2C1400122DD
:106000002046FFF7B7FF03E029462078FFF7F6FCAC
:106010002078BDE83840FFF756BF38BD60870D00D7
:1060200008B50078FFF7F2FCC0B208BD0078FFF7B2
:10603000FDBC10B50446006818B1FFF7E3FE00236D
:10604000236010BD10B50446FFF7F3FF204610BDD6
:1060500010B5094C00204FF6FF732060A080A0719E
:1060600020816381FFF722FE2046044A0449BDE8EF
:10607000104001F0F3B800BFBCE3032098E2032016
:1060800045600D0010B50446006808B1FFF726FD15
:10609000204610BD10B5036804469B689847A36866
:1060A000013BA3602BB923682046DB68BDE81040A4
:1060B000184710BD0B68036013B15A6801325A606B
:1060C000704710B50446006828B14368013B43603F
:1060D0000BB9FFF7DFFF204610BD000010B5064CDE
:1060E000002320462360FFF7F1FC2046034A0449C1
:1060F000BDE8104001F0B2B8C8E3032098E20320E5
:1061000085600D00F8B506460D468F180024BD4287
:106110000CD0336815F8011B9B683046984700285F
:1061200001DB0444F3E7002C08BF04462046F8BD19
:1061300070B505460C46084649B101F0CAFE2B6809
:10614000024621462846DB68BDE87040184770BD0E
:1061500003689B68184738B50D210546FFF7F8FF1F
:106160000A2104462846FFF7F3FF204438BD38B51E
:106170000546FFF7DDFF04462846FFF7ECFF204405
:1061800038BD30B58BB00B4600218DF82410012AA4
:1061900098BF0A220DF12304B3FBF2F505FB12337D
:1061A00003F0FF03092B94BF30333733DBB22146B2
:1061B00004F801392B46002DEED1FFF7B9FF0BB0E3
:1061C00030BD0CB42DE9F04387B000AF07F13804BF
:1061D000054654F8049B3C600E4623464A4614216B
:1061E000381DFFF717FE132805D8391D2846FFF77D
:1061F0009FFF044613E000F1080323F00703E8467D
:10620000ADEB030D411C23464A4668463C60FFF750
:1062100001FE69462846FFF78BFF0446C5461EB1BE
:106220002846FFF798FF044420461C37BD46BDE8CA
:10623000F04302B070470000014B024A1A607047F9
:10624000CCE30320DB870D00024B1A68024B1A6077
:10625000704700BF2CE20320D0E303200021FFF7AA
:106260002DBD10B58368044613B10322014698473B
:10627000204610BD10B50446FFF7F3FF204610BDC1
:1062800013B50B46044603C88DE8030093E80300EA
:1062900084E803009DE8030083E8030002B010BD1A
:1062A0000348044A04490023836000F0D7BF00BFBD
:1062B000D4E3032098E2032075620D0008B50C4B6F
:1062C00033B100F01BFC03681B699847002809DC08
:1062D000084B63B100F0E6FC03681B69984700288F
:1062E00003DC08BDAFF30080F2E7AFF3008008BD28
:1062F000000000000000000008B5FFF7DFFFFFF717
:10630000C5FB014B186008BD30E703200248034A73
:106310000349121A01F03ABD00F4032004F40320EB
:10632000708B0D0007B5002300931A466FF07701BC
:10633000FFF7EEFC03B05DF804FB000007B54388EF
:106340000A2B08D0502B09D1094B1B683BB103B075
:106350005DF804EB1847FFF7E5FF06E00023009324
:106360001A466FF07701FFF7D3FC03B05DF804FB2A
:10637000E4E3032038B5104C104D2368AB42104BBA
:106380000CBF012200221A7002D0FFF7BFFF256068
:10639000FFF76CFB044601F00DFD0A4B13B12046DC
:1063A000AFF3008000210748FFF71CFD00210648DD
:1063B000BDE83840FFF7A2BC00F403201E1C279A5A
:1063C000E8E30320000000003D630D00704700205B
:1063D000704710B51021044600F04EFF204610BD56
:1063E00008B508B1FFF7F5FF08BD0022026010B53F
:1063F0004FF69C728280B1F9044084808A800268E2
:106400000C6804600A6010BD10B504460068FFF710
:10641000F9FC204610BD38B5C468F4B12378022BCE
:1064200003D104F10C00FFF7EFFF656835B1284692
:10643000FFF717FF1021284600F01EFFA56835B1B1
:106440002846FFF70EFF1021284600F015FF2046D2
:106450001421BDE8384000F00FBF38BD13B5044625
:1064600091E8050000234B600B602060626001A88A
:1064700001930093FFF725FE204602B010BDF7B54B
:106480000C4602AD54F8043B45F8083D06460F465D
:1064900001A82146FFF70EFE29463046FFF7DEFF32
:1064A00001A8FFF70EFE2046FFF70BFE3846082135
:1064B00000F0E2FE304603B0F0BD000038B5002326
:1064C0000446036010200D46FDF7E7FD28B10123C7
:1064D00043608360024B0360C5602060204638BD86
:1064E00078880D00826810B50AB900F0D8FEC3683C
:1064F000BDE81040184708B5006800F11001FFF72B
:10650000F1FF08BD826810B50AB900F0C8FEC36883
:10651000BDE81040184708B5006800F11001FFF70A
:10652000F1FF08BD38B5002383608B6804460D4633
:106530002BB102229847EB68E360AB68A36020466A
:1065400038BD0000F0B589B004686846FFF74DFF1C
:1065500000238DF808304FF00202D4E84F3F002BA3
:1065600003D1C4E8412F0029F7D102D08DF80830BB
:1065700063E014F10C0503D069462846FFF735FFA8
:10658000BFF35F8F01236370002004F10803BFF3A2
:106590005F8F53E8006F43E80002002AF9D1BFF390
:1065A0005F8F002E49D0FFF799FB20B12946304676
:1065B000FFF798FF3AE0314602A8FFF7B3FFE06823
:1065C000B4F9105008B101F069FC06901020ADF844
:1065D0001C50FDF762FD0546E8B1002787601820D2
:1065E000FDF75BFD044688B10146876002A8FFF70E
:1065F00047FE049BA268A360059B049206A9E2687B
:10660000E36004F110000592FFF7EFFE0D4BEB6025
:106610000D4B2C60AB6006A8FFF7F6FE02A8FFF753
:1066200020FE002229460948FFF760FB3046FFF7AD
:1066300018FE1021304600F01FFE6846FFF7E4FE0A
:1066400009B0F0BDF7640D006D670D00F16C0D0031
:106650002DE9F04F8BB006460F46904699469DF8BF
:1066600050A0FFF7AFFB07AD834630BB4FF62E734C
:10667000059005A92846ADF81830FFF7B6FE14209E
:10668000FDF70BFD044658B102230370012343704C
:10669000C0F804B0C0F808B029460C30FFF7A5FEDA
:1066A0003046214640F8044BFFF708FF2846FFF725
:1066B000ABFE05A8FFF7A8FE52E000240C2314202F
:1066C0006C60AC600793FDF7E8FC014618B10470FC
:1066D00044704460846004A80391FFF7EFFE224BEE
:1066E00008930820FDF7D9FC044628B1039B40F825
:1066F000043B04A9FFF7DEFC00955FFA8AF34A46E3
:10670000414638460994FFF765FB20B9039B5B7847
:1067100003F0FF0283B1039B059304A906A8FFF7CA
:10672000C9FC05A93046FFF799FE06A8FFF7C9FC8A
:1067300004A8FFF7C6FC13E04FF69C7305A903A855
:106740000592ADF81830FFF7FDFE05A8FFF75CFED7
:1067500005A80999FFF793FE06A8FFF7B2FCDAE750
:1067600030460BB0BDE8F08FDD680D00022AF8B5A9
:10677000044606D0032A17D0012A22D10B680360F1
:106780001FE018200E68FDF788FC054650B1314621
:10679000FFF7C8FE3069B6F9147008B101F07EFB4E
:1067A0002861AF8225600CE0046854B104F1100048
:1067B000FFF72AFE2046FFF754FD1821204600F07F
:1067C0005BFD0020F8BD38B5002383608B6804466C
:1067D0000D462BB102229847EB68E360AB68A360DB
:1067E000204638BD022A70B5044606D0032A11D0CF
:1067F000012A18D10B68036015E014200E68FDF71C
:106800004CFC054620B13146FFF7DDFF337C2B748D
:10681000256008E0046834B12046FFF722FD14210A
:10682000204600F029FD002070BD0000F0B50023D7
:1068300087B00C46BFF35F8F50E8006F40E800322E
:10684000002AF9D1BFF35F8F002E3FD01846FFF723
:1068500045FA074620B121463046FFF753FE2EE0A9
:10686000314601A8FFF7AFFF23788DF814301020D0
:10687000FDF713FC0546D0B187601420FDF70DFC31
:10688000044678B18760014601A8FFF7F9FC039B35
:10689000A268A360049B0392E268E3609DF8143051
:1068A000049223740A4BEB600A4B2C60AB6001A886
:1068B000FFF7D7FC002229460748FFF717FA3046B2
:1068C000FFF7CFFC1021304600F0D6FC07B0F0BD3A
:1068D00017650D00E5670D00F16C0D0030B585B052
:1068E00004460D4668461146FFF7C9FD7CB124B247
:1068F00028460DB101F0D2FA029002A96846ADF81F
:106900000C40FFF71FFE02A8FFF77EFD1DE0009878
:106910008DF808404FF00102D0E84F3FA34203D169
:10692000C0E8412F0029F7D102D08DF808300CE0E3
:1069300010F10C014FF0010318BF0373BFF35F8F19
:10694000043000F8033CFFF771FF01A8FFF7B9FB23
:1069500005B030BD704710B51821044600F08CFC1E
:10696000204610BDF0B5037D062B8DB00E4600F11C
:1069700004074FF0000402D000F1080518E00CAD48
:10698000394605F8304D2F232A460A20FFF7AEF886
:10699000284601F09EFA33680246DB6829463046F5
:1069A00098470FE024B12E213046FFF7D1FB044475
:1069B00015F8011D0A223046FFF7E3FBBD420444EF
:1069C000F0D120460DB0F0BD10B5054B04461122A4
:1069D00040F8043B002101F0E4F9204610BD00BF5F
:1069E00094880D000346074A10B543F8042B01F1C3
:1069F000100251F8044B43F8044B9142F9D10A7844
:106A00001A7010BD94880D0010B59DF8084044EA36
:106A1000032343EA024242EA016104234160037511
:106A200010BD37B50D788B784A78C9780091294622
:106A3000FFF7EAFF03B030BD41747047704708B5F7
:106A40000021007CFFF712F930EA200028BF4FF048
:106A5000FF3008BD08B50121007CFFF707F930EAD7
:106A6000200028BF4FF0FF3008BD08B5007CFFF7BD
:106A7000F5F820EAE07008BD08B5007CFFF7E6F8FD
:106A800020EAE07008BD007CFFF700B910B51421C2
:106A9000044600F0F1FB204610BD38B50446007CEA
:106AA0000D46FFF7DBF8002801DC607C28B12946A1
:106AB000207CFFF7E3F820EAE07038BD10B504460B
:106AC000002363604FF47A73A360054B23600123B6
:106AD0000846217463741146FFF7A8F8204610BDDC
:106AE000A8880D000022007CFFF7A8B810B514227A
:106AF0000446002101F055F9204610BD30B50E4D79
:106B000087B001A8FFF7F2FF296811F0010410D146
:106B10002846FDF7D3FA60B101AA21460748FFF7DE
:106B2000CDFF2846FDF7CFFA054A0649034800F095
:106B300095FB024807B030BDECE30320F0E30320EF
:106B400098E203203D6A0D00002211464068FFF7DD
:106B500001B9002211464068FFF71CB90022114616
:106B60004068FFF727B900224068FFF71BB90022F1
:106B700081F001014068FFF705B900231A46194664
:106B80004068FFF7F7B800231A4619464068FFF738
:106B9000E9B8002211464068FFF7CCB80022022174
:106BA0004068FFF7CFB800231A464068FFF7BAB82D
:106BB00038B5084C28252A460021204601F0F1F876
:106BC0004FF0FF336360044B258004225A60034A70
:106BD0001A6038BD0CE4032004E40320D8880D00BB
:106BE00070474174704708B5007CFEF7BFFF20EA8C
:106BF000E07008BD08B5007CFEF790FF20EAE07069
:106C000008BD08B5007CFEF799FF30EA200028BFD8
:106C10004FF0FF3008BD08B5007CFEF787FF30EA73
:106C2000200028BF4FF0FF3008BD007CFEF78EBF6C
:106C300010B51421044600F01FFB204610BD70B5AE
:106C4000457C04460E4625B9007CFEF78FFF0028E0
:106C500005DD3146207CBDE87040FEF757BF284671
:106C600070BD000010B5044608461146002262605F
:106C70004FF47A72A260054A226001222074627485
:106C80001A46FEF73BFF204610BD00BF0C890D00E1
:106C90000023007CFEF772BF0022FFF7F9BF007CE3
:106CA000FEF75CBF38B50C4D296811F0010411D115
:106CB0002846FDF703FA68B1084A094B09482146FE
:106CC000FFF7D0FF2846FDF7FEF9074A07490548B8
:106CD00000F0C4FA034838BDCCE40320D0E403201C
:106CE00048E4032034E4032098E20320E16B0D0024
:106CF00010B5836804460BB900F0D1FAC368984711
:106D0000A3681BB103222146204698472046102144
:106D1000BDE8104000F0B0BA7047F8B50646154619
:106D20000C468F18BC4206D0336814F8011B9B68D0
:106D300030469847F6E72846F8BD0022007CFEF76B
:106D40003DBF0021007CFEF741BF0021007CFEF723
:106D500045BF0021007CFEF749BF0021007CFEF703
:106D60004DBF10B51421044600F086FA204610BD30
:106D700010B50446002363604FF47A73A360044B9C
:106D80002174084623601146FEF748FF204610BDD7
:106D90003C890D0000231A461946007CFEF7F6BE1A
:106DA0000022007CFEF7FABEC9B2FFF7F9BF00224D
:106DB000007CFEF7FBBE0121FFF7F9BF0021007C3C
:106DC000FEF724BF10B5044630B101F01BF890FB6C
:106DD000F4F303FB140010BD10BD884210B5044647
:106DE00004DA081AFFF7EEFF204410BD10BD0022A0
:106DF00011464068FEF7CEBF002211464068FEF7FC
:106E0000D9BF00224068FEF7CDBF002281F001010A
:106E10004068FEF7B7BF00231A4601214068FEF71D
:106E2000A9BF00231A4619464068FEF79BBF0022FF
:106E300011464068FEF78EBF002211464068FEF7FB
:106E400079BF002202214068FEF77CBF00231A466A
:106E50004068FEF767BF38B5054688B104684CB195
:106E6000A3681BB1032221462046984710212046E3
:106E700000F002FA28461421BDE8384000F0FCB9C1
:106E800038BD10B103685B681847704710B50368D8
:106E90000446BBB15868FEF701FE78B923685A7CF6
:106EA00012B95868FEF702FE23685868FEF706FE1E
:106EB00020680023236028B1FFF7CDFF206808B1C8
:106EC000FFF7C9FF204610BD38B50446D0F8C4010D
:106ED00008B1FDF7E6F8D4F8C00108B1FEF7FEFDF1
:106EE000D4F8BC5135B12846FFF7D0FF042128461D
:106EF00000F0C2F9206808B1FFF7C3FF204638BD93
:106F000010B5044B044640F8083BFFF7DDFF204670
:106F100010BD00BF64890D0038B50E4C0E4B2360C8
:106F20000025022304F5E4706360A560C4F8C45131
:106F3000C4F8C851FEF7CAFD084BC4F8CC5184F818
:106F4000D05123602046064A0649BDE8384000F08B
:106F500085B900BF54E5032098890D0064890D00B0
:106F600098E20320016F0D0000231A464068FEF7E7
:106F7000D9BE002202214068FEF7E4BE002211467D
:106F80004068FEF7D7BE002211464068FEF7E2BE19
:106F900000231A4619464068FEF7E4BE00231A464D
:106FA00019464068FEF7E6BE002281F00101406804
:106FB000FEF7E8BE00224068FEF7F4BE002211464C
:106FC0004068FEF7F7BE002211464068FEF7E2BEB9
:106FD0002DE9F043002495B016460D460746FFF70D
:106FE000F3FC214620220CA8009400F0DAFE402396
:106FF0000C9321466B460CAA3046FEF7B7FC0446BC
:10700000002844D1024601216868FEF7A3FE022150
:10701000804622466868FEF79DFE009E8146214616
:10702000002E34D0002932D17368022B02D00A2BF3
:1070300009D02AE0B8F1000F27D071693846043131
:10704000FFF7EFFC20E0B9F1000F1ED074691122A8
:1070500001A800F0A6FE06238DF8143001AD04F15E
:1070600008031834186859682A4603C20833A34233
:107070001546F7D101A906A807ADFFF7B3FC0FCD60
:107080003C1D0FC42B6823700121F669C8E70098E6
:10709000FEF764FC384615B0BDE8F083024B034AA6
:1070A0001A6000225A60704728E7032098890D0073
:1070B00070B5184E316811F0010504460AD130460A
:1070C000FCF7FCFF30B129461348FEF7FFFE3046BF
:1070D000FCF7F9FF1048FEF7A9FF28B1A4F10B0354
:1070E000022B01D8002070BD00F092F8FFF766FE79
:1070F00008B1012CF6D9FFF7D5FDFFF7D0FD18B187
:10710000A4F10903012BEDD9232C8CBF0020012011
:1071100070BD00BFA8E30320ACE30320232838B5EB
:1071200004460D460AD8FF2908D0FFF7C1FF28B151
:1071300029462046BDE83840FEF728BC38BD38B5A2
:1071400004460D46FEF72AFCFF2810D0062804D876
:107150004D2323FA00F0C30709D42046FFF7A8FF08
:1071600028B129462046BDE83840FEF71FBC38BD8F
:1071700010B50446FEF712FC0438C0B2012808D945
:107180002046FFF795FF20B12046BDE81040FEF7EE
:1071900015BC002010BD2DE9F04190461E46072485
:1071A00007460D46B8F1000F04D1C4F1070146FAB5
:1071B00001F101E046FA04F101F001013846FFF760
:1071C000BEFF01212846FFF7BAFF00212846FFF73E
:1071D000B6FF14F1FF34E5D2BDE8F08170B5044686
:1071E00014252A46094E002100F0DBFD25802025CC
:1071F0003146A5602561284600F040F831466060C0
:10720000284600F03BF8E060204670BDC4890D00C0
:1072100030B50E4D296811F0010487B013D128460E
:10722000FCF74CFF78B101A8FFF7D8FF01AA21466F
:107230000748FFF79DFD2846FCF745FF054A06492C
:10724000034800F00BF8024807B030BD34E70320D4
:1072500038E7032098E20320196D0D000B46014624
:10726000184600F085BD0000024B1868BFF35F8F21
:10727000704700BF4CE70320FCF711BF00F000B8D7
:1072800010B5002814BF044601242046FEF7B2FDC5
:1072900020B9FFF7E9FF08B18047F6E710BD08B550
:1072A000FEF7C0FD184B1A68D1075CBF01221A60B7
:1072B000164B1A68D2075CBF01221A60144B1A6879
:1072C000D0075CBF01221A60124B1A68D1075CBF5D
:1072D00001221A60104B1A68D2075CBF01221A60A3
:1072E0000E4B1A68D0075CBF01221A600C4B1A685B
:1072F000D1075CBF01221A600A4B1A68D2075CBF33
:1073000001221A60704700BF6CE7032068E7032082
:1073100064E7032060E703205CE7032058E70320CD
:1073200054E7032050E70320244B1A68D0075CBFC2
:1073300001221A60224B1A68D1075CBF01221A6031
:10734000204B1A68D2075CBF01221A601E4B1A68D4
:10735000D0075CBF01221A601C4B1A68D1075CBFC2
:1073600001221A601A4B1A68D2075CBF01221A6008
:10737000184B1A68D0075CBF01221A60164B1A68B6
:10738000D1075CBF01221A60144B1A68D2075CBF98
:1073900001221A60124B1A68D0075CBF01221A60E2
:1073A000104B1A68D1075CBF01221A600E4B1A6895
:1073B000D2075CBF01221A60704700BF9CE7032020
:1073C00098E7032094E7032090E703208CE703204D
:1073D00088E7032084E7032080E703207CE703207D
:1073E00078E7032074E7032070E70320244B1A6832
:1073F000D0075CBF01221A60224B1A68D1075CBF1C
:1074000001221A60204B1A68D2075CBF01221A6061
:107410001E4B1A68D0075CBF01221A601C4B1A6809
:10742000D1075CBF01221A601A4B1A68D2075CBFF1
:1074300001221A60184B1A68D0075CBF01221A603B
:10744000164B1A68D1075CBF01221A60144B1A68E8
:10745000D2075CBF01221A60124B1A68D0075CBFCA
:1074600001221A60104B1A68D1075CBF01221A6012
:107470000E4B1A68D2075CBF01221A60704700BF2A
:10748000CCE70320C8E70320C4E70320C0E70320BC
:10749000BCE70320B8E70320B4E70320B0E70320EC
:1074A000ACE70320A8E70320A4E70320A0E703201C
:1074B000184B1A68D1075CBF01221A60164B1A6874
:1074C000D2075CBF01221A60144B1A68D0075CBF58
:1074D00001221A60124B1A68D1075CBF01221A60A0
:1074E000104B1A68D2075CBF01221A600E4B1A6853
:1074F000D0075CBF01221A600C4B1A68D1075CBF31
:1075000001221A600A4B1A68D2075CBF01221A6076
:10751000704700BFECE70320E8E70320E4E703201F
:10752000E0E70320DCE70320D8E70320D4E70320CB
:10753000D0E7032081F0004102E000BF83F0004368
:1075400030B54FEA41044FEA430594EA050F08BFFE
:1075500090EA020F1FBF54EA000C55EA020C7FEAC2
:10756000645C7FEA655C00F0E2804FEA5454D4EB3F
:107570005555B8BF6D420CDD2C4480EA020281EA09
:10758000030382EA000083EA010180EA020281EA41
:107590000303362D88BF30BD11F0004F4FEA013193
:1075A0004FF4801C4CEA113102D0404261EB4101A2
:1075B00013F0004F4FEA03334CEA133302D0524228
:1075C00063EB430394EA050F00F0A780A4F10104E4
:1075D000D5F1200E0DDB02FA0EFC22FA05F280181E
:1075E00041F1000103FA0EF2801843FA05F3594104
:1075F0000EE0A5F120050EF1200E012A03FA0EFC83
:1076000028BF4CF0020C43FA05F3C01851EBE371AC
:1076100001F0004507D54FF0000EDCF1000C7EEBC9
:1076200000006EEB0101B1F5801F1BD3B1F5001F07
:107630000CD349085FEA30004FEA3C0C04F1010426
:107640004FEA445212F5800F80F09A80BCF1004F4F
:1076500008BF5FEA500C50F1000041EB045141EAD1
:10766000050130BD5FEA4C0C404141EB010111F4D2
:10767000801FA4F10104E9D191F0000F04BF01467D
:107680000020B1FA81F308BF2033A3F10B03B3F15B
:1076900020020CDA0C3208DD02F1140CC2F10C02EB
:1076A00001FA0CF021FA02F10CE002F11402D8BF49
:1076B000C2F1200C01FA02F120FA0CFCDCBF41EA15
:1076C0000C019040E41AA2BF01EB0451294330BDE4
:1076D0006FEA04041F3C1CDA0C340EDC04F11404C1
:1076E000C4F1200220FA04F001FA02F340EA030098
:1076F00021FA04F345EA030130BDC4F10C04C4F1DE
:10770000200220FA02F001FA04F340EA03002946BD
:1077100030BD21FA04F0294630BD94F0000F83F407
:10772000801306BF81F480110134013D4EE77FEAEA
:10773000645C18BF7FEA655C29D094EA050F08BF36
:1077400090EA020F05D054EA000C04BF1946104617
:1077500030BD91EA030F1EBF0021002030BD5FEA5B
:10776000545C05D14000494128BF41F0004130BD83
:1077700014F580043CBF01F5801130BD01F00045D7
:1077800045F0FE4141F470014FF0000030BD7FEA4A
:10779000645C1ABF194610467FEA655C1CBF0B4645
:1077A000024650EA013406BF52EA033591EA030F5C
:1077B00041F4002130BD00BF90F0000F04BF002154
:1077C000704730B54FF4806404F132044FF0000587
:1077D0004FF0000150E700BF90F0000F04BF002100
:1077E000704730B54FF4806404F1320410F0004566
:1077F00048BF40424FF000013EE700BF42004FEA61
:10780000E2014FEA31014FEA02701FBF12F07F43DD
:1078100093F07F4F81F06051704792F0000F14BFDA
:1078200093F07F4F704730B54FF4607401F000451E
:1078300021F0004120E700BF50EA010208BF704775
:1078400030B54FF000050AE050EA010208BF70476A
:1078500030B511F0004502D5404261EB41014FF4D3
:10786000806404F132045FEA915C3FF4DCAE4FF0D7
:1078700003025FEADC0C18BF03325FEADC0C18BFBE
:10788000033202EBDC02C2F1200300FA03FC20FA0F
:1078900002F001FA03FE40EA0E0021FA02F114445C
:1078A000C1E600BF70B54FF0FF0C4CF4E06C1CEA71
:1078B00011541DBF1CEA135594EA0C0F95EA0C0FE6
:1078C00000F0DEF82C4481EA030621EA4C5123EA59
:1078D0004C5350EA013518BF52EA033541F4801188
:1078E00043F4801338D0A0FB02CE4FF00005E1FB3B
:1078F00002E506F00042E0FB03E54FF00006E1FB85
:1079000003569CF0000F18BF4EF0010EA4F1FF04C7
:10791000B6F5007F64F5407404D25FEA4E0E6D4107
:1079200046EB060642EAC62141EA55514FEAC52018
:1079300040EA5E504FEACE2EB4F1FD0C88BFBCF594
:10794000E06F1ED8BEF1004F08BF5FEA500E50F145
:10795000000041EB045170BD06F0004646EA01010B
:1079600040EA020081EA0301B4EB5C04C2BFD4EB3D
:107970000C0541EA045170BD41F480114FF0000E36
:10798000013C00F3AB8014F1360FDEBF002001F0A4
:10799000004170BDC4F10004203C35DA0C341BDC1E
:1079A00004F11404C4F1200500FA05F320FA04F0F0
:1079B00001FA05F240EA020001F0004221F0004124
:1079C00010EBD37021FA04F642EB06015EEA430E97
:1079D00008BF20EAD37070BDC4F10C04C4F12005C7
:1079E00000FA04F320FA05F001FA04F240EA02007A
:1079F00001F0004110EBD37041F100015EEA430E4B
:107A000008BF20EAD37070BDC4F1200500FA05F26A
:107A10004EEA020E20FA04F301FA05F243EA0203E9
:107A200021FA04F001F0004121FA04F220EA0200F8
:107A300000EBD3705EEA430E08BF20EAD37070BD3E
:107A400094F0000F0FD101F00046400041EB01011E
:107A500011F4801F08BF013CF7D041EA060195F000
:107A6000000F18BF704703F00046520043EB0303BA
:107A700013F4801F08BF013DF7D043EA06037047A7
:107A800094EA0C0F0CEA135518BF95EA0C0F0CD0B2
:107A900050EA410618BF52EA4306D1D181EA0301F8
:107AA00001F000414FF0000070BD50EA410606BFF2
:107AB0001046194652EA430619D094EA0C0F02D137
:107AC00050EA013613D195EA0C0F05D152EA03367C
:107AD0001CBF104619460AD181EA030101F000419A
:107AE00041F0FE4141F470014FF0000070BD41F0E3
:107AF000FE4141F4780170BD70B54FF0FF0C4CF4BD
:107B0000E06C1CEA11541DBF1CEA135594EA0C0FDB
:107B100095EA0C0F00F0A7F8A4EB050481EA030E28
:107B200052EA03354FEA013100F088804FEA03330F
:107B30004FF0805545EA131343EA12634FEA0222DD
:107B400045EA111545EA10654FEA00260EF000419E
:107B50009D4208BF964244F1FD0404F5407402D2F0
:107B60005B084FEA3202B61A65EB03055B084FEA81
:107B700032024FF480104FF4002CB6EB020E75EB7E
:107B8000030E22BFB61A754640EA0C005B084FEAA6
:107B90003202B6EB020E75EB030E22BFB61A754623
:107BA00040EA5C005B084FEA3202B6EB020E75EB6E
:107BB000030E22BFB61A754640EA9C005B084FEAE6
:107BC0003202B6EB020E75EB030E22BFB61A7546F3
:107BD00040EADC0055EA060E18D04FEA051545EAE2
:107BE00016754FEA06164FEAC30343EA52734FEA8B
:107BF000C2025FEA1C1CC0D111F4801F0BD141EA04
:107C000000014FF000004FF0004CB6E711F4801F68
:107C100004BF01430020B4F1FD0C88BFBCF5E06F48
:107C20003FF6AFAEB5EB030C04BFB6EB020C5FEA58
:107C3000500C50F1000041EB045170BD0EF0004EAD
:107C40004EEA113114EB5C04C2BFD4EB0C0541EADF
:107C5000045170BD41F480114FF0000E013C90E6DC
:107C600045EA060E8DE60CEA135594EA0C0F08BFA0
:107C700095EA0C0F3FF43BAF94EA0C0F0AD150EA9F
:107C800001347FF434AF95EA0C0F7FF425AF104632
:107C900019462CE795EA0C0F06D152EA03353FF45A
:107CA000FDAE1046194622E750EA410618BF52EAD7
:107CB00043067FF4C5AE50EA41047FF40DAF52EAAB
:107CC00043057FF4EBAE12E74FEA4102B2F1E04325
:107CD00024BFB3F5001CDCF1FE5C0DD901F0004CB3
:107CE0004FEAC0024CEA5070B2F1004F40EB830003
:107CF00008BF20F00100704711F0804F21D113F12F
:107D00003872BCBF01F00040704741F480114FEA67
:107D10005252C2F11802C2F1200C10FA0CF320FAF0
:107D200002F018BF40F001004FEAC1234FEAD3230D
:107D300003FA0CFC40EA0C0023FA02F34FEA430377
:107D4000CCE77FEA625307D150EA01331EBF4FF000
:107D5000FE4040F44000704701F0004040F0FE401B
:107D600040F40000704700BF0A22002100F052B921
:107D700010B5054C13462CB10A4601460220AFF35C
:107D8000008010BD204610BD0000000010B5431E4D
:107D90000A44914204D011F8014B03F8014FF8E76F
:107DA00010BD02440346934202D003F8011BFAE7D8
:107DB0007047000038B5124B1C68A36B0546D3B959
:107DC0001820FEF717F843F20E33A06303804AF63B
:107DD000CD33438041F2342383804EF26D63C38000
:107DE0004DF6EC630381052343810B23838101223C
:107DF0000023C0E90423A36B00221D615A6138BD32
:107E000094E20320194B10B51C68A36BD3B918205A
:107E1000FDF7F0FF43F20E33A06303804AF6CD3343
:107E2000438041F2342383804EF26D63C3804DF66C
:107E3000EC630381052343810B238381012200230B
:107E4000C0E90423A16B0A4C0B694869094A5C43E9
:107E500002FB0040A3FB02230132034443F1000371
:107E6000C1E9042323F0004010BD00BF94E20320C9
:107E70002DF451582D7F954C10F8012B11F8013B32
:107E8000012A28BF9A42F7D0D01A7047034611F84A
:107E9000012B03F8012B002AF9D17047024B014650
:107EA000186800F003B800BF94E2032070B50646DE
:107EB00008460C4600F00DF8451C29463046FDF7F3
:107EC000B9FF064618B12A462146FFF75FFF304644
:107ED00070BD034613F8012B002AFBD1181A013894
:107EE000704710B5034642B111F8014B03F8014B3E
:107EF000013A002CF7D11A4400E010BD934202D0A1
:107F000003F8014BFAE710BD2DE9F04780464048E1
:107F1000D0F800900F463D4615F8014B09EB0400E0
:107F2000407800F0080000F0FF0608B12F46F2E7A5
:107F30002D2C03D1BD1C7C78012603E02B2C04BF23
:107F40007C78BD1C13B1102B0AD15BE0302C57D1CB
:107F5000287800F0DF0058284DD16C7810230235C6
:107F6000002E14BF4FF0004C6FF0004C0027BCFBFC
:107F7000F3FA384603FB1ACC09EB040E9EF801E035
:107F80001EF0040F01D0303C0BE01EF0030E1BD09E
:107F9000BEF1010F0CBF4FF0370E4FF0570ECEEB76
:107FA0000404A34210DDB7F1FF3F0AD0504506D8C4
:107FB00001D1644503DC03FB0040012701E04FF0E1
:107FC000FF3715F8014BD7E77B1C0CD1002E4FF083
:107FD000220314BF4FF000406FF00040C8F800309B
:107FE0002AB9BDE8F08706B1404272B107B1691EF7
:107FF0001160BDE8F0873024002BB1D10823AFE732
:108000000A23ADE7302CA3D0AAE7BDE8F08700BF74
:1080100030E2032013460A46014602480068FFF793
:1080200073BF00BF94E2032021400D005D400D00AE
:1080300089400D008D400D00000000000000000090
:1080400000000000D1400D00E5400D002020475009
:10805000530A205374617274696E67004C617469CD
:1080600074756465004C6F6E676974756465004172
:108070006C74697475646500566962726174696FC5
:108080006E002564006770735F64617461005075F1
:10809000626C6973680054696D653A2025303269F5
:1080A0003A253032693A253032693A253032692032
:1080B0002D2D2D20006C61743A2025662C206C6FCC
:1080C0006E673A2025662C20616C743A2025662064
:1080D0000A00256C75206D696C6C697365636F6E41
:1080E000647320746F20676574204750532066695D
:1080F000780054696D653A20253032693A2530326E
:10810000693A25303269200A006C617420202020F1
:108110002566200A6C6F6E67202566200A616C74E4
:108120002025660A00736174656C69746573202587
:1081300069200A006E6F206C6F636174696F6E0056
:108140000000000000000000CD400D0031450D0092
:10815000A94F0D0005610D0075480D00A94C0D00DB
:10816000FD460D0089450D00694D0D00FF4D0D00C8
:10817000374E0D00534E0D000000000000000000BF
:108180000000000000000000A94F0D0005610D0077
:10819000A9400D00A94C0D00C94D0D00E54D0D0085
:1081A000694D0D00FF4D0D00374E0D00534E0D0073
:1081B00000000000003E5B4F5B3E3E6B4F6B3E1C81
:1081C0003E7C3E1C183C7E3C181C577D571C1C5E98
:1081D0007F5E1C00183C1800FFE7C3E7FF0018246F
:1081E0001800FFE7DBE7FF30483A060E2629792919
:1081F00026407F050507407F05253F5A3CE73C5A4E
:108200007F3E1C1C08081C1C3E7F14227F22145F2A
:108210005F005F5F06097F017F006689956A606085
:1082200060606094A2FFA29408047E040810207E7F
:10823000201008082A1C08081C2A08081E10101004
:10824000100C1E0C1E0C30383E3830060E3E0E064A
:10825000000000000000005F00000007000700149D
:108260007F147F14242A7F2A12231308646236495C
:108270005620500008070300001C22410000412244
:108280001C002A1C7F1C2A08083E08080080703049
:1082900000080808080800006060002010080402B8
:1082A0003E5149453E00427F4000724949494621BE
:1082B00041494D331814127F1027454545393C4A32
:1082C0004949314121110907364949493646494949
:1082D000291E000014000000403400000008142291
:1082E00041141414141400412214080201590906FF
:1082F0003E415D594E7C1211127C7F494949363E00
:10830000414141227F4141413E7F494949417F09E5
:108310000909013E414151737F0808087F00417FF0
:1083200041002040413F017F081422417F404040EE
:10833000407F021C027F7F0408107F3E4141413E86
:108340007F090909063E4151215E7F091929462608
:108350004949493203017F01033F4040403F1F200C
:1083600040201F3F4038403F6314081463030478E3
:1083700004036159494D43007F4141410204081003
:1083800020004141417F040201020440404040403E
:10839000000307080020545478407F2844443838AC
:1083A00044444428384444287F385454541800081E
:1083B0007E090218A4A49C787F0804047800447DF8
:1083C00040002040403D007F1028440000417F4095
:1083D000007C047804787C080404783844444438E9
:1083E000FC1824241818242418FC7C0804040848C9
:1083F0005454542404043F44243C4040207C1C201A
:1084000040201C3C4030403C44281028444C909074
:10841000907C4464544C44000836410000007700CE
:1084200000004136080002010204023C2623263CDB
:108430001EA1A161123A4040207A38545455592166
:108440005555794121545478412155547840205450
:108450005579400C1E52721239555555593954549C
:10846000545939555454580000457C410002457D0B
:10847000420001457C40F0292429F0F0282528F00D
:108480007C545545002054547C547C0A097F493261
:10849000494949323248484832324A4848303A41DC
:1084A00041217A3A42402078009DA0A07D39444481
:1084B00044393D4040403D3C24FF2424487E49430C
:1084C000662B2FFC2F2BFF0929F620C0887E09037D
:1084D00020545479410000447D413048484A3238A4
:1084E0004040227A007A0A0A727D0D19317D2629D0
:1084F000292F28262929292630484D4020380808C8
:10850000080808080808382F10C8ACBA2F102834FB
:10851000FA00007B000008142A142222142A1408EE
:10852000AA005500AAAA55AA55AA000000FF0010EB
:108530001010FF00141414FF001010FF00FF1010A3
:10854000F010F0141414FC001414F700FF0000FFE6
:1085500000FF1414F404FC141417101F10101F1043
:108560001F1414141F00101010F0000000001F1042
:108570001010101F10101010F010000000FF10104D
:1085800010101010101010FF10000000FF14000059
:10859000FF00FF00001F10170000FC04F414141764
:1085A00010171414F404F40000FF00F7141414144A
:1085B000141414F700F7141414171410101F101FBC
:1085C000141414F4141010F010F000001F101F0009
:1085D00000001F14000000FC140000F010F0101048
:1085E000FF10FF141414FF141010101F00000000DF
:1085F000F010FFFFFFFFFFF0F0F0F0F0FFFFFF00D3
:1086000000000000FFFF0F0F0F0F0F3844443844E5
:108610007C2A2A3E147E02020606027E027E026345
:10862000554941633844443C04407E201E200602E4
:108630007E020299A5E7A5991C2A492A1C4C7201C1
:10864000724C304A4D4D303048784830BC625A4602
:108650003D3E494949007E0101017E2A2A2A2A2AF3
:1086600044445F444440514A444040444A514000DD
:1086700000FF0103E080FF000008086B6B08361262
:10868000362436060F090F060000181800000010E7
:1086900010003040FF0101001F01011E00191D17CD
:1086A00012003C3C3C3C00000000000000000000C8
:1086B000000000003D500D0059500D00000000006A
:1086C000000000006D500D0081500D00256C7500FC
:1086D00025303478005C7525303458007472756527
:1086E0000066616C736500252E2A660025660025EC
:1086F0002E2A6C6600256C66004750524D43004799
:1087000050474741004E004E4E4500454E450045FE
:108710005345005353450053005353570057535785
:1087200000574E57004E4E5700000000000000005A
:1087300000000000A35E0D00995E0D008F5E0D002D
:10874000855E0D00795E0D006D5E0D00615E0D00B1
:10875000595E0D004F5E0D00455E0D00D16F0D009E
:108760000008101820283038626175640053657263
:1087700069616C0053657269616C31007479706570
:1087800000706172616D00636D6400696400686E01
:1087900064007374726D0066696C74006C766C00B2
:1087A00061646448616E646C65720072656D6F76B9
:1087B0006548616E646C657200656E756D48616ECA
:1087C000646C657273004A534F4E53747265616DE9
:1087D0004C6F6748616E646C657200617070002553
:1087E0003031307520005D20002C200028293A20EF
:1087F00000205B00636F6465203D200025690064F4
:10880000657461696C73203D20000D0A006C6E0078
:10881000666E00636F64650064657461696C006E08
:108820006F6E6500747261636500696E666F0077D4
:1088300061726E006572726F720070616E696300C2
:10884000616C6C005A00252B3033643A2530327548
:108850000025592D256D2D25645425483A254D3A7E
:108860002553257A0061736374696D65000000000B
:108870000000000000000000CD630D00D3630D0078
:1088800017640D00E1630D00CF630D0000000000D0
:108890000000000065690D0055690D0057690D0065
:1088A00000000000000000003D6A0D008D6A0D0010
:1088B0009B6A0D0005610D00796A0D003F6A0D008D
:1088C000556A0D00876A0D006B6A0D00396A0D004C
:1088D0000000000000000000A76B0D009D6B0D0064
:1088E000936B0D00496B0D00876B0D007B6B0D00CA
:1088F0006F6B0D00676B0D005D6B0D00536B0D0012
:10890000D16F0D000000000000000000E16B0D00C1
:10891000316C0D003F6C0D0005610D00F56B0D0015
:10892000176C0D00036C0D002B6C0D00E36B0D003C
:10893000E76B0D000000000000000000196D0D0045
:10894000636D0D003B6D0D001B6D0D00436D0D0043
:108950004B6D0D00536D0D005B6D0D0000000000B0
:10896000000000004D6E0D00436E0D00396E0D00CD
:108970002F6E0D00236E0D00176E0D000B6E0D0097
:10898000036E0D00F96D0D00EF6D0D00D16F0D0040
:108990000000000000000000696F0D00736F0D0003
:1089A0007D6F0D00876F0D00916F0D009D6F0D00A5
:1089B000A96F0D00B56F0D00BD6F0D00C76F0D00E5
:1089C000D16F0D0000002020202020202020202812
:1089D0002828282820202020202020202020202077
:1089E00020202020202088101010101010101010AF
:1089F00010101010101004040404040404040404EF
:108A0000101010101010104141414141410101016D
:108A10000101010101010101010101010101010146
:108A20000110101010101042424242424202020253
:108A30000202020202020202020202020202020216
:108A400002101010102000000000000000000000C4
:108A50000000000000000000000000000000000016
:108A60000000000000000000000000000000000006
:108A700000000000000000000000000000000000F6
:108A800000000000000000000000000000000000E6
:108A900000000000000000000000000000000000D6
:108AA00000000000000000000000000000000000C6
:108AB00000000000000000000000000000000000B6
:108AC00000000000000000000000000000000000A6
:108AD0000000000000000000000000000000000096
:108AE0000000000000000000000000000000000086
:108AF0000000000000000000000000000000000076
:108B00000000000000000000000000000000000065
:108B10000000000000000000000000000000000055
:108B2000000000000000000041450D00A54C0D00B4
:108B300039500D0009530D0059590D00AD5E0D005F
:108B400051600D00DD600D0039620D0049620D00BD
:108B5000A1620D00B16B0D00196F0D009D700D002D
:108B6000A5720D0029730D00ED730D00B1740D0099
:048B70000000000001
:108B7400000103070F1F3F7F0080C0E0F0F8FCFEF8
:108B840000000000000000000000000000000000E1
:108B940000000000000000000000000000000000D1
:108BA40000000000000000000000000000000000C1
:108BB4000000000000000000000000000000008031
:108BC40080800000000000000000000000000000A1
:108BD400008080C0C0000000000000000000000011
:108BE4000000000000000000000000000000000081
:108BF4000000000000000000000000000000000071
:108C04000000000000000000000000000000000060
:108C14000000000080C0E0F0F8FCF8E00000000074
:108C240000000000000000000000000000808080C0
:108C3400808000808000000000808080808000FFB1
:108C4400FFFF000000008080808000008080000022
:108C540080FFFF8080008080008080808000808092
:108C64000000000000808000008C8E84000080F8EA
:108C7400F8F8800000000000000000000000000080
:108C8400F0F0F0F0F0F0F0F0F0F0F0F0E0E0C080A0
:108C940000E0FCFEFFFFFF7FFFFFFFFFFF0000007F
:108CA4000000000000000000000000FEFFC70101FA
:108CB400010183FFFF00007CFEC70101010183FF66
:108CC400FFFF0038FEC78301010183C7FFFF0000D7
:108CD40001FFFF010100FFFF0701010100007FFF09
:108CE40080000000FFFF7F0000FFFFFF000001FF86
:108CF400FFFF010000000000000000000000000071
:108D0400030F3F7F7FFFFFFFFFFFFFFFE7C7C78F13
:108D14008F9FBFFFFFC3C0F0FFFFFFFFFFFCFCFC02
:108D2400FCFCFCFCFCF8F8F0F0E0C00001030303D9
:108D34000303010303000000000103030303010113
:108D44000301000000010303030301010303000006
:108D54000003030000000303000000000000000102
:108D640003030303030100000001030100000003E7
:108D740003010000000000000000000000000000EB
:108D840000000080C0E0F0F9FFFFFFFFFF3F1F0F6E
:108D940087C7F7FFFF1F1F3DFCF8F8F8F87C7DFF3D
:108DA400FFFFFFFFFFFFFF7F3F0F07003030000092
:108DB40000000000000000000000000000000000AF
:108DC40000000000FEFEFC000000000000000000A7
:108DD40000000000000000000000000000E0C000EF
:108DE400000000000000000000003030000000001F
:108DF400000000000000000000000000000000006F
:108E040000C0FEFFFFFFFFFFFFFFFFFF7F7F3F1F4D
:108E14000F071F7FFFFFF8F8FFFFFFFFFFFEF8E0DB
:108E2400000000010000000000000000FEFE000041
:108E340000FCFEFC0C06060EFCF80000F0F81C0E0C
:108E44000606060CFFFFFF0000FEFE00000000FC0B
:108E5400FEFC00183C7E66E6CE84000006FFFF069A
:108E640006FCFEFC0C0606060000FEFE0000C0F830
:108E7400FC4E4646464E7C7840183C76E6CECC8086
:108E840000000000000000000000000000000000DE
:108E94000000000001070F1F1F3F3F3F3F1F0F034C
:108EA4000000000000000000000000000F0F0000A0
:108EB400000F0F0F000000000F0F000003070E0C3F
:108EC40018180C060F0F0F0000010F0E0C180C0FD2
:108ED400070100040E0C180C0F070000000F0F0010
:108EE400000F0F0F0000000000000F0F000000072C
:108EF400070C0C181C0C060600040E0C180C0F07AB
:108F0400000000000000000000000000000000005D
:108F1400000000000000000000000000000000004D
:108F2400000000000000000000000000000000003D
:108F3400000000000000000000000000000000002D
:108F4400000000000000000000000000000000001D
:108F5400000000000000000000000000000000000D
:108F640000000000000000000000000000000000FD
:108F740000000000000000000000000000000000ED
:108F840065880D00C5890D0000000000C88A0D0029
:108F9400E88A0D00088B0D000000000000000000AE
:108FA4000000000000000000FD860D00000000002D
:108FB40000000000000000000000000000000000AD
:108FC400000000000000000000000000000000009D
:108FD400000000000000000000000000000000008D
:0C8FE400000000000000000034E2032048
:108FF000FFFFFFFF00000102030405060708090A3E
:109000000B0C0D0E0F101112131415161718191A38
:089010001B1C1D1E1F2028007F
:049018007856341240
:04000003D0004020C9
:00000001FF
