:02000002D0002C
:1040000000400D00E0900D00000006000C000501CE
:084010000401E80500000000B6
:04401800C8860D0049
:1040200009480A49884208B505D0094A824202D0A7
:10403000121A02F057FD0748074A0021121A02F02F
:1040400077FD014808BD00BF0CE2032014900D006D
:10405000B0E20320B0E20320F0E7032070B501F0E6
:10406000CFF8074C074BE41AA40800251E46A542CA
:1040700004D056F8253098470135F8E770BD00BFE9
:104080000C900D00CC8F0D0000F046B808B500F084
:1040900093F8BDE8084001F075B800F0D1BE00F01B
:1040A000D7BE00F0D5BE000008B5034A00210C20A1
:1040B00000F03AFEFEE700BF494B0D000078B0FA71
:1040C00080F040097047012303707047704700007B
:1040D00038B584690A4B036005467CB16368013BCF
:1040E00063605BB9236820469B689847A368013BDF
:1040F000A3601BB923682046DB689847284638BD73
:10410000448C0D0010B50446FFF7E2FF20461C2149
:1041100001F09DFE204610BD08B501F087F94FF46F
:10412000165101F077F9642000F0EEFF03490448CE
:1041300000F092FA034B00221A6008BDD8E2032077
:1041400010E30320D4E2032038B5174800F028F923
:1041500040BB01F06BF9154900F04CFF124800F02C
:104160003EFC0446B8B101F061F9214605460E480F
:1041700000F050FA0146284600F04FFF01F056F9D2
:104180000B4900F04AFF084800F052FA41F288302B
:1041900000F0BAFFE2E701F049F90649BDE838400E
:1041A00000F03BBF38BD00BF10E30320DC860D00EC
:1041B000F3860D001C870D002DE9F341FFF7C4FFC6
:1041C00000F0CAFC404B1A68801A404A90421C46D4
:1041D00017D901F02BF93E4A002100F048FF0121D8
:1041E0003C4800F0D3FA054640B901F01FF93A4ABD
:1041F000294600F03CFF374800F01AFA00F0ACFC0A
:104200002060364D334842F2107100F041FA064604
:10421000C0B1A842F6D1681D02F04EFC51EC100B63
:1042200002F0FAFB2E4C206001F000F906462068EF
:1042300002F0BCF82B4ACDE900010021304600F025
:1042400016FFDFE7284B264CD3ED007A94ED007A79
:10425000B4EE677AF1EE10FA1D462DD01D4800F03D
:104260001DF938B394ED007ADFED207A204F77EE18
:10427000677A17EE900A02F099F811A3D3E90023A8
:1042800002F0E8F802F0C8FB386002F08FF841EC69
:10429000100B0221174800F001FC01F0C7F880461E
:1042A000386802F083F8144ACDE9000131464046EF
:1042B00000F0DDFE23682B6002B0BDE8F08100BF96
:1042C000721CC7711CC7E13FD4E20320C0D40100B7
:1042D0002C870D0010E303203B870D00D8E203205C
:1042E000B4E203204B870D00F0E3032000000042FE
:1042F000F4E30320E4E3032058870D0010B5D42134
:10430000044601F0A4FD204610BD000073B5174D12
:10431000174E184C00F000FC284601F093FC324682
:104320001549284601F08EFD144B009340F25B7254
:10433000134B1449204600F0E7F8134B1349236050
:1043400032462046C4F8D05001F07CFD21460023BF
:104350000F4A104800F0C0FB0F4A104800232146C6
:1043600002B0BDE8704000F093BB00BFB8E203208C
:10437000B0E2032010E30320D1400D0089870D0037
:1043800072870D0079870D00EC870D00CD400D0080
:10439000AA870D00D8E20320C8870D00E4E30320BC
:1043A00008B5D0F8D00003681B6B9847003018BFE1
:1043B000012008BDF8B506460F461446C4B1D6F82C
:1043C000D00003681B6B984708B90020F8BDD6F8E9
:1043D000D000FA2C03682546A8BFFA25DB682A46D8
:1043E0003946984780B2241A8542A4B2E6D0ECE759
:1043F0000120F8BD2DE9F8430646884691461F4640
:104400001D460024D6F8D00003681B6B9847D0B136
:10441000002D18DBD6F8D00003681B69984760B1FF
:10442000D6F8D00003685B69984708F804000134A7
:10443000A4B24C4507D03D46ECE70A3D0A202DB218
:1044400000F062FEDEE72046BDE8F88370B5044662
:1044500000F1220596220021284602F069FB6168DE
:10446000284602F095FBD4F8D0002289036829463B
:104470005E6A0023B047003018BF012070BD10B540
:104480000446D0F8D00003681B6B984720B1D4F8DD
:10449000D0000368DB6A9847012010BD70B503683F
:1044A0009B6804469847C8B9204600F098FA04254E
:1044B00070B1013D15F0FF050AD0204600F0B8F8B4
:1044C00041F2883000F020FE204600F088FAEFE745
:1044D000236820469B68BDE87040184770BD00F017
:1044E0001BBB70B5044608460E4602F059FB03128A
:1044F0002370607085B202342A463146204602F0AD
:1045000090FB601970BD000030B50361039B0D4D39
:10451000028143610C4A056000234160C260C0F81B
:10452000BC30C0F8C030C0F8C430C0F8C830C0F8E3
:10453000CC308361C36180F8203080F82130A0F84E
:10454000B83030BD10880D0061880D002DE9F74F9F
:104550000FFA83FA036801929D69012253460646C9
:104560000C46A847C0B2012801D0002034E0651CE9
:1045700004F1050B80464FF0000933689B69012266
:104580001F46294653463046B847C0B20128ECD1F1
:1045900015F8013B03F07F025D4502FB08994FEAE5
:1045A000C818E2D01B06E8D4019B2C1B1B1B013B47
:1045B0009945336806D9019A9F69013A121B5346FF
:1045C00092B203E09F691FFA89F2534629463046AA
:1045D000B847C0B2204480B203B0BDE8F08F0000FD
:1045E000F8B505460C4616461F463B469622214620
:1045F0002846FFF7ABFF48B12378B6EB131F05D071
:1046000000F014FF024900F008FDEEE7F8BD00BF1E
:1046100062880D000231C9B209299ABF024B53F8D2
:1046200021000248704700BF2C880D0073880D00E0
:1046300010B5E02380F82230002380F8233003688F
:1046400004465B69022200F1220198472368204654
:104650001B69BDE81040184700F1B80230B5134699
:1046600000F1CC0453F8045F8D420FD0A342F9D17E
:10467000002352F8044F24B900EB8300C0F8BC10AB
:1046800004E00133052BF4D1002030BD012030BD02
:104690002DE9F04F00F122098BB287B096224946EE
:1046A0000446FFF753FF064610B394F82570BBB2DB
:1046B000019304F1260304F1B80A002502935AF885
:1046C00004BFBBF1000F0ED0DBF8001003910846C9
:1046D00002F066FAB8428046039904D13A4602983D
:1046E00002F066FA28B10135052DE8D100204AE034
:1046F00049E094F822A00AF0060ABAF1020F3FD16D
:10470000E21992F8267092F8272042EA072714222D
:1047100000210BF1050002F00BFA019BC3F57F406D
:10472000FC30064404EB8505CAEB0606B6B2152E2E
:10473000D5F8BC0008F1040128BF132651443246C5
:104740004944053002F0D9F9D5F8BC305E8394F8BD
:10475000223003F00603022B0FD18DF815303B12E7
:104760008DF8163023688DF8177040228DF81420CC
:104770005B69042205A920469847D5F8BC0002E0F1
:1047800007468246C3E707B0BDE8F08F2DE9F8433E
:1047900004460D464FF000084FF0C00900F1220713
:1047A000D5B1236884F8229084F823805B690222C3
:1047B000394620469847064610B9013DEDB2EFE76D
:1047C0004FF4FA730D2239462046FFF709FF94F89B
:1047D0002230D02BF1D100E02E463046BDE8F883E0
:1047E00038B504460846102300F8023B0D46294917
:1047F000FFF777FE0423037002234370A369ABB174
:104800001B789BB10623437094F82030012B01D113
:104810000E2302E0022B01D11E23437094F82130B5
:10482000012B02BF437843F02003437023691B78B8
:104830001BB1437863F07F03437063691B781BB13E
:10484000437843F040034370012383702C23C370EB
:10485000E1680B781BB10430FFF743FE02E00371FF
:1048600043710630A16931B10B7823B1FFF739FEEE
:10487000E169FFF736FE21690B780BB1FFF731FED6
:1048800061690B780BB1FFF72CFE401BC0B2831E91
:104890006B7038BD81880D002DE9F8430546104640
:1048A0000E4691461F4602F07BF99DF82480BDF824
:1048B000204080B2B8F1000F01D1831C00E0031D3D
:1048C0004FEA480230469BB242F03002234400F8DF
:1048D000012B9BB203F07F02DB0918BF42F080027C
:1048E00000F8012B002BF5D14946FFF7FAFD0346EE
:1048F000B8F1000F0CD0B5F8B820120A0270B5F864
:10490000B8204270B5F8B82001320233A5F8B820BB
:1049100022463946184602F0F0F82044801B80B247
:10492000BDE8F88373B59DF8186000F122050446D0
:104930008DE8480013460A462946FFF7ADFF236875
:1049400002465B6929462046984708B9002017E0CF
:10495000B6B14FF4FA73962229462046FFF7F6FDCA
:104960000428F3D194F822301B11042BEED1A38C30
:10497000B4F8B8005BBA01339BB2C31A584258412D
:1049800002B070BDF7B5054610461F460E461446E8
:1049900002F006F9009783B2224631462846FFF717
:1049A000C1FF03B0F0BD38B51D4682230B700C4625
:1049B000B0F8B810090AA170B0F8B830E370B0F8D8
:1049C000B8100131A0F8B8101146201DFFF789FD7D
:1049D00000F8015B001BC0B2831E637038BD2DE977
:1049E000F0410368DB680446984718B94FF0FF3080
:1049F000BDE8F08104F1220529462046FFF7F0FECC
:104A0000236882B25B692946204698470028EDD08A
:104A100041F27073962229462046FFF797FDC0B2F7
:104A20000428E3D1638CB3F5087FDFD194F8250027
:104A300010B140B2BDE8F08104F1B80704F1CC0830
:104A400057F8043FFBB103263A68294613791268E8
:104A50002046FFF7A8FF236882B25B6929462046FB
:104A600098470028C2D04FF4FA73092229462046FD
:104A7000FFF7B6FD38B9013E16F0FF06E4D16FF03E
:104A80000100BDE8F0814745DAD10020BDE8F081A2
:104A900010B580E80600037210BD000010B592B09A
:104AA00004460B4600220B4902A88DED000B00F0D6
:104AB000D7F99DED000B02A953EC102B07A800F0CD
:104AC000CFF9237A07AA94E80300FFF75BFF12B03F
:104AD00010BD00BF86880D0010B50371002341632F
:104AE00002604383C361436203628362C362036300
:104AF00010BD00F011B8000008B5024B1B689B68A0
:104B0000019308BD6802030008B5024B1B68DB680F
:104B1000019308BD6802030008B5024B1B681B68BF
:104B2000019308BD2C02030008B5024B1B685B69AA
:104B3000019308BD6C02030008B5024B1B685B685B
:104B4000019308BD1802030008B5024B1B68DB681F
:104B5000019308BD1802030008B5024B1B685B698E
:104B6000019308BD1802030008B5024B1B689B683F
:104B7000019308BD4802030008B5024B1B681B697E
:104B8000019308BD4802030008B5024B1B685B692E
:104B9000019308BD4802030008B5024B1B685B6C1B
:104BA000019308BD4802030008B5024B1B689B6CCB
:104BB000019308BD4802030008B5024B1B685B69FE
:104BC000019308BD6402030008B5024B1B681B6A11
:104BD000019308BD6402030008B5024B1B689B6A81
:104BE000019308BD6402030008B5024B1B681B68F3
:104BF000019308BD3C02030008B5024B1B68DB684B
:104C0000019308BD3C02030008B5024B1B681B69F9
:104C1000019308BD3C02030008B5024B1B685B69A9
:104C2000019308BD3C02030008B5024B1B689B6959
:104C3000019308BD3C02030008B5024B1B68DB6909
:104C4000019308BD3C02030008B5024B1B689B6A38
:104C5000019308BD3C02030008B5024B1B689B6929
:104C6000019308BD3802030008B5024B1B68DB69DD
:104C7000019308BD3802030008B5024B1B681B6A8C
:104C8000019308BD3802030008B5024B1B689B6AFC
:104C9000019308BD3802030008B5024B1B681B6B6B
:104CA000019308BD3802030008B5024B1B689B6BDB
:104CB000019308BD3802030008B5024B1B681B684E
:104CC000019308BD4C02030008B5024B1B685B68EA
:104CD000019308BD4C02030008B5024B1B681B6919
:104CE000019308BD4C02030008B5024B1B685B69C9
:104CF000019308BD4C02030008B5024B1B689B6979
:104D0000019308BD4C02030008B5024B1B68DB6928
:104D1000019308BD4C02030008B5024B1B681B6AD7
:104D2000019308BD4C02030008B5024B1B685B6B86
:104D3000019308BD6002030008B5024B1B681B6DA0
:104D4000019308BD6002030008B5024B1B685B6855
:104D5000019308BD2002030008B5024B1B685B6984
:104D6000019308BD2002030008B5034B1B68D3F86C
:104D70008830019308BD00002002030008B5034BF2
:104D80001B68D3F89430019308BD00002002030093
:104D900008B5024B1B685B68019308BD4002030025
:104DA00008B5024B1B689B68019308BD40020300D5
:104DB00008B5024B1B68DB68019308BD4002030085
:104DC00008B5024B1B681B69019308BD4002030034
:104DD00008B5024B1B685B69019308BD40020300E4
:104DE00008B5024B1B689B69019308BD4002030094
:104DF00008B5024B1B68DB69019308BD4002030044
:104E000008B5024B1B681B6A019308BD40020300F2
:104E100008B5024B1B681B6B019308BD40020300E1
:104E200008B5024B1B685B6B019308BD4002030091
:104E300008B5024B1B68DB6B019308BD44020300FD
:104E400008B5024B1B681B68019308BD1C020300D8
:104E500008B5024B1B685B68019308BD1C02030088
:104E600008B5024B1B68DB68019308BD1C020300F8
:104E700008B5024B1B685B6A019308BD1C02030066
:104E800008B5024B1B681B6B019308BD1C02030095
:104E900008B5024B1B68DB6B019308BD1C020300C5
:104EA000002211464068FFF7ABBF00221146406860
:104EB000FFF7B6BF00224068FFF7AABF002281F0CB
:104EC00001014068FFF794BF00231A461946406865
:104ED000FFF786BF00231A4619464068FFF778BFE0
:104EE000002211464068FFF76BBF00221146406860
:104EF000FFF756BF002202214068FFF759BF002389
:104F00001A464068FFF744BF024B03225A60024A28
:104F10001A607047F8E30320508A0D0010B504466C
:104F2000006818B1FFF794FF0023236010BD10B58F
:104F30000446FFF7F3FF204610BD000010B5094CF2
:104F400000204FF6FF732060A080A0712081638154
:104F5000FFF7FAFE2046044A0449BDE8104000F07D
:104F600071BF00BF00E40320B0E203202F4F0D000B
:104F700010B50446006808B1FFF716FE204610BDC4
:104F800010B5064C002320462360FFF705FE20469F
:104F9000034A0449BDE8104000F054BF0CE403206C
:104FA000B0E20320714F0D00F8B506460D468F188C
:104FB0000024BD420CD0336815F8011B9B683046B5
:104FC0009847002801DB0444F3E7002C08BF04469F
:104FD0002046F8BD70B505460C46084649B101F0BB
:104FE000DFFD2B68024621462846DB68BDE870409D
:104FF000184770BD08B5FFF7EDFF08BD03689B6853
:10500000184738B50D210546FFF7F8FF0A21044679
:105010002846FFF7F3FF204438BD38B50546FFF7B3
:10502000D9FF04462846FFF7ECFF204438BD30B5D1
:105030008BB00B4600218DF82410012A98BF0A225C
:105040000DF12304B3FBF2F505FB123303F0FF036C
:10505000092B94BF30333733DBB2214604F80139D2
:105060002B46002DEED1FFF7B5FF0BB030BD0CB4D1
:105070002DE9F04387B000AF07F13804054654F836
:10508000049B3C600E4623464A461421381DFFF718
:10509000EFFE132805D8391D2846FFF79BFF04466D
:1050A00013E000F1080323F00703E846ADEB030D1E
:1050B000411C23464A4668463C60FFF7D9FE6946D4
:1050C0002846FFF787FF0446C5461EB12846FFF76E
:1050D00098FF044420461C37BD46BDE8F04302B0AB
:1050E00070470000014B024A1A60704710E4032029
:1050F000EF8A0D00024B1A68024B1A60704700BF1E
:105100000CE2032014E403200021FFF725BE10B5B4
:105110008368044613B1032201469847204610BD18
:1051200010B50446FFF7F3FF204610BD0348044ABC
:1051300004490023836000F085BE00BF18E403200B
:10514000B0E2032021510D0008B50C4B33B100F043
:105150006DF903681B699847002809DC084B63B1A7
:1051600000F0E2F903681B699847002803DC08BDDA
:10517000AFF30080F2E7AFF3008008BD000000004D
:105180000000000008B5FFF7DFFFFFF7E5FC014B6B
:10519000186008BD4CE703200248034A0349121A6D
:1051A00001F0A0BC00F4032004F4032010900D00D3
:1051B00007B5002300931A466FF07701FFF7DEFD75
:1051C00003B05DF804FB000007B543880A2B08D044
:1051D000502B09D1094B1B683BB103B05DF804EBC0
:1051E0001847FFF7E5FF06E0002300931A466FF02B
:1051F0007701FFF7C3FD03B05DF804FB28E403204B
:1052000038B5104C104D2368AB42104B0CBF012237
:1052100000221A7002D0FFF7BFFF2560FFF78CFC59
:10522000044601F08DFC0A4B13B12046AFF3008019
:1052300000210748FFF7FCFD00210648BDE8384083
:10524000FFF792BD00F403201E1C279A2CE40320D4
:1052500000000000C9510D00704710B51821044628
:1052600000F0F5FD204610BDF0B5037D062B8DB096
:105270000E4600F104074FF0000402D000F10805CB
:1052800018E00CAD394605F8304D2F232A460A2088
:10529000FFF792FC284601F083FC33680246DB6886
:1052A0002946304698470FE024B12E213046FFF7BB
:1052B000A5FE044415F8011D0A223046FFF7B7FE8B
:1052C000BD420444F0D120460DB0F0BD10B5054BF1
:1052D0000446112240F8043B002101F029FC20463D
:1052E00010BD00BF808B0D000346074A10B543F880
:1052F000042B01F1100251F8044B43F8044B914286
:10530000F9D10A781A7010BD808B0D00037D042B33
:1053100001D1406808E0062B0AD1436853B983687D
:1053200043B9C36833B90069003018BF0120704722
:10533000002070470120704710B59DF8084044EAEE
:10534000032343EA024242EA0161042341600375F8
:1053500010BD37B50D788B784A78C9780091294609
:10536000FFF7EAFF03B030BD41747047704708B5DE
:105370000021007CFFF7C0FC30EA200028BF4FF07E
:10538000FF3008BD08B50121007CFFF7B5FC30EA0D
:10539000200028BF4FF0FF3008BD08B5007CFFF7A4
:1053A000A3FC20EAE07008BD08B5007CFFF794FC80
:1053B00020EAE07008BD007CFFF7AEBC10B51421F8
:1053C000044600F044FD204610BD38B50446007C7C
:1053D0000D46FFF789FC002801DC607C28B12946D6
:1053E000207CFFF791FC20EAE07038BD10B5044640
:1053F000002363604FF47A73A360054B236001239D
:105400000846217463741146FFF756FC204610BD10
:10541000948B0D000022007CFFF756BC10B51422BF
:105420000446002101F084FB204610BD30B50E4D2E
:1054300087B001A8FFF7F2FF296811F0010410D12D
:105440002846FEF73BFE60B101AA21460748FFF758
:10545000CDFF2846FEF737FE054A0649034800F00F
:10546000F1FC024807B030BD30E4032034E40320EF
:10547000B0E203206D530D0070474174704708B5CA
:10548000007CFFF7E1FB20EAE07008BD08B5007C76
:10549000FFF7BAFB20EAE07008BD08B5007CFFF713
:1054A000C3FB30EA200028BF4FF0FF3008BD08B52D
:1054B000007CFFF7B1FB30EA200028BF4FF0FF303F
:1054C00008BD007CFFF7B8BB10B51421044600F0FE
:1054D000BEFC204610BD70B5457C04460E4625B97D
:1054E000007CFFF7B1FB002805DD3146207CBDE8DC
:1054F0007040FFF781BB284670BD000010B5044620
:1055000008461146002262604FF47A72A260054A92
:1055100022600122207462741A46FFF765FB204660
:1055200010BD00BFC48B0D0038B50C4D296811F0BB
:10553000010411D12846FEF7C1FD68B1084A094BA4
:1055400009482146FFF7DAFF2846FEF7BCFD074A67
:105550000749054800F076FC034838BDE0E4032025
:10556000E4E403205CE4032048E40320B0E20320E9
:1055700079540D00002211464068FFF741BC00221B
:1055800011464068FFF74CBC00224068FFF740BC62
:10559000002281F001014068FFF72ABC00231A466F
:1055A00001214068FFF71CBC00231A4619464068D9
:1055B000FFF70EBC002211464068FFF701BC002235
:1055C00011464068FFF7ECBB002202214068FFF75C
:1055D000EFBB00231A464068FFF7DABB38B5054633
:1055E00088B104684CB1A3681BB103222146204650
:1055F00098471021204600F02AFC28461421BDE8D7
:10560000384000F024BC38BD10B103685B6818470F
:10561000704710B503680446BBB15868FFF7A4FA99
:1056200078B923685A7C12B95868FFF7A5FA23683D
:105630005868FFF7A9FA20680023236028B1FFF714
:10564000CDFF206808B1FFF7C9FF204610BD38B56F
:105650000446D0F8C40108B1FEF723FDD4F8C00118
:1056600008B1FFF7A1FAD4F8BC5135B12846FFF7CD
:10567000D0FF0421284600F0EAFB206808B1FFF7BC
:10568000C3FF204638BD000010B5044B044640F867
:10569000083BFFF7DCFF204610BD00BFF48B0D0078
:1056A00038B50E4C0E4B23600025022304F5E47040
:1056B0006360A560C4F8C451C4F8C851FFF76CFA20
:1056C000084BC4F8CC5184F8D05123602046064AD8
:1056D0000649BDE8384000F0B5BB00BF68E50320CF
:1056E000DC8C0D00F48B0D00B0E2032089560D0018
:1056F00037B502AC036804F8011DDD6B01224FF0E1
:10570000FF332146A84703B030BD10B40368DC6BFB
:105710004FF0FF33A4465DF8044B604737B502AC49
:10572000036804F8011DDD6B214613460122A847DA
:1057300003B030BD704738B543691A68002A044683
:1057400005DAB3F88620B3F884309A4201D00125F7
:105750000BE003681B699847002814BF012500254A
:1057600003D123682046DB6A9847284638BD436941
:105770001868C043C00F704770470020704710B5CD
:105780001421044600F063FB204610BDFEF787BCE1
:105790007FB5164600224260029203925A1C0446CC
:1057A0000D4608D04FF47A72B3FBF2F1029102FB7E
:1057B00011314A43039260690823009341F20502C4
:1057C0006B4440F6FF710068FFF746FA002808DBDB
:1057D00060690023324629460068FFF75DFA002819
:1057E00004DAFFF755FB03686360002004B070BD66
:1057F00010B5036804469B689847A368013BA36003
:105800002BB923682046DB68BDE81040184710BD5F
:1058100070B504464D69054B44F8043B8C3506468B
:105820000FCD0FC42B682370304670BD808B0D00E8
:1058300010B54369B3F88620B3F884309A42044621
:1058400005D06269B2F884301344187910BD03683A
:105850001B6998470028F4D14FF0FF3010BD10B5F8
:105860004369B3F88620B3F884309A42044608D0DE
:105870006269B2F88430591C1344A2F88410187974
:1058800010BD03681B6998470028F1D14FF0FF3025
:1058900010BDF8B543691746B3F88620B3F88430D5
:1058A0009A4205460E4606D103681B69984710B90F
:1058B0004FF0FF3414E06969B1F88430B1F88640E4
:1058C000E41ABC4228BF3C46194422460431304603
:1058D00001F008F96A69B2F884302344A2F88430F0
:1058E0002046F8BD2DE9F0439846036893B0DB6A83
:1058F0000D4606461746984712AB002443F8484D1C
:10590000224621462846FFF7FFF8814600283DD170
:10591000009B002B56D05B69002B53D006A8FFF7E5
:10592000D5FC009B5C696378022B01D1211D13E03B
:105930000A2B14D11122494601A801F0F9F8A368F5
:1059400033BBE36823BB4FF6FF702569FFF73CF9D3
:1059500085421DD104F1140106A8FFF7FAFC06A840
:10596000FFF7D4FC00282DD0336807ADD3F8209082
:10597000184B0C930FCD0DAC0FC42B6823703A4617
:1059800043460CA93046C84781461BE0A14619E0B2
:1059900004F1080301AD1834186859682A4603C297
:1059A0000833A3421546F7D1062301A90CA80DAD73
:1059B0008DF81430FFF798FC0FCD07AC0FC42B689F
:1059C0002370CCE70098FFF797F8484613B0BDE87E
:1059D000F08300BF808B0D0042690023A2F8843061
:1059E0004269A2F8863070472DE9F0411E460368EF
:1059F0000C468AB0DB6A054617469847237DD5F8E2
:105A00001480042B0CBF02200A2006220121FFF77C
:105A10004BF9C8F800006B691B68002B18DB28469F
:105A2000FFF7DAFFD6B1002303A9F0B20393ADF874
:105A30001030FFF779F858B968690623009341F2EE
:105A40000B0203AB40F6FF710068FFF705F928B1C0
:105A50002B682846DB6A002498473BE01C26324628
:105A6000002103A801F064F8237D8DF80C60042B5D
:105A70000CD1022338468DF80D30FFF7ADF8ADF8A4
:105A80000E006068FFF7A0F8049013E00A23384680
:105A90008DF80D30FFF7A0F805AEADF80E00231D10
:105AA00004F1140718685968324603C20833BB4230
:105AB0001646F7D16B691C2203A91868FFF7DCF8BA
:105AC0000028C5D104340FCC6D698C350FC523680F
:105AD0002B70012420460AB0BDE8F08110B543695F
:105AE00004461868002801DBFFF7BEF863694FF031
:105AF000FF321A606069112200218C3001F018F821
:105B00002046BDE81040FFF767BF000030B542698E
:105B1000B2F886308BB004461BB1B2F884209A42AA
:105B200040D06369186800283FDBB3F886507F2DAA
:105B30003BD8191DC5F1800208232944FFF7A4F8BA
:105B400000280CDD6369B3F886200AB9A3F8842025
:105B50006269B2F886301844A2F8860025E0FFF7A3
:105B600097F903680B2B20D0FFF792F903680B2BF2
:105B70001BD02023002502930395FFF789F90368C2
:105B800001930E4B009302AA2B460D493220FFF7DA
:105B9000D3F863691868FFF767F863694FF0FF325D
:105BA0001A6002E0FFF718FFBBE76269B2F88630BF
:105BB000B2F88400181A0BB030BD00BF8F8C0D00F6
:105BC000888C0D0010B5002304460160A0F88430D5
:105BD000A0F886308830FFF779FB204610BD000022
:105BE0004FF47A7270B500238260144A43600260F9
:105BF000436183610446A0200E46FEF74EFA054637
:105C000010B13146FFF7DEFF1420FEF746FA0346D7
:105C100028B1012242608260094A02600561A069E0
:105C20006561A36128B14368013B43600BB9FFF78D
:105C3000DFFD2046FFF7D0FE204670BD448C0D00EE
:105C4000288C0D0010B54FF0FF310446FFF7C8FF58
:105C5000204610BD10B504460068002801DBFFF7A0
:105C600003F8204610BD10B504692046FFF7F2FF87
:105C700024B12046BDE81040FEF711BA10BD002245
:105C800011464068FFF79CB8002211464068FFF7B4
:105C9000B7B8002211464068FFF7C2B8002240683A
:105CA000FFF7B6B8002281F001014068FFF7A0B805
:105CB00000231A4619464068FFF792B800231A4697
:105CC00019464068FFF784B8002211464068FFF784
:105CD00067B8002202214068FFF76AB800231A461D
:105CE0004068FFF755B80000024B04225A60024A90
:105CF0001A6070473CE70320A88C0D0000231A4669
:105D00004068FFF745B8002202214068FFF750B80D
:105D1000002211464068FFF743B800221146406850
:105D2000FFF74EB800231A4619464068FFF750B8EF
:105D300000231A4619464068FFF752B8002281F046
:105D400001014068FFF754B800224068FFF760B8CF
:105D5000002211464068FFF763B8002211464068F0
:105D6000FFF74EB82DE9F043002495B016460D46D6
:105D70000746FFF7ABFA214620220CA8009400F05A
:105D8000D7FE40230C9321466B460CAA3046FEF703
:105D9000BBFE0446002844D1024601216868FFF793
:105DA0000FF80221804622466868FFF709F8009E36
:105DB00081462146002E34D0002932D17368022B4F
:105DC00002D00A2B09D02AE0B8F1000F27D0716960
:105DD00038460431FFF7BDFA20E0B9F1000F1ED0BC
:105DE0007469112201A800F0A3FE06238DF8143077
:105DF00001AD04F108031834186859682A4603C233
:105E00000833A3421546F7D101A906A807ADFFF74D
:105E10006BFA0FCD3C1D0FC42B6823700121F6696E
:105E2000C8E70098FEF768FE384615B0BDE8F08375
:105E3000024B034A1A6000225A60704744E703206D
:105E4000DC8C0D000B460146184600F039BEFEF70B
:105E500026B90000184B1A68D1075CBF01221A60EE
:105E6000164B1A68D2075CBF01221A60144B1A68DD
:105E7000D0075CBF01221A60124B1A68D1075CBFC1
:105E800001221A60104B1A68D2075CBF01221A6007
:105E90000E4B1A68D0075CBF01221A600C4B1A68BF
:105EA000D1075CBF01221A600A4B1A68D2075CBF97
:105EB00001221A60704700BF6CE7032068E70320E7
:105EC00064E7032060E703205CE7032058E7032032
:105ED00054E7032050E70320244B1A68D0075CBF27
:105EE00001221A60224B1A68D1075CBF01221A6096
:105EF000204B1A68D2075CBF01221A601E4B1A6839
:105F0000D0075CBF01221A601C4B1A68D1075CBF26
:105F100001221A601A4B1A68D2075CBF01221A606C
:105F2000184B1A68D0075CBF01221A60164B1A681A
:105F3000D1075CBF01221A60144B1A68D2075CBFFC
:105F400001221A60124B1A68D0075CBF01221A6046
:105F5000104B1A68D1075CBF01221A600E4B1A68F9
:105F6000D2075CBF01221A60704700BF9CE7032084
:105F700098E7032094E7032090E703208CE70320B1
:105F800088E7032084E7032080E703207CE70320E1
:105F900078E7032074E7032070E70320244B1A6896
:105FA000D0075CBF01221A60224B1A68D1075CBF80
:105FB00001221A60204B1A68D2075CBF01221A60C6
:105FC0001E4B1A68D0075CBF01221A601C4B1A686E
:105FD000D1075CBF01221A601A4B1A68D2075CBF56
:105FE00001221A60184B1A68D0075CBF01221A60A0
:105FF000164B1A68D1075CBF01221A60144B1A684D
:10600000D2075CBF01221A60124B1A68D0075CBF2E
:1060100001221A60104B1A68D1075CBF01221A6076
:106020000E4B1A68D2075CBF01221A60704700BF8E
:10603000CCE70320C8E70320C4E70320C0E7032020
:10604000BCE70320B8E70320B4E70320B0E7032050
:10605000ACE70320A8E70320A4E70320A0E7032080
:10606000184B1A68D1075CBF01221A60164B1A68D8
:10607000D2075CBF01221A60144B1A68D0075CBFBC
:1060800001221A60124B1A68D1075CBF01221A6004
:10609000104B1A68D2075CBF01221A600E4B1A68B7
:1060A000D0075CBF01221A600C4B1A68D1075CBF95
:1060B00001221A600A4B1A68D2075CBF01221A60DB
:1060C000704700BFECE70320E8E70320E4E7032084
:1060D000E0E70320DCE70320D8E70320D4E7032030
:1060E000D0E7032081F0004102E000BF83F00043CD
:1060F00030B54FEA41044FEA430594EA050F08BF63
:1061000090EA020F1FBF54EA000C55EA020C7FEA26
:10611000645C7FEA655C00F0E2804FEA5454D4EBA3
:106120005555B8BF6D420CDD2C4480EA020281EA6D
:10613000030382EA000083EA010180EA020281EAA5
:106140000303362D88BF30BD11F0004F4FEA0131F7
:106150004FF4801C4CEA113102D0404261EB410106
:1061600013F0004F4FEA03334CEA133302D052428C
:1061700063EB430394EA050F00F0A780A4F1010448
:10618000D5F1200E0DDB02FA0EFC22FA05F2801882
:1061900041F1000103FA0EF2801843FA05F3594168
:1061A0000EE0A5F120050EF1200E012A03FA0EFCE7
:1061B00028BF4CF0020C43FA05F3C01851EBE37111
:1061C00001F0004507D54FF0000EDCF1000C7EEB2E
:1061D00000006EEB0101B1F5801F1BD3B1F5001F6C
:1061E0000CD349085FEA30004FEA3C0C04F101048B
:1061F0004FEA445212F5800F80F09A80BCF1004FB4
:1062000008BF5FEA500C50F1000041EB045141EA35
:10621000050130BD5FEA4C0C404141EB010111F436
:10622000801FA4F10104E9D191F0000F04BF0146E1
:106230000020B1FA81F308BF2033A3F10B03B3F1BF
:1062400020020CDA0C3208DD02F1140CC2F10C024F
:1062500001FA0CF021FA02F10CE002F11402D8BFAD
:10626000C2F1200C01FA02F120FA0CFCDCBF41EA79
:106270000C019040E41AA2BF01EB0451294330BD48
:106280006FEA04041F3C1CDA0C340EDC04F1140425
:10629000C4F1200220FA04F001FA02F340EA0300FC
:1062A00021FA04F345EA030130BDC4F10C04C4F142
:1062B000200220FA02F001FA04F340EA0300294622
:1062C00030BD21FA04F0294630BD94F0000F83F46C
:1062D000801306BF81F480110134013D4EE77FEA4F
:1062E000645C18BF7FEA655C29D094EA050F08BF9B
:1062F00090EA020F05D054EA000C04BF194610467C
:1063000030BD91EA030F1EBF0021002030BD5FEABF
:10631000545C05D14000494128BF41F0004130BDE7
:1063200014F580043CBF01F5801130BD01F000453B
:1063300045F0FE4141F470014FF0000030BD7FEAAE
:10634000645C1ABF194610467FEA655C1CBF0B46A9
:10635000024650EA013406BF52EA033591EA030FC0
:1063600041F4002130BD00BF90F0000F04BF0021B8
:10637000704730B54FF4806404F132044FF00005EB
:106380004FF0000150E700BF90F0000F04BF002164
:10639000704730B54FF4806404F1320410F00045CA
:1063A00048BF40424FF000013EE700BF42004FEAC5
:1063B000E2014FEA31014FEA02701FBF12F07F4342
:1063C00093F07F4F81F06051704792F0000F14BF3F
:1063D00093F07F4F704730B54FF4607401F0004583
:1063E00021F0004120E700BF50EA010208BF7047DA
:1063F00030B54FF000050AE050EA010208BF7047CF
:1064000030B511F0004502D5404261EB41014FF437
:10641000806404F132045FEA915C3FF4DCAE4FF03B
:1064200003025FEADC0C18BF03325FEADC0C18BF22
:10643000033202EBDC02C2F1200300FA03FC20FA73
:1064400002F001FA03FE40EA0E0021FA02F11444C0
:10645000C1E600BF70B54FF0FF0C4CF4E06C1CEAD5
:1064600011541DBF1CEA135594EA0C0F95EA0C0F4A
:1064700000F0DEF82C4481EA030621EA4C5123EABD
:106480004C5350EA013518BF52EA033541F48011EC
:1064900043F4801338D0A0FB02CE4FF00005E1FB9F
:1064A00002E506F00042E0FB03E54FF00006E1FBE9
:1064B00003569CF0000F18BF4EF0010EA4F1FF042C
:1064C000B6F5007F64F5407404D25FEA4E0E6D416C
:1064D00046EB060642EAC62141EA55514FEAC5207D
:1064E00040EA5E504FEACE2EB4F1FD0C88BFBCF5F9
:1064F000E06F1ED8BEF1004F08BF5FEA500E50F1AA
:10650000000041EB045170BD06F0004646EA01016F
:1065100040EA020081EA0301B4EB5C04C2BFD4EBA1
:106520000C0541EA045170BD41F480114FF0000E9A
:10653000013C00F3AB8014F1360FDEBF002001F008
:10654000004170BDC4F10004203C35DA0C341BDC82
:1065500004F11404C4F1200500FA05F320FA04F054
:1065600001FA05F240EA020001F0004221F0004188
:1065700010EBD37021FA04F642EB06015EEA430EFB
:1065800008BF20EAD37070BDC4F10C04C4F120052B
:1065900000FA04F320FA05F001FA04F240EA0200DE
:1065A00001F0004110EBD37041F100015EEA430EAF
:1065B00008BF20EAD37070BDC4F1200500FA05F2CF
:1065C0004EEA020E20FA04F301FA05F243EA02034E
:1065D00021FA04F001F0004121FA04F220EA02005D
:1065E00000EBD3705EEA430E08BF20EAD37070BDA3
:1065F00094F0000F0FD101F00046400041EB010183
:1066000011F4801F08BF013CF7D041EA060195F064
:10661000000F18BF704703F00046520043EB03031E
:1066200013F4801F08BF013DF7D043EA060370470B
:1066300094EA0C0F0CEA135518BF95EA0C0F0CD016
:1066400050EA410618BF52EA4306D1D181EA03015C
:1066500001F000414FF0000070BD50EA410606BF56
:106660001046194652EA430619D094EA0C0F02D19B
:1066700050EA013613D195EA0C0F05D152EA0336E0
:106680001CBF104619460AD181EA030101F00041FE
:1066900041F0FE4141F470014FF0000070BD41F047
:1066A000FE4141F4780170BD70B54FF0FF0C4CF421
:1066B000E06C1CEA11541DBF1CEA135594EA0C0F40
:1066C00095EA0C0F00F0A7F8A4EB050481EA030E8D
:1066D00052EA03354FEA013100F088804FEA033374
:1066E0004FF0805545EA131343EA12634FEA022242
:1066F00045EA111545EA10654FEA00260EF0004103
:106700009D4208BF964244F1FD0404F5407402D254
:106710005B084FEA3202B61A65EB03055B084FEAE5
:1067200032024FF480104FF4002CB6EB020E75EBE2
:10673000030E22BFB61A754640EA0C005B084FEA0A
:106740003202B6EB020E75EB030E22BFB61A754687
:1067500040EA5C005B084FEA3202B6EB020E75EBD2
:10676000030E22BFB61A754640EA9C005B084FEA4A
:106770003202B6EB020E75EB030E22BFB61A754657
:1067800040EADC0055EA060E18D04FEA051545EA46
:1067900016754FEA06164FEAC30343EA52734FEAEF
:1067A000C2025FEA1C1CC0D111F4801F0BD141EA68
:1067B00000014FF000004FF0004CB6E711F4801FCD
:1067C00004BF01430020B4F1FD0C88BFBCF5E06FAD
:1067D0003FF6AFAEB5EB030C04BFB6EB020C5FEABD
:1067E000500C50F1000041EB045170BD0EF0004E12
:1067F0004EEA113114EB5C04C2BFD4EB0C0541EA44
:10680000045170BD41F480114FF0000E013C90E640
:1068100045EA060E8DE60CEA135594EA0C0F08BF04
:1068200095EA0C0F3FF43BAF94EA0C0F0AD150EA03
:1068300001347FF434AF95EA0C0F7FF425AF104696
:1068400019462CE795EA0C0F06D152EA03353FF4BE
:10685000FDAE1046194622E750EA410618BF52EA3B
:1068600043067FF4C5AE50EA41047FF40DAF52EA0F
:1068700043057FF4EBAE12E74FF0FF3C06E000BFAC
:106880004FF0010C02E000BF4FF0010C4DF804CDB9
:106890004FEA410C7FEA6C5C4FEA430C18BF7FEA79
:1068A0006C5C1BD001B050EA410C0CBF52EA430CA7
:1068B00091EA030F02BF90EA020F0020704710F127
:1068C000000F91EA030F58BF994208BF90422CBFB6
:1068D000D8176FEAE37040F0010070474FEA410CAF
:1068E0007FEA6C5C02D150EA013C07D14FEA430CCD
:1068F0007FEA6C5CD6D152EA033CD3D05DF8040B3E
:10690000704700BF8446104662468C46194663466F
:1069100000E000BF01B5FFF7B7FF002848BF10F146
:10692000000F01BD4DF808EDFFF7F4FF0CBF01208B
:1069300000205DF808FB00BF4DF808EDFFF7EAFF07
:1069400034BF012000205DF808FB00BF4DF808EDC2
:10695000FFF7E0FF94BF012000205DF808FB00BFB7
:106960004DF808EDFFF7CEFF94BF012000205DF841
:1069700008FB00BF4DF808EDFFF7C4FF34BF01204E
:1069800000205DF808FB00BF4FEA410212F500123B
:1069900015D211D56FF47873B3EB625212D94FEA66
:1069A000C12343F0004343EA505311F0004F23FA50
:1069B00002F018BF404270474FF00000704750EAA5
:1069C000013005D111F0004008BF6FF00040704762
:1069D0004FF00000704700BF4A0011D212F50012BC
:1069E00011D20DD56FF47873B3EB62520ED44FEA27
:1069F000C12343F0004343EA505323FA02F07047A7
:106A00004FF00000704750EA013002D14FF0FF30E4
:106A100070474FF0000070474FEA4102B2F1E04387
:106A200024BFB3F5001CDCF1FE5C0DD901F0004C75
:106A30004FEAC0024CEA5070B2F1004F40EB8300C5
:106A400008BF20F00100704711F0804F21D113F1F1
:106A50003872BCBF01F00040704741F480114FEA2A
:106A60005252C2F11802C2F1200C10FA0CF320FAB3
:106A700002F018BF40F001004FEAC1234FEAD323D0
:106A800003FA0CFC40EA0C0023FA02F34FEA43033A
:106A9000CCE77FEA625307D150EA01331EBF4FF0C3
:106AA000FE4040F44000704701F0004040F0FE40DE
:106AB00040F40000704700BF002100F0E1BE00007C
:106AC00010B5054C13462CB10A4601460220AFF31F
:106AD000008010BD204610BD000000000048704737
:106AE00078E2032010B5431E0A44914204D011F805
:106AF000014B03F8014FF8E710BD884210B501EBD8
:106B0000020301D8421E0BE09842FBD28118D21A30
:106B1000D34204D013F8014D01F8014DF8E710BD40
:106B2000994204D011F8014B02F8014FF8E710BD6B
:106B300002440346934202D003F8011BFAE7704770
:106B400038B5124B1C68A36B0546D3B91820FEF765
:106B500077F943F20E33A06303804AF6CD334380C6
:106B600041F2342383804EF26D63C3804DF6EC63B3
:106B70000381052343810B23838101220023C0E984
:106B80000423A36B00221D615A6138BD74E2032007
:106B9000034611F8012B03F8012B002AF9D17047A5
:106BA000034613F8012B002AFBD1181A013870474D
:106BB000104B70B51E680A44914217D010F8013B83
:106BC000F418647804F00304012C11F8014B06EB6F
:106BD000040508BF20336D7805F00305012D08BFBB
:106BE00020341B1B03D1002CE6D100E00023184603
:106BF00070BD00BF10E2032030B582B1451E0139DF
:106C000015F8013F11F8014FA34206D1EC4314449B
:106C1000E04201D0002BF3D11C46181B30BD1046BA
:106C200030BD10B5034642B111F8014B03F8014BDA
:106C3000013A002CF7D11A4400E010BD934202D073
:106C400003F8014BFAE710BD70B504460D4645EC5C
:106C5000104B164601F000FC51EC100B7EB1C5F351
:106C60000A53C3F16B03002B09DD1B0503F17F55AC
:106C7000002405F5401522462B46FFF7EBFB70BDBF
:106C80002DE9F04F9DB0002302900C46139218930B
:106C90004FF0000A4FF0000B1791179B1A780D2A3E
:106CA00005D8092A13D2002A00F0AC8112E02B2A61
:106CB00004D02D2A04D0202A0CD108E0002200E0C4
:106CC00001220C925A1C17925B782BB99AE101337E
:106CD0001793E2E700230C93179D2B78302B5CD1A0
:106CE0006B78582B01D0782B4CD10C9B019318ABAF
:106CF0000093A94A029819AB17A900F014FE10F0EE
:106D00000706044600F08785062E05D101350023CD
:106D100017950C9300F07FBD189A3AB135211AA847
:106D200001F087FC1899029801F004F9062E22D888
:106D3000DFE806F0040D08181D0D04004FF0000BED
:106D4000DA4618E0DDF868A0DDF86CB013E01B9BB4
:106D5000199ADDF868A023F4801302F2334243EA63
:106D6000025B08E0DFF834B24FF0000A03E06FF096
:106D7000004B4FF0FF3A210740F14D854BF0004B9F
:106D800000F049BD179B5A1C17925B78302BF9D045
:106D9000002B00F04085012300E000234FF00008A5
:106DA0000693179B0793CDF81480CDF810800A2224
:106DB000179D2E78A6F13003D9B209290ED804996F
:106DC0000829DDBF059902FB0133059302FB083852
:106DD000049B0135013304931795E9E70298FFF707
:106DE0007DFE07680298FFF779FE0068FFF7D8FE7E
:106DF000394602462846FFF7FFFE074628B1002025
:106E00003346049D0246014657E00298FFF766FEAE
:106E10000068FFF7C5FE179B1A181792049A1B5CAF
:106E2000002A42D11046302B05D1179B5A1C1792CD
:106E300001305B78F7E7A3F13102082A43D8179AAB
:106E40000792024600200546303B00F1010126D0A2
:106E50000A4405EB000C29460A2661450ED0013193
:106E600001F1FF3EBEF1080F03DC059F7743059754
:106E7000F3E71029D8BF06FB08F8EEE728440828F6
:106E800000F1010505DC05980A2101FB003305939B
:106E900004E0102DDCBF0A2101FB08380021179BFC
:106EA000581C17905B78084602E0049D38463A4625
:106EB000A3F130010929C7D90121652B01D0452B48
:106EC00051D16DB904E0652B40F0B384002201215B
:106ED00028B9069B002B00F09580054600E00025B0
:106EE000179C631C179363782B2B06D02D2B02D095
:106EF0000026039606E0012300E000230393A31C71
:106F00001793A378A3F13006092E2BD8302B04D188
:106F1000179B5E1C17965B78F8E7A3F13106082EE5
:106F200021D8A3F1300E179B4FF00A0C1F46179B78
:106F30005E1C17965B78A3F13009B9F1090F04D8EC
:106F40000CFB0E3EAEF1300EF1E7F61B082E44F6B8
:106F50001F6902DCF145A8BFF146039E2EB1C9F1BD
:106F6000000902E017944FF00009002D53D10028CA
:106F700040F05184069A002A40F04D84002941D106
:106F80004E2B20D002DC492B0AD03BE0692B07D0E6
:106F90006E2B18D036E000BF748E0D000000F07F1D
:106FA000A84917A800F0F0FE60B3179BA649013B63
:106FB00017A8179300F0E8FE10B9179B0133179339
:106FC000DFF8A0B21AE0A14917A800F0DDFEC8B1B1
:106FD000179B1B78282B0FD11AAA9D4917A800F0E0
:106FE000E6FE052808D11B9BDDF868A043F0FF4BA7
:106FF0004BF4E00B00F00FBCDFF86CB24FF0000A6E
:1070000000F009BC139B1794002B00F00F840023A1
:107010000C9300F002BC049B0598002B08BF2B4684
:10702000102D2C46C2EB0909A8BF10240493FFF7CA
:107030009BF9092C82468B4613DD864B03EBC40378
:1070400053E91223FFF706FA064640460F46FFF7BC
:107050008BF902460B4630463946FFF749F882461F
:107060008B460F2D36DCB9F1000F00F0D48324DD00
:10707000B9F1160F07DC774D05EBC90952465B469F
:10708000D9E9000114E0C5F12503994522DC714CD2
:10709000C5F10F0504EBC501C5EB090552465B467A
:1070A000D1E9000104EBC504FFF7D4F9D4E90023CA
:1070B000FFF7D0F982468B46ADE319F1160F09DBD5
:1070C000644DA5EBC909D9E9002350465946FFF79D
:1070D000EBFAEFE72C1B4C44002C57DD14F00F01AA
:1070E0000AD05C4B03EBC10152465B46D1E900017B
:1070F000FFF7B0F982468B4634F00F0400F0B880F9
:10710000B4F59A7F0BDD0024254605940494029A79
:10711000DFF850B1222313604FF0000A87E14E4E92
:10712000002324115046594698463746012C0BDD62
:10713000E20704D5D6E90023FFF78CF9012308F113
:10714000010864100836F1E70BB182468B46ABF1BB
:10715000547B07EBC80752465B46D7E90001FFF7AF
:1071600079F921F000438B460A461B0D3B491B056C
:107170008B428246C7D8A1F580118B4286BFDFF8CB
:10718000ECB04FF0FF3A02F1547B71E070D06442F2
:1071900014F00F020AD02F4B03EBC203504659469E
:1071A000D3E90023FFF780FA82468B4624115FD093
:1071B0001F2C04DD002425460594049430E114F0CE
:1071C000100F0CBF00236A23254E039350465946E7
:1071D0000023002C09DDE20704D5D6E90023FFF7E0
:1071E00039F9012364100836F3E70BB182468B4668
:1071F000039BEBB1CBF30A53C3F16B03002B59464E
:1072000016DD1F2B0EDD342BDEBF203B4FF0FF328F
:1072100002FA03F34FF0000ACCBF4FF05C7B03EAA5
:10722000010B05E04FF0FF3202FA03F303EA0A0A0A
:107230000022002350465946FFF774FB0028B9D1BD
:1072400018E000BF9C8E0D009F8E0D00A58E0D00D6
:10725000888E0D00D08E0D00988F0D000000A07C50
:10726000A88E0D000000F07F0000F8FFFFFFEF7F09
:1072700000230393059B0093049A079902982B46D9
:1072800000F0AAFE059000283FF43DAFB9F1000FD1
:10729000C9F10003A8BF00230D93002429EAE97374
:1072A00012932546059B0298596800F00EFE049043
:1072B00000283FF42CAF059B1A69023203F10C0140
:1072C00092000C30FFF70EFC1AAA19A94BEC10AB78
:1072D0000298CDE908AB01F034F9189000283FF48A
:1072E00016AF0121029800F002FF054600283FF486
:1072F0000EAF199B03991A9E002BADBF0D9A129ADF
:10730000DDF8348002EB0308B8BFD21AA3EB010307
:107310003344B549A8BF129A013B8B42C6F13606E9
:1073200080F28A80C91A1F29C8BFB04F4FF00109E7
:10733000D4BF09FA01F3FF1AA6EB0106D9BF0693E1
:10734000002709FA07F7CDF8189008EB0609039B08
:10735000C84516441E444346A8BF4B46B342A8BF87
:107360003346002BC2BFC3EB0909F61AC3EB08086A
:107370000D9B002B64D1B9F1000F7ADC129B002B1E
:1073800040F08180002E00F38880B8F1000F00F3F8
:107390008E80049A1899029800F0FFFF0446002896
:1073A0003FF4B5AEC36807930023C360294600F0DD
:1073B000D8FF002880F28980079B002B40F00482D0
:1073C000BAF1000F40F00082CBF31303002B40F022
:1073D000FB812BF000431B0D1B05B3F1D66F40F270
:1073E000F3816369002B6CD021460122029800F0E2
:1073F00067FF2946044600F0B4FF002840F3E4810B
:107400002BF00043039A1B0D1B05002A00F08C8013
:10741000B3F1D66F00F38880B3F15C7F00F3D681BF
:10742000029A22234FF0000A4FF0000B1360059BD5
:10743000002B40F0DC81EEE101230027069384E776
:1074400029461A46029800F0EDFE054600283FF452
:107450005EAE0146189A029800F052FE079000288E
:107460003FF455AE1899029800F064FD079B1893FD
:1074700081E74A461899029800F022FF18900028E8
:107480007FF47CAF43E6129A0499029800F0CAFE9A
:10749000049000287FF476AF39E6324604990298CA
:1074A00000F00EFF049000287FF46FAF2FE629460E
:1074B0004246029800F004FF054600287FF469AFB9
:1074C00025E62369012B8FDC7EE161D1079ACBF39E
:1074D000130322B346498B425A462ED1039B514691
:1074E00063B1444B1340B3F1D46F07D81B0DC3F104
:1074F0006B034FF0FF3000FA03F301E04FF0FF336E
:107500008B421AD13C498A4202D101333FF4FFAD8C
:10751000384B134003F5801B4FF0000A54E163B968
:10752000BAF1000F09D16BE7A3F580136FEA135B83
:107530006FEA0B5B4FF0FF3A46E117B117EA0B0F0A
:1075400002E0069B13EA0A0F00F03E81079B039AB4
:107550005046594653B1FFF777FB02460B46DDE92B
:107560000801FEF7C5FD82468B462DE1FFF76CFB57
:1075700002460B46DDE90801FEF7B8FD00220023B4
:1075800082468B46FFF7CEF900287FF449AF1BE116
:107590002946204601F023F857EC106B00224FF0EB
:1075A000804310EE100A3946FFF7D0F9002842D088
:1075B000079B23B14FF00008DFF8409011E0BAF1CB
:1075C000000F03D1CBF313033BB91BE0BAF1010F5A
:1075D00003D1BBF1000F3FF423AFDFF824904FF04D
:1075E00000080026054F39E002FCFFFFE2FBFFFF29
:1075F000FFFF0F000000F07FFFFFEF7F0000F03F74
:107600000000F0BF0022984B30463946FFF794F94E
:1076100040B9304639460022944BFEF71BFF064620
:107620000F4601E0914F002607F100431496159391
:10763000DDE9148912E08D4B304639460022FEF711
:1076400009FF079B06460F4623B901F100430E9040
:107650000F9301E0CDE90E67DDE90E892BF00043C1
:107660001B0D1B050693069A814B9A422BD1DDE92F
:107670000823ABF1547B4BEC10ABCDE90A2300F0AF
:10768000EBFE404653EC102B4946FEF7E3FE524614
:107690005B46FEF72DFD21F000431B0D754A1B05CF
:1076A000934282460CD9744B0B9A9A4203D10A9B9F
:1076B00001333FF42CADDFF8C0B14FF0FF3A72E078
:1076C00001F1547B38E0039B33B3069BB3F1D46FD5
:1076D00022D85DA3D3E9002330463946FFF736F9B7
:1076E000A8B139463046FFF777F9002808BF0120D6
:1076F000FEF73AFE079B06460F4623B901F1004309
:107700001090119301E0CDE91067DDE91089069A28
:1077100009F1D663C2EB03099DED080B00F09CFE56
:10772000404653EC102B4946FEF794FEDDE9082352
:10773000FEF7DEFC82468B46039BA3BB2BF0004387
:107740001B0D069A1B059A42D8462CD13946304665
:10775000FFF71AF9FEF718FE0B4602463946304687
:10776000FEF7C4FC079B06460F462BB9BAF1000F83
:1077700002D1CBF3130383B135A3D3E90023304601
:107780003946FFF7D9F8002831D133A3D3E90023D4
:1077900030463946FFF7EEF804E031A3D3E9002381
:1077A000FFF7CAF818BB1899029800F0C3FB0499B8
:1077B000029800F0BFFB2946029800F0BBFB21466F
:1077C000029800F0B7FB6DE5039B83B12B4B0B9345
:1077D00000230A9350465946DDE90A23FEF73AFE94
:1077E00082468B4619B910B9029A22231360189960
:1077F000029800F09FFB0499029800F09BFB294639
:10780000029800F097FB0599029800F093FB21463F
:10781000029800F08FFB139B13B1139A179B136010
:107820000C9B1BB152460BF1004307E052465B46EE
:1078300004E000252A460121FFF741BB43EC102B51
:107840001DB0BDE8F08F00BF0000C0FFFFFFDF41AB
:107850009535A094FFFFDF3F35E5AF350000E03FF1
:107860009535A094FFFFCF3F0000F03F0000E03FC0
:107870000000E07FFFFF9F7CFFFFEF7F000050399B
:10788000024B0A4601461868FFF7FAB974E2032072
:10789000F0B506694B11B34200F1140527DA11F077
:1078A0001F0105EB860605EB830201D1294616E090
:1078B000141D55F82320C1F1200ECA402B46B442B6
:1078C00009D2276807FA0EF73A4343F8042B54F815
:1078D000042BCA40F3E71A6052B1043308E0B24205
:1078E0000B4605D252F8043B41F8043BF7E72B4620
:1078F0005B1B9B10036103B94361F0BDA0F1300332
:10790000092B01D820380AE0A0F16103052B01D82A
:10791000473804E0A0F14103052B02D82738C0B254
:107920007047002070472DE9F04F8BB08A46904693
:1079300006930290FFF7D2F8036803931846FFF707
:107940002FF9039B019003444FF0000B13F8013C07
:107950000793DAF8003002331F4613F8010B302882
:1079600002D10BF1010BF7E7FFF7C8FF0446E0B9BE
:10797000019A03993846FFF73FF9002834D1019B5B
:10798000F85CFE18FFF7BAFF80B33346187830284A
:107990001F4603F10103F9D0FFF7B0FFB0FA80F5FD
:1079A0006D0934464FF0010B01E000252C463A46A4
:1079B000164601323078FFF7A1FF0028F8D1019A6E
:1079C00003993046FFF718F950B954B9019BF418E0
:1079D0002246164601323078FFF790FF0028F8D192
:1079E00034B1A41BA40003E03E4600E00446012598
:1079F0003378502B01D0702B2AD173782B2B08D0E1
:107A00002D2B03D0711C4FF0000905E04FF0010948
:107A100001E04FF00009B11C0878FFF76FFF431E2B
:107A2000DBB2182B14D8A0F1100211F8010FFFF7E8
:107A300065FF431EDBB2182B04D80A2303FB0202A6
:107A4000103AF2E7B9F1000F00D05242144400E0BE
:107A50003146CAF800102DB1BBF1000F14BF002051
:107A600006207CE1F31B013B2946072B02DD013197
:107A70005B10FAE7029800F028FA019B00F1140A63
:107A80004FF00009C3F101030546CDF810A0CB4625
:107A90000893B7422FD2731E0593079A16F8013C3C
:107AA00093420BD0BBF1200F16D1049BC3F800907A
:107AB00004334FF000090493CB460DE0059B089A70
:107AC00013449F42EED81846019A03990993FFF791
:107AD00093F8099B68B1E5E716F8010CFFF70EFF74
:107AE00000F00F0000FA0BF0059B49EA00090BF1CA
:107AF000040B1E46CDE7049840F8049BCAEB000037
:107B0000801028614701484600F0A4FAD8F80060C8
:107B1000381AB04226DD871B3946284600F0A3FDFF
:107B2000C8B17B1E591103F01F024FF001095AF82A
:107B3000211009FA02F20A420ED04B4502DC4FF046
:107B4000020909E0B91E284600F08DFD0028F6D094
:107B50004FF0030900E0814639462846FFF798FEBA
:107B60003C440CE009DA371A29463A46029800F0FC
:107B7000A7FBE41B054600F1140A4FF00009D8F8F2
:107B800008309C4208DD0298294600F0D3F9149A87
:107B900000231360A320E2E0D8F80400844253DA03
:107BA000041BA6422EDCD8F80C30022B1AD0032B73
:107BB0001CD0012B1DD1A6421BD1012E0BDC069A35
:107BC000D8F80430136001232B61CAF80030149BED
:107BD00062201D60C3E0711E284600F044FD0028AD
:107BE000EDD106E0159B002BE9D002E0159B002BA0
:107BF000E5D10298294600F09DF9149A00231360FC
:107C00005020ACE0671EB9F1000F06D13FB13946F4
:107C1000284600F028FD814601E04FF001097A1165
:107C2000012307F01F0703FA07F75AF8223021460D
:107C30001F42284618BF49F00209361BFFF728FEED
:107C40000227D8F8044000E00127B9F1000F00F046
:107C50008180D8F80C30022B0ED0032B10D0012BD2
:107C600076D119F0020F73D0DAF8000049EA000962
:107C700019F0010F07D16BE0159BC3F101031593B8
:107C8000159B002B64D0D5F810A005F114034FEA22
:107C90008A0903EB090100201A68B2F1FF3F02D004
:107CA00001321A6020E043F8040B9942F4D8AB6823
:107CB0009A4512DB69680298013100F006F92A69D9
:107CC000023205F10C01834692000C30FEF70AFFE8
:107CD0002946029800F02EF95D462B695A1C05EBE7
:107CE00083032A6101225A61022F05F1140211D186
:107CF000D8F80030013B9E4227D17111012306F0D4
:107D00001F0603FA06F652F821301E420CBF022766
:107D100001271AE02B699A450ADA01212846FFF764
:107D2000B7FDD8F8083001349C423FF72CAF0BE088
:107D300016F01F0608D09144C6F1200659F8040C2D
:107D400000F088F9B042E8DB012747F0200701E0A6
:107D500047F01007149B1D60069B38461C600BB053
:107D6000BDE8F08FC2F10802920070B5C2F12006A2
:107D70004368056803FA06F42C43D340046040F8D6
:107D8000043F8842F4D370BD30B5036811F8014B4D
:107D900001334CB11A78A2F14105192D98BF203258
:107DA000A242F3D0002030BD0360012030BD2DE998
:107DB000F04F0B68D0F800B05E1102EB860613F0AE
:107DC0001F0385B018BF0436351F174600228246B0
:107DD000019346F8042CA8462C46009291461BF8C5
:107DE000011F00293CD0084603920291FFF786FD4F
:107DF000039A00BB0299202916D8009B9945EEDD15
:107E0000444505D2072A03DC41462046FFF7AAFF76
:107E1000BC4223D90023A4F1040844F8043CCDF863
:107E2000009044461A46DAE7292948D10BF10103AC
:107E3000CAF8003014E00132082A09F1010906DD10
:107E4000BC42CCD9002344F8043C0122043C216804
:107E500000F00F0040EA01102060C0E70822BEE7F2
:107E6000B9F1000F2BD0444505D2072A03DC414667
:107E70002046FFF777FFBC420CD93B4654F8042B51
:107E800043F8042BA542F9D2002243F8042B9D426B
:107E9000FBD20BE0019B4BB1C3F120024FF0FF334B
:107EA000D34056F8042C134046F8043C2B6843B9E1
:107EB000BD4202D101232B6003E0043DF6E704201C
:107EC00000E0052005B0BDE8F08F70B5456A0446B6
:107ED0000E463DB91020FCF7B3FF60624560856037
:107EE0000560C560656AEB6843B1636ADB6853F897
:107EF000260078B1026843F8262017E021220421E9
:107F0000204600F0D2FB636AE860DB68002BECD10E
:107F1000002070BD012101FA06F56A1D920020467D
:107F200000F0C3FB0028F3D04660856000230361A6
:107F3000C36070BD70B5446A06460D463CB910205A
:107F4000FCF77EFF7062446084600460C4603DB1F1
:107F5000736A6A68DB6853F82210296043F822507C
:107F600070BD2DE9F0410D691F4606460C4601F132
:107F7000140E0023DEF8000081B202FB01710F0C29
:107F8000000C02FB007089B2013301EB00419D42FD
:107F90004FEA10474EF8041BECDCD7B1A3689D42B2
:107FA00012DB616830460131FFF78FFF2269023230
:107FB00004F10C01804692000C30FEF793FD21463F
:107FC0003046FFF7B7FF444604EB850301355F6198
:107FD00025612046BDE8F0812DE9F8430C461546A1
:107FE0001F4609220833064693FBF2F300210122C3
:107FF0009A4202DA52000131FAE73046FFF765FF94
:10800000089B4361092D4FF00103036111DD04F169
:108010000908C1462C4419F8013B0146303B0A22AD
:108020003046FFF79EFFA145F5D108EB0504083C5B
:1080300001E00A3409252D1B63199F4208DD14F85D
:10804000013B0146303B0A223046FFF78AFFF3E747
:10805000BDE8F883030C1B0413B90004102300E0EF
:10806000002310F07F4F04BF0002083310F0704F60
:1080700004BF0001043310F0404F04BF80000233FE
:10808000002803DB420003D5581C70471846704790
:1080900020207047036813F007020BD0D90722D4C1
:1080A0009A074BBF5B089B08036003604CBF01202D
:1080B0000220704799B209B91B0C102213F0FF0F70
:1080C00004BF1B0A0832190704BF1B0904329907B1
:1080D00004BF9B080232D90702D45B0805D00132E5
:1080E000036010467047002070472020704710B58D
:1080F0000C460121FFF7E9FE01224461026110BD37
:108100002DE9F74F14460A6923699A42B8BF0B4616
:108110008846BCBFA0461C46D8F81070D4F8109012
:10812000D8F80830D8F8041007EB09069E42C8BFFB
:108130000131FFF7CAFE00F1140505EB860C2B4652
:108140000022634502D243F8042BFAE704F114023B
:1081500008F1140102EB890301EB87070093009BF0
:108160000192934257D9B2F800B0BBF1000F23D06F
:108170008946AE464FF0000859F8044BBEF800A0FF
:10818000A3B20BFB03A34FEA144ADEF800404344BA
:108190004FEA14480BFB0A8404EB1344F2469BB2EB
:1081A00043EA04434F454FEA14484AF8043B01D9D7
:1081B000D646E1E7CEF80480019BB3F802A0043272
:1081C000BAF1000F21D02B682C4689464FF00008E9
:1081D000B9F800E0B4F802B00AFB0EBEF044A346C2
:1081E0009BB243EA08434BF8043B59F8043BB4F80C
:1081F00004E01B0C0AFB03E303EB18434F454FEA73
:10820000134801D95C46E3E763600435A7E75CF8EF
:10821000043D13B9013E002EF9DC066103B0BDE850
:10822000F08F00002DE9F843154612F003020646D0
:108230000F4607D0013A214C002354F82220FFF7C3
:1082400090FE0746AD1036D0746A3CB91020FCF79A
:10825000F7FD7062446084600460C460D6F82480D6
:10826000D8F808404CB940F271213046FFF73FFF83
:108270000023C8F80800044603604FF00008EB072D
:108280000AD5394622463046FFF73AFF394681463D
:108290003046FFF74FFE4F466D100CD0206808B1F6
:1082A0000446ECE7224621463046FFF729FF2060CE
:1082B000C0F80080F4E73846BDE8F883C08F0D00B1
:1082C0002DE9F0470C464FEA621A26694968A3680F
:1082D000564407469146751CAB4202DA01315B00F9
:1082E000FAE73846FFF7F1FD0023804600F114015C
:1082F0001A46534503DA41F823200133F9E72AEA05
:10830000EA73206901EB830319F01F0904F11401DA
:1083100001EB800E14D0C9F1200C0022086800FA8D
:1083200009F002439A4643F8042B51F8042B8E457A
:1083300022FA0CF2F2D8CAF8042042B1B51C06E0C9
:10834000043B51F8042B43F8042F8E45F9D8013D26
:108350003846C8F810502146FFF7ECFD4046BDE80E
:10836000F08703690A699B1A10B511D19200143085
:10837000143183180A4453F8044D52F8041D8C42FA
:1083800002D007D3012010BD9842F4D3002010BDC5
:10839000184610BD4FF0FF3010BD2DE9F8430C46D4
:1083A0000746114620461546FFF7DBFF061E08D19B
:1083B00031463846FFF789FD012303614661BDE878
:1083C000F883BCBF23462C4638466168BABF1D46B9
:1083D00001260026FFF779FD2B69C660266905F1A5
:1083E0001409143404EB860709EB830800F1140523
:1083F0004FF0000C54F8043B59F8042B1CFA83F19D
:108400001FFA82FE120CCEEB0101C2EB134303EB09
:10841000214389B24FEA234CC84541EA0343A646AB
:1084200045F8043BE6D8BE450ED25EF8041B1CFAA4
:1084300081F2131403EB114392B242EA03424FEA72
:10844000234C45F8042BEEE755F8043D0BB9013EEB
:10845000FAE70661BDE8F883124B10EE902A1A4045
:10846000A2F15073002B02DD0020194617E05B4299
:108470001B15132B4FF000004FF0000104DC4FF4EC
:10848000002242FA03F10AE0143B1E2B4FF00102D6
:10849000DABFC3F11F0302FA03F31346184641EC97
:1084A000100B70470000F07FF8B5056900F1140665
:1084B00006EB85052F1F55F8044C2046FFF7CAFD33
:1084C000C0F120030A280B6014DCC0F10B0E24FA63
:1084D0000EF1BE4241F07F5334BF55F8081C002115
:1084E000153004FA00F021FA0EF143F4401340EA8B
:1084F000010223E0BE423ABFA5F1080755F8081C67
:1085000000210B3815D08440C0F1200544F07F5481
:1085100044F44014B74221FA05FE44EA0E038CBF2E
:1085200057F8044C002401FA00F0EC4040EA040241
:1085300004E044F07F5343F440130A4643EC102B0D
:10854000F8BD2DE9F7430E46012159EC108B154675
:10855000FFF7BBFCC9F30A540746C9F313030CB178
:1085600043F480130193B8F1000F19D002A840F82A
:10857000088DFFF78FFD009B48B1019AC0F12001E3
:1085800002FA01F10B43C2407B61019200E07B6182
:10859000019BBB61002B14BF02210121396107E05F
:1085A00001A8FFF777FD019B7B6101213961203034
:1085B00034B1A4F2334404443460C0F1350009E01E
:1085C00007EB8103A0F2324030601869FFF742FDEB
:1085D000C0EB41102860384603B0BDE8F0832DE9B8
:1085E000F743884669468146FFF75EFF01A940468A
:1085F00055EC104BFFF758FFD9F81030D8F8102081
:108600009A1A9DE80A00C91A57EC106B01EB421345
:10861000002BCCBF05EB0355A7EB035732463B4677
:1086200020462946FEF740F841EC100B03B0BDE8A8
:10863000F083013910B549111469013102F11403B5
:1086400000EB810103EB8404A342024604D253F8F9
:10865000042B40F8042BF7E700238A4202D242F8A9
:10866000043BFAE710BD00F1140200694B11984277
:1086700010B50CDB0CDD11F01F0109D052F82340BE
:1086800024FA01F000FA01F18C420CD100E003461B
:1086900002EB8303934204D953F8041D0029F9D057
:1086A00001E0002010BD012010BD38B502FB01F42F
:1086B0002146FCF7E5FB054618B122460021FEF7EE
:1086C00037FA284638BD000021400D005D400D00FE
:1086D00089400D008D400D0000000000436F6E6E5C
:1086E000656374696E6720746F204D5154542E2E4B
:1086F0002E20005265747279696E67204D51545472
:1087000020636F6E6E656374696F6E20696E2035CD
:10871000207365636F6E64732E2E2E004D5154547A
:1087200020436F6E6E6563746564210050696E67E7
:10873000696E67204D515454200A00446973636F79
:108740006E6E656374696E67200A00476F743A2025
:1087500025302E3266200A005075626C6973686994
:108760006E672054656D702025302E3266204320C0
:108770000A0072617368617000696F2E61646166DE
:10878000727569742E636F6D00353938313639660C
:1087900061336261393436333639343161333330E1
:1087A00039373665343265326300726173686170DF
:1087B0002F66656564732F486F6D655F54656D70D6
:1087C00065726174757265007261736861702F669D
:1087D000656564732F54656D70657261747572653B
:1087E000000000000000000000000000CD400D006F
:1087F000FD420D00A1430D004D440D007F440D00CE
:10880000B5430D00F5430D0000000000000000001E
:108810000000000000000000A9400D00A9400D006C
:10882000A9400D00A9400D00A9400D008F880D0042
:10883000A3880D0073880D00B5880D00FA880D001F
:108840003F890D005F890D0092890D00AC890D00F4
:10885000E3890D00205B30780030005D2C20000A99
:10886000090044726F707065642061207061636BF1
:10887000657400556E6B6E6F776E206572726F72E5
:10888000004D51545400252525642E25646600466C
:1088900061696C656420746F2073756273637269BB
:1088A000626500436F6E6E656374696F6E2066610A
:1088B000696C656400546865205365727665722042
:1088C000646F6573206E6F7420737570706F72744F
:1088D00020746865206C6576656C206F662074680E
:1088E00065204D5154542070726F746F636F6C200B
:1088F0007265717565737465640054686520436CB6
:1089000069656E74206964656E7469666965722054
:10891000697320636F7272656374205554462D38F5
:1089200020627574206E6F7420616C6C6F77656463
:1089300020627920746865205365727665720054F0
:108940006865204D515454207365727669636520C3
:10895000697320756E617661696C61626C65005443
:108960006865206461746120696E20746865207593
:10897000736572206E616D65206F72207061737314
:10898000776F7264206973206D616C666F726D65BC
:1089900064004E6F7420617574686F72697A6564E3
:1089A00020746F20636F6E6E656374004578636535
:1089B00065646564207265636F6E6E6563742072B2
:1089C000617465206C696D69742E20506C656173EB
:1089D000652074727920616761696E206C617465CD
:1089E000722E00596F752068617665206265656E2C
:1089F0002062616E6E65642066726F6D20636F6EBB
:108A00006E656374696E672E20506C6561736520B6
:108A1000636F6E7461637420746865204D515454A3
:108A2000207365727665722061646D696E69737416
:108A30007261746F7220666F72206D6F7265206450
:108A4000657461696C732E00000000000000000076
:108A5000FF4E0D00F54E0D00EB4E0D00E14E0D00EA
:108A6000D54E0D00C94E0D00BD4E0D00B54E0D008A
:108A7000AB4E0D00A14E0D00655D0D006261756489
:108A80000053657269616C0053657269616C3100F5
:108A90007479706500706172616D00636D64006966
:108AA0006400686E64007374726D0066696C7400B3
:108AB0006C766C0061646448616E646C657200720F
:108AC000656D6F766548616E646C657200656E7584
:108AD0006D48616E646C657273004A534F4E5374F7
:108AE0007265616D4C6F6748616E646C65720061A0
:108AF000707000253031307520005D200028293A43
:108B00002000205B00636F6465203D200025690024
:108B100064657461696C73203D20000D0A006C6E01
:108B200000666E00636F64650064657461696C0063
:108B30006E6F6E6500747261636500696E666F00CA
:108B40007761726E0070616E696300616C6C005ACF
:108B500000252B3033643A253032750025592D25F8
:108B60006D2D25645425483A254D3A2553257A0024
:108B700061736374696D650000000000000000000F
:108B800069520D0059520D005B520D0000000000AB
:108B9000000000006D530D00BD530D00CB530D00C0
:108BA000A94F0D00A9530D006F530D0085530D0003
:108BB000B7530D009B530D0069530D0000000000DA
:108BC0000000000079540D00C9540D00D7540D0069
:108BD000A94F0D008D540D00AF540D009B540D0096
:108BE000C3540D007B540D007F540D0000000000A5
:108BF00000000000D3550D00C9550D00BF550D00F4
:108C0000B5550D00A9550D009D550D0091550D0050
:108C100089550D007F550D0075550D00655D0D00E2
:108C2000000000000000000079570D007F570D0084
:108C3000675C0D008D570D007B570D000000000094
:108C400000000000D1400D0005410D00F1560D005F
:108C50000B570D000D5B0D005F580D0031580D00D6
:108C600035570D00E9590D00E5580D0093580D00DA
:108C7000DD5A0D0037570D006F570D001D570D00C1
:108C800091570D0011580D00776972696E67007277
:108C9000656376206572726F72203D202564000046
:108CA0000000000000000000DD5C0D00D35C0D0042
:108CB000C95C0D007F5C0D00BD5C0D00B15C0D005A
:108CC000A55C0D009D5C0D00935C0D00895C0D00A2
:108CD000655D0D000000000000000000FD5C0D005F
:108CE000075D0D00115D0D001B5D0D00255D0D0084
:108CF000315D0D003D5D0D00495D0D00515D0D00C4
:108D00005B5D0D00655D0D000020202020202020EF
:108D1000202028282828282020202020202020202B
:108D2000202020202020202020881010101010103B
:108D30001010101010101010100404040404040487
:108D40000404041010101010101041414141414121
:108D50000101010101010101010101010101010103
:108D60000101010110101010101042424242424213
:108D700002020202020202020202020202020202D3
:108D8000020202021010101020000000000000007B
:108D900000000000000000000000000000000000D3
:108DA00000000000000000000000000000000000C3
:108DB00000000000000000000000000000000000B3
:108DC00000000000000000000000000000000000A3
:108DD0000000000000000000000000000000000093
:108DE0000000000000000000000000000000000083
:108DF0000000000000000000000000000000000073
:108E00000000000000000000000000000000000062
:108E10000000000000000000000000000000000052
:108E20000000000000000000000000000000000042
:108E30000000000000000000000000000000000032
:108E40000000000000000000000000000000000022
:108E50000000000000000000000000000000000012
:108E60000000000000000000000000004300504F20
:108E70005349580035000000CEFBFFFFCB03000034
:108E8000010000000000000034000000CEFBFFFFE6
:108E9000CB03000001000000000000006E660069C6
:108EA0006E69747900616E00BC89D897B2D29C3C1F
:108EB00033A7A8D523F649393DA7F444FD0FA532C1
:108EC0009D978CCF08BA5B25436FAC642806681168
:108ED000000000000000F03F0000000000002440FF
:108EE00000000000000059400000000000408F40DA
:108EF000000000000088C34000000000006AF84045
:108F00000000000080842E4100000000D012634168
:108F10000000000084D797410000000065CDCD41DE
:108F2000000000205FA00242000000E876483742BF
:108F3000000000A2941A6D42000040E59C30A2425D
:108F40000000901EC4BCD64200003426F56B0C43D2
:108F50000080E03779C3414300A0D8855734764379
:108F600000C84E676DC1AB43003D9160E458E143DA
:108F7000408CB5781DAF154450EFE2D6E41A4B444F
:108F800092D54D06CFF08044F64AE1C7022DB54494
:108F9000B49DD9794378EA440080E03779C34143EE
:108FA000176E05B5B5B89346F5F93FE9034F384D4F
:108FB000321D30F94877825A3CBF737FDD4F1575FB
:108FC00005000000190000007D0000000D430D00A9
:108FD000DF440D00F34A0D00094F0D003D4F0D0019
:108FE000814F0D00E5500D00F5500D002D510D0085
:108FF000A1560D00E95C0D00315E0D00555E0D00BF
:10900000D95E0D009D5F0D0061600D000000000045
:04901000000000005C
:10901400708B0D00088D0D00000000000C8E0D00FB
:109024002C8E0D004C8E0D0000000000000000008E
:1090340000000000000000006C8E0D000000000025
:10904400000000000000000000000000000000001C
:10905400000000000000000000000000000000000C
:1090640000000000000000000000000000000000FC
:10907400000000000000000014E203201A870D0025
:1090840061880D0061880D0061880D0061880D0004
:1090940061880D0061880D0061880D0061880D00F4
:1090A40061880D00FFFFFFFFFFFFFFFFFFFFFFFFD2
:0490B400FFFF0000BA
:1090B800FFFFFFFF00000102030405060708090A75
:1090C8000B0C0D0E0F101112131415161718191A70
:0890D8001B1C1D1E1F202800B7
:0490E0007856341278
:04000003D0004020C9
:00000001FF
