:02000002D0002C
:1040000000400D00F8700D00000006000C000501D6
:0840100004014E040000000051
:1040180090680D0009480A49884208B505D0094A40
:10402800824202D0121A02F001FB0748074A002117
:10403800121A02F021FB014808BD00BF14E2032058
:1040480060700D0084E2032084E20320F0E703207F
:1040580070B501F07DFD074C074BE41AA408002554
:104068001E46A54204D056F8253098470135F8E792
:1040780070BD00BF5C700D001C700D0000F046B8EC
:1040880008B500F075F8BDE8084001F02FBD00F054
:1040980031BF00F037BF00F035BF000008B5034A54
:1040A80000210C2000F09AFEFEE700BF054D0D0030
:1040B8000078B0FA80F04009704701230370704718
:1040C8007047000038B584690A4B036005467CB127
:1040D8006368013B63605BB9236820469B68984727
:1040E800A368013BA3601BB923682046DB68984797
:1040F800284638BD486C0D0010B50446FFF7E2FFAE
:104108002046FFF7C6FF204610BD000008B501F0A5
:1041180015FC4FF4E13101F0FFFB01F00FFC01F059
:1041280002FC0028F9D00C4B0121188801F01CFF73
:104138000A4B0321188801F017FF094BFF221A6068
:1041480001F0FCFB074901F07CFD07490748BDE881
:10415800084000F0DDB900BF14E20320B4E20320F8
:10416800B8E20320A4680D0098E30320BCE2032012
:1041780070B501F0E3FB584901F050FD01F0DEFB9A
:10418800044600F0C3FD0A220146204601F092FDD4
:1041980001F0D4FB5149524C01F040FD01F0CEFB37
:1041A8000546208801F0F1FE0A220146284601F062
:1041B800B7FD20884B4C01F0E8FE01284A4B07D197
:1041C8004A4A1888116801F0F3FE4FF07E5304E064
:1041D8001888002101F0ECFE002340F6B830236077
:1041E80001F063FC01F0AAFB414901F017FD01F061
:1041F800A5FB054600F08AFD0A220146284601F083
:1042080059FD01F09BFB05463A4800F024FC0A22C0
:104218000146284601F07AFD2068374D02F0A0F9E2
:1042280041EC100B0221354800F06AFB01F086FBD7
:10423800334901F0F3FC01F081FB044600F066FD10
:104248000A220146204601F035FD41F2883129480D
:1042580000F07AF9E8B1A842F7D101F06FFB6C1DC4
:10426800284901F0DBFC01F069FB214601F0E9FC7B
:10427800204602F0C9F91D4C206001F05FFB22497D
:1042880001F0CCFC01F05AFB0A22216801F03EFD46
:10429800DBE701F053FB1D491D4D01F0BFFC01F0A8
:1042A8004DFB044600F032FD0A220146204601F08B
:1042B80001FD00F02BFD286000F028FD154C206062
:1042C800264623682A689B1AB3F5FA6F03DA00F0CA
:1042D8001DFD3060F5E770BDB4680D00C2680D00C3
:1042E800B4E20320A4E2032014E20320B8E203208E
:1042F800D2680D00BCE2032098E30320A8E2032063
:10430800E3680D00F2680D00F8680D000B690D00F8
:1043180090E3032094E3032010B50446FFF7B9FEA9
:10432800204610BD73B5174D174E184C00F00EFD02
:10433800284601F08BF932461549284601F05EFE01
:10434800144B009340F25B72134B1449204600F063
:1043580045F8134B1349236032462046C4F8D05021
:1043680001F04CFE214600230F4A104800F0C2FA23
:104378000F4A10480023214602B0BDE8704000F003
:10438800DDBA00BF88E2032084E20320BCE20320F8
:10439800CD400D0033690D001C690D0023690D0027
:1043A800A06B0D00C9400D0054690D00A8E2032060
:1043B80068690D0098E3032070B5044608460E4668
:1043C80002F092F903122370607085B202342A4613
:1043D8003146204602F0B4F9601970BD30B503616A
:1043E800039B0D4D028143610C4A05600023416027
:1043F800C260C0F8BC30C0F8C030C0F8C430C0F8E3
:10440800C830C0F8CC308361C36180F8203080F8B0
:104418002130A0F8B83030BD88690D00B1690D00B1
:104428002DE9F74F0FFA83FA036801929D6901227B
:10443800534606460C46A847C0B2012801D00020C2
:1044480034E0651C04F1050B80464FF00009336821
:104458009B6901221F46294653463046B847C0B2D9
:104468000128ECD115F8013B03F07F025D4502FB02
:1044780008994FEAC818E2D01B06E8D4019B2C1B08
:104488001B1B013B9945336806D9019A9F69013A7C
:10449800121B534692B203E09F691FFA89F25346F2
:1044A80029463046B847C0B2204480B203B0BDE8C0
:1044B800F08F0000F8B505460C4616461F463B46E9
:1044C800962221462846FFF7ABFF48B12378B6EB82
:1044D800131F05D001F032FA024901F0B2FBEEE7F2
:1044E800F8BD00BFB2690D0010B5E02380F8223096
:1044F800002380F82330036804465B69022200F138
:1045080022019847236820461B69BDE810401847D8
:1045180000F1B80230B5134600F1CC0453F8045F3B
:104528008D420FD0A342F9D1002352F8044F24B989
:1045380000EB8300C0F8BC1004E00133052BF4D174
:10454800002030BD012030BD2DE9F04F00F12209D7
:104558008BB287B0962249460446FFF761FF0646AC
:1045680010B394F82570BBB2019304F1260304F14B
:10457800B80A002502935AF804BFBBF1000F0ED009
:10458800DBF800100391084602F0AEF8B842804606
:10459800039904D13A46029802F0AEF828B10135E1
:1045A800052DE8D100204AE049E094F822A00AF05D
:1045B800060ABAF1020F3FD1E21992F8267092F872
:1045C800272042EA0727142200210BF1050002F0F8
:1045D80053F8019BC3F57F40FC30064404EB850586
:1045E800CAEB0606B6B2152ED5F8BC0008F10401D0
:1045F80028BF1326514432464944053002F021F8B9
:10460800D5F8BC305E8394F8223003F00603022B01
:104618000FD18DF815303B128DF8163023688DF8C0
:10462800177040228DF814205B69042205A92046E2
:104638009847D5F8BC0002E007468246C3E707B0B2
:10464800BDE8F08F38B504460846102300F8023B51
:104658000D462949FFF7B0FE042303700223437077
:10466800A369ABB11B789BB10623437094F8203043
:10467800012B01D10E2302E0022B01D11E2343702E
:1046880094F82130012B02BF437843F02003437094
:1046980023691B781BB1437863F07F034370636918
:1046A8001B781BB1437843F04003437001238370A8
:1046B8002C23C370E1680B781BB10430FFF77CFE34
:1046C80002E0037143710630A16931B10B7823B15F
:1046D800FFF772FEE169FFF76FFE21690B780BB1F6
:1046E800FFF76AFE61690B780BB1FFF765FE401BA7
:1046F800C0B2831E6B7038BDD1690D002DE9F84337
:10470800054610460E4691461F4601F0EDFF9DF8FE
:104718002480BDF8204080B2B8F1000F01D1831C7D
:1047280000E0031D4FEA480230469BB242F03002D7
:10473800234400F8012B9BB203F07F02DB0918BF6A
:1047480042F0800200F8012B002BF5D14946FFF713
:1047580033FE0346B8F1000F0CD0B5F8B820120AA2
:104768000270B5F8B8204270B5F8B82001320233AB
:10477800A5F8B82022463946184601F062FF2044C1
:10478800801B80B2BDE8F88373B59DF8186000F10E
:10479800220504468DE8480013460A462946FFF7D5
:1047A800ADFF236802465B6929462046984708B949
:1047B800002017E0B6B14FF4FA7396222946204636
:1047C800FFF72EFE0428F3D194F822301B11042B96
:1047D800EED1A38CB4F8B8005BBA01339BB2C31A0C
:1047E8005842584102B070BDF7B5054610461F46FD
:1047F8000E46144601F078FF009783B222463146F0
:104808002846FFF7C1FF03B0F0BD38B51D46822327
:104818000B700C46B0F8B810090AA170B0F8B8309F
:10482800E370B0F8B8100131A0F8B8101146201D97
:10483800FFF7C2FD00F8015B001BC0B2831E637066
:1048480038BD2DE9F0410368DB680446984718B97C
:104858004FF0FF30BDE8F08104F1220529462046DB
:10486800FFF7F0FE236882B25B6929462046984725
:104878000028EDD041F27073962229462046FFF7B2
:10488800CFFDC0B20428E3D1638CB3F5087FDFD134
:1048980094F8250010B140B2BDE8F08104F1B807E2
:1048A80004F1CC0857F8043FFBB103263A682946BF
:1048B800137912682046FFF7A8FF236882B25B6964
:1048C8002946204698470028C2D04FF4FA73092297
:1048D80029462046FFF7EEFD38B9013E16F0FF06DF
:1048E800E4D16FF00100BDE8F0814745DAD100203E
:1048F800BDE8F08110B580E80600037210BD000025
:1049080010B592B004460B4600220B4902A88DED63
:10491800000B00F0FFFA9DED000B02A953EC102BE1
:1049280007A800F0F7FA237A07AA94E80300FFF72C
:104938005BFF12B010BD00BFD6690D0010B5037142
:104948000023416302604383C3614362036283625D
:10495800C362036310BD00F0F9B908B5D0F8D00000
:1049680003681B6B9847003018BF012008BDF8B5D5
:1049780006460F461446C4B1D6F8D00003681B6B30
:10498800984708B90020F8BDD6F8D000FA2C03687B
:104998002546A8BFFA25DB682A463946984780B2DB
:1049A800241A8542A4B2E6D0ECE70120F8BD2DE92F
:1049B800F8430646884691461F461D460024D6F809
:1049C800D00003681B6B9847D0B1002D18DBD6F8D0
:1049D800D00003681B69984760B1D6F8D000036817
:1049E8005B69984708F804000134A4B24C4507D025
:1049F8003D46ECE70A3D0A202DB201F056F8DEE705
:104A08002046BDE8F88370B5044600F122059622D9
:104A18000021284601F030FE6168284601F05CFE5E
:104A2800D4F8D0002289036829465E6A0023B0477B
:104A3800003018BF012070BD10B50446D0F8D00072
:104A480003681B6B984720B1D4F8D0000368DB6A71
:104A58009847012010BD70B503689B6804469847C5
:104A6800C8B92046FFF7EDFE042570B1013D15F0E9
:104A7800FF050AD02046FFF737FD41F2883001F0E4
:104A880014F82046FFF7DDFEEFE7236820469B6811
:104A9800BDE87040184770BD00F058B908B5024B22
:104AA8001B681B68019308BD4C02030008B5024B44
:104AB8001B685B68019308BD4C02030008B5024BF4
:104AC8001B681B69019308BD4C02030008B5024B23
:104AD8001B685B69019308BD4C02030008B5024BD3
:104AE8001B689B69019308BD4C02030008B5024B83
:104AF8001B68DB69019308BD4C02030008B5024B33
:104B08001B681B6A019308BD4C02030008B5024BE1
:104B18001B685B6A019308BD4C02030008B5024B91
:104B28001B689B69019308BD3802030008B5024B56
:104B38001B68DB69019308BD3802030008B5024B06
:104B48001B681B6A019308BD3802030008B5024BB5
:104B58001B689B6A019308BD3802030008B5024B25
:104B68001B681B6B019308BD3802030008B5024B94
:104B78001B689B6B019308BD3802030008B5024B04
:104B88001B681B6A019308BD2802030008B5024B85
:104B98001B685B6A019308BD2802030008B5024B35
:104BA8001B689B6A019308BD2802030008B5024BE5
:104BB8001B68DB6A019308BD2802030008B5024B95
:104BC8001B681B6B019308BD2802030008B5024B44
:104BD8001B685B6B019308BD2802030008B5024BF4
:104BE8001B681B6C019308BD2802030008B5024B23
:104BF8001B681B68019308BD3C02030008B5024B03
:104C08001B68DB68019308BD3C02030008B5024B32
:104C18001B681B69019308BD3C02030008B5024BE1
:104C28001B685B69019308BD3C02030008B5024B91
:104C38001B689B69019308BD3C02030008B5024B41
:104C48001B68DB69019308BD3C02030008B5024BF1
:104C58001B681B6A019308BD3C02030008B5024BA0
:104C68001B689B6A019308BD3C02030008B5024B10
:104C78001B685B69019308BD6402030008B5024B19
:104C88001B681B6A019308BD6402030008B5024B48
:104C98001B689B6A019308BD6402030008B5024BB8
:104CA8001B689B68019308BD4802030008B5024BC6
:104CB8001B681B69019308BD4802030008B5024B35
:104CC8001B685B69019308BD4802030008B5024BE5
:104CD8001B681B6B019308BD4802030008B5024B13
:104CE8001B685B6C019308BD4802030008B5024BC2
:104CF8001B685B68019308BD1802030008B5024BE6
:104D08001B68DB68019308BD1802030008B5024B55
:104D18001B685B69019308BD1802030008B5024BC4
:104D28001B685B69019308BD6C02030008B5024B60
:104D38001B68DB69019308BD3002030008B5024B0C
:104D48001B681B6A019308BD3002030008B5024BBB
:104D58001B681B68019308BD2C02030008B5024BB1
:104D68001B685B68019308BD2C02030008B5024B61
:104D78001B689B68019308BD2C02030008B5024B11
:104D88001B68DB68019308BD2C02030008B5024BC1
:104D98001B685B69019308BD2C02030008B5024B30
:104DA8001B689B6A019308BD2C02030008B5024BDF
:104DB8001B689B6F019308BD2C02030008B5024BCA
:104DC8001B689B68019308BD6802030008B5024B85
:104DD8001B68DB68019308BD6802030008B5024B35
:104DE8001B685B6B019308BD6002030008B5024BAA
:104DF8001B681B6D019308BD6002030008B5024BD8
:104E08001B68DB6B019308BD4402030008B5024B25
:104E18001B685B68019308BD4002030008B5024B9C
:104E28001B689B68019308BD4002030008B5024B4C
:104E38001B68DB68019308BD4002030008B5024BFC
:104E48001B681B69019308BD4002030008B5024BAB
:104E58001B685B69019308BD4002030008B5024B5B
:104E68001B689B69019308BD4002030008B5024B0B
:104E78001B68DB69019308BD4002030008B5024BBB
:104E88001B681B6A019308BD4002030008B5024B6A
:104E98001B681B6B019308BD4002030008B5024B59
:104EA8001B685B6B019308BD4002030008B5024B09
:104EB8001B685B68019308BD2002030008B5024B1C
:104EC8001B685B69019308BD2002030008B5034B0A
:104ED8001B68D3F88830019308BD00002002030046
:104EE80008B5034B1B68D3F89430019308BD000044
:104EF8002002030008B5024B1B681B68019308BD1C
:104F08001C02030008B5024B1B685B68019308BDCF
:104F18001C02030008B5024B1B68DB68019308BD3F
:104F28001C02030008B5024B1B68DB6B019308BD2C
:104F38001C02030000231A464068FFF767BF0022DF
:104F480002214068FFF772BF002211464068FFF750
:104F580065BF002211464068FFF770BF00231A465C
:104F680019464068FFF772BF00231A461946406881
:104F7800FFF774BF002281F001014068FFF776BF98
:104F880000224068FFF782BF002211464068FFF701
:104F980085BF002211464068FFF770BF2DE9F04336
:104FA800002495B016460D46074600F027FD214619
:104FB80020220CA8009401F05FFB40230C932146AB
:104FC8006B460CAA3046FFF701FF0446002844D17F
:104FD800024601216868FFF731FF02218046224618
:104FE8006868FFF72BFF009E81462146002E34D0CB
:104FF800002932D17368022B02D00A2B09D02AE08B
:10500800B8F1000F27D071693846043100F039FD36
:1050180020E0B9F1000F1ED07469112201A801F037
:105028002BFB06238DF8143001AD04F10803183466
:10503800186859682A4603C20833A3421546F7D1AF
:1050480001A906A807AD00F0E7FC0FCD3C1D0FC471
:105058002B6823700121F669C8E70098FFF7AEFEB8
:10506800384615B0BDE8F083024B034A1A600022A7
:105078005A607047D0E30320C46B0D00002211462C
:105088004068FFF7DBBE002211464068FFF7F6BE16
:10509800002211464068FFF701BF00224068FFF771
:1050A800F5BE002281F001014068FFF7DFBE002352
:1050B8001A4619464068FFF7D1BE00231A4619461A
:1050C8004068FFF7C3BE002211464068FFF7A6BE3E
:1050D800002202214068FFF7A9BE00231A46406853
:1050E800FFF794BE024B04225A60024A1A607047C6
:1050F800D8E30320F86B0D0037B502AC036804F859
:10510800011DDD6B01224FF0FF332146A84703B094
:1051180030BD10B40368DC6B4FF0FF33A4465DF874
:10512800044B604737B502AC036804F8011DDD6B1A
:10513800214613460122A84703B030BD704738B551
:1051480043691A68002A044605DAB3F88620B3F8DA
:1051580084309A4201D001250BE003681B69984707
:10516800002814BF0125002503D123682046DB6AE7
:105178009847284638BD43691868C043C00F704730
:1051880070470020704710B50446FEF782FF20469E
:1051980010BDFEF77EBF00002DE9F0439846036876
:1051A80093B0DB6A0C4606461746984712AB0025B3
:1051B80043F8485D2A4629462046FFF707FE00289F
:1051C8003ADB009B002B39D05B69002B36D006A850
:1051D80000F014FC009B5C696378022B01D1211D4F
:1051E80013E00A2B14D11122294601A801F044FA30
:1051F800A36833BBE36823BB4FF6FF702569FFF74D
:105208003DFD85421DD104F1140106A800F039FCCA
:1052180006A800F013FC88B1336807ADD3F82090D6
:10522800184B0C930FCD0DAC0FC42B6823703A4666
:1052380043460CA93046C84704461CE04FF0FF34EB
:1052480019E004F1080301AD1834186859682A46B2
:1052580003C20833A3421546F7D1062301A90CA8B7
:105268000DAD8DF8143000F0D7FB0FCD07AC0FC48F
:105278002B682370CCE70098FFF7A0FD204613B0F9
:10528800BDE8F083486D0D007FB5164600224260E8
:10529800029203925A1C04460D4608D04FF47A72C3
:1052A800B3FBF2F1029102FB11314A4303926069A8
:1052B8000823009341F205026B4440F6FF71006831
:1052C800FFF72CFC002808DB6069002332462946DA
:1052D8000068FFF743FC002804DAFFF723FE0368A1
:1052E8006360002004B070BD10B5036804469B6875
:1052F8009847A368013BA3602BB923682046DB6865
:10530800BDE81040184710BD70B504464D69054BFF
:1053180044F8043B8C3506460FCD0FC42B68237028
:10532800304670BD486D0D0010B54369B3F886204E
:10533800B3F884309A42044605D06269B2F88430E2
:105348001344187910BD03681B6998470028F4D1E5
:105358004FF0FF3010BD10B54369B3F88620B3F89D
:1053680084309A42044608D06269B2F88430591CE5
:105378001344A2F88410187910BD03681B69984774
:105388000028F1D14FF0FF3010BDF8B5436917463A
:10539800B3F88620B3F884309A4205460E4606D103
:1053A80003681B69984710B94FF0FF3414E0696926
:1053B800B1F88430B1F88640E41ABC4228BF3C46B4
:1053C800194422460431304601F030F96A69B2F8CE
:1053D80084302344A2F884302046F8BD4269002373
:1053E800A2F884304269A2F8863070472DE9F0416E
:1053F800984603680D468AB0DB6A06461746984702
:105408002B7D7469042B0CBF02200A20062201217F
:10541800FFF7ACFB206073691C68002C5BDB30462F
:10542800FFF7DCFFB8F1000F17D0002303A95FFADC
:1054380088F00393ADF81030FFF770FC002849DBC3
:1054480070690623009341F20B0203AB40F6FF712B
:105458000068FFF763FB00283CDB1C242246002180
:1054680003A801F009F92B7D8DF80C40042B0CD111
:10547800022338468DF80D30FFF708FCADF80E0012
:105488006868FFF7FBFB049013E00A2338468DF8A1
:105498000D30FFF7FBFB05ACADF80E002B1D05F139
:1054A800140718685968224603C20833BB421446D9
:1054B800F7D173691C2203A91868FFF73FFB00287E
:1054C80008DB2C1D0FCC76698C360FC62368337029
:1054D800012404E0044633683046DB6A98472046D6
:1054E8000AB0BDE8F08110B5436904461868002881
:1054F80001DBFFF71BFB63694FF0FF321A6060693D
:10550800112200218C3001F0B7F82046BDE8104088
:10551800FFF764BF30B54269B2F886308BB00446F5
:105528001BB1B2F884209A4240D0636918680028F9
:105538003FDBB3F886507F2D3BD8191DC5F180029B
:1055480008232944FFF702FB00280CDD6369B3F840
:1055580086200AB9A3F884206269B2F88630184414
:10556800A2F8860025E0FFF7DDFC03680B2B20D0AE
:10557800FFF7D8FC03680B2B1BD0202300250293D0
:105588000395FFF7CFFC036801930E4B009302AA23
:105598002B460D493220FFF729FC63691868FFF78D
:1055A800C5FA63694FF0FF321A6002E0FFF716FF91
:1055B800BBE76269B2F88630B2F88400181A0BB0FB
:1055C80030BD00BF936C0D008C6C0D0010B500232E
:1055D80004460160A0F88430A0F88630883000F0D6
:1055E8000DFA204610BD00004FF47A7270B5002302
:1055F8008260144A43600260436183610446A020CC
:105608000E46FEF744FD054610B13146FFF7DEFFB2
:105618001420FEF73CFD034628B101224260826057
:10562800094A02600561A0696561A36128B1436800
:10563800013B43600BB9FFF757FE2046FFF7CEFE4C
:10564800204670BD486C0D002C6C0D0010B54FF055
:10565800FF310446FFF7C8FF204610BD10B50446C9
:105668000068002801DBFFF761FA204610BD10B57D
:1056780004692046FFF7F2FF24B12046BDE8104038
:10568800FEF707BD10BD002211464068FFF7F6BBC4
:10569800002211464068FFF701BC00224068FFF76E
:1056A800F5BB002281F001014068FFF7DFBB002352
:1056B8001A4619464068FFF7D1BB00231A46194617
:1056C8004068FFF7C3BB002211464068FFF7B6BB2E
:1056D800002211464068FFF7A1BB00220221406862
:1056E800FFF7A4BB00231A464068FFF78FBB38B505
:1056F800054678B1046844B1A3681BB1032221466A
:10570800204698472046FEF7C4FC2846BDE83840A6
:10571800FEF7BFBC38BD10B103685B681847704717
:1057280010B503680446BBB15868FFF7B7FA78B9F3
:1057380023685A7C12B95868FFF7B8FA2368586882
:10574800FFF7BCFA20680023236028B1FFF7CFFFDA
:10575800206808B1FFF7CBFF204610BD38B50B4BCA
:1057680003600446D0F8CC0108B1FEF794FCD4F8E5
:10577800C4512DB12846FFF7D3FF2846FEF789FC10
:10578800A06808B1FFF7C7FF204638BDAC6C0D0014
:1057980038B50D4C0D4B23600025022304F5E47049
:1057A8006360A560C4F8C451C4F8C851FFF796FAFD
:1057B800074BC4F8CC5123602046064A0649BDE889
:1057C800384000F01BBC00BFE0E30320C46B0D00B1
:1057D800AC6C0D0084E2032065570D00704710B5CE
:1057E8000446FEF756FC204610BD000070B5084B75
:1057F8000360044600250E4640F80C5FFFF766FA82
:1058080030462671FFF792FAA560204670BD00BFAA
:10581800E06C0D000079FFF791BA7047F8B50646BD
:1058280015460C468F18BC4206D0336814F8011B85
:105838009B6830469847F6E72846F8BD0022007C6A
:10584800FFF79CB90021007CFFF7A0B90021007C7C
:10585800FFF7A4B90021007CFFF7A8B90021007C5C
:10586800FFF7ACB910B50446FEF713FC204610BD8F
:1058780010B504464FF47A730846A3600021044B20
:10588800207461602360FFF7A9F9204610BD00BFAE
:10589800F06C0D000021007CFFF798B94174704747
:1058A80070470021007CFFF719B90121007CFFF740
:1058B80015B9007CFFF70AB9007CFFF7FFB838B5C7
:1058C8000446007C0D46FFF701F9002801DC607CE6
:1058D80020B12946207CFFF709F9012038BD007C5A
:1058E800FFF70CB910B50446FEF7D3FB204610BDF0
:1058F80010B50446002363604FF47A73A360054B28
:10590800236001230846217463741146FFF7C6F823
:10591800204610BD186D0D000022007CFFF7C6B8A8
:10592800007CFFF7F3B8FFF7FBBF10B5142204465D
:10593800002100F0A1FE204610BD000030B50E4D3C
:1059480087B001A8FFF7F1FF296811F0010410D111
:105958002846FEF7ADFB60B101AA21460748FFF7CC
:10596800C7FF2846FEF7A9FB054A0649034800F089
:1059780045FB024807B030BDB0E50320B4E503207D
:1059880084E20320A9580D00704710B50446FEF7BD
:1059980080FB204610BDF0B5037D062B8DB00E466A
:1059A80000F104074FF0000402D000F1080518E0E8
:1059B8000CAD394605F8304D2F232A460A20FFF74B
:1059C80055F9284600F090FE33680246DB68294600
:1059D800304698470FE024B12E21304600F022F9D6
:1059E800044415F8011D0A22304600F061F9BD4251
:1059F8000444F0D120460DB0F0BD000010B5054BB1
:105A08000446112240F8043B002100F035FE2046F0
:105A180010BD00BF486D0D000346074A10B543F896
:105A2800042B01F1100251F8044B43F8044B914246
:105A3800F9D10A781A7010BD486D0D00037D042B4A
:105A480001D1406808E0062B0AD1436853B1836846
:105A580043B1C36833B10069003018BF01207047F3
:105A6800002070471846704710B59DF8084044EA72
:105A7800032343EA024242EA0161042341600375B9
:105A880010BD37B50D788B784A78C97800912946CA
:105A9800FFF7EAFF03B030BD10B58368044613B1C1
:105AA800032201469847204610BD0021FFF706BA99
:105AB80008B50C4B33B1FFF741FF03681B699847E2
:105AC800002809DC084B63B100F078F903681B690A
:105AD8009847002803DC08BDAFF30080F2E7AFF376
:105AE800008008BD000000000000000008B5FFF7B6
:105AF800DFFFFFF70BF9014B186008BD2CE7032007
:105B080007B5002300931A466FF07701FFF7E8F90D
:105B180003B05DF804FB000007B543880A2B08D0E2
:105B2800502B09D1094B1B683BB103B05DF804EB5E
:105B38001847FFF7E5FF06E0002300931A466FF0C9
:105B48007701FFF7CDF903B05DF804FBC8E5032042
:105B580010B5FFF7CBF8044600F096FD074B13B1DC
:105B68002046AFF3008000210448FFF747F90021E1
:105B78000348BDE81040FFF7A9B900BF00000000C6
:105B8800215B0D0010B50446FFF786FF204610BDC7
:105B98000348044A04490023836000F02FBA00BF79
:105BA800CCE5032084E203208D5B0D00024B1A68CC
:105BB800024B1A60704700BF18E20320DCE503209F
:105BC800014B024A1A607047E0E503202D6E0D0074
:105BD800F8B506460D468F180024BD420CD0336830
:105BE80015F8011B9B6830469847002801DB0444E0
:105BF800F3E7002C08BF04462046F8BD70B50546FB
:105C08000C46084649B100F06FFD2B680246214654
:105C18002846DB68BDE87040184770BD08B5FFF737
:105C2800EDFF08BD03689B68184738B50D21054688
:105C3800FFF7F8FF0A2104462846FFF7F3FF204440
:105C480038BD38B50546FFF7D9FF04462846FFF7A3
:105C5800ECFF204438BD30B58BB00B4600218DF8E1
:105C68002410012A98BF0A220DF12304B3FBF2F590
:105C780005FB123303F0FF03092B94BF303337338E
:105C8800DBB2214604F801392B46002DEED1FFF78F
:105C9800B5FF0BB030BD10B42AB903685DF8044BEA
:105CA8009B68C9B21847D2B25DF8044BFFF7D3BF5F
:105CB800FFF7F1BF38B50546FFF7EDFF0446284664
:105CC800FFF7B3FF204438BD2DE9F04107460E46E3
:105CD80015462AB90368C9B29B68BDE8F041184760
:105CE8000A2A02D1002901DA04E0D2B2BDE8F04163
:105CF800FFF7B1BF2D21FFF795FF2A4604467142F1
:105D08003846FFF7A8FF2044BDE8F08138B50546BE
:105D1800FFF7DAFF04462846FFF787FF204438BD1F
:105D280038B50546FFF7D0FF04462846FFF77DFF44
:105D3800204438BD704741747047007CFEF78EBF21
:105D4800007CFEF763BF007CFEF770BF007CFEF7A7
:105D580065BF007CFEF772BF10B50446FEF799F9DF
:105D6800204610BD70B5457C04460E4625B9007C1A
:105D7800FEF774FF002805DD3146207CBDE8704041
:105D8800FEF73CBF284670BD10B5044608461146CC
:105D9800002262604FF47A72A260054A22600122F2
:105DA800207462741A46FEF721FF204610BD00BF1A
:105DB800586E0D00007CFEF749BF000038B50C4D49
:105DC800296811F0010411D12846FEF771F968B16C
:105DD800084A094B09482146FFF7D6FF2846FEF72F
:105DE8006CF9074A0749054800F008F9034838BD27
:105DF8007CE6032080E60320F8E50320E4E50320A1
:105E080084E203203D5D0D00044B00204FF6FF7235
:105E1800187058809A80FFF749B800BF04E703203C
:105E2800002211464068FFF729B800221146406851
:105E3800FFF734B800224068FFF728B8002281F045
:105E480001014068FFF712B800231A461946406856
:105E5800FFF704B800231A4619464068FEF7F6BF54
:105E6800002211464068FEF7E9BF0022114640684B
:105E7800FEF7D4BF002202214068FEF7D7BF0023F7
:105E88001A464068FEF7C2BF024B03225A60024A14
:105E98001A6070470CE70320886E0D0038B50B4D6B
:105EA800296811F001040FD12846FEF701F958B10D
:105EB80021460748FFF7DCFC2846FEF7FEF8054AAE
:105EC8000549034800F09AF8014838BD14E7032053
:105ED80018E7032084E2032023580D0070B50C4C0A
:105EE8000C4E0D4D00212046FFF780FC20460B4C40
:105EF8003246294600F082F801212046FFF776FC59
:105F0800324629462046BDE8704000F077B800BF09
:105F180030E7032084E20320E5570D0040E7032023
:105F280010B504460F48FFF775FC28B1A4F10B0320
:105F3800022B01D8002010BDFFF7B0FFFFF7AAFC25
:105F480008B1012CF6D9FFF739FFFFF733FF18B175
:105F5800A4F10903012BEDD9232C8CBF00200120CB
:105F680010BD00BF30E70320232838B504460D468E
:105F78000AD8FF2908D0FFF7D3FF28B129462046C1
:105F8800BDE83840FEF7F2BE38BD10B50446FEF74E
:105F9800F5FE0438C0B2012808D92046FFF7C0FF33
:105FA80020B12046BDE81040FEF7F0BE002010BD2D
:105FB80038B504460D46FFF7B3FFF0B1042120467B
:105FC800FEF7CCFE042805D1A9B22046BDE838402A
:105FD800FEF7E4BE02212046FEF7C0FE02280CD1DF
:105FE8002046FEF7CBFE012801D0042805D129461A
:105FF8002046BDE83840FEF7D9BE38BD0B460146FD
:10600800184600F005BB0000184B1A68D1075CBFA2
:1060180001221A60164B1A68D2075CBF01221A6067
:10602800144B1A68D0075CBF01221A60124B1A6819
:10603800D1075CBF01221A60104B1A68D2075CBFF7
:1060480001221A600E4B1A68D0075CBF01221A6041
:106058000C4B1A68D1075CBF01221A600A4B1A68F8
:10606800D2075CBF01221A60704700BF6CE70320AB
:1060780068E7032064E7032060E703205CE7032068
:1060880058E7032054E7032050E70320244B1A68FD
:10609800D0075CBF01221A60224B1A68D1075CBF87
:1060A80001221A60204B1A68D2075CBF01221A60CD
:1060B8001E4B1A68D0075CBF01221A601C4B1A6875
:1060C800D1075CBF01221A601A4B1A68D2075CBF5D
:1060D80001221A60184B1A68D0075CBF01221A60A7
:1060E800164B1A68D1075CBF01221A60144B1A6854
:1060F800D2075CBF01221A60124B1A68D0075CBF36
:1061080001221A60104B1A68D1075CBF01221A607D
:106118000E4B1A68D2075CBF01221A60704700BF95
:106128009CE7032098E7032094E7032090E70320E7
:106138008CE7032088E7032084E7032080E7032017
:106148007CE7032078E7032074E7032070E7032047
:10615800244B1A68D0075CBF01221A60224B1A68C8
:10616800D1075CBF01221A60204B1A68D2075CBFB6
:1061780001221A601E4B1A68D0075CBF01221A6000
:106188001C4B1A68D1075CBF01221A601A4B1A68A7
:10619800D2075CBF01221A60184B1A68D0075CBF8F
:1061A80001221A60164B1A68D1075CBF01221A60D7
:1061B800144B1A68D2075CBF01221A60124B1A6886
:1061C800D0075CBF01221A60104B1A68D1075CBF68
:1061D80001221A600E4B1A68D2075CBF01221A60AE
:1061E800704700BFCCE70320C8E70320C4E70320BB
:1061F800C0E70320BCE70320B8E70320B4E7032087
:10620800B0E70320ACE70320A8E70320A4E70320B6
:10621800A0E70320184B1A68D1075CBF01221A6057
:10622800164B1A68D2075CBF01221A60144B1A6811
:10623800D0075CBF01221A60124B1A68D1075CBFF5
:1062480001221A60104B1A68D2075CBF01221A603B
:106258000E4B1A68D0075CBF01221A600C4B1A68F3
:10626800D1075CBF01221A600A4B1A68D2075CBFCB
:1062780001221A60704700BFECE70320E8E703201B
:10628800E4E70320E0E70320DCE70320D8E7032066
:10629800D4E70320D0E7032081F0004102E000BFEB
:1062A80083F0004330B54FEA41044FEA430594EACE
:1062B800050F08BF90EA020F1FBF54EA000C55EA09
:1062C800020C7FEA645C7FEA655C00F0E2804FEADA
:1062D8005454D4EB5555B8BF6D420CDD2C4480EABC
:1062E800020281EA030382EA000083EA010180EAEC
:1062F800020281EA0303362D88BF30BD11F0004F3A
:106308004FEA01314FF4801C4CEA113102D040426F
:1063180061EB410113F0004F4FEA03334CEA1333AA
:1063280002D0524263EB430394EA050F00F0A780C2
:10633800A4F10104D5F1200E0DDB02FA0EFC22FABD
:1063480005F2801841F1000103FA0EF2801843FAB1
:1063580005F359410EE0A5F120050EF1200E012AA2
:1063680003FA0EFC28BF4CF0020C43FA05F3C018E0
:1063780051EBE37101F0004507D54FF0000EDCF159
:10638800000C7EEB00006EEB0101B1F5801F1BD302
:10639800B1F5001F0CD349085FEA30004FEA3C0C06
:1063A80004F101044FEA445212F5800F80F09A80FC
:1063B800BCF1004F08BF5FEA500C50F1000041EB00
:1063C800045141EA050130BD5FEA4C0C404141EB04
:1063D800010111F4801FA4F10104E9D191F0000F2B
:1063E80004BF01460020B1FA81F308BF2033A3F1AE
:1063F8000B03B3F120020CDA0C3208DD02F1140CA5
:10640800C2F10C0201FA0CF021FA02F10CE002F1DF
:106418001402D8BFC2F1200C01FA02F120FA0CFCD8
:10642800DCBF41EA0C019040E41AA2BF01EB045121
:10643800294330BD6FEA04041F3C1CDA0C340EDC1F
:1064480004F11404C4F1200220FA04F001FA02F362
:1064580040EA030021FA04F345EA030130BDC4F120
:106468000C04C4F1200220FA02F001FA04F340EA15
:106478000300294630BD21FA04F0294630BD94F0C6
:10648800000F83F4801306BF81F480110134013DAD
:106498004EE77FEA645C18BF7FEA655C29D094EA1E
:1064A800050F08BF90EA020F05D054EA000C04BF9C
:1064B8001946104630BD91EA030F1EBF0021002087
:1064C80030BD5FEA545C05D14000494128BF41F026
:1064D800004130BD14F580043CBF01F5801130BD8A
:1064E80001F0004545F0FE4141F470014FF0000015
:1064F80030BD7FEA645C1ABF194610467FEA655CC6
:106508001CBF0B46024650EA013406BF52EA033567
:1065180091EA030F41F4002130BD00BF90F0000F55
:1065280004BF0021704730B54FF4806404F1320491
:106538004FF000054FF0000150E700BF90F0000F4A
:1065480004BF0021704730B54FF4806404F1320471
:1065580010F0004548BF40424FF000013EE700BF41
:1065680042004FEAE2014FEA31014FEA02701FBFD1
:1065780012F07F4393F07F4F81F06051704792F0A3
:10658800000F14BF93F07F4F704730B54FF460741D
:1065980001F0004521F0004120E700BF50EA010268
:1065A80008BF704730B54FF000050AE050EA010215
:1065B80008BF704730B511F0004502D5404261EB85
:1065C80041014FF4806404F132045FEA915C3FF4C6
:1065D800DCAE4FF003025FEADC0C18BF03325FEA5F
:1065E800DC0C18BF033202EBDC02C2F1200300FA14
:1065F80003FC20FA02F001FA03FE40EA0E0021FA39
:1066080002F11444C1E600BF0A22002100F032B9A9
:1066180010B5054C13462CB10A4601460220AFF3CB
:10662800008010BD204610BD0000000010B5431EBC
:106638000A44914204D011F8014B03F8014FF8E7DE
:1066480010BD884210B501EB020301D8421E0BE0D1
:106658009842FBD28118D21AD34204D013F8014DC4
:1066680001F8014DF8E710BD994204D011F8014B2B
:1066780002F8014FF8E710BD02440346934202D0E6
:1066880003F8011BFAE7704738B5124B1C68A36B77
:106698000546D3B91820FEF72DFC43F20E33A0634C
:1066A80003804AF6CD33438041F2342383804EF28F
:1066B8006D63C3804DF6EC630381052343810B238F
:1066C800838101220023C0E90423A36B00221D61FA
:1066D8005A6138BD80E20320034611F8012B03F804
:1066E800012B002AF9D17047034613F8012B002A21
:1066F800FBD1181A01387047104B70B51E680A4450
:10670800914217D010F8013BF418647804F00304A0
:10671800012C11F8014B06EB040508BF20336D78F6
:1067280005F00305012D08BF20341B1B03D1002CE5
:10673800E6D100E00023184670BD00BF1CE203202C
:1067480010B5034642B111F8014B03F8014B013A69
:10675800002CF7D11A4400E010BD934202D003F890
:10676800014BFAE710BD00002DE9F047804640488C
:10677800D0F800900F463D4615F8014B09EB040090
:10678800407800F0080000F0FF0608B12F46F2E755
:106798002D2C03D1BD1C7C78012603E02B2C04BFD3
:1067A8007C78BD1C13B1102B0AD15BE0302C57D17B
:1067B800287800F0DF0058284DD16C781023023576
:1067C800002E14BF4FF0004C6FF0004C0027BCFBAC
:1067D800F3FA384603FB1ACC09EB040E9EF801E0E5
:1067E8001EF0040F01D0303C0BE01EF0030E1BD04E
:1067F800BEF1010F0CBF4FF0370E4FF0570ECEEB26
:106808000404A34210DDB7F1FF3F0AD0504506D873
:1068180001D1644503DC03FB0040012701E04FF090
:10682800FF3715F8014BD7E77B1C0CD1002E4FF032
:10683800220314BF4FF000406FF00040C8F800304A
:106848002AB9BDE8F08706B1404272B107B1691EA6
:106858001160BDE8F0873024002BB1D10823AFE7E1
:106868000A23ADE7302CA3D0AAE7BDE8F08700BF24
:106878001CE2032013460A46014602480068FFF757
:1068880073BF00BF80E203201D400D0059400D007A
:1068980085400D0089400D00000000004C657427FC
:1068A800732067657420676F696E6700537461723F
:1068B80074204C6F6F7020202000427574746F6EC6
:1068C8002053746174652020200053746172742011
:1068D8005075626C69736820202000456E642050F2
:1068E80075626C69736820202000476F743A200035
:1068F8002D2D2D2D20496E7465676572202D2D2D47
:106908002D2000456E642053756273637269626559
:106918002020200072617368617000696F2E6164C5
:106928006166727569742E636F6D0035393831365A
:10693800396661336261393436333639343161331B
:1069480033303937366534326532630072617368C3
:1069580061702F66656564732F7374617465780060
:106968007261736861702F66656564732F737461F3
:10697800746573656E64000000000000000000008C
:106988000000000000000000A5400D00A5400D001B
:10699800A5400D00A5400D00A5400D00205B3078F6
:1069A8000030005D2C20000A090044726F70706589
:1069B800642061207061636B657400556E6B6E6F47
:1069C800776E206572726F72004D51545400252500
:1069D80025642E256466004661696C656420746FC1
:1069E8002073756273637269626500436F6E6E65CA
:1069F8006374696F6E206661696C656400546865CC
:106A08002053657276657220646F6573206E6F74AB
:106A180020737570706F727420746865206C657669
:106A2800656C206F6620746865204D515454207041
:106A3800726F746F636F6C207265717565737465BE
:106A4800640054686520436C69656E7420696465E8
:106A58006E74696669657220697320636F72726506
:106A68006374205554462D3820627574206E6F74F7
:106A780020616C6C6F77656420627920746865208A
:106A880053657276657200546865204D51545420E0
:106A98007365727669636520697320756E617661C6
:106AA800696C61626C65005468652064617461207A
:106AB800696E207468652075736572206E616D65F6
:106AC800206F722070617373776F7264206973200E
:106AD8006D616C666F726D6564004E6F74206175D0
:106AE80074686F72697A656420746F20636F6E6E64
:106AF80065637400457863656564656420726563E1
:106B08006F6E6E6563742072617465206C696D695F
:106B1800742E20506C6561736520747279206167EA
:106B280061696E206C617465722E00596F752068FA
:106B3800617665206265656E2062616E6E656420AF
:106B480066726F6D20636F6E6E656374696E672E13
:106B580020506C6561736520636F6E746163742087
:106B6800746865204D51545420736572766572209F
:106B780061646D696E6973747261746F7220666F97
:106B880072206D6F72652064657461696C732E0084
:106B98000000000000000000C9400D0021430D0066
:106BA80063490D000F4A0D00414A0D0077490D0059
:106BB800B7490D0000000000000000003D4F0D0027
:106BC800474F0D00514F0D005B4F0D00654F0D00F5
:106BD800714F0D007D4F0D00894F0D00914F0D0035
:106BE8009B4F0D00A54F0D000000000000000000A5
:106BF800E3500D00D9500D00CF500D0085500D0009
:106C0800C3500D00B7500D00AB500D00A3500D0040
:106C180099500D008F500D00A54F0D000000000089
:106C28000000000089510D008F510D0077560D00AE
:106C38009B510D008B510D0000000000000000006A
:106C4800CD400D0001410D0001510D001B510D00FB
:106C58001D550D005F530D0031530D0045510D00BA
:106C6800F5530D00A1510D0093530D00EF540D0085
:106C780047510D007F510D002D510D0091520D000F
:106C880011530D00776972696E670072656376202B
:106C98006572726F72203D202564000000000000BC
:106CA80000000000ED560D00E3560D00D9560D000A
:106CB800CF560D00C3560D00B7560D00AB560D004C
:106CC800A3560D0099560D008F560D00A54F0D00C7
:106CD8000000000000000000E5570D00E7570D0018
:106CE800000000000000000023580D006D580D0042
:106CF80045580D0025580D004D580D0055580D00EC
:106D08005D580D0065580D000000000000000000EF
:106D1800A9580D00ED580D00C7580D00D95B0D009E
:106D2800C1580D00AB580D00B3580D00E7580D00C1
:106D3800BB580D00A5580D00000000000000000021
:106D48009F590D0091590D0093590D005A00252B9C
:106D58003033643A253032750025592D256D2D259F
:106D6800645425483A254D3A2553257A00617363C2
:106D780074696D65006C6E00666E00636F64650013
:106D880064657461696C000D0A0025303130752026
:106D9800005D200028293A2000205B00636F6465AD
:106DA800203D200025690064657461696C73203D8D
:106DB8002000626175640053657269616C005365F7
:106DC8007269616C31007479706500706172616D0F
:106DD80000636D6400696400686E64007374726DAA
:106DE8000066696C74006C766C0061646448616E5E
:106DF800646C65720072656D6F766548616E646C6F
:106E0800657200656E756D48616E646C65727300BD
:106E18004A534F4E53747265616D4C6F6748616E8B
:106E2800646C657200617070006E6F6E65007472DC
:106E380061636500696E666F007761726E007061EC
:106E48006E696300616C6C000000000000000000C7
:106E58003D5D0D00615D0D006D5D0D00D95B0D00A0
:106E6800495D0D00555D0D004F5D0D005B5D0D002A
:106E78003F5D0D00435D0D000000000000000000B4
:106E8800875E0D007D5E0D00735E0D00695E0D006E
:106E98005D5E0D00515E0D00455E0D003D5E0D000E
:106EA800335E0D00295E0D00A54F0D000020202047
:106EB80020202020202028282828282020202020A2
:106EC8002020202020202020202020202088101072
:106ED80010101010101010101010101010040404CE
:106EE800040404040404041010101010101041418C
:106EF800414141410101010101010101010101017A
:106F0800010101010101010110101010101042428D
:106F18004242424202020202020202020202020249
:106F280002020202020202021010101020000000E9
:106F38000000000000000000000000000000000049
:106F48000000000000000000000000000000000039
:106F58000000000000000000000000000000000029
:106F68000000000000000000000000000000000019
:106F78000000000000000000000000000000000009
:106F880000000000000000000000000000000000F9
:106F980000000000000000000000000000000000E9
:106FA80000000000000000000000000000000000D9
:106FB80000000000000000000000000000000000C9
:106FC80000000000000000000000000000000000B9
:106FD80000000000000000000000000000000000A9
:106FE8000000000000000000000000000000000099
:106FF8000000000000000000000000000000000089
:107008000000000000000000000000000000000078
:10701800430000002D430D005F490D00A14A0D00FB
:1070280071500D00ED500D0099570D00995B0D0042
:10703800B55B0D00C95B0D00115E0D00915E0D0082
:10704800E55E0D0011600D0095600D0059610D00A1
:087058001D620D0000000000A4
:1070600013000000756D0D00B46E0D0000000000EF
:10707000B86F0D00D86F0D00F86F0D000000000014
:1070800000000000000000000000000018700D006B
:1070900000000000000000000000000000000000F0
:1070A00000000000000000000000000000000000E0
:1070B00000000000000000000000000000000000D0
:1070C00000000000000000000000000020E203209B
:1070D000FFFFFFFF00000102030405060708090A7D
:1070E0000B0C0D0E0F101112131415161718191A78
:0870F0001B1C1D1E1F202800BF
:0470F8007856341280
:04000003D0004018D1
:00000001FF
