:02000002D0002C
:1040000000400D0004660D00000006000C000501D4
:084010000401E80500000000B6
:04401800CC5F0D006C
:10401C0009480A49884208B505D0094A824202D0AB
:10402C00121A01F07BFB0748074A0021121A01F013
:10403C0080FB014808BD00BF0CE3032024650D0084
:10404C00C4E30320C4E30320F0E7032070B500F0C1
:10405C0075FD074C074BE41AA40800251E46A54223
:10406C0004D056F8253098470135F8E770BD00BFED
:10407C0020650D00E8640D0000F020B808B500F0D4
:10408C00A9F8BDE8084000F01BBD00F04FBA00F0E5
:10409C004DBA0078B0FA80F04009704701230370E4
:1040AC00704708B5002000F021FA28B100F00EFA94
:1040BC0080F00100C0B208BD012008BD08B500F0B9
:1040CC0043FE4FF4165100F02DFE00F03DFE00F0C3
:1040DC0030FE0028F9D000F037FE0249BDE8084058
:1040EC0000F0C5BBE05F0D0070B592B0364903A877
:1040FC0000F0FBFA344907A800F0F7FAB9EE080A09
:10410C0000F030FC00F096F8064600F0DFF910B134
:10411C00002000F0E3F9FFF7C4FF10B900F0CEF96E
:10412C00F9E712AC0025FFF7BCFF44F81C5D2946EB
:10413C00204600F0E3F986423DD800F072FC0146BF
:10414C00204600F02BFC214603A800F0FEFA204686
:10415C0000F084FA13230B2203A9204600F016FB6F
:10416C00214607A800F0F1FA204600F077FA00F09B
:10417C00EBFD039900F07BFB00F0E6FD079900F0E6
:10418C0076FB2B461922214603A800F0E6FA2B46B3
:10419C000922694607A800F0E0FA00F0D5FD234695
:1041AC000A4A294600F08DFB00F0CEFD6B46084A0A
:1041BC00294600F086FB07A800F050FA03A800F08F
:1041CC004DFA12B070BD00BF1B610D0003600D00F5
:1041DC0025600D0008B5FFF787FF4EF6602142F20F
:1041EC00107000F060FEBDE8084000F02BBC00F041
:1041FC0011B8000008B5024B1B689B68019308BD01
:10420C006802030008B5024B1B68DB68019308BD0C
:10421C006802030008B5024B1B681B68019308BDBC
:10422C002C02030008B5024B1B685B68019308BDA8
:10423C001802030008B5024B1B685B69019308BDAB
:10424C001802030008B5024B1B68DB69019308BD1B
:10425C001802030008B5024B1B689B6D019308BD47
:10426C001802030008B5024B1B689B68019308BD3C
:10427C004802030008B5024B1B681B69019308BD7B
:10428C004802030008B5024B1B685B69019308BD2B
:10429C004802030008B5024B1B685B6C019308BD18
:1042AC004802030008B5024B1B689B6C019308BDC8
:1042BC004802030008B5024B1B685B69019308BDFB
:1042CC006402030008B5024B1B681B68019308BD10
:1042DC003C02030008B5024B1B68DB68019308BD68
:1042EC003C02030008B5024B1B681B69019308BD17
:1042FC003C02030008B5024B1B685B69019308BDC7
:10430C003C02030008B5024B1B689B69019308BD76
:10431C003C02030008B5024B1B68DB69019308BD26
:10432C003C02030008B5024B1B689B6A019308BD55
:10433C003C02030008B5024B1B681B68019308BDC7
:10434C004C02030008B5024B1B685B68019308BD67
:10435C004C02030008B5024B1B681B69019308BD96
:10436C004C02030008B5024B1B685B69019308BD46
:10437C004C02030008B5024B1B689B69019308BDF6
:10438C004C02030008B5024B1B68DB69019308BDA6
:10439C004C02030008B5024B1B681B6A019308BD55
:1043AC004C02030008B5024B1B685B6A019308BD05
:1043BC004C02030008B5024B1B681B68019308BD37
:1043CC002002030008B5024B1B685B68019308BD13
:1043DC002002030008B5024B1B685B69019308BD02
:1043EC002002030008B5024B1B689B6D019308BDAE
:1043FC002002030008B5034B1B68D3F888300193E7
:10440C0008BD00002002030008B5034B1B68D3F85D
:10441C009430019308BD00002002030008B5024B44
:10442C001B685B68019308BD4002030008B5024B92
:10443C001B689B68019308BD4002030008B5024B42
:10444C001B68DB68019308BD4002030008B5024BF2
:10445C001B681B69019308BD4002030008B5024BA1
:10446C001B685B69019308BD4002030008B5024B51
:10447C001B689B69019308BD4002030008B5024B01
:10448C001B68DB69019308BD4002030008B5024BB1
:10449C001B681B6A019308BD4002030008B5024B60
:1044AC001B681B6B019308BD4002030008B5024B4F
:1044BC001B685B6B019308BD4002030008B5024BFF
:1044CC001B689B68019308BD4402030008B5024BAE
:1044DC001B685B69019308BD4402030008B5024BDD
:1044EC001B68DB6A019308BD4402030008B5024B4C
:1044FC001B681B6B019308BD4402030008B5024BFB
:10450C001B685B6B019308BD4402030008B5024BAA
:10451C001B68DB6B019308BD4402030008B5024B1A
:10452C001B681B68019308BD1C02030008B5024BF5
:10453C001B685B68019308BD1C02030008B5024BA5
:10454C001B689B68019308BD1C02030008B5024B55
:10455C001B681B69019308BD1C02030008B5024BC4
:10456C001B689B69019308BD1C02030008B5024B34
:10457C001B685B6A019308BD1C02030008B5024B63
:10458C001B681B6B019308BD1C0203000022114623
:10459C004068FFF77BBF002211464068FFF786BFDB
:1045AC0000224068FFF77ABF002281F001014068C9
:1045BC00FFF764BF00231A4619464068FFF756BF41
:1045CC0000231A4619464068FFF748BF00221146DF
:1045DC004068FFF73BBF002211464068FFF726BF3B
:1045EC00002202214068FFF729BF00231A464068C9
:1045FC00FFF714BF024B03225A60024A1A6070473D
:10460C00C8E3032048600D0010B50446006818B1DB
:10461C00FFF78CFF0023236010BD10B50446FFF795
:10462C00F3FF204610BD000010B5094C00204FF6DA
:10463C00FF732060A080A07120816381FFF7C2FE10
:10464C002046044A0449BDE8104000F0D5BD00BF27
:10465C00D0E30320C4E3032027460D0010B5044625
:10466C000068FFF763FF204610BD10B504460068D4
:10467C0008B1FFF75BFF00232360A360636010BDEC
:10468C0038B504460D4600680131FFF757FF10B1ED
:10469C0084E82100012038BD10B50368044613B12D
:1046AC0043688B4207D22046FFF7EAFF20B1A3688C
:1046BC000BB922681370012010BD70B50E4611465F
:1046CC0004461546FFF7E8FF18B92046FFF7CDFF63
:1046DC0009E02A463146A560206801F01FF82268DF
:1046EC00A3680021D154204670BD38B50023044680
:1046FC0003604360836003730D4639B1084601F0D3
:10470C0095F8294602462046FFF7D7FF204638BDCC
:10471C0038B5054600680C4660B16A688B689A42E9
:10472C0006D3096801F07AF8A368AB6000230AE0AD
:10473C00FFF7FCFE23682B6063686B60A368AB60BB
:10474C00002323606360A36038BD884210B5044623
:10475C0001D0FFF7DDFF204610BD70B50E469AB1B3
:10476C0091B185689D4202D800230B7070BD541E18
:10477C00ED1A0168AC4228BF2C461944224630463B
:10478C0001F071F80023335570BD0000F8B59A4262
:10479C000F461D460C4988BF13461446064684BF77
:1047AC002C461D46FFF7A1FFBA6894420AD8396817
:1047BC00954294BFC4EB0502C4EB0202214430467F
:1047CC00FFF77BFF3046F8BD1B610D0010B50446AA
:1047DC00006808B1FFF766FD204610BD10B5064C09
:1047EC00002320462360FFF755FD2046034A044969
:1047FC00BDE8104000F000BDDCE30320C4E303205F
:10480C00D9470D00F8B506460D468F180024BD4259
:10481C000CD0336815F8011B9B683046984700286C
:10482C0001DB0444F3E7002C08BF04462046F8BD26
:10483C0070B505460C46084649B100F0F7FF2B68E9
:10484C00024621462846DB68BDE87040184770BD1B
:10485C0003689B68184738B50D210546FFF7F8FF2C
:10486C000A2104462846FFF7F3FF204438BD38B52B
:10487C000546FFF7DDFF04462846FFF7ECFF204412
:10488C0038BD30B58BB00B4600218DF82410012AB1
:10489C0098BF0A220DF12304B3FBF2F505FB12338A
:1048AC0003F0FF03092B94BF30333733DBB22146BF
:1048BC0004F801392B46002DEED1FFF7B9FF0BB0F0
:1048CC0030BD0CB42DE9F04387B000AF07F13804CC
:1048DC00054654F8049B3C600E4623464A46142178
:1048EC00381DFFF743FE132805D8391D2846FFF75E
:1048FC009FFF044613E000F1080323F00703E8468A
:10490C00ADEB030D411C23464A4668463C60FFF75D
:10491C002DFE69462846FFF78BFF0446C5461EB19F
:10492C002846FFF798FF044420461C37BD46BDE8D7
:10493C00F04302B070470000014B024A1A60704706
:10494C00E0E30320E7600D0008B50020FFF7CEFD83
:10495C0028B1FFF7BBFD80F00100C0B208BD0120FB
:10496C0008BD0000FAEE087AB4EEE70AF1EE10FA90
:10497C000FD4F2EE0C7AB4EEE70AF1EE10FA08DC82
:10498C00DFED047A044B20EE270ABDEEC00A83ED5E
:10499C00000A704700006145ECE3032037B50E4B6D
:1049AC001B6819440D4B1B68044602A8194440F8B7
:1049BC00041D00F0BBFD00F06FFD054600F036FF56
:1049CC002844002300F8013C29462046FFF78DFEC1
:1049DC00204603B030BD00BFECE30320E8E3032026
:1049EC0010B50020FFF736FC044668B9FFF7E2FC6F
:1049FC0001280BD12046FFF7F5FC38B9FFF7A4FFCF
:104A0C0030B9FFF75BFDF9E7012010BD002010BDA8
:104A1C00FFF79AFF0020FFF71DFC003018BF0120A4
:104A2C0010BD08B5FFF7DCFFBDE80840FFF70ABC76
:104A3C00024B1A68024B1A60704700BF0CE303204C
:104A4C00E4E303200021FFF7C5BC10B583680446DE
:104A5C0013B1032201469847204610BD10B50446F9
:104A6C00FFF7F3FF204610BD0348044A0449002316
:104A7C00836000F0C1BB00BFF0E30320C4E303205C
:104A8C00694A0D0008B50C4B33B100F05DF90368B1
:104A9C001B699847002809DC084B63B100F0D2F978
:104AAC0003681B699847002803DC08BDAFF300803E
:104ABC00F2E7AFF3008008BD00000000000000002A
:104ACC0008B5FFF7DFFFFFF7B5FB014B186008BD1A
:104ADC0024E703200248034A0349121A00F01EBEC1
:104AEC0000F4032004F4032020650D0007B5002317
:104AFC0000931A466FF07701FFF786FC03B05DF860
:104B0C0004FB000007B543880A2B08D0502B09D1B1
:104B1C00094B1B683BB103B05DF804EB1847FFF77A
:104B2C00E5FF06E0002300931A466FF07701FFF7CC
:104B3C006BFC03B05DF804FB00E4032038B5104CAB
:104B4C00104D2368AB42104B0CBF012200221A708F
:104B5C0002D0FFF7BFFF2560FFF764FB044600F0AF
:104B6C00F1FD0A4B13B12046AFF30080002107483A
:104B7C00FFF7CCFC00210648BDE83840FFF73ABCF3
:104B8C0000F403201E1C279A04E4032000000000FC
:104B9C00114B0D00704710B51821044600F031FB85
:104BAC00204610BDF0B5037D062B8DB00E4600F1EE
:104BBC0004074FF0000402D000F1080518E00CAD1A
:104BCC00394605F8304D2F232A460A20FFF772FB91
:104BDC00284600F02BFE33680246DB682946304637
:104BEC0098470FE024B12E213046FFF731FE0444E4
:104BFC0015F8011D0A223046FFF743FEBD4204445E
:104C0C00F0D120460DB0F0BD10B5054B0446112275
:104C1C0040F8043B002100F08CFD204610BD00BF85
:104C2C0084610D000346074A10B543F8042B01F1CB
:104C3C00100251F8044B43F8044B9142F9D10A7815
:104C4C001A7010BD84610D0010B59DF8084044EA3F
:104C5C00032343EA024242EA0161042341600375E3
:104C6C0010BD37B50D788B784A78C97800912946F4
:104C7C00FFF7EAFF03B030BD41747047704708B5C9
:104C8C000021007CFFF776FB30EA200028BF4FF0B4
:104C9C00FF3008BD08B50121007CFFF76BFB30EA43
:104CAC00200028BF4FF0FF3008BD08B5007CFFF78F
:104CBC0059FB20EAE07008BD08B5007CFFF74AFB01
:104CCC0020EAE07008BD007CFFF764BB10B514212E
:104CDC00044600F096FA204610BD38B50446007C18
:104CEC000D46FFF73FFB002801DC607C28B129460C
:104CFC00207CFFF747FB20EAE07038BD10B5044676
:104D0C00002363604FF47A73A360054B2360012387
:104D1C000846217463741146FFF70CFB204610BD46
:104D2C0098610D000022007CFFF70CBB007CFFF7A4
:104D3C0039BBFFF7FBBF10B514220446002100F06D
:104D4C00F8FC204610BD000030B50E4D87B001A810
:104D5C00FFF7F1FF296811F0010410D12846FFF785
:104D6C0098F960B101AA21460748FFF7C7FF28460A
:104D7C00FFF794F9054A0649034800F03DFA02484A
:104D8C0007B030BD08E403200CE40320C4E3032087
:104D9C00894C0D0070474174704708B5007CFFF7D3
:104DAC00C1FA20EAE07008BD08B5007CFFF79AFA5A
:104DBC0020EAE07008BD08B5007CFFF7A3FA30EAE2
:104DCC00200028BF4FF0FF3008BD08B5007CFFF76E
:104DDC0091FA30EA200028BF4FF0FF3008BD007C6C
:104DEC00FFF798BA10B51421044600F00AFA2046D1
:104DFC0010BD70B5457C04460E4625B9007CFFF706
:104E0C0091FA002805DD3146207CBDE87040FFF7A3
:104E1C0061BA284670BD000010B50446084611461C
:104E2C00002262604FF47A72A260054A226001226D
:104E3C00207462741A46FFF745FA204610BD00BF75
:104E4C00C8610D0038B50C4D296811F0010411D161
:104E5C002846FFF71EF968B1084A094B0948214654
:104E6C00FFF7DAFF2846FFF719F9074A0749054803
:104E7C0000F0C2F9034838BDB8E40320BCE40320B9
:104E8C0034E4032020E40320C4E30320A14D0D00EF
:104E9C0010B5044630B100F07DFC90FBF4F303FB3D
:104EAC00140010BD10BD884210B5044604DA081A6F
:104EBC00FFF7EEFF204410BD10BD002211464068E4
:104ECC00FFF7E4BA002211464068FFF7EFBA002260
:104EDC004068FFF7E3BA002281F001014068FFF758
:104EEC00CDBA00231A4601214068FFF7BFBA002350
:104EFC001A4619464068FFF7B1BA002211464068BD
:104F0C00FFF7A4BA002211464068FFF78FBA0022BF
:104F1C0002214068FFF792BA00231A464068FFF757
:104F2C007DBA38B5054688B104684CB1A3681BB18D
:104F3C0003222146204698471021204600F061F9B3
:104F4C0028461421BDE8384000F05BB938BD10B1DB
:104F5C0003685B681847704710B503680446BBB11B
:104F6C005868FFF77FF978B923685A7C12B95868EA
:104F7C00FFF780F923685868FFF784F9206800234D
:104F8C00236028B1FFF7CDFF206808B1FFF7C9FFF8
:104F9C00204610BD38B50446D0F8C40108B1FFF75F
:104FAC0076F8D4F8C00108B1FFF77CF9D4F8BC51FD
:104FBC0035B12846FFF7D0FF0421284600F021F92F
:104FCC00206808B1FFF7C3FF204638BD10B5044B6D
:104FDC00044640F8083BFFF7DDFF204610BD00BF3C
:104FEC00F8610D0038B50E4C0E4B236000250223E2
:104FFC0004F5E4706360A560C4F8C451C4F8C851EA
:10500C00FFF748F9084BC4F8CC5184F8D051236011
:10501C002046064A0649BDE8384000F0EDB800BF0E
:10502C0040E5032060620D00F8610D00C4E303202D
:10503C00D94F0D00002211464068FFF707BA002235
:10504C0011464068FFF722BA002211464068FFF76C
:10505C002DBA00224068FFF721BA002281F001012D
:10506C004068FFF70BBA00231A4619464068FFF751
:10507C00FDB900231A4619464068FFF7EFB9002224
:10508C0011464068FFF7D2B9002202214068FFF7B1
:10509C00D5B900231A464068FFF7C0B9024B042269
:1050AC005A60024A1A60704714E703202C620D0004
:1050BC0000231A464068FFF7B1B90022022140686C
:1050CC00FFF7BCB9002211464068FFF7AFB90022C8
:1050DC0011464068FFF7BAB900231A4619464068D2
:1050EC00FFF7BCB900231A4619464068FFF7BEB952
:1050FC00002281F001014068FFF7C0B9002240682E
:10510C00FFF7CCB9002211464068FFF7CFB9002257
:10511C0011464068FFF7BAB92DE9F043002495B069
:10512C0016460D460746FFF76FFD214620220CA8B8
:10513C00009400F0FEFA40230C9321466B460CAA17
:10514C003046FFF75FF80446002844D1024601219F
:10515C006868FFF77BF90221804622466868FFF7F2
:10516C0075F9009E81462146002E34D0002932D19B
:10517C007368022B02D00A2B09D02AE0B8F1000F79
:10518C0027D0716938460431FFF76BFD20E0B9F187
:10519C00000F1ED07469112201A800F0CAFA062370
:1051AC008DF8143001AD04F10803183418685968EF
:1051BC002A4603C20833A3421546F7D101A906A813
:1051CC0007ADFFF72FFD0FCD3C1D0FC42B682370CF
:1051DC000121F669C8E70098FFF70CF8384615B0BE
:1051EC00BDE8F083024B034A1A6000225A607047F4
:1051FC001CE7032060620D000B460146184600F0C8
:10520C0087B9FEF742BF0000184B1A68D1075CBF84
:10521C0001221A60164B1A68D2075CBF01221A6071
:10522C00144B1A68D0075CBF01221A60124B1A6823
:10523C00D1075CBF01221A60104B1A68D2075CBF01
:10524C0001221A600E4B1A68D0075CBF01221A604B
:10525C000C4B1A68D1075CBF01221A600A4B1A6802
:10526C00D2075CBF01221A60704700BF44E70320DD
:10527C0040E703203CE7032038E7032034E7032012
:10528C0030E703202CE7032028E70320244B1A687F
:10529C00D0075CBF01221A60224B1A68D1075CBF91
:1052AC0001221A60204B1A68D2075CBF01221A60D7
:1052BC001E4B1A68D0075CBF01221A601C4B1A687F
:1052CC00D1075CBF01221A601A4B1A68D2075CBF67
:1052DC0001221A60184B1A68D0075CBF01221A60B1
:1052EC00164B1A68D1075CBF01221A60144B1A685E
:1052FC00D2075CBF01221A60124B1A68D0075CBF40
:10530C0001221A60104B1A68D1075CBF01221A6087
:10531C000E4B1A68D2075CBF01221A60704700BF9F
:10532C0074E7032070E703206CE7032068E7032091
:10533C0064E7032060E703205CE7032058E70320C1
:10534C0054E7032050E703204CE7032048E70320F1
:10535C00244B1A68D0075CBF01221A60224B1A68D2
:10536C00D1075CBF01221A60204B1A68D2075CBFC0
:10537C0001221A601E4B1A68D0075CBF01221A600A
:10538C001C4B1A68D1075CBF01221A601A4B1A68B1
:10539C00D2075CBF01221A60184B1A68D0075CBF99
:1053AC0001221A60164B1A68D1075CBF01221A60E1
:1053BC00144B1A68D2075CBF01221A60124B1A6890
:1053CC00D0075CBF01221A60104B1A68D1075CBF72
:1053DC0001221A600E4B1A68D2075CBF01221A60B8
:1053EC00704700BFA4E70320A0E703209CE703203D
:1053FC0098E7032094E7032090E703208CE7032031
:10540C0088E7032084E7032080E703207CE7032060
:10541C0078E70320184B1A68D1075CBF01221A6089
:10542C00164B1A68D2075CBF01221A60144B1A681B
:10543C00D0075CBF01221A60124B1A68D1075CBFFF
:10544C0001221A60104B1A68D2075CBF01221A6045
:10545C000E4B1A68D0075CBF01221A600C4B1A68FD
:10546C00D1075CBF01221A600A4B1A68D2075CBFD5
:10547C0001221A60704700BFC4E70320C0E7032075
:10548C00BCE70320B8E70320B4E70320B0E7032010
:10549C00ACE70320A8E70320094B70B51C68256C0A
:1054AC0006463DB91A20FFF739F81A22206429461E
:1054BC0000F03FF9216C3046BDE8704000F002B8B6
:1054CC0074E3032010B50C4641690369826986B008
:1054DC0001F26C7104910168039141680291816839
:1054EC000191C1680091074903EB43030B44064942
:1054FC0002EB42020A4420460449FFF727F82046F3
:10550C0006B010BDA1620D008C620D00C5620D00CD
:10551C0010B5054C13462CB10A4601460220AFF3D8
:10552C00008010BD204610BD0000000038B5074BB0
:10553C001C68E36B05461BB92420FEF7EFFFE06304
:10554C00E16B2846BDE8384000F002B874E3032054
:10555C002DE9F0410C46804600F094FC21460746AC
:10556C00404600F093FC466906F26C76B30704469D
:10557C0005D1642296FBF2F302FB13634BB94FF493
:10558C00C87596FBF5F305FB1365B5FA85F35B0956
:10559C0000E001235F4A302505FB032500F0A6FA45
:1055AC0000F0A6FA5C4B1B68F3B17B689E4205D1F8
:1055BC003968D8F80030FA6941B90AE0304600F091
:1055CC00EDF90028F4D14FF0FF330DE0934208DBE6
:1055DC0001E0934207DABA6B9342ACBF002301237C
:1055EC0002E0002300E001232362236A012B0CBF9D
:1055FC00F96B396A4FF461633C2091FBF3F603FBC2
:10560C001613616893FBF0F200FB12302368891AC1
:10561C00A26861601B1A921B3B2B2360A26003DD06
:10562C00013161603C3B04E0002B03DA013961601D
:10563C003C33236063683B2B03DD0132A2603C3BAF
:10564C0004E0002B03DA013AA2603C336360A368E8
:10565C00172B22DDE2690132E261A2690132062ACE
:10566C00C8BF0022A261E268183B0132A360236923
:10567C00E26055F823108A4246DD01330C2B0CBF37
:10568C0063692361A2EB0102E26001BF01330022D6
:10569C002261636108BFE26136E0002B34DAE26913
:1056AC00013AE261A269013A48BF0622A261E268AE
:1056BC001833013AE260A36032BB2369013B01D489
:1056CC0023611DE00B23236163695A1E12F0030F43
:1056DC00626103F26B7305D1642193FBF1F201FB60
:1056EC0012324AB94FF4C87193FBF1F201FB123339
:1056FC00B3FA83F35B0900E0012303F5B673E361AE
:10570C00236955F82330E36000F0F1F92046BDE839
:10571C00F08100BF4C640D00E4E7032010B5431E7C
:10572C000A44914204D011F8014B03F8014FF8E7F9
:10573C0010BD02440346934202D003F8011BFAE762
:10574C007047000038B5124B1C68A36B0546D3B9E3
:10575C001820FEF7E3FE43F20E33A06303804AF6F3
:10576C00CD33438041F2342383804EF26D63C3808A
:10577C004DF6EC630381052343810B2383810122C6
:10578C000023C0E90423A36B00221D615A6138BDBC
:10579C0074E30320194B10B51C68A36BD3B9182004
:1057AC00FEF7BCFE43F20E33A06303804AF6CD3302
:1057BC00438041F2342383804EF26D63C3804DF6F7
:1057CC00EC630381052343810B2383810122002396
:1057DC00C0E90423A16B0A4C0B694869094A5C4374
:1057EC0002FB0040A3FB02230132034443F10003FC
:1057FC00C1E9042323F0004010BD00BF74E3032073
:10580C002DF451582D7F954C10F8012B11F8013BBC
:10581C00012A28BF9A42F7D0D01A7047034611F8D4
:10582C00012B03F8012B002AF9D17047034613F81A
:10583C00012B002AFBD1181A0138704730B582B100
:10584C00451E013915F8013F11F8014FA34206D14D
:10585C00EC431444E04201D0002BF3D11C46181B3E
:10586C0030BD104630BD10B5034642B111F8014BA6
:10587C0003F8014B013A002CF7D11A4400E010BD9B
:10588C00934202D003F8014BFAE710BD2DE9F04723
:10589C0080463C48D0F800900E46354615F8014B32
:1058AC0009EB0400407800F0080000F0FF0708B195
:1058BC002E46F2E72D2C03D1B51C7478012703E09A
:1058CC002B2C04BF7478B51C13B1102B0AD153E0E8
:1058DC00302C4FD1287800F0DF00582845D16C7857
:1058EC00102302354FF0FF3C0026BCFBF3FC03FBFE
:1058FC000CFA6FEA0A0A304609EB040E9EF801E036
:10590C001EF0040F01D0303C0BE01EF0030E1AD039
:10591C00BEF1010F0CBF4FF0370E4FF0570ECEEB10
:10592C000404A3420FDD002E08DB604506D801D12C
:10593C00544503DC03FB0040012601E04FF0FF3629
:10594C0015F8014BD8E7002E07DA2223C8F80030EF
:10595C004FF0FF302AB9BDE8F08707B1404272B171
:10596C0006B1691E1160BDE8F0873024002BB9D157
:10597C000823B7E70A23B5E7302CABD0B2E7BDE874
:10598C00F08700BF10E3032013460A460146024885
:10599C000068FFF77BBF00BF74E303202DE9F74FCE
:1059AC00044600F06FFA40F2B1739C4240F39680CB
:1059BC006FF4F663E318A4F2B2729B1040F26D150B
:1059CC0005FB0235A4F26D726FF0630392FBF3F3E7
:1059DC006FF4C8622B44A5184FF4C87295FBF2F50E
:1059EC001D44642394FBF2F794FBF3F602FB174778
:1059FC0003FB164600F13803B7FA87FE019304F057
:105A0C00030344604FEA5E1E014600934FF0070CFF
:105A1C000B7A4A2B0ED14B69009AEC1802B906B9D5
:105A2C0027B93B2BD4BF0023012300E000232344E0
:105A3C00013B3FE0442B02D14B692B443AE0009BE5
:105A4C002BB9002E0CBFF0464FF0010800E0F046D9
:105A5C00244BCC68302202FB0838A8F1040AA94672
:105A6C000123A34204DA5AF804BF0133D944F8E7FE
:105A7C0009F1040393FBFCFBCBEBCB0A012CCAEB27
:105A8C00030A4B69B8BF012404F18044B3EB0A0A42
:105A9C000B6904F1FF3403F1FF3348BF0AF1070A25
:105AAC00C3EBC30358F824405344A34201DB073B28
:105ABC00FBE74B448C690C4A02FB03430C6A2344FE
:105ACC0041F81C3F019B9942A2D1C369826B93425E
:105ADC00ACBF002301230360012000E0002003B0D1
:105AEC00BDE8F08F4C640D00805101007047704789
:105AFC00014B186800F002B874E303202DE9F04F55
:105B0C008DB0074600F0BEF9B049B14E0446384698
:105B1C0000F0B0F9054660B9AE4BAF4A1860AF4B18
:105B2C001860AF4B30681A605A60FEF7FFFC3560A6
:105B3C0048E1316879B93068FEF7F8FC2846FFF780
:105B4C0075FE411C3846FEF719FD306048B12946F8
:105B5C00FFF764FE05E0FFF757FE002800F03281E6
:105B6C00E9E72B789F4AA0493A2B08BF01350AAECA
:105B7C0033462846FEF7F2FC002840F323810A9BAB
:105B8C00EF18EB5C2D2B03D101374FF0FF3503E001
:105B9C002B2B08BF013701250DF1200A0DF11E0B2F
:105BAC004FF000080396CDF808A00196CDF800B090
:105BBC00334607AA8D49ADF81E803846ADF82080D3
:105BCC00FEF7CCFC404540F3FD80BDF81E20BDF82F
:105BDC002030DFF824923C2101FB0233BDF81C205D
:105BEC004FF4616101FB02335D4325627C4D7D4BBB
:105BFC002B600A9B7C491F444A4633463846FEF7C5
:105C0C00ADFC404508DC2B686B60724B226A1A6055
:105C1C00724BC3F80080D5E00A9BC5F80490FD18C0
:105C2C00FB5C2D2B03D101354FF0FF3703E02B2B01
:105C3C0008BF013501270023ADF81C30ADF81E302C
:105C4C00ADF820300A930396CDF808A00196CDF854
:105C5C0000B0334607AA65492846FEF77FFC0028AA
:105C6C0004DC236AA3F56163E3630EE0BDF81E2038
:105C7C00BDF820303C2101FB0233BDF81C204FF451
:105C8C00616101FB02335F43E7630A9B27461D44B6
:105C9C004FF000092B782C2B08BF013595F80080AC
:105CAC00B8F14D0F26D10DF12603029309AB0093E9
:105CBC000396019633460DF122024D492846FEF714
:105CCC004DFC03287ED1BDF822104B1E0B2B79D82E
:105CDC00BDF82420531E042B74D8BDF82630062B97
:105CEC0070D887F80880F9603A617B610A9B05EBF4
:105CFC0003082AE0B8F14A0F06BF01354346442396
:105D0C000A220BA928460593FFF73EFEDDF82C80EE
:105D1C00ADF826004545059B14D14D23B9F1000F74
:105D2C0007D123720323E36002232361C4F8149088
:105D3C000BE084F824300B23A3620123E3620023DD
:105D4C00236302E080B23B7278610223ADF81C3011
:105D5C000023ADF81E30ADF820300A9398F80030CF
:105D6C002F2B0BD10396CDF808A00196CDF800B0DF
:105D7C00334607AA1F494046FEF7F0FBBDF81E202C
:105D8C00BDF820303C2101FB0233BDF81C204FF440
:105D9C00616101FB0233BB610A9D09F10109B9F193
:105DAC00020F454407F11C077FF474AF6068FFF7DE
:105DBC00F5FD084B226A1A60E36B9B1A074A18BF61
:105DCC00012313600DB0BDE8F08F00BFAC640D0073
:105DDC00E0E70320E8E70320AF640D00E4E70320CD
:105DEC0078E30320D3E70320B3640D00D6640D00E1
:105DFC00C2640D00D5640D00C8E703202DE9F84FEF
:105E0C0007468B46904600F0D9F8194B1D689A4608
:105E1C003DB15C46234613F8012B42B13D2A1C468A
:105E2C00F8D1384600F0CBF80020BDE8F88FCBEB6A
:105E3C000404A94659F8040B0028F2D0224659460E
:105E4C00FFF7FCFC88B959F8043C1E191B5D3D2B6F
:105E5C000BD1DAF80030ED1AAD103846C8F8005006
:105E6C0000F0ADF8701CBDE8F88F4D46E1E700BFBF
:105E7C00C0E3032007B501AAFFF7C0FF03B05DF82C
:105E8C0004FB00000048704780E303200268474B86
:105E9C00F0B592FBF3F403FB1422002ABCBF02F50D
:105EAC00A83202F5C0724FF4616004F52F2492FB06
:105EBC00F0F300FB13224FF03C00ACBF04F66C2453
:105ECC0004F66B248B6092FBF0F300FB13224B6007
:105EDC000A600723E21C92FBF3F3C3EBC303D31A50
:105EEC008B61334B334D94FBF5F503FB054448F6BE
:105EFC00AC62B4FBF2F2224440F2B457B4FBF7F3B9
:105F0C00D21A2D48B4FBF0F048F69466131AB3FB82
:105F1C00F6F6344440F26D12B3FBF2F0B3FBF7F338
:105F2C00E31A02FB1033992403EB83020232B2FB17
:105F3C00F4F20A2A04FB02F404F102064FF0050401
:105F4C00B6FBF4F434BF02266FF0090616444FF486
:105F5C00C87202FB05055F1C012E98BF0135B3F515
:105F6C00997FA7EB040702D3A3F5997214E082077B
:105F7C0005D16424B0FBF4F204FB12024AB94FF4CD
:105F8C00C872B0FBF2F402FB1400B0FA80F25209B2
:105F9C0000E001223B331A44A5F26C750023CA6160
:105FAC004D610E61CF600B620846F0BD805101005F
:105FBC004FC5FDFFB13A0200B03A0200704770477E
:105FCC001D400D0059400D0085400D0089400D000D
:105FDC0000000000202D2D2D2D2D2D2D2D20426566
:105FEC0067696E2054696D652053796E63202D2D81
:105FFC002D2D2D2D2D2D0054686520637572726525
:10600C006E74206461746520616E642074696D65C2
:10601C00206973202573200A00546865206375720B
:10602C0072656E742074696D652069732025732008
:10603C000A0000000000000000000000F7450D0001
:10604C00ED450D00E3450D00D9450D00CD450D0086
:10605C00C1450D00B5450D00AD450D00A3450D0026
:10606C0099450D0025510D006261756400536572F0
:10607C0069616C0053657269616C3100747970658B
:10608C0000706172616D00636D6400696400686E1C
:10609C0064007374726D0066696C74006C766C00CD
:1060AC0061646448616E646C65720072656D6F76D4
:1060BC006548616E646C657200656E756D48616EE5
:1060CC00646C657273004A534F4E53747265616D04
:1060DC004C6F6748616E646C65720061707000256E
:1060EC003031307520005D20002564002C20002804
:1060FC00293A2000205B00636F6465203D20002559
:10610C00690064657461696C73203D20000D0A00A0
:10611C0066006C6E00666E00636F64650064657487
:10612C0061696C006E6F6E65007472616365006905
:10613C006E666F007761726E006572726F720070BE
:10614C00616E696300616C6C00252B3033643A25F9
:10615C003032750025592D256D2D25645425483A6E
:10616C00254D3A2553257A0061736374696D65007A
:10617C000000000000000000B14B0D00A14B0D0011
:10618C00A34B0D000000000000000000894C0D0026
:10619C00D94C0D00E74C0D0011480D00C54C0D00FD
:1061AC008B4C0D00A14C0D00D34C0D00B74C0D00C9
:1061BC00854C0D000000000000000000A14D0D00FA
:1061CC00F14D0D00FF4D0D0011480D00B54D0D00AA
:1061DC00D74D0D00C34D0D00EB4D0D00A34D0D0023
:1061EC00A74D0D000000000000000000254F0D0021
:1061FC001B4F0D00114F0D00074F0D00FB4E0D00F6
:10620C00EF4E0D00E34E0D00DB4E0D00D14E0D0098
:10621C00C74E0D0025510D000000000000000000CD
:10622C009F500D0095500D008B500D0041500D00EE
:10623C007F500D0073500D0067500D005F500D0026
:10624C0055500D004B500D0025510D000000000065
:10625C0000000000BD500D00C7500D00D1500D00C6
:10626C00DB500D00E5500D00F1500D00FD500D0000
:10627C0009510D0011510D001B510D0025510D0040
:10628C0053756E4D6F6E54756557656454687546DD
:10629C0072695361744A616E4665624D61724170F8
:1062AC00724D61794A756E4A756C417567536570AC
:1062BC004F63744E6F76446563252E337320252E01
:1062CC00337325336420252E32643A252E32643AFA
:1062DC00252E32642025640A000020202020202056
:1062EC00202020282828282820202020202020207A
:1062FC00202020202020202020208810101010107A
:10630C0010101010101010101010040404040404C9
:10631C0004040404101010101010104141414141AC
:10632C004101010101010101010101010101010111
:10633C0001010101011010101010104242424242A2
:10634C0042020202020202020202020202020202E1
:10635C0002020202021010101020000000000000C7
:10636C000000000000000000000000000000000021
:10637C000000000000000000000000000000000011
:10638C000000000000000000000000000000000001
:10639C0000000000000000000000000000000000F1
:1063AC0000000000000000000000000000000000E1
:1063BC0000000000000000000000000000000000D1
:1063CC0000000000000000000000000000000000C1
:1063DC0000000000000000000000000000000000B1
:1063EC0000000000000000000000000000000000A1
:1063FC000000000000000000000000000000000091
:10640C000000000000000000000000000000000080
:10641C000000000000000000000000000000000070
:10642C000000000000000000000000000000000060
:10643C00000000000000000000000000430000000D
:10644C001F0000001C0000001F0000001E000000C8
:10645C001F0000001E0000001F0000001F000000B5
:10646C001E0000001F0000001E0000001F000000A6
:10647C001F0000001D0000001F0000001E00000097
:10648C001F0000001E0000001F0000001F00000085
:10649C001E0000001F0000001E0000001F00000076
:1064AC00545A00474D54002531305B5E302D392C49
:1064BC002B2D5D256E004D256875256E2E25687576
:1064CC00256E2E256875256E002F256875256E3A6C
:1064DC00256875256E3A256875256E00FB410D0003
:1064EC0001460D0035460D00E9470D0045490D00EC
:1064FC003D4A0D00754A0D00F14F0D00A9500D00DD
:10650C00F1510D0015520D0099520D005D530D0007
:04651C0021540D00F9
:046520000000000077
:1065240074610D00E5620D0000000000E8630D00D9
:1065340008640D0028640D00000000000000000045
:10654400000000000000000048640D00000000008E
:106554000000000000000000000000000000000037
:106564000000000000000000000000000000000027
:106574000000000000000000000000000000000017
:10658400000000000000000014E30320AF640D00CD
:10659400AF640D0001000000000000004A0000008C
:1065A40000000000000000000000000000000000E7
:1065B40000000000000000004A000000000000008D
:1065C40000000000000000000000000000000000C7
:0865D40000000000ECE70320C9
:1065DC00FFFFFFFF00000102030405060708090A7C
:1065EC000B0C0D0E0F101112131415161718191A77
:0865FC001B1C1D1E1F202800BE
:04660400785634127E
:04000003D000401CCD
:00000001FF
