:02000002D0002C
:1040000000400D00A8780D00000006000C0005011E
:084010000401E80500000000B6
:044018001C6B0D0010
:1040200009480A49884208B505D0094A824202D0A7
:10403000121A02F02FFD0748074A0021121A02F057
:1040400034FD014808BD00BF1CDF032004740D00CF
:1040500098E3032098E30320F0E7032070B501F014
:1040600013FB074C074BE41AA40800251E46A54283
:1040700004D056F8253098470135F8E770BD00BFE9
:10408000F8730D00B8730D0000F052B808B500F0D9
:1040900093F8BDE8084001F0B9BA01F08BB801F01F
:1040A00089B8000008B5034A00210C2000F0EEFF9B
:1040B000FEE700BF6D4E0D000078B0FA80F04009B9
:1040C00070470123037070477047000008B580B245
:1040D00001F0D8FE054A1378003018BF012083F0A4
:1040E000010398420CBF1070002008BD1CDF0320A4
:1040F00010B50D4C204600F0A5FA2046022100F034
:1041000013FE2046012100F014FE20460F2200215C
:1041100000F007FE2046054A002101F0ECF9204698
:10412000BDE8104000F0C8BBA4E30320306B0D00D5
:1041300008B501F0A9FB4FF4165101F099FB0221DB
:1041400005483C2200F0E6FAFFF7D2FF00210220EA
:10415000BDE8084001F06CBEA4E303201FB5134C7A
:104160008DED030A204600F06DFA2046022100F092
:10417000DBFD2046012100F0DCFD05222046002168
:1041800000F0CFFD9DED030A10EE100A02F0BEF91B
:10419000074ACDE900010021204601F0ACF9204694
:1041A00004B0BDE8104000F087BB00BFA4E30320CB
:1041B000426B0D0000000000F7B5214C214D00239B
:1041C00023602B602E4627462B6873B90220FFF729
:1041D0007DFF0028F8D023681BB900F04FFE38603F
:1041E000F2E700F04BFE3060EEE72068164C181A3C
:1041F000164B186002F068F90B4602460EA1D1E991
:10420000000102F001FB02F0E7FB206001F03CFB43
:104210000546206802F07AF90D4ACDE90001002137
:10422000284601F068F994ED000A03B0BDE8F040BB
:10423000FFF794BFAFF3008000000000389C8C4172
:10424000CCE303209CE30320C8E30320A0E3032086
:10425000566B0D0010B52421044601F097FE204650
:1042600010BD000010B5094C00F080FD042120466F
:1042700000F0D2F90649074A204601F079FE0021F4
:104280000120BDE8104000F019BF00BFA4E30320E7
:10429000C9400D0098E30320F0B5447EBDF81450EA
:1042A000022C08D0032C0FD0012C70D10489013CC2
:1042B000A21A12B20CE04489013CA21A0489E41A41
:1042C000611A12B209B262E04489E41A611A09B2B1
:1042D000002A5BDBB0F90840944240F3908000294B
:1042E000BEBF5B181BB20021B0F90A00CC18844293
:1042F000C4BF431A1BB2002B40F38180C9B2C80867
:104300003F4F02EBC01211F00701DBB207EB0204D2
:1043100017D0C1F10801C8B23A4983420E5C3FBFD1
:10432000C3EB000EFF2141FA0EF10E40B95C012DE6
:104330000CBF3143B1438342B95460D3181AC3B29E
:104340008034072B17D9012D0CBFFF20002004F16A
:1043500080011A46083AD2B2072A01F8800C01F10E
:104360008001F7D8A3F10802C2F3C402013204EBC2
:10437000C21403F00703002B41D0234AD25C2378F8
:10438000012D0CBF134393432370F0BDF0BD002AF1
:1043900035DBB0F90A40944231DD0029BCBFC918B1
:1043A0000BB2B0F90870B8BF0021CE18BE42C4BF2E
:1043B000631A1BB2002B22DDD01001EBC011104894
:1043C00002F007020144012000FA02F28542D2B253
:1043D00009D1013B1BB25C1C11D011F8010B104339
:1043E00001F8010CF5E7D243D2B2013B1BB2581CD5
:1043F00005D011F8010B104001F8010CF5E7F0BDF4
:104400002DDF032025DF03201DDF0320F0B5447ED0
:10441000BDF81450022C08D0032C0FD0012C12D15F
:104420000489E41AA21A12B26DE00489013C611AEF
:104430004489E41AA21A09B212B204E04489013C88
:10444000611A09B25FE000295CDBB0F908408C42D8
:1044500040F39180002ABCBFD21813B2B0F90A0011
:10446000B8BF0022D4188442C4BF831A1BB2002BE9
:1044700040F38180D4B2404EDAB2E30801EBC311BD
:1044800014F0070406EB010317D0C4F10804E0B2EE
:104490003A4C8242275C3FBFC2EB000EFF2444FA35
:1044A0000EF42740745C012D0CBF3C43BC43824298
:1044B000745460D3101AC2B28033072A17D9012D61
:1044C0000CBFFF24002403F1800011460839C9B253
:1044D000072900F8804C00F18000F7D8A2F108010C
:1044E000C1F3C401013103EBC11302F00702002A3A
:1044F00041D02349895C1A78012D0CBF0A438A43B5
:104500001A70F0BDF0BD002935DBB0F90A408C42CD
:1045100031DD002ABCBFD21813B2B0F90870B8BFA1
:104520000022D618BE42C4BFA31A1BB2002B22DD44
:10453000C81002EBC012104801F00701104401221C
:1045400002FA01F19542C9B209D15A1E13B25C1C9C
:1045500011D010F8012B0A4300F8012CF5E7C943EC
:10456000C9B25A1E13B25A1C05D010F8012B0A40CA
:1045700000F8012CF5E7F0BD2DDF032025DF032037
:104580001DDF0320F8B50D1E064614461F463FDB0F
:1045900000F0D4FB85423BDA002C39DB304600F0DA
:1045A000D0FB844234DA304600F0C6FB022827D123
:1045B0003189708901390138491B001B0DB204B2E1
:1045C00006E0012804D13389013B1B1B2C461DB298
:1045D0000820012F94FBF0F000B20E4B04F007020C
:1045E00005EBC01104D197405A5C17435F54F8BDE6
:1045F000585C012707FA02F220EA02025A54F8BD79
:104600000328DED17389013B5B1B25461CB2DFE723
:10461000F8BD00BF2DDF032038B5402204460D460B
:10462000802100F09FFA064B2360FF23637784F814
:104630002130E377A37784F82050204638BD00BFAF
:104640006C6B0D004FF480620021014802F02DBA1E
:104650002DDF032038B5094D296811F001040AD176
:104660002846FFF729FD30B12146054800F0F6FD48
:104670002846FFF726FD024838BD00BFD0E30320DF
:10468000D4E3032038B590F91D30013304460D46BC
:1046900028D090F92100012180B201F0DAFB94F9D1
:1046A0001F00002180B201F0D4FB94F92100002109
:1046B00080B201F0CEFB94F822302BB1FFF7CAFF95
:1046C000294600F075FE05E02B460122A17F607FA0
:1046D00001F0EBFB94F92100012180B2BDE83840E4
:1046E00001F0B7BB01F01EFC94F91B1001F0BCF9FE
:1046F00001F018FC036800219B68984701F012FC48
:10470000036829469B68984701F00CFCBDE83840D7
:1047100001F0B1B938B504460D46217790F91D3046
:10472000C276013337D090F91F00012180B201F029
:104730007FFB94F92100012180B201F079FB94F80C
:1047400022305BB994F91D00012180B201F070FBA9
:1047500094F91E00012180B201F06AFB94F8223026
:10476000EBB194F92100012180B201F072FBFFF757
:1047700071FF012100F08DFDFFF76CFF102100F0AB
:10478000F3FDFFF767FF002100F094FDFFF762FFE4
:1047900000F06EFD03E001F0C5FB01F05BF994F958
:1047A0002000012180B201F043FB94F92000012197
:1047B00080B201F04EFB012000F0EAFE94F92000E7
:1047C000002180B201F045FB0A2000F0E1FE94F9DF
:1047D0002000012180B201F03CFB2046AE21FFF712
:1047E00051FF2046D521FFF74DFF20468021FFF7DE
:1047F00049FF2046A821FFF745FF20463F21FFF74C
:1048000041FF2046D321FFF73DFF20460021FFF75F
:1048100039FF20464021FFF735FF8D212046FFF765
:1048200031FF012D0CBF102114212046FFF72AFF74
:1048300020462021FFF726FF20460021FFF722FF18
:104840002046A121FFF71EFF2046C821FFF71AFFCF
:104850002046DA21FFF716FF20461221FFF712FF4C
:1048600081212046FFF70EFF012D0CBF9F21CF2194
:104870002046FFF707FFD9212046FFF703FF012D50
:104880000CBF2221F1212046FFF7FCFE2046DB2150
:10489000FFF7F8FE20464021FFF7F4FE2046A42152
:1048A000FFF7F0FE2046A621FFF7ECFE2046AF21E1
:1048B000BDE83840FFF7E6BE2DE9F041212104466E
:1048C000FFF7E0FE00212046FFF7DCFE7F212046B7
:1048D000FFF7D8FE22212046FFF7D4FE0021204614
:1048E000FFF7D0FE07212046FFF7CCFE94F91D30DC
:1048F000DFF8BC80013335D094F92100012180B26A
:1049000001F0A7FA94F91F00012180B201F0A1FA89
:1049100094F92100002180B201F09BFA012000F0FF
:10492000A5FA002594F8223018F805602BB1FFF79E
:1049300091FE314600F03CFD05E033460122A17FA7
:10494000607F01F0B2FA0135B5F5806FEAD1012040
:1049500000F08CFA94F92100012180B2BDE8F04109
:1049600001F077BA002501F0DDFA94F91B1001F08F
:104970007BF801F0D7FA036840219B68984700262E
:1049800001F0D0FAAF190368BFB29B6818F807109E
:1049900001369847102EF3D1103501F0C3FAADB2AD
:1049A00001F069F8B5F5806FDDD1BDE8F08100BF99
:1049B0002DDF032000F0DAB92DE9F04F85B01E4657
:1049C000BDF93830BDF83CA015469A1A002AB8BF88
:1049D00052420092721A002AB8BF524201920C460B
:1049E000009A01998A42814605DD32461E461346E9
:1049F00022462C461546B44205DD2A461D4613467E
:104A00002246344616465A1B002AB8BF5242C4EB0F
:104A100006089D42B4BF01234FF0FF331FFA88F808
:104A2000029303920FFA88F7022297FBF2F7B4423F
:104A30001FDC019A009B9342D9F80030C8BF224680
:104A4000D3F810B0C8BF29465346DCBF2A462146DA
:104A50004846D847039BFF1ABBB21FB2002F05DAA6
:104A6000029A08EB030715442DB23FB2013424B279
:104A7000DDE705B0BDE8F08F2DE9F347BDF82C6008
:104A80000768BDF928A000960446FF6991460D46C7
:104A90009846B847236800960AF1FF324A44DF6916
:104AA00029464346204612B2B847236800969F69BC
:104AB0004A46534629462046B84723680A9608F1D5
:104AC000FF3129449D694A46534609B22046AC4607
:104AD00002B0BDE8F047604737B5013B13440468B6
:104AE000BDF8185001951BB2009364690B46A047AE
:104AF00003B030BD37B5BDF8185004688DE8240008
:104B0000013B0B4464691BB2A04703B030BD2DE9E3
:104B1000F347BDF92880BDF82C90054617460C4692
:104B200001EB030A54450BDA2B68CDF800909E691F
:104B3000214643463A4628460134B04724B2F1E7BD
:104B400002B0BDE8F08713B5B0F90E2004680191FA
:104B500000920022B0F90C30646A1146A04702B0FE
:104B600010BD704730B501810024084D428181811C
:104B7000C2814FF6FF7101224460056044760482D1
:104B800044820276C1828182827630BDA46B0D00A0
:104B90002DE9F04F8FB005460691BDF860100791E2
:104BA000BDF864100891B0F90C1006989DF8688063
:104BB00081427CDDB5F90E10914278DD062111FBB2
:104BC0000800002873DD02EBC80000286FDD03EB4E
:104BD000830396B20C9306F108039BB2099100245B
:104BE0000D93052C1CBF334B0C9A059616BF1B1951
:104BF0004FF0000913F8029004961FFA88F303930C
:104C0000039ABDF8183004FB023213FA84F312B28F
:104C10001BB20A9237460FFA88FA0B9319F0010F6C
:104C200011D0B8F1010F2B6803D1D3F810B0079B56
:104C300014E0079A0192CDF800A0D3F824B0BDF992
:104C40001020534618E0079B089A934217D0B8F1FA
:104C5000010F2B6807D1D3F810B013463AB20B9965
:104C60002846D8470BE0089A0192CDF800A0BDF97C
:104C70001420D3F824B053460A992846D847049BF9
:104C8000039A13449BB20493059B13449BB20137D0
:104C900005930D9BBFB29F424FEA5909BED1099BB4
:104CA000013B013413F0FF0364B2099399D10FB0B3
:104CB000BDE8F08FD46B0D0030B50A2985B00446ED
:104CC0000B4604D1027E438A03EBC20323E00D2985
:104CD00024D0057EB0F91220B0F910100295C58AD3
:104CE0000195858A0095FFF753FF227E238A91B2B2
:104CF00001EB410003EB4003A07E1BB2238268B1AD
:104D0000B4F90C006FF0050505FB0202934205DDC6
:104D1000638A03EBC103638200232382012005B071
:104D200030BD018242827047002908BF012101760F
:104D30007047C18281827047407E7047B0F90C0095
:104D40007047B0F90E00704700F010B808B5024B7C
:104D50001B689B68019308BD6802030008B5024BFD
:104D60001B68DB68019308BD6802030008B5024BAD
:104D70001B681B68019308BD2C02030008B5024B99
:104D80001B689B68019308BD2C02030008B5024B09
:104D90001B68DB68019308BD2C02030008B5024BB9
:104DA0001B681B69019308BD2C02030008B5024B68
:104DB0001B685B69019308BD2C02030008B5024B18
:104DC0001B681B68019308BD3002030008B5024B45
:104DD0001B689B68019308BD3002030008B5024BB5
:104DE0001B68DB68019308BD3002030008B5024B65
:104DF0001B681B69019308BD3002030008B5024B14
:104E00001B685B69019308BD3002030008B5024BC3
:104E10001B68DB69019308BD3002030008B5024B33
:104E20001B681B6A019308BD3002030008B5024BE2
:104E30001B685B6A019308BD3002030008B5024B92
:104E40001B681B6C019308BD3002030008B5024BC0
:104E50001B685B6C019308BD3002030008B5024B70
:104E60001B685B68019308BD1802030008B5024B7C
:104E70001B68DB68019308BD1802030008B5024BEC
:104E80001B681B69019308BD1802030008B5024B9B
:104E90001B685B69019308BD1802030008B5024B4B
:104EA0001B689B68019308BD4802030008B5024BCC
:104EB0001B681B69019308BD4802030008B5024B3B
:104EC0001B685B69019308BD4802030008B5024BEB
:104ED0001B685B6C019308BD4802030008B5024BD8
:104EE0001B689B6C019308BD4802030008B5024B88
:104EF0001B685B69019308BD6402030008B5024B9F
:104F00001B681B68019308BD3C02030008B5024BF7
:104F10001B68DB68019308BD3C02030008B5024B27
:104F20001B681B69019308BD3C02030008B5024BD6
:104F30001B685B69019308BD3C02030008B5024B86
:104F40001B689B69019308BD3C02030008B5024B36
:104F50001B68DB69019308BD3C02030008B5024BE6
:104F60001B681B6A019308BD3C02030008B5024B95
:104F70001B689B6A019308BD3C02030008B5024B05
:104F80001B68DB68019308BD2802030008B5024BCB
:104F90001B689B69019308BD2802030008B5024BFA
:104FA0001B68DB69019308BD2802030008B5024BAA
:104FB0001B681B6A019308BD2802030008B5024B59
:104FC0001B685B6A019308BD2802030008B5024B09
:104FD0001B689B6A019308BD2802030008B5024BB9
:104FE0001B68DB6A019308BD2802030008B5024B69
:104FF0001B681B6B019308BD2802030008B5024B18
:105000001B685B6B019308BD2802030008B5024BC7
:105010001B681B6C019308BD2802030008B5024BF6
:105020001B681B68019308BD4C02030008B5024BC6
:105030001B685B68019308BD4C02030008B5024B76
:105040001B681B69019308BD4C02030008B5024BA5
:105050001B685B69019308BD4C02030008B5024B55
:105060001B689B69019308BD4C02030008B5024B05
:105070001B68DB69019308BD4C02030008B5024BB5
:105080001B681B6A019308BD4C02030008B5024B64
:105090001B685B6B019308BD6002030008B5024BFF
:1050A0001B685B68019308BD2002030008B5024B32
:1050B0001B685B69019308BD2002030008B5024B21
:1050C0001B68DB6A019308BD2002030008B5034B8F
:1050D0001B68D3F88830019308BD0000200203004C
:1050E00008B5034B1B68D3F89430019308BD00004A
:1050F0002002030008B5024B1B685B68019308BDE2
:105100004002030008B5024B1B689B68019308BD71
:105110004002030008B5024B1B68DB68019308BD21
:105120004002030008B5024B1B681B69019308BDD0
:105130004002030008B5024B1B685B69019308BD80
:105140004002030008B5024B1B689B69019308BD30
:105150004002030008B5024B1B68DB69019308BDE0
:105160004002030008B5024B1B681B6A019308BD8F
:105170004002030008B5024B1B681B6B019308BD7E
:105180004002030008B5024B1B685B6B019308BD2E
:105190004002030008B5024B1B68DB6B019308BD9E
:1051A0004402030008B5024B1B681B68019308BD4D
:1051B0001C02030008B5024B1B685B68019308BD25
:1051C0001C02030008B5024B1B685B6A019308BD13
:1051D0001C020300002211464068FFF7C3BF0022F3
:1051E00011464068FFF7CEBF00224068FFF7C2BFFC
:1051F000002281F001014068FFF7ACBF00231A468E
:1052000019464068FFF79EBF00231A4619464068BA
:10521000FFF790BF002211464068FFF783BF0022CE
:1052200011464068FFF76EBF002202214068FFF779
:1052300071BF00231A464068FFF75CBF024B032290
:105240005A60024A1A607047DCE30320D8700D00F0
:105250000021FFF7F3BD0021FFF7F8BD10B50446AC
:1052600001700846FFF7D2FD00236360204610BDA1
:1052700010B504460078FFF7EBFF48B920784FF6E9
:10528000FF71FFF79BFD2078BDE81040FFF7E3BFFB
:1052900010BD38B5044600780D46FFF7D9FF40B978
:1052A00020782946FFF792FD2078BDE83840FFF7C7
:1052B000D2BF38BD38B5044600780D46FFF7C8FFA9
:1052C00040B920782946FFF789FD2078BDE83840AD
:1052D000FFF7C1BF38BD0000400830B5186000249A
:1052E00018688842E5B206D90134082C02D040087B
:1052F0001860F5E70725024B5B5D137030BD00BFFA
:1053000004710D002DE9F04188B0002304460078B7
:1053100002930E461746FFF79BFF054600BB94F825
:1053200000800146142203A801F0BFFB0B232A468C
:1053300003A94046ADF80C30FFF778FD02AB0DF144
:10534000070207FB06F104988DF80750FFF7C4FF2A
:1053500020789DF80710FFF749FD2078FFF77BFFC5
:10536000029808B0BDE8F08138B5044600780D46D3
:10537000FFF76EFFC8B9616871B10C4BC25CAA42FD
:1053800002D001300828F9D10130C0B2C140012259
:105390002046FFF7B7FF03E029462078FFF726FDF8
:1053A0002078BDE83840FFF756BF38BD04710D00C6
:1053B00008B50078FFF722FDC0B208BD0078FFF7FE
:1053C0002DBD10B50446006818B1FFF7F3FE0023A9
:1053D000236010BD10B50446FFF7F3FF204610BD53
:1053E00010B5094C00204FF6FF732060A080A0711B
:1053F00020816381FFF752FE2046044A0449BDE83C
:10540000104000F0B5BD00BFE4E3032098E30320A3
:10541000D5530D0010B50446006808B1FFF75EFDD6
:10542000204610BD10B5064C002320462360FFF730
:105430004DFD2046034A0449BDE8104000F098BDE8
:10544000F0E3032098E3032015540D00F8B5064659
:105450000D468F180024BD420CD0336815F8011B8F
:105460009B6830469847002801DB0444F3E7002C92
:1054700008BF04462046F8BD70B505460C460846F0
:1054800049B101F043FB2B68024621462846DB6800
:10549000BDE87040184770BD03689B68184738B571
:1054A0000D210546FFF7F8FF0A2104462846FFF7BD
:1054B000F3FF204438BD30B58BB00B4600218DF88A
:1054C0002410012A98BF0A220DF12304B3FBF2F540
:1054D00005FB123303F0FF03092B94BF303337333E
:1054E000DBB2214604F801392B46002DEED1FFF73F
:1054F000C3FF0BB030BD0CB42DE9F04387B000AF53
:1055000007F13804054654F8049B3C600E462346D8
:105510004A461421381DFFF755FE132805D8391DBA
:105520002846FFF7A9FF044613E000F1080323F023
:105530000703E846ADEB030D411C23464A46684687
:105540003C60FFF73FFE69462846FFF795FF04469B
:10555000C5461EB12846FFF7A2FF044420461C376B
:10556000BD46BDE8F04302B070470000014B024A5F
:105570001A607047F4E303207F710D00024B1A6834
:10558000024B1A60704700BF30E30320F8E30320AA
:105590000021FFF78BBD10B58368044613B10322C9
:1055A00001469847204610BD10B50446FFF7F3FFAB
:1055B000204610BD0348044A04490023836000F0DC
:1055C000D7BC00BFFCE3032098E30320A9550D00DE
:1055D00008B50C4B33B100F057F903681B699847C5
:1055E000002809DC084B63B100F0D0F903681B699F
:1055F0009847002803DC08BDAFF30080F2E7AFF363
:10560000008008BD000000000000000008B5FFF7A2
:10561000DFFFFFF73BFC014B186008BD30E70320BC
:105620000248034A0349121A01F034BA00F4032075
:1056300004F4032000740D0007B5002300931A46FC
:105640006FF07701FFF74CFD03B05DF804FB00003D
:1056500007B543880A2B08D0502B09D1094B1B688A
:105660003BB103B05DF804EB1847FFF7E5FF06E038
:10567000002300931A466FF07701FFF731FD03B066
:105680005DF804FB0CE4032038B5104C104D236882
:10569000AB42104B0CBF012200221A7002D0FFF760
:1056A000BFFF2560FFF7DAFB044601F007FA0A4B5B
:1056B00013B12046AFF3008000210748FFF76AFDD1
:1056C00000210648BDE83840FFF700BD00F4032084
:1056D0001E1C279A10E403200000000051560D0004
:1056E000704710B51821044600F050FC204610BD4C
:1056F000F0B5037D062B8DB00E4600F104074FF088
:10570000000402D000F1080518E00CAD394605F898
:10571000304D2F232A460A20FFF7E8FB284601F0E8
:10572000F5F933680246DB682946304698470FE0B2
:1057300024B12E213046FFF7AFFE044415F8011DB9
:105740000A223046FFF7B7FEBD420444F0D120469E
:105750000DB0F0BD10B5054B0446112240F8043BD6
:10576000002101F0A2F9204610BD00BF20720D00FB
:105770000346074A10B543F8042B01F1100251F813
:10578000044B43F8044B9142F9D10A781A7010BDCA
:1057900020720D0010B59DF8084044EA032343EA47
:1057A000024242EA016104234160037510BD37B52E
:1057B0000D788B784A78C97800912946FFF7EAFF7F
:1057C00003B030BD41747047704708B50021007CBC
:1057D000FFF744FC30EA200028BF4FF0FF3008BD3F
:1057E00008B50121007CFFF739FC30EA200028BF12
:1057F0004FF0FF3008BD08B5007CFFF727FC20EA1A
:10580000E07008BD08B5007CFFF718FC20EAE070E6
:1058100008BD007CFFF732BC10B51421044600F02F
:10582000B5FB204610BD38B50446007C0D46FFF799
:105830000DFC002801DC607C28B12946207CFFF7A4
:1058400015FC20EAE07038BD10B504460023636003
:105850004FF47A73A360054B23600123084621743B
:1058600063741146FFF7DAFB204610BD34720D0059
:105870000022007CFFF7DABB10B514220446002199
:1058800001F013F9204610BD30B50E4D87B001A8C8
:10589000FFF7F2FF296811F0010410D12846FEF746
:1058A0000BFC60B101AA21460748FFF7CDFF28464F
:1058B000FEF707FC054A0649034800F059FB024879
:1058C00007B030BD14E4032018E4032098E303205C
:1058D000C9570D0070474174704708B5007CFFF749
:1058E00045FB20EAE07008BD08B5007CFFF716FB19
:1058F00020EAE07008BD08B5007CFFF71FFB30EA26
:10590000200028BF4FF0FF3008BD08B5007CFFF72E
:105910000DFB30EA200028BF4FF0FF3008BD007CAF
:10592000FFF714BB10B51421044600F02FFB2046EE
:1059300010BD70B5457C04460E4625B9007CFFF7C6
:1059400015FB002805DD3146207CBDE87040FFF7DF
:10595000DDBA284670BD000010B504460846114661
:10596000002262604FF47A72A260054A226001222E
:10597000207462741A46FFF7C1FA204610BD00BFBA
:1059800064720D00007CFFF7E9BA000038B50C4DD9
:10599000296811F0010411D12846FEF78DFB68B18A
:1059A000084A094B09482146FFF7D6FF2846FEF76B
:1059B00088FB074A0749054800F0DAFA034838BD72
:1059C000C4E40320C8E4032040E403202CE40320C3
:1059D00098E30320D5580D007047F8B506461546E4
:1059E0000C468F18BC4206D0336814F8011B9B6824
:1059F00030469847F6E72846F8BD0022007CFFF7BE
:105A0000D5BA0021007CFFF7D9BA0021007CFFF74E
:105A1000DDBA0021007CFFF7E1BA0021007CFFF72E
:105A2000E5BA10B51421044600F0B0FA204610BDC6
:105A300010B50446002363604FF47A73A360044BEF
:105A40002174084623601146FFF7E0FA204610BD96
:105A500094720D0000231A461946007CFFF78EBA97
:105A60000022007CFFF792BAC9B2FFF7F9BF00220B
:105A7000007CFFF793BA0121FFF7F9BF0021007CFA
:105A8000FFF7BCBA002211464068FFF76BBB00224B
:105A900011464068FFF776BB00224068FFF76ABBFB
:105AA000002281F001014068FFF754BB00231A4631
:105AB00001214068FFF746BB00231A46194640689B
:105AC000FFF738BB002211464068FFF72BBB0022CE
:105AD00011464068FFF716BB002202214068FFF71D
:105AE00019BB00231A464068FFF704BB38B50546CA
:105AF00088B104684CB1A3681BB10322214620463B
:105B000098471021204600F041FA28461421BDE8AC
:105B1000384000F03BBA38BD10B103685B681847E5
:105B2000704710B503680446BBB15868FFF7B6F973
:105B300078B923685A7C12B95868FFF7B7F9236817
:105B40005868FFF7BBF920680023236028B1FFF7EE
:105B5000CDFF206808B1FFF7C9FF204610BD38B55A
:105B60000446D0F8C40108B1FEF799FAD4F8C00190
:105B700008B1FFF7B3F9D4F8BC5135B12846FFF7A7
:105B8000D0FF0421284600F001FA206808B1FFF791
:105B9000C3FF204638BD000010B5044B044640F852
:105BA000083BFFF7DCFF204610BD00BFBC720D00B4
:105BB00038B50E4C0E4B23600025022304F5E4702B
:105BC0006360A560C4F8C451C4F8C851FFF77EF9FA
:105BD000084BC4F8CC5184F8D05123602046064AC3
:105BE0000649BDE8384000F0C3B900BF4CE50320CA
:105BF00024730D00BC720D0098E30320995B0D0027
:105C0000002211464068FFF78DBA00221146406815
:105C1000FFF7A8BA002211464068FFF7B3BA002286
:105C20004068FFF7A7BA002281F001014068FFF742
:105C300091BA00231A4619464068FFF783BA002339
:105C40001A4619464068FFF775BA002211464068A7
:105C5000FFF758BA002202214068FFF75BBA002321
:105C60001A464068FFF746BA024B04225A60024ABD
:105C70001A60704720E70320F0720D0000231A46D7
:105C80004068FFF737BA002202214068FFF742BAA6
:105C9000002211464068FFF735BA002211464068DD
:105CA000FFF740BA00231A4619464068FFF742BA88
:105CB00000231A4619464068FFF744BA002281F0D3
:105CC00001014068FFF746BA00224068FFF752BA68
:105CD000002211464068FFF755BA0022114640687D
:105CE000FFF740BA2DE9F043002495B016460D4663
:105CF0000746FFF72FFD214620220CA8009400F054
:105D0000D4FE40230C9321466B460CAA3046FFF785
:105D100025F80446002844D1024601216868FFF7AF
:105D200001FA0221804622466868FFF7FBF9009ECF
:105D300081462146002E34D0002932D17368022BCF
:105D400002D00A2B09D02AE0B8F1000F27D07169E0
:105D500038460431FFF72BFD20E0B9F1000F1ED0CB
:105D60007469112201A800F0A0FE06238DF81430FA
:105D700001AD04F108031834186859682A4603C2B3
:105D80000833A3421546F7D101A906A807ADFFF7CE
:105D9000EFFC0FCD3C1D0FC42B6823700121F66969
:105DA000C8E70098FEF7D2FF384615B0BDE8F0838B
:105DB000024B034A1A6000225A60704728E703200A
:105DC00024730D0070B5184E316811F001050446BA
:105DD0000AD13046FEF770F930B129461348FFF773
:105DE0003DFA3046FEF76DF91048FFF7E7FA28B1A3
:105DF000A4F10B03022B01D8002070BD00F092F833
:105E0000FFF73CFE08B1012CF6D9FFF7BFFDFFF705
:105E1000B9FD18B1A4F10903012BEDD9232C8CBFD6
:105E20000020012070BD00BFD0E30320D4E3032095
:105E3000232838B504460D460AD8FF2908D0FFF7B5
:105E4000C1FF28B129462046BDE83840FEF796BF7D
:105E500038BD38B504460D46FEF798FFFF2810D030
:105E6000062804D84D2323FA00F0C30709D420469E
:105E7000FFF7A8FF28B129462046BDE83840FEF7C5
:105E80008DBF38BD10B50446FEF780FF0438C0B2A0
:105E9000012808D92046FFF795FF20B12046BDE82C
:105EA0001040FEF783BF002010BD2DE9F041904661
:105EB0001E46072407460D46B8F1000F04D1C4F171
:105EC000070146FA01F101E046FA04F101F001018F
:105ED0003846FFF7BEFF01212846FFF7BAFF002131
:105EE0002846FFF7B6FF14F1FF34E5D2BDE8F08194
:105EF00070B5044614252A46094E002100F0D5FD50
:105F0000258020253146A5602561284600F040F80F
:105F100031466060284600F03BF8E060204670BDE6
:105F200050730D0030B50E4D296811F0010487B093
:105F300013D12846FEF7C0F878B101A8FFF7D8FFC3
:105F400001AA21460748FFF773FD2846FEF7B9F876
:105F5000054A0649034800F00BF8024807B030BD77
:105F600034E7032038E7032098E30320D9590D00D4
:105F70000B460146184600F07FBD0000024B186832
:105F8000BFF35F8F704700BF4CE70320FEF785B873
:105F900000F000B810B5002814BF044601242046C4
:105FA000FFF700F920B9FFF7E9FF08B18047F6E7EE
:105FB00010BD0000184B1A68D1075CBF01221A609F
:105FC000164B1A68D2075CBF01221A60144B1A687C
:105FD000D0075CBF01221A60124B1A68D1075CBF60
:105FE00001221A60104B1A68D2075CBF01221A60A6
:105FF0000E4B1A68D0075CBF01221A600C4B1A685E
:10600000D1075CBF01221A600A4B1A68D2075CBF35
:1060100001221A60704700BF6CE7032068E7032085
:1060200064E7032060E703205CE7032058E70320D0
:1060300054E7032050E70320244B1A68D0075CBFC5
:1060400001221A60224B1A68D1075CBF01221A6034
:10605000204B1A68D2075CBF01221A601E4B1A68D7
:10606000D0075CBF01221A601C4B1A68D1075CBFC5
:1060700001221A601A4B1A68D2075CBF01221A600B
:10608000184B1A68D0075CBF01221A60164B1A68B9
:10609000D1075CBF01221A60144B1A68D2075CBF9B
:1060A00001221A60124B1A68D0075CBF01221A60E5
:1060B000104B1A68D1075CBF01221A600E4B1A6898
:1060C000D2075CBF01221A60704700BF9CE7032023
:1060D00098E7032094E7032090E703208CE7032050
:1060E00088E7032084E7032080E703207CE7032080
:1060F00078E7032074E7032070E70320244B1A6835
:10610000D0075CBF01221A60224B1A68D1075CBF1E
:1061100001221A60204B1A68D2075CBF01221A6064
:106120001E4B1A68D0075CBF01221A601C4B1A680C
:10613000D1075CBF01221A601A4B1A68D2075CBFF4
:1061400001221A60184B1A68D0075CBF01221A603E
:10615000164B1A68D1075CBF01221A60144B1A68EB
:10616000D2075CBF01221A60124B1A68D0075CBFCD
:1061700001221A60104B1A68D1075CBF01221A6015
:106180000E4B1A68D2075CBF01221A60704700BF2D
:10619000CCE70320C8E70320C4E70320C0E70320BF
:1061A000BCE70320B8E70320B4E70320B0E70320EF
:1061B000ACE70320A8E70320A4E70320A0E703201F
:1061C000184B1A68D1075CBF01221A60164B1A6877
:1061D000D2075CBF01221A60144B1A68D0075CBF5B
:1061E00001221A60124B1A68D1075CBF01221A60A3
:1061F000104B1A68D2075CBF01221A600E4B1A6856
:10620000D0075CBF01221A600C4B1A68D1075CBF33
:1062100001221A600A4B1A68D2075CBF01221A6079
:10622000704700BFECE70320E8E70320E4E7032022
:10623000E0E70320DCE70320D8E70320D4E70320CE
:10624000D0E7032081F0004102E000BF83F000436B
:1062500030B54FEA41044FEA430594EA050F08BF01
:1062600090EA020F1FBF54EA000C55EA020C7FEAC5
:10627000645C7FEA655C00F0E2804FEA5454D4EB42
:106280005555B8BF6D420CDD2C4480EA020281EA0C
:10629000030382EA000083EA010180EA020281EA44
:1062A0000303362D88BF30BD11F0004F4FEA013196
:1062B0004FF4801C4CEA113102D0404261EB4101A5
:1062C00013F0004F4FEA03334CEA133302D052422B
:1062D00063EB430394EA050F00F0A780A4F10104E7
:1062E000D5F1200E0DDB02FA0EFC22FA05F2801821
:1062F00041F1000103FA0EF2801843FA05F3594107
:106300000EE0A5F120050EF1200E012A03FA0EFC85
:1063100028BF4CF0020C43FA05F3C01851EBE371AF
:1063200001F0004507D54FF0000EDCF1000C7EEBCC
:1063300000006EEB0101B1F5801F1BD3B1F5001F0A
:106340000CD349085FEA30004FEA3C0C04F1010429
:106350004FEA445212F5800F80F09A80BCF1004F52
:1063600008BF5FEA500C50F1000041EB045141EAD4
:10637000050130BD5FEA4C0C404141EB010111F4D5
:10638000801FA4F10104E9D191F0000F04BF014680
:106390000020B1FA81F308BF2033A3F10B03B3F15E
:1063A00020020CDA0C3208DD02F1140CC2F10C02EE
:1063B00001FA0CF021FA02F10CE002F11402D8BF4C
:1063C000C2F1200C01FA02F120FA0CFCDCBF41EA18
:1063D0000C019040E41AA2BF01EB0451294330BDE7
:1063E0006FEA04041F3C1CDA0C340EDC04F11404C4
:1063F000C4F1200220FA04F001FA02F340EA03009B
:1064000021FA04F345EA030130BDC4F10C04C4F1E0
:10641000200220FA02F001FA04F340EA03002946C0
:1064200030BD21FA04F0294630BD94F0000F83F40A
:10643000801306BF81F480110134013D4EE77FEAED
:10644000645C18BF7FEA655C29D094EA050F08BF39
:1064500090EA020F05D054EA000C04BF194610461A
:1064600030BD91EA030F1EBF0021002030BD5FEA5E
:10647000545C05D14000494128BF41F0004130BD86
:1064800014F580043CBF01F5801130BD01F00045DA
:1064900045F0FE4141F470014FF0000030BD7FEA4D
:1064A000645C1ABF194610467FEA655C1CBF0B4648
:1064B000024650EA013406BF52EA033591EA030F5F
:1064C00041F4002130BD00BF90F0000F04BF002157
:1064D000704730B54FF4806404F132044FF000058A
:1064E0004FF0000150E700BF90F0000F04BF002103
:1064F000704730B54FF4806404F1320410F0004569
:1065000048BF40424FF000013EE700BF42004FEA63
:10651000E2014FEA31014FEA02701FBF12F07F43E0
:1065200093F07F4F81F06051704792F0000F14BFDD
:1065300093F07F4F704730B54FF4607401F0004521
:1065400021F0004120E700BF50EA010208BF704778
:1065500030B54FF000050AE050EA010208BF70476D
:1065600030B511F0004502D5404261EB41014FF4D6
:10657000806404F132045FEA915C3FF4DCAE4FF0DA
:1065800003025FEADC0C18BF03325FEADC0C18BFC1
:10659000033202EBDC02C2F1200300FA03FC20FA12
:1065A00002F001FA03FE40EA0E0021FA02F114445F
:1065B000C1E600BF70B54FF0FF0C4CF4E06C1CEA74
:1065C00011541DBF1CEA135594EA0C0F95EA0C0FE9
:1065D00000F0DEF82C4481EA030621EA4C5123EA5C
:1065E0004C5350EA013518BF52EA033541F480118B
:1065F00043F4801338D0A0FB02CE4FF00005E1FB3E
:1066000002E506F00042E0FB03E54FF00006E1FB87
:1066100003569CF0000F18BF4EF0010EA4F1FF04CA
:10662000B6F5007F64F5407404D25FEA4E0E6D410A
:1066300046EB060642EAC62141EA55514FEAC5201B
:1066400040EA5E504FEACE2EB4F1FD0C88BFBCF597
:10665000E06F1ED8BEF1004F08BF5FEA500E50F148
:10666000000041EB045170BD06F0004646EA01010E
:1066700040EA020081EA0301B4EB5C04C2BFD4EB40
:106680000C0541EA045170BD41F480114FF0000E39
:10669000013C00F3AB8014F1360FDEBF002001F0A7
:1066A000004170BDC4F10004203C35DA0C341BDC21
:1066B00004F11404C4F1200500FA05F320FA04F0F3
:1066C00001FA05F240EA020001F0004221F0004127
:1066D00010EBD37021FA04F642EB06015EEA430E9A
:1066E00008BF20EAD37070BDC4F10C04C4F12005CA
:1066F00000FA04F320FA05F001FA04F240EA02007D
:1067000001F0004110EBD37041F100015EEA430E4D
:1067100008BF20EAD37070BDC4F1200500FA05F26D
:106720004EEA020E20FA04F301FA05F243EA0203EC
:1067300021FA04F001F0004121FA04F220EA0200FB
:1067400000EBD3705EEA430E08BF20EAD37070BD41
:1067500094F0000F0FD101F00046400041EB010121
:1067600011F4801F08BF013CF7D041EA060195F003
:10677000000F18BF704703F00046520043EB0303BD
:1067800013F4801F08BF013DF7D043EA06037047AA
:1067900094EA0C0F0CEA135518BF95EA0C0F0CD0B5
:1067A00050EA410618BF52EA4306D1D181EA0301FB
:1067B00001F000414FF0000070BD50EA410606BFF5
:1067C0001046194652EA430619D094EA0C0F02D13A
:1067D00050EA013613D195EA0C0F05D152EA03367F
:1067E0001CBF104619460AD181EA030101F000419D
:1067F00041F0FE4141F470014FF0000070BD41F0E6
:10680000FE4141F4780170BD70B54FF0FF0C4CF4BF
:10681000E06C1CEA11541DBF1CEA135594EA0C0FDE
:1068200095EA0C0F00F0A7F8A4EB050481EA030E2B
:1068300052EA03354FEA013100F088804FEA033312
:106840004FF0805545EA131343EA12634FEA0222E0
:1068500045EA111545EA10654FEA00260EF00041A1
:106860009D4208BF964244F1FD0404F5407402D2F3
:106870005B084FEA3202B61A65EB03055B084FEA84
:1068800032024FF480104FF4002CB6EB020E75EB81
:10689000030E22BFB61A754640EA0C005B084FEAA9
:1068A0003202B6EB020E75EB030E22BFB61A754626
:1068B00040EA5C005B084FEA3202B6EB020E75EB71
:1068C000030E22BFB61A754640EA9C005B084FEAE9
:1068D0003202B6EB020E75EB030E22BFB61A7546F6
:1068E00040EADC0055EA060E18D04FEA051545EAE5
:1068F00016754FEA06164FEAC30343EA52734FEA8E
:10690000C2025FEA1C1CC0D111F4801F0BD141EA06
:1069100000014FF000004FF0004CB6E711F4801F6B
:1069200004BF01430020B4F1FD0C88BFBCF5E06F4B
:106930003FF6AFAEB5EB030C04BFB6EB020C5FEA5B
:10694000500C50F1000041EB045170BD0EF0004EB0
:106950004EEA113114EB5C04C2BFD4EB0C0541EAE2
:10696000045170BD41F480114FF0000E013C90E6DF
:1069700045EA060E8DE60CEA135594EA0C0F08BFA3
:1069800095EA0C0F3FF43BAF94EA0C0F0AD150EAA2
:1069900001347FF434AF95EA0C0F7FF425AF104635
:1069A00019462CE795EA0C0F06D152EA03353FF45D
:1069B000FDAE1046194622E750EA410618BF52EADA
:1069C00043067FF4C5AE50EA41047FF40DAF52EAAE
:1069D00043057FF4EBAE12E74FEA4102B2F1E04328
:1069E00024BFB3F5001CDCF1FE5C0DD901F0004CB6
:1069F0004FEAC0024CEA5070B2F1004F40EB830006
:106A000008BF20F00100704711F0804F21D113F131
:106A10003872BCBF01F00040704741F480114FEA6A
:106A20005252C2F11802C2F1200C10FA0CF320FAF3
:106A300002F018BF40F001004FEAC1234FEAD32310
:106A400003FA0CFC40EA0C0023FA02F34FEA43037A
:106A5000CCE77FEA625307D150EA01331EBF4FF003
:106A6000FE4040F44000704701F0004040F0FE401E
:106A700040F40000704700BF10B5054C13462CB120
:106A80000A4601460220AFF3008010BD204610BD2B
:106A90000000000010B5431E0A44914204D011F8D2
:106AA000014B03F8014FF8E710BD0244034693423F
:106AB00002D003F8011BFAE77047000038B5124B0B
:106AC0001C68A36B0546D3B91820FEF76BFB43F295
:106AD0000E33A06303804AF6CD33438041F2342362
:106AE00083804EF26D63C3804DF6EC630381052312
:106AF00043810B23838101220023C0E90423A36B7C
:106B000000221D615A6138BD94E30320034613F847
:106B1000012B002AFBD1181A0138704721400D00C3
:106B20005D400D0089400D008D400D00000000000B
:106B300020202048656C6C6F0A202020576F726CF3
:106B400064002020202052504D200A0A20202536A3
:106B50002E3266200A0052504D203D2025302E3224
:106B600066200A000000000000000000C9400D007F
:106B700055420D00B94C0D004D540D0085450D00DA
:106B8000B9490D000D440D0099420D00794A0D00E0
:106B90000F4B0D00474B0D00634B0D000000000034
:106BA000000000000000000000000000B94C0D00D3
:106BB0004D540D00A5400D00B9490D00D94A0D00F6
:106BC000F54A0D00794A0D000F4B0D00474B0D00A3
:106BD000634B0D0000000000003E5B4F5B3E3E6BD0
:106BE0004F6B3E1C3E7C3E1C183C7E3C181C577D67
:106BF000571C1C5E7F5E1C00183C1800FFE7C3E7B3
:106C0000FF0018241800FFE7DBE7FF30483A060EC4
:106C10002629792926407F050507407F05253F5A0B
:106C20003CE73C5A7F3E1C1C08081C1C3E7F14227B
:106C30007F22145F5F005F5F06097F017F00668926
:106C4000956A606060606094A2FFA29408047E046C
:106C50000810207E201008082A1C08081C2A080892
:106C60001E101010100C1E0C1E0C30383E38300652
:106C70000E3E0E06000000000000005F000000074E
:106C8000000700147F147F14242A7F2A122313087C
:106C9000646236495620500008070300001C224158
:106CA000000041221C002A1C7F1C2A08083E0808FC
:106CB00000807030000808080808000060600020AC
:106CC000100804023E5149453E00427F400072498F
:106CD0004949462141494D331814127F1027454533
:106CE00045393C4A49493141211109073649494949
:106CF00036464949291E00001400000040340000B7
:106D0000000814224114141414140041221408021F
:106D1000015909063E415D594E7C1211127C7F4992
:106D20004949363E414141227F4141413E7F4949E7
:106D300049417F090909013E414151737F08080813
:106D40007F00417F41002040413F017F08142241E4
:106D50007F404040407F021C027F7F0408107F3E3E
:106D60004141413E7F090909063E4151215E7F09AB
:106D7000192946264949493203017F01033F404012
:106D8000403F1F2040201F3F4038403F63140814FD
:106D90006303047804036159494D43007F41414135
:106DA0000204081020004141417F04020102044016
:106DB00040404040000307080020545478407F289A
:106DC0004444383844444428384444287F38545490
:106DD000541800087E090218A4A49C787F080404B3
:106DE0007800447D40002040403D007F1028440052
:106DF00000417F40007C047804787C0804047838E3
:106E000044444438FC1824241818242418FC7C0812
:106E1000040408485454542404043F44243C40408F
:106E2000207C1C2040201C3C4030403C4428102842
:106E3000444C9090907C4464544C4400083641008B
:106E40000000770000004136080002010204023C05
:106E50002623263C1EA1A161123A4040207A3854D4
:106E6000545559215555794121545478412155544F
:106E7000784020545579400C1E52721239555555A0
:106E800059395454545939555454580000457C418B
:106E90000002457D420001457C40F0292429F0F0A4
:106EA000282528F07C545545002054547C547C0AF5
:106EB000097F4932494949323248484832324A48C2
:106EC00048303A4141217A3A42402078009DA0A0C2
:106ED0007D39444444393D4040403D3C24FF242416
:106EE000487E4943662B2FFC2F2BFF0929F620C033
:106EF000887E090320545479410000447D41304884
:106F0000484A32384040227A007A0A0A727D0D19C6
:106F1000317D2629292F28262929292630484D4028
:106F200020380808080808080808382F10C8ACBA24
:106F30002F102834FA00007B000008142A142222A3
:106F4000142A1408AA005500AAAA55AA55AA000096
:106F500000FF00101010FF00141414FF001010FFA9
:106F600000FF1010F010F0141414FC001414F700BB
:106F7000FF0000FF00FF1414F404FC141417101F8A
:106F800010101F101F1414141F00101010F0000018
:106F900000001F101010101F10101010F010000033
:106FA00000FF101010101010101010FF1000000043
:106FB000FF140000FF00FF00001F10170000FC047A
:106FC000F414141710171414F404F40000FF00F75D
:106FD00014141414141414F700F7141414171410C0
:106FE000101F101F141414F4141010F010F00000EF
:106FF0001F101F0000001F14000000FC140000F010
:1070000010F01010FF10FF141414FF141010101FB4
:1070100000000000F010FFFFFFFFFFF0F0F0F0F0C5
:10702000FFFFFF0000000000FFFF0F0F0F0F0F38E2
:10703000444438447C2A2A3E147E02020606027E1C
:10704000027E0263554941633844443C04407E203B
:107050001E2006027E020299A5E7A5991C2A492A4C
:107060001C4C7201724C304A4D4D303048784830DB
:10707000BC625A463D3E494949007E0101017E2AD3
:107080002A2A2A2A44445F444440514A4440404406
:107090004A51400000FF0103E080FF000008086B38
:1070A0006B083612362436060F090F060000181832
:1070B0000000001010003040FF0101001F01011E00
:1070C00000191D1712003C3C3C3C00000000000071
:1070D000000000000000000033520D0029520D0096
:1070E0001F520D0015520D0009520D00FD510D00EB
:1070F000F1510D00E9510D00DF510D00D5510D008A
:10710000E55C0D00000810182028303862617564B5
:107110000053657269616C0053657269616C31007E
:107120007479706500706172616D00636D640069EF
:107130006400686E64007374726D0066696C74003C
:107140006C766C0061646448616E646C6572007298
:10715000656D6F766548616E646C657200656E750D
:107160006D48616E646C657273004A534F4E537480
:107170007265616D4C6F6748616E646C6572006129
:10718000707000253031307520005D2000256400CE
:107190002C200028293A2000205B00636F646520C2
:1071A0003D200025690064657461696C73203D2091
:1071B000000D0A0066006C6E00666E00636F646509
:1071C0000064657461696C006E6F6E650074726155
:1071D000636500696E666F007761726E006572723A
:1071E0006F720070616E696300616C6C005A0025FB
:1071F0002B3033643A253032750025592D256D2DFD
:1072000025645425483A254D3A2553257A00617363
:107210006374696D6500000000000000000000005C
:10722000F1560D00E1560D00E3560D000000000080
:1072300000000000C9570D0019580D0027580D0017
:107240004D540D0005580D00CB570D00E1570D00B2
:1072500013580D00F7570D00C5570D000000000032
:1072600000000000D5580D0025590D0033590D00C0
:107270004D540D00E9580D000B590D00F7580D0045
:107280001F590D00D7580D00DB580D0000000000FD
:1072900000000000D9590D00235A0D00FB590D00C4
:1072A000DB590D00035A0D000B5A0D00135A0D0047
:1072B0001B5A0D000000000000000000E35A0D0002
:1072C000D95A0D00CF5A0D00C55A0D00B95A0D00FC
:1072D000AD5A0D00A15A0D00995A0D008F5A0D009C
:1072E000855A0D00E55C0D00000000000000000064
:1072F0005F5C0D00555C0D004B5C0D00015C0D00EA
:107300003F5C0D00335C0D00275C0D001F5C0D0021
:10731000155C0D000B5C0D00E55C0D00000000002D
:10732000000000007D5C0D00875C0D00915C0D008D
:107330009B5C0D00A55C0D00B15C0D00BD5C0D00FB
:10734000C95C0D00D15C0D00DB5C0D00E55C0D003F
:10735000000000000000000000000000000000002D
:10736000000000000000000000000000000000001D
:10737000000000000000000000000000000000000D
:1073800000000000000000000000000000000000FD
:1073900000000000000000000000000000000000ED
:1073A00000000000000000000000000000000000DD
:1073B000000000004300000065420D00B5490D00CB
:1073C000494D0D003D520D00E1530D0025540D00B7
:1073D0006D550D007D550D00B5550D00B15B0D00CF
:1073E000695C0D00B15D0D00B55F0D0039600D00E9
:1073F000FD600D00C1610D000000000000000000F4
:047400000000000088
:1074040001000103070F1F3F7F0080C0E0F0F8FC7C
:10741400FE0000000000000000000000000000006A
:107424000000000000000000000000000000000058
:107434000000000000000000000000000000000048
:107444000000000000000000000000000000000038
:1074540080808000000000000000000000000000A8
:1074640000008080C0C00000000000000000000098
:107474000000000000000000000000000000000008
:1074840000000000000000000000000000000000F8
:1074940000000000000000000000000000000000E8
:1074A400000000000080C0E0F0F8FCF8E0000000FC
:1074B40000000000000000000000000000008080C8
:1074C40080808000808000000000808080808000B8
:1074D400FFFFFF00000000808080800000808000AB
:1074E4000080FFFF8080008080008080808000809A
:1074F400800000000000808000008C8E84000080EA
:10750400F8F8F8800000000000000000000000000F
:1075140000F0F0F0F0F0F0F0F0F0F0F0F0E0E0C0A7
:107524008000E0FCFEFFFFFF7FFFFFFFFFFF000086
:10753400000000000000000000000000FEFFC70182
:1075440001010183FFFF00007CFEC70101010183EB
:10755400FFFFFF0038FEC78301010183C7FFFF005F
:107564000001FFFF010100FFFF0701010100007F8F
:10757400FF80000000FFFF7F0000FFFFFF0000010D
:10758400FFFFFF01000000000000000000000000F9
:1075940000030F3F7F7FFFFFFFFFFFFFFFE7C7C72A
:1075A4008F8F9FBFFFFFC3C0F0FFFFFFFFFFFCFCF7
:1075B400FCFCFCFCFCFCF8F8F0F0E0C00001030368
:1075C4000303030103030000000001030303030199
:1075D400010301000000010303030301010303008D
:1075E400000003030000000303000000000000008B
:1075F4000103030303030100000001030100000071
:10760400030301000000000000000000000000006F
:107614000000000080C0E0F0F9FFFFFFFFFF3F1F04
:107624000F87C7F7FFFF1F1F3DFCF8F8F8F87C7DB4
:10763400FFFFFFFFFFFFFFFF7F3F0F07003030001A
:107644000000000000000000000000000000000036
:107654000000000000FEFEFC00000000000000002E
:107664000000000000000000000000000000E0C076
:1076740000000000000000000000003030000000A6
:1076840000000000000000000000000000000000F6
:107694000000C0FEFFFFFFFFFFFFFFFFFF7F7F3FF4
:1076A4001F0F071F7FFFFFF8F8FFFFFFFFFFFEF824
:1076B400E0000000010000000000000000FEFE00E9
:1076C4000000FCFEFC0C06060EFCF80000F0F81CA2
:1076D4000E0606060CFFFFFF0000FEFE0000000081
:1076E400FCFEFC00183C7E66E6CE84000006FFFF2C
:1076F4000606FCFEFC0C0606060000FEFE0000C0AA
:10770400F8FC4E4646464E7C7840183C76E6CECC95
:1077140080000000000000000000000000000000E5
:10772400000000000001070F1F1F3F3F3F3F1F0FD6
:10773400030000000000000000000000000F0F0024
:1077440000000F0F0F000000000F0F000003070ED2
:107754000C18180C060F0F0F0000010F0E0C180C5C
:107764000F070100040E0C180C0F070000000F0F88
:1077740000000F0F0F0000000000000F0F000000BA
:1077840007070C0C181C0C060600040E0C180C0F32
:1077940007000000000000000000000000000000DE
:1077A40000000000000000000000000000000000D5
:1077B40000000000000000000000000000000000C5
:1077C40000000000000000000000000000000000B5
:1077D40000000000000000000000000000000000A5
:1077E4000000000000000000000000000000000095
:1077F4000000000000000000000000000000000085
:107804000000000000000000000000000000000074
:10781400000000000E720D000000000054730D0003
:1078240074730D0094730D0000000000000000004C
:107834000000000000000000B4730D000000000010
:107844000000000000000000000000000000000034
:107854000000000000000000000000000000000024
:107864000000000000000000000000000000000014
:0C787400000000000000000034E30320CE
:10788000FFFFFFFF00000102030405060708090AC5
:107890000B0C0D0E0F101112131415161718191AC0
:0878A0001B1C1D1E1F20280007
:0478A80078563412C8
:04000003D0004020C9
:00000001FF
