:02000002D0002C
:1040000000400D0078830D00000006000C00050143
:084010000401E80500000000B6
:0440180028720D00FD
:10401C0009480A49884208B505D0094A824202D0AB
:10402C00121A03F081F80748074A0021121A03F00C
:10403C00A1F8014808BD00BF24DE0320D47E0D008A
:10404C00A0E20320A0E20320F0E7032070B501F00A
:10405C0089FF074C074BE41AA40800251E46A5420D
:10406C0004D056F8253098470135F8E770BD00BFED
:10407C00D07E0D00887E0D0000F0FCB808B500F075
:10408C0027F9BDE8084001F02FBF01F0A3BC01F0F7
:10409C00A9BC01F0A7BC000008B5034A00210C2004
:1040AC0001F00CFCFEE700BF39560D000078B0FAA9
:1040BC0080F04009704701230370704770477047C8
:1040CC0038B584690A4B036005467CB16368013BD3
:1040DC0063605BB9236820469B689847A368013BE3
:1040EC00A3601BB923682046DB689847284638BD77
:1040FC005C7D0D0010B50446FFF7E2FF20461C2145
:10410C0002F094FE204610BD38B51E4D1E4C02F038
:10411C003FF82B681D4A002101F05BFE204600F0A1
:10412C006BFB002211462046012300F005FB2046C4
:10413C00012300227F2100F0FFFA204601233F22B9
:10414C00002100F0F9FA01233F2220467F2100F0E4
:10415C00F3FA2046022100F0C1FE2046012100F0B6
:10416C00C2FE20460A22002100F0B5FE2B68084A48
:10417C002046002101F02DFE2046BDE8384000F01D
:10418C0075BC00BFC0E20320A8E303203C720D0005
:10419C0059720D0010B5194C204600F02DFB002271
:1041AC0011462046012300F0C7FA204601230022C5
:1041BC007F2100F0C1FA204601233F22002100F0AC
:1041CC00BBFA01233F2220467F2100F0B5FA20469E
:1041DC00012100F083FE2046012100F084FE2046E0
:1041EC001E221B2100F077FE2046054901F0B4FD8C
:1041FC002046BDE8104000F039BC00BFA8E3032006
:10420C006C720D0038B5174800F07AFE40BB01F017
:10421C00BFFF154901F0A0FD124801F0F6F8044665
:10422C00B8B101F0B5FF214605460E4800F0A2FFDB
:10423C000146284601F0A3FD01F0AAFF0B4901F04D
:10424C009EFD084800F0A4FF41F2883001F00EFEFC
:10425C00E2E701F09DFF0649BDE8384001F08FBD53
:10426C0038BD00BFD4E203207A720D0091720D00AC
:10427C00BA720D0010B5124C01F08AFF4FF41651B2
:10428C0001F07AFF3C220221204600F01DFB204663
:10429C0000F0B2FA204600F0E9FBFFF77BFF094B78
:1042AC000021188802F010FD074B084A1A60FFF72E
:1042BC00A9FF41F28830BDE8104001F0D7BD00BF26
:1042CC00A8E3032024DE0320CCE3032040D8F6FF30
:1042DC0038B501F0B3F9244B1A68801A234A90427E
:1042EC001C4617D901F054FF214A002101F071FD41
:1042FC000121204800F060FF054640B901F048FF5D
:10430C001D4A294601F065FD1A4800F041FF01F0F5
:10431C0095F9206001F092F9184B1A68801A184A26
:10432C0090421C461BD9FFF76DFF164B164D188893
:10433C0002F0F4FC2860FFF7E7FE0E4800F05EFE8A
:10434C0050B101F025FF00212B68104A01F041FD0E
:10435C0029680F4801F0C6F801F070F920600120BF
:10436C00BDE8384001F082BDD0E20320C0D401008A
:10437C00CA720D00D4E20320D9720D00CCE30320E5
:10438C00C027090024DE0320C0E20320E9720D00DF
:10439C00C4E2032010B52421044602F047FD204658
:1043AC0010BD10B5D421044602F040FD204610BDCE
:1043BC0073B5194C194D1A4E01F0A8F84FF0FF3196
:1043CC00204600F003FA2A461649204602F020FD4A
:1043DC00304602F043FB144C14492A46304602F096
:1043EC0017FD134B009340F25B72124B124920469F
:1043FC0000F03AFE114B124923602A462046C4F8BD
:10440C00D06002F005FD0F4A0F480023214602B090
:10441C00BDE8704001F052B8A8E30320A0E20320ED
:10442C00A4E20320C9400D00D4E20320CD400D00CE
:10443C001F730D0008730D000F730D00D4780D0061
:10444C00CB400D0040730D00C4E20320F0B5447E58
:10445C00BDF81450022C08D0032C0FD0012C70D1B5
:10446C000489013CA21A12B20CE04489013CA21A44
:10447C000489E41A611A12B209B262E04489E41A9E
:10448C00611A09B2002A5BDBB0F90840944240F390
:10449C0090800029BEBF5B181BB20021B0F90A0046
:1044AC00CC188442C4BF431A1BB2002B40F381804A
:1044BC00C9B2C8083F4F02EBC01211F00701DBB2C2
:1044CC0007EB020417D0C1F10801C8B23A49834284
:1044DC000E5C3FBFC3EB000EFF2141FA0EF10E4004
:1044EC00B95C012D0CBF3143B1438342B95460D345
:1044FC00181AC3B28034072B17D9012D0CBFFF201B
:10450C00002004F180011A46083AD2B2072A01F8B9
:10451C00800C01F18001F7D8A3F10802C2F3C402A8
:10452C00013204EBC21403F00703002B41D0234AE1
:10453C00D25C2378012D0CBF134393432370F0BD41
:10454C00F0BD002A35DBB0F90A40944231DD002978
:10455C00BCBFC9180BB2B0F90870B8BF0021CE1897
:10456C00BE42C4BF631A1BB2002B22DDD01001EB7C
:10457C00C011104802F007020144012000FA02F2B7
:10458C008542D2B209D1013B1BB25C1C11D011F88F
:10459C00010B104301F8010CF5E7D243D2B2013BF9
:1045AC001BB2581C05D011F8010B104001F8010C7E
:1045BC00F5E7F0BD38DE032030DE032028DE0320D3
:1045CC00F0B5447EBDF81450022C08D0032C0FD04B
:1045DC00012C12D10489E41AA21A12B26DE00489DA
:1045EC00013C611A4489E41AA21A09B212B204E01D
:1045FC004489013C611A09B25FE000295CDBB0F927
:10460C0008408C4240F39180002ABCBFD21813B2F0
:10461C00B0F90A00B8BF0022D4188442C4BF831A70
:10462C001BB2002B40F38180D4B2404EDAB2E308C7
:10463C0001EBC31114F0070406EB010317D0C4F10E
:10464C000804E0B23A4C8242275C3FBFC2EB000E3A
:10465C00FF2444FA0EF42740745C012D0CBF3C433C
:10466C00BC438242745460D3101AC2B28033072AFE
:10467C0017D9012D0CBFFF24002403F18000114633
:10468C000839C9B2072900F8804C00F18000F7D82E
:10469C00A2F10801C1F3C401013103EBC11302F013
:1046AC000702002A41D02349895C1A78012D0CBFDE
:1046BC000A438A431A70F0BDF0BD002935DBB0F90E
:1046CC000A408C4231DD002ABCBFD21813B2B0F9BB
:1046DC000870B8BF0022D618BE42C4BFA31A1BB2C2
:1046EC00002B22DDC81002EBC012104801F00701AC
:1046FC001044012202FA01F19542C9B209D15A1EA5
:10470C0013B25C1C11D010F8012B0A4300F8012CD9
:10471C00F5E7C943C9B25A1E13B25A1C05D010F89A
:10472C00012B0A4000F8012CF5E7F0BD38DE032020
:10473C0030DE032028DE0320F8B50D1E0646144695
:10474C001F463FDB00F0D4FB85423BDA002C39DB03
:10475C00304600F0D0FB844234DA304600F0C6FB21
:10476C00022827D13189708901390138491B001B76
:10477C000DB204B206E0012804D13389013B1B1BA6
:10478C002C461DB20820012F94FBF0F000B20E4B0A
:10479C0004F0070205EBC01104D197405A5C174393
:1047AC005F54F8BD585C012707FA02F220EA0202B6
:1047BC005A54F8BD0328DED17389013B5B1B254697
:1047CC001CB2DFE7F8BD00BF38DE032038B540224D
:1047DC0004460D46802100F09FFA064B2360FF2310
:1047EC00637784F82130E377A37784F82050204650
:1047FC0038BD00BF68730D004FF480620021014882
:10480C0002F0B8BC38DE032038B5094D296811F028
:10481C0001040AD12846FFF749FC30B1214605486E
:10482C0001F03CF92846FFF746FC024838BD00BFB2
:10483C00D0E30320D4E3032038B590F91D300133C5
:10484C0004460D4628D090F92100012180B202F0D7
:10485C004CFA94F91F00002180B202F046FA94F948
:10486C002100002180B202F040FA94F822302BB1E2
:10487C00FFF7CAFF294601F0BBF905E02B460122E0
:10488C00A17F607F02F061FA94F92100012180B2CE
:10489C00BDE8384002F029BA02F094FA94F91B10E2
:1048AC0001F066FD02F08EFA036800219B689847C0
:1048BC0002F088FA036829469B68984702F082FA4E
:1048CC00BDE8384001F05BBD38B504460D46217794
:1048DC0090F91D30C276013337D090F91F000121B9
:1048EC0080B202F0F1F994F92100012180B202F0BA
:1048FC00EBF994F822305BB994F91D00012180B2D8
:10490C0002F0E2F994F91E00012180B202F0DCF908
:10491C0094F82230EBB194F92100012180B202F01D
:10492C00E4F9FFF771FF012101F0D3F8FFF76CFFF9
:10493C00102101F039F9FFF767FF002101F0DAF8D7
:10494C00FFF762FF01F0B4F803E002F03BFA01F06C
:10495C0005FD94F92000012180B202F0B5F994F91B
:10496C002000012180B202F0C0F9012001F07EFA92
:10497C0094F92000002180B202F0B7F90A2001F06E
:10498C0075FA94F92000012180B202F0AEF92046AC
:10499C00AE21FFF751FF2046D521FFF74DFF2046F2
:1049AC008021FFF749FF2046A821FFF745FF20464D
:1049BC003F21FFF741FF2046D321FFF73DFF204663
:1049CC000021FFF739FF20464021FFF735FF8D21ED
:1049DC002046FFF731FF012D0CBF1021142120467A
:1049EC00FFF72AFF20462021FFF726FF2046002153
:1049FC00FFF722FF2046A121FFF71EFF2046C8210A
:104A0C00FFF71AFF2046DA21FFF716FF2046122186
:104A1C00FFF712FF81212046FFF70EFF012D0CBF7F
:104A2C009F21CF212046FFF707FFD9212046FFF712
:104A3C0003FF012D0CBF2221F1212046FFF7FCFEC4
:104A4C002046DB21FFF7F8FE20464021FFF7F4FE5D
:104A5C002046A421FFF7F0FE2046A621FFF7ECFE2E
:104A6C002046AF21BDE83840FFF7E6BE2DE9F04106
:104A7C0021210446FFF7E0FE00212046FFF7DCFE73
:104A8C007F212046FFF7D8FE22212046FFF7D4FED7
:104A9C0000212046FFF7D0FE07212046FFF7CCFE71
:104AAC0094F91D30DFF8BC80013335D094F9210026
:104ABC00012180B202F019F994F91F00012180B292
:104ACC0002F013F994F92100002180B202F00DF9E3
:104ADC00012000F0ABFD002594F8223018F8056099
:104AEC002BB1FFF791FE314601F082F805E0334619
:104AFC000122A17F607F02F028F90135B5F5806FA6
:104B0C00EAD1012000F092FD94F92100012180B23C
:104B1C00BDE8F04102F0E9B8002502F053F994F930
:104B2C001B1001F025FC02F04DF9036840219B6835
:104B3C009847002602F046F9AF190368BFB29B688C
:104B4C0018F8071001369847102EF3D1103502F0E3
:104B5C0039F9ADB201F013FCB5F5806FDDD1BDE8CC
:104B6C00F08100BF38DE032000F0D0BC2DE9F04FFF
:104B7C0085B01E46BDF93830BDF83CA015469A1AD2
:104B8C00002AB8BF52420092721A002AB8BF524291
:104B9C0001920C46009A01998A42814605DD324603
:104BAC001E46134622462C461546B44205DD2A46BF
:104BBC001D4613462246344616465A1B002AB8BFD9
:104BCC005242C4EB06089D42B4BF01234FF0FF33A1
:104BDC001FFA88F8029303920FFA88F7022297FBC8
:104BEC00F2F7B4421FDC019A009B9342D9F80030D3
:104BFC00C8BF2246D3F810B0C8BF29465346DCBF05
:104C0C002A4621464846D847039BFF1ABBB21FB21F
:104C1C00002F05DA029A08EB030715442DB23FB2B8
:104C2C00013424B2DDE705B0BDE8F08F2DE9F34780
:104C3C00BDF82C600768BDF928A000960446FF69F2
:104C4C0091460D469846B847236800960AF1FF3204
:104C5C004A44DF6929464346204612B2B8472368C6
:104C6C0000969F694A46534629462046B847236812
:104C7C000A9608F1FF3129449D694A46534609B208
:104C8C002046AC4602B0BDE8F047604737B5013B63
:104C9C0013440468BDF8185001951BB20093646965
:104CAC000B46A04703B030BD37B5BDF818500468AB
:104CBC008DE82400013B0B4464691BB2A04703B090
:104CCC0030BD2DE9F347BDF92880BDF82C90054681
:104CDC0017460C4601EB030A54450BDA2B68CDF84A
:104CEC0000909E69214643463A4628460134B04717
:104CFC0024B2F1E702B0BDE8F08713B5B0F90E208D
:104D0C000468019100920022B0F90C30646A1146DB
:104D1C00A04702B010BD704730B501810024084D8A
:104D2C0042818181C2814FF6FF710122446005608E
:104D3C004476048244820276C1828182827630BDBE
:104D4C00A0730D002DE9F04F8FB005460691BDF80C
:104D5C0060100791BDF864100891B0F90C1006981A
:104D6C009DF8688081427CDDB5F90E10914278DDAA
:104D7C00062111FB0800002873DD02EBC800002897
:104D8C006FDD03EB830396B20C9306F108039BB221
:104D9C00099100240D93052C1CBF334B0C9A0596DE
:104DAC0016BF1B194FF0000913F8029004961FFA56
:104DBC0088F30393039ABDF8183004FB023213FAFC
:104DCC0084F312B21BB20A9237460FFA88FA0B938D
:104DDC0019F0010F11D0B8F1010F2B6803D1D3F8E2
:104DEC0010B0079B14E0079A0192CDF800A0D3F8FD
:104DFC0024B0BDF91020534618E0079B089A934243
:104E0C0017D0B8F1010F2B6807D1D3F810B01346A7
:104E1C003AB20B992846D8470BE0089A0192CDF884
:104E2C0000A0BDF91420D3F824B053460A992846A3
:104E3C00D847049B039A13449BB20493059B1344D9
:104E4C009BB2013705930D9BBFB29F424FEA5909A4
:104E5C00BED1099B013B013413F0FF0364B20993EB
:104E6C0099D10FB0BDE8F08FD0730D0030B50A2981
:104E7C0085B004460B4604D1027E438A03EBC20381
:104E8C0023E00D2924D0057EB0F91220B0F91010C2
:104E9C000295C58A0195858A0095FFF753FF227EFE
:104EAC00238A91B201EB410003EB4003A07E1BB2BD
:104EBC00238268B1B4F90C006FF0050505FB020202
:104ECC00934205DD638A03EBC103638200232382D3
:104EDC00012005B030BD018242827047002908BF15
:104EEC00012101767047C18281827047407E7047F4
:104EFC00B0F90C007047B0F90E00704700F006BB1B
:104F0C0008B5D0F8D00003681B6B9847003018BF69
:104F1C00012008BDF8B506460F461446C4B1D6F8B4
:104F2C00D00003681B6B984708B90020F8BDD6F871
:104F3C00D000FA2C03682546A8BFFA25DB682A4660
:104F4C003946984780B2241A8542A4B2E6D0ECE7E1
:104F5C000120F8BD2DE9F8430646884691461F46C8
:104F6C001D460024D6F8D00003681B6B9847D0B1BF
:104F7C00002D18DBD6F8D00003681B69984760B188
:104F8C00D6F8D00003685B69984708F80400013430
:104F9C00A4B24C4507D03D46ECE70A3D0A202DB2A1
:104FAC0000F064FFDEE72046BDE8F88370B50446E8
:104FBC0000F1220596220021284602F0DBF86168F8
:104FCC00284602F007F9D4F8D00022890368294654
:104FDC005E6A0023B047003018BF012070BD10B5C9
:104FEC000446D0F8D00003681B6B984720B1D4F866
:104FFC00D0000368DB6A9847012010BD70B50368C8
:10500C009B6804469847C8B9204600F0FEF9042571
:10501C0070B1013D15F0FF050AD0204600F0B8F83C
:10502C0041F2883000F022FF204600F0EEF9EFE765
:10503C00236820469B68BDE87040184770BD00F09F
:10504C0065BA70B5044608460E4602F0CBF803125A
:10505C002370607085B202342A463146204602F035
:10506C00C9F8601970BD000030B50361039B0D4D8C
:10507C00028143610C4A056000234160C260C0F8A4
:10508C00BC30C0F8C030C0F8C430C0F8C830C0F86C
:10509C00CC308361C36180F8203080F82130A0F8D7
:1050AC00B83030BDF8780D0049790D002DE9F74F77
:1050BC000FFA83FA036801929D6901225346064652
:1050CC000C46A847C0B2012801D0002034E0651C72
:1050DC0004F1050B80464FF0000933689B690122EF
:1050EC001F46294653463046B847C0B20128ECD17A
:1050FC0015F8013B03F07F025D4502FB08994FEA6E
:10510C00C818E2D01B06E8D4019B2C1B1B1B013BCF
:10511C009945336806D9019A9F69013A121B534687
:10512C0092B203E09F691FFA89F253462946304632
:10513C00B847C0B2204480B203B0BDE8F08F000085
:10514C00F8B505460C4616461F463B4696222146A8
:10515C002846FFF7ABFF48B12378B6EB131F05D0F9
:10516C0001F016F8024900F00AFEEEE7F8BD00BFA8
:10517C004A790D000231C9B209299ABF024B53F882
:10518C0021000248704700BF14790D005B790D00B7
:10519C0010B5E02380F82230002380F82330036818
:1051AC0004465B69022200F12201984723682046DD
:1051BC001B69BDE8104018472DE9F84304460D461D
:1051CC004FF000084FF0C00900F12207D5B1236859
:1051DC0084F8229084F823805B69022239462046A9
:1051EC009847064610B9013DEDB2EFE74FF4FA735C
:1051FC000D2239462046FFF7A3FF94F82230D02B1E
:10520C00F1D100E02E463046BDE8F88338B50446AF
:10521C000846102300F8023B0D462949FFF711FF01
:10522C000423037002234370A369ABB11B789BB1B9
:10523C000623437094F82030012B01D10E2302E099
:10524C00022B01D11E23437094F82130012B02BF95
:10525C00437843F02003437023691B781BB14378D8
:10526C0063F07F03437063691B781BB1437843F091
:10527C0040034370012383702C23C370E1680B78C7
:10528C001BB10430FFF7DDFE02E003714371063001
:10529C00A16931B10B7823B1FFF7D3FEE169FFF7B8
:1052AC00D0FE21690B780BB1FFF7CBFE61690B784F
:1052BC000BB1FFF7C6FE401BC0B2831E6B7038BD2E
:1052CC0069790D002DE9F843054610460E469146C6
:1052DC001F4601F087FF9DF82480BDF8204080B266
:1052EC00B8F1000F01D1831C00E0031D4FEA480206
:1052FC0030469BB242F03002234400F8012B9BB2A3
:10530C0003F07F02DB0918BF42F0800200F8012B8A
:10531C00002BF5D14946FFF794FE0346B8F1000F78
:10532C000CD0B5F8B820120A0270B5F8B82042704B
:10533C00B5F8B82001320233A5F8B8202246394618
:10534C00184601F0FCFE2044801B80B2BDE8F883B7
:10535C0073B59DF8186000F1220504468DE84800ED
:10536C0013460A462946FFF7ADFF236802465B69E0
:10537C0029462046984708B9002017E0B6B14FF4EB
:10538C00FA73962229462046FFF790FE0428F3D1A3
:10539C0094F822301B11042BEED1A38CB4F8B80076
:1053AC005BBA01339BB2C31A5842584102B070BD6C
:1053BC00F7B5054610461F460E46144601F012FF7F
:1053CC00009783B2224631462846FFF7C1FF03B04F
:1053DC00F0BD38B51D4682230B700C46B0F8B810E2
:1053EC00090AA170B0F8B830E370B0F8B810013108
:1053FC00A0F8B8101146201DFFF723FE00F8015B42
:10540C00001BC0B2831E637038BD2DE9F0410368E8
:10541C00DB680446984718B94FF0FF30BDE8F081BF
:10542C0004F1220529462046FFF7F0FE236882B2DC
:10543C005B692946204698470028EDD041F27073ED
:10544C00962229462046FFF731FEC0B20428E3D14C
:10545C00638CB3F5087FDFD194F8250010B140B20E
:10546C00BDE8F08104F1B80704F1CC0857F8043F0B
:10547C00FBB103263A682946137912682046FFF7D8
:10548C00A8FF236882B25B6929462046984700280A
:10549C00C2D04FF4FA73092229462046FFF750FE7A
:1054AC0038B9013E16F0FF06E4D16FF00100BDE8FB
:1054BC00F0814745DAD10020BDE8F08110B580E8D5
:1054CC000600037210BD1FB504460A22084601A946
:1054DC0000F0C0FB237A01AA94E80300FFF768FFF1
:1054EC0004B010BDFFF7EFBF00F010B808B5024BC9
:1054FC001B689B68019308BD6802030008B5024B4A
:10550C001B68DB68019308BD6802030008B5024BF9
:10551C001B681B68019308BD2C02030008B5024BE5
:10552C001B685B68019308BD2C02030008B5024B95
:10553C001B689B68019308BD2C02030008B5024B45
:10554C001B68DB68019308BD2C02030008B5024BF5
:10555C001B681B69019308BD2C02030008B5024BA4
:10556C001B681B6B019308BD2C02030008B5024B92
:10557C001B681B68019308BD3002030008B5024B81
:10558C001B689B68019308BD3002030008B5024BF1
:10559C001B68DB68019308BD3002030008B5024BA1
:1055AC001B681B69019308BD3002030008B5024B50
:1055BC001B685B69019308BD3002030008B5024B00
:1055CC001B68DB69019308BD3002030008B5024B70
:1055DC001B681B6A019308BD3002030008B5024B1F
:1055EC001B685B6A019308BD3002030008B5024BCF
:1055FC001B681B6C019308BD3002030008B5024BFD
:10560C001B685B6C019308BD3002030008B5024BAC
:10561C001B685B69019308BD6C02030008B5024B63
:10562C001B685B68019308BD1802030008B5024BA8
:10563C001B68DB68019308BD1802030008B5024B18
:10564C001B685B69019308BD1802030008B5024B87
:10565C001B689B68019308BD4802030008B5024B08
:10566C001B681B69019308BD4802030008B5024B77
:10567C001B685B69019308BD4802030008B5024B27
:10568C001B685B6C019308BD4802030008B5024B14
:10569C001B689B6C019308BD4802030008B5024BC4
:1056AC001B685B69019308BD6402030008B5024BDB
:1056BC001B681B6A019308BD6402030008B5024B0A
:1056CC001B689B6A019308BD6402030008B5024B7A
:1056DC001B681B68019308BD3C02030008B5024B14
:1056EC001B68DB68019308BD3C02030008B5024B44
:1056FC001B681B69019308BD3C02030008B5024BF3
:10570C001B685B69019308BD3C02030008B5024BA2
:10571C001B689B69019308BD3C02030008B5024B52
:10572C001B68DB69019308BD3C02030008B5024B02
:10573C001B681B6A019308BD3C02030008B5024BB1
:10574C001B689B6A019308BD3C02030008B5024B21
:10575C001B68DB68019308BD2802030008B5024BE7
:10576C001B689B69019308BD2802030008B5024B16
:10577C001B68DB69019308BD2802030008B5024BC6
:10578C001B681B6A019308BD2802030008B5024B75
:10579C001B685B6A019308BD2802030008B5024B25
:1057AC001B689B6A019308BD2802030008B5024BD5
:1057BC001B68DB6A019308BD2802030008B5024B85
:1057CC001B681B6B019308BD2802030008B5024B34
:1057DC001B685B6B019308BD2802030008B5024BE4
:1057EC001B681B6C019308BD2802030008B5024B13
:1057FC001B689B69019308BD3802030008B5024B76
:10580C001B68DB69019308BD3802030008B5024B25
:10581C001B681B6A019308BD3802030008B5024BD4
:10582C001B689B6A019308BD3802030008B5024B44
:10583C001B681B6B019308BD3802030008B5024BB3
:10584C001B689B6B019308BD3802030008B5024B23
:10585C001B681B68019308BD4C02030008B5024B82
:10586C001B685B68019308BD4C02030008B5024B32
:10587C001B681B69019308BD4C02030008B5024B61
:10588C001B685B69019308BD4C02030008B5024B11
:10589C001B689B69019308BD4C02030008B5024BC1
:1058AC001B68DB69019308BD4C02030008B5024B71
:1058BC001B681B6A019308BD4C02030008B5024B20
:1058CC001B685B6B019308BD6002030008B5024BBB
:1058DC001B681B6D019308BD6002030008B5024BE9
:1058EC001B685B68019308BD2002030008B5024BDE
:1058FC001B685B69019308BD2002030008B5034BCC
:10590C001B68D3F88830019308BD00002002030007
:10591C0008B5034B1B68D3F89430019308BD000005
:10592C002002030008B5024B1B685B68019308BD9D
:10593C004002030008B5024B1B689B68019308BD2D
:10594C004002030008B5024B1B68DB68019308BDDD
:10595C004002030008B5024B1B681B69019308BD8C
:10596C004002030008B5024B1B685B69019308BD3C
:10597C004002030008B5024B1B689B69019308BDEC
:10598C004002030008B5024B1B68DB69019308BD9C
:10599C004002030008B5024B1B681B6A019308BD4B
:1059AC004002030008B5024B1B681B6B019308BD3A
:1059BC004002030008B5024B1B685B6B019308BDEA
:1059CC004002030008B5024B1B68DB6B019308BD5A
:1059DC004402030008B5024B1B681B68019308BD09
:1059EC001C02030008B5024B1B685B68019308BDE1
:1059FC001C02030008B5024B1B685B6A019308BDCF
:105A0C001C02030008B5024B1B68DB6B019308BD3D
:105A1C001C020300002211464068FFF7BBBF0022A6
:105A2C0011464068FFF7C6BF00224068FFF7BABFB7
:105A3C00002281F001014068FFF7A4BF00231A4641
:105A4C0019464068FFF796BF00231A46194640686E
:105A5C00FFF788BF002211464068FFF77BBF00228A
:105A6C0011464068FFF766BF002202214068FFF72D
:105A7C0069BF00231A464068FFF754BF024B03224C
:105A8C005A60024A1A607047DCE30320387B0D0031
:105A9C000021FFF7ABBD0021FFF7B0BD10B50446E8
:105AAC0001700846FFF78AFD00236360204610BD95
:105ABC0010B504460078FFF7EBFF48B920784FF695
:105ACC00FF71FFF753FD2078BDE81040FFF7E3BFEF
:105ADC0010BD38B5044600780D46FFF7D9FF40B924
:105AEC0020782946FFF74AFD2078BDE83840FFF7BB
:105AFC00D2BF38BD38B5044600780D46FFF7C8FF55
:105B0C0040B920782946FFF741FD2078BDE83840A0
:105B1C00FFF7C1BF38BD0000400830B51860002445
:105B2C0018688842E5B206D90134082C02D0400826
:105B3C001860F5E70725024B5B5D137030BD00BFA5
:105B4C00647B0D002DE9F04188B0002304460078F9
:105B5C0002930E461746FFF79BFF054600BB94F8D1
:105B6C0000800146142203A801F004FB0B232A46F3
:105B7C0003A94046ADF80C30FFF730FD02AB0DF138
:105B8C00070207FB06F104988DF80750FFF7C4FFD6
:105B9C0020789DF80710FFF701FD2078FFF77BFFB9
:105BAC00029808B0BDE8F08138B5044600780D467F
:105BBC00FFF76EFFC8B9616871B10C4BC25CAA42A9
:105BCC0002D001300828F9D10130C0B2C140012205
:105BDC002046FFF7B7FF03E029462078FFF7DEFCED
:105BEC002078BDE83840FFF756BF38BD647B0D0008
:105BFC0008B50078FFF7DAFCC0B208BD0078FFF7F3
:105C0C00E5BC10B50446006818B1FFF7EBFE0023A5
:105C1C00236010BD10B50446FFF7F3FF204610BDFE
:105C2C0010B5094C00204FF6FF732060A080A071C6
:105C3C0020816381FFF752FE2046044A0449BDE8E7
:105C4C00104001F0E5B800BFE4E30320A0E203201C
:105C5C00215C0D002DE9F041931E232B15468CB0D1
:105C6C0034BF15460A2500230A2D0C468DF82C301E
:105C7C0007D1984205DA2D2301F101080B7040423F
:105C8C0001E0B0B1A0460DF12B0601272A460146D2
:105C9C0001A801F035FA029B0198092BCCBF3722E1
:105CAC00302252FA83F306F8013901370028EDD17E
:105CBC0006E030238DF82B30A0460DF12A06022782
:105CCC003A46711C404601F02FFA20460CB0BDE854
:105CDC00F08110B50446006808B1FFF7D7FC2046E8
:105CEC0010BD000010B5064C002320462360FFF7C2
:105CFC00C5FC2046034A0449BDE8104001F088B8B1
:105D0C00F0E30320A0E20320DF5C0D00F8B50646AB
:105D1C000D468F180024BD420CD0336815F8011BBA
:105D2C009B6830469847002801DB0444F3E7002CBD
:105D3C0008BF04462046F8BD70B505460C4608461B
:105D4C0049B101F04FFA2B68024621462846DB6820
:105D5C00BDE87040184770BD08B5FFF7EDFF08BDF2
:105D6C0003689B68184738B50D210546FFF7F8FF07
:105D7C000A2104462846FFF7F3FF204438BD38B506
:105D8C000546FFF7D9FF04462846FFF7ECFF2044F1
:105D9C0038BD30B58BB00B4600218DF82410012A8C
:105DAC0098BF0A220DF12304B3FBF2F505FB123365
:105DBC0003F0FF03092B94BF30333733DBB221469A
:105DCC0004F801392B46002DEED1FFF7B5FF0BB0CF
:105DDC0030BD0CB42DE9F04387B000AF07F13804A7
:105DEC00054654F8049B3C600E4623464A46142153
:105DFC00381DFFF7FFFD132805D8391D2846FFF77E
:105E0C009BFF044613E000F1080323F00703E84668
:105E1C00ADEB030D411C23464A4668463C60FFF738
:105E2C00E9FD69462846FFF787FF0446C5461EB1C3
:105E3C002846FFF798FF044420461C37BD46BDE8B2
:105E4C00F04302B070470000014B024A1A607047E1
:105E5C00F4E30320DF7B0D00024B1A68024B1A603F
:105E6C00704700BF38E20320F8E303200021FFF75E
:105E7C003DBD10B58368044613B103220146984713
:105E8C00204610BD10B50446FFF7F3FF204610BDA9
:105E9C000348044A04490023836000F0B9BF00BFE3
:105EAC00FCE30320A0E20320915E0D0008B50C4B2F
:105EBC0033B100F06DF903681B699847002809DCC1
:105ECC00084B63B100F0E6F903681B69984700289A
:105EDC0003DC08BDAFF30080F2E7AFF3008008BD30
:105EEC00000000000000000008B5FFF7DFFFFFF71F
:105EFC00A5FB014B186008BD30E703200248034A9C
:105F0C000349121A01F010B900F4032004F4032021
:105F1C00D07E0D0007B5002300931A466FF0770171
:105F2C00FFF7F6FC03B05DF804FB000007B54388EF
:105F3C000A2B08D0502B09D1094B1B683BB103B07D
:105F4C005DF804EB1847FFF7E5FF06E0002300932C
:105F5C001A466FF07701FFF7DBFC03B05DF804FB2A
:105F6C000CE4032038B5104C104D2368AB42104B99
:105F7C000CBF012200221A7002D0FFF7BFFF256070
:105F8C00FFF74CFB044601F0FDF80A4B13B1204619
:105F9C00AFF3008000210748FFF714FD00210648ED
:105FAC00BDE83840FFF7AABC00F403201E1C279A5A
:105FBC0010E4032000000000395F0D00704710B59D
:105FCC001821044600F032FF204610BDF0B5037DC9
:105FDC00062B8DB00E4600F104074FF0000402D0E2
:105FEC0000F1080518E00CAD394605F8304D2F23AB
:105FFC002A460A20FFF752FB284601F0F3F83368D3
:10600C000246DB682946304698470FE024B12E2122
:10601C003046FFF7A5FE044415F8011D0A22304650
:10602C00FFF7B7FEBD420444F0D120460DB0F0BDE1
:10603C0010B5054B0446112240F8043B002101F039
:10604C0099F8204610BD00BF707C0D000346074A2E
:10605C0010B543F8042B01F1100251F8044B43F82E
:10606C00044B9142F9D10A781A7010BD707C0D0066
:10607C00037D042B01D1406808E0062B0AD143684C
:10608C0053B9836843B9C36833B90069003018BF8A
:10609C0001207047002070470120704710B59DF813
:1060AC00084044EA032343EA024242EA0161042322
:1060BC004160037510BD37B50D788B784A78C97877
:1060CC0000912946FFF7EAFF03B030BD41747047D9
:1060DC00704708B50021007CFFF7D8FB30EA2000A0
:1060EC0028BF4FF0FF3008BD08B50121007CFFF739
:1060FC00CDFB30EA200028BF4FF0FF3008BD08B5BB
:10610C00007CFFF7BBFB20EAE07008BD08B5007C03
:10611C00FFF7ACFB20EAE07008BD007CFFF7C6BBC4
:10612C0010B51421044600F081FE204610BD38B590
:10613C000446007C0D46FFF7A1FB002801DC607CC7
:10614C0028B12946207CFFF7A9FB20EAE07038BD76
:10615C0010B50446002363604FF47A73A360054BBB
:10616C00236001230846217463741146FFF76EFB0C
:10617C00204610BD847C0D000022007CFFF76EBB16
:10618C0010B514220446002100F0F4FF204610BD87
:10619C0030B50E4D87B001A8FFF7F2FF296811F05A
:1061AC00010410D12846FDF781FF60B101AA2146F8
:1061BC000748FFF7CDFF2846FDF77DFF054A064946
:1061CC00034800F025FE024807B030BD14E403205C
:1061DC0018E40320A0E20320DD600D007047417439
:1061EC00704708B5007CFFF7A9FA20EAE07008BDFB
:1061FC0008B5007CFFF77AFA20EAE07008BD08B514
:10620C00007CFFF783FA30EA200028BF4FF0FF3004
:10621C0008BD08B5007CFFF771FA30EA200028BFF2
:10622C004FF0FF3008BD007CFFF778BA10B5142191
:10623C00044600F0FBFD204610BD70B5457C0446BD
:10624C000E4625B9007CFFF779FA002805DD3146AA
:10625C00207CBDE87040FFF741BA284670BD0000B5
:10626C0010B5044608461146002262604FF47A725B
:10627C00A260054A22600122207462741A46FFF75C
:10628C0025FA204610BD00BFB47C0D00007CFFF742
:10629C004DBA000038B50C4D296811F0010411D12C
:1062AC002846FDF703FF68B1084A094B0948214607
:1062BC00FFF7D6FF2846FDF7FEFE074A07490548BB
:1062CC0000F0A6FD034838BDC4E40320C8E4032055
:1062DC0040E403202CE40320A0E20320E9610D003C
:1062EC007047F8B5064615460C468F18BC4206D0CA
:1062FC00336814F8011B9B6830469847F6E728462C
:10630C00F8BD0022007CFFF739BA0021007CFFF7B2
:10631C003DBA0021007CFFF741BA0021007CFFF759
:10632C0045BA0021007CFFF749BA10B51421044688
:10633C0000F07CFD204610BD10B5044600236360C0
:10634C004FF47A73A360044B217408462360114602
:10635C00FFF744FA204610BDE47C0D0000231A46DA
:10636C001946007CFFF7F2B90022007CFFF7F6B962
:10637C00C9B2FFF7F9BF0022007CFFF7F7B9012182
:10638C00FFF7F9BF0021007CFFF720BA002211466D
:10639C004068FFF7FFBA002211464068FFF70ABBBE
:1063AC0000224068FFF7FEBA002281F0010140682C
:1063BC00FFF7E8BA00231A4601214068FFF7DABA62
:1063CC0000231A4619464068FFF7CCBA0022114642
:1063DC004068FFF7BFBA002211464068FFF7AABA1F
:1063EC00002202214068FFF7ADBA00231A4640682C
:1063FC00FFF798BA38B5054688B104684CB1A36864
:10640C001BB103222146204698471021204600F05C
:10641C000DFD28461421BDE8384000F007BD38BDFD
:10642C0010B103685B681847704710B503680446E1
:10643C00BBB15868FFF70AF978B923685A7C12B9CE
:10644C005868FFF70BF923685868FFF70FF92068B5
:10645C000023236028B1FFF7CDFF206808B1FFF7B8
:10646C00C9FF204610BD38B50446D0F8C40108B1A8
:10647C00FDF70FFED4F8C00108B1FFF707F9D4F807
:10648C00BC5135B12846FFF7D0FF0421284600F057
:10649C00CDFC206808B1FFF7C3FF204638BD0000D3
:1064AC0010B5044B044640F8083BFFF7DCFF2046D0
:1064BC0010BD00BF0C7D0D0038B50E4C0E4B23608B
:1064CC000025022304F5E4706360A560C4F8C45190
:1064DC00C4F8C851FFF7D2F8084BC4F8CC5184F873
:1064EC00D05123602046064A0649BDE8384000F0EA
:1064FC008FBC00BF4CE50320F47D0D000C7D0D001E
:10650C00A0E20320AD640D0037B502AC036804F8BB
:10651C00011DDD6B01224FF0FF332146A84703B06C
:10652C0030BD10B40368DC6B4FF0FF33A4465DF84C
:10653C00044B604737B502AC036804F8011DDD6BF2
:10654C00214613460122A84703B030BD704738B529
:10655C0043691A68002A044605DAB3F88620B3F8B2
:10656C0084309A4201D001250BE003681B699847DF
:10657C00002814BF0125002503D123682046DB6ABF
:10658C009847284638BD43691868C043C00F704708
:10659C0070470020704710B51421044600F046FCEB
:1065AC00204610BDFDF773BD7FB516460022426034
:1065BC00029203925A1C04460D4608D04FF47A728C
:1065CC00B3FBF2F1029102FB11314A430392606971
:1065DC000823009341F205026B4440F6FF710068FA
:1065EC00FFF704F9002808DB6069002332462946CE
:1065FC000068FFF71BF9002804DAFFF703FA0368B9
:10660C006360002004B070BD10B5036804469B683D
:10661C009847A368013BA3602BB923682046DB682D
:10662C00BDE81040184710BD70B504464D69054BC8
:10663C0044F8043B8C3506460FCD0FC42B682370F1
:10664C00304670BD707C0D0010B54369B3F88620E0
:10665C00B3F884309A42044605D06269B2F88430AB
:10666C001344187910BD03681B6998470028F4D1AE
:10667C004FF0FF3010BD10B54369B3F88620B3F866
:10668C0084309A42044608D06269B2F88430591CAE
:10669C001344A2F88410187910BD03681B6998473D
:1066AC000028F1D14FF0FF3010BDF8B54369174603
:1066BC00B3F88620B3F884309A4205460E4606D1CC
:1066CC0003681B69984710B94FF0FF3414E06969EF
:1066DC00B1F88430B1F88640E41ABC4228BF3C467D
:1066EC00194422460431304600F01EFD6A69B2F8A6
:1066FC0084302344A2F884302046F8BD2DE9F043C1
:10670C009846036893B0DB6A0D46064617469847D1
:10671C0012AB002443F8484D224621462846FEF78A
:10672C00EDFE814600283DD1009B002B56D05B69C5
:10673C00002B53D006A8FFF77BFC009B5C696378A9
:10674C00022B01D1211D13E00A2B14D11122494631
:10675C0001A800F00FFDA36833BBE36823BB4FF621
:10676C00FF702569FEF7A2FF85421DD104F11401CB
:10677C0006A8FFF7A0FC06A8FFF77AFC00282DD08E
:10678C00336807ADD3F82090184B0C930FCD0DAC9C
:10679C000FC42B6823703A4643460CA93046C847B1
:1067AC0081461BE0A14619E004F1080301AD183441
:1067BC00186859682A4603C20833A3421546F7D114
:1067CC00062301A90CA80DAD8DF81430FFF73EFC83
:1067DC000FCD07AC0FC42B682370CCE70098FEF7E5
:1067EC0085FE484613B0BDE8F08300BF707C0D00F9
:1067FC0042690023A2F884304269A2F886307047BF
:10680C002DE9F0411E4603680C468AB0DB6A05464A
:10681C0017469847237DD5F81480042B0CBF022013
:10682C000A2006220121FFF709F8C8F800006B695D
:10683C001B68002B18DB2846FFF7DAFFD6B10023C4
:10684C0003A9F0B20393ADF81030FEF7DFFE58B990
:10685C0068690623009341F20B0203AB40F6FF710B
:10686C000068FEF7C3FF28B12B682846DB6A0024BA
:10687C0098473BE01C263246002103A800F07AFC26
:10688C00237D8DF80C60042B0CD1022338468DF837
:10689C000D30FEF713FFADF80E006068FEF706FF33
:1068AC00049013E00A2338468DF80D30FEF706FFEE
:1068BC0005AEADF80E00231D04F1140718685968D5
:1068CC00324603C20833BB421646F7D16B691C2211
:1068DC0003A91868FEF79AFF0028C5D104340FCC21
:1068EC006D698C350FC523682B70012420460AB0C6
:1068FC00BDE8F08110B5436904461868002801DB37
:10690C00FEF77CFF63694FF0FF321A606069112259
:10691C0000218C3000F02EFC2046BDE81040FFF723
:10692C0067BF000030B54269B2F886308BB00446C0
:10693C001BB1B2F884209A4240D0636918680028D1
:10694C003FDBB3F886507F2D3BD8191DC5F1800273
:10695C0008232944FEF762FF00280CDD6369B3F8B5
:10696C0086200AB9A3F884206269B2F886301844EC
:10697C00A2F8860025E0FFF745F803680B2B20D022
:10698C00FFF740F803680B2B1BD020230025029344
:10699C000395FFF737F8036801930E4B009302AA97
:1069AC002B460D493220FEF791FF63691868FEF7FC
:1069BC0025FF63694FF0FF321A6002E0FFF718FF02
:1069CC00BBE76269B2F88630B2F88400181A0BB0D3
:1069DC0030BD00BFA77D0D00A07D0D0010B50023BC
:1069EC0004460160A0F88430A0F886308830FFF7A8
:1069FC001FFB204610BD00004FF47A7270B50023C7
:106A0C008260144A43600260436183610446A020A3
:106A1C000E46FDF73AFB054610B13146FFF7DEFF97
:106A2C001420FDF732FB034628B10122426082603C
:106A3C00094A02600561A0696561A36128B14368D8
:106A4C00013B43600BB9FFF7DFFD2046FFF7D0FE9B
:106A5C00204670BD5C7D0D00407D0D0010B54FF0E3
:106A6C00FF310446FFF7C8FF204610BD10B50446A1
:106A7C000068002801DBFEF7C1FE204610BD10B5F2
:106A8C0004692046FFF7F2FF24B12046BDE8104010
:106A9C00FDF7FDBA10BD002211464068FEF75ABF43
:106AAC00002211464068FEF775BF0022114640686F
:106ABC00FEF780BF00224068FEF774BF002281F011
:106ACC0001014068FEF75EBF00231A461946406874
:106ADC00FEF750BF00231A4619464068FEF742BF26
:106AEC00002211464068FEF725BF002202214068B3
:106AFC00FEF728BF00231A464068FEF713BF0000BC
:106B0C00024B04225A60024A1A60704720E70320A5
:106B1C00C07D0D0000231A464068FEF703BF00221B
:106B2C0002214068FEF70EBF002211464068FEF7B6
:106B3C0001BF002211464068FEF70CBF00231A4625
:106B4C0019464068FEF70EBF00231A4619464068E6
:106B5C00FEF710BF002281F001014068FEF712BF62
:106B6C0000224068FEF71EBF002211464068FEF767
:106B7C0021BF002211464068FEF70CBF2DE9F043FF
:106B8C00002495B016460D460746FFF751FA2146EC
:106B9C0020220CA8009400F0EDFA40230C9321461F
:106BAC006B460CAA3046FEF7A9FC0446002844D1DB
:106BBC00024601216868FEF7CDFE0221804622467E
:106BCC006868FEF7C7FE009E81462146002E34D031
:106BDC00002932D17368022B02D00A2B09D02AE08B
:106BEC00B8F1000F27D0716938460431FFF763FA0A
:106BFC0020E0B9F1000F1ED07469112201A800F039
:106C0C00B9FA06238DF8143001AD04F108031834D9
:106C1C00186859682A4603C20833A3421546F7D1AF
:106C2C0001A906A807ADFFF711FA0FCD3C1D0FC443
:106C3C002B6823700121F669C8E70098FEF756FC13
:106C4C00384615B0BDE8F083024B034A1A600022A7
:106C5C005A60704728E70320F47D0D0070B5184E7C
:106C6C00316811F0010504460AD13046FDF71EFAD1
:106C7C0030B129461348FEF711FF3046FDF71BFAD9
:106C8C001048FEF7BBFF28B1A4F10B03022B01D86F
:106C9C00002070BD00F096F8FFF774FB08B1012CD2
:106CAC00F6D9FFF7F7FAFFF7F1FA18B1A4F10903D7
:106CBC00012BEDD9232C8CBF0020012070BD00BF0F
:106CCC00D0E30320D4E30320232838B504460D4633
:106CDC000AD8FF2908D0FFF7C1FF28B12946204662
:106CEC00BDE83840FEF722BC38BD38B504460D4629
:106CFC00FEF724FCFF2810D0062804D84D2323FAD5
:106D0C0000F0C30709D42046FFF7A8FF28B1294695
:106D1C002046BDE83840FEF719BC38BD0D2810B52B
:106D2C0004469CBF0E34A4B22046FFF797FF50B127
:106D3C0003212046FEF7F2FB032804D12046BDE8D0
:106D4C001040FEF70BBC002010BD2DE9F041904621
:106D5C001E46072407460D46B8F1000F04D1C4F1B6
:106D6C00070146FA01F101E046FA04F101F00101D4
:106D7C003846FFF7BAFF01212846FFF7B6FF00217E
:106D8C002846FFF7B2FF14F1FF34E5D2BDE8F081DD
:106D9C0070B5044614252A46094E002100F0EAF984
:106DAC00258020253146A5602561284600F040F855
:106DBC0031466060284600F03BF8E060204670BD2C
:106DCC00207E0D0030B50E4D296811F0010487B0FE
:106DDC0013D12846FDF76AF978B101A8FFF7D8FF5F
:106DEC0001AA21460748FFF7A7FA2846FDF763F9E1
:106DFC00054A0649034800F00BF8024807B030BDBD
:106E0C0034E7032038E70320A0E20320ED620D00F5
:106E1C000B460146184600F065B90000024B186895
:106E2C00BFF35F8F704700BF4CE70320FDF72FB90E
:106E3C0000F000B810B5002814BF04460124204609
:106E4C00FEF7C8FD20B9FFF7E9FF08B18047F6E768
:106E5C0010BD0000184B1A68D1075CBF01221A60E4
:106E6C00164B1A68D2075CBF01221A60144B1A68C1
:106E7C00D0075CBF01221A60124B1A68D1075CBFA5
:106E8C0001221A60104B1A68D2075CBF01221A60EB
:106E9C000E4B1A68D0075CBF01221A600C4B1A68A3
:106EAC00D1075CBF01221A600A4B1A68D2075CBF7B
:106EBC0001221A60704700BF6CE7032068E70320CB
:106ECC0064E7032060E703205CE7032058E7032016
:106EDC0054E7032050E70320244B1A68D0075CBF0B
:106EEC0001221A60224B1A68D1075CBF01221A607A
:106EFC00204B1A68D2075CBF01221A601E4B1A681D
:106F0C00D0075CBF01221A601C4B1A68D1075CBF0A
:106F1C0001221A601A4B1A68D2075CBF01221A6050
:106F2C00184B1A68D0075CBF01221A60164B1A68FE
:106F3C00D1075CBF01221A60144B1A68D2075CBFE0
:106F4C0001221A60124B1A68D0075CBF01221A602A
:106F5C00104B1A68D1075CBF01221A600E4B1A68DD
:106F6C00D2075CBF01221A60704700BF9CE7032068
:106F7C0098E7032094E7032090E703208CE7032095
:106F8C0088E7032084E7032080E703207CE70320C5
:106F9C0078E7032074E7032070E70320244B1A687A
:106FAC00D0075CBF01221A60224B1A68D1075CBF64
:106FBC0001221A60204B1A68D2075CBF01221A60AA
:106FCC001E4B1A68D0075CBF01221A601C4B1A6852
:106FDC00D1075CBF01221A601A4B1A68D2075CBF3A
:106FEC0001221A60184B1A68D0075CBF01221A6084
:106FFC00164B1A68D1075CBF01221A60144B1A6831
:10700C00D2075CBF01221A60124B1A68D0075CBF12
:10701C0001221A60104B1A68D1075CBF01221A605A
:10702C000E4B1A68D2075CBF01221A60704700BF72
:10703C00CCE70320C8E70320C4E70320C0E7032004
:10704C00BCE70320B8E70320B4E70320B0E7032034
:10705C00ACE70320A8E70320A4E70320A0E7032064
:10706C00184B1A68D1075CBF01221A60164B1A68BC
:10707C00D2075CBF01221A60144B1A68D0075CBFA0
:10708C0001221A60124B1A68D1075CBF01221A60E8
:10709C00104B1A68D2075CBF01221A600E4B1A689B
:1070AC00D0075CBF01221A600C4B1A68D1075CBF79
:1070BC0001221A600A4B1A68D2075CBF01221A60BF
:1070CC00704700BFECE70320E8E70320E4E7032068
:1070DC00E0E70320DCE70320D8E70320D4E7032014
:1070EC00D0E7032010B5054C13462CB10A460146D7
:1070FC000220AFF3008010BD204610BD0000000040
:10710C00002910B591FBF2F402FB141304DB002BE5
:10711C0007DA01349B1A04E0002BC4BF04F1FF34DE
:10712C009B180460436010BD10B5431E0A44914285
:10713C0004D011F8014B03F8014FF8E710BD884259
:10714C0010B501EB020301D8421E0BE09842FBD2B2
:10715C008118D21AD34204D013F8014D01F8014D15
:10716C00F8E710BD994204D011F8014B02F8014F19
:10717C00F8E710BD02440346934202D003F8011B0A
:10718C00FAE7704738B5124B1C68A36B0546D3B9A8
:10719C001820FEF71FFC43F20E33A06303804AF65F
:1071AC00CD33438041F2342383804EF26D63C38030
:1071BC004DF6EC630381052343810B23838101226C
:1071CC000023C0E90423A36B00221D615A6138BD62
:1071DC009CE20320034611F8012B03F8012B002A33
:1071EC00F9D17047034613F8012B002AFBD1181A6A
:1071FC000138704710B5034642B111F8014B03F842
:10720C00014B013A002CF7D11A4400E010BD934217
:10721C0002D003F8014BFAE710BD00001D400D0031
:10722C0059400D0085400D0089400D000000000004
:10723C00546865206D6F6973747572652072656131
:10724C0064696E67206973202569200A00204D4F00
:10725C00495354555245200A2020202569200A0004
:10726C0048656C6C6F2C20776F726C642100436FD7
:10727C006E6E656374696E6720746F204D51545443
:10728C002E2E2E20005265747279696E67204D5136
:10729C00545420636F6E6E656374696F6E20696EF3
:1072AC002035207365636F6E64732E2E2E004D5146
:1072BC00545420436F6E6E6563746564210050698D
:1072CC006E67696E67204D515454200A00446973EF
:1072DC00636F6E6E656374696E67200A0050756229
:1072EC006C697368696E67204D6F6973747572652C
:1072FC0020446174613A202569200A007261736828
:10730C00617000696F2E61646166727569742E63B9
:10731C006F6D003539383136396661336261393415
:10732C0036333639343161333330393736653432AC
:10733C00653263007261736861702F666565647392
:10734C002F4166726963615F4D6F69737475726505
:10735C00000000000000000000000000C9400D000B
:10736C00A1430D00794E0D00195D0D0045470D0030
:10737C00794B0D00CD450D0059440D00394C0D00D5
:10738C00CF4C0D00074D0D00234D0D0000000000EB
:10739C00000000000000000000000000794E0D000D
:1073AC00195D0D00A5400D00794B0D00994C0D0099
:1073BC00B54C0D00394C0D00CF4C0D00074D0D0098
:1073CC00234D0D0000000000003E5B4F5B3E3E6B0A
:1073DC004F6B3E1C3E7C3E1C183C7E3C181C577D63
:1073EC00571C1C5E7F5E1C00183C1800FFE7C3E7AF
:1073FC00FF0018241800FFE7DBE7FF30483A060EC1
:10740C002629792926407F050507407F05253F5A07
:10741C003CE73C5A7F3E1C1C08081C1C3E7F142277
:10742C007F22145F5F005F5F06097F017F00668922
:10743C00956A606060606094A2FFA29408047E0468
:10744C000810207E201008082A1C08081C2A08088E
:10745C001E101010100C1E0C1E0C30383E3830064E
:10746C000E3E0E06000000000000005F000000074A
:10747C00000700147F147F14242A7F2A1223130878
:10748C00646236495620500008070300001C224154
:10749C00000041221C002A1C7F1C2A08083E0808F8
:1074AC0000807030000808080808000060600020A8
:1074BC00100804023E5149453E00427F400072498B
:1074CC004949462141494D331814127F102745452F
:1074DC0045393C4A49493141211109073649494945
:1074EC0036464949291E00001400000040340000B3
:1074FC00000814224114141414140041221408021C
:10750C00015909063E415D594E7C1211127C7F498E
:10751C004949363E414141227F4141413E7F4949E3
:10752C0049417F090909013E414151737F0808080F
:10753C007F00417F41002040413F017F08142241E0
:10754C007F404040407F021C027F7F0408107F3E3A
:10755C004141413E7F090909063E4151215E7F09A7
:10756C00192946264949493203017F01033F40400E
:10757C00403F1F2040201F3F4038403F63140814F9
:10758C006303047804036159494D43007F41414131
:10759C000204081020004141417F04020102044012
:1075AC0040404040000307080020545478407F2896
:1075BC004444383844444428384444287F3854548C
:1075CC00541800087E090218A4A49C787F080404AF
:1075DC007800447D40002040403D007F102844004E
:1075EC0000417F40007C047804787C0804047838DF
:1075FC0044444438FC1824241818242418FC7C080F
:10760C00040408485454542404043F44243C40408B
:10761C00207C1C2040201C3C4030403C442810283E
:10762C00444C9090907C4464544C44000836410087
:10763C000000770000004136080002010204023C01
:10764C002623263C1EA1A161123A4040207A3854D0
:10765C00545559215555794121545478412155544B
:10766C00784020545579400C1E527212395555559C
:10767C0059395454545939555454580000457C4187
:10768C000002457D420001457C40F0292429F0F0A0
:10769C00282528F07C545545002054547C547C0AF1
:1076AC00097F4932494949323248484832324A48BE
:1076BC0048303A4141217A3A42402078009DA0A0BE
:1076CC007D39444444393D4040403D3C24FF242412
:1076DC00487E4943662B2FFC2F2BFF0929F620C02F
:1076EC00887E090320545479410000447D41304880
:1076FC00484A32384040227A007A0A0A727D0D19C3
:10770C00317D2629292F28262929292630484D4024
:10771C0020380808080808080808382F10C8ACBA20
:10772C002F102834FA00007B000008142A1422229F
:10773C00142A1408AA005500AAAA55AA55AA000092
:10774C0000FF00101010FF00141414FF001010FFA5
:10775C0000FF1010F010F0141414FC001414F700B7
:10776C00FF0000FF00FF1414F404FC141417101F86
:10777C0010101F101F1414141F00101010F0000014
:10778C0000001F101010101F10101010F01000002F
:10779C0000FF101010101010101010FF100000003F
:1077AC00FF140000FF00FF00001F10170000FC0476
:1077BC00F414141710171414F404F40000FF00F759
:1077CC0014141414141414F700F7141414171410BC
:1077DC00101F101F141414F4141010F010F00000EB
:1077EC001F101F0000001F14000000FC140000F00C
:1077FC0010F01010FF10FF141414FF141010101FB1
:10780C0000000000F010FFFFFFFFFFF0F0F0F0F0C1
:10781C00FFFFFF0000000000FFFF0F0F0F0F0F38DE
:10782C00444438447C2A2A3E147E02020606027E18
:10783C00027E0263554941633844443C04407E2037
:10784C001E2006027E020299A5E7A5991C2A492A48
:10785C001C4C7201724C304A4D4D303048784830D7
:10786C00BC625A463D3E494949007E0101017E2ACF
:10787C002A2A2A2A44445F444440514A4440404402
:10788C004A51400000FF0103E080FF000008086B34
:10789C006B083612362436060F090F06000018182E
:1078AC000000001010003040FF0101001F01011EFC
:1078BC0000191D1712003C3C3C3C0000000000006D
:1078CC000000000000000000CB400D00AF430D0095
:1078DC000D4F0D00B94F0D00EB4F0D00214F0D005A
:1078EC00614F0D00000000000000000000000000CF
:1078FC0000000000A5400D00A5400D00A5400D00A6
:10790C00A5400D00A5400D0077790D008B790D0079
:10791C005B790D009D790D00E2790D00277A0D0041
:10792C00477A0D007A7A0D00947A0D00CB7A0D000F
:10793C00205B30780030005D2C20000A0900447276
:10794C006F707065642061207061636B65740055A5
:10795C006E6B6E6F776E206572726F72004D515444
:10796C005400252525642E256466004661696C65E6
:10797C006420746F2073756273637269626500436F
:10798C006F6E6E656374696F6E206661696C656499
:10799C00005468652053657276657220646F657358
:1079AC00206E6F7420737570706F727420746865BC
:1079BC00206C6576656C206F6620746865204D516F
:1079CC0054542070726F746F636F6C207265717594
:1079DC0065737465640054686520436C69656E74E6
:1079EC00206964656E7469666965722069732063C9
:1079FC006F7272656374205554462D38206275740D
:107A0C00206E6F7420616C6C6F77656420627920D6
:107A1C007468652053657276657200546865204DF4
:107A2C0051545420736572766963652069732075AF
:107A3C006E617661696C61626C6500546865206486
:107A4C0061746120696E207468652075736572209D
:107A5C006E616D65206F722070617373776F7264E5
:107A6C00206973206D616C666F726D6564004E6F7A
:107A7C007420617574686F72697A656420746F2004
:107A8C00636F6E6E656374004578636565646564E9
:107A9C00207265636F6E6E6563742072617465200D
:107AAC006C696D69742E20506C65617365207472FD
:107ABC007920616761696E206C617465722E005962
:107ACC006F752068617665206265656E2062616EF7
:107ADC006E65642066726F6D20636F6E6E65637485
:107AEC00696E672E20506C6561736520636F6E74D0
:107AFC0061637420746865204D5154542073657211
:107B0C007665722061646D696E6973747261746FED
:107B1C007220666F72206D6F726520646574616986
:107B2C006C732E0000000000000000007F5A0D0056
:107B3C00755A0D006B5A0D00615A0D00555A0D0007
:107B4C00495A0D003D5A0D00355A0D002B5A0D00A7
:107B5C00215A0D00896B0D000008101820283038B0
:107B6C00626175640053657269616C00536572697A
:107B7C00616C31007479706500706172616D0063C5
:107B8C006D6400696400686E64007374726D0066E5
:107B9C00696C74006C766C0061646448616E646C32
:107BAC0065720072656D6F766548616E646C6572A6
:107BBC0000656E756D48616E646C657273004A5336
:107BCC004F4E53747265616D4C6F6748616E646C97
:107BDC0065720061707000253031307520005D20B9
:107BEC000028293A2000205B00636F6465203D204B
:107BFC000025690064657461696C73203D20000D7B
:107C0C000A006C6E00666E00636F646500646574D8
:107C1C0061696C006E6F6E650074726163650069FA
:107C2C006E666F007761726E0070616E69630061E1
:107C3C006C6C005A00252B3033643A2530327500B9
:107C4C0025592D256D2D25645425483A254D3A2569
:107C5C0053257A0061736374696D65000000000040
:107C6C0000000000D95F0D00C95F0D00CB5F0D0057
:107C7C000000000000000000DD600D002D610D0013
:107C8C003B610D00195D0D0019610D00DF600D00E9
:107C9C00F5600D0027610D000B610D00D9600D0022
:107CAC000000000000000000E9610D0039620D00C9
:107CBC0047620D00195D0D00FD610D001F620D0086
:107CCC000B620D0033620D00EB610D00EF610D00D6
:107CDC000000000000000000ED620D0037630D0095
:107CEC000F630D00EF620D0017630D001F630D0095
:107CFC0027630D002F630D00000000000000000042
:107D0C00F7630D00ED630D00E3630D00D9630D0007
:107D1C00CD630D00C1630D00B5630D00AD630D00A7
:107D2C00A3630D0099630D00896B0D00000000002A
:107D3C00000000009D650D00A3650D008B6A0D0011
:107D4C00B1650D009F650D000000000000000000F3
:107D5C00CD400D0001410D0015650D002F650D0086
:107D6C0031690D0083660D0055660D0059650D00D7
:107D7C000D680D0009670D00B7660D0001690D0057
:107D8C005B650D0093650D0041650D00B5650D003B
:107D9C0035660D00776972696E67007265637620CF
:107DAC006572726F72203D20256400000000000097
:107DBC0000000000016B0D00F76A0D00ED6A0D006C
:107DCC00A36A0D00E16A0D00D56A0D00C96A0D00A9
:107DDC00C16A0D00B76A0D00AD6A0D00896B0D000C
:107DEC000000000000000000216B0D002B6B0D004B
:107DFC00356B0D003F6B0D00496B0D00556B0D0085
:107E0C00616B0D006D6B0D00756B0D007F6B0D00C4
:107E1C00896B0D0000000000000000000000000055
:107E2C000000000000000000000000000000000046
:107E3C000000000000000000000000000000000036
:107E4C000000000000000000000000000000000026
:107E5C000000000000000000000000000000000016
:107E6C000000000000000000000000000000000006
:107E7C00000000000000000043000000BD430D00A6
:107E8C00754B0D00094F0D004B500D00F5540D00B6
:107E9C00895A0D002D5C0D00F15C0D00555E0D0036
:107EAC00655E0D009D5E0D00C5640D000D6B0D0033
:107EBC00556C0D00616E0D00E56E0D00A96F0D0087
:047ECC006D700D00C8
:047ED00000000000AE
:107ED40011000000000103070F1F3F7F0080C0E076
:107EE400F0F8FCFE000000000000000000000000AC
:107EF400000000000000000000000000000000007E
:107F0400000000000000000000000000000000006D
:107F1400000000000000000000000000000000005D
:107F240000000080808000000000000000000000CD
:107F340000000000008080C0C000000000000000BD
:107F4400000000000000000000000000000000002D
:107F5400000000000000000000000000000000001D
:107F6400000000000000000000000000000000000D
:107F7400000000000000000080C0E0F0F8FCF8E021
:107F840000000000000000000000000000000000ED
:107F940000808080808000808000000000808080DD
:107FA400808000FFFFFF00000000808080800000D0
:107FB4008080000080FFFF808000808000808080BF
:107FC400800080800000000000808000008C8E848F
:107FD400000080F8F8F880000000000000000000B5
:107FE40000000000F0F0F0F0F0F0F0F0F0F0F0F04D
:107FF400E0E0C08000E0FCFEFFFFFF7FFFFFFFFF2B
:10800400FF0000000000000000000000000000FE6F
:10801400FFC70101010183FFFF00007CFEC70101CE
:10802400010183FFFFFF0038FEC78301010183C7FD
:10803400FFFF000001FFFF010100FFFF0701010135
:1080440000007FFF80000000FFFF7F0000FFFFFFB4
:10805400000001FFFFFF010000000000000000001D
:1080640000000000030F3F7F7FFFFFFFFFFFFFFFC4
:10807400E7C7C78F8F9FBFFFFFC3C0F0FFFFFFFF9E
:10808400FFFCFCFCFCFCFCFCFCF8F8F0F0E0C0009D
:1080940001030303030301030300000000010303BE
:1080A40003030101030100000001030303030101B1
:1080B40003030000000303000000030300000000AA
:1080C4000000000103030303030100000001030196
:1080D4000000000303010000000000000000000095
:1080E4000000000000000080C0E0F0F9FFFFFFFF87
:1080F400FF3F1F0F87C7F7FFFF1F1F3DFCF8F8F86E
:10810400F87C7DFFFFFFFFFFFFFFFF7F3F0F0700AE
:1081140030300000000000000000000000000000FB
:108124000000000000000000FEFEFC000000000053
:10813400000000000000000000000000000000003B
:1081440000E0C0000000000000000000000030302B
:10815400000000000000000000000000000000001B
:108164000000000000C0FEFFFFFFFFFFFFFFFFFF56
:108174007F7F3F1F0F071F7FFFFFF8F8FFFFFFFF01
:10818400FFFEF8E000000001000000000000000015
:10819400FEFE000000FCFEFC0C06060EFCF80000CF
:1081A400F0F81C0E0606060CFFFFFF0000FEFE00A2
:1081B400000000FCFEFC00183C7E66E6CE84000055
:1081C40006FFFF0606FCFEFC0C0606060000FEFE8B
:1081D4000000C0F8FC4E4646464E7C7840183C767B
:1081E400E6CECC800000000000000000000000008B
:1081F400000000000000000001070F1F1F3F3F3F69
:108204003F1F0F03000000000000000000000000FA
:108214000F0F0000000F0F0F000000000F0F0000F1
:1082240003070E0C18180C060F0F0F0000010F0E99
:108234000C180C0F070100040E0C180C0F0700009B
:10824400000F0F00000F0F0F0000000000000F0FC1
:1082540000000007070C0C181C0C060600040E0C8A
:10826400180C0F07000000000000000000000000D0
:1082740000000000000000000000000000000000FA
:1082840000000000000000000000000000000000EA
:1082940000000000000000000000000000000000DA
:1082A40000000000000000000000000000000000CA
:1082B40000000000000000000000000000000000BA
:1082C40000000000000000000000000000000000AA
:1082D400000000000000000000000000000000009A
:1082E40000000000607C0D0000000000247E0D00F2
:1082F400447E0D00647E0D000000000000000000BC
:108304000000000000000000847E0D00000000005A
:108314000000000000000000000000000000000059
:108324000000000000000000000000000000000049
:108334000000000000000000000000000000000039
:0C83440000000000000000003CE20320EC
:10835000FFFFFFFF00000102030405060708090AEA
:108360000B0C0D0E0F101112131415161718191AE5
:088370001B1C1D1E1F2028002C
:0483780078563412ED
:04000003D000401CCD
:00000001FF
