:02000002D0002C
:1040000000400D00749C0D00000006000C0005012E
:084010000401DE0500000000C0
:044018003C960D00C5
:1040200009480A49884208B505D0094A824202D0A7
:10403000121A05F0A3FA0748074A0021121A05F0E0
:10404000A8FA014808BD00BF40E203205C9B0D00B8
:1040500030E3032030E30320F0E7032070B502F0E3
:10406000B3F9074C074BE41AA40800251E46A542E5
:1040700004D056F8253098470135F8E770BD00BFE9
:10408000489B0D00089B0D0000F082BD08B500F0B4
:10409000F7FEBDE8084002F059B901F0DDBD01F0BE
:1040A000E3BD01F0E1BD0078B0FA80F0400970474F
:1040B00001230370704748B1836C3BB1C36C2BB1D3
:1040C000006DB0FA80F04009404270474FF0FF3079
:1040D000704773B5024608460C46FFF7ECFF0546ED
:1040E00050BB12F0800FCA7814BF002310239A42ED
:1040F00022D0CB708E6C607801230DF10702F32182
:10410000B04784F8540010B16FF0010514E0E37873
:10411000E66C607803F010029DF8073023F010037E
:1041200013438DF807300DF1070201237321B047C7
:1041300084F854000028E7D1284602B070BD73B55A
:104140000446FFF7B8FF054688B9A66C60780123DE
:104150000DF10702F321B04784F8540028B99DF807
:10416000073003F01003E37001E06FF0010528460B
:1041700002B070BD40B103788B4208D9017013784A
:1041800043F00203137002E04FF0FF30704700204D
:1041900070472DE9F84306461846884691461D4665
:1041A000FFF789FF0446A8B9AB783BB929463046EA
:1041B000FFF78FFF044608B946F08006AF6C6878B9
:1041C0004B4642463146B847002885F8540018BF90
:1041D0006FF001042046BDE8F8832DE9F04F8BB065
:1041E0001E4683468A46144600212822684605F06A
:1041F000D0F93046FFF75FFF0546A8BB631E122BC0
:1042000030D80DF101080AF1FF3A5F46C146A4B269
:10421000CBEB07039BB29C4213D9B37843B9314629
:104220003878FFF756FF3B78054603F07F0300E040
:104230003B7808F8013C1AF8013F08F8023B0137C7
:10424000E6E78DB96300013BF46C9DF800107078CF
:104250009BB24A46A047002886F8540018BF6FF06A
:10426000010501E06FF0030528460BB0BDE8F08FB3
:1042700037B5E0238DF80630B62305468DF80730B4
:10428000FFF719FF0446D8B9AB786BB12B46012272
:104290000DF107010DF10600FFF79FFF2B6D04469E
:1042A0000A20984734B10BE02846FFF748FF044640
:1042B00030B9EBE7AB781BB92846FFF740FF04465F
:1042C000204603B030BD30B58DB00446FFF7F3FE95
:1042D0000546002840F0D5802046FFF7C9FF054677
:1042E000002840F0CE80234601222146D020FFF74F
:1042F00050FF0546002840F0C4802378612B40F031
:10430000BE800146292201A805F043F920468DF818
:104310000350FFF7D0FE0546002840F0B280234648
:10432000192201A98920FFF734FF054638B9234631
:1043300010220DF11D01E120FFF72BFF05469DF82E
:1043400026209DF8253043EA0223E3829DF80620CB
:104350009DF8053043EA022323839DF807309DF83A
:104360000A20A3769DF8093043EA0223A3839DF82F
:104370000C209DF80B3043EA0223E3839DF80D30B7
:104380009DF8102084F820309DF80F3043EA022376
:1043900063849DF812209DF8113043EA0223A38420
:1043A0009DF8143084F826309DF813309DF81820BD
:1043B00084F827309DF8173043EA022323859DF8BF
:1043C0001A209DF8193043EA022363859DF81B30BB
:1043D00084F82C309DF81E309DF81F1003F00F025A
:1043E00042EA011222819DF81D201B0943EA0213B3
:1043F00063819DF8203023739DF8213063739DF80D
:104400002230A3739DF82330E3739DF82430237486
:104410009DF8293063749DF828209DF8273043EAE1
:10442000022363829DF82A30237515BB234601229F
:104430000DF103010220FFF7ACFE9DF80330C3F33A
:10444000011384F83430054698B9234601220DF152
:104450000301FFF79EFE9DF8033084F835300546D2
:1044600038B9234601220DF103010420FFF791FE24
:1044700005469DF903301B1184F8363001E06FF0DA
:10448000020528460DB030BD37B5742304468DF8BB
:104490000730FFF710FEA0BB0546234601220DF1B1
:1044A00006017420FFF775FEA0B99DF8063013F0E1
:1044B000030511D023F003038DF8063001222346B3
:1044C0000DF106010DF10700FFF787FE236D0A20AD
:1044D0009847E2E7002DE0D194F844308BB19DF885
:1044E000062003F0030322F0030213438DF8063085
:1044F00038B9234601220DF106010DF10700FFF73F
:104500006CFE03B030BD2DE9F04188B000230646B3
:1045100008460C468DF807300493ADF81430069326
:10452000ADF81C30FFF7C7FD002840F06681320768
:1045300091F844706CD5012FADF80800ADF80C006F
:1045400065D1B1F840505A23C72D8DF8083005D9F0
:10455000B5F5C87F28BF4FF4C87500E0C825B4F989
:1045600012E094F9112094F9043094F914000EF536
:10457000163E0EF2991E02F54472142113FB00F050
:1045800005FB0EF54FF47A7395FBF1F590FBF3F311
:104590000A211B0205F5481595FBF1F56A4303EB6B
:1045A000620194F83430043391FBF3F294F935103E
:1045B00083234B4303F5803392FBF3F32222FA3B30
:1045C00053433233642293FBF2F38DF80C30B4F88A
:1045D00042308DF80920B3F57C6F0BD200223F2BBF
:1045E000D1B202F1010201D99B08F8E703EB811374
:1045F000DBB200E0FF238DF80D30002384F83C305F
:104600000222234603A902A8FFF7E7FD00E00120EC
:10461000002384F8443010B92046FFF735FF06F038
:104620001005ADB205B304F14602072104F13B00C9
:10463000FFF7A0FD30B9234601220DF107017520D7
:10464000FFF7A7FD94F83B309B0003F01C029DF898
:10465000073023F01C03134375228DF807308DF8C3
:1046600010208DF818300125B30622D504F146023A
:10467000082104F13D00FFF77DFD30B923460122FA
:104680000DF107017020FFF784FD9DF8073023F03E
:10469000080294F83D3003F00803134308AA2A44A3
:1046A000702101358DF8073002F8101C02F8083C23
:1046B000EDB2B10733D004F14602052104F139000F
:1046C000FFF758FD30B9234601220DF10701742090
:1046D000FFF75FFDF20709D59DF8073094F8392000
:1046E00003F01F0343EA42138DF80730B3070BD5DD
:1046F00094F83A309B0003F01C029DF8073023F039
:104700001C0313438DF8073008AB2B44742203F8C5
:10471000102C01359DF8072003F8082CEDB2710725
:1047200022D504F14602052104F13800FFF722FDED
:1047300030B9234601220DF107017220FFF729FD50
:104740009DF8073023F0070294F8383003F0070390
:10475000134308AA2A44722101358DF8073002F864
:10476000101C02F8083CEDB216F0C00F3CD004F16A
:1047700046084246012104F13E00FFF7FBFC68B900
:1047800042460A2104F13C00FFF7F4FC30B923460D
:1047900001220DF107017120FFF7FBFC72060BD51A
:1047A00094F83E301B0103F010029DF8073023F00F
:1047B000100313438DF8073033060AD59DF80730F0
:1047C00023F00F0294F83C3003F00F0313438DF8ED
:1047D000073008AB2B44712203F8102C01359DF8EB
:1047E000072003F8082CEDB228B923462A4606A96B
:1047F00004A8FFF7F2FC84F8447008B0BDE8F0812B
:1048000013B5184B044618689B88ADF8043091F82E
:104810003930009002AA134491F83A2013F8083C6A
:1048200002A8024412F8082C134491F838200244DC
:1048300012F8082C134440F2AB72534303F595531E
:104840004FF47A721933B3FBF2F301339BB2238036
:1048500091F83E201AB1B1F842201344238002B0EF
:1048600010BD00BF50960D002DE9F04F804689B075
:1048700008460C46FFF71FFC0546002840F06781FC
:1048800004AF01460F22384604F083FE2046FFF7AE
:1048900012FC0A260546002D40F0538123460F22C4
:1048A00039461D20FFF775FC05469DF810009DF860
:1048B0001EE09DF813909DF814C09DF815B09DF86A
:1048C00016109DF8172000F00F0388F801309DF8AE
:1048D000113088F802309DF8123000939DF818309E
:1048E00001939DF8193002939DF81D3003934FFA00
:1048F0008EF303F0200A20F07F0040EA0A0003F064
:104900001003184340B2002888F8000080F2168196
:10491000120942EA011141EA0B3BE18AB4F918009D
:104920004900C1EBDB010A46CB175B104FEA3202AC
:1049300002FB03F6A2FB02234FEA123A94F91A2073
:1049400003EB46034AEA035A4FEA233B1301DF17FE
:104950000AFB07F603FB0B6680FB0101AAFB03239E
:104960003344C00A920B40EA415042EA8342831822
:10497000236303EB830380331B12A8F80430236BFB
:1049800094F926005B10A3F57A439A105243D11292
:104990004843B4F924105943490001EBA001B4F98C
:1049A0001E00434394F92000521340014243D210A9
:1049B00002EB63039B14A28BB4F9280003F50043B8
:1049C00053434FEA1C1C009A4CEA091949EA023980
:1049D000B4F92220120402EBA101C9F5801940F6B6
:1049E0003542A9EB21315143DB13B1FBF3F35B00FB
:1049F000D910B4F92A20494349134A439910414335
:104A00001E12491301EB223106FB06F2564394F8BD
:104A10002C20724301EB624294F9271002EBC11281
:104A200003EB2213C8F80830236B94F90E1094F9A5
:104A30000D006789268903EB830380331B126422F0
:104A4000594391FBF2F159435843891190FBF2F01D
:104A500091FBF2F1014401F5804179438F120198F5
:104A6000029941EA002094F90C10A0EB0616594374
:104A700091FBF2F1A6EB610000FB07F194F9100045
:104A8000434393FBF2F2E37B02EBC3128B135B43D2
:104A900012119B12534301EB63034FF47A729B1282
:104AA00053431B1323EAE3732B4A9342D4BFC8F842
:104AB0000C30C8F80C2094F93630052240F23C50F6
:104AC0000021C3FB02010EF00F06244B53F82670A1
:104AD000A0FB072307FB0133100C40EA0340191425
:104AE000039B1F4F4FEA9E1E4EEA830E4FEACE32C3
:104AF00057F826E012F17F424FF00003AEFB00674B
:104B000043F1FF3312184B410EFB0177700A40EA64
:104B1000C75079125F104FEA32068019794104F0CC
:104B20005BFBC8F8100095B998F90030002BBABFAC
:104B3000012384F8453084F8455008E0236D0A20AD
:104B40009847013E16F0FF067FF4A5AE02252846E1
:104B500009B0BDE8F08F00BFA086010040E203204D
:104B600080E2032010B5034B0360044600F0F0FC24
:104B7000204610BD60960D0010B50446FFF7F2FF09
:104B800020464FF4987102F091FB204610BD0000C2
:104B900008B502F057FB02F0D5F801F0D9FF4FF449
:104BA000165101F0C9FF4FF47A7001F081FB01F05A
:104BB000CFFF164901F035FA7721154800F028FBA0
:104BC000144B186028B901F0C3FF134901F029FA0A
:104BD000FEE701F0BDFF114901F023FA04210C4862
:104BE00000F067FC02210A4800F070FC032108482D
:104BF00000F079FC0221064800F082FC96224FF476
:104C0000A0710348BDE8084000F045BC68960D005F
:104C100040E30320C4E3032074960D00A8960D0022
:104C200038B501F095FF3A493A4C01F0E7F901F047
:104C30008FFF0546204600F0DFFB0221284601F0E9
:104C4000D9FA01F085FF344901F0EBF901F080FF5A
:104C5000324901F0D3F901F07BFF0546204600F010
:104C6000D2FBDFED2F7A022180EE270A284601F0E1
:104C7000C1FA01F06DFF2B4901F0D3F901F068FF93
:104C8000294901F0BBF901F063FF9FED280A0546B1
:104C9000204600F0C1FB0221284601F0ABFA01F0EA
:104CA00057FF234901F0BDF901F052FF214901F0FE
:104CB000A5F901F04DFF0546204600F0E5FB022175
:104CC000284601F097FA01F043FF1B4901F0A9F9CA
:104CD00001F03EFF194901F091F901F039FF054655
:104CE000E06803F0DDFE164B002204F057F841ECBB
:104CF000100B0221284601F08CFA01F029FF11491E
:104D000001F08FF901F024FFBDE8384001F07DB9D2
:104D1000C6960D0040E30320D5960D00D9960D00F0
:104D20000000C842E5960D00EA960D0000507D4453
:104D3000FE960D0001970D000D970D0010970D00C8
:104D400000408F4017970D0038B504462DED028BBB
:104D50000D46B0EE408A00F003FD294620460122B0
:104D600000F072FC20463A2100F022FCB0EE480A26
:104D7000BDEC028B2046BDE8384000F015BD0000B8
:104D800010B52DED048BD2B004464FF4807212A9F9
:104D900006A8B0EE609AF0EE418AB0EE618AF0EEBD
:104DA000409A00F0F3FB2C4B06937D227B2106A852
:104DB00000F0E1FCB0EE690A284906A8FFF7C4FF3D
:104DC000B0EE490A264906A8FFF7BEFFB0EE680A12
:104DD000244906A8FFF7B8FFB0EE480A224906A802
:104DE000FFF7B2FF06A800F0BBFC01221F4906A88E
:104DF00000F02AFC3A2106A800F0DAFB22461C4902
:104E000006A800F014FC06A800F0E0FB079B039343
:104E1000184B039A1B788DF8003017493C2304A8DF
:104E200001F040FC059C7CB16368013B63605BB9A9
:104E3000236820469B689847A368013BA3601BB981
:104E400023682046DB68984706A8FFF78BFE52B020
:104E5000BDEC048B10BD00BF60960D001E970D00C9
:104E600028970D0032970D003D970D0046970D00D5
:104E700050970D003CE3032053970D000000000005
:104E80002DE9F7433A4C3B4D3B4E3C4FDFF8108148
:104E9000204600F0B1FA10EE100A03F001FE30A334
:104EA000D3E9002303F050FE0022354B03F09AFCB7
:104EB00004F042F92860204600F0A5FADFED317ACF
:104EC00080EE277A17EE100A03F0EAFD26A3D3E955
:104ED000002303F039FE00222B4B03F083FC04F087
:104EE0002BF93060204600F0CFFAD4ED036A9FED35
:104EF000277A274C87ED000AC6EE877A0D232360B8
:104F0000C8ED007A01F024FE8146286803F0C8FD50
:104F1000204ACDE900010121484601F07DF901F068
:104F200017FE8146306803F0BBFD1B4ACDE9000146
:104F30000121484601F070F9FFF772FE2068D8EDB4
:104F4000001A97ED001AD6ED000A95ED000AFFF75A
:104F500017FF124B186803B0BDE8F04301F0A8B981
:104F6000CDCCCCCCCCCCFC3FB0E600C11C3D9E3FB0
:104F700040E3032034E30320C0E30320B8E303202D
:104F8000000040400000C8420000144000007A4485
:104F9000BCE303205C970D0073970D00C0E2032073
:104FA00038E3032008B5064B01221A7000F030FCEC
:104FB0004FF0FF310348BDE8084000F013B900BFCF
:104FC0003CE3032040E3032001F072B9F8B5074643
:104FD00014461D460E4602F035F9394601F0E9FE49
:104FE00002F030F9036831469B6898472544AC428B
:104FF00007D002F027F9036814F8011B9B68984753
:10500000F5E702F01FF901F0DCFE0020F8BD00001A
:105010002DE9F0471B4D95F900300133804606D14C
:1050200002F0D6F84146BDE8F04700F041BFDFF896
:105030005890DFF858A00726002495F900000021B9
:1050400080B202F098F8012799F9000007FA06F1FA
:1050500001EA080180B202F08EF895F900003946A5
:1050600080B202F088F89AF90000640080B2E4B2DD
:1050700002F09AF800B13C4316F1FF36DDD220462B
:10508000BDE8F087C9E30320CAE30320C8E3032097
:105090002DE9F0418846002115461E46074602F0DC
:1050A0006AF8194B93F9002001321C4612D102F024
:1050B0008FF800F05BFE02F08BF8402100F0D4FE88
:1050C00002F086F8012100F062FE02F081F8002172
:1050D00000F06EFE4046FFF79BFF2E44B54204D021
:1050E00015F8010BFFF794FFF8E794F9003001334E
:1050F00003D102F06DF800F06CFE3846012102F099
:105100003AF80020BDE8F081C9E303202DE9F04121
:105110008846002115461E46074602F02CF81A4B19
:1051200093F9002001321C4612D102F051F800F030
:105130001DFE02F04DF8402100F096FE02F048F806
:10514000012100F024FE02F043F8002100F030FEBF
:105150004046FFF75DFF2E44B54205D00020FFF723
:1051600057FF05F8010BF7E794F90030013303D13D
:1051700002F02EF800F02DFE3846012101F0FBFF71
:105180000020BDE8F08100BFC9E30320F8B5064662
:1051900015461C460F4602F055F8314601F009FE4F
:1051A00002F050F8036839469B68984702F04AF8C5
:1051B00001F007FE02F046F8E2B2314601F0F6FDDA
:1051C00084420AD12C44A54209D002F03BF803687E
:1051D0005B69984705F8010BF5E70120F8BD002051
:1051E000F8BD000001770749FF220A7006490A70DE
:1051F00006490A7000220275C274827442740274F5
:10520000704700BFCAE30320C8E30320C9E30320BB
:1052100038B504460D46617590F91C00421C0CD14E
:1052200002F010F801F08EFD012384F822302E4B9D
:10523000A36684F821502D4B2EE0012180B201F0AD
:105240009AFF94F91C00012180B201F083FF284BE2
:1052500093F90000431C04D101F0BAFF00F086FD71
:1052600011E0012180B201F075FF224B93F900009B
:10527000012180B201F06EFF1F4B93F90000002165
:1052800080B201F067FF237F84F82130002384F887
:1052900022301A4BA3661A4BE3661A4B236704F1BC
:1052A0002000FFF710F8E0B9042384F859300223F6
:1052B00084F8583084F85B304FF4A0730120032247
:1052C000A4F8603096236074A07484F85A20E074C7
:1052D0002074A4F8623084F85E00207584F86400BD
:1052E00038BD002038BD00BF8D510D00CD4F0D00E1
:1052F000C9E30320CAE30320C8E303200D510D00D6
:1053000091500D00C94F0D0030B50123044680F8BF
:105310006430A37C407C87B00BB140F00400E37C98
:105320000BB140F00200237C0BB140F01000237D54
:105330000BB140F0C80004F120052946FFF7E3F85F
:1053400008B100204FE02846FFF79EF80028F8D16A
:1053500029460DF10200FFF753FABDF802004000A4
:1053600000F0A6FF294601A8FFF77EFA0028E8D141
:10537000637C5BB1BDF9080003F080FB00221B4B8E
:1053800003F00CFD03F0D8FE206001E0184B236011
:10539000A37C53B1049803F061FB0022154B03F08A
:1053A000FDFC03F0C9FEA06001E0114BA360E37CAB
:1053B00033B1DDED037AF8EE677AC4ED017A01E0EE
:1053C0000B4B6360207D68B19DF80430DB0645BF60
:1053D000DDED057AF8EE677A0023C4ED037A58BF55
:1053E000E36000E0012007B030BD00BF000059407D
:1053F0000000C07F00408F4010B50446FFF784FFD7
:1054000094ED000A10BD10B50446FFF77DFF94ED42
:10541000010A10BD0000000010B504462DED028BFE
:10542000B0EE408AFFF770FFD4ED016A9FED147A69
:10543000C6EE877A87EE887A17EE100A03F030FB03
:105440009FED0B1B41EC100B02F08EF8002053EC8B
:10545000102B0C4903F0C4F907A3D3E9002303F090
:1054600073FB03F069FEBDEC028B00EE100A10BD69
:10547000EBE2361AC05BC83F0000000040A5E540E3
:105480000000C8420000F03F10B50446FFF73CFFA3
:1054900094ED020A10BDA0F86010A0F8622001B1DE
:1054A0000AB9002300E0012380F85E300375012073
:1054B00070470529034607D880F85910012009B91B
:1054C0005974704758747047002070470529034687
:1054D00007D880F85810012009B99974704798745A
:1054E0007047002070470529034607D880F85A10F6
:1054F000012009B9D9747047D874704700207047EB
:105500000729034607D880F85B10012009B91974F0
:105510007047187470470020704700F079B9000098
:1055200010B5054B0360037C04461BB9406808B105
:1055300000F09AFB204610BD94970D0010B504466C
:10554000FFF7EEFF2046142101F0B0FE204610BD0B
:1055500010B5034B03600446FFF7E2FF204610BD81
:10556000A4970D0010B50446FFF7F2FF2046302146
:1055700001F09CFE204610BD00230122C360436160
:105580000276437680F82A3070470000002310B579
:10559000C36001230374054B03604FF0FF33416088
:1055A0008260C362FFF7E8FF10BD00BFA4970D0043
:1055B000C368826810B593423FBF42685C1CC460F8
:1055C000D15424BF012380F82A3010BD10B543699F
:1055D000044643B100EB4303597E09B1FFF7E8FFEE
:1055E0006369013B6361A368E068616898424FF0BA
:1055F00000022ABF5B180A5403F8012C10BD70B5D5
:105600000446C068A56866682D1A134630440A46E9
:10561000294600F031FB85422DBFE368A368E360B3
:10562000C01836BF0123E06084F82A3070BD0EB484
:1056300003B503AA52F8041B0192FFF7E0FF02B082
:105640005DF804EB03B070472DE9F04104460E46C7
:10565000174612B12221FFF7ABFF0025715D06EB63
:105660000508002971D0E268A3689A426DD20B0642
:1056700033D501F0F003E02B17D198F8013003F097
:10568000C002802A11D105F1020816F8082002F0A4
:10569000C000802809D102F03F029B0142EA01329A
:1056A00003F47C631A4392B211E001F0E003C02BD3
:1056B00046D105F1010816F8083003F0C002802A2F
:1056C0003ED1890101F4F86203F03F031A432349F4
:1056D0002046FFF7ACFF454635E00C2918D00BD823
:1056E000092921D00A2919D0082929D15C2120466D
:1056F000FFF75EFF622123E022291BD05C2919D02D
:105700000D291DD15C212046FFF752FF722117E0C1
:105710005C212046FFF74CFF662111E05C2120460A
:10572000FFF746FF6E210BE05C212046FFF740FFAC
:10573000742105E05C212046FFF73AFF98F800103D
:105740002046FFF735FF013588E72FB1204622219B
:10575000BDE8F041FFF72CBFBDE8F081B5970D0023
:10576000426900EB42031A7E12B100221A7670479A
:105770002C21FFF71DBFF8B543690133082B0E46F6
:1057800017460ED8FFF7ECFF43695A1C00EB4303A2
:105790000124426131469C76DF76FFF709FF2046FF
:1057A000F8BD0020F8BD000037B5044610EE100A21
:1057B000E56A002D0ADB03F073F92A46CDE9000102
:1057C00008492046FFF733FF03B030BD03F068F906
:1057D0000B4605490246204603B0BDE83040FFF7BE
:1057E00026BF00BFC7970D00CC970D0000F010B882
:1057F00008B5024B1B689B68019308BD6802030053
:1058000008B5024B1B68DB68019308BD6802030002
:1058100008B5024B1B681B68019308BD2C020300EE
:1058200008B5024B1B689B68019308BD2C0203005E
:1058300008B5024B1B68DB68019308BD2C0203000E
:1058400008B5024B1B681B69019308BD2C020300BD
:1058500008B5024B1B685B69019308BD2C0203006D
:1058600008B5024B1B681B68019308BD300203009A
:1058700008B5024B1B689B68019308BD300203000A
:1058800008B5024B1B68DB68019308BD30020300BA
:1058900008B5024B1B681B69019308BD3002030069
:1058A00008B5024B1B685B69019308BD3002030019
:1058B00008B5024B1B68DB69019308BD3002030089
:1058C00008B5024B1B681B6A019308BD3002030038
:1058D00008B5024B1B685B6A019308BD30020300E8
:1058E00008B5024B1B681B6C019308BD3002030016
:1058F00008B5024B1B685B6C019308BD30020300C6
:1059000008B5024B1B685B68019308BD18020300D1
:1059100008B5024B1B685B69019308BD18020300C0
:1059200008B5024B1B689B68019308BD4802030041
:1059300008B5024B1B681B69019308BD48020300B0
:1059400008B5024B1B685B69019308BD4802030060
:1059500008B5024B1B685B6C019308BD480203004D
:1059600008B5024B1B689B6C019308BD48020300FD
:1059700008B5024B1B685B69019308BD6402030014
:1059800008B5024B1B681B68019308BD3C0203006D
:1059900008B5024B1B68DB68019308BD3C0203009D
:1059A00008B5024B1B681B69019308BD3C0203004C
:1059B00008B5024B1B685B69019308BD3C020300FC
:1059C00008B5024B1B689B69019308BD3C020300AC
:1059D00008B5024B1B68DB69019308BD3C0203005C
:1059E00008B5024B1B681B6A019308BD3C0203000B
:1059F00008B5024B1B689B6A019308BD3C0203007B
:105A000008B5024B1B68DB68019308BD2802030040
:105A100008B5024B1B689B69019308BD280203006F
:105A200008B5024B1B68DB69019308BD280203001F
:105A300008B5024B1B681B6A019308BD28020300CE
:105A400008B5024B1B685B6A019308BD280203007E
:105A500008B5024B1B689B6A019308BD280203002E
:105A600008B5024B1B68DB6A019308BD28020300DE
:105A700008B5024B1B681B6B019308BD280203008D
:105A800008B5024B1B685B6B019308BD280203003D
:105A900008B5024B1B681B6C019308BD280203006C
:105AA00008B5024B1B681B6D019308BD280203005B
:105AB00008B5024B1B681B68019308BD4C0203002C
:105AC00008B5024B1B685B68019308BD4C020300DC
:105AD00008B5024B1B681B69019308BD4C0203000B
:105AE00008B5024B1B685B69019308BD4C020300BB
:105AF00008B5024B1B689B69019308BD4C0203006B
:105B000008B5024B1B68DB69019308BD4C0203001A
:105B100008B5024B1B681B6A019308BD4C020300C9
:105B200008B5024B1B685B68019308BD20020300A7
:105B300008B5024B1B685B69019308BD2002030096
:105B400008B5024B1B68DB6C019308BD2002030003
:105B500008B5024B1B685B6D019308BD2002030072
:105B600008B5034B1B68D3F88830019308BD0000CB
:105B70002002030008B5034B1B68D3F8943001934F
:105B800008BD00002002030008B5024B1B685B68DB
:105B9000019308BD4002030008B5024B1B689B68D7
:105BA000019308BD4002030008B5024B1B68DB6887
:105BB000019308BD4002030008B5024B1B681B6936
:105BC000019308BD4002030008B5024B1B685B69E6
:105BD000019308BD4002030008B5024B1B689B6996
:105BE000019308BD4002030008B5024B1B68DB6946
:105BF000019308BD4002030008B5024B1B681B6AF5
:105C0000019308BD4002030008B5024B1B681B6BE3
:105C1000019308BD4002030008B5024B1B685B6B93
:105C2000019308BD4002030008B5024B1B685B6985
:105C3000019308BD4402030008B5024B1B681B6AB0
:105C4000019308BD4402030008B5024B1B68DB6BDF
:105C5000019308BD4402030008B5024B1B681B6892
:105C6000019308BD1C02030008B5024B1B685B686A
:105C7000019308BD1C02030008B5024B1B685B6A58
:105C8000019308BD1C02030008B5024B1B68DB6AC8
:105C9000019308BD1C02030008B5024B1B681B6B77
:105CA000019308BD1C02030008B5024B1B68DB6BA7
:105CB000019308BD1C020300002211464068FFF753
:105CC0009BBF002211464068FFF7A6BF0022406834
:105CD000FFF79ABF002281F001014068FFF784BFFF
:105CE00000231A4619464068FFF776BF00231A467C
:105CF00019464068FFF768BF002211464068FFF769
:105D00005BBF002211464068FFF746BF0022022118
:105D10004068FFF749BF00231A464068FFF734BFC9
:105D2000024B03225A60024A1A607047CCE30320F8
:105D3000E4970D00704710B50C21044601F0B6FA47
:105D4000204610BD0021FFF7CBBD0021FFF7D0BDDD
:105D500010B5054B0360044601710846FFF7A8FD26
:105D60000023A360204610BD18980D0010B504460E
:105D70000079FFF7E7FF48B920794FF6FF71FFF789
:105D80006FFD2079BDE81040FFF7DFBF10BD38B5CB
:105D9000044600790D46FFF7D5FF40B92079294622
:105DA000FFF766FD2079BDE83840FFF7CEBF38BD6C
:105DB00038B5044600790D46FFF7C4FF40B9207995
:105DC0002946FFF75DFD2079BDE83840FFF7BDBFEC
:105DD00038BD0079FFF7B9BF400830B5186000241E
:105DE00018688842E5B206D90134082C02D0400870
:105DF0001860F5E70725024B5B5D137030BD00BFEF
:105E000020980D002DE9F04188B000230446007968
:105E100002930E461746FFF795FF054600BB94F820
:105E200004800146142203A803F0B3FB0B232A4687
:105E300003A94046ADF80C30FFF74AFD02AB0DF167
:105E4000070207FB06F104988DF80750FFF7C4FF1F
:105E500020799DF80710FFF71BFD2079FFF775FFEC
:105E6000029808B0BDE8F08138B5044600790D46C7
:105E7000FFF768FFC8B9A16871B10C4BC25CAA42B8
:105E800002D001300828F9D10130C0B2C14001224E
:105E90002046FFF7B7FF03E029462079FFF7F8FC1B
:105EA0002079BDE83840FFF750BF38BD20980D007D
:105EB00038B5044600790D46FFF744FF40B929463E
:105EC0002079FFF7EDFC05462079FFF73EFF00E063
:105ED0000025E8B238BD0079FFF7F2BC10B50446E2
:105EE000006818B1FFF7C0FE0023236010BD10B595
:105EF0000446FFF7F3FF204610BD000010B5094C23
:105F000000204FF6FF732060A080A0712081638184
:105F1000FFF706FE2046044A0449BDE8104001F0A0
:105F2000B7B900BFD4E3032030E30320EF5E0D00D8
:105F300010B50446006808B1FFF712FD204610BDF9
:105F400010B5036804469B689847A368013BA360AB
:105F50002BB923682046DB68BDE81040184710BD08
:105F60000B68036013B15A6801325A60704710B56C
:105F70000446006828B14368013B43600BB9FFF752
:105F8000DFFF204610BD000010B5064C0023204660
:105F90002360FFF7DDFC2046034A0449BDE81040BA
:105FA00001F076B9E0E3032030E30320315F0D0018
:105FB000F8B506460D468F180024BD420CD0336854
:105FC00015F8011B9B6830469847002801DB044404
:105FD000F3E7002C08BF04462046F8BD70B505461F
:105FE0000C46084649B103F020FB2B6802462146C7
:105FF0002846DB68BDE87040184770BD08B5FFF75C
:10600000EDFF08BD03689B68184738B50D210546AC
:10601000FFF7F8FF0A2104462846FFF7F3FF204464
:1060200038BD38B50546FFF7D9FF04462846FFF7C7
:10603000ECFF204438BD30B58BB00B4600218DF805
:106040002410012A98BF0A220DF12304B3FBF2F5B4
:1060500005FB123303F0FF03092B94BF30333733B2
:10606000DBB2214604F801392B46002DEED1FFF7B3
:10607000B5FF0BB030BD00002DE9F04757EC106BB9
:1060800082460D4610EE102A3B4610EE100A3946A5
:1060900002F0F4FF08B14E4912E027F000494FF03A
:1060A000FF324C4B3046494602F0E8FF68B94FF0EA
:1060B000FF32484B3046494602F0C2FF28B94649F4
:1060C0005046FFF78BFFBDE8F0874FF06042434B2F
:1060D0003046394602F0C8FF08B14149F0E74FF0B9
:1060E0006042404B3046394602F0A0FF0028F4D110
:1060F000002200233046394602F098FF40B12D219E
:106100005046FFF77FFF07F1004304461F4600E0BB
:10611000044635494FF0000800205FFA88F39D429D
:1061200006D90022314B02F039FE08F10108F4E7EC
:1061300032463B4602F056FB0F46064602F0DCFFB5
:106140000A22014680465046FFF775FF0444E5B336
:10615000404602F083FC02460B463046394602F0C8
:106160003FFB06460F4650462149FFF737FF0444E0
:1061700000221E4B3046394602F0E6FC06460F462A
:1061800002F092FFB0F1000907DA2D215046FFF727
:1061900039FFC9F10001804602E049464FF000088E
:1061A0000A225046FFF747FF40440444484602F0A5
:1061B00065FC02460B463046394602F011FB013DB4
:1061C00015F0FF0506460F46D2D12046BDE8F08700
:1061D00028980D00FFFFEF7F32980D00FFFFEF4181
:1061E0002C980D00FFFFEFC10000E03F00002440AD
:1061F00030980D0038B5044610EE100ACDB202F00A
:106200004FFC41EC100B29462046BDE83840FFF713
:1062100033BFC9B2FFF730BF0CB42DE9F04387B0EC
:1062200000AF07F13804054654F8049B3C600E4665
:1062300023464A461421381DFFF71EFD132805D8B2
:10624000391D2846FFF7CAFE044613E000F1080393
:1062500023F00703E846ADEB030D411C23464A46F5
:1062600068463C60FFF708FD69462846FFF7B6FE22
:106270000446C5461EB12846FFF7C7FE0444204623
:106280001C37BD46BDE8F04302B07047014B024ADF
:106290001A607047E4E30320A6980D00024B1A68C9
:1062A000024B1A60704700BFC4E20320E8E30320FA
:1062B0000021FFF73DBC10B58368044613B10322EB
:1062C00001469847204610BD10B50446FFF7F3FF7E
:1062D000204610BD13B50B46044603C88DE80300E5
:1062E00093E8030084E803009DE8030083E80300CB
:1062F00002B010BD0348044A04490023836000F043
:10630000C7BF00BFECE3032030E30320C9620D00E8
:1063100008B50C4B33B100F01BFC03681B699847B0
:10632000002809DC084B63B100F094FC03681B698A
:106330009847002803DC08BDAFF30080F2E7AFF315
:10634000008008BD000000000000000008B5FFF755
:10635000DFFFFFF7DDFA014B186008BD30E70320CF
:106360000248034A0349121A03F008B900F4032053
:1063700004F40320589B0D0007B5002300931A4630
:106380006FF07701FFF7F6FB03B05DF804FB000048
:1063900007B543880A2B08D0502B09D1094B1B683D
:1063A0003BB103B05DF804EB1847FFF7E5FF06E0EB
:1063B000002300931A466FF07701FFF7DBFB03B071
:1063C0005DF804FBFCE3032038B5104C104D236846
:1063D000AB42104B0CBF012200221A7002D0FFF713
:1063E000BFFF2560FFF78CFA044603F0DBF80A4B89
:1063F00013B12046AFF3008000210748FFF724FCCB
:1064000000210648BDE83840FFF7AABB00F403208E
:106410001E1C279A00E403200000000091630D0079
:1064200070470020704710B51021044600F03EFF71
:10643000204610BD08B508B1FFF7F5FF08BD0022E2
:10644000026010B54FF69C728280B1F904408480DE
:106450008A8002680C6804600A6010BD10B50446AA
:106460000068FFF701FC204610BD38B5C468F4B1E0
:106470002378022B03D104F10C00FFF7EFFF6568CE
:1064800035B12846FFF717FF1021284600F00EFF10
:10649000A56835B12846FFF70EFF1021284600F009
:1064A00005FF20461421BDE8384000F0FFBE38BD8E
:1064B00013B5044691E8050000234B600B60206093
:1064C000626001A801930093FFF751FD204602B0DE
:1064D00010BDF7B50C4602AD54F8043B45F8083D35
:1064E00006460F4601A82146FFF73AFD29463046E9
:1064F000FFF7DEFF01A8FFF73AFD2046FFF737FD63
:106500003846082100F0D2FE304603B0F0BD00004E
:1065100038B500230446036010200D46FDF7BDFD8D
:1065200028B1012343608360024B0360C560206093
:10653000204638BD40990D00826810B50AB900F0B8
:10654000C8FEC368BDE81040184708B5006800F1F0
:106550001001FFF7F1FF08BD826810B50AB900F01D
:10656000B8FEC368BDE81040184708B5006800F1E0
:106570001001FFF7F1FF08BD38B5002383608B6879
:1065800004460D462BB102229847EB68E360AB68E6
:10659000A360204638BD0000F0B589B004686846A5
:1065A000FFF74DFF00238DF808304FF00202D4E8CA
:1065B0004F3F002B03D1C4E8412F0029F7D102D06F
:1065C0008DF8083063E014F10C0503D069462846C5
:1065D000FFF735FFBFF35F8F01236370002004F1E5
:1065E0000803BFF35F8F53E8006F43E80002002AFF
:1065F000F9D1BFF35F8F002E49D0FFF7A1FA20B188
:1066000029463046FFF798FF3AE0314602A8FFF7E7
:10661000B3FFE068B4F9105008B102F0EBFF069048
:106620001020ADF81C50FDF738FD0546E8B10027F5
:1066300087601820FDF731FD044688B10146876068
:1066400002A8FFF747FE049BA268A360059B049283
:1066500006A9E268E36004F110000592FFF7EFFE7F
:106660000D4BEB600D4B2C60AB6006A8FFF7F6FE00
:1066700002A8FFF720FE002229460948FFF768FA22
:106680003046FFF718FE1021304600F00FFE684636
:10669000FFF7E4FE09B0F0BD4B650D00C1670D00CA
:1066A000A16C0D002DE9F04F8BB006460F469046C9
:1066B00099469DF850A0FFF7B7FA07AD834630BB67
:1066C0004FF62E73059005A92846ADF81830FFF750
:1066D000B6FE1420FDF7E1FC044658B10223037016
:1066E00001234370C0F804B0C0F808B029460C304C
:1066F000FFF7A5FE3046214640F8044BFFF708FFA0
:106700002846FFF7ABFE05A8FFF7A8FE52E00024DD
:106710000C2314206C60AC600793FDF7BEFC0146AF
:1067200018B1047044704460846004A80391FFF7BA
:10673000EFFE224B08930820FDF7AFFC044628B17A
:10674000039B40F8043B04A9FFF70AFC00955FFA9D
:106750008AF34A46414638460994FFF76DFA20B954
:10676000039B5B7803F0FF0283B1039B059304A9AD
:1067700006A8FFF7F5FB05A93046FFF799FE06A826
:10678000FFF7F5FB04A8FFF7F2FB13E04FF69C734D
:1067900005A903A80592ADF81830FFF7FDFE05A87E
:1067A000FFF75CFE05A80999FFF793FE06A8FFF71F
:1067B000DEFBDAE730460BB0BDE8F08F31690D0043
:1067C000022AF8B5044606D0032A17D0012A22D19E
:1067D0000B6803601FE018200E68FDF75EFC05469D
:1067E00050B13146FFF7C8FE3069B6F9147008B1F0
:1067F00002F000FF2861AF8225600CE0046854B10C
:1068000004F11000FFF72AFE2046FFF754FD18217F
:10681000204600F04BFD0020F8BD38B50023836012
:106820008B6804460D462BB102229847EB68E36063
:10683000AB68A360204638BD022A70B5044606D076
:10684000032A11D0012A18D10B68036015E0142027
:106850000E68FDF722FC054620B13146FFF7DDFF4B
:10686000337C2B74256008E0046834B12046FFF7C0
:1068700022FD1421204600F019FD002070BD00000B
:10688000F0B5002387B00C46BFF35F8F50E8006F70
:1068900040E80032002AF9D1BFF35F8F002E3FD0CD
:1068A0001846FFF74DF9074620B121463046FFF75D
:1068B00053FE2EE0314601A8FFF7AFFF23788DF895
:1068C00014301020FDF7E9FB0546D0B18760142095
:1068D000FDF7E3FB044678B18760014601A8FFF7A6
:1068E000F9FC039BA268A360049B0392E268E36047
:1068F0009DF81430049223740A4BEB600A4B2C6011
:10690000AB6001A8FFF7D7FC002229460748FFF734
:106910001FF93046FFF7CFFC1021304600F0C6FCCF
:1069200007B0F0BD6B650D0039680D00A16C0D005E
:1069300030B585B004460D4668461146FFF7C9FDDF
:106940007CB124B228460DB102F054FE029002A997
:106950006846ADF80C40FFF71FFE02A8FFF77EFD6A
:106960001DE000988DF808404FF00102D0E84F3F3D
:10697000A34203D1C0E8412F0029F7D102D08DF8FE
:1069800008300CE010F10C014FF0010318BF037345
:10699000BFF35F8F043000F8033CFFF771FF01A8DD
:1069A000FFF7E5FA05B030BD704710B51821044671
:1069B00000F07CFC204610BDF0B5037D062B8DB0A9
:1069C0000E4600F104074FF0000402D000F1080564
:1069D00018E00CAD394605F8304D2F232A460A2021
:1069E000FEF7C6FF284602F020FE33680246DB6849
:1069F0002946304698470FE024B12E213046FFF754
:106A000001FB044415F8011D0A223046FFF713FB71
:106A1000BD420444F0D120460DB0F0BD10B5054B89
:106A20000446112240F8043B002102F0B2FD20464A
:106A300010BD00BF5C990D000346074A10B543F82E
:106A4000042B01F1100251F8044B43F8044B91421E
:106A5000F9D10A781A7010BD5C990D0010B59DF837
:106A6000084044EA032343EA024242EA0161042364
:106A70004160037510BD37B50D788B784A78C978B9
:106A800000912946FFF7EAFF03B030BD417470471B
:106A9000704708B50021007CFFF72AF830EA200093
:106AA00028BF4FF0FF3008BD08B50121007CFFF77B
:106AB0001FF830EA200028BF4FF0FF3008BD08B5AE
:106AC000007CFFF70DF820EAE07008BD08B5007CF7
:106AD000FEF7FEFF20EAE07008BD007CFFF718B863
:106AE00010B51421044600F0E1FB204610BD38B576
:106AF0000446007C0D46FEF7F3FF002801DC607CB5
:106B000028B12946207CFEF7FBFF20EAE07038BD63
:106B100010B50446002363604FF47A73A360054BFD
:106B2000236001230846217463741146FEF7C0FFF9
:106B3000204610BD70990D000022007CFEF7C0BFFA
:106B400010B514220446002102F023FD204610BD9A
:106B500030B50E4D87B001A8FFF7F2FF296811F09C
:106B6000010410D12846FDF79EFA60B101AA214622
:106B70000748FFF7CDFF2846FDF79AFA054A064970
:106B8000034800F085FB024807B030BD04E4032051
:106B900008E4032030E30320916A0D00704741743C
:106BA000704708B5007CFEF723FF20EAE07008BDBF
:106BB00008B5007CFEF7F4FE20EAE07008BD08B5D9
:106BC000007CFEF7FDFE30EA200028BF4FF0FF30CA
:106BD00008BD08B5007CFEF7EBFE30EA200028BFB8
:106BE0004FF0FF3008BD007CFEF7F2BE10B5142157
:106BF000044600F05BFB204610BD70B5457C0446A2
:106C00000E4625B9007CFEF7F3FE002805DD31466F
:106C1000207CBDE87040FEF7BBBE284670BD00007A
:106C200010B5044608461146002262604FF47A729D
:106C3000A260054A22600122207462741A46FEF79F
:106C40009FFE204610BD00BFA0990D00007CFEF7FE
:106C5000C7BE000038B50C4D296811F0010411D1F0
:106C60002846FDF720FA68B1084A094B0948214631
:106C7000FFF7D6FF2846FDF71BFA074A07490548E4
:106C800000F006FB034838BDB4E40320B8E4032059
:106C900030E403201CE4032030E303209D6B0D004F
:106CA00010B5836804460BB900F013FBC36898471E
:106CB000A3681BB103222146204698472046102195
:106CC000BDE8104000F0F2BA7047F8B50646154628
:106CD0000C468F18BC4206D0336814F8011B9B6821
:106CE00030469847F6E72846F8BD0022007CFEF7BC
:106CF0009FBE0021007CFEF7A3BE0021007CFEF7B2
:106D0000A7BE0021007CFEF7ABBE0021007CFEF791
:106D1000AFBE10B51421044600F0C8FA204610BDDD
:106D200010B50446002363604FF47A73A360044BEC
:106D30002174084623601146FEF7AAFE204610BDC6
:106D4000D0990D0000231A461946007CFEF758BE64
:106D500070B50C4686B0142506462A46002101A8C7
:106D600002F017FC23788DF8083063680393E3681A
:106D700004930022237A307CADF8045001A90593D6
:106D8000FEF78EFE06B070BD1FB500338DF8001003
:106D90004FF06401039118BF0123694601928DF8F9
:106DA0000830FFF7D5FF05B05DF804FB0123FFF7BE
:106DB000EBBF0022007CFEF72BBE0022007CFEF71A
:106DC0002FBE0121FFF7F9BF0021007CFEF758BE5E
:106DD000002211464068FEF70FBF002211464068AE
:106DE000FEF71ABF00224068FEF70EBF002281F0B6
:106DF00001014068FEF7F8BE00231A4601214068F1
:106E0000FEF7EABE00231A4619464068FEF7DCBECC
:106E1000002211464068FEF7CFBE002211464068AE
:106E2000FEF7BABE002202214068FEF7BDBE002375
:106E30001A464068FEF7A8BE38B5054688B1046812
:106E40004CB1A3681BB1032221462046984710216C
:106E5000204600F02BFA28461421BDE8384000F007
:106E600025BA38BD10B103685B681847704710B584
:106E700003680446BBB15868FEF752FD78B9236831
:106E80005A7C12B95868FEF753FD23685868FEF71C
:106E900057FD20680023236028B1FFF7CDFF20684D
:106EA00008B1FFF7C9FF204610BD38B50446D0F839
:106EB000C40108B1FDF7F5F8D4F8C00108B1FEF738
:106EC0004FFDD4F8BC5135B12846FFF7D0FF04215F
:106ED000284600F0EBF9206808B1FFF7C3FF204611
:106EE00038BD000010B5044B044640F8083BFFF7DE
:106EF000DCFF204610BD00BFF8990D0038B50E4CE0
:106F00000E4B23600025022304F5E4706360A56046
:106F1000C4F8C451C4F8C851FEF71AFD084BC4F8B0
:106F2000CC5184F8D05123602046064A0649BDE87A
:106F3000384000F0ADB900BF3CE50320609A0D0079
:106F4000F8990D0030E30320E56E0D000022114694
:106F50004068FEF731BE002211464068FEF74CBE85
:106F6000002211464068FEF757BE00224068FEF737
:106F70004BBE002281F001014068FEF735BE0023C0
:106F80001A4619464068FEF727BE00231A461946DE
:106F90004068FEF719BE002211464068FEF7FCBDAE
:106FA000002202214068FEF7FFBD00231A46406818
:106FB000FEF7EABD024B04225A60024A1A6070478B
:106FC00010E703202C9A0D0000231A464068FEF7B4
:106FD000DBBD002202214068FEF7E6BD002211461B
:106FE0004068FEF7D9BD002211464068FEF7E4BDB7
:106FF00000231A4619464068FEF7E6BD00231A46EC
:1070000019464068FEF7E8BD002281F001014068A2
:10701000FEF7EABD00224068FEF7F6BD00221146E9
:107020004068FEF7F9BD002211464068FEF7E4BD56
:107030002DE9F043002495B016460D460746FFF7AC
:10704000EDFC214620220CA8009402F0A2FA402375
:107050000C9321466B460CAA3046FEF7D1FB044642
:10706000002844D1024601216868FEF7A5FD0221EF
:10707000804622466868FEF79FFD009E81462146B5
:10708000002E34D0002932D17368022B02D00A2B93
:1070900009D02AE0B8F1000F27D0716938460431D1
:1070A000FFF7E9FC20E0B9F1000F1ED0746911224E
:1070B00001A802F06EFA06238DF8143001AD04F138
:1070C00008031834186859682A4603C20833A342D3
:1070D0001546F7D101A906A807ADFFF7ADFC0FCD06
:1070E0003C1D0FC42B6823700121F669C8E7009886
:1070F000FEF77EFB384615B0BDE8F083024B034A2D
:107100001A6000225A60704718E70320609A0D0049
:1071100010B5044600F05CF8FEF7DDFE28B1A4F1DE
:107120000B03022B01D8002010BD00F08BF8FFF7F5
:107130004BFE08B1012CF6D9FFF78CFDFFF786FD59
:1071400018B1A4F10903012BEDD9232C8CBF002029
:10715000012010BD232838B504460D460AD8FF2962
:1071600008D0FFF7D5FF28B129462046BDE83840B2
:10717000FEF756BB38BD38B504460D46FEF758FB42
:10718000FF2810D0062804D84D2323FA00F0C307A7
:1071900009D42046FFF7BCFF28B129462046BDE8A8
:1071A0003840FEF74DBB38BD10B50446FEF740FB36
:1071B0000438C0B2012808D92046FFF7A9FF20B142
:1071C0002046BDE81040FEF743BB002010BD000084
:1071D00038B50B4D296811F001040FD12846FCF792
:1071E00062FF58B121460748FEF7B2FD2846FCF77A
:1071F0005FFF054A0549034800F04AF8014838BDD9
:107200002CE7032020E7032030E30320355D0D0049
:1072100070B5044614252A46094E002102F0B9F93A
:10722000258020253146A5602561284600F040F8DC
:1072300031466060284600F03BF8E060204670BDB3
:107240008C9A0D0030B50E4D296811F0010487B0FD
:1072500013D12846FCF727FF78B101A8FFF7D8FF24
:1072600001AA21460748FFF75BFD2846FCF720FFEF
:10727000054A0649034800F00BF8024807B030BD44
:1072800034E7032038E7032030E30320C96C0D0006
:107290000B460146184602F063B90000024B18681D
:1072A000BFF35F8F704700BF4CE70320FCF7F7BECA
:1072B00000F000B810B5002814BF04460124204691
:1072C000FEF7CAFC20B9FFF7E9FF08B18047F6E7EF
:1072D00010BD08B5FEF7D8FC184B1A68D1075CBF83
:1072E00001221A60164B1A68D2075CBF01221A608D
:1072F000144B1A68D0075CBF01221A60124B1A683F
:10730000D1075CBF01221A60104B1A68D2075CBF1C
:1073100001221A600E4B1A68D0075CBF01221A6066
:107320000C4B1A68D1075CBF01221A600A4B1A681D
:10733000D2075CBF01221A60704700BF6CE70320D0
:1073400068E7032064E7032060E703205CE703208D
:1073500058E7032054E7032050E70320244B1A6822
:10736000D0075CBF01221A60224B1A68D1075CBFAC
:1073700001221A60204B1A68D2075CBF01221A60F2
:107380001E4B1A68D0075CBF01221A601C4B1A689A
:10739000D1075CBF01221A601A4B1A68D2075CBF82
:1073A00001221A60184B1A68D0075CBF01221A60CC
:1073B000164B1A68D1075CBF01221A60144B1A6879
:1073C000D2075CBF01221A60124B1A68D0075CBF5B
:1073D00001221A60104B1A68D1075CBF01221A60A3
:1073E0000E4B1A68D2075CBF01221A60704700BFBB
:1073F0009CE7032098E7032094E7032090E703200D
:107400008CE7032088E7032084E7032080E703203C
:107410007CE7032078E7032074E7032070E703206C
:10742000244B1A68D0075CBF01221A60224B1A68ED
:10743000D1075CBF01221A60204B1A68D2075CBFDB
:1074400001221A601E4B1A68D0075CBF01221A6025
:107450001C4B1A68D1075CBF01221A601A4B1A68CC
:10746000D2075CBF01221A60184B1A68D0075CBFB4
:1074700001221A60164B1A68D1075CBF01221A60FC
:10748000144B1A68D2075CBF01221A60124B1A68AB
:10749000D0075CBF01221A60104B1A68D1075CBF8D
:1074A00001221A600E4B1A68D2075CBF01221A60D3
:1074B000704700BFCCE70320C8E70320C4E70320E0
:1074C000C0E70320BCE70320B8E70320B4E70320AC
:1074D000B0E70320ACE70320A8E70320A4E70320DC
:1074E000A0E70320184B1A68D1075CBF01221A607D
:1074F000164B1A68D2075CBF01221A60144B1A6837
:10750000D0075CBF01221A60124B1A68D1075CBF1A
:1075100001221A60104B1A68D2075CBF01221A6060
:107520000E4B1A68D0075CBF01221A600C4B1A6818
:10753000D1075CBF01221A600A4B1A68D2075CBFF0
:1075400001221A60704700BFECE70320E8E7032040
:10755000E4E70320E0E70320DCE70320D8E703208B
:10756000D4E70320D0E703202DE9F04F2DED028B67
:10757000DFF824A38BB057EC106B55EC114B00F0E7
:107580008FF99AF90080B0EE408AF0EE608AB8F187
:10759000FF3F48D022462B462046294601F06EFD8B
:1075A000834600283FD132463B463046394601F0FB
:1075B00065FD8146002840F0908030463946002223
:1075C000002301F029FD002836D0002200232046A8
:1075D000294601F021FD8346B8B19FEDA57B01222C
:1075E000A94BCDF820900092CDE90267CDE9044582
:1075F0008DED067B0193B8F1000F5BD09FED9E0BE4
:107600000BB0BDEC028BBDE8F08F45EC104B00F0E9
:10761000A7FF40B1002200232046294601F006FDC5
:10762000002840F0C580B0EE480AF0EE680A0BB0C2
:10763000BDEC028BBDE8F08FB0EE480AF0EE680AB0
:1076400000F08EFF8046002861D04FF000084FF018
:10765000000951EC180B42464B4601F0DDFC0028B6
:10766000E1D047EC106B00F07BFF0028DBD045EC4D
:10767000104B00F075FF0028D5D09AF90030824AEF
:10768000019204210022022BCDE90267CDE90445D5
:10769000CDE906890091089203D0684600F068FFA2
:1076A00070B9FEF701FB2223036009E09FED707BB8
:1076B0008DED067B684600F05BFF002800F08E80B1
:1076C000089B1BB1FEF7F0FA089B03609DED060BCB
:1076D0000BB0BDEC028BBDE8F08F002200232046EA
:1076E000294601F099FC00289DD09FED630B664B65
:1076F000CDF820B00122B8F1020FCDE90267CDE943
:1077000004458DED060B8DE80C00D3D18FE747ECD7
:10771000106B00F025FF002897D045EC104B00F0CF
:107720001FFF002891D053EC182B18EE100A1946B1
:1077300001F0A4FC00287CD103239AF90080009377
:10774000514B0890CDE90267CDE904450193B8F1AA
:10775000000F48D1DFF844914FF060480022002329
:1077600030463946CDE9068901F060FC002894D006
:107770000022464B2046294601F0E6F904460D4614
:1077800045EC104B00F000FF204653EC102B29462F
:1077900001F042FC002849D13D4B9AF900804FF09E
:1077A0006042CDE90623B8F1020F7FF476AF78E7A7
:1077B000354A9AF90030CDF820B00121CDE90267B1
:1077C000CDE904458DE80600002B3FF46FAF314949
:1077D0000020022BCDE906017FF46CAFFEF764FABE
:1077E000212303606CE79FED267B002200233046B7
:1077F00039468DED067B01F019FC0028D3D000221C
:10780000224B2046294601F09FF904460D4645ECDF
:10781000104B00F0B9FE204653EC102B294601F026
:10782000FBFB18B91B4B0022CDE906239AF9008017
:10783000B9E7154B9AF90090CDF820800122CDE9E7
:107840000267CDE904458DE80C00B9F1000F3FF463
:107850002DAF002200231046194601F09FFAB9F11E
:10786000020FCDE90601B9D024E700BFAFF30080D5
:107870000000000000000000000000000000F03FD9
:10788000000000000000F07F909A0D000000E03F33
:10789000FFFFEFC70000F0FFC8E20320FFFFEF4744
:1078A0002DE9F04F51EC110B21F0004858EA00048B
:1078B00093B03CD053EC102B6D4E23F00044B442F7
:1078C00010EE10AA1D462BDC894611EE10EA26D0D8
:1078D000B04525DC664EB04577D0002D16461F46D4
:1078E000CDE9000175DB4FF0000BBEF1000F2DD18B
:1078F0005F4B984500F089805E4B98455ED0B9F1AA
:10790000804F00F0DE835C4B99451FD1002D1DDBBD
:1079100047EC106B13B0BDE8F04F00F049BD5AB111
:1079200004F1404404F5801454EA0A0306D19FEDA3
:107930004A0B13B0BDE8F08FA045CBDD4F4813B024
:10794000BDE8F04F00F018BE4FF0000B47EC106B95
:1079500000F0FEFD51EC100BBAF1000F1ED0ED0F40
:1079600005F1FF3A5BEA0A0363D0454B984540F3C3
:107970008D8003F10473984540F33884414B9C4259
:1079800062DDB9F1000F62DD35A3D3E900231046B3
:10799000194601F0D9F841EC100BCAE724B1354B78
:1079A00025F040429A42DAD1B9F1000FC0F2CB8300
:1079B000002DC0F2748341EC100BBAE7B9F1000F4F
:1079C000C0F27A8447EC106BB3E7BEF1000F84D0AD
:1079D000A6E72D4B984529DCA3F15473984582DD29
:1079E0004FEA2853A3F2FF33142B40F37F84C3F1F3
:1079F00034032EFA03F202FA03F39E457FF473AFC9
:107A000002F00102C2F1020B6FE704F1404303F5FB
:107A1000801353EA0A038AD01A4B9C4240F38583B1
:107A2000B9F1000F13DB9DED000B82E74FF0020B65
:107A30005BE732463B461046194600F0D1FE02464F
:107A40000B4601F0ABF9B6E7B9F1000F9CDB9FEDF7
:107A5000060B6EE7AFF30080000000000000F03F6F
:107A60009C7500883CE4377E0000000000000000A8
:107A70000000F07F0000F03F0000E03F949A0D000E
:107A80000000E041FFFFEF3FFFFF3F43B4F5801FE1
:107A90004FF0000205DAD64B01F056F86FF03402D1
:107AA0000C462315D34EC4F31304A3F2FF3313443F
:107AB00044F07F55B4421A460D9345F4401540F307
:107AC0004983CD4B9C4240F32D849FEDB37B8DEDDC
:107AD000087B8DED0E7B9FEDB27B13468DED067B13
:107AE00001330D93A5F580154FF00008DDE906235D
:107AF0002946CDE90A0100F073FEDDE906230646BA
:107B00000F46DDE90A0100F06DFE02460B4600203B
:107B1000BA4901F043F903460C46CDE91034024658
:107B20000B463046394601F00FF86B1043F0005316
:107B300003F5002303EB08050A4600230146CDE9BF
:107B400002120293DDE902890024CDE904122B46DA
:107B500022464046494600F0F7FF02460B463046B3
:107B6000394600F03DFEDDE9062306460F46204675
:107B7000294600F035FE02460B46DDE90A0100F019
:107B80002FFE42464B4600F0DFFF02460B463046D2
:107B9000394600F025FEDDE9102300F0D5FFDDE9D0
:107BA0000445CDE9060122462B462046294600F031
:107BB000CBFF7DA3D3E9002304460D4600F0C4FFAC
:107BC0007BA3D3E9002300F00DFE22462B4600F0F4
:107BD000BBFF79A3D3E9002300F004FE22462B4625
:107BE00000F0B2FF76A3D3E9002300F0FBFD2246AC
:107BF0002B4600F0A9FF74A3D3E9002300F0F2FDA7
:107C000022462B4600F0A0FF71A3D3E9002300F029
:107C1000E9FD224606460F462B462046294600F03F
:107C200093FF02460B463046394600F08DFF424630
:107C300004460D464B46DDE9040100F0D3FDDDE9C5
:107C4000062300F081FF22462B4600F0CBFD424682
:107C500006460F464B464046494600F075FF002257
:107C6000674BCDE90A0100F0BDFD32463B4600F00E
:107C7000B9FD02980D46044622462B464046494629
:107C800000F062FF0022804689465D4B204629466F
:107C900000F0A6FDDDE90A2300F0A2FD02460B4636
:107CA0003046394600F09CFDDDE9042300F04CFF2E
:107CB000224606460F462B46DDE9060100F044FF4A
:107CC00002460B463046394600F08CFD06460F460C
:107CD00002460B4640464946CDE9048900F082FD44
:107CE00002983DA3D3E9002304460D4600F02CFF83
:107CF000DDE90423804689462046294600F070FDD0
:107D000002460B463046394600F06AFD34A3D3E9FB
:107D1000002300F019FF34A3D3E9002306460F46E1
:107D20002046294600F010FF02460B4630463946F1
:107D300000F058FDDDE90E2300F054FD06460D98D5
:107D40000F4600F09BFE324604460D463B46404639
:107D5000494600F047FDDDE9082300F043FD2246D7
:107D60002B4600F03FFD029822462B46CDE902014A
:107D700000F036FDDDE9082300F032FD42464B46B7
:107D800000F02EFD02460B463046394600F028FD35
:107D90008046894636E000BF000000000000000079
:107DA000000000000000F03FEF4E454A287ECA3F29
:107DB00065DBC9934A86CD3F01411DA96074D13F5F
:107DC0004D268F515555D53FFFAB6FDBB66DDB3F71
:107DD000033333333333E33F000000E009C7EE3FA2
:107DE000FD033ADC09C7EE3FF5015B14E02F3EBE10
:107DF000000040438E98030079B60B000000F03F6E
:107E0000000008400BF1FF3353EA0A0300F08881B9
:107E10009FEDD77B8DED067BDDE900AB53465C46DD
:107E2000CDE9003400230093DDE9004550462246A9
:107E30002B46594600F0D4FCDDE9022300F084FE15
:107E4000524606460F465B464046494600F07CFED9
:107E500002460B463046394600F0C4FC22468046B6
:107E600089462B46DDE90201CDE9048900F06CFE6C
:107E70000B46024606460F464046494600F0B2FC15
:107E8000D54B994204460D468A4640F3238101F1C1
:107E90003F4303F5E003034340F01882B6A3D3E960
:107EA0000023DDE9040100F09DFC3246804689464E
:107EB0003B462046294600F093FC02460B464046CE
:107EC000494601F0D1F8002840F00082A8464FEA68
:107ED00028534FF48012A3F2FE3342FA03F35344C3
:107EE000C3F30A52BD4DA2F2FF321541C3F3130B87
:107EF0000020C2F1140423EA05014BF4801BBAF1FF
:107F0000000F02460B464BFA04FB30463946B8BF19
:107F1000CBF1000B00F064FC02460B4606460F4610
:107F2000DDE9040100F05EFC4FEA0B5A002494A343
:107F3000D3E9002320460D4600F006FE3246804677
:107F400089463B462046294600F04AFC02460B463D
:107F5000DDE9040100F044FC8BA3D3E9002300F029
:107F6000F3FD8BA3D3E9002306460F46204629469E
:107F700000F0EAFD02460B463046394600F032FC7E
:107F800006460F4602460B464046494600F02AFC8C
:107F900042464B4604460D4600F022FC02460B4684
:107FA0003046394600F01CFC2246804689462B4666
:107FB0002046294600F0C8FD77A3D3E900230646F2
:107FC0000F4600F0C1FD76A3D3E9002300F008FCC2
:107FD00032463B4600F0B8FD73A3D3E9002300F01E
:107FE00001FC32463B4600F0AFFD71A3D3E900230C
:107FF00000F0F6FB32463B4600F0A6FD6EA3D3E947
:10800000002300F0EFFB32463B4600F09DFD0246A8
:108010000B462046294600F0E3FB06460F46024683
:108020000B462046294600F08FFD0022CDE90001D5
:108030004FF080433046394600F0D2FB02460B46F3
:10804000DDE9000100F0AAFE424606460F464B4617
:108050002046294600F078FD42464B4600F0C2FB20
:1080600002460B463046394600F0BAFB22462B4604
:1080700000F0B6FB02460B460020594900F0B0FB69
:108080008A44BAF5801F02460B46C0F25B81514616
:10809000DDE9062300F058FD41EC100B49E404F142
:1080A000404404F5801454EA0B0300F03781BBF11F
:1080B000010F7FF480AC024601F1004343EC102B2A
:1080C00037E432463B463046394600F03DFD41EC50
:1080D000100B2EE4434B21F00048984540F31581E6
:1080E000414B0B4403430CD132463B4600F078FB36
:1080F00002460B46DDE9040100F0A2FF00283FF430
:10810000E6AE2FA3D3E90023DDE9060100F01CFD54
:108110002BA3D3E9002300F017FD41EC100B08E47A
:108120009FED297B8DED067B76E6B9F1000FBFF65A
:108130008EACDDE9003400EE103A04F1004300EEAD
:10814000903AFFF7F6BB02460B460020244900F0A8
:1081500025FE2DE49FED1E7B8DED087B8DED0E7BC6
:108160009FED037B4FF000088DED067BBEE400BF62
:10817000000000000000F03FFE822B654715973C91
:1081800000000000432EE63FEF39FAFE422EE63FA4
:10819000396CA80C615C20BED0A4BE726937663E03
:1081A000F16BD2C541BDBB3E2CDE25AF6A56113FF7
:1081B00093BDBE166CC1663F3E5555555555C53FDE
:1081C00059F3F8C21F6EA501000000000000F0BFC7
:1081D0000000000000000000FFFF8F40FFFF0F00C5
:1081E0000000F03FFFCB904000346F3F6C4B9C424F
:1081F0007FF72AAC6B4B9C423FF7C3AB0022694B25
:1082000000F0EEFA56A3D3E9002304460D4600F031
:108210009BFC55A3D3E90023804689462046294686
:1082200000F092FC0022CDE902015F4B2046294676
:1082300000F08AFC02460B464DA1D1E9000100F096
:10824000CFFA22462B4600F07FFC02460B46002068
:10825000564900F0C5FA22462B4606460F462046F0
:10826000294600F071FC02460B463046394600F0C4
:108270006BFC41A3D3E9002300F066FC02460B46E9
:10828000DDE9020100F0ACFA02460B4604460D4659
:108290004046494600F0A6FA42464B460020CDE94A
:1082A000020100F09DFA02460B462046294600F0E6
:1082B00097FA80468946A5E532463B460020394973
:1082C00000F06CFD41EC100BFFF733BB2CA3D3E99E
:1082D0000023DDE9060100F037FC29A3D3E90023E0
:1082E00000F032FC41EC100BFFF723BBBEF1000F96
:1082F0007FF42AABC3F1140348FA03F202FA03F342
:10830000984527D0F346FFF7F7BA284B98453FF733
:10831000DEADDDE900349A469B4607E602460B4691
:10832000FFF789BB9FED187B8DED087B9FED187BD8
:108330008DED0E7B9FED187B4FF480288DED067B35
:10834000FFF7D4BB584643EC102B00F0B1F951ECC9
:10835000100B9DE602F00102C2F1020BFFF7CCBA4E
:10836000000000604715F73F44DF5DF80BAE543E58
:10837000555555555555D53FFE822B654715F73F49
:108380009C7500883CE4377E0000004003B8E23F63
:1083900006D0CF43EBFD4C3E000000000000F83F4C
:1083A000FEFFEF3F0000F03F0000D03F0000E03F45
:1083B0002DE9F041654955EC104B0E462940B1427C
:1083C00000F09780002D2B4610EE102A74DD2F153B
:1083D0007FD0A7F2FF37C3F31303F90743F48013E9
:1083E00065D403EBD27100260B447F105200B646D1
:1083F00016204FF400110EEB01049C424FEAD27597
:108400004FEA420203DC1B1B04EB010E0E44013851
:1084100005EB43034FEA5101EDD1844620244FF090
:10842000004109E020D003EBD275013C4FEA510135
:108430002B444FEA420220D09E4501EB0C05F1DAB5
:10844000002D05EB010C09DBF0469542CEEB030352
:1084500000D9013B521B0844C646E4E7BCF1000FBB
:10846000F2DB0EF10108F0E795421ED8002D05EB76
:10847000010C50DB98460023ECE7134304D0421C68
:108480004DD000F00103184440087110F30701F1CA
:108490007F5101F5001148BF40F0004001EB075348
:1084A000024643EC102BBDE8F0817346BBE75B004E
:1084B00003EBD273520094E725F00041214328D00A
:1084C000ADBB2F46D30A153F5205002BFAD0DD0273
:1084D00028D4002100E001465B00DC0201F101002C
:1084E000F9D5C0F1200422FA04F423437F1A824014
:1084F0006FE710EE102A2B4610EE100A294600F006
:1085000023FB22462B4600F06DF941EC100BBDE831
:10851000F081BDE8F081BCF1000FA2DAAAE70136D4
:108520002046B2E720244FF0FF310020DBE710EEB9
:10853000102A2B462046294600F052F902460B46E7
:1085400000F02CFC41EC100BBDE8F0810000F07F46
:1085500053EC102B23F0004343EC102B704700BF6B
:1085600010EE903A43F0004000F58010C00F7047C5
:1085700000207047000000009FED010B704700BF16
:10858000000000000000F87FF0B553EC102BC3F39F
:108590000A56A6F2FF30132883B019464FEAD37467
:1085A00010EE105A2FDC002849DB3F4E064103EA4B
:1085B000060717432CD0760833401D430CD04FF4E8
:1085C0008023132821EA060643FA00F141EA060156
:1085D0000CBF4FF000450025344800EBC4042A4688
:1085E000D4E9004510462B46224600F0FBF8CDE9C1
:1085F000000122462B46DDE9000100F0F1F841ECD4
:10860000100B03B0F0BD332806DDB0F5806F42D00B
:1086100043EC102B03B0F0BDA6F213464FF0FF3031
:10862000F0400242F4D040080242D5D04FF08043DF
:1086300025EA000043FA06F646EA0005CCE723F0F7
:108640000040104310EE107AE2D0C3F3130007434A
:10865000784207431548590C3F0B490407F400279B
:1086600000EBC40047EA0103D0E900671946104651
:108670003B46324600F0B6F8CDE900013B463246B3
:10868000DDE9000100F0ACF821F0004343EAC471D9
:1086900041EC100BBEE710EE100A194600F0A2F8EC
:1086A00041EC100BB6E700BFFFFF0F00989A0D00DA
:1086B00053EC102B70B5C3F30A541946054614BB8E
:1086C00023F0004111432AD019460022384B394E7D
:1086D00010EE100A00F038FAB54202460B461FDBD6
:1086E000C1F30A54363C2C4440F2FE7084421FDC35
:1086F000002C2DDD21F0FF4121F4E00141EA04537B
:1087000043EC102B70BD40F2FF708442EBD110EEB1
:10871000100A194600F066F841EC100B70BD70BDF0
:108720001FA3D3E9002300F00FFA41EC100B70BD3A
:1087300043EC112B9FED1C0B00F040F81AA3D3E97A
:10874000002351EC100B00F0FFF941EC100B70BD51
:1087500014F1350F13DA4CF250318D4243EC112BEA
:10876000E8DC9FED0F0B00F029F80DA3D3E90023FF
:1087700051EC100B00F0E8F941EC100B70BD21F04A
:10878000FF4121F4E001363441EA04531046194612
:108790000022094B00F0D8F941EC100B70BD00BF6E
:1087A00059F3F8C21F6EA5019C7500883CE4377E22
:1087B00000005043B03CFFFF0000903C53EC102BF6
:1087C00011EE900A23F0004100F0004041EA00035E
:1087D00043EC102B704700BF81F0004102E000BF66
:1087E00083F0004330B54FEA41044FEA430594EA71
:1087F000050F08BF90EA020F1FBF54EA000C55EAAC
:10880000020C7FEA645C7FEA655C00F0E2804FEA7C
:108810005454D4EB5555B8BF6D420CDD2C4480EA5E
:10882000020281EA030382EA000083EA010180EA8E
:10883000020281EA0303362D88BF30BD11F0004FDC
:108840004FEA01314FF4801C4CEA113102D0404212
:1088500061EB410113F0004F4FEA03334CEA13334D
:1088600002D0524263EB430394EA050F00F0A78065
:10887000A4F10104D5F1200E0DDB02FA0EFC22FA60
:1088800005F2801841F1000103FA0EF2801843FA54
:1088900005F359410EE0A5F120050EF1200E012A45
:1088A00003FA0EFC28BF4CF0020C43FA05F3C01883
:1088B00051EBE37101F0004507D54FF0000EDCF1FC
:1088C000000C7EEB00006EEB0101B1F5801F1BD3A5
:1088D000B1F5001F0CD349085FEA30004FEA3C0CA9
:1088E00004F101044FEA445212F5800F80F09A809F
:1088F000BCF1004F08BF5FEA500C50F1000041EBA3
:10890000045141EA050130BD5FEA4C0C404141EBA6
:10891000010111F4801FA4F10104E9D191F0000FCD
:1089200004BF01460020B1FA81F308BF2033A3F150
:108930000B03B3F120020CDA0C3208DD02F1140C47
:10894000C2F10C0201FA0CF021FA02F10CE002F182
:108950001402D8BFC2F1200C01FA02F120FA0CFC7B
:10896000DCBF41EA0C019040E41AA2BF01EB0451C4
:10897000294330BD6FEA04041F3C1CDA0C340EDCC2
:1089800004F11404C4F1200220FA04F001FA02F305
:1089900040EA030021FA04F345EA030130BDC4F1C3
:1089A0000C04C4F1200220FA02F001FA04F340EAB8
:1089B0000300294630BD21FA04F0294630BD94F069
:1089C000000F83F4801306BF81F480110134013D50
:1089D0004EE77FEA645C18BF7FEA655C29D094EAC1
:1089E000050F08BF90EA020F05D054EA000C04BF3F
:1089F0001946104630BD91EA030F1EBF002100202A
:108A000030BD5FEA545C05D14000494128BF41F0C8
:108A1000004130BD14F580043CBF01F5801130BD2C
:108A200001F0004545F0FE4141F470014FF00000B7
:108A300030BD7FEA645C1ABF194610467FEA655C68
:108A40001CBF0B46024650EA013406BF52EA03350A
:108A500091EA030F41F4002130BD00BF90F0000FF8
:108A600004BF0021704730B54FF4806404F1320434
:108A70004FF000054FF0000150E700BF90F0000FED
:108A800004BF0021704730B54FF4806404F1320414
:108A900010F0004548BF40424FF000013EE700BFE4
:108AA00042004FEAE2014FEA31014FEA02701FBF74
:108AB00012F07F4393F07F4F81F06051704792F046
:108AC000000F14BF93F07F4F704730B54FF46074C0
:108AD00001F0004521F0004120E700BF50EA01020B
:108AE00008BF704730B54FF000050AE050EA0102B8
:108AF00008BF704730B511F0004502D5404261EB28
:108B000041014FF4806404F132045FEA915C3FF468
:108B1000DCAE4FF003025FEADC0C18BF03325FEA01
:108B2000DC0C18BF033202EBDC02C2F1200300FAB6
:108B300003FC20FA02F001FA03FE40EA0E0021FADB
:108B400002F11444C1E600BF70B54FF0FF0C4CF4C5
:108B5000E06C1CEA11541DBF1CEA135594EA0C0F7B
:108B600095EA0C0F00F0DEF82C4481EA030621EAB6
:108B70004C5123EA4C5350EA013518BF52EA0335F1
:108B800041F4801143F4801338D0A0FB02CE4FF0A3
:108B90000005E1FB02E506F00042E0FB03E54FF0D3
:108BA0000006E1FB03569CF0000F18BF4EF0010ECB
:108BB000A4F1FF04B6F5007F64F5407404D25FEAC7
:108BC0004E0E6D4146EB060642EAC62141EA55517A
:108BD0004FEAC52040EA5E504FEACE2EB4F1FD0CBC
:108BE00088BFBCF5E06F1ED8BEF1004F08BF5FEA3A
:108BF000500E50F1000041EB045170BD06F00046EC
:108C000046EA010140EA020081EA0301B4EB5C0498
:108C1000C2BFD4EB0C0541EA045170BD41F4801190
:108C20004FF0000E013C00F3AB8014F1360FDEBFB5
:108C3000002001F0004170BDC4F10004203C35DA91
:108C40000C341BDC04F11404C4F1200500FA05F314
:108C500020FA04F001FA05F240EA020001F00042B5
:108C600021F0004110EBD37021FA04F642EB06012B
:108C70005EEA430E08BF20EAD37070BDC4F10C0455
:108C8000C4F1200500FA04F320FA05F001FA04F219
:108C900040EA020001F0004110EBD37041F1000105
:108CA0005EEA430E08BF20EAD37070BDC4F1200510
:108CB00000FA05F24EEA020E20FA04F301FA05F278
:108CC00043EA020321FA04F001F0004121FA04F220
:108CD00020EA020000EBD3705EEA430E08BF20EAF0
:108CE000D37070BD94F0000F0FD101F0004640002A
:108CF00041EB010111F4801F08BF013CF7D041EAAC
:108D0000060195F0000F18BF704703F000465200AF
:108D100043EB030313F4801F08BF013DF7D043EA80
:108D20000603704794EA0C0F0CEA135518BF95EA36
:108D30000C0F0CD050EA410618BF52EA4306D1D1BD
:108D400081EA030101F000414FF0000070BD50EADC
:108D5000410606BF1046194652EA430619D094EA66
:108D60000C0F02D150EA013613D195EA0C0F05D150
:108D700052EA03361CBF104619460AD181EA0301A4
:108D800001F0004141F0FE4141F470014FF000005C
:108D900070BD41F0FE4141F4780170BD70B54FF0F7
:108DA000FF0C4CF4E06C1CEA11541DBF1CEA135577
:108DB00094EA0C0F95EA0C0F00F0A7F8A4EB050459
:108DC00081EA030E52EA03354FEA013100F0888050
:108DD0004FEA03334FF0805545EA131343EA126319
:108DE0004FEA022245EA111545EA10654FEA0026CE
:108DF0000EF000419D4208BF964244F1FD0404F587
:108E0000407402D25B084FEA3202B61A65EB0305E2
:108E10005B084FEA32024FF480104FF4002CB6EB9F
:108E2000020E75EB030E22BFB61A754640EA0C001F
:108E30005B084FEA3202B6EB020E75EB030E22BF5F
:108E4000B61A754640EA5C005B084FEA3202B6EBA0
:108E5000020E75EB030E22BFB61A754640EA9C005F
:108E60005B084FEA3202B6EB020E75EB030E22BF2F
:108E7000B61A754640EADC0055EA060E18D04FEAED
:108E8000051545EA16754FEA06164FEAC30343EA8D
:108E900052734FEAC2025FEA1C1CC0D111F4801F5A
:108EA0000BD141EA00014FF000004FF0004CB6E753
:108EB00011F4801F04BF01430020B4F1FD0C88BFF2
:108EC000BCF5E06F3FF6AFAEB5EB030C04BFB6EBFD
:108ED000020C5FEA500C50F1000041EB045170BDF0
:108EE0000EF0004E4EEA113114EB5C04C2BFD4EB1D
:108EF0000C0541EA045170BD41F480114FF0000EA1
:108F0000013C90E645EA060E8DE60CEA135594EA1C
:108F10000C0F08BF95EA0C0F3FF43BAF94EA0C0F1F
:108F20000AD150EA01347FF434AF95EA0C0F7FF494
:108F300025AF104619462CE795EA0C0F06D152EAE8
:108F400003353FF4FDAE1046194622E750EA4106CC
:108F500018BF52EA43067FF4C5AE50EA41047FF4DD
:108F60000DAF52EA43057FF4EBAE12E74FF0FF3C42
:108F700006E000BF4FF0010C02E000BF4FF0010C13
:108F80004DF804CD4FEA410C7FEA6C5C4FEA430C8C
:108F900018BF7FEA6C5C1BD001B050EA410C0CBFDB
:108FA00052EA430C91EA030F02BF90EA020F00203D
:108FB000704710F1000F91EA030F58BF994208BFA4
:108FC00090422CBFD8176FEAE37040F00100704761
:108FD0004FEA410C7FEA6C5C02D150EA013C07D1B8
:108FE0004FEA430C7FEA6C5CD6D152EA033CD3D003
:108FF0005DF8040B704700BF8446104662468C46FD
:109000001946634600E000BF01B5FFF7B7FF00282F
:1090100048BF10F1000F01BD4DF808EDFFF7F4FF58
:109020000CBF012000205DF808FB00BF4DF808EDE3
:10903000FFF7EAFF34BF012000205DF808FB00BF06
:109040004DF808EDFFF7E0FF94BF012000205DF828
:1090500008FB00BF4DF808EDFFF7CEFF94BF0120DD
:1090600000205DF808FB00BF4DF808EDFFF7C4FFD6
:1090700034BF012000205DF808FB00BF4FEA410C1F
:109080007FEA6C5C02D150EA013C0AD14FEA430C02
:109090007FEA6C5C02D152EA033C02D14FF000003F
:1090A00070474FF0010070474FEA410212F500127D
:1090B00015D211D56FF47873B3EB625212D94FEA1F
:1090C000C12343F0004343EA505311F0004F23FA09
:1090D00002F018BF404270474FF00000704750EA5E
:1090E000013005D111F0004008BF6FF0004070471B
:1090F0004FF00000704700BF4A0011D212F5001275
:1091000011D20DD56FF47873B3EB62520ED44FEADF
:10911000C12343F0004343EA505323FA02F070475F
:109120004FF00000704750EA013002D14FF0FF309D
:1091300070474FF0000070474FEA4102B2F1E04340
:1091400024BFB3F5001CDCF1FE5C0DD901F0004C2E
:109150004FEAC0024CEA5070B2F1004F40EB83007E
:1091600008BF20F00100704711F0804F21D113F1AA
:109170003872BCBF01F00040704741F480114FEAE3
:109180005252C2F11802C2F1200C10FA0CF320FA6C
:1091900002F018BF40F001004FEAC1234FEAD32389
:1091A00003FA0CFC40EA0C0023FA02F34FEA4303F3
:1091B000CCE77FEA625307D150EA01331EBF4FF07C
:1091C000FE4040F44000704701F0004040F0FE4097
:1091D00040F40000704700BF7BB972B90029BEBFE0
:1091E00000204FF0004106E008BF00281CBF6FF0D0
:1091F00000414FF0FF3000F0B1B9ADF1080C6DE95E
:1092000004CE002909DB002B1ADB00F035F8DDF86D
:1092100004E0DDE9022304B07047404261EB410104
:10922000002B1BDB00F028F8DDF804E0DDE9022369
:1092300004B0404261EB4101524263EB430370478B
:10924000524263EB430300F017F8DDF804E0DDE978
:10925000022304B0404261EB41017047524263EB8C
:10926000430300F009F8DDF804E0DDE9022304B06F
:10927000524263EB430370472DE9F0478C460E469C
:109280000446089D002B50D18A4217466CD9B2FA89
:1092900082FEBEF1000F0BD0CEF1200420FA04F4C0
:1092A00001FA0EF644EA060C02FA0EF700FA0EF482
:1092B0004FEA1749220CBCFBF9F01FFA87F809FBAB
:1092C00010C642EA064600FB08F3B34209D9F61974
:1092D00000F1FF3280F02281B34240F21F81023858
:1092E0003E44F61AA2B2B6FBF9F309FB136642EA52
:1092F000064403FB08F8A04509D9E41903F1FF323D
:1093000080F00A81A04540F20781023B3C44C8EB53
:10931000040443EA00400021002D62D024FA0EF438
:1093200000232C606B60BDE8F0878B4207D9002DCD
:1093300055D0002185E841000846BDE8F087B3FA22
:1093400083F1002940F09080B34202D3824200F2C0
:10935000F880841A66EB03060120B446002D40D045
:1093600085E81010BDE8F08712B90127B7FBF2F7C6
:10937000B7FA87FEBEF1000F35D1F31B4FEA17484D
:109380001FFA87FC0121B3FBF8F0220C08FB103612
:1093900042EA06460CFB00F3B34207D9F61900F186
:1093A000FF3202D2B34200F2CE801046F61AA2B2C9
:1093B000B6FBF8F308FB136642EA06440CFB03FC19
:1093C000A44507D9E41903F1FF3202D2A44500F203
:1093D000B5801346CCEB040443EA00409CE72946E1
:1093E0002846BDE8F087CEF1200106FA0EF307FA11
:1093F0000EF720FA01F94FEA1748CE4049EA03096F
:10940000B6FBF8FA4FEA194408FB1A661FFA87FC04
:1094100044EA06430AFB0CF29A4200FA0EF40AD917
:10942000DB190AF1FF3180F087809A4240F2848094
:10943000AAF1020A3B449B1A1FFA89F9B3FBF8F11F
:1094400008FB113349EA034301FB0CF69E4207D99E
:10945000DB1901F1FF326BD29E4269D902393B44DC
:109460009B1B41EA0A418EE7C1F1200E22FA0EF45D
:109470008B40234320FA0EF706FA01F44FEA134C0F
:1094800026FA0EF63C43B6FBFCF9270C0CFB1966DA
:109490001FFA83F847EA064609FB08F7B74202FAC3
:1094A00001F200FA01FA08D9F61809F1FF3041D2A9
:1094B000B7423FD9A9F102091E44F61BA0B2B6FB80
:1094C000FCF40CFB146640EA064704FB08F8B845B8
:1094D00007D9FF1804F1FF3028D2B84526D9023C3D
:1094E0001F4444EA0940C8EB0707A0FB02894F4527
:1094F00044464E4614D329D065B3BAEB040367EB58
:10950000060707FA0EFECB40CF404EEA030385E87C
:1095100088000021BDE8F0871346F8E61046E0E633
:10952000B8EB020469EB03060138E5E70446D8E727
:10953000114695E78146C0E78A467CE7023B3C44FA
:1095400048E708460AE702383E442FE7C245E7D31A
:109550003E46D1E72946BDE8F08700BF704700BF0F
:1095600010B5054C13462CB10A4601460220AFF354
:10957000008010BD204610BD0000000010B5431E45
:109580000A44914204D011F8014B03F8014FF8E767
:1095900010BD02440346934202D003F8011BFAE7D0
:1095A0007047000038B5124B1C68A36B0546D3B951
:1095B0001820FCF751FB43F20E33A06303804AF6F8
:1095C000CD33438041F2342383804EF26D63C380F8
:1095D0004DF6EC630381052343810B238381012234
:1095E0000023C0E90423A36B00221D615A6138BD2A
:1095F0002CE30320024B0146186800F003B800BFBB
:109600002CE3032070B5064608460C4600F00DF822
:10961000451C29463046FCF73FFB064618B12A4652
:109620002146FFF7ABFF304670BD034613F8012B10
:10963000002AFBD1181A01387047000021400D00A4
:109640005D400D0089400D008D400D0000000000C0
:1096500000010204081000000000000000000000EB
:10966000654B0D00794B0D00424D45363830207466
:1096700065737400436F756C64206E6F7420666947
:109680006E6420612076616C696420424D453638F5
:10969000302073656E736F722C20636865636B2076
:1096A000776972696E672100424D4536383020492E
:1096B00073204F6E6C696E6520616E642052656127
:1096C00064792121210054656D7065726174757231
:1096D00065203D2000202A43005072657373757227
:1096E00065203D20002068506100417070726F78E5
:1096F0002E20416C746974756465203D2000206DD6
:109700000048756D6964697479203D20002025004A
:10971000476173203D2000204B4F686D7300486FF8
:109720006D655F54656D7000486F6D655F50726563
:109730007300486F6D655F48756D696400486F6DB3
:10974000655F47617300486F6D655F504D3235004E
:10975000256400626D652D76616C730054656D70D3
:1097600065726174757265284629203D2025312E69
:10977000326600507265737375726528696E48674A
:1097800029203D2025312E32660000000000000017
:109790000000000021550D003D550D0000000000A7
:1097A0000000000051550D0065550D00256C750039
:1097B00025303478005C7525303458007472756536
:1097C0000066616C736500252E2A660025660025FB
:1097D0002E2A6C6600256C66000000000000000068
:1097E00000000000175D0D000D5D0D00035D0D0014
:1097F000F95C0D00ED5C0D00E15C0D00D55C0D0029
:10980000CD5C0D00C35C0D00B95C0D0031700D0026
:109810000000000000000000355D0D00375D0D0008
:1098200000081018202830386E616E006F766600D0
:109830002E00696E6600626175640053657269612D
:109840006C0053657269616C3100747970650070E9
:109850006172616D00636D6400686E6400737472A0
:109860006D0066696C74006C766C006164644861BC
:109870006E646C65720072656D6F766548616E64CA
:109880006C657200656E756D48616E646C657273AF
:10989000004A534F4E53747265616D4C6F67486157
:1098A0006E646C6572006170700025303130752017
:1098B000005D20002C200028293A2000205B006356
:1098C0006F6465203D200025690064657461696CE2
:1098D00073203D20000D0A006C6E00666E00636F01
:1098E00064650064657461696C006E6F6E65007418
:1098F0007261636500696E666F007761726E006504
:1099000072726F720070616E696300616C6C005AF4
:1099100000252B3033643A253032750025592D252A
:109920006D2D25645425483A254D3A2553257A0056
:1099300061736374696D6500000000000000000041
:1099400021640D0027640D006B640D0035640D006B
:1099500023640D000000000000000000B9690D0044
:10996000A9690D00AB690D000000000000000000B7
:10997000916A0D00E16A0D00EF6A0D00B15F0D0004
:10998000CD6A0D00936A0D00A96A0D00DB6A0D0017
:10999000BF6A0D008D6A0D0000000000000000008D
:1099A0009D6B0D00ED6B0D00FB6B0D00B15F0D00AD
:1099B000B16B0D00D36B0D00BF6B0D00E76B0D009D
:1099C0009F6B0D00A36B0D00000000000000000065
:1099D000C96C0D00136D0D00EB6C0D00CB6C0D0010
:1099E000F36C0D00FB6C0D00036D0D000B6D0D0095
:1099F00000000000000000002F6E0D00256E0D001D
:109A00001B6E0D00116E0D00056E0D00F96D0D0041
:109A1000ED6D0D00E56D0D00DB6D0D00D16D0D00E0
:109A200031700D000000000000000000AB6F0D0061
:109A3000A16F0D00976F0D004D6F0D008B6F0D0026
:109A40007F6F0D00736F0D006B6F0D00616F0D0068
:109A5000576F0D0031700D00000000000000000085
:109A6000C96F0D00D36F0D00DD6F0D00E76F0D00A6
:109A7000F16F0D00FD6F0D0009700D0015700D00E8
:109A80001D700D0027700D0031700D0000000000EA
:109A9000706F7700000000000000000000003043FD
:109AA00000000000000030C30000000000000000C3
:109AB00000000000000000000000000000000000A6
:109AC0000000000000000000000000000000000096
:109AD0000000000000000000000000000000000086
