:02000002D0002C
:1040000000400D00309F0D00000006000C0005016F
:084010000401E80500000000B6
:044018002C950D00D6
:1040200009480A49884208B505D0094A824202D0A7
:10403000121A05F001FA0748074A0021121A05F082
:1040400021FA014808BD00BFF8E103209C9E0D0045
:1040500064E2032064E20320F0E7032070B502F07D
:1040600003F8074C074BE41AA40800251E46A54296
:1040700004D056F8253098470135F8E770BD00BFE9
:104080008C9E0D00489E0D0000F0B6B808B500F0FB
:1040900093F9BDE8084001F0A9BF01F073BC01F03D
:1040A00079BC01F077BC000008B5034A00210C2060
:1040B00001F0DCFBFEE700BFBD550D000078B0FA53
:1040C00080F040097047012303707047704700007B
:1040D00038B584690A4B036005467CB16368013BCF
:1040E00063605BB9236820469B689847A368013BDF
:1040F000A3601BB923682046DB689847284638BD73
:10410000089D0D0010B50446FFF7E2FF20461C2174
:1041100002F01CFF204610BD70B502F0C1F82E4918
:1041200001F0C7FD02F0BCF82C4901F0C2FD02F01D
:10413000B7F8294901F0BDFD41F2883001F018FFC0
:104140000124002502F0CEFEE1B202F0C6F902F031
:10415000C9FE02F0CAF9C0B902F0A2F8204901F084
:1041600095FD0F2C04D802F09BF81E4901F08EFD3E
:1041700002F096F81022214601F0A5FD02F090F819
:10418000194901F096FD013517E0042815D102F018
:1041900087F8164901F07AFD0F2C04D802F080F858
:1041A000104901F073FD02F07BF81022064621460B
:1041B00001F089FD304601F070FD01347F2CC1D142
:1041C0001DB902F06DF80A4902E002F069F80949E8
:1041D000BDE8704001F06DBD40950D005C950D008F
:1041E00078950D0097950D0099950D009D950D0002
:1041F000B8950D00CE950D0010B502F073FE02F0DB
:1042000035F902F04DF84FF4E13102F037F802F0E1
:1042100047F802F03AF80028F9D00021132002F004
:1042200009FE02F03DF8204901F043FD1F4800F06F
:104230005DFE60BB02F034F81D4901F03AFD02F06A
:104240002FF81C4901F022FD02F02AF80446174815
:1042500000F0CCF910220146204601F034FD204642
:1042600001F01BFD02F01CF8134901F00FFD02F0F4
:1042700017F8124901F00AFD02F012F8104901F096
:1042800005FD02F00DF80F4901F000FDFEE702F018
:1042900007F80D4901F00DFD0C4B4FF47A721A60CE
:1042A000BDE81040FFF738BFD4950D009CE2032015
:1042B000E1950D0029960D003A960D0081960D00AE
:1042C000AB960D00D5960D00FF960D0088E20320F9
:1042D00038B501F0E5FF2D492D4C01F0D7FC01F078
:1042E000DFFF0546204600F04FFA0221284601F084
:1042F000C9FD01F0D5FF274901F0DBFC01F0D0FF3B
:10430000254901F0C3FC01F0CBFF0546204600F033
:1043100069FADFED227A022180EE270A284601F0B1
:10432000B1FD01F0BDFF1E4901F0C3FC01F0B8FF73
:104330001C4901F0ABFC01F0B3FF9FED1B0A0546E1
:10434000204600F02DFB0221284601F09BFD01F0E4
:10435000A7FF164901F0ADFC01F0A2FF144901F0DE
:1043600095FC01F09DFF0546204600F0BBFB0221B5
:10437000284601F087FD01F093FF0E4901F099FCFA
:1043800001F08EFFBDE8384001F087BC12970D00A8
:104390009CE2032021970D0025970D000000C842E4
:1043A00031970D0036970D0000507D444A970D005F
:1043B0004D970D0059970D0070B5FFF789FF3648EE
:1043C000364E374D374C00F0DFF910EE100A04F08E
:1043D000B7F92FA3D3E9002304F006FA0022324BE9
:1043E00004F050F804F0F8FC30602B4800F0FAF9C3
:1043F000DFED2E7A284880EE270A85ED000A00F0CE
:1044000071FB84ED000A01F04BFF294901F051FCDA
:1044100001F046FF022196ED000A01F04DFD01F08A
:104420003FFF022195ED000A01F046FD01F038FF43
:10443000022194ED000A01F03FFD01F031FF1D491A
:1044400001F037FC1C4800F0E4FDD0B1306804F006
:1044500077F941EC100B0221184801F007F82868A1
:1044600004F06EF941EC100B0221154800F0FEFF3C
:10447000206804F065F941EC100B0221114800F0AE
:10448000F5FF42F21070BDE8704001F071BD00BF51
:104490009A9999999999F93F9CE203208CE203201B
:1044A00068E20320B4E30320000040400000C8425B
:1044B0005C970D0088970D00E0E20320C4E3032021
:1044C00090E20320B8E3032010B5D421044602F0A3
:1044D0003DFD204610BD000073B51B4D1B4E1C4C0E
:1044E00000F0F4FF284602F06FFB324619492846D7
:1044F00002F01EFD184B009340F25B72174B1849F7
:10450000204600F0BBFD174B17492360324620467A
:10451000C4F8D05002F00CFD21460023134A144881
:1045200000F09EFF21460023124A134800F098FF36
:104530000023124A1248214600F092FF114802B0AF
:10454000BDE8704000F04CB86CE2032064E2032048
:10455000E0E20320D1400D00CB970D00B4970D0091
:10456000BB970D009C980D00CD400D00EC970D0001
:10457000C4E303200A980D0090E2032020980D0068
:10458000B8E303209CE203207FB502460846137976
:10459000956833B13DB90C4904B0BDE8704001F0F5
:1045A00075BB0A4B00E00A4B167B0A4C0A49527B4A
:1045B0000292012E08BF214601910095074A002171
:1045C00001F089FC04B070BD5D980D00E7980D0006
:1045D0004C980D0055980D0059980D0073980D00DA
:1045E000FF22027442748274C274704780687047FC
:1045F00038B5094D296811F001040AD12846FFF7A2
:104600005DFD30B12146054801F028FA2846FFF744
:104610005AFD024838BD00BFD0E30320D4E3032095
:104620002DE9F04190F91330013305460F4606D1CC
:10463000FFF7DEFF3946BDE8F04101F0B3BA0726C7
:1046400000244FF0010895F91300002180B202F018
:1046500002FC95F9110008FA06F1394080B202F027
:10466000FAFB95F91300012180B202F0F4FB95F9F1
:104670001200640080B2E4B202F006FC08B144F01B
:10468000010416F1FF36DED22046BDE8F08108B500
:10469000FFF7AEFFBDE8084001F0FBB910B50446D6
:1046A000FFF7A6FF2146BDE8104001F00BBA00005D
:1046B00030B590F91030013385B004460D4621D154
:1046C0000179006801F009FF2068036829469B68AA
:1046D0009847206801F009FF03222179206801F042
:1046E000F9FE206803685B69984705022068036843
:1046F0005B69984728430502206803685B6998470F
:10470000054339E090F9133001330ED11C4B1D4A9B
:10471000009302920023012268468DF804308DF840
:104720000C208DF80D30FFF7B9FF94F9100000212F
:1047300080B202F090FB45F080012046FFF770FF49
:1047400000212046FFF76CFF002105022046FFF7FD
:1047500067FF2843050200212046FFF761FF05435C
:1047600094F91000012180B202F075FB94F9133026
:10477000013301D1FFF78BFF284605B030BD00BFE4
:1047800048980D0020A1070010B5FA210446FFF754
:104790008FFFB0F5000F1ED0A28A9FED107AC2EBFA
:1047A00020235200C2EBE010B4F916205B435043C3
:1047B000B4F918201B1353439B1303EBE020E06074
:1047C00000EB80008030001207EE900AF8EEE77AE6
:1047D00087EE870A10BD9FED020A10BD0000C84297
:1047E0000000C07F2DE9F84F0646FFF7CDFFF72107
:1047F0003046FFF75DFFB0F5000F074600F0C180BF
:10480000F468B6F91C20E517B4F5FA3445F1FF3524
:10481000A4FB048904FB05F309EB430902FB05F142
:10482000D31704FB0311A2FB04230B44190341EA31
:1048300012511003B6F91E20D31702FB09FE08FB24
:1048400003EEA2FB082373444FEA122A4AEA036AE2
:104850001AEB000A728B4FEA232B4BEB010B1AF178
:1048600000004BF50041A0FB02AB02FB01BB4FEA8D
:104870006B024FEAEB7352EA030100F08680B6F94F
:1048800024A04FEAEA7B0AFB09F108FB0B11AAFB03
:104890000889B6F922A089444FEAEA7B0AFB05F1B0
:1048A00004FB0B11AAFB04450D444FEA454B4FEAAC
:1048B000444A38111AEB080AC0F580104BEAD43B81
:1048C0004BEB090B4FEAE0794FEAC97545EA500511
:1048D000C407B6F920004FF0000818EB0A084FEAA9
:1048E000C00949EB0B0940F63547B4EB080465EB0A
:1048F0000905A4FB070107FB051104F0CBFBB6F982
:104900002A204C13450B45EAC14502FB04F7D31797
:1049100005FB0377A2FB05233B44544305FB0344FB
:10492000A2FB05232344540E44EAC314B6F92820FD
:1049300024184FEA63654D41D317514300FB03131D
:10494000A2FB00011944C20C42EA41321219B6F925
:1049500026404FEAE1436B41100AE517220140EA85
:10496000036019122B0143EA14738018594104F0B3
:1049700053FB9FED080A07EE900A27EE800ABDE878
:10498000F88F9FED050ABDE8F88F9FED040ABDE89A
:10499000F88F00BF0000803B0000C07F00000000D7
:1049A00008B52DED028BB0EE408AFFF71BFFDFED5F
:1049B000167A80EE270AC0EE087A17EE900A03F006
:1049C000BFFE9FED0D1B41EC100B02F01DFC002003
:1049D00053EC102B0D4903F053FD09A3D3E9002339
:1049E00003F002FF04F0F8F9BDEC028B00EE100AB0
:1049F00008BD00BFAFF30080EBE2361AC05BC83FD2
:104A00000000000040A5E5400000C8420000F03F63
:104A100030B590F91030013385B004460D461DD1F4
:104A20000179006801F059FD2068036829469B68F8
:104A30009847206801F059FD02222179206801F091
:104A400049FD206803685B6998470546206803684C
:104A50005B69984740EA052085B235E090F913304C
:104A600001330ED11A4B1B4A0093029200230122FC
:104A700068468DF804308DF80C208DF80D30FFF766
:104A80000DFE94F91000002180B202F0E4F945F027
:104A900080012046FFF7C4FD00212046FFF7C0FD3E
:104AA000002105462046FFF7BBFD40EA052085B200
:104AB00094F91000012180B202F0CDF994F913307D
:104AC000013301D1FFF7E3FD284605B030BD00BF3B
:104AD00048980D0020A1070008B5FFF799FF40BADC
:104AE00080B208BD10B50446FFF74EFEFD212046FA
:104AF000FFF78EFFB0F5004F38D0B4F93230E268DE
:104B0000B4F934101B05A2F59632C3EB803302FBD7
:104B1000113303F58043D91394F8303094F93600FB
:104B20005343DB124243921203F5004353439B125B
:104B3000B4F92E2003F50013534303F500539B13E0
:104B40004B43DA1394F82C105243D2114A43A3EB8F
:104B5000221323EAE373B3F1C85FA8BF4FF0C85331
:104B60001B1300EE103ABAEECB0A10BD9FED010AFE
:104B700010BD00BF0000C07F30B590F91030013388
:104B800085B004460D4616D10179006801F0A5FCF8
:104B90002068036829469B689847206801F0A5FCB7
:104BA00001222179206801F095FC206803685B6987
:104BB0009847C5B22EE090F9133001330ED1174B50
:104BC000174A009302920023012268468DF80430B0
:104BD0008DF80C208DF80D30FFF760FD94F9100072
:104BE000002180B202F037F945F080012046FFF73E
:104BF00017FD00212046FFF713FD054694F910002C
:104C0000012180B202F027F994F91330013301D168
:104C1000FFF73DFD284605B030BD00BF48980D00A8
:104C200020A1070008B5F321FFF7A6FF00F001005F
:104C300008BD38B588210446FFF74EFF8A21A082BF
:104C40002046FFF749FF8C21E0822046FFF744FF12
:104C50008E2120832046FFF73FFF9021608320466E
:104C6000FFF73AFF9221A0832046FFF735FF9421FA
:104C7000E0832046FFF730FF962120842046FFF78F
:104C80002BFF982160842046FFF726FF9A21A084FD
:104C90002046FFF721FF9C21E0842046FFF71CFF00
:104CA0009E2120852046FFF717FFA1216085204621
:104CB000FFF762FFE12184F82C002046FFF70CFF8C
:104CC000E321E0852046FFF757FFE42184F8300018
:104CD0002046FFF751FFE52105462046FFF74CFF30
:104CE00000F00F0040EA05106086E6212046FFF73D
:104CF00043FFE52105462046FFF73EFF001140EA4D
:104D00000510A086E7212046FFF736FF84F836001D
:104D100038BD00007FB590F91030013304460E46CF
:104D2000154611D10179006801F0D7FB20680368AE
:104D300031469B6898472068036829469B689847D6
:104D4000206801F0D2FB2DE090F9133001330ED131
:104D5000154B164A009302920023012268468DF8F3
:104D600004308DF80C208DF80D30FFF797FC94F986
:104D70001000002180B202F06EF806F07F0120469C
:104D8000FFF74EFC29462046FFF74AFC94F9100035
:104D9000012180B202F05FF894F91330013301D1A0
:104DA000FFF775FC04B070BD48980D0020A1070006
:104DB000F8B590F83C509DF818609DF81CE09DF8FF
:104DC000207061F3871562F3020563F3C50590F85F
:104DD000403080F83C5066F3471380F8403090F83C
:104DE00038306EF3C503044667F3020380F83830A9
:104DF00006F00702F221FFF78DFF94F83820C2F386
:104E0000C20302F007019B0043EA411343EAD212B6
:104E10002046F521FFF77EFF94F83C20C2F3C20341
:104E200002F007019B0043EA411343EA9212204635
:104E3000F421BDE8F840FFF76DBF30B5044690F9A6
:104E40001000421C85B003D1206801F00FFB22E066
:104E5000012180B201F0FFFF94F91000012180B21E
:104E600001F0E8FF94F91300431C04D1FFF7C0FBE5
:104E700000F0FEFD0FE0012180B201F0DBFF94F9AC
:104E80001100012180B201F0D5FF94F91200002138
:104E900080B201F0CFFFD0212046FFF76DFE6028E1
:104EA000A06020D12046B622E021FFF733FF4FF467
:104EB000967001F05DF82046FFF7B4FE054608B194
:104EC0006420F6E72046FFF7B4FE052300931A4658
:104ED0000321204602950195FFF76AFF642001F047
:104EE00047F8012000E0002005B030BD772310B561
:104EF0000371044601F0F6FF20602046FFF79DFF96
:104F000030B9762323712046BDE81040FFF795BFE6
:104F100010BD00F0DBBA08B5D0F8D00003681B6BF9
:104F20009847003018BF012008BDF8B506460F4667
:104F30001446C4B1D6F8D00003681B6B984708B973
:104F40000020F8BDD6F8D000FA2C03682546A8BF8B
:104F5000FA25DB682A463946984780B2241A8542EA
:104F6000A4B2E6D0ECE70120F8BD2DE9F8430646EF
:104F7000884691461F461D460024D6F8D000036897
:104F80001B6B9847D0B1002D18DBD6F8D000036812
:104F90001B69984760B1D6F8D00003685B699847F1
:104FA00008F804000134A4B24C4507D03D46ECE7B4
:104FB0000A3D0A202DB200F0DBFFDEE72046BDE807
:104FC000F88370B5044600F1220596220021284698
:104FD00004F058FA6168284604F084FAD4F8D00046
:104FE0002289036829465E6A0023B047003018BF53
:104FF000012070BD10B50446D0F8D00003681B6BCB
:10500000984720B1D4F8D0000368DB6A98470120A4
:1050100010BD70B503689B6804469847C8B9204620
:1050200000F0C5F9042570B1013D15F0FF050AD067
:10503000204600F0A9F841F2883000F099FF2046A0
:1050400000F0B5F9EFE7236820469B68BDE87040A3
:10505000184770BD00F03ABA70B5044608460E46CF
:1050600004F048FA03122370607085B202342A46B5
:105070003146204604F046FA601970BD30B5036130
:10508000039B0D4D028143610C4A05600023416082
:10509000C260C0F8BC30C0F8C030C0F8C430C0F83E
:1050A000C830C0F8CC308361C36180F8203080F80C
:1050B0002130A0F8B83030BDC0980D00E7980D0041
:1050C0002DE9F74F0FFA83FA036801929D690122D7
:1050D000534606460C46A847C0B2012801D000201E
:1050E00034E0651C04F1050B80464FF0000933687D
:1050F0009B6901221F46294653463046B847C0B235
:105100000128ECD115F8013B03F07F025D4502FB5D
:1051100008994FEAC818E2D01B06E8D4019B2C1B63
:105120001B1B013B9945336806D9019A9F69013AD7
:10513000121B534692B203E09F691FFA89F253464D
:1051400029463046B847C0B2204480B203B0BDE81B
:10515000F08F0000F8B505460C4616461F463B4644
:10516000962221462846FFF7ABFF48B12378B6EBDD
:10517000131F05D001F094F8024900F09AFDEEE704
:10518000F8BD00BFE8980D0010B5E02380F822308C
:10519000002380F82330036804465B69022200F193
:1051A00022019847236820461B69BDE81040184734
:1051B00038B504460846102300F8023B0D4629493D
:1051C000FFF74AFF0423037002234370A369ABB1C6
:1051D0001B789BB10623437094F82030012B01D13A
:1051E0000E2302E0022B01D11E23437094F82130DC
:1051F000012B02BF437843F02003437023691B78DF
:105200001BB1437863F07F03437063691B781BB164
:10521000437843F040034370012383702C23C37011
:10522000E1680B781BB10430FFF716FF02E0037151
:1052300043710630A16931B10B7823B1FFF70CFF40
:10524000E169FFF709FF21690B780BB1FFF704FF54
:1052500061690B780BB1FFF7FFFE401BC0B2831EE4
:105260006B7038BD07990D002DE9F84305461046CF
:105270000E4691461F4604F03DF99DF82480BDF886
:10528000204080B2B8F1000F01D1831C00E0031D63
:105290004FEA480230469BB242F03002234400F805
:1052A000012B9BB203F07F02DB0918BF42F08002A2
:1052B00000F8012B002BF5D14946FFF7CDFE034640
:1052C000B8F1000F0CD0B5F8B820120A0270B5F88A
:1052D000B8204270B5F8B82001320233A5F8B820E2
:1052E00022463946184604F0B2F82044801B80B2AA
:1052F000BDE8F88373B59DF8186000F122050446F7
:105300008DE8480013460A462946FFF7ADFF23689B
:1053100002465B6929462046984708B9002017E0F5
:10532000B6B14FF4FA73962229462046FFF7C8FE1D
:105330000428F3D194F822301B11042BEED1A38C56
:10534000B4F8B8005BBA01339BB2C31A5842584153
:1053500002B070BDF7B5054610461F460E4614460E
:1053600004F0C8F8009783B2224631462846FFF77A
:10537000C1FF03B0F0BD38B51D4682230B700C464B
:10538000B0F8B810090AA170B0F8B830E370B0F8FE
:10539000B8100131A0F8B8101146201DFFF75CFECF
:1053A00000F8015B001BC0B2831E637038BD2DE99D
:1053B000F0410368DB680446984718B94FF0FF30A6
:1053C000BDE8F08104F1220529462046FFF7F0FEF2
:1053D000236882B25B692946204698470028EDD0B1
:1053E00041F27073962229462046FFF769FEC0B24B
:1053F0000428E3D1638CB3F5087FDFD194F825004E
:1054000010B140B2BDE8F08104F1B80704F1CC0856
:1054100057F8043FFBB103263A682946137912680E
:105420002046FFF7A8FF236882B25B692946204621
:1054300098470028C2D04FF4FA7309222946204623
:10544000FFF788FE38B9013E16F0FF06E4D16FF091
:105450000100BDE8F0814745DAD10020BDE8F081C8
:1054600010B580E80600037210BD000010B592B0C0
:1054700004460B4600220B4902A88DED000B00F0FC
:1054800091FA9DED000B02A953EC102B07A800F038
:1054900089FA237A07AA94E80300FFF75BFF12B0AA
:1054A00010BD00BF0C990D0000F010B808B5024BFC
:1054B0001B689B68019308BD6802030008B5024B96
:1054C0001B68DB68019308BD6802030008B5024B46
:1054D0001B681B68019308BD2C02030008B5024B32
:1054E0001B689B68019308BD2C02030008B5024BA2
:1054F0001B68DB68019308BD2C02030008B5024B52
:105500001B681B69019308BD2C02030008B5024B00
:105510001B685B69019308BD2C02030008B5024BB0
:105520001B681B68019308BD3002030008B5024BDD
:105530001B685B69019308BD3002030008B5024B8C
:105540001B68DB69019308BD3002030008B5024BFC
:105550001B681B6A019308BD3002030008B5024BAB
:105560001B685B6A019308BD3002030008B5024B5B
:105570001B68DB6B019308BD3002030008B5024BCA
:105580001B681B6C019308BD3002030008B5024B79
:105590001B685B6C019308BD3002030008B5024B29
:1055A0001B685B69019308BD6C02030008B5024BE0
:1055B0001B685B68019308BD1802030008B5024B25
:1055C0001B68DB68019308BD1802030008B5024B95
:1055D0001B685B69019308BD1802030008B5024B04
:1055E0001B689B68019308BD4802030008B5024B85
:1055F0001B681B69019308BD4802030008B5024BF4
:105600001B685B69019308BD4802030008B5024BA3
:105610001B685B6C019308BD4802030008B5024B90
:105620001B689B6C019308BD4802030008B5024B40
:105630001B685B69019308BD6402030008B5024B57
:105640001B681B6A019308BD6402030008B5024B86
:105650001B689B6A019308BD6402030008B5024BF6
:105660001B681B68019308BD3C02030008B5024B90
:105670001B68DB68019308BD3C02030008B5024BC0
:105680001B681B69019308BD3C02030008B5024B6F
:105690001B685B69019308BD3C02030008B5024B1F
:1056A0001B689B69019308BD3C02030008B5024BCF
:1056B0001B68DB69019308BD3C02030008B5024B7F
:1056C0001B681B6A019308BD3C02030008B5024B2E
:1056D0001B689B6A019308BD3C02030008B5024B9E
:1056E0001B68DB68019308BD2802030008B5024B64
:1056F0001B689B69019308BD2802030008B5024B93
:105700001B68DB69019308BD2802030008B5024B42
:105710001B681B6A019308BD2802030008B5024BF1
:105720001B685B6A019308BD2802030008B5024BA1
:105730001B689B6A019308BD2802030008B5024B51
:105740001B68DB6A019308BD2802030008B5024B01
:105750001B681B6B019308BD2802030008B5024BB0
:105760001B685B6B019308BD2802030008B5024B60
:105770001B681B6C019308BD2802030008B5024B8F
:105780001B681B6D019308BD2802030008B5024B7E
:105790001B689B69019308BD3802030008B5024BE2
:1057A0001B68DB69019308BD3802030008B5024B92
:1057B0001B681B6A019308BD3802030008B5024B41
:1057C0001B689B6A019308BD3802030008B5024BB1
:1057D0001B681B6B019308BD3802030008B5024B20
:1057E0001B689B6B019308BD3802030008B5024B90
:1057F0001B681B68019308BD4C02030008B5024BEF
:105800001B685B68019308BD4C02030008B5024B9E
:105810001B681B69019308BD4C02030008B5024BCD
:105820001B685B69019308BD4C02030008B5024B7D
:105830001B689B69019308BD4C02030008B5024B2D
:105840001B68DB69019308BD4C02030008B5024BDD
:105850001B681B6A019308BD4C02030008B5024B8C
:105860001B685B6A019308BD4C02030008B5024B3C
:105870001B685B6B019308BD6002030008B5024B17
:105880001B681B6D019308BD6002030008B5024B45
:105890001B685B68019308BD2002030008B5024B3A
:1058A0001B685B69019308BD2002030008B5034B28
:1058B0001B68D3F88830019308BD00002002030064
:1058C00008B5034B1B68D3F89430019308BD000062
:1058D0002002030008B5024B1B685B68019308BDFA
:1058E0004002030008B5024B1B689B68019308BD8A
:1058F0004002030008B5024B1B68DB68019308BD3A
:105900004002030008B5024B1B681B69019308BDE8
:105910004002030008B5024B1B685B69019308BD98
:105920004002030008B5024B1B689B69019308BD48
:105930004002030008B5024B1B68DB69019308BDF8
:105940004002030008B5024B1B681B6A019308BDA7
:105950004002030008B5024B1B681B6B019308BD96
:105960004002030008B5024B1B685B6B019308BD46
:105970004002030008B5024B1B68DB6B019308BDB6
:105980004402030008B5024B1B681B68019308BD65
:105990001C02030008B5024B1B685B68019308BD3D
:1059A0001C02030008B5024B1B68DB68019308BDAD
:1059B0001C02030008B5024B1B685B6A019308BD1B
:1059C0001C02030008B5024B1B68DB6B019308BD8A
:1059D0001C020300002211464068FFF7B3BF0022FB
:1059E00011464068FFF7BEBF00224068FFF7B2BF14
:1059F000002281F001014068FFF79CBF00231A4696
:105A000019464068FFF78EBF00231A4619464068C2
:105A1000FFF780BF002211464068FFF773BF0022E6
:105A200011464068FFF75EBF002202214068FFF781
:105A300061BF00231A464068FFF74CBF024B0322A8
:105A40005A60024A1A607047DCE30320D89A0D00BE
:105A50000021FFF793BD0021FFF798BD10B5044664
:105A600001700846FFF76AFD00236360204610BD01
:105A700010B504460078FFF7EBFF48B920784FF6E1
:105A8000FF71FFF74BFD2078BDE81040FFF7E3BF43
:105A900010BD0078FFF7DFBF400830B51860002464
:105AA00018688842E5B206D90134082C02D04008B3
:105AB0001860F5E70725024B5B5D137030BD00BF32
:105AC000049B0D002DE9F04307468FB000780E4689
:105AD000FFF7BEFF002862DB3C781422002109A8F2
:105AE00003F0D0FC0B232046002209A9ADF8243096
:105AF000FFF734FD9DF82D4054B19DF82C5035B979
:105B0000DDF830809DF834909DF8354003E00024A6
:105B1000A146A0460125337905B1BBB99D420BD101
:105B2000B268424508D18DF820908DF82140BDF82B
:105B30002010B289914209D053B1002438780194E1
:105B40000094234622460121FFF710FD002026E0A5
:105B50008DF80F30B1680A9804AB0DF10F02FFF712
:105B60009BFF317905B1B1B9A94208D0002438783A
:105B70000194747B337B9DF80F200094E4E7B368B5
:105B80004345F3D38DF820908DF82140BDF82020B7
:105B9000B3899A42EAD1049B4345E7D1D6E70FB0D7
:105BA000BDE8F08308B50078FFF7C0FCC0B208BDBF
:105BB0000078FFF7CBBC10B50446006818B1FFF7BA
:105BC000E9FE0023236010BD10B50446FFF7F3FF84
:105BD000204610BD10B5094C00204FF6FF73206021
:105BE000A080A07120816381FFF750FE2046044A07
:105BF0000449BDE8104001F09BB900BFE4E3032075
:105C000064E20320C95B0D0010B50446006808B1CA
:105C1000FFF704FD204610BD10B5064C00232046BA
:105C20002360FFF7F3FC2046034A0449BDE8104017
:105C300001F07EB9F0E3032064E20320095C0D006B
:105C4000F8B506460D468F180024BD420CD03368C7
:105C500015F8011B9B6830469847002801DB044477
:105C6000F3E7002C08BF04462046F8BD70B5054692
:105C70000C46084649B103F03DFC2B68024621461C
:105C80002846DB68BDE87040184770BD08B5FFF7CF
:105C9000EDFF08BD03689B68184738B50D21054620
:105CA000FFF7F8FF0A2104462846FFF7F3FF2044D8
:105CB00038BD38B50546FFF7D9FF04462846FFF73B
:105CC000ECFF204438BD30B58BB00B4600218DF879
:105CD0002410012A98BF0A220DF12304B3FBF2F528
:105CE00005FB123303F0FF03092B94BF3033373326
:105CF000DBB2214604F801392B46002DEED1FFF727
:105D0000B5FF0BB030BD00002DE9F04757EC106B2C
:105D100082460D4610EE102A3B4610EE100A394618
:105D200002F0FCFF08B14E4912E027F000494FF0A5
:105D3000FF324C4B3046494602F0F0FF68B94FF055
:105D4000FF32484B3046494602F0CAFF28B946495F
:105D50005046FFF78BFFBDE8F0874FF06042434BA2
:105D60003046394602F0D0FF08B14149F0E74FF024
:105D70006042404B3046394602F0A8FF0028F4D17B
:105D8000002200233046394602F0A0FF40B12D2109
:105D90005046FFF77FFF07F1004304461F4600E02F
:105DA000044635494FF0000800205FFA88F39D4211
:105DB00006D90022314B02F041FE08F10108F4E758
:105DC00032463B4602F05EFB0F46064602F0E4FF19
:105DD0000A22014680465046FFF775FF0444E5B3AA
:105DE000404602F08BFC02460B463046394602F034
:105DF00047FB06460F4650462149FFF737FF04444C
:105E000000221E4B3046394602F0EEFC06460F4695
:105E100002F09AFFB0F1000907DA2D215046FFF792
:105E200039FFC9F10001804602E049464FF0000801
:105E30000A225046FFF747FF40440444484602F018
:105E40006DFC02460B463046394602F019FB013D17
:105E500015F0FF0506460F46D2D12046BDE8F08773
:105E60000C9B0D00FFFFEF7F149B0D00FFFFEF4128
:105E7000109B0D00FFFFEFC10000E03F0000244039
:105E800076950D0038B5044610EE100ACDB202F03A
:105E900057FC41EC100B29462046BDE83840FFF77F
:105EA00033BF38B5C9B20546FFF72EFF0446284672
:105EB000FFF7F3FE204438BD38B5044610EE100A53
:105EC0000D4602F03DFC41EC100B29462046BDE892
:105ED0003840FFF7E6BF0CB42DE9F04387B000AFC0
:105EE00007F13804054654F8049B3C600E462346EF
:105EF0004A461421381DFFF75DFD132805D8391DCA
:105F00002846FFF7B3FE044613E000F1080323F030
:105F10000703E846ADEB030D411C23464A4668469D
:105F20003C60FFF747FD69462846FFF79FFE0446A1
:105F3000C5461EB12846FFF7B0FE044420461C3774
:105F4000BD46BDE8F04302B070470000014B024A75
:105F50001A607047F4E303208B9B0D00024B1A6814
:105F6000024B1A60704700BFF8E10320F8E30320FA
:105F70000021FFF793BC10B58368044613B10322D8
:105F800001469847204610BD10B50446FFF7F3FFC1
:105F9000204610BD0348044A04490023836000F0F2
:105FA000C7BF00BFFCE3032064E20320895F0D004C
:105FB00008B50C4B33B100F073F903681B699847BF
:105FC000002809DC084B63B100F0ECF903681B6999
:105FD0009847002803DC08BDAFF30080F2E7AFF379
:105FE000008008BD000000000000000008B5FFF7B9
:105FF000DFFFFFF7EBFA014B186008BD30E7032025
:106000000248034A0349121A03F016BA00F40320A7
:1060100004F40320989E0D0007B5002300931A4650
:106020006FF07701FFF74CFC03B05DF804FB000054
:1060300007B543880A2B08D0502B09D1094B1B68A0
:106040003BB103B05DF804EB1847FFF7E5FF06E04E
:10605000002300931A466FF07701FFF731FC03B07D
:106060005DF804FB0CE4032038B5104C104D236898
:10607000AB42104B0CBF012200221A7002D0FFF776
:10608000BFFF2560FFF792FA044603F003FA0A4BBC
:1060900013B12046AFF3008000210748FFF76AFCE8
:1060A00000210648BDE83840FFF700BC00F403209B
:1060B0001E1C279A10E403200000000031600D0030
:1060C000704710B51821044600F040FF204610BD6F
:1060D000F0B5037D062B8DB00E4600F104074FF09E
:1060E000000402D000F1080518E00CAD394605F8AF
:1060F000304D2F232A460A20FFF798FA284603F04E
:10610000F9F933680246DB682946304698470FE0C4
:1061100024B12E213046FFF7BDFD044415F8011DC2
:106120000A223046FFF7CFFDBD420444F0D120469D
:106130000DB0F0BD10B5054B0446112240F8043BEC
:10614000002103F09FF9204610BD00BF1C9C0D00EC
:106150000346074A10B543F8042B01F1100251F829
:10616000044B43F8044B9142F9D10A781A7010BDE0
:106170001C9C0D00037D042B01D1406808E0062B18
:106180000AD1436853B9836843B9C36833B9006916
:10619000003018BF01207047002070470120704771
:1061A00010B59DF8084044EA032343EA024242EA5C
:1061B000016104234160037510BD37B50D788B78FC
:1061C0004A78C97800912946FFF7EAFF03B030BD4D
:1061D00041747047704708B50021007CFFF726FB2B
:1061E00030EA200028BF4FF0FF3008BD08B501217C
:1061F000007CFFF71BFB30EA200028BF4FF0FF3088
:1062000008BD08B5007CFFF709FB20EAE07008BD77
:1062100008B5007CFFF7FAFA20EAE07008BD007CC0
:10622000FFF714BB10B51421044600F08FFE204682
:1062300010BD38B50446007C0D46FFF7EFFA002884
:1062400001DC607C28B12946207CFFF7F7FA20EAC0
:10625000E07038BD10B50446002363604FF47A73D4
:10626000A360054B23600123084621746374114623
:10627000FFF7BCFA204610BD309C0D000022007CC8
:10628000FFF7BCBA007CFFF7E9BAFFF7FBBF10B518
:1062900014220446002103F0F5F8204610BD00004A
:1062A00030B50E4D87B001A8FFF7F1FF296811F056
:1062B000010410D12846FDF701FF60B101AA214673
:1062C0000748FFF7C7FF2846FDF7FDFE054A0649C8
:1062D000034800F02DFE024807B030BD14E403204F
:1062E00018E4032064E20320D5610D007047417477
:1062F000704708B5007CFFF7E9F920EAE07008BDB7
:1063000008B5007CFFF7BAF920EAE07008BD08B5CF
:10631000007CFFF7C3F930EA200028BF4FF0FF30C0
:1063200008BD08B5007CFFF7B1F930EA200028BFAE
:106330004FF0FF3008BD007CFFF7B8B910B514214D
:10634000044600F003FE204610BD70B5457C0446AF
:106350000E4625B9007CFFF7B9F9002805DD314666
:10636000207CBDE87040FFF781B9284670BD000071
:1063700010B5044608461146002262604FF47A7256
:10638000A260054A22600122207462741A46FFF757
:1063900065F9204610BD00BF609C0D00007CFFF732
:1063A0008DB9000038B50C4D296811F0010411D1E8
:1063B0002846FDF783FE68B1084A094B0948214683
:1063C000FFF7D6FF2846FDF77EFE074A0749054836
:1063D00000F0AEFD034838BDC4E40320C8E4032048
:1063E00040E403202CE4032064E20320ED620D006E
:1063F0007047F8B5064615460C468F18BC4206D0C5
:10640000336814F8011B9B6830469847F6E7284626
:10641000F8BD0022007CFFF779B90021007CFFF76E
:106420007DB90021007CFFF781B90021007CFFF7D6
:1064300085B90021007CFFF789B910B51421044605
:1064400000F084FD204610BD10B5044600236360B3
:106450004FF47A73A360044B2174084623601146FD
:10646000FFF784F9204610BD909C0D0000231A46CA
:106470001946007CFFF732B970B50C4686B014257A
:1064800006462A46002101A802F0FCFF23788DF879
:10649000083063680393E36804930022237A307C16
:1064A000ADF8045001A90593FFF768F906B070BD77
:1064B0001FB500338DF800104FF06401039118BF31
:1064C0000123694601928DF80830FFF7D5FF05B02A
:1064D0005DF804FB0123FFF7EBBF0022007CFFF710
:1064E00005B90022007CFFF709B90121FFF7F9BFC8
:1064F0000021007CFFF732B9002211464068FFF707
:1065000021BA002211464068FFF72CBA00224068E9
:10651000FFF720BA002281F001014068FFF70ABAB4
:1065200000231A4601214068FFF7FCB900231A46F0
:1065300019464068FFF7EEB9002211464068FFF7A0
:10654000E1B9002211464068FFF7CCB900220221D0
:106550004068FFF7CFB900231A464068FFF7BAB981
:1065600038B5054688B104684CB1A3681BB1032255
:106570002146204698471021204600F0E7FC284697
:106580001421BDE8384000F0E1BC38BD10B103680B
:106590005B681847704710B503680446BBB158687C
:1065A000FFF71CF878B923685A7C12B95868FFF7CE
:1065B0001DF823685868FFF721F82068002323603E
:1065C00028B1FFF7CDFF206808B1FFF7C9FF2046CB
:1065D00010BD38B50446D0F8C40108B1FDF761FD1F
:1065E000D4F8C00108B1FFF719F8D4F8BC5135B19F
:1065F0002846FFF7D0FF0421284600F0A7FC2068BA
:1066000008B1FFF7C3FF204638BD000010B5044BAA
:10661000044640F8083BFFF7DCFF204610BD00BFF2
:10662000B89C0D0038B50E4C0E4B2360002502239C
:1066300004F5E4706360A560C4F8C451C4F8C8519F
:10664000FEF7E4FF084BC4F8CC5184F8D051236026
:106650002046064A0649BDE8384000F069BC00BF44
:106660004CE50320A09D0D00B89C0D0064E20320C2
:106670000D660D0037B502AC036804F8011DDD6B33
:1066800001224FF0FF332146A84703B030BD10B4BC
:106690000368DC6B4FF0FF33A4465DF8044B6047A2
:1066A00037B502AC036804F8011DDD6B21461346C3
:1066B0000122A84703B030BD704738B543691A6856
:1066C000002A044605DAB3F88620B3F884309A42EB
:1066D00001D001250BE003681B699847002814BF0F
:1066E0000125002503D123682046DB6A9847284608
:1066F00038BD43691868C043C00F70477047002019
:10670000704710B51421044600F020FC204610BD4F
:10671000FDF7C5BC7FB51646002242600292039287
:106720005A1C04460D4608D04FF47A72B3FBF2F1BE
:10673000029102FB11314A430392606908230093DE
:1067400041F205026B4440F6FF710068FFF71EF846
:10675000002808DB60690023324629460068FFF7FD
:1067600035F8002804DAFFF72DF90368636000208C
:1067700004B070BD10B5036804469B689847A368D1
:10678000013BA3602BB923682046DB68BDE81040BD
:10679000184710BD70B504464D69054B44F8043BDD
:1067A0008C3506460FCD0FC42B682370304670BD64
:1067B0001C9C0D0010B54369B3F88620B3F88430F3
:1067C0009A42044605D06269B2F8843013441879BD
:1067D00010BD03681B6998470028F4D14FF0FF30C3
:1067E00010BD10B54369B3F88620B3F884309A42DF
:1067F000044608D06269B2F88430591C1344A2F8E8
:106800008410187910BD03681B6998470028F1D1DE
:106810004FF0FF3010BDF8B543691746B3F8862036
:10682000B3F884309A4205460E4606D103681B69C8
:10683000984710B94FF0FF3414E06969B1F884301B
:10684000B1F88640E41ABC4228BF3C4619442246AF
:106850000431304602F0F0FD6A69B2F88430234416
:10686000A2F884302046F8BD2DE9F043984603682D
:1068700093B0DB6A0D4606461746984712AB0024D4
:1068800043F8484D224621462846FEF717FE81462A
:1068900000283DD1009B002B56D05B69002B53D0C4
:1068A00006A8FFF747FC009B5C696378022B01D1C7
:1068B000211D13E00A2B14D11122494601A802F030
:1068C000E1FDA36833BBE36823BB4FF6FF70256986
:1068D000FEF7B4FE85421DD104F1140106A8FFF7AE
:1068E0006CFC06A8FFF746FC00282DD0336807ADE6
:1068F000D3F82090184B0C930FCD0DAC0FC42B6820
:1069000023703A4643460CA93046C84781461BE0EF
:10691000A14619E004F1080301AD1834186859685C
:106920002A4603C20833A3421546F7D1062301A91C
:106930000CA80DAD8DF81430FFF70AFC0FCD07AC95
:106940000FC42B682370CCE70098FEF7AFFD4846D4
:1069500013B0BDE8F08300BF1C9C0D00426900230A
:10696000A2F884304269A2F8863070472DE9F041E0
:106970001E4603680C468AB0DB6A054617469847F0
:10698000237DD5F81480042B0CBF02200A20062298
:106990000121FEF723FFC8F800006B691B68002B7C
:1069A00018DB2846FFF7DAFFD6B1002303A9F0B2BF
:1069B0000393ADF81030FEF7F1FD58B9686906236E
:1069C000009341F20B0203AB40F6FF710068FEF743
:1069D000DDFE28B12B682846DB6A002498473BE09F
:1069E0001C263246002103A802F04CFD237D8DF8C1
:1069F0000C60042B0CD1022338468DF80D30FEF7C5
:106A000025FEADF80E006068FEF718FE049013E056
:106A10000A2338468DF80D30FEF718FE05AEADF8A6
:106A20000E00231D04F1140718685968324603C28A
:106A30000833BB421646F7D16B691C2203A91868BC
:106A4000FEF7B4FE0028C5D104340FCC6D698C3537
:106A50000FC523682B70012420460AB0BDE8F081E1
:106A600010B5436904461868002801DBFEF796FE5E
:106A700063694FF0FF321A606069112200218C3087
:106A800002F000FD2046BDE81040FFF767BF0000A0
:106A900030B54269B2F886308BB004461BB1B2F80B
:106AA00084209A4240D06369186800283FDBB3F81D
:106AB00086507F2D3BD8191DC5F18002082329443B
:106AC000FEF77CFE00280CDD6369B3F886200AB966
:106AD000A3F884206269B2F886301844A2F88600D0
:106AE00025E0FEF76FFF03680B2B20D0FEF76AFF4F
:106AF00003680B2B1BD02023002502930395FEF780
:106B000061FF036801930E4B009302AA2B460D49C7
:106B10003220FEF7B3FE63691868FEF73FFE636933
:106B20004FF0FF321A6002E0FFF718FFBBE762691F
:106B3000B2F88630B2F88400181A0BB030BD00BF2E
:106B4000539D0D004C9D0D0010B5002304460160BF
:106B5000A0F88430A0F886308830FFF7EBFA2046A2
:106B600010BD00004FF47A7270B500238260144AA1
:106B700043600260436183610446A0200E46FDF736
:106B80008CFA054610B13146FFF7DEFF1420FDF701
:106B900084FA034628B1012242608260094A0260F9
:106BA0000561A0696561A36128B14368013B436049
:106BB0000BB9FFF7DFFD2046FFF7D0FE204670BD82
:106BC000089D0D00EC9C0D0010B54FF0FF31044600
:106BD000FFF7C8FF204610BD10B504460068002826
:106BE00001DBFEF7DBFD204610BD10B50469204631
:106BF000FFF7F2FF24B12046BDE81040FDF74FBA81
:106C000010BD002211464068FEF77CBE00221146EE
:106C10004068FEF797BE002211464068FEF7A2BE0C
:106C200000224068FEF796BE002281F00101406814
:106C3000FEF780BE00231A4619464068FEF772BE72
:106C400000231A4619464068FEF764BE002211462A
:106C50004068FEF747BE002202214068FEF74ABEA8
:106C600000231A464068FEF735BE0000024B04229E
:106C70005A60024A1A60704720E703206C9D0D009D
:106C800000231A464068FEF725BE00220221406814
:106C9000FEF730BE002211464068FEF723BE0022F8
:106CA00011464068FEF72EBE00231A46194640687A
:106CB000FEF730BE00231A4619464068FEF732BE82
:106CC000002281F001014068FEF734BE00224068D6
:106CD000FEF740BE002211464068FEF743BE002288
:106CE00011464068FEF72EBE2DE9F043002495B012
:106CF00016460D460746FFF71DFA214620220CA82E
:106D0000009402F0BFFB40230C9321466B460CAA73
:106D10003046FEF7D3FB0446002844D10246012149
:106D20006868FEF7EFFD0221804622466868FEF79C
:106D3000E9FD009E81462146002E34D0002932D143
:106D40007368022B02D00A2B09D02AE0B8F1000F99
:106D500027D0716938460431FFF72FFA20E0B9F1E6
:106D6000000F1ED07469112201A802F08BFB0623CC
:106D70008DF8143001AD04F108031834186859680F
:106D80002A4603C20833A3421546F7D101A906A833
:106D900007ADFFF7DDF90FCD3C1D0FC42B68237045
:106DA0000121F669C8E70098FEF780FB384615B068
:106DB000BDE8F083024B034A1A6000225A60704714
:106DC00028E70320A09D0D0070B5184E316811F022
:106DD000010504460AD13046FDF770F930B1294665
:106DE0001348FEF73BFE3046FDF76DF91048FEF7FD
:106DF000DFFE28B1A4F10B03022B01D8002070BDE7
:106E000000F070F8FFF774FB08B1012CF6D9FFF71A
:106E1000C9FAFFF7C3FA18B1A4F10903012BEDD9A0
:106E2000232C8CBF0020012070BD00BFD0E30320C5
:106E3000D4E30320232838B504460D460AD8FF2999
:106E400008D0FFF7C1FF28B129462046BDE83840E9
:106E5000FEF744BB38BD38B504460D46FEF746FB89
:106E6000FF2810D0062804D84D2323FA00F0C307CA
:106E700009D42046FFF7A8FF28B129462046BDE8DF
:106E80003840FEF73BBB38BD10B50446FEF72EFB7D
:106E90000438C0B2012808D92046FFF795FF20B179
:106EA0002046BDE81040FEF731BB002010BD0000B9
:106EB00070B5044614252A46094E002102F0E2FA74
:106EC000258020253146A5602561284600F040F840
:106ED00031466060284600F03BF8E060204670BD17
:106EE000CC9D0D0030B50E4D296811F0010487B01E
:106EF00013D12846FDF7E2F878B101A8FFF7D8FFD3
:106F000001AA21460748FFF79FFA2846FDF7DBF85C
:106F1000054A0649034800F00BF8024807B030BDA7
:106F200034E7032038E7032064E20320F1630D0017
:106F30000B460146184602F071BA0000024B186871
:106F4000BFF35F8F704700BF4CE70320FDF7A7B882
:106F500000F000B810B5002814BF044601242046F4
:106F6000FEF710FD20B9FFF7E9FF08B18047F6E70B
:106F700010BD0000184B1A68D1075CBF01221A60CF
:106F8000164B1A68D2075CBF01221A60144B1A68AC
:106F9000D0075CBF01221A60124B1A68D1075CBF90
:106FA00001221A60104B1A68D2075CBF01221A60D6
:106FB0000E4B1A68D0075CBF01221A600C4B1A688E
:106FC000D1075CBF01221A600A4B1A68D2075CBF66
:106FD00001221A60704700BF6CE7032068E70320B6
:106FE00064E7032060E703205CE7032058E7032001
:106FF00054E7032050E70320244B1A68D0075CBFF6
:1070000001221A60224B1A68D1075CBF01221A6064
:10701000204B1A68D2075CBF01221A601E4B1A6807
:10702000D0075CBF01221A601C4B1A68D1075CBFF5
:1070300001221A601A4B1A68D2075CBF01221A603B
:10704000184B1A68D0075CBF01221A60164B1A68E9
:10705000D1075CBF01221A60144B1A68D2075CBFCB
:1070600001221A60124B1A68D0075CBF01221A6015
:10707000104B1A68D1075CBF01221A600E4B1A68C8
:10708000D2075CBF01221A60704700BF9CE7032053
:1070900098E7032094E7032090E703208CE7032080
:1070A00088E7032084E7032080E703207CE70320B0
:1070B00078E7032074E7032070E70320244B1A6865
:1070C000D0075CBF01221A60224B1A68D1075CBF4F
:1070D00001221A60204B1A68D2075CBF01221A6095
:1070E0001E4B1A68D0075CBF01221A601C4B1A683D
:1070F000D1075CBF01221A601A4B1A68D2075CBF25
:1071000001221A60184B1A68D0075CBF01221A606E
:10711000164B1A68D1075CBF01221A60144B1A681B
:10712000D2075CBF01221A60124B1A68D0075CBFFD
:1071300001221A60104B1A68D1075CBF01221A6045
:107140000E4B1A68D2075CBF01221A60704700BF5D
:10715000CCE70320C8E70320C4E70320C0E70320EF
:10716000BCE70320B8E70320B4E70320B0E703201F
:10717000ACE70320A8E70320A4E70320A0E703204F
:10718000184B1A68D1075CBF01221A60164B1A68A7
:10719000D2075CBF01221A60144B1A68D0075CBF8B
:1071A00001221A60124B1A68D1075CBF01221A60D3
:1071B000104B1A68D2075CBF01221A600E4B1A6886
:1071C000D0075CBF01221A600C4B1A68D1075CBF64
:1071D00001221A600A4B1A68D2075CBF01221A60AA
:1071E000704700BFECE70320E8E70320E4E7032053
:1071F000E0E70320DCE70320D8E70320D4E70320FF
:10720000D0E70320000000002DE9F04F2DED028BA8
:10721000DFF824A38BB057EC106B55EC114B00F04A
:107220008FF99AF90080B0EE408AF0EE608AB8F1EA
:10723000FF3F48D022462B462046294601F06EFDEE
:10724000834600283FD132463B463046394601F05E
:1072500065FD8146002840F0908030463946002286
:10726000002301F029FD002836D00022002320460B
:10727000294601F021FD8346B8B19FEDA57B01228F
:10728000A94BCDF820900092CDE90267CDE90445E5
:107290008DED067B0193B8F1000F5BD09FED9E0B47
:1072A0000BB0BDEC028BBDE8F08F45EC104B00F04D
:1072B000A7FF40B1002200232046294601F006FD29
:1072C000002840F0C580B0EE480AF0EE680A0BB026
:1072D000BDEC028BBDE8F08FB0EE480AF0EE680A14
:1072E00000F08EFF8046002861D04FF000084FF07C
:1072F000000951EC180B42464B4601F0DDFC00281A
:10730000E1D047EC106B00F07BFF0028DBD045ECB0
:10731000104B00F075FF0028D5D09AF90030824A52
:10732000019204210022022BCDE90267CDE9044538
:10733000CDE906890091089203D0684600F068FF05
:1073400070B9FEF73FFB2223036009E09FED707BDD
:107350008DED067B684600F05BFF002800F08E8014
:10736000089B1BB1FEF72EFB089B03609DED060BEF
:107370000BB0BDEC028BBDE8F08F0022002320464D
:10738000294601F099FC00289DD09FED630B664BC8
:10739000CDF820B00122B8F1020FCDE90267CDE9A6
:1073A00004458DED060B8DE80C00D3D18FE747EC3B
:1073B000106B00F025FF002897D045EC104B00F033
:1073C0001FFF002891D053EC182B18EE100A194615
:1073D00001F0A4FC00287CD103239AF900800093DB
:1073E000514B0890CDE90267CDE904450193B8F10E
:1073F000000F48D1DFF844914FF06048002200238D
:1074000030463946CDE9068901F060FC002894D069
:107410000022464B2046294601F0E6F904460D4677
:1074200045EC104B00F000FF204653EC102B294692
:1074300001F042FC002849D13D4B9AF900804FF001
:107440006042CDE90623B8F1020F7FF476AF78E70A
:10745000354A9AF90030CDF820B00121CDE9026714
:10746000CDE904458DE80600002B3FF46FAF3149AC
:107470000020022BCDE906017FF46CAFFEF7A2FAE3
:10748000212303606CE79FED267B0022002330461A
:1074900039468DED067B01F019FC0028D3D000227F
:1074A000224B2046294601F09FF904460D4645EC43
:1074B000104B00F0B9FE204653EC102B294601F08A
:1074C000FBFB18B91B4B0022CDE906239AF900807B
:1074D000B9E7154B9AF90090CDF820800122CDE94B
:1074E0000267CDE904458DE80C00B9F1000F3FF4C7
:1074F0002DAF002200231046194601F09FFAB9F182
:10750000020FCDE90601B9D024E700BFAFF3008038
:107510000000000000000000000000000000F03F3C
:10752000000000000000F07FD09D0D000000E03F53
:10753000FFFFEFC70000F0FFFCE10320FFFFEF4774
:107540002DE9F04F51EC110B21F0004858EA0004EE
:1075500093B03CD053EC102B6D4E23F00044B4425A
:1075600010EE10AA1D462BDC894611EE10EA26D03B
:10757000B04525DC664EB04577D0002D16461F4637
:10758000CDE9000175DB4FF0000BBEF1000F2DD1EE
:107590005F4B984500F089805E4B98455ED0B9F10D
:1075A000804F00F0DE835C4B99451FD1002D1DDB21
:1075B00047EC106B13B0BDE8F04F00F049BD5AB175
:1075C00004F1404404F5801454EA0A0306D19FED07
:1075D0004A0B13B0BDE8F08FA045CBDD4F4813B088
:1075E000BDE8F04F00F018BE4FF0000B47EC106BF9
:1075F00000F0FEFD51EC100BBAF1000F1ED0ED0FA4
:1076000005F1FF3A5BEA0A0363D0454B984540F326
:107610008D8003F10473984540F33884414B9C42BC
:1076200062DDB9F1000F62DD35A3D3E90023104616
:10763000194601F0D9F841EC100BCAE724B1354BDB
:1076400025F040429A42DAD1B9F1000FC0F2CB8363
:10765000002DC0F2748341EC100BBAE7B9F1000FB2
:10766000C0F27A8447EC106BB3E7BEF1000F84D010
:10767000A6E72D4B984529DCA3F15473984582DD8C
:107680004FEA2853A3F2FF33142B40F37F84C3F156
:1076900034032EFA03F202FA03F39E457FF473AF2C
:1076A00002F00102C2F1020B6FE704F1404303F55F
:1076B000801353EA0A038AD01A4B9C4240F3858315
:1076C000B9F1000F13DB9DED000B82E74FF0020BC9
:1076D0005BE732463B461046194600F0D1FE0246B3
:1076E0000B4601F0ABF9B6E7B9F1000F9CDB9FED5B
:1076F000060B6EE7AFF30080000000000000F03FD3
:107700009C7500883CE4377E00000000000000000B
:107710000000F07F0000F03F0000E03FD49D0D002E
:107720000000E041FFFFEF3FFFFF3F43B4F5801F44
:107730004FF0000205DAD64B01F056F86FF0340234
:107740000C462315D34EC4F31304A3F2FF331344A2
:1077500044F07F55B4421A460D9345F4401540F36A
:107760004983CD4B9C4240F32D849FEDB37B8DED3F
:10777000087B8DED0E7B9FEDB27B13468DED067B76
:1077800001330D93A5F580154FF00008DDE90623C0
:107790002946CDE90A0100F073FEDDE9062306461D
:1077A0000F46DDE90A0100F06DFE02460B4600209F
:1077B000BA4901F043F903460C46CDE910340246BC
:1077C0000B463046394601F00FF86B1043F000537A
:1077D00003F5002303EB08050A4600230146CDE923
:1077E00002120293DDE902890024CDE904122B463E
:1077F00022464046494600F0F7FF02460B46304617
:10780000394600F03DFEDDE9062306460F462046D8
:10781000294600F035FE02460B46DDE90A0100F07C
:107820002FFE42464B4600F0DFFF02460B46304635
:10783000394600F025FEDDE9102300F0D5FFDDE933
:107840000445CDE9060122462B462046294600F094
:10785000CBFF7DA3D3E9002304460D4600F0C4FF0F
:107860007BA3D3E9002300F00DFE22462B4600F057
:10787000BBFF79A3D3E9002300F004FE22462B4688
:1078800000F0B2FF76A3D3E9002300F0FBFD22460F
:107890002B4600F0A9FF74A3D3E9002300F0F2FD0A
:1078A00022462B4600F0A0FF71A3D3E9002300F08D
:1078B000E9FD224606460F462B462046294600F0A3
:1078C00093FF02460B463046394600F08DFF424694
:1078D00004460D464B46DDE9040100F0D3FDDDE929
:1078E000062300F081FF22462B4600F0CBFD4246E6
:1078F00006460F464B464046494600F075FF0022BB
:10790000674BCDE90A0100F0BDFD32463B4600F071
:10791000B9FD02980D46044622462B46404649468C
:1079200000F062FF0022804689465D4B20462946D2
:1079300000F0A6FDDDE90A2300F0A2FD02460B4699
:107940003046394600F09CFDDDE9042300F04CFF91
:10795000224606460F462B46DDE9060100F044FFAD
:1079600002460B463046394600F08CFD06460F466F
:1079700002460B4640464946CDE9048900F082FDA7
:1079800002983DA3D3E9002304460D4600F02CFFE6
:10799000DDE90423804689462046294600F070FD33
:1079A00002460B463046394600F06AFD34A3D3E95F
:1079B000002300F019FF34A3D3E9002306460F4645
:1079C0002046294600F010FF02460B463046394655
:1079D00000F058FDDDE90E2300F054FD06460D9839
:1079E0000F4600F09BFE324604460D463B4640469D
:1079F000494600F047FDDDE9082300F043FD22463B
:107A00002B4600F03FFD029822462B46CDE90201AD
:107A100000F036FDDDE9082300F032FD42464B461A
:107A200000F02EFD02460B463046394600F028FD98
:107A30008046894636E000BF0000000000000000DC
:107A4000000000000000F03FEF4E454A287ECA3F8C
:107A500065DBC9934A86CD3F01411DA96074D13FC2
:107A60004D268F515555D53FFFAB6FDBB66DDB3FD4
:107A7000033333333333E33F000000E009C7EE3F05
:107A8000FD033ADC09C7EE3FF5015B14E02F3EBE73
:107A9000000040438E98030079B60B000000F03FD1
:107AA000000008400BF1FF3353EA0A0300F088811D
:107AB0009FEDD77B8DED067BDDE900AB53465C4641
:107AC000CDE9003400230093DDE90045504622460D
:107AD0002B46594600F0D4FCDDE9022300F084FE79
:107AE000524606460F465B464046494600F07CFE3D
:107AF00002460B463046394600F0C4FC224680461A
:107B000089462B46DDE90201CDE9048900F06CFECF
:107B10000B46024606460F464046494600F0B2FC78
:107B2000D54B994204460D468A4640F3238101F124
:107B30003F4303F5E003034340F01882B6A3D3E9C3
:107B40000023DDE9040100F09DFC324680468946B1
:107B50003B462046294600F093FC02460B46404631
:107B6000494601F0D1F8002840F00082A8464FEACB
:107B700028534FF48012A3F2FE3342FA03F3534426
:107B8000C3F30A52BD4DA2F2FF321541C3F3130BEA
:107B90000020C2F1140423EA05014BF4801BBAF162
:107BA000000F02460B464BFA04FB30463946B8BF7D
:107BB000CBF1000B00F064FC02460B4606460F4674
:107BC000DDE9040100F05EFC4FEA0B5A002494A3A7
:107BD000D3E9002320460D4600F006FE32468046DB
:107BE00089463B462046294600F04AFC02460B46A1
:107BF000DDE9040100F044FC8BA3D3E9002300F08D
:107C0000F3FD8BA3D3E9002306460F462046294601
:107C100000F0EAFD02460B463046394600F032FCE1
:107C200006460F4602460B464046494600F02AFCEF
:107C300042464B4604460D4600F022FC02460B46E7
:107C40003046394600F01CFC2246804689462B46C9
:107C50002046294600F0C8FD77A3D3E90023064655
:107C60000F4600F0C1FD76A3D3E9002300F008FC25
:107C700032463B4600F0B8FD73A3D3E9002300F081
:107C800001FC32463B4600F0AFFD71A3D3E900236F
:107C900000F0F6FB32463B4600F0A6FD6EA3D3E9AA
:107CA000002300F0EFFB32463B4600F09DFD02460C
:107CB0000B462046294600F0E3FB06460F460246E7
:107CC0000B462046294600F08FFD0022CDE9000139
:107CD0004FF080433046394600F0D2FB02460B4657
:107CE000DDE9000100F0AAFE424606460F464B467B
:107CF0002046294600F078FD42464B4600F0C2FB84
:107D000002460B463046394600F0BAFB22462B4667
:107D100000F0B6FB02460B460020594900F0B0FBCC
:107D20008A44BAF5801F02460B46C0F25B81514679
:107D3000DDE9062300F058FD41EC100B49E404F1A5
:107D4000404404F5801454EA0B0300F03781BBF182
:107D5000010F7FF480AC024601F1004343EC102B8D
:107D600037E432463B463046394600F03DFD41ECB3
:107D7000100B2EE4434B21F00048984540F3158149
:107D8000414B0B4403430CD132463B4600F078FB99
:107D900002460B46DDE9040100F0A2FF00283FF493
:107DA000E6AE2FA3D3E90023DDE9060100F01CFDB8
:107DB0002BA3D3E9002300F017FD41EC100B08E4DE
:107DC0009FED297B8DED067B76E6B9F1000FBFF6BE
:107DD0008EACDDE9003400EE103A04F1004300EE11
:107DE000903AFFF7F6BB02460B460020244900F00C
:107DF00025FE2DE49FED1E7B8DED087B8DED0E7B2A
:107E00009FED037B4FF000088DED067BBEE400BFC5
:107E1000000000000000F03FFE822B654715973CF4
:107E200000000000432EE63FEF39FAFE422EE63F07
:107E3000396CA80C615C20BED0A4BE726937663E66
:107E4000F16BD2C541BDBB3E2CDE25AF6A56113F5A
:107E500093BDBE166CC1663F3E5555555555C53F41
:107E600059F3F8C21F6EA501000000000000F0BF2A
:107E70000000000000000000FFFF8F40FFFF0F0028
:107E80000000F03FFFCB904000346F3F6C4B9C42B2
:107E90007FF72AAC6B4B9C423FF7C3AB0022694B88
:107EA00000F0EEFA56A3D3E9002304460D4600F095
:107EB0009BFC55A3D3E900238046894620462946EA
:107EC00000F092FC0022CDE902015F4B20462946DA
:107ED00000F08AFC02460B464DA1D1E9000100F0FA
:107EE000CFFA22462B4600F07FFC02460B460020CC
:107EF000564900F0C5FA22462B4606460F46204654
:107F0000294600F071FC02460B463046394600F027
:107F10006BFC41A3D3E9002300F066FC02460B464C
:107F2000DDE9020100F0ACFA02460B4604460D46BC
:107F30004046494600F0A6FA42464B460020CDE9AD
:107F4000020100F09DFA02460B462046294600F049
:107F500097FA80468946A5E532463B4600203949D6
:107F600000F06CFD41EC100BFFF733BB2CA3D3E901
:107F70000023DDE9060100F037FC29A3D3E9002343
:107F800000F032FC41EC100BFFF723BBBEF1000FF9
:107F90007FF42AABC3F1140348FA03F202FA03F3A5
:107FA000984527D0F346FFF7F7BA284B98453FF797
:107FB000DEADDDE900349A469B4607E602460B46F5
:107FC000FFF789BB9FED187B8DED087B9FED187B3C
:107FD0008DED0E7B9FED187B4FF480288DED067B99
:107FE000FFF7D4BB584643EC102B00F0B1F951EC2D
:107FF000100B9DE602F00102C2F1020BFFF7CCBAB2
:10800000000000604715F73F44DF5DF80BAE543EBB
:10801000555555555555D53FFE822B654715F73FAC
:108020009C7500883CE4377E0000004003B8E23FC6
:1080300006D0CF43EBFD4C3E000000000000F83FAF
:10804000FEFFEF3F0000F03F0000D03F0000E03FA8
:108050002DE9F041654955EC104B0E462940B142DF
:1080600000F09780002D2B4610EE102A74DD2F159E
:108070007FD0A7F2FF37C3F31303F90743F480134C
:1080800065D403EBD27100260B447F105200B64634
:1080900016204FF400110EEB01049C424FEAD275FA
:1080A0004FEA420203DC1B1B04EB010E0E440138B5
:1080B00005EB43034FEA5101EDD1844620244FF0F4
:1080C000004109E020D003EBD275013C4FEA510199
:1080D0002B444FEA420220D09E4501EB0C05F1DA19
:1080E000002D05EB010C09DBF0469542CEEB0303B6
:1080F00000D9013B521B0844C646E4E7BCF1000F1F
:10810000F2DB0EF10108F0E795421ED8002D05EBD9
:10811000010C50DB98460023ECE7134304D0421CCB
:108120004DD000F00103184440087110F30701F12D
:108130007F5101F5001148BF40F0004001EB0753AB
:10814000024643EC102BBDE8F0817346BBE75B00B1
:1081500003EBD273520094E725F00041214328D06D
:10816000ADBB2F46D30A153F5205002BFAD0DD02D6
:1081700028D4002100E001465B00DC0201F101008F
:10818000F9D5C0F1200422FA04F423437F1A824077
:108190006FE710EE102A2B4610EE100A294600F069
:1081A00023FB22462B4600F06DF941EC100BBDE895
:1081B000F081BDE8F081BCF1000FA2DAAAE7013638
:1081C0002046B2E720244FF0FF310020DBE710EE1D
:1081D000102A2B462046294600F052F902460B464B
:1081E00000F02CFC41EC100BBDE8F0810000F07FAA
:1081F00053EC102B23F0004343EC102B704700BFCF
:1082000010EE903A43F0004000F58010C00F704728
:1082100000207047000000009FED010B704700BF79
:10822000000000000000F87FF0B553EC102BC3F302
:108230000A56A6F2FF30132883B019464FEAD374CA
:1082400010EE105A2FDC002849DB3F4E064103EAAE
:10825000060717432CD0760833401D430CD04FF44B
:108260008023132821EA060643FA00F141EA0601B9
:108270000CBF4FF000450025344800EBC4042A46EB
:10828000D4E9004510462B46224600F0FBF8CDE924
:10829000000122462B46DDE9000100F0F1F841EC37
:1082A000100B03B0F0BD332806DDB0F5806F42D06F
:1082B00043EC102B03B0F0BDA6F213464FF0FF3095
:1082C000F0400242F4D040080242D5D04FF0804343
:1082D00025EA000043FA06F646EA0005CCE723F05B
:1082E0000040104310EE107AE2D0C3F313000743AE
:1082F000784207431548590C3F0B490407F40027FF
:1083000000EBC40047EA0103D0E9006719461046B4
:108310003B46324600F0B6F8CDE900013B46324616
:10832000DDE9000100F0ACF821F0004343EAC4713C
:1083300041EC100BBEE710EE100A194600F0A2F84F
:1083400041EC100BB6E700BFFFFF0F00D89D0D00FA
:1083500053EC102B70B5C3F30A541946054614BBF1
:1083600023F0004111432AD019460022384B394EE0
:1083700010EE100A00F038FAB54202460B461FDB39
:10838000C1F30A54363C2C4440F2FE7084421FDC98
:10839000002C2DDD21F0FF4121F4E00141EA0453DE
:1083A00043EC102B70BD40F2FF708442EBD110EE15
:1083B000100A194600F066F841EC100B70BD70BD54
:1083C0001FA3D3E9002300F00FFA41EC100B70BD9E
:1083D00043EC112B9FED1C0B00F040F81AA3D3E9DE
:1083E000002351EC100B00F0FFF941EC100B70BDB5
:1083F00014F1350F13DA4CF250318D4243EC112B4E
:10840000E8DC9FED0F0B00F029F80DA3D3E9002362
:1084100051EC100B00F0E8F941EC100B70BD21F0AD
:10842000FF4121F4E001363441EA04531046194675
:108430000022094B00F0D8F941EC100B70BD00BFD1
:1084400059F3F8C21F6EA5019C7500883CE4377E85
:1084500000005043B03CFFFF0000903C53EC102B59
:1084600011EE900A23F0004100F0004041EA0003C1
:1084700043EC102B704700BF81F0004102E000BFC9
:1084800083F0004330B54FEA41044FEA430594EAD4
:10849000050F08BF90EA020F1FBF54EA000C55EA0F
:1084A000020C7FEA645C7FEA655C00F0E2804FEAE0
:1084B0005454D4EB5555B8BF6D420CDD2C4480EAC2
:1084C000020281EA030382EA000083EA010180EAF2
:1084D000020281EA0303362D88BF30BD11F0004F40
:1084E0004FEA01314FF4801C4CEA113102D0404276
:1084F00061EB410113F0004F4FEA03334CEA1333B1
:1085000002D0524263EB430394EA050F00F0A780C8
:10851000A4F10104D5F1200E0DDB02FA0EFC22FAC3
:1085200005F2801841F1000103FA0EF2801843FAB7
:1085300005F359410EE0A5F120050EF1200E012AA8
:1085400003FA0EFC28BF4CF0020C43FA05F3C018E6
:1085500051EBE37101F0004507D54FF0000EDCF15F
:10856000000C7EEB00006EEB0101B1F5801F1BD308
:10857000B1F5001F0CD349085FEA30004FEA3C0C0C
:1085800004F101044FEA445212F5800F80F09A8002
:10859000BCF1004F08BF5FEA500C50F1000041EB06
:1085A000045141EA050130BD5FEA4C0C404141EB0A
:1085B000010111F4801FA4F10104E9D191F0000F31
:1085C00004BF01460020B1FA81F308BF2033A3F1B4
:1085D0000B03B3F120020CDA0C3208DD02F1140CAB
:1085E000C2F10C0201FA0CF021FA02F10CE002F1E6
:1085F0001402D8BFC2F1200C01FA02F120FA0CFCDF
:10860000DCBF41EA0C019040E41AA2BF01EB045127
:10861000294330BD6FEA04041F3C1CDA0C340EDC25
:1086200004F11404C4F1200220FA04F001FA02F368
:1086300040EA030021FA04F345EA030130BDC4F126
:108640000C04C4F1200220FA02F001FA04F340EA1B
:108650000300294630BD21FA04F0294630BD94F0CC
:10866000000F83F4801306BF81F480110134013DB3
:108670004EE77FEA645C18BF7FEA655C29D094EA24
:10868000050F08BF90EA020F05D054EA000C04BFA2
:108690001946104630BD91EA030F1EBF002100208D
:1086A00030BD5FEA545C05D14000494128BF41F02C
:1086B000004130BD14F580043CBF01F5801130BD90
:1086C00001F0004545F0FE4141F470014FF000001B
:1086D00030BD7FEA645C1ABF194610467FEA655CCC
:1086E0001CBF0B46024650EA013406BF52EA03356E
:1086F00091EA030F41F4002130BD00BF90F0000F5C
:1087000004BF0021704730B54FF4806404F1320497
:108710004FF000054FF0000150E700BF90F0000F50
:1087200004BF0021704730B54FF4806404F1320477
:1087300010F0004548BF40424FF000013EE700BF47
:1087400042004FEAE2014FEA31014FEA02701FBFD7
:1087500012F07F4393F07F4F81F06051704792F0A9
:10876000000F14BF93F07F4F704730B54FF4607423
:1087700001F0004521F0004120E700BF50EA01026E
:1087800008BF704730B54FF000050AE050EA01021B
:1087900008BF704730B511F0004502D5404261EB8B
:1087A00041014FF4806404F132045FEA915C3FF4CC
:1087B000DCAE4FF003025FEADC0C18BF03325FEA65
:1087C000DC0C18BF033202EBDC02C2F1200300FA1A
:1087D00003FC20FA02F001FA03FE40EA0E0021FA3F
:1087E00002F11444C1E600BF70B54FF0FF0C4CF429
:1087F000E06C1CEA11541DBF1CEA135594EA0C0FDF
:1088000095EA0C0F00F0DEF82C4481EA030621EA19
:108810004C5123EA4C5350EA013518BF52EA033554
:1088200041F4801143F4801338D0A0FB02CE4FF006
:108830000005E1FB02E506F00042E0FB03E54FF036
:108840000006E1FB03569CF0000F18BF4EF0010E2E
:10885000A4F1FF04B6F5007F64F5407404D25FEA2A
:108860004E0E6D4146EB060642EAC62141EA5551DD
:108870004FEAC52040EA5E504FEACE2EB4F1FD0C1F
:1088800088BFBCF5E06F1ED8BEF1004F08BF5FEA9D
:10889000500E50F1000041EB045170BD06F000464F
:1088A00046EA010140EA020081EA0301B4EB5C04FC
:1088B000C2BFD4EB0C0541EA045170BD41F48011F4
:1088C0004FF0000E013C00F3AB8014F1360FDEBF19
:1088D000002001F0004170BDC4F10004203C35DAF5
:1088E0000C341BDC04F11404C4F1200500FA05F378
:1088F00020FA04F001FA05F240EA020001F0004219
:1089000021F0004110EBD37021FA04F642EB06018E
:108910005EEA430E08BF20EAD37070BDC4F10C04B8
:10892000C4F1200500FA04F320FA05F001FA04F27C
:1089300040EA020001F0004110EBD37041F1000168
:108940005EEA430E08BF20EAD37070BDC4F1200573
:1089500000FA05F24EEA020E20FA04F301FA05F2DB
:1089600043EA020321FA04F001F0004121FA04F283
:1089700020EA020000EBD3705EEA430E08BF20EA53
:10898000D37070BD94F0000F0FD101F0004640008D
:1089900041EB010111F4801F08BF013CF7D041EA0F
:1089A000060195F0000F18BF704703F00046520013
:1089B00043EB030313F4801F08BF013DF7D043EAE4
:1089C0000603704794EA0C0F0CEA135518BF95EA9A
:1089D0000C0F0CD050EA410618BF52EA4306D1D121
:1089E00081EA030101F000414FF0000070BD50EA40
:1089F000410606BF1046194652EA430619D094EACA
:108A00000C0F02D150EA013613D195EA0C0F05D1B3
:108A100052EA03361CBF104619460AD181EA030107
:108A200001F0004141F0FE4141F470014FF00000BF
:108A300070BD41F0FE4141F4780170BD70B54FF05A
:108A4000FF0C4CF4E06C1CEA11541DBF1CEA1355DA
:108A500094EA0C0F95EA0C0F00F0A7F8A4EB0504BC
:108A600081EA030E52EA03354FEA013100F08880B3
:108A70004FEA03334FF0805545EA131343EA12637C
:108A80004FEA022245EA111545EA10654FEA002631
:108A90000EF000419D4208BF964244F1FD0404F5EA
:108AA000407402D25B084FEA3202B61A65EB030546
:108AB0005B084FEA32024FF480104FF4002CB6EB03
:108AC000020E75EB030E22BFB61A754640EA0C0083
:108AD0005B084FEA3202B6EB020E75EB030E22BFC3
:108AE000B61A754640EA5C005B084FEA3202B6EB04
:108AF000020E75EB030E22BFB61A754640EA9C00C3
:108B00005B084FEA3202B6EB020E75EB030E22BF92
:108B1000B61A754640EADC0055EA060E18D04FEA50
:108B2000051545EA16754FEA06164FEAC30343EAF0
:108B300052734FEAC2025FEA1C1CC0D111F4801FBD
:108B40000BD141EA00014FF000004FF0004CB6E7B6
:108B500011F4801F04BF01430020B4F1FD0C88BF55
:108B6000BCF5E06F3FF6AFAEB5EB030C04BFB6EB60
:108B7000020C5FEA500C50F1000041EB045170BD53
:108B80000EF0004E4EEA113114EB5C04C2BFD4EB80
:108B90000C0541EA045170BD41F480114FF0000E04
:108BA000013C90E645EA060E8DE60CEA135594EA80
:108BB0000C0F08BF95EA0C0F3FF43BAF94EA0C0F83
:108BC0000AD150EA01347FF434AF95EA0C0F7FF4F8
:108BD00025AF104619462CE795EA0C0F06D152EA4C
:108BE00003353FF4FDAE1046194622E750EA410630
:108BF00018BF52EA43067FF4C5AE50EA41047FF441
:108C00000DAF52EA43057FF4EBAE12E74FF0FF3CA5
:108C100006E000BF4FF0010C02E000BF4FF0010C76
:108C20004DF804CD4FEA410C7FEA6C5C4FEA430CEF
:108C300018BF7FEA6C5C1BD001B050EA410C0CBF3E
:108C400052EA430C91EA030F02BF90EA020F0020A0
:108C5000704710F1000F91EA030F58BF994208BF07
:108C600090422CBFD8176FEAE37040F001007047C4
:108C70004FEA410C7FEA6C5C02D150EA013C07D11B
:108C80004FEA430C7FEA6C5CD6D152EA033CD3D066
:108C90005DF8040B704700BF8446104662468C4660
:108CA0001946634600E000BF01B5FFF7B7FF002893
:108CB00048BF10F1000F01BD4DF808EDFFF7F4FFBC
:108CC0000CBF012000205DF808FB00BF4DF808ED47
:108CD000FFF7EAFF34BF012000205DF808FB00BF6A
:108CE0004DF808EDFFF7E0FF94BF012000205DF88C
:108CF00008FB00BF4DF808EDFFF7CEFF94BF012041
:108D000000205DF808FB00BF4DF808EDFFF7C4FF39
:108D100034BF012000205DF808FB00BF4FEA410C82
:108D20007FEA6C5C02D150EA013C0AD14FEA430C65
:108D30007FEA6C5C02D152EA033C02D14FF00000A2
:108D400070474FF0010070474FEA410212F50012E0
:108D500015D211D56FF47873B3EB625212D94FEA82
:108D6000C12343F0004343EA505311F0004F23FA6C
:108D700002F018BF404270474FF00000704750EAC1
:108D8000013005D111F0004008BF6FF0004070477E
:108D90004FF00000704700BF4A0011D212F50012D8
:108DA00011D20DD56FF47873B3EB62520ED44FEA43
:108DB000C12343F0004343EA505323FA02F07047C3
:108DC0004FF00000704750EA013002D14FF0FF3001
:108DD00070474FF0000070474FEA4102B2F1E043A4
:108DE00024BFB3F5001CDCF1FE5C0DD901F0004C92
:108DF0004FEAC0024CEA5070B2F1004F40EB8300E2
:108E000008BF20F00100704711F0804F21D113F10D
:108E10003872BCBF01F00040704741F480114FEA46
:108E20005252C2F11802C2F1200C10FA0CF320FACF
:108E300002F018BF40F001004FEAC1234FEAD323EC
:108E400003FA0CFC40EA0C0023FA02F34FEA430356
:108E5000CCE77FEA625307D150EA01331EBF4FF0DF
:108E6000FE4040F44000704701F0004040F0FE40FA
:108E700040F40000704700BF80F0004002E000BFF7
:108E800081F0004142001FBF5FEA410392EA030FF5
:108E90007FEA226C7FEA236C6AD04FEA1262D2EB3F
:108EA0001363C1BFD218414048404140B8BF5B4244
:108EB000192B88BF704710F0004F40F4000020F0DD
:108EC0007F4018BF404211F0004F41F4000121F0F3
:108ED0007F4118BF494292EA030F3FD0A2F101023D
:108EE00041FA03FC10EB0C00C3F1200301FA03F17B
:108EF00000F0004302D5494260EB4000B0F5000F9E
:108F000013D3B0F1807F06D340084FEA310102F15C
:108F10000102FE2A51D2B1F1004F40EBC25008BF0E
:108F200020F0010040EA03007047490040EB0000D8
:108F300010F4000FA2F10102EDD1B0FA80FCACF107
:108F4000080CB2EB0C0200FA0CF0AABF00EBC25006
:108F500052421843BCBFD0401843704792F0000FF4
:108F600081F4000106BF80F400000132013BB5E747
:108F70004FEA41037FEA226C18BF7FEA236C21D0BD
:108F800092EA030F04D092F0000F08BF0846704722
:108F900090EA010F1CBF0020704712F07F4F04D1F0
:108FA000400028BF40F00040704712F100723CBF03
:108FB00000F50000704700F0004343F0FE4040F42D
:108FC000000070477FEA226216BF08467FEA2363EB
:108FD0000146420206BF5FEA412390EA010F40F4D6
:108FE000800070474FF0000304E000BF10F0004322
:108FF00048BF40425FEA000C08BF704743F0964309
:1090000001464FF000001CE050EA010208BF704723
:109010004FF000030AE000BF50EA010208BF7047AA
:1090200011F0004302D5404261EB41015FEA010CBF
:1090300002BF84460146002043F0B64308BFA3F1B7
:109040008053A3F50003BCFA8CF2083AA3EBC25399
:1090500010DB01FA02FC634400FA02FCC2F12002B8
:10906000BCF1004F20FA02F243EB020008BF20F0EF
:109070000100704702F1200201FA02FCC2F1200255
:1090800050EA4C0021FA02F243EB020008BF20EA4A
:10909000DC7070477BB972B90029BEBF00204FF069
:1090A000004106E008BF00281CBF6FF000414FF0F0
:1090B000FF3000F0B1B9ADF1080C6DE904CE002924
:1090C00009DB002B1ADB00F035F8DDF804E0DDE900
:1090D000022304B07047404261EB4101002B1BDBCF
:1090E00000F028F8DDF804E0DDE9022304B0404296
:1090F00061EB4101524263EB43037047524263EB21
:10910000430300F017F8DDF804E0DDE9022304B0C2
:10911000404261EB41017047524263EB430300F070
:1091200009F8DDF804E0DDE9022304B0524263EB04
:10913000430370472DE9F0478C460E460446089DD0
:10914000002B50D18A4217466CD9B2FA82FEBEF18A
:10915000000F0BD0CEF1200420FA04F401FA0EF631
:1091600044EA060C02FA0EF700FA0EF44FEA174929
:10917000220CBCFBF9F01FFA87F809FB10C642EA83
:10918000064600FB08F3B34209D9F61900F1FF3295
:1091900080F02281B34240F21F8102383E44F61A29
:1091A000A2B2B6FBF9F309FB136642EA064403FBDD
:1091B00008F8A04509D9E41903F1FF3280F00A81CB
:1091C000A04540F20781023B3C44C8EB040443EA5B
:1091D00000400021002D62D024FA0EF400232C6000
:1091E0006B60BDE8F0878B4207D9002D55D0002178
:1091F00085E841000846BDE8F087B3FA83F100290D
:1092000040F09080B34202D3824200F2F880841A88
:1092100066EB03060120B446002D40D085E810100F
:10922000BDE8F08712B90127B7FBF2F7B7FA87FE5E
:10923000BEF1000F35D1F31B4FEA17481FFA87FC28
:109240000121B3FBF8F0220C08FB103642EA064677
:109250000CFB00F3B34207D9F61900F1FF3202D23A
:10926000B34200F2CE801046F61AA2B2B6FBF8F373
:1092700008FB136642EA06440CFB03FCA44507D92D
:10928000E41903F1FF3202D2A44500F2B58013467F
:10929000CCEB040443EA00409CE729462846BDE89D
:1092A000F087CEF1200106FA0EF307FA0EF720FA46
:1092B00001F94FEA1748CE4049EA0309B6FBF8FA2C
:1092C0004FEA194408FB1A661FFA87FC44EA064372
:1092D0000AFB0CF29A4200FA0EF40AD9DB190AF1E1
:1092E000FF3180F087809A4240F28480AAF1020A1E
:1092F0003B449B1A1FFA89F9B3FBF8F108FB1133C1
:1093000049EA034301FB0CF69E4207D9DB1901F140
:10931000FF326BD29E4269D902393B449B1B41EA22
:109320000A418EE7C1F1200E22FA0EF48B4023434E
:1093300020FA0EF706FA01F44FEA134C26FA0EF65D
:109340003C43B6FBFCF9270C0CFB19661FFA83F8AB
:1093500047EA064609FB08F7B74202FA01F200FAAB
:1093600001FA08D9F61809F1FF3041D2B7423FD9C6
:10937000A9F102091E44F61BA0B2B6FBFCF40CFBDB
:10938000146640EA064704FB08F8B84507D9FF18F9
:1093900004F1FF3028D2B84526D9023C1F4444EAE4
:1093A0000940C8EB0707A0FB02894F4544464E46DB
:1093B00014D329D065B3BAEB040367EB060707FAA9
:1093C0000EFECB40CF404EEA030385E88800002123
:1093D000BDE8F0871346F8E61046E0E6B8EB020475
:1093E00069EB03060138E5E70446D8E7114695E73F
:1093F0008146C0E78A467CE7023B3C4448E7084692
:109400000AE702383E442FE7C245E7D33E46D1E79C
:109410002946BDE8F08700BF704700BF10B5054C76
:1094200013462CB10A4601460220AFF3008010BD5E
:10943000204610BD0000000010B5431E0A449142B2
:1094400004D011F8014B03F8014FF8E710BD884232
:1094500010B501EB020301D8421E0BE09842FBD28B
:109460008118D21AD34204D013F8014D01F8014DEE
:10947000F8E710BD994204D011F8014B02F8014FF2
:10948000F8E710BD02440346934202D003F8011BE3
:10949000FAE7704738B5124B1C68A36B0546D3B981
:1094A0001820FCF76FFA43F20E33A06303804AF6EC
:1094B000CD33438041F2342383804EF26D63C38009
:1094C0004DF6EC630381052343810B238381012245
:1094D0000023C0E90423A36B00221D615A6138BD3B
:1094E00060E20320034611F8012B03F8012B002A48
:1094F000F9D17047034613F8012B002AFBD1181A43
:109500000138704710B5034642B111F8014B03F81A
:10951000014B013A002CF7D11A4400E010BD9342F0
:1095200002D003F8014BFAE710BD000021400D0006
:109530005D400D0089400D008D400D0000000000D1
:109540002D2D2D2D2D2D2D2D2D2D2D2D2D2D2D2D4B
:109550002D2D2D2D2D2D2D2D2D2D2D005363616E97
:109560006E696E6720666F722049324320446576CB
:10957000696365732E2E2E00493243206465766937
:10958000636520666F756E64206174206164647227
:1095900065737320307800300020202100556E6BF9
:1095A0006E6F77206572726F7220617420616464DF
:1095B00072657373203078004E6F20493243206407
:1095C00065766963657320666F756E640A00646F03
:1095D0006E650A000A493243205363616E6E6572FC
:1095E00000436F756C64206E6F742066696E642032
:1095F000612076616C696420424D453238302073B9
:10960000656E736F722C20636865636B2077697277
:10961000696E672C20616464726573732C207365B6
:109620006E736F72204944210053656E736F7249E7
:1096300044207761733A20307800202020202020B9
:1096400020204944206F6620307846462070726F93
:109650006261626C79206D65616E73206120626168
:109660006420616464726573732C206120424D50E4
:1096700020313830206F7220424D50203038350A6A
:10968000002020204944206F6620307835362D3068
:1096900078353820726570726573656E74732061F9
:1096A00020424D50203238302C0A0020202020202B
:1096B0002020204944206F662030783630207265A3
:1096C00070726573656E7473206120424D4520325F
:1096D00038302E0A0020202020202020204944203D
:1096E0006F66203078363120726570726573656EF2
:1096F0007473206120424D45203638302E0A002DEB
:109700002D2044656661756C742054657374202D3A
:109710002D0054656D7065726174757265203D2011
:1097200000202A43005072657373757265203D20D6
:10973000002068506100417070726F782E20416C7B
:10974000746974756465203D2000206D0048756D56
:109750006964697479203D20002025002D2D2D2D70
:109760002D2D2D2D2D2D2D2D2D4461746120746FE7
:10977000205075626C6973682D2D2D2D2D2D2D2D8A
:109780002D2D2D2D2D2D2D002D2D2D2D2D2D2D2D36
:109790002D2D2D2D2D2D2D456E64205075626C695B
:1097A00073682D2D2D2D2D2D2D2D2D2D2D2D2D2D68
:1097B0002D2D2D0072617368617000696F2E6164D8
:1097C0006166727569742E636F6D00353938313694
:1097D0003966613362613934363336393431613355
:1097E00033303937366534326532630072617368FD
:1097F00061702F66656564732F486F6D655F546592
:109800006D70657261747572650072617368617004
:109810002F66656564732F5072657373757265008A
:109820007261736861702F66656564732F52656C31
:1098300061746976655F48756D6964697479000063
:10984000000000000000000089450D0064656661AD
:10985000756C7420004D5342004C5342003C5350F1
:109860004953657474696E67732064656661756CCD
:10987000743E003C53504953657474696E6773209D
:109880002573256C75202573204D4F444525643E76
:10989000000000000000000000000000CD400D00AE
:1098A000C9440D00174F0D00C34F0D00F54F0D00BB
:1098B0002B4F0D006B4F0D0000000000000000005A
:1098C0000000000000000000A9400D00A9400D00AC
:1098D000A9400D00A9400D00A9400D00205B307883
:1098E000005D2C20000A090044726F7070656420CE
:1098F00061207061636B657400556E6B6E6F776E7F
:10990000206572726F72004D5154540025252564F4
:109910002E256466004661696C656420746F20734F
:10992000756273637269626500436F6E6E6563741E
:10993000696F6E206661696C6564005468652053C8
:10994000657276657220646F6573206E6F74207324
:109950007570706F727420746865206C6576656CC4
:10996000206F6620746865204D5154542070726FCA
:10997000746F636F6C2072657175657374656400D4
:1099800054686520436C69656E74206964656E7403
:10999000696669657220697320636F7272656374AA
:1099A000205554462D3820627574206E6F742061E6
:1099B0006C6C6F77656420627920746865205365EC
:1099C0007276657200546865204D51545420736559
:1099D000727669636520697320756E617661696C62
:1099E00061626C6500546865206461746120696E11
:1099F000207468652075736572206E616D65206FD7
:109A0000722070617373776F7264206973206D6167
:109A10006C666F726D6564004E6F7420617574685A
:109A20006F72697A656420746F20636F6E6E656310
:109A300074004578636565646564207265636F6E64
:109A40006E6563742072617465206C696D69742E33
:109A500020506C656173652074727920616761695B
:109A60006E206C617465722E00596F752068617686
:109A700065206265656E2062616E6E656420667247
:109A80006F6D20636F6E6E656374696E672E205014
:109A90006C6561736520636F6E74616374207468B4
:109AA00065204D515454207365727665722061644F
:109AB0006D696E6973747261746F7220666F722063
:109AC0006D6F72652064657461696C732E000000AF
:109AD0000000000000000000335A0D00295A0D005C
