:02000002D0002C
:1040000000400D0050D80D00000006000C00050116
:084010000401E80500000000B6
:0440180024C10D00B2
:1040200009480A49884208B505D0094A824202D0A7
:10403000121A07F075FB0748074A0021121A07F009
:1040400095FB014808BD00BF68DC03204CD30D0080
:1040500044E1032048E10320F4E7032070B503F0B6
:1040600019FD074C074BE41AA40800251E46A5427B
:1040700004D056F8253098470135F8E770BD00BFE9
:1040800034D30D00E4D20D0000F0CEB908B500F035
:10409000C3FBBDE8084003F0BFBC02F049BF02F01B
:1040A0004FBF02F04DBF000008B5034A00210C20AD
:1040B00002F06AFEFEE700BFC96A0D000078B0FAA0
:1040C00080F04009704701230370704770477047C4
:1040D00010B5034B0360044601F0ACFD204610BD53
:1040E00040C10D0010B50446FFF7F2FF20464FF423
:1040F000987104F051FF204610BD10B503680446C6
:104100009B689847A368013BA3602BB923682046AE
:10411000DB68BDE81040184710BD000010B5064B25
:1041200003600446806928B14368013B43600BB9D2
:10413000FFF7E3FF204610BDA8CF0D0010B50446E1
:10414000FFF7ECFF20461C2104F026FF204610BD9F
:1041500073B5164C164D236883420E461ADA04F0E6
:1041600073F82368134A009301212B68124C03F063
:1041700044FB4FF47A7003F001FC0121208804F025
:1041800054FE304603F0FAFB2088002104F04DFE77
:10419000012009E004F058F823680093074A2B68CF
:1041A000012103F02AFB002002B070BD68DC03206F
:1041B00070E3032048C10D0074DC032065C10D00CD
:1041C00070B586B003F0C9FB1F4C204E204D014650
:1041D00002A803F07FFB02A9204603F041F902A8E0
:1041E00003F0C7F8314620460023192203F040F9B6
:1041F0002146184C13230B2202A803F051F902A9FF
:10420000204603F02DF902A803F0B3F80023092299
:104210002946204603F02CF904F016F8216803F033
:10422000D8F904F011F80C4B0C4A1B6800930021DC
:10423000334603F0E2FA04F007F82B46084A00215F
:1042400003F0DBFA06B070BD18E3032088E3032017
:104250004CE1032098E1032070E3032085C10D00A9
:10426000A8C10D00000000002DE9F84300212DED4C
:10427000028B082004F0C8FD02F02EFC0546002445
:1042800047F230560021082004F035FE044402F0C5
:1042900023FC401BB042F5D9204606F057FA40A354
:1042A000D3E9002306F0F2FB06F0BEFD08EE900A0B
:1042B00006F06EFA06460F469FED331B47EC106B77
:1042C00004F0CAFF38A3D3E9002351EC100B06F029
:1042D000B3FA32463B46804689463046394606F0B8
:1042E000ABFA33A3D3E9002306F0A6FA02460B4645
:1042F0004046494606F0ECF8DFED277A68EEA77AEB
:10430000064617EE900A0F4606F042FA02460B46A2
:104310003046394606F0DEF81DA3D3E9002306F047
:10432000D9F806F081FD08EE100A03F08DFF0A228D
:10433000214603F05AF903F087FF184903F036F9D4
:1043400003F082FFB0EE680A022103F02DFA03F0B9
:104350007BFF124903F02AF903F076FF0221B0EE49
:10436000480A03F03BFA02F0B7FBFFEE007AB4EE26
:10437000678AF1EE10FA054681D0B0EE480ABDEC2E
:10438000028BBDE8F88300BF000000000000084079
:10439000D7A3703D0AD7E33F00000244B9C10D0026
:1043A00000000000804F12419A9999999999F13F24
:1043B0006666666666660E4010B5194C204601F0CA
:1043C0005FFF002211462046012301F0F9FE20463E
:1043D000012300227F2101F0F3FE204601233F222A
:1043E000002101F0EDFE01233F2220467F2101F054
:1043F000E7FE2046012102F09DFA2046012102F04D
:104400009EFA20461E221B2102F091FA2046054901
:1044100003F0CCF82046BDE8104002F053B800BFCE
:10442000C8E20320BBC10D0010B503F00DFF4FF42F
:10443000165103F0FDFE3C2202213448344C01F0B9
:104440006FFF324801F01CFF304802F03BF8FFF7E5
:10445000B3FF304B0021188804F0D6FC01212088DE
:1044600004F0D2FC0121072004F0CEFC00212088BA
:1044700004F0DBFCB9EE080A03F010FA02F030FD9C
:1044800010B1002002F03CFD2349244801F084F9DA
:1044900003F0DAFE224903F0A6F87621214801F064
:1044A00021F8214B186078BB03F0CEFE1F4903F0C2
:1044B00090F803F0C9FE1E4903F078F803F0C4FE3B
:1044C0000446184800F0C6FB10220146204603F0BF
:1044D0008CF8204603F071F803F0B6FE154903F09E
:1044E00065F803F0B1FE144903F060F803F0ACFE88
:1044F000124903F05BF803F0A7FE114903F056F8E8
:104500000A2003F03BFAFBE710BD00BFC8E203201E
:1045100074DC03206CDC032090E20320A8E103207C
:10452000C9C10D002CE30320F0E20320D5C10D002A
:104530001DC20D002EC20D0075C20D009FC20D00E0
:10454000C9C20D0013460A46002103F056B9000007
:1045500070B504460E46154601F074FC0122314642
:10456000204601F0E3FB20463A2101F093FB2A4666
:1045700020460249BDE8704001F0CBBB00D00D00E1
:1045800038B504462DED028B0D46B0EE408A01F0A1
:1045900059FC29462046012201F0C8FB20463A2159
:1045A00001F078FBB0EE480ABDEC028B2046BDE876
:1045B000384001F06BBC000030B52DED048BD3B05A
:1045C00005460C464FF4807212A906A8F0EE608AE8
:1045D000B0EE418AB0EE409A01F04AFB204B0693C0
:1045E0007D227B2106A801F038FC2A461D4906A839
:1045F000FFF7AEFFB0EE490A1B4906A8FFF7C0FF60
:10460000B0EE680A194906A8FFF7BAFFB0EE480AEB
:10461000174906A8FFF7B4FF2246164906A8FFF778
:1046200097FF06A801F044FB079B0393124B039AE4
:104630001B788DF8003004A83C23104903F098FB48
:10464000059828B14368013B43600BB9FFF755FD5E
:1046500006A8FFF73DFD53B0BDEC048B30BD00BF95
:1046600040C10D0086C40D0068C40D00B9C40D0022
:10467000D4C40D00F3C20D00ECE2032001C30D0011
:1046800037B5044610EE100A0D4606F081F82A46AA
:10469000CDE900010021204603F0AFF803B030BDA2
:1046A00007B503F0D1FD184BD3E900230021CDE974
:1046B0000023164A03F0A1F803F0C6FD144BD3E91A
:1046C00000230021CDE90023124A03F096F803F0FD
:1046D000BBFD114BD3E900230021CDE900230F4A94
:1046E00003F08BF803F0B0FD0D4B0E491A68FFF78D
:1046F00029FF03F0A9FD0C4B0C4993ED000AFFF7CD
:10470000BFFF03B05DF804FB90E103200AC30D0076
:1047100080E3032026C30D0088E203203FC30D0081
:1047200070E3032058C30D0004E3032073C30D009E
:1047300038B5324C2DED048B05462046B0EE609A1C
:10474000F0EE418AB0EE618AF0EE409A01F098FDF9
:10475000204601F0B7FE002211462046012301F059
:104760002FFD2046012300227F2101F029FD204654
:1047700001233F22002101F023FD01233F22204697
:104780007F2101F01DFD2046012102F0D3F82046D3
:10479000012102F0D4F820460522002102F0C7F8DA
:1047A000174A0021204603F028F812222046002153
:1047B00002F0BDF8B0EE690A12492046FFF760FF2B
:1047C000B0EE490A10492046FFF75AFFB0EE680ADA
:1047D0000E492046FFF754FFB0EE480A0C49204628
:1047E000FFF74EFF2A4620460A49FFF7ABFEBDEC15
:1047F000048B2046BDE8384001F064BEC8E20320C7
:1048000088C30D009EC30D00B4C30D00CAC30D00C4
:10481000E1C30D00F5C30D002DE9F3477C4BDFF834
:10482000409218887B4C7C4E7C4D7D4FDFF834A243
:10483000DFF8348204F025FBD9F800102060FFF780
:1048400087FC3060774800F0D3FA10EE100A05F0CC
:104850009FFF6BA3D3E9002305F0EEFF0022724B0C
:1048600005F038FEC5E900016E4800F0EFFADFED13
:104870006F7A80EE277A17EE100A05F089FF62A39F
:10488000D3E9002305F0D8FF0022694B05F022FE92
:10489000C7E90001634800F021FC10EE100A05F0A2
:1048A00077FFCAE90001FFF7DFFC206888ED000A06
:1048B000FFF786FCFFF7F4FE5E4800F09EFE18B39B
:1048C000022195ED000B5C4801F06EF9022197ED95
:1048D000000B5A4801F068F99AED000B0221584884
:1048E00001F062F92168574801F05CF931685648D7
:1048F00001F058F9D8F8000005F04AFF41EC100B20
:104900000221524801F050F9DAE9000106F08CFA70
:104910000190D7E9000106F087FA0090D5E900017F
:1049200006F082FAD8ED001A9DED011ADDED000ABD
:10493000DFF8388100EE100A2068FFF7F9FEDAE9A7
:10494000000106F071FA0190D7E9000106F06CFA57
:104950000090D5E9000106F067FA3D4D31689DED04
:10496000011ADDED000A00EE100A2068FFF724FEB0
:1049700000232B602B683B2B3DDC03F065FC344BA4
:1049800034491A68FFF7DEFD42F21071294800F041
:104990001FFF60B34045F7D108F1050006F0A2FD06
:1049A0002D4F386003F050FC2C493A68FFF7CAFDE0
:1049B00039680129E8D1072004F037FAD9F8001046
:1049C00040F6B830FFF7C4FB30601A4800F015FE1F
:1049D00040B121681B4801F0E5F80F4B1A481968EF
:1049E00001F0E0F80021072004F01FFACCE72B6863
:1049F00001332B60BEE702B0BDE8F087AFF3008063
:104A0000CDCCCCCCCCCCFC3FB0E600C11C3D9E3F15
:104A10006CDC032070E3032028E3032090E10320F3
:104A200080E303202CE30320000040400000C84244
:104A300000001440A8E1032008E303207CE20320E7
:104A4000F8E2032080E1032058E1032074E303200F
:104A5000F4E2032004C40D0014E3032009C40D0094
:104A600070DC032088E2032004E3032090E20320AB
:104A700010B52421044604F08FFA204610BD10B56D
:104A8000D421044604F088FA204610BDF7B5394B0E
:104A9000394C3A4D3A4E3B4F01221A7001F06CFFEF
:104AA0004FF0FF31204601F0D5FB2A46364920461B
:104AB00004F064FA3046354C04F070F82A46344964
:104AC000304604F05BFA334B009340F25B72324B9A
:104AD0003249204600F0C6FD314B324923602A4658
:104AE0002046C4F8D06004F049FA214600232E4A3B
:104AF0002E482F4E01F042F8214600232D4A2E4821
:104B000001F03CF8214600232C4A2D4801F036F8EC
:104B1000214600232B4A2C4801F030F8214600237F
:104B20002A4A2B4801F02AF821460023294A2A481C
:104B300001F024F80023294A29482146294C01F094
:104B400051F8294800F080F83946204602F058FC18
:104B50002046264C2A46314604F010FA39462046B3
:104B600002F04EFC2A463146204603B0BDE8F04034
:104B700004F004BAECE20320C8E2032048E1032079
:104B800064E10320B1C50D00CD400D00A8E1032074
:104B90001D410D0035C40D001EC40D0025C40D00BF
:104BA00064C50D00CF400D0056C40D0008E303207E
:104BB00073730D0074C40D0080E103208FC40D00D9
:104BC00058E10320A7C40D007CE20320C2C40D00FD
:104BD000F8E20320DDC40D0074E30320F4C40D00EB
:104BE00090E2032018E303202CE3032098E1032044
:104BF0007FB5024608461379956833B13DB90C4933
:104C000004B0BDE8704002F0D1BC0A4B00E00A4B92
:104C1000167B0A4C0A49527B0292012E08BF21469C
:104C200001910095074A002102F0E7FD04B070BD34
:104C300025C50D00B1C50D0014C50D001DC50D0025
:104C400021C50D003BC50D00FF2202744274827421
:104C5000C27470478068704738B5094D296811F0F3
:104C600001040AD12846FFF729FA30B12146054848
:104C700002F0F2F92846FFF726FA024838BD00BFD5
:104C8000A4E30320A8E303202DE9F04190F91330B9
:104C9000013305460F4606D1FFF7DEFF3946BDE872
:104CA000F04102F0F5BA072600244FF0010895F90B
:104CB0001300002180B204F0B8F895F9110008FA49
:104CC00006F1394080B204F0B0F895F913000121E3
:104CD00080B204F0AAF895F91200640080B2E4B240
:104CE00004F0BCF808B144F0010416F1FF36DED23E
:104CF0002046BDE8F08108B5FFF7AEFFBDE80840EB
:104D000002F0E7B910B50446FFF7A6FF2146BDE85B
:104D1000104002F0F7B9000030B590F910300133BF
:104D200085B004460D4621D10179006803F0BDFB32
:104D30002068036829469B689847206803F0C0FBF9
:104D400003222179206803F0ADFB206803685B69CA
:104D500098470502206803685B6998472843050265
:104D6000206803685B699847054339E090F9133080
:104D700001330ED11C4B1D4A0093029200230122E5
:104D800068468DF804308DF80C208DF80D30FFF753
:104D9000B9FF94F91000002180B204F046F845F004
:104DA00080012046FFF770FF00212046FFF76CFFCF
:104DB000002105022046FFF767FF28430502002176
:104DC0002046FFF761FF054394F91000012180B2EE
:104DD00004F02BF894F91330013301D1FFF78BFF66
:104DE000284605B030BD00BF10C50D0020A107004A
:104DF00010B5FA210446FFF78FFFB0F5000F1ED063
:104E0000A28A9FED107AC2EB20235200C2EBE01081
:104E1000B4F916205B435043B4F918201B135343D5
:104E20009B1303EBE020E06000EB80008030001279
:104E300007EE900AF8EEE77A87EE870A10BD9FED3D
:104E4000020A10BD0000C8420000C07F2DE9F84FE3
:104E50000646FFF7CDFFF7213046FFF75DFFB0F5BF
:104E6000000F074600F0C180F468B6F91C20E51772
:104E7000B4F5FA3445F1FF35A4FB048904FB05F3CE
:104E800009EB430902FB05F1D31704FB0311A2FB55
:104E900004230B44190341EA12511003B6F91E20F2
:104EA000D31702FB09FE08FB03EEA2FB08237344A1
:104EB0004FEA122A4AEA036A1AEB000A728B4FEA97
:104EC000232B4BEB010B1AF100004BF50041A0FB2B
:104ED00002AB02FB01BB4FEA6B024FEAEB7352EAF3
:104EE000030100F08680B6F924A04FEAEA7B0AFBB2
:104EF00009F108FB0B11AAFB0889B6F922A0894425
:104F00004FEAEA7B0AFB05F104FB0B11AAFB0445FF
:104F10000D444FEA454B4FEA444A38111AEB080A50
:104F2000C0F580104BEAD43B4BEB090B4FEAE0791C
:104F30004FEAC97545EA5005C407B6F920004FF09D
:104F4000000818EB0A084FEAC00949EB0B0940F6C4
:104F50003547B4EB080465EB0905A4FB070107FB23
:104F6000051106F0BFF8B6F92A204C13450B45EAA7
:104F7000C14502FB04F7D31705FB0377A2FB05230A
:104F80003B44544305FB0344A2FB05232344540E36
:104F900044EAC314B6F9282024184FEA63654D414A
:104FA000D317514300FB0313A2FB00011944C20CA9
:104FB00042EA41321219B6F926404FEAE1436B4109
:104FC000100AE517220140EA036019122B0143EA97
:104FD00014738018594106F047F89FED080A07EE50
:104FE000900A27EE800ABDE8F88F9FED050ABDE81C
:104FF000F88F9FED040ABDE8F88F00BF0000803BEA
:105000000000C07F0000000030B590F9103001337F
:1050100085B004460D461DD10179006803F045FABC
:105020002068036829469B689847206803F048FA7F
:1050300002222179206803F035FA206803685B6951
:1050400098470546206803685B69984740EA052051
:1050500085B235E090F9133001330ED11A4B1B4A5B
:10506000009302920023012268468DF804308DF8E7
:105070000C208DF80D30FFF745FE94F9100000214B
:1050800080B203F0D2FE45F080012046FFF7FCFD20
:1050900000212046FFF7F8FD002105462046FFF7D6
:1050A000F3FD40EA052085B294F91000012180B299
:1050B00003F0BBFE94F91330013301D1FFF71BFE5F
:1050C000284605B030BD00BF10C50D0020A1070067
:1050D00008B5FFF799FF40BA80B208BD10B5044685
:1050E000FFF786FEFD212046FFF78EFFB0F5004F4B
:1050F00038D0B4F93230E268B4F934101B05A2F5A7
:105100009632C3EB803302FB113303F58043D9138E
:1051100094F8303094F936005343DB124243921234
:1051200003F5004353439B12B4F92E2003F50013FB
:10513000534303F500539B134B43DA1394F82C109D
:105140005243D2114A43A3EB221323EAE373B3F190
:10515000C85FA8BF4FF0C8531B1300EE103ABAEE59
:10516000CB0A10BD9FED010A10BD00BF0000C07F3B
:1051700030B590F91030013385B004460D4616D194
:105180000179006803F091F92068036829469B685B
:105190009847206803F094F901222179206803F0F0
:1051A00081F9206803685B699847C5B22EE090F9E1
:1051B000133001330ED1174B174A0093029200238C
:1051C000012268468DF804308DF80C208DF80D30E2
:1051D000FFF798FD94F91000002180B203F025FE3E
:1051E00045F080012046FFF74FFD00212046FFF7E4
:1051F0004BFD054694F91000012180B203F015FE25
:1052000094F91330013301D1FFF775FD284605B03D
:1052100030BD00BF10C50D0020A1070008B5F32167
:10522000FFF7A6FF00F0010008BD38B5882104464D
:10523000FFF74EFF8A21A0822046FFF749FF8C210D
:10524000E0822046FFF744FF8E2120832046FFF7AF
:105250003FFF902160832046FFF73AFF9221A08311
:105260002046FFF735FF9421E0832046FFF730FF0B
:10527000962120842046FFF72BFF9821608420464A
:10528000FFF726FF9A21A0842046FFF721FF9C21EB
:10529000E0842046FFF71CFF9E2120852046FFF773
:1052A00017FFA12160852046FFF762FFE12184F806
:1052B0002C002046FFF70CFFE321E0852046FFF796
:1052C00057FFE42184F830002046FFF751FFE52125
:1052D00005462046FFF74CFF00F00F0040EA05109E
:1052E0006086E6212046FFF743FFE521054620467C
:1052F000FFF73EFF001140EA0510A086E721204697
:10530000FFF736FF84F8360038BD00007FB590F90E
:105310001030013304460E46154611D1017900685C
:1053200003F0C3F82068036831469B6898472068FB
:10533000036829469B689847206803F0C1F82DE070
:1053400090F9133001330ED1154B164A0093029297
:105350000023012268468DF804308DF80C208DF86A
:105360000D30FFF7CFFC94F91000002180B203F05C
:105370005CFD06F07F012046FFF786FC29462046AB
:10538000FFF782FC94F91000012180B203F04DFD7B
:1053900094F91330013301D1FFF7ADFC04B070BDB7
:1053A00010C50D0020A10700F8B590F83C509DF8FD
:1053B00018609DF81CE09DF8207061F3871562F37A
:1053C000020563F3C50590F8403080F83C5066F361
:1053D000471380F8403090F838306EF3C503044628
:1053E00067F3020380F8383006F00702F221FFF776
:1053F0008DFF94F83820C2F3C20302F007019B002E
:1054000043EA411343EAD2122046F521FFF77EFF1B
:1054100094F83C20C2F3C20302F007019B0043EA68
:10542000411343EA92122046F421BDE8F840FFF709
:105430006DBF30B5044690F91000421C85B003D111
:10544000206802F0FBFF22E0012180B203F0EDFCB6
:1054500094F91000012180B203F0D6FC94F91300F6
:10546000431C04D1FFF7F8FB01F000FE0FE001211F
:1054700080B203F0C9FC94F91100012180B203F05D
:10548000C3FC94F91200002180B203F0BDFCD021CE
:105490002046FFF76DFE6028A06020D12046B6228E
:1054A000E021FFF733FF4FF4967002F067FA2046D1
:1054B000FFF7B4FE054608B16420F6E72046FFF783
:1054C000B4FE052300931A46032120460295019558
:1054D000FFF76AFF642002F051FA012000E000208B
:1054E00005B030BD10B50171044603F021FD206008
:1054F0002046BDE81040FFF79CBF01F03DBA08B55B
:10550000D0F8D00003681B6B9847003018BF01200B
:1055100008BDF8B506460F461446C4B1D6F8D0000B
:1055200003681B6B984708B90020F8BDD6F8D00077
:10553000FA2C03682546A8BFFA25DB682A463946B7
:10554000984780B2241A8542A4B2E6D0ECE7012045
:10555000F8BD2DE9F8430646884691461F461D468C
:105560000024D6F8D00003681B6B9847D0B1002DFB
:1055700018DBD6F8D00003681B69984760B1D6F8ED
:10558000D00003685B69984708F804000134A4B2AE
:105590004C4507D03D46ECE70A3D0A202DB202F00B
:1055A000EDF9DEE72046BDE8F88370B5044600F16A
:1055B000220596220021284606F0D8F86168284680
:1055C00006F00EF9D4F8D0002289036829465E6AF5
:1055D0000023B047003018BF012070BD10B504464D
:1055E000D0F8D00003681B6B984720B1D4F8D000E6
:1055F0000368DB6A9847012010BD70B503689B689B
:1056000004469847C8B9204600F05FFA042570B1F7
:10561000013D15F0FF050AD0204600F0A9F841F23F
:10562000883002F0ABF9204600F04FFAEFE723682C
:1056300020469B68BDE87040184770BD01F09CB9DA
:1056400070B5044608460E4606F0EDF803122370C6
:10565000607085B202342A463146204606F025F9AC
:10566000601970BD30B50361039B0D4D028143612C
:105670000C4A056000234160C260C0F8BC30C0F82D
:10568000C030C0F8C430C0F8C830C0F8CC30836136
:10569000C36180F8203080F82130A0F8B83030BDE8
:1056A00088C50D00B1C50D002DE9F74F0FFA83FA3B
:1056B000036801929D690122534606460C46A8479D
:1056C000C0B2012801D0002034E0651C04F1050BB4
:1056D00080464FF0000933689B6901221F46294626
:1056E00053463046B847C0B20128ECD115F8013B0B
:1056F00003F07F025D4502FB08994FEAC818E2D02B
:105700001B06E8D4019B2C1B1B1B013B99453368EE
:1057100006D9019A9F69013A121B534692B203E0DF
:105720009F691FFA89F2534629463046B847C0B2EE
:10573000204480B203B0BDE8F08F0000F8B5054604
:105740000C4616461F463B46962221462846FFF742
:10575000ABFF48B12378B6EB131F05D002F074FD00
:10576000024901F036FFEEE7F8BD00BFB2C50D00FB
:1057700010B5E02380F82230002380F8233003683E
:1057800004465B69022200F1220198472368204603
:105790001B69BDE81040184700F1B80230B5134648
:1057A00000F1CC0453F8045F8D420FD0A342F9D12D
:1057B000002352F8044F24B900EB8300C0F8BC105A
:1057C00004E00133052BF4D1002030BD012030BDB1
:1057D0002DE9F04F00F122098BB287B0962249469D
:1057E0000446FFF761FF064610B394F82570BBB27C
:1057F000019304F1260304F1B80A002502935AF834
:1058000004BFBBF1000F0ED0DBF800100391084677
:1058100006F009F8B8428046039904D13A46029846
:1058200006F00AF828B10135052DE8D100204AE03C
:1058300049E094F822A00AF0060ABAF1020F3FD11B
:10584000E21992F8267092F8272042EA07271422DC
:1058500000210BF1050005F089FF019BC3F57F4096
:10586000FC30064404EB8505CAEB0606B6B2152EDD
:10587000D5F8BC0008F1040128BF13265144324674
:105880004944053005F057FFD5F8BC305E8394F8E5
:10589000223003F00603022B0FD18DF815303B1296
:1058A0008DF8163023688DF8177040228DF814207B
:1058B0005B69042205A920469847D5F8BC0002E0A0
:1058C00007468246C3E707B0BDE8F08F38B5044607
:1058D0000846102300F8023B0D462949FFF7B0FEA9
:1058E0000423037002234370A369ABB11B789BB1FF
:1058F0000623437094F82030012B01D10E2302E0DF
:10590000022B01D11E23437094F82130012B02BFDA
:10591000437843F02003437023691B781BB143781D
:1059200063F07F03437063691B781BB1437843F0D6
:1059300040034370012383702C23C370E1680B780C
:105940001BB10430FFF77CFE02E0037143710630A7
:10595000A16931B10B7823B1FFF772FEE169FFF75E
:105960006FFE21690B780BB1FFF76AFE61690B7856
:105970000BB1FFF765FE401BC0B2831E6B7038BDD4
:10598000D1C50D002DE9F843054610460E46914657
:105990001F4605F048FF9DF82480BDF8204080B2E6
:1059A000B8F1000F01D1831C00E0031D4FEA48024B
:1059B00030469BB242F03002234400F8012B9BB2E8
:1059C00003F07F02DB0918BF42F0800200F8012BD0
:1059D000002BF5D14946FFF733FE0346B8F1000F1F
:1059E0000CD0B5F8B820120A0270B5F8B820427091
:1059F000B5F8B82001320233A5F8B820224639465E
:105A0000184605F098FE2044801B80B2BDE8F8835C
:105A100073B59DF8186000F1220504468DE8480032
:105A200013460A462946FFF7ADFF236802465B6925
:105A300029462046984708B9002017E0B6B14FF430
:105A4000FA73962229462046FFF72EFE0428F3D14A
:105A500094F822301B11042BEED1A38CB4F8B800BB
:105A60005BBA01339BB2C31A5842584102B070BDB1
:105A7000F7B5054610461F460E46144605F0D3FE00
:105A8000009783B2224631462846FFF7C1FF03B094
:105A9000F0BD38B51D4682230B700C46B0F8B81027
:105AA000090AA170B0F8B830E370B0F8B81001314D
:105AB000A0F8B8101146201DFFF7C2FD00F8015BE9
:105AC000001BC0B2831E637038BD2DE9F04103682E
:105AD000DB680446984718B94FF0FF30BDE8F08105
:105AE00004F1220529462046FFF7F0FE236882B222
:105AF0005B692946204698470028EDD041F2707333
:105B0000962229462046FFF7CFFDC0B20428E3D1F4
:105B1000638CB3F5087FDFD194F8250010B140B253
:105B2000BDE8F08104F1B80704F1CC0857F8043F50
:105B3000FBB103263A682946137912682046FFF71D
:105B4000A8FF236882B25B6929462046984700284F
:105B5000C2D04FF4FA73092229462046FFF7EEFD22
:105B600038B9013E16F0FF06E4D16FF00100BDE840
:105B7000F0814745DAD10020BDE8F08110B580E81A
:105B80000600037210BD1FB504460A22084601A98B
:105B900001F0B0FB237A01AA94E80300FFF768FF45
:105BA00004B010BDFFF7EFBF10B592B004460B462E
:105BB00000220B4902A88DED000B01F0D1F99DEDFB
:105BC000000B02A953EC102B07A801F0C9F9237AA6
:105BD00007AA94E80300FFF74BFF12B010BD00BF07
:105BE000D6C50D0010B503710023416302604383E5
:105BF000C361436203628362C362036310BD00F04A
:105C0000BBBE000010B5054B0360037C04461BB906
:105C1000406808B101F094F9204610BDA0C70D00FE
:105C200010B50446FFF7EEFF2046142103F0B4F947
:105C3000204610BD10B5034B03600446FFF7E2FF9A
:105C4000204610BDB0C70D0010B50446FFF7F2FFA7
:105C50002046302103F0A0F9204610BD0023012288
:105C6000C36043610276437680F82A3070470000B3
:105C7000002310B5C36001230374054B03604FF08C
:105C8000FF3341608260C362FFF7E8FF10BD00BFD1
:105C9000B0C70D00C368826810B593423FBF426829
:105CA0005C1CC460D15424BF012380F82A3010BD8D
:105CB00010B54369044643B100EB4303597E09B173
:105CC000FFF7E8FF6369013B6361A368E06861680F
:105CD00098424FF000022ABF5B180A5403F8012CC7
:105CE00010BD70B50446C068A56866682D1A1346D5
:105CF00030440A46294601F04BF985422DBFE3683E
:105D0000A368E360C01836BF0123E06084F82A303E
:105D100070BD0EB403B503AA52F8041B0192FFF73D
:105D2000E0FF02B05DF804EB03B070472DE9F041ED
:105D300004460E46174612B12221FFF7ABFF00259D
:105D4000715D06EB0508002971D0E268A3689A42EC
:105D50006DD20B0633D501F0F003E02B17D198F884
:105D6000013003F0C002802A11D105F1020816F8B3
:105D7000082002F0C000802809D102F03F029B01F8
:105D800042EA013203F47C631A4392B211E001F05B
:105D9000E003C02B46D105F1010816F8083003F0E6
:105DA000C002802A3ED1890101F4F86203F03F036A
:105DB0001A4323492046FFF7ACFF454635E00C293E
:105DC00018D00BD8092921D00A2919D0082929D19E
:105DD0005C212046FFF75EFF622123E022291BD0D1
:105DE0005C2919D00D291DD15C212046FFF752FFF7
:105DF000722117E05C212046FFF74CFF662111E07D
:105E00005C212046FFF746FF6E210BE05C21204617
:105E1000FFF740FF742105E05C212046FFF73AFFC1
:105E200098F800102046FFF735FF013588E72FB1BD
:105E300020462221BDE8F041FFF72CBFBDE8F081EC
:105E4000C1C70D00426900EB42031A7E12B1002265
:105E50001A7670472C21FFF71DBFF8B5436901334F
:105E6000082B0E4617460ED8FFF7ECFF43695A1C65
:105E700000EB43030124426131469C76DF76FFF755
:105E800009FF2046F8BD0020F8BD000037B50446E4
:105E900010EE100AE56A002D0ADB04F079FC2A46B0
:105EA000CDE9000108492046FFF733FF03B030BDBC
:105EB00004F06EFC0B4605490246204603B0BDE8DF
:105EC0003040FFF726BF00BFD3C70D00D8C70D0075
:105ED00000F052BDF0B5447EBDF81450022C08D03D
:105EE000032C0FD0012C70D10489013CA21A12B2EC
:105EF0000CE04489013CA21A0489E41A611A12B226
:105F000009B262E04489E41A611A09B2002A5BDB33
:105F1000B0F90840944240F390800029BEBF5B185E
:105F20001BB20021B0F90A00CC188442C4BF431A46
:105F30001BB2002B40F38180C9B2C8083F4F02EB6F
:105F4000C01211F00701DBB207EB020417D0C1F158
:105F50000801C8B23A4983420E5C3FBFC3EB000E52
:105F6000FF2141FA0EF10E40B95C012D0CBF314307
:105F7000B1438342B95460D3181AC3B28034072B9B
:105F800017D9012D0CBFFF20002004F180011A4613
:105F9000083AD2B2072A01F8800C01F18001F7D843
:105FA000A3F10802C2F3C402013204EBC21403F0ED
:105FB0000703002B41D0234AD25C2378012D0CBF6C
:105FC000134393432370F0BDF0BD002A35DBB0F9D5
:105FD0000A40944231DD0029BCBFC9180BB2B0F9A8
:105FE0000870B8BF0021CE18BE42C4BF631A1BB2EE
:105FF000002B22DDD01001EBC011104802F0070287
:106000000144012000FA02F28542D2B209D1013BDB
:106010001BB25C1C11D011F8010B104301F8010CEC
:10602000F5E7D243D2B2013B1BB2581C05D011F8A0
:10603000010B104001F8010CF5E7F0BD88DC0320EE
:1060400080DC032078DC0320F0B5447EBDF81450DA
:10605000022C08D0032C0FD0012C12D10489E41A91
:10606000A21A12B26DE00489013C611A4489E41A53
:10607000A21A09B212B204E04489013C611A09B2C1
:106080005FE000295CDBB0F908408C4240F391806E
:10609000002ABCBFD21813B2B0F90A00B8BF002260
:1060A000D4188442C4BF831A1BB2002B40F38180F2
:1060B000D4B2404EDAB2E30801EBC31114F0070486
:1060C00006EB010317D0C4F10804E0B23A4C824257
:1060D000275C3FBFC2EB000EFF2444FA0EF42740BA
:1060E000745C012D0CBF3C43BC438242745460D3AA
:1060F000101AC2B28033072A17D9012D0CBFFF2412
:10610000002403F1800011460839C9B2072900F8BC
:10611000804C00F18000F7D8A2F10801C1F3C4015E
:10612000013103EBC11302F00702002A41D02349D9
:10613000895C1A78012D0CBF0A438A431A70F0BD9E
:10614000F0BD002935DBB0F90A408C4231DD002A70
:10615000BCBFD21813B2B0F90870B8BF0022D6186D
:10616000BE42C4BFA31A1BB2002B22DDC81002EB33
:10617000C012104801F007011044012202FA01F197
:106180009542C9B209D15A1E13B25C1C11D010F845
:10619000012B0A4300F8012CF5E7C943C9B25A1E86
:1061A00013B25A1C05D010F8012B0A4000F8012C3C
:1061B000F5E7F0BD88DC032080DC032078DC0320D9
:1061C000F8B50D1E064614461F463FDB00F0BCFB2B
:1061D00085423BDA002C39DB304600F0B8FB8442C4
:1061E00034DA304600F0AEFB022827D131897089BD
:1061F00001390138491B001B0DB204B206E0012829
:1062000004D13389013B1B1B2C461DB20820012FF2
:1062100094FBF0F000B20E4B04F0070205EBC01146
:1062200004D197405A5C17435F54F8BD585C01276E
:1062300007FA02F220EA02025A54F8BD0328DED11E
:106240007389013B5B1B25461CB2DFE7F8BD00BF2D
:1062500088DC032038B5402204460D46802100F03A
:1062600087FA064B2360FF23637784F82130E377B6
:10627000A37784F82050204638BD00BFF0C70D003A
:106280004FF480620021014805F070BA88DC0320D9
:1062900038B590F91D30013304460D4628D090F9E9
:1062A0002100012180B202F0C0FD94F91F000021FD
:1062B00080B202F0BAFD94F92100002180B202F010
:1062C000B4FD94F822302BB1FEF7C6FC294600F04D
:1062D000DFFF05E02B460122A17F607F02F0E8FD91
:1062E00094F92100012180B2BDE8384002F09DBD43
:1062F00002F01EFE94F91B1002F0DBF802F018FE0B
:10630000036800219B68984702F012FE0368294643
:106310009B68984702F00CFEBDE8384002F0D0B808
:1063200038B504460D46217790F91D30C276013309
:1063300037D090F91F00012180B202F065FD94F979
:106340002100012180B202F05FFD94F822305BB998
:1063500094F91D00012180B202F056FD94F91E004F
:10636000012180B202F050FD94F82230EBB194F993
:106370002100012180B202F058FDFEF76DFC0121E1
:1063800000F085FEFEF768FC102100F05DFFFEF7CF
:1063900063FC002100F08CFEFEF75EFC00F066FE60
:1063A00003E002F0C5FD02F049F894F92000012154
:1063B00080B202F029FD94F92000012180B202F0A0
:1063C00034FD012001F0DAFA94F92000002180B2B6
:1063D00002F02BFD0A2001F0D1FA94F920000121EE
:1063E00080B202F022FD2046AE21FFF751FF204689
:1063F000D521FFF74DFF20468021FFF749FF2046BA
:10640000A821FFF745FF20463F21FFF741FF204627
:10641000D321FFF73DFF20460021FFF739FF20463B
:106420004021FFF735FF8D212046FFF731FF012D79
:106430000CBF102114212046FFF72AFF20462021FF
:10644000FFF726FF20460021FFF722FF2046A1216B
:10645000FFF71EFF2046C821FFF71AFF2046DA216A
:10646000FFF716FF20461221FFF712FF8121204679
:10647000FFF70EFF012D0CBF9F21CF212046FFF714
:1064800007FFD9212046FFF703FF012D0CBF222172
:10649000F1212046FFF7FCFE2046DB21FFF7F8FE46
:1064A00020464021FFF7F4FE2046A421FFF7F0FE2E
:1064B0002046A621FFF7ECFE2046AF21BDE838407C
:1064C000FFF7E6BE2DE9F04121210446FFF7E0FE8B
:1064D00000212046FFF7DCFE7F212046FFF7D8FE93
:1064E00022212046FFF7D4FE00212046FFF7D0FEF0
:1064F00007212046FFF7CCFE94F91D30DFF8BC8061
:10650000013335D094F92100012180B202F08DFCD5
:1065100094F91F00012180B202F087FC94F9210058
:10652000002180B202F081FC012000F0CDFA0025AC
:1065300094F8223018F805602BB1FEF78DFB314638
:1065400000F0A6FE05E033460122A17F607F02F045
:10655000AFFC0135B5F5806FEAD1012000F0B4FA47
:1065600094F92100012180B2BDE8F04102F05DBC48
:10657000002502F0DDFC94F91B1001F09AFF02F0F7
:10658000D7FC036840219B689847002602F0D0FCA6
:10659000AF190368BFB29B6818F807100136984717
:1065A000102EF3D1103502F0C3FCADB201F088FF1C
:1065B000B5F5806FDDD1BDE8F08100BF88DC032038
:1065C00000F0DAB92DE9F04F85B01E46BDF938303C
:1065D000BDF83CA015469A1A002AB8BF5242009254
:1065E000721A002AB8BF524201920C46009A0199D1
:1065F0008A42814605DD32461E46134622462C4617
:106600001546B44205DD2A461D4613462246344649
:1066100016465A1B002AB8BF5242C4EB06089D42D8
:10662000B4BF01234FF0FF331FFA88F8029303929F
:106630000FFA88F7022297FBF2F7B4421FDC019AA7
:10664000009B9342D9F80030C8BF2246D3F810B05F
:10665000C8BF29465346DCBF2A4621464846D8478C
:10666000039BFF1ABBB21FB2002F05DA029A08EB98
:10667000030715442DB23FB2013424B2DDE705B063
:10668000BDE8F08F2DE9F347BDF82C600768BDF930
:1066900028A000960446FF6991460D469846B847E3
:1066A000236800960AF1FF324A44DF6929464346CF
:1066B000204612B2B847236800969F694A4653465F
:1066C00029462046B84723680A9608F1FF31294435
:1066D0009D694A46534609B22046AC4602B0BDE821
:1066E000F047604737B5013B13440468BDF81850C4
:1066F00001951BB2009364690B46A04703B030BDFF
:1067000037B5BDF8185004688DE82400013B0B44F0
:1067100064691BB2A04703B030BD2DE9F347BDF952
:106720002880BDF82C90054617460C4601EB030A5D
:1067300054450BDA2B68CDF800909E6921464346FC
:106740003A4628460134B04724B2F1E702B0BDE82A
:10675000F08713B5B0F90E20046801910092002271
:10676000B0F90C30646A1146A04702B010BD704702
:1067700030B501810024084D42818181C2814FF6EC
:10678000FF710122446005604476048244820276EF
:10679000C1828182827630BD28C80D002DE9F04F7C
:1067A0008FB005460691BDF860100791BDF86410E2
:1067B0000891B0F90C1006989DF8688081427CDD44
:1067C000B5F90E10914278DD062111FB0800002872
:1067D00073DD02EBC80000286FDD03EB830396B284
:1067E0000C9306F108039BB2099100240D93052C2C
:1067F0001CBF334B0C9A059616BF1B194FF00009AE
:1068000013F8029004961FFA88F30393039ABDF8D5
:10681000183004FB023213FA84F312B21BB20A924C
:1068200037460FFA88FA0B9319F0010F11D0B8F11F
:10683000010F2B6803D1D3F810B0079B14E0079A1F
:106840000192CDF800A0D3F824B0BDF91020534632
:1068500018E0079B089A934217D0B8F1010F2B68F4
:1068600007D1D3F810B013463AB20B992846D8474F
:106870000BE0089A0192CDF800A0BDF91420D3F8DE
:1068800024B053460A992846D847049B039A1344D8
:106890009BB20493059B13449BB2013705930D9B58
:1068A000BFB29F424FEA5909BED1099B013B013457
:1068B00013F0FF0364B2099399D10FB0BDE8F08FD4
:1068C00058C80D0030B50A2985B004460B4604D1DE
:1068D000027E438A03EBC20323E00D2924D0057E08
:1068E000B0F91220B0F910100295C58A0195858A79
:1068F0000095FFF753FF227E238A91B201EB4100FE
:1069000003EB4003A07E1BB2238268B1B4F90C00F4
:106910006FF0050505FB0202934205DD638A03EB78
:10692000C103638200232382012005B030BD0182B0
:1069300042827047002908BF012101767047C18259
:1069400081827047407E7047B0F90C007047B0F903
:106950000E00704700F010B808B5024B1B689B682A
:10696000019308BD6802030008B5024B1B68DB6891
:10697000019308BD6802030008B5024B1B681B6841
:10698000019308BD2C02030008B5024B1B685B682D
:10699000019308BD2C02030008B5024B1B689B68DD
:1069A000019308BD2C02030008B5024B1B68DB688D
:1069B000019308BD2C02030008B5024B1B681B693C
:1069C000019308BD2C02030008B5024B1B685B69EC
:1069D000019308BD2C02030008B5024B1B681B6B1A
:1069E000019308BD2C02030008B5024B1B68DB6C49
:1069F000019308BD2C02030008B5024B1B681B68FD
:106A0000019308BD3002030008B5024B1B689B6868
:106A1000019308BD3002030008B5024B1B68DB6818
:106A2000019308BD3002030008B5024B1B681B69C7
:106A3000019308BD3002030008B5024B1B685B6977
:106A4000019308BD3002030008B5024B1B68DB69E7
:106A5000019308BD3002030008B5024B1B681B6A96
:106A6000019308BD3002030008B5024B1B685B6A46
:106A7000019308BD3002030008B5024B1B68DB6BB5
:106A8000019308BD3002030008B5024B1B681B6C64
:106A9000019308BD3002030008B5024B1B685B6C14
:106AA000019308BD3002030008B5024B1B685B6907
:106AB000019308BD6C02030008B5024B1B685B68BC
:106AC000019308BD1802030008B5024B1B68DB6880
:106AD000019308BD1802030008B5024B1B685B69EF
:106AE000019308BD1802030008B5024B1B68DB695F
:106AF000019308BD1802030008B5024B1B689B6D8B
:106B0000019308BD1802030008B5024B1B689B687F
:106B1000019308BD4802030008B5024B1B681B69BE
:106B2000019308BD4802030008B5024B1B685B696E
:106B3000019308BD4802030008B5024B1B685B6C5B
:106B4000019308BD4802030008B5024B1B689B6C0B
:106B5000019308BD4802030008B5024B1B685B693E
:106B6000019308BD6402030008B5024B1B681B6A51
:106B7000019308BD6402030008B5024B1B689B6AC1
:106B8000019308BD6402030008B5024B1B681B6833
:106B9000019308BD3C02030008B5024B1B68DB688B
:106BA000019308BD3C02030008B5024B1B681B693A
:106BB000019308BD3C02030008B5024B1B685B69EA
:106BC000019308BD3C02030008B5024B1B689B699A
:106BD000019308BD3C02030008B5024B1B68DB694A
:106BE000019308BD3C02030008B5024B1B681B6AF9
:106BF000019308BD3C02030008B5024B1B689B6A69
:106C0000019308BD3C02030008B5024B1B68DB681A
:106C1000019308BD2802030008B5024B1B689B695D
:106C2000019308BD2802030008B5024B1B68DB690D
:106C3000019308BD2802030008B5024B1B681B6ABC
:106C4000019308BD2802030008B5024B1B685B6A6C
:106C5000019308BD2802030008B5024B1B689B6A1C
:106C6000019308BD2802030008B5024B1B68DB6ACC
:106C7000019308BD2802030008B5024B1B681B6B7B
:106C8000019308BD2802030008B5024B1B685B6B2B
:106C9000019308BD2802030008B5024B1B681B6C5A
:106CA000019308BD2802030008B5024B1B681B6D49
:106CB000019308BD2802030008B5024B1B689B69BD
:106CC000019308BD3802030008B5024B1B68DB695D
:106CD000019308BD3802030008B5024B1B681B6A0C
:106CE000019308BD3802030008B5024B1B689B6A7C
:106CF000019308BD3802030008B5024B1B681B6BEB
:106D0000019308BD3802030008B5024B1B689B6B5A
:106D1000019308BD3802030008B5024B1B681B68CD
:106D2000019308BD4C02030008B5024B1B685B6869
:106D3000019308BD4C02030008B5024B1B681B6998
:106D4000019308BD4C02030008B5024B1B685B6948
:106D5000019308BD4C02030008B5024B1B689B69F8
:106D6000019308BD4C02030008B5024B1B68DB69A8
:106D7000019308BD4C02030008B5024B1B681B6A57
:106D8000019308BD4C02030008B5024B1B685B6B06
:106D9000019308BD6002030008B5024B1B681B6D20
:106DA000019308BD6002030008B5024B1B681B6815
:106DB000019308BD2002030008B5024B1B685B6805
:106DC000019308BD2002030008B5024B1B685B69F4
:106DD000019308BD2002030008B5024B1B68DB6C61
:106DE000019308BD2002030008B5024B1B685B6DD0
:106DF000019308BD2002030008B5024B1B689B6D80
:106E0000019308BD2002030008B5034B1B68D3F8AB
:106E10008830019308BD00002002030008B5034B31
:106E20001B68D3F89430019308BD000020020300D2
:106E300008B5024B1B685B68019308BD4002030064
:106E400008B5024B1B689B68019308BD4002030014
:106E500008B5024B1B68DB68019308BD40020300C4
:106E600008B5024B1B681B69019308BD4002030073
:106E700008B5024B1B685B69019308BD4002030023
:106E800008B5024B1B689B69019308BD40020300D3
:106E900008B5024B1B68DB69019308BD4002030083
:106EA00008B5024B1B681B6A019308BD4002030032
:106EB00008B5024B1B681B6B019308BD4002030021
:106EC00008B5024B1B685B6B019308BD40020300D1
:106ED00008B5024B1B689B68019308BD4402030080
:106EE00008B5024B1B685B69019308BD44020300AF
:106EF00008B5024B1B681B6A019308BD44020300DE
:106F000008B5024B1B68DB6A019308BD440203000D
:106F100008B5024B1B681B6B019308BD44020300BC
:106F200008B5024B1B68DB6B019308BD44020300EC
:106F300008B5024B1B681B68019308BD1C020300C7
:106F400008B5024B1B685B68019308BD1C02030077
:106F500008B5024B1B689B68019308BD1C02030027
:106F600008B5024B1B68DB68019308BD1C020300D7
:106F700008B5024B1B681B69019308BD1C02030086
:106F800008B5024B1B689B69019308BD1C020300F6
:106F900008B5024B1B685B6A019308BD1C02030025
:106FA00008B5024B1B68DB6A019308BD1C02030095
:106FB00008B5024B1B681B6B019308BD1C02030044
:106FC00008B5024B1B68DB6B019308BD1C02030074
:106FD000002211464068FFF763BF00221146406857
:106FE000FFF76EBF00224068FFF762BF002281F00A
:106FF00001014068FFF74CBF00231A46194640685C
:10700000FFF73EBF00231A4619464068FFF730BF1E
:10701000002211464068FFF723BF00221146406856
:10702000FFF70EBF002202214068FFF711BF0023C7
:107030001A464068FFF7FCBE024B03225A60024A20
:107040001A607047B0E303205CCD0D000021FFF70C
:107050001BBD0021FFF720BD10B504460170084696
:10706000FFF7F2FC00236360204610BD10B5044614
:107070000078FFF7EBFF48B920784FF6FF71FFF774
:10708000BBFC2078BDE81040FFF7E3BF10BD38B56A
:10709000044600780D46FFF7D9FF40B9207829460D
:1070A000FFF7B2FC2078BDE83840FFF7D2BF38BD0B
:1070B00038B5044600780D46FFF7C8FF40B9207880
:1070C0002946FFF7A9FC2078BDE83840FFF7C1BF8B
:1070D00038BD0078FFF7BDBF400830B51860002408
:1070E00018688842E5B206D90134082C02D040085D
:1070F0001860F5E70725024B5B5D137030BD00BFDC
:1071000088CD0D002DE9F04307468FB000780E467C
:10711000FFF79CFF002862DB3C781422002109A8BD
:1071200004F024FB0B232046002209A9ADF82430EB
:10713000FFF79AFC9DF82D4054B19DF82C5035B9BD
:10714000DDF830809DF834909DF8354003E0002450
:10715000A146A0460125337905B1BBB99D420BD1AB
:10716000B268424508D18DF820908DF82140BDF8D5
:107170002010B289914209D053B10024387801948B
:107180000094234622460121FFF776FC002026E0EA
:107190008DF80F30B1680A9804AB0DF10F02FFF7BC
:1071A0009BFF317905B1B1B9A94208D000243878E4
:1071B0000194747B337B9DF80F200094E4E7B3685F
:1071C0004345F3D38DF820908DF82140BDF8202061
:1071D000B3899A42EAD1049B4345E7D1D6E70FB081
:1071E000BDE8F0832DE9F04188B000230446007823
:1071F00002930E461746FFF729FF054600BB94F899
:1072000000800146142203A804F0B0FA0B232A469A
:1072100003A94046ADF80C30FFF726FC02AB0DF198
:10722000070207FB06F104988DF80750FFF754FF9B
:1072300020789DF80710FFF7F7FB2078FFF709FF8C
:10724000029808B0BDE8F08138B5044600780D46D4
:10725000FFF7FCFEC8B9616871B10C4BC25CAA4271
:1072600002D001300828F9D10130C0B2C14001225A
:107270002046FFF7B7FF03E029462078FFF7D4FB4D
:107280002078BDE83840FFF7E4BE38BD88CD0D005A
:1072900008B50078FFF7D0FBC0B208BD0078FFF753
:1072A000DBBB10B50446006818B1FFF749FE0023A8
:1072B000236010BD10B50446FFF7F3FF204610BD54
:1072C00010B5094C00204FF6FF732060A080A0711C
:1072D00020816381FFF770FD2046044A0449BDE820
:1072E000104001F04BBE00BFB8E3032048E103208B
:1072F000B5720D002DE9F041931E232B15468CB07D
:1073000034BF15460A2500230A2D0C468DF82C3073
:1073100007D1984205DA2D2301F101080B70404294
:1073200001E0B0B1A0460DF12B0601272A46014627
:1073300001A804F0E1F9029B0198092BCCBF372288
:10734000302252FA83F306F8013901370028EDD1D3
:1073500006E030238DF82B30A0460DF12A060227D7
:107360003A46711C404604F0DBF920460CB0BDE8FB
:10737000F08110B504460068FFF7E2FD204610BD1D
:1073800010B50446006808B1FFF7DAFD002323605A
:10739000A360636010BD38B504460D460068013136
:1073A000FFF7D6FD10B184E82100012038BD10B5EB
:1073B0000368044613B143688B4207D22046FFF7A7
:1073C000EAFF20B1A3680BB922681370012010BD39
:1073D00070B50E46114604461546FFF7E8FF18B98A
:1073E0002046FFF7CDFF09E02A463146A560206818
:1073F00004F096F92268A3680021D154204670BD9C
:1074000038B50023044603604360836003730D4670
:1074100039B1084604F007FA294602462046FFF72C
:10742000D7FF204638BD38B5054600680C4660B128
:107430006A688B689A4206D3096804F0D1F9A36898
:10744000AB6000230AE0FFF77BFD23682B606368D5
:107450006B60A368AB60002323606360A36038BDEA
:10746000884210B5044601D0FFF7DDFF204610BD6D
:1074700070B50E469AB191B185689D4202D800233D
:107480000B7070BD541EED1A0168AC4228BF2C462B
:1074900019442246304604F008FA0023335570BDE3
:1074A000F8B59A420F461D460C4988BF134614464C
:1074B000064684BF2C461D46FFF7A2FFBA689442D9
:1074C0000AD83968954294BFC4EB0502C4EB0202A6
:1074D00021443046FFF77CFF3046F8BDB1C50D00B2
:1074E00010B50446006808B1FFF72EFB204610BD1A
:1074F00010B5036804469B689847A368013BA360E6
:107500002BB923682046DB68BDE81040184710BD42
:107510000B68036013B15A6801325A60704710B5A6
:107520000446006828B14368013B43600BB9FFF78C
:10753000DFFF204610BD000010B5064C002320469A
:107540002360FFF7F9FA2046034A0449BDE81040DA
:1075500001F014BDC4E3032048E10320E1740D00F1
:10756000F8B506460D468F180024BD420CD033688E
:1075700015F8011B9B6830469847002801DB04443E
:10758000F3E7002C08BF04462046F8BD70B5054659
:107590000C46084649B104F046F92B6802462146DC
:1075A0002846DB68BDE87040184770BD08B5FFF796
:1075B000EDFF08BD03689B68184738B50D210546E7
:1075C000FFF7F8FF0A2104462846FFF7F3FF20449F
:1075D00038BD38B50546FFF7D9FF04462846FFF702
:1075E000ECFF204438BDFFF7F4BF30B58BB00B463D
:1075F00000218DF82410012A98BF0A220DF12304DE
:10760000B3FBF2F505FB123303F0FF03092B94BF24
:1076100030333733DBB2214604F801392B46002DD5
:10762000EED1FFF7B3FF0BB030BD00002DE9F047FE
:1076300057EC106B82460D4610EE102A3B4610EEBA
:10764000100A394603F092FB08B14E4912E027F0C8
:1076500000494FF0FF324C4B3046494603F086FB61
:1076600068B94FF0FF32484B3046494603F060FBA3
:1076700028B946495046FFF789FFBDE8F0874FF02B
:107680006042434B3046394603F066FB08B141493E
:10769000F0E74FF06042404B3046394603F03EFB86
:1076A0000028F4D1002200233046394603F036FB8F
:1076B00040B12D215046FFF77DFF07F100430446FE
:1076C0001F4600E0044635494FF0000800205FFAED
:1076D00088F39D4206D90022314B03F0D7F908F117
:1076E0000108F4E732463B4602F0F4FE0F46064638
:1076F00003F07AFB0A22014680465046FFF775FFE9
:107700000444E5B3404603F021F802460B463046F8
:10771000394602F0DDFE06460F4650462149FFF786
:1077200035FF044400221E4B3046394603F084F8EE
:1077300006460F4603F030FBB0F1000907DA2D21B1
:107740005046FFF737FFC9F10001804602E0494685
:107750004FF000080A225046FFF747FF4044044418
:10776000484603F003F802460B463046394602F01D
:10777000AFFE013D15F0FF0506460F46D2D120466B
:10778000BDE8F08790CD0D00FFFFEF7F98CD0D0095
:10779000FFFFEF4194CD0D00FFFFEFC10000E03F80
:1077A0000000244031C70D0038B5044610EE100A21
:1077B000CDB202F0EDFF41EC100B29462046BDE8AA
:1077C0003840FFF733BF38B5C9B20546FFF72EFF83
:1077D00004462846FFF7F1FE204438BD38B504467C
:1077E00010EE100A0D4602F0D3FF41EC100B2946B3
:1077F0002046BDE83840FFF7E6BF0CB42DE9F04362
:1078000087B000AF07F13804054654F8049B3C608C
:107810000E4623464A461421381DFFF7B9FB1328AC
:1078200005D8391D2846FFF7B1FE044613E000F1E4
:10783000080323F00703E846ADEB030D411C234684
:107840004A4668463C60FFF7A3FB69462846FFF7B7
:107850009DFE0446C5461EB12846FFF7AEFE044411
:1078600020461C37BD46BDE8F04302B0704700001B
:10787000014B024A1A607047C8E303200FCE0D0087
:1078800008B50020FFF744FB28B1FFF729FB80F083
:107890000100C0B208BD012008BD0000FAEE087A60
:1078A000B4EEE70AF1EE10FA0FD4F2EE0C7AB4EE71
:1078B000E70AF1EE10FA08DCDFED047A044B20EE63
:1078C000270ABDEEC00A83ED000A7047000061453B
:1078D000D4E3032037B50E4B1B6819440D4B1B68CE
:1078E000044602A8194440F8041D03F00DFE03F0FD
:1078F000BDFD054603F097FF2844002300F8013C36
:1079000029462046FFF77CFD204603B030BD00BF6E
:10791000D4E30320D0E3032010B50020FFF7ECF8F8
:10792000044668B9FFF740FA01280BD12046FFF75B
:1079300063FA38B9FFF7A4FF30B9FFF7C9FAF9E7DE
:10794000012010BD002010BDFFF79AFF0020FFF7B7
:10795000D3F8003018BF012010BD08B5FFF7DCFFD9
:10796000BDE80840FFF7C0B8024B1A68024B1A6026
:10797000704700BF88E00320CCE303200021FFF71D
:1079800023BA10B58368044613B103220146984711
:10799000204610BD10B50446FFF7F3FF204610BD8A
:1079A00013B50B46044603C88DE8030093E80300B3
:1079B00084E803009DE8030083E8030002B010BDE3
:1079C0000348044A04490023836001F0D7BA00BF8A
:1079D000D8E3032048E1032095790D0008B50C4B4E
:1079E00033B100F031FC03681B699847002809DCBB
:1079F000084B63B100F0AAFC03681B699847002894
:107A000003DC08BDAFF30080F2E7AFF3008008BDF0
:107A1000000000000000000008B5FFF7DFFFFFF7DF
:107A20005BF8014B186008BD0CE703200248034ACD
:107A30000349121A03F074BE00F4032004F4032077
:107A400048D30D0007B5002300931A466FF0770165
:107A5000FFF7E4F903B05DF804FB000007B54388C5
:107A60000A2B08D0502B09D1094B1B683BB103B03E
:107A70005DF804EB1847FFF7E5FF06E000230093ED
:107A80001A466FF07701FFF7C9F903B05DF804FB00
:107A9000E8E3032038B5104C104D2368AB42104B7F
:107AA0000CBF012200221A7002D0FFF7BFFF256031
:107AB000FFF702F8044603F061FE0A4B13B12046BB
:107AC000AFF3008000210748FFF72AFA002106489B
:107AD000BDE83840FFF798B900F403201E1C279A30
:107AE000ECE30320000000005D7A0D0070470020E9
:107AF000704710B51021044601F04EFA204610BD23
:107B000008B508B1FFF7F5FF08BD0022026010B507
:107B10004FF69C728280B1F9044084808A800268AA
:107B20000C6804600A6010BD10B504460068FFF7D9
:107B300007FA204610BD38B5C468F4B12378022B8B
:107B400003D104F10C00FFF7EFFF656835B128465B
:107B5000FFF717FF1021284601F01EFAA56835B17E
:107B60002846FFF70EFF1021284601F015FA20469F
:107B70001421BDE8384001F00FBA38BD13B50446F2
:107B800091E8050000234B600B602060626001A853
:107B900001930093FFF7C3FC204602B010BDF7B578
:107BA0000C4602AD54F8043B45F8083D06460F4626
:107BB00001A82146FFF7ACFC29463046FFF7DEFF5F
:107BC00001A8FFF7ACFC2046FFF7A9FC38460821C6
:107BD00001F0E2F9304603B0F0BD000038B50023F3
:107BE0000446036010200D46FCF757FA28B1012324
:107BF00043608360024B0360C5602060204638BD4F
:107C0000A0CE0D00826810B50AB901F0D8F9C3689A
:107C1000BDE81040184708B5006800F11001FFF7F3
:107C2000F1FF08BD826810B50AB901F0C8F9C36850
:107C3000BDE81040184708B5006800F11001FFF7D3
:107C4000F1FF08BD38B5002383608B6804460D46FC
:107C50002BB102229847EB68E360AB68A360204633
:107C600038BD0000F0B589B004686846FFF74DFFE5
:107C700000238DF808304FF00202D4E84F3F002B6C
:107C800003D1C4E8412F0029F7D102D08DF8083084
:107C900063E014F10C0503D069462846FFF735FF71
:107CA000BFF35F8F01236370002004F10803BFF36B
:107CB0005F8F53E8006F43E80002002AF9D1BFF359
:107CC0005F8F002E49D0FFF787F820B12946304654
:107CD000FFF798FF3AE0314602A8FFF7B3FFE068EC
:107CE000B4F9105008B103F083FD06901020ADF8F0
:107CF0001C50FCF7D2F90546E8B100278760182030
:107D0000FCF7CBF9044688B10146876002A8FFF76B
:107D100047FE049BA268A360059B049206A9E26843
:107D2000E36004F110000592FFF7EFFE0D4BEB60EE
:107D30000D4B2C60AB6006A8FFF7F6FE02A8FFF71C
:107D400020FE002229460948FFF74EF83046FFF78B
:107D500018FE1021304601F01FF96846FFF7E4FED7
:107D600009B0F0BD177C0D008D7E0D0099830D00CC
:107D70002DE9F04F8BB006460F46904699469DF888
:107D800050A0FFF7ADF807AD834630BB4FF62E731A
:107D9000059005A92846ADF81830FFF7B6FE142067
:107DA000FCF77BF9044658B10223037001234370AA
:107DB000C0F804B0C0F808B029460C30FFF7A5FEA3
:107DC0003046214640F8044BFFF708FF2846FFF7EE
:107DD000ABFE05A8FFF7A8FE52E000240C231420F8
:107DE0006C60AC600793FCF758F9014618B1047059
:107DF00044704460846004A80391FFF7EFFE224BB7
:107E000008930820FCF749F9044628B1039B40F881
:107E1000043B04A9FFF77CFB00955FFA8AF34A460E
:107E2000414638460994FFF763F820B9039B5B7815
:107E300003F0FF0283B1039B059304A906A8FFF793
:107E400067FB05A93046FFF799FE06A8FFF767FB19
:107E500004A8FFF764FB13E04FF69C7305A903A881
:107E60000592ADF81830FFF7FDFE05A8FFF75CFEA0
:107E700005A80999FFF793FE06A8FFF750FBDAE77C
:107E800030460BB0BDE8F08FFD7F0D00022AF8B53B
:107E9000044606D0032A17D0012A22D10B680360BA
:107EA0001FE018200E68FCF7F8F8054650B131467F
:107EB000FFF7C8FE3069B6F9147008B103F098FCFA
:107EC0002861AF8225600CE0046854B104F1100011
:107ED000FFF72AFE2046FFF754FD1821204601F047
:107EE0005BF80020F8BD38B5002383608B6804463A
:107EF0000D462BB102229847EB68E360AB68A360A4
:107F0000204638BD022A70B5044606D0032A11D097
:107F1000012A18D10B68036015E014200E68FCF7E5
:107F2000BCF8054620B13146FFF7DDFF337C2B74EA
:107F3000256008E0046834B12046FFF722FD1421D3
:107F4000204601F029F8002070BD0000F0B50023A4
:107F500087B00C46BFF35F8F50E8006F40E80032F7
:107F6000002AF9D1BFF35F8F002E3FD01846FEF7ED
:107F700033FF074620B121463046FFF753FE2EE07F
:107F8000314601A8FFF7AFFF23788DF81430102099
:107F9000FCF783F80546D0B187601420FCF77DF824
:107FA000044678B18760014601A8FFF7F9FC039BFE
:107FB000A268A360049B0392E268E3609DF814301A
:107FC000049223740A4BEB600A4B2C60AB6001A84F
:107FD000FFF7D7FC002229460748FEF705FF304689
:107FE000FFF7CFFC1021304600F0D6FF07B0F0BD00
:107FF000377C0D00057F0D0099830D0030B585B0ED
:1080000004460D4668461146FFF7C9FD7CB124B20F
:1080100028460DB103F0ECFB029002A96846ADF8CA
:108020000C40FFF71FFE02A8FFF77EFD1DE0009841
:108030008DF808404FF00102D0E84F3FA34203D132
:10804000C0E8412F0029F7D102D08DF808300CE0AC
:1080500010F10C014FF0010318BF0373BFF35F8FE2
:10806000043000F8033CFFF771FF01A8FFF757FA4F
:1080700005B030BD704710B51821044600F08CFFE4
:10808000204610BDF0B5037D062B8DB00E4600F1E5
:1080900004074FF0000402D000F1080518E00CAD11
:1080A000394605F8304D2F232A460A20FEF754FDA5
:1080B000284603F0B8FB33680246DB6829463046A1
:1080C00098470FE024B12E213046FFF773FA04449D
:1080D00015F8011D0A223046FFF787FABD42044415
:1080E000F0D120460DB0F0BD10B5054B044611226D
:1080F00040F8043B002103F039FB204610BD00BFCF
:10810000BCCE0D000346074A10B543F8042B01F11D
:10811000100251F8044B43F8044B9142F9D10A780C
:108120001A7010BDBCCE0D00037D042B01D1406838
:1081300008E0062B0AD1436853B9836843B9C36882
:1081400033B90069003018BF012070470020704724
:108150000120704710B59DF8084044EA032343EA24
:10816000024242EA016104234160037510BD37B544
:108170000D788B784A78C97800912946FFF7EAFF95
:1081800003B030BD41747047704708B50021007CD2
:10819000FEF7E2FD30EA200028BF4FF0FF3008BDB7
:1081A00008B50121007CFEF7D7FD30EA200028BF8A
:1081B0004FF0FF3008BD08B5007CFEF7C5FD20EA92
:1081C000E07008BD08B5007CFEF7B6FD20EAE0705F
:1081D00008BD007CFEF7D0BD10B51421044600F0A8
:1081E000DBFE204610BD38B50446007C0D46FEF788
:1081F000ABFD002801DC607C28B12946207CFEF71D
:10820000B3FD20EAE07038BD10B50446002363607A
:108210004FF47A73A360054B236001230846217451
:1082200063741146FEF778FD204610BDD0CE0D00D8
:108230000022007CFEF778BD10B514220446002110
:1082400003F094FA204610BD30B50E4D87B001A85A
:10825000FFF7F2FF296811F0010410D12846FBF75F
:108260002DFF60B101AA21460748FFF7CDFF284640
:10827000FBF729FF054A0649034800F07FFE024844
:1082800007B030BDF0E30320F4E3032048E103200E
:1082900089810D0070474174704708B5007CFEF776
:1082A000ABFC20EAE07008BD08B5007CFEF77CFC62
:1082B00020EAE07008BD08B5007CFEF785FC30EAD6
:1082C000200028BF4FF0FF3008BD08B5007CFEF746
:1082D00073FC30EA200028BF4FF0FF3008BD007C5F
:1082E000FEF77ABC10B51421044600F055FE204676
:1082F00010BD70B5457C04460E4625B9007CFEF7DE
:108300007BFC002805DD3146207CBDE87040FEF78F
:1083100043BC284670BD000010B50446084611460F
:10832000002262604FF47A72A260054A2260012244
:10833000207462741A46FEF727FC204610BD00BF69
:1083400000CF0D00007CFEF74FBC000038B50C4D8F
:10835000296811F0010411D12846FBF7AFFE68B17E
:10836000084A094B09482146FFF7D6FF2846FBF784
:10837000AAFE074A0749054800F000FE034838BD39
:10838000A0E40320A4E403201CE4032008E4032069
:1083900048E1032095820D0010B5836804460BB9AF
:1083A00000F00DFEC3689847A3681BB10322214665
:1083B0002046984720461021BDE8104000F0ECBD53
:1083C0007047F8B5064615460C468F18BC4206D0D5
:1083D000336814F8011B9B6830469847F6E7284637
:1083E000F8BD0022007CFEF727BC0021007CFEF7D0
:1083F0002BBC0021007CFEF72FBC0021007CFEF787
:1084000033BC0021007CFEF737BC10B514210446B4
:1084100000F0C2FD204610BD10B504460023636085
:108420004FF47A73A360044B21740846236011460D
:10843000FEF732FC204610BD30CF0D0000231A4657
:108440001946007CFEF7E0BB70B50C4686B01425DB
:1084500006462A46002101A803F088F923788DF802
:10846000083063680393E36804930022237A307C26
:10847000ADF8045001A90593FEF716FC06B070BDD7
:108480001FB500338DF800104FF06401039118BF41
:108490000123694601928DF80830FFF7D5FF05B03A
:1084A0005DF804FB0123FFF7EBBF0022007CFEF721
:1084B000B3BBC9B2FFF7F9BF0022007CFEF7B4BB23
:1084C0000121FFF7F9BF0021007CFEF7DDBB002290
:1084D00011464068FEF7E4BC002211464068FEF7F2
:1084E000EFBC00224068FEF7E3BC002281F00101EE
:1084F0004068FEF7CDBC00231A4601214068FEF714
:10850000BFBC00231A4619464068FEF7B1BC0022E2
:1085100011464068FEF7A4BC002211464068FEF7F1
:108520008FBC002202214068FEF792BC00231A464D
:108530004068FEF77DBC38B5054688B104684CB18B
:10854000A3681BB1032221462046984710212046EC
:1085500000F022FD28461421BDE8384000F01CBD83
:1085600038BD10B103685B681847704710B50368E1
:108570000446BBB15868FEF7C7FA78B923685A7C3D
:1085800012B95868FEF7C8FA23685868FEF7CCFAA3
:1085900020680023236028B1FFF7CDFF206808B1D1
:1085A000FFF7C9FF204610BD38B50446D0F8C40116
:1085B00008B1FBF776FDD4F8C00108B1FEF7C4FAA4
:1085C000D4F8BC5135B12846FFF7D0FF0421284626
:1085D00000F0E2FC206808B1FFF7C3FF204638BD79
:1085E00010B5044B044640F8083BFFF7DDFF20467A
:1085F00010BD00BF58CF0D0038B50E4C0E4B236098
:108600000025022304F5E4706360A560C4F8C4513A
:10861000C4F8C851FEF790FA084BC4F8CC5184F85E
:10862000D05123602046064A0649BDE8384000F094
:10863000A5BC00BF28E5032040D00D0058CF0D0099
:1086400048E10320E1850D0037B502AC036804F86A
:10865000011DDD6B01224FF0FF332146A84703B017
:1086600030BD10B40368DC6B4FF0FF33A4465DF8F7
:10867000044B604737B502AC036804F8011DDD6B9D
:10868000214613460122A84703B030BD704738B5D4
:1086900043691A68002A044605DAB3F88620B3F85D
:1086A00084309A4201D001250BE003681B6998478A
:1086B000002814BF0125002503D123682046DB6A6A
:1086C0009847284638BD43691868C043C00F7047B3
:1086D00070470020704710B51421044600F05CFC80
:1086E000204610BDFBF7DBBC7FB51646002242607A
:1086F000029203925A1C04460D4608D04FF47A7237
:10870000B3FBF2F1029102FB11314A43039260691B
:108710000823009341F205026B4440F6FF710068A4
:10872000FEF7CAFA002808DB6069002332462946B2
:108730000068FEF7E1FA002804DAFEF741FC03685E
:108740006360002004B070BD10B5036804469B68E8
:108750009847A368013BA3602BB923682046DB68D8
:10876000BDE81040184710BD70B504464D69054B73
:1087700044F8043B8C3506460FCD0FC42B6823709C
:10878000304670BDBCCE0D0010B54369B3F88620ED
:10879000B3F884309A42044605D06269B2F8843056
:1087A0001344187910BD03681B6998470028F4D159
:1087B0004FF0FF3010BD10B54369B3F88620B3F811
:1087C00084309A42044608D06269B2F88430591C59
:1087D0001344A2F88410187910BD03681B699847E8
:1087E0000028F1D14FF0FF3010BDF8B543691746AE
:1087F000B3F88620B3F884309A4205460E4606D177
:1088000003681B69984710B94FF0FF3414E0696999
:10881000B1F88430B1F88640E41ABC4228BF3C4627
:10882000194422460431304602F07AFF6A69B2F8F0
:1088300084302344A2F884302046F8BD2DE9F0436B
:108840009846036893B0DB6A0D460646174698477C
:1088500012AB002443F8484D224621462846FEF735
:1088600083F8814600283DD1009B002B56D05B69E0
:10887000002B53D006A8FFF737FC009B5C69637898
:10888000022B01D1211D13E00A2B14D111224946DC
:1088900001A802F06BFFA36833BBE36823BB4FF66C
:1088A000FF702569FEF760F985421DD104F11401BE
:1088B00006A8FFF75CFC06A8FFF736FC00282DD0C1
:1088C000336807ADD3F82090184B0C930FCD0DAC47
:1088D0000FC42B6823703A4643460CA93046C8475C
:1088E00081461BE0A14619E004F1080301AD1834EC
:1088F000186859682A4603C20833A3421546F7D1BF
:10890000062301A90CA80DAD8DF81430FFF7FAFB72
:108910000FCD07AC0FC42B682370CCE70098FEF78F
:108920001BF8484613B0BDE8F08300BFBCCE0D0075
:1089300042690023A2F884304269A2F88630704769
:108940002DE9F0411E4603680C468AB0DB6A0546F5
:1089500017469847237DD5F81480042B0CBF0220BE
:108960000A2006220121FEF7CFF9C8F800006B6942
:108970001B68002B18DB2846FFF7DAFFD6B100236F
:1089800003A9F0B20393ADF81030FEF78DF858B993
:1089900068690623009341F20B0203AB40F6FF71B6
:1089A0000068FEF789F928B12B682846DB6A0024A5
:1089B00098473BE01C263246002103A802F0D6FE71
:1089C000237D8DF80C60042B0CD1022338468DF8E2
:1089D0000D30FEF7D1F8ADF80E006068FEF7C4F870
:1089E000049013E00A2338468DF80D30FEF7C4F8E2
:1089F00005AEADF80E00231D04F114071868596880
:108A0000324603C20833BB421646F7D16B691C22BB
:108A100003A91868FEF760F90028C5D104340FCC0B
:108A20006D698C350FC523682B70012420460AB070
:108A3000BDE8F08110B5436904461868002801DBE1
:108A4000FEF742F963694FF0FF321A606069112244
:108A500000218C3002F08AFE2046BDE81040FFF76E
:108A600067BF000030B54269B2F886308BB004466B
:108A70001BB1B2F884209A4240D06369186800287C
:108A80003FDBB3F886507F2D3BD8191DC5F180021E
:108A900008232944FEF728F900280CDD6369B3F8A0
:108AA00086200AB9A3F884206269B2F88630184497
:108AB000A2F8860025E0FEF783FA03680B2B20D08E
:108AC000FEF77EFA03680B2B1BD0202300250293B0
:108AD0000395FEF775FA036801930E4B009302AA03
:108AE0002B460D493220FEF757F963691868FEF7E7
:108AF000EBF863694FF0FF321A6002E0FFF718FFEE
:108B0000BBE76269B2F88630B2F88400181A0BB07D
:108B100030BD00BFF3CF0D00ECCF0D0010B500232A
:108B200004460160A0F88430A0F886308830FFF752
:108B3000DBFA204610BD00004FF47A7270B50023B6
:108B40008260144A43600260436183610446A0204E
:108B50000E46FBF7A2FA054610B13146FFF7DEFFDD
:108B60001420FBF79AFA034628B101224260826082
:108B7000094A02600561A0696561A36128B1436883
:108B8000013B43600BB9FFF7DFFD2046FFF7D0FE46
:108B9000204670BDA8CF0D008CCF0D0010B54FF052
:108BA000FF310446FFF7C8FF204610BD10B504464C
:108BB0000068002801DBFEF787F8204610BD10B5DD
:108BC00004692046FFF7F2FF24B12046BDE81040BB
:108BD000FBF765BA10BD002211464068FEF740B9A8
:108BE000002211464068FEF75BB90022114640683A
:108BF000FEF766B900224068FEF75AB9002281F0FC
:108C000001014068FEF744B900231A46194640683E
:108C1000FEF736B900231A4619464068FEF728B910
:108C2000002211464068FEF70BB90022022140687D
:108C3000FEF70EB900231A464068FEF7F9B80000A7
:108C4000024B04225A60024A1A607047FCE6032075
:108C50000CD00D0000231A464068FEF7E9B8002248
:108C600002214068FEF7F4B8002211464068FEF782
:108C7000E7B8002211464068FEF7F2B800231A4612
:108C800019464068FEF7F4B800231A4619464068B2
:108C9000FEF7F6B8002281F001014068FEF7F8B84F
:108CA00000224068FEF704B9002211464068FEF732
:108CB00007B9002211464068FEF7F2B82DE9F043EB
:108CC000002495B016460D460746FFF70DFA2146DB
:108CD00020220CA8009402F049FD40230C93214669
:108CE0006B460CAA3046FDF73FFE0446002844D1EF
:108CF000024601216868FEF7B3F802218046224649
:108D00006868FEF7ADF8009E81462146002E34D0FB
:108D1000002932D17368022B02D00A2B09D02AE035
:108D2000B8F1000F27D0716938460431FFF71FFAF8
:108D300020E0B9F1000F1ED07469112201A802F0E1
:108D400015FD06238DF8143001AD04F10803183425
:108D5000186859682A4603C20833A3421546F7D15A
:108D600001A906A807ADFFF7CDF90FCD3C1D0FC433
:108D70002B6823700121F669C8E70098FDF7ECFD28
:108D8000384615B0BDE8F083024B034A1A60002252
:108D90005A60704704E7032040D00D0070B5184EAC
:108DA000316811F0010504460AD13046FBF786F917
:108DB00030B129461348FEF74FF93046FBF783F9E7
:108DC0001048FEF76BFA28B1A4F10B03022B01D86F
:108DD000002070BD00F0ACF8FFF775FB08B1012C66
:108DE000F6D9FFF7B3FAFFF7ADFA18B1A4F109030A
:108DF000012BEDD9232C8CBF0020012070BD00BFBA
:108E0000A4E30320A8E30320232838B504460D4635
:108E10000AD8FF2908D0FFF7C1FF28B1294620460C
:108E2000BDE83840FDF7B8BD38BD38B504460D463D
:108E3000FDF7BAFDFF2810D0062804D84D2323FAE9
:108E400000F0C30709D42046FFF7A8FF28B1294640
:108E50002046BDE83840FDF7AFBD38BD10B504462B
:108E6000FDF7A2FD0438C0B2012808D92046FFF75B
:108E700095FF20B12046BDE81040FDF7A5BD0020BC
:108E800010BD0D2810B504469CBF0E34A4B2204678
:108E9000FFF784FF50B103212046FDF775FD03283D
:108EA00004D12046BDE81040FDF796BD002010BD5E
:108EB0002DE9F04190461E46072407460D46B8F1BD
:108EC000000F04D1C4F1070146FA01F101E046FAAE
:108ED00004F101F001013846FFF7A7FF0121284600
:108EE000FFF7A3FF00212846FFF79FFF14F1FF348F
:108EF000E5D2BDE8F081FDF777BD000070B504460E
:108F000014252A46094E002102F030FC2580202538
:108F10003146A5602561284600F040F83146606082
:108F2000284600F03BF8E060204670BD6CD00D0094
:108F300030B50E4D296811F0010487B013D12846D1
:108F4000FBF7BCF878B101A8FFF7D8FF01AA2146CA
:108F50000748FFF761FA2846FBF7B5F8054A0649C6
:108F6000034800F00BF8024807B030BD10E70320BB
:108F700014E7032048E10320C1830D000B4601469E
:108F8000184602F0B3BA0000024B1868BFF35F8FB7
:108F9000704700BF28E70320FBF781B800F000B856
:108FA00010B5002814BF044601242046FDF7C0FF79
:108FB00020B9FFF7E9FF08B18047F6E710BD08B513
:108FC000FDF7EEFF184B1A68D1075CBF01221A604B
:108FD000164B1A68D2075CBF01221A60144B1A683C
:108FE000D0075CBF01221A60124B1A68D1075CBF20
:108FF00001221A60104B1A68D2075CBF01221A6066
:109000000E4B1A68D0075CBF01221A600C4B1A681D
:10901000D1075CBF01221A600A4B1A68D2075CBFF5
:1090200001221A60704700BF48E7032044E703208D
:1090300040E703203CE7032038E7032034E7032020
:1090400030E703202CE70320244B1A68D0075CBFCD
:1090500001221A60224B1A68D1075CBF01221A60F4
:10906000204B1A68D2075CBF01221A601E4B1A6897
:10907000D0075CBF01221A601C4B1A68D1075CBF85
:1090800001221A601A4B1A68D2075CBF01221A60CB
:10909000184B1A68D0075CBF01221A60164B1A6879
:1090A000D1075CBF01221A60144B1A68D2075CBF5B
:1090B00001221A60124B1A68D0075CBF01221A60A5
:1090C000104B1A68D1075CBF01221A600E4B1A6858
:1090D000D2075CBF01221A60704700BF78E7032007
:1090E00074E7032070E703206CE7032068E70320A0
:1090F00064E7032060E703205CE7032058E70320D0
:1091000054E7032050E703204CE70320244B1A6860
:10911000D0075CBF01221A60224B1A68D1075CBFDE
:1091200001221A60204B1A68D2075CBF01221A6024
:109130001E4B1A68D0075CBF01221A601C4B1A68CC
:10914000D1075CBF01221A601A4B1A68D2075CBFB4
:1091500001221A60184B1A68D0075CBF01221A60FE
:10916000164B1A68D1075CBF01221A60144B1A68AB
:10917000D2075CBF01221A60124B1A68D0075CBF8D
:1091800001221A60104B1A68D1075CBF01221A60D5
:109190000E4B1A68D2075CBF01221A60704700BFED
:1091A000A8E70320A4E70320A0E703209CE703200F
:1091B00098E7032094E7032090E703208CE703203F
:1091C00088E7032084E7032080E703207CE703206F
:1091D000184B1A68D1075CBF01221A60164B1A6837
:1091E000D2075CBF01221A60144B1A68D0075CBF1B
:1091F00001221A60124B1A68D1075CBF01221A6063
:10920000104B1A68D2075CBF01221A600E4B1A6815
:10921000D0075CBF01221A600C4B1A68D1075CBFF3
:1092200001221A600A4B1A68D2075CBF01221A6039
:10923000704700BFC8E70320C4E70320C0E703204E
:10924000BCE70320B8E70320B4E70320B0E703201E
:10925000ACE70320000000002DE9F04F2DED028B5C
:10926000DFF824A38BB057EC106B55EC114B00F0DA
:109270008FF99AF90080B0EE408AF0EE608AB8F17A
:10928000FF3F48D022462B462046294601F06EFD7E
:10929000834600283FD132463B463046394601F0EE
:1092A00065FD8146002840F0908030463946002216
:1092B000002301F029FD002836D00022002320469B
:1092C000294601F021FD8346B8B19FEDA57B01221F
:1092D000A94BCDF820900092CDE90267CDE9044575
:1092E0008DED067B0193B8F1000F5BD09FED9E0BD7
:1092F0000BB0BDEC028BBDE8F08F45EC104B00F0DD
:10930000A7FF40B1002200232046294601F006FDB8
:10931000002840F0C580B0EE480AF0EE680A0BB0B5
:10932000BDEC028BBDE8F08FB0EE480AF0EE680AA3
:1093300000F08EFF8046002861D04FF000084FF00B
:10934000000951EC180B42464B4601F0DDFC0028A9
:10935000E1D047EC106B00F07BFF0028DBD045EC40
:10936000104B00F075FF0028D5D09AF90030824AE2
:10937000019204210022022BCDE90267CDE90445C8
:10938000CDE906890091089203D0684600F068FF95
:1093900070B9FDF715FE2223036009E09FED707B95
:1093A0008DED067B684600F05BFF002800F08E80A4
:1093B000089B1BB1FDF704FE089B03609DED060BA7
:1093C0000BB0BDEC028BBDE8F08F002200232046DD
:1093D000294601F099FC00289DD09FED630B664B58
:1093E000CDF820B00122B8F1020FCDE90267CDE936
:1093F00004458DED060B8DE80C00D3D18FE747ECCB
:10940000106B00F025FF002897D045EC104B00F0C2
:109410001FFF002891D053EC182B18EE100A1946A4
:1094200001F0A4FC00287CD103239AF9008000936A
:10943000514B0890CDE90267CDE904450193B8F19D
:10944000000F48D1DFF844914FF06048002200231C
:1094500030463946CDE9068901F060FC002894D0F9
:109460000022464B2046294601F0E6F904460D4607
:1094700045EC104B00F000FF204653EC102B294622
:1094800001F042FC002849D13D4B9AF900804FF091
:109490006042CDE90623B8F1020F7FF476AF78E79A
:1094A000354A9AF90030CDF820B00121CDE90267A4
:1094B000CDE904458DE80600002B3FF46FAF31493C
:1094C0000020022BCDE906017FF46CAFFDF778FD9B
:1094D000212303606CE79FED267B002200233046AA
:1094E00039468DED067B01F019FC0028D3D000220F
:1094F000224B2046294601F09FF904460D4645ECD3
:10950000104B00F0B9FE204653EC102B294601F019
:10951000FBFB18B91B4B0022CDE906239AF900800A
:10952000B9E7154B9AF90090CDF820800122CDE9DA
:109530000267CDE904458DE80C00B9F1000F3FF456
:109540002DAF002200231046194601F09FFAB9F111
:10955000020FCDE90601B9D024E700BFAFF30080C8
:109560000000000000000000000000000000F03FCC
:10957000000000000000F07F70D00D000000E03F10
:10958000FFFFEFC70000F0FF8CE00320FFFFEF4775
:109590002DE9F04F51EC110B21F0004858EA00047E
:1095A00093B03CD053EC102B6D4E23F00044B442EA
:1095B00010EE10AA1D462BDC894611EE10EA26D0CB
:1095C000B04525DC664EB04577D0002D16461F46C7
:1095D000CDE9000175DB4FF0000BBEF1000F2DD17E
:1095E0005F4B984500F089805E4B98455ED0B9F19D
:1095F000804F00F0DE835C4B99451FD1002D1DDBB1
:1096000047EC106B13B0BDE8F04F00F049BD5AB104
:1096100004F1404404F5801454EA0A0306D19FED96
:109620004A0B13B0BDE8F08FA045CBDD4F4813B017
:10963000BDE8F04F00F018BE4FF0000B47EC106B88
:1096400000F0FEFD51EC100BBAF1000F1ED0ED0F33
:1096500005F1FF3A5BEA0A0363D0454B984540F3B6
:109660008D8003F10473984540F33884414B9C424C
:1096700062DDB9F1000F62DD35A3D3E900231046A6
:10968000194601F0D9F841EC100BCAE724B1354B6B
:1096900025F040429A42DAD1B9F1000FC0F2CB83F3
:1096A000002DC0F2748341EC100BBAE7B9F1000F42
:1096B000C0F27A8447EC106BB3E7BEF1000F84D0A0
:1096C000A6E72D4B984529DCA3F15473984582DD1C
:1096D0004FEA2853A3F2FF33142B40F37F84C3F1E6
:1096E00034032EFA03F202FA03F39E457FF473AFBC
:1096F00002F00102C2F1020B6FE704F1404303F5EF
:10970000801353EA0A038AD01A4B9C4240F38583A4
:10971000B9F1000F13DB9DED000B82E74FF0020B58
:109720005BE732463B461046194600F0D1FE024642
:109730000B4601F0ABF9B6E7B9F1000F9CDB9FEDEA
:10974000060B6EE7AFF30080000000000000F03F62
:109750009C7500883CE4377E00000000000000009B
:109760000000F07F0000F03F0000E03F74D00D00EB
:109770000000E041FFFFEF3FFFFF3F43B4F5801FD4
:109780004FF0000205DAD64B01F056F86FF03402C4
:109790000C462315D34EC4F31304A3F2FF33134432
:1097A00044F07F55B4421A460D9345F4401540F3FA
:1097B0004983CD4B9C4240F32D849FEDB37B8DEDCF
:1097C000087B8DED0E7B9FEDB27B13468DED067B06
:1097D00001330D93A5F580154FF00008DDE9062350
:1097E0002946CDE90A0100F073FEDDE906230646AD
:1097F0000F46DDE90A0100F06DFE02460B4600202F
:10980000BA4901F043F903460C46CDE9103402464B
:109810000B463046394601F00FF86B1043F0005309
:1098200003F5002303EB08050A4600230146CDE9B2
:1098300002120293DDE902890024CDE904122B46CD
:1098400022464046494600F0F7FF02460B463046A6
:10985000394600F03DFEDDE9062306460F46204668
:10986000294600F035FE02460B46DDE90A0100F00C
:109870002FFE42464B4600F0DFFF02460B463046C5
:10988000394600F025FEDDE9102300F0D5FFDDE9C3
:109890000445CDE9060122462B462046294600F024
:1098A000CBFF7DA3D3E9002304460D4600F0C4FF9F
:1098B0007BA3D3E9002300F00DFE22462B4600F0E7
:1098C000BBFF79A3D3E9002300F004FE22462B4618
:1098D00000F0B2FF76A3D3E9002300F0FBFD22469F
:1098E0002B4600F0A9FF74A3D3E9002300F0F2FD9A
:1098F00022462B4600F0A0FF71A3D3E9002300F01D
:10990000E9FD224606460F462B462046294600F032
:1099100093FF02460B463046394600F08DFF424623
:1099200004460D464B46DDE9040100F0D3FDDDE9B8
:10993000062300F081FF22462B4600F0CBFD424675
:1099400006460F464B464046494600F075FF00224A
:10995000674BCDE90A0100F0BDFD32463B4600F001
:10996000B9FD02980D46044622462B46404649461C
:1099700000F062FF0022804689465D4B2046294662
:1099800000F0A6FDDDE90A2300F0A2FD02460B4629
:109990003046394600F09CFDDDE9042300F04CFF21
:1099A000224606460F462B46DDE9060100F044FF3D
:1099B00002460B463046394600F08CFD06460F46FF
:1099C00002460B4640464946CDE9048900F082FD37
:1099D00002983DA3D3E9002304460D4600F02CFF76
:1099E000DDE90423804689462046294600F070FDC3
:1099F00002460B463046394600F06AFD34A3D3E9EF
:109A0000002300F019FF34A3D3E9002306460F46D4
:109A10002046294600F010FF02460B4630463946E4
:109A200000F058FDDDE90E2300F054FD06460D98C8
:109A30000F4600F09BFE324604460D463B4640462C
:109A4000494600F047FDDDE9082300F043FD2246CA
:109A50002B4600F03FFD029822462B46CDE902013D
:109A600000F036FDDDE9082300F032FD42464B46AA
:109A700000F02EFD02460B463046394600F028FD28
:109A80008046894636E000BF00000000000000006C
:109A9000000000000000F03FEF4E454A287ECA3F1C
:109AA00065DBC9934A86CD3F01411DA96074D13F52
:109AB0004D268F515555D53FFFAB6FDBB66DDB3F64
:109AC000033333333333E33F000000E009C7EE3F95
:109AD000FD033ADC09C7EE3FF5015B14E02F3EBE03
