:02000002D0002C
:1040000000400D00E0DB0D00000006000C00050183
:084010000401E80500000000B6
:04401800DCC40D00F7
:1040200009480A49884208B505D0094A824202D0A7
:10403000121A07F051FD0748074A0021121A07F02B
:1040400071FD014808BD00BF68DC0320DCD60D000F
:1040500044E1032048E10320F4E7032070B503F0B6
:10406000BBFE074C074BE41AA40800251E46A542D8
:1040700004D056F8253098470135F8E770BD00BFE9
:10408000C8D60D0078D60D0000F01ABA08B500F0B9
:1040900003FCBDE8084003F061BE03F01DB803F067
:1040A00023B803F021B8000008B5034A00210C2012
:1040B00002F036FFFEE700BF616C0D000078B0FA39
:1040C00080F04009704701230370704770477047C4
:1040D00010B5034B0360044601F078FE204610BD86
:1040E000F8C40D0010B50446FFF7F2FF20464FF468
:1040F000987105F0F3F8204610BD000037B5164C56
:10410000164D236883421BDA04F040FA2368144AF0
:10411000009301212B68134C03F011FD4FF47A70CA
:1041200003F0CEFD0121208805F021F80E4B186820
:1041300003F0C6FD2088002105F019F8012009E0F0
:1041400004F024FA23680093084A2B68012103F045
:10415000F6FC002003B030BD68DC032070E30320D0
:1041600000C50D0070DC032074DC03201DC50D00AC
:1041700070B586B003F093FD1F4C204E204D0146D4
:1041800002A803F049FD02A9204603F0F0FA02A8B4
:1041900003F076FA314620460023192203F026FB6D
:1041A0002146184C13230B2202A803F037FB02A967
:1041B000204603F0DCFA02A803F062FA0023092289
:1041C0002946204603F012FB04F0E0F9216803F0D1
:1041D000A2FB04F0DBF90C4B0C4A1B680093002196
:1041E000334603F0ACFC04F0D1F92B46084A002119
:1041F00003F0A5FC06B070BD18E3032088E303209C
:104200004CE1032098E1032070E3032039C50D0041
:104210005CC50D0038B504F0B9F92D492D4C03F0FB
:1042200067FB04F0B3F90546204600F075FE022155
:10423000284603F05BFC04F0A9F9274903F06BFB67
:1042400004F0A4F9254903F053FB04F09FF9054657
:10425000204600F08FFEDFED227A022180EE270A51
:10426000284603F043FC04F091F91E4903F053FB88
:1042700004F08CF91C4903F03BFB04F087F99FED37
:104280001B0A0546204600F053FF0221284603F092
:104290002DFC04F07BF9164903F03DFB04F076F9A0
:1042A000144903F025FB04F071F90546204600F09F
:1042B000E1FF0221284603F019FC04F067F90E49DA
:1042C00003F029FB04F062F9BDE8384003F017BBA6
:1042D0006DC50D002CE303207CC50D0080C50D00CD
:1042E0000000C8428CC50D0091C50D0000507D44F2
:1042F000A5C50D00A8C50D00B4C50D000000000047
:104300002DE9F84300212DED028B082004F01EFF5B
:1043100002F0AEFC0546002447F23056002108208A
:1043200004F08BFF044402F0A3FC401BB042F5D91B
:10433000204606F0ABFB40A3D3E9002306F046FD80
:1043400006F012FF08EE900A06F0C2FB06460F4682
:104350009FED331B47EC106B05F01EF938A3D3E932
:10436000002351EC100B06F007FC32463B4680461A
:1043700089463046394606F0FFFB33A3D3E90023D4
:1043800006F0FAFB02460B464046494606F040FA64
:10439000DFED277A68EEA77A064617EE900A0F46F9
:1043A00006F096FB02460B463046394606F032FAD6
:1043B0001DA3D3E9002306F02DFA06F0D5FE08EE82
:1043C000100A04F0E3F80A22214603F0B0FA04F0E0
:1043D000DDF8184903F08CFA04F0D8F8B0EE680A5A
:1043E000022103F083FB04F0D1F8124903F080FAB4
:1043F00004F0CCF80221B0EE480A03F091FB02F081
:1044000037FCFFEE007AB4EE678AF1EE10FA05464B
:1044100081D0B0EE480ABDEC028BBDE8F88300BF46
:104420000000000000000840D7A3703D0AD7E33F1A
:1044300000000244B7C50D0000000000804F12418B
:104440009A9999999999F13F6666666666660E40F3
:1044500010B5194C204601F0DFFF0022114620461E
:10446000012301F079FF2046012300227F2101F082
:1044700073FF204601233F22002101F06DFF01233D
:104480003F2220467F2101F067FF2046012102F0F4
:104490001DFB2046012102F01EFB20461E221B218F
:1044A00002F011FB2046054903F022FA2046BDE840
:1044B000104002F0D3B800BFC8E20320B9C50D0018
:1044C00010B504F063F84FF4165104F053F83C2291
:1044D00002213B483B4C01F0EFFF394801F09CFFC3
:1044E000374802F0BBF8FFF7B3FF374B00211888BD
:1044F00004F02CFE0121208804F028FE0121072071
:1045000004F024FE0021208804F031FEB9EE080AF0
:1045100003F066FB02F0B8FD10B1002002F0C4FD0C
:104520000023022229492A4802F09EFD0023092285
:104530002849294802F098FD0023022227492848EB
:1045400002F092FD2749284801F0F2F904F01EF824
:10455000264903F0EAF97621254801F08FF8254B2A
:10456000186060BB04F012F8234903F0D4F904F09A
:104570000DF8224903F0BCF904F008F804461C4881
:1045800000F0FCFB10220146204603F0D0F9204643
:1045900003F0B5F903F0FAFF194903F0A9F903F0A4
:1045A000F5FF184903F0A4F903F0F0FF164903F0F2
:1045B0009FF903F0EBFF154903F09AF9FEE710BDF0
:1045C000C8E2032070DC03206CDC032070E30320CE
:1045D0001BC80D0090E10320FDC70D0028E3032058
:1045E000C7C50D0090E20320A8E10320D5C50D004A
:1045F0002CE30320F0E20320E1C50D0029C60D00E5
:104600003AC60D0081C60D00ABC60D00D5C60D0023
:1046100038B5046805467CB16368013B63605BB9EB
:10462000236820469B689847A368013BA3601BB999
:1046300023682046DB689847284638BD10B5044BF0
:10464000044640F8183BFFF7E3FF204610BD00BFCB
:1046500040D30D0010B50446FFF7F0FF20461C21A3
:1046600004F03CFE204610BD37B5044610EE100A9B
:104670000D4606F02DFA2A46CDE90001002120461C
:1046800003F05DFA03B030BD38B5334C2DED048B2B
:1046900005462046B0EE609AF0EE418AB0EE618A9F
:1046A000F0EE409A01F0B8FE204601F0D7FF00225C
:1046B00011462046012301F04FFE2046012300222F
:1046C0007F2101F049FE204601233F22002101F015
:1046D00043FE01233F2220467F2101F03DFE20467C
:1046E000012102F0F3F92046012102F0F4F92046FD
:1046F0000522002102F0E7F9184A0021204603F0C4
:104700001EFA12222046002102F0DDF9B0EE690AFD
:1047100013492046FFF7A8FFB0EE490A1149204689
:10472000FFF7A2FFB0EE680A0F492046FFF79CFF93
:10473000B0EE480A0D492046FFF796FF2B4620466B
:104740000B4A002103F0FBF9BDEC048B2046BDE8C9
:10475000384001F083BF00BFC8E20320FFC60D0050
:1047600015C70D002BC70D0041C70D0058C70D0020
:104770006CC70D0070B504460E46154601F02EFCC0
:1047800001223146204601F09DFB20463A2101F0EE
:104790004DFB2A4620460249BDE8704001F085BB2A
:1047A00098D30D0038B504462DED028B0D46B0EEC2
:1047B000408A01F013FC29462046012201F082FBC9
:1047C00020463A2101F032FBB0EE480ABDEC028BE4
:1047D0002046BDE8384001F025BC000030B52DED85
:1047E000048BD3B005460C464FF4807212A906A87C
:1047F000F0EE608AB0EE418AB0EE409A01F004FB20
:104800001D4B06937D227B2106A801F0F2FB2A4670
:1048100006A81A49FFF7AEFFB0EE490A06A81849E4
:10482000FFF7C0FFB0EE680A06A81649FFF7BAFF07
:10483000B0EE480A06A81449FFF7B4FF2246134910
:1048400006A8FFF797FF06A801F0FEFA079B03935F
:104850000F4B039A1B780F498DF8003004A83C23B6
:1048600003F028FC05A8FFF7D3FE06A8FFF730FCED
:1048700053B0BDEC048B30BDF8C40D001BC80D0057
:10488000FDC70D004EC80D0069C80D00C7C50D005D
:10489000ECE203207BC70D002DE9F043A24BA34CB3
:1048A0001888A34DDFF8E092A24EA34FDFF8DC8218
:1048B0008BB004F088FC2060FFF720FC28609F4844
:1048C00000F02AFB10EE100A06F002F992A3D3E9D9
:1048D000002306F051F90022994B05F09BFFC9E92E
:1048E0000001964800F046FBDFED967A80EE277ACD
:1048F00017EE100A06F0ECF889A3D3E9002306F0BE
:104900003BF90022904B05F085FFC6E900018B487A
:1049100000F0B0FC10EE100A06F0DAF8C7E900016A
:10492000FFF7EEFC88ED000A03F030FE98ED000A78
:104930008649FFF799FE2068FFF71AFCFFF76AFC2B
:10494000834800F026FF18B3022199ED000B81483F
:1049500001F0F6F9022196ED000B7F4801F0F0F925
:1049600097ED000B02217D4801F0EAF921687C48AF
:1049700001F0E4F929687B4801F0E0F9D8F800007B
:1049800006F0A6F841EC100B0221774801F0D8F9A7
:10499000D7E9000106F0E8FB0390D6E9000106F034
:1049A000E3FBDFF8E4910290D9E9000106F0DCFBBB
:1049B000D8ED001A9DED031ADDED020ADFF8D08173
:1049C00000EE100A2068FFF75FFE0A22216806A8A1
:1049D00002F0E6FE98F80030069A64498DF800303F
:1049E00004A83C2303F066FB05A8FFF711FE06A808
:1049F00002F046FE99ED000B062106A802F0E3FE48
:104A000098F80030069A5A498DF8003004A83C23E3
:104A100003F050FB05A8FFF7FBFD06A802F030FEEF
:104A20000A22296806A802F0BBFE98F80030069A10
:104A300050498DF8003004A83C2303F03BFB05A847
:104A4000FFF7E6FD06A802F01BFED7E9000106F01D
:104A50008BFB0390D6E9000106F086FB0290D9E9B2
:104A6000000106F081FB444E29689DED031ADDED3F
:104A7000020ADFF8208100EE100A2068FFF7AEFE80
:104A80000023336033683B2B43DC03F07FFD3A4B5C
:104A90003A4A1B68002103F052F842F210712C4888
:104AA00000F062FF88B34045F7D108F1050006F039
:104AB000F5FE334F386003F069FD00213B68314A51
:104AC00003F03DF839680129E7D1072004F04FFBD6
:104AD00040F6B830FFF712FB28601D4800F059FE81
:104AE00070B1022199ED000B1A4801F029F92168F3
:104AF0001B4801F023F90E4B1A48196801F01EF902
:104B00000021072004F033FBC7E73368013333602B
:104B1000B8E70BB0BDE8F083CDCCCCCCCCCCFC3F1F
:104B2000B0E600C11C3D9E3F6CDC032070E3032017
:104B300028E3032080E3032088E203202CE3032002
:104B4000000040400000C8420000144084C70D002F
:104B5000A8E1032008E303207CE20320F8E203201D
:104B600080E1032058E1032074E303201BC80D00FB
:104B7000FDC70D00C7C50D00F4E2032099C70D0065
:104B800014E303209EC70D0090E1032004E30320FB
:104B9000ECE2032090E2032010B52421044604F047
:104BA0009DFB204610BD10B5D421044604F096FBB1
:104BB000204610BDF7B5394B394C3A4D3A4E3B4F74
:104BC00001221A7001F0A4FF4FF0FF31204601F0DE
:104BD0000DFC2A463649204604F072FB3046354C1F
:104BE00004F07EF92A463449304604F069FB334B21
:104BF000009340F25B72324B3249204600F0FEFDDA
:104C0000314B324923602A462046C4F8D06004F074
:104C100057FB214600232E4A2E482F4E01F07AF8EA
:104C2000214600232D4A2E4801F074F82146002326
:104C30002C4A2D4801F06EF8214600232B4A2C48BF
:104C400001F068F8214600232A4A2B4801F062F857
:104C500021460023294A2A4801F05CF80023294A0A
:104C600029482146294C01F089F8294800F080F8AC
:104C70003946204602F04BFD2046264C2A46314656
:104C800004F01EFB3946204602F041FD2A4631461B
:104C9000204603B0BDE8F04004F012BBECE2032074
:104CA000C8E2032048E1032064E1032049C90D0064
:104CB000CD400D00A8E103203D460D00CAC70D0000
:104CC000B3C70D00BAC70D00FCC80D00CF400D00E2
:104CD000EBC70D0008E3032081760D0009C80D0025
:104CE00080E1032024C80D0058E103203CC80D00DA
:104CF0007CE2032057C80D00F8E2032072C80D00C3
:104D000074E3032089C80D0090E2032018E3032018
:104D10002CE3032098E103207FB50246084613796F
:104D2000956833B13DB90C4904B0BDE8704002F05C
:104D3000DFBD0A4B00E00A4B167B0A4C0A49527B46
:104D40000292012E08BF214601910095074A0021D9
:104D500002F0F5FE04B070BDBDC80D0049C90D00DC
:104D6000ACC80D00B5C80D00B9C80D00D3C80D0002
:104D7000FF22027442748274C27470478068704764
:104D800038B5094D296811F001040AD12846FFF70A
:104D900095F930B12146054802F032FA2846FFF76E
:104DA00092F9024838BD00BFA4E30320A8E3032022
:104DB0002DE9F04190F91330013305460F4606D135
:104DC000FFF7DEFF3946BDE8F04102F035BB0726AC
:104DD00000244FF0010895F91300002180B204F07F
:104DE000C6F995F9110008FA06F1394080B204F0CD
:104DF000BEF995F91300012180B204F0B8F995F9D4
:104E00001200640080B2E4B204F0CAF908B144F0C0
:104E1000010416F1FF36DED22046BDE8F08108B568
:104E2000FFF7AEFFBDE8084002F027BA10B5044610
:104E3000FFF7A6FF2146BDE8104002F037BA000098
:104E400030B590F91030013385B004460D4621D1BC
:104E50000179006803F0CBFC2068036829469B6851
:104E60009847206803F0CEFC03222179206803F0E4
:104E7000BBFC206803685B699847050220680368EB
:104E80005B69984728430502206803685B69984777
:104E9000054339E090F9133001330ED11C4B1D4A04
:104EA000009302920023012268468DF804308DF8A9
:104EB0000C208DF80D30FFF7B9FF94F91000002198
:104EC00080B204F054F945F080012046FFF770FFEE
:104ED00000212046FFF76CFF002105022046FFF766
:104EE00067FF2843050200212046FFF761FF0543C5
:104EF00094F91000012180B204F039F994F91330CB
:104F0000013301D1FFF78BFF284605B030BD00BF4C
:104F1000A8C80D0020A1070010B5FA210446FFF72C
:104F20008FFFB0F5000F1ED0A28A9FED107AC2EB62
:104F300020235200C2EBE010B4F916205B4350432B
:104F4000B4F918201B1353439B1303EBE020E060DC
:104F500000EB80008030001207EE900AF8EEE77A4E
:104F600087EE870A10BD9FED020A10BD0000C842FF
:104F70000000C07F2DE9F84F0646FFF7CDFFF7216F
:104F80003046FFF75DFFB0F5000F074600F0C18027
:104F9000F468B6F91C20E517B4F5FA3445F1FF358D
:104FA000A4FB048904FB05F309EB430902FB05F1AB
:104FB000D31704FB0311A2FB04230B44190341EA9A
:104FC00012511003B6F91E20D31702FB09FE08FB8D
:104FD00003EEA2FB082373444FEA122A4AEA036A4B
:104FE0001AEB000A728B4FEA232B4BEB010B1AF1E1
:104FF00000004BF50041A0FB02AB02FB01BB4FEAF6
:105000006B024FEAEB7352EA030100F08680B6F9B7
:1050100024A04FEAEA7B0AFB09F108FB0B11AAFB6B
:105020000889B6F922A089444FEAEA7B0AFB05F118
:1050300004FB0B11AAFB04450D444FEA454B4FEA14
:10504000444A38111AEB080AC0F580104BEAD43BE9
:105050004BEB090B4FEAE0794FEAC97545EA500579
:10506000C407B6F920004FF0000818EB0A084FEA11
:10507000C00949EB0B0940F63547B4EB080465EB72
:105080000905A4FB070107FB051106F0CBF9B6F9EA
:105090002A204C13450B45EAC14502FB04F7D31700
:1050A00005FB0377A2FB05233B44544305FB034464
:1050B000A2FB05232344540E44EAC314B6F9282066
:1050C00024184FEA63654D41D317514300FB031386
:1050D000A2FB00011944C20C42EA41321219B6F98E
:1050E00026404FEAE1436B41100AE517220140EAEE
:1050F000036019122B0143EA14738018594106F01A
:1051000053F99FED080A07EE900A27EE800ABDE8E2
:10511000F88F9FED050ABDE8F88F9FED040ABDE802
:10512000F88F00BF0000803B0000C07F000000003F
:1051300008B52DED028BB0EE408AFFF71BFFDFEDC7
:10514000167A80EE270AC0EE087A17EE900A05F06C
:10515000BFFC9FED0D1B41EC100B04F01DFA00206D
:1051600053EC102B0D4905F053FB09A3D3E90023A1
:1051700005F002FD05F0F8FFBDEC028B00EE100A11
:1051800008BD00BFAFF30080EBE2361AC05BC83F3A
:105190000000000040A5E5400000C8420000F03FCC
:1051A00030B590F91030013385B004460D461DD15D
:1051B0000179006803F01BFB2068036829469B689F
:1051C0009847206803F01EFB02222179206803F033
:1051D0000BFB206803685B699847054620680368F5
:1051E0005B69984740EA052085B235E090F91330B5
:1051F00001330ED11A4B1B4A009302920023012265
:1052000068468DF804308DF80C208DF80D30FFF7CE
:105210000DFE94F91000002180B203F0A8FF45F0C4
:1052200080012046FFF7C4FD00212046FFF7C0FDA6
:10523000002105462046FFF7BBFD40EA052085B268
:1052400094F91000012180B203F091FF94F913301A
:10525000013301D1FFF7E3FD284605B030BD00BFA3
:10526000A8C80D0020A1070008B5FFF799FF40BAB4
:1052700080B208BD10B50446FFF74EFEFD21204662
:10528000FFF78EFFB0F5004F38D0B4F93230E26846
:10529000B4F934101B05A2F59632C3EB803302FB40
:1052A000113303F58043D91394F8303094F9360064
:1052B0005343DB124243921203F5004353439B12C4
:1052C000B4F92E2003F50013534303F500539B1349
:1052D0004B43DA1394F82C105243D2114A43A3EBF8
:1052E000221323EAE373B3F1C85FA8BF4FF0C8539A
:1052F0001B1300EE103ABAEECB0A10BD9FED010A67
:1053000010BD00BF0000C07F30B590F910300133F0
:1053100085B004460D4616D10179006803F067FA9E
:105320002068036829469B689847206803F06AFA5A
:1053300001222179206803F057FA206803685B692D
:105340009847C5B22EE090F9133001330ED1174BB8
:10535000174A009302920023012268468DF8043018
:105360008DF80C208DF80D30FFF760FD94F91000DA
:10537000002180B203F0FBFE45F080012046FFF7DC
:1053800017FD00212046FFF713FD054694F9100094
:10539000012180B203F0EBFE94F91330013301D107
:1053A000FFF73DFD284605B030BD00BFA8C80D0081
:1053B00020A1070008B5F321FFF7A6FF00F00100C8
:1053C00008BD38B588210446FFF74EFF8A21A08228
:1053D0002046FFF749FF8C21E0822046FFF744FF7B
:1053E0008E2120832046FFF73FFF902160832046D7
:1053F000FFF73AFF9221A0832046FFF735FF942163
:10540000E0832046FFF730FF962120842046FFF7F7
:105410002BFF982160842046FFF726FF9A21A08465
:105420002046FFF721FF9C21E0842046FFF71CFF68
:105430009E2120852046FFF717FFA1216085204689
:10544000FFF762FFE12184F82C002046FFF70CFFF4
:10545000E321E0852046FFF757FFE42184F8300080
:105460002046FFF751FFE52105462046FFF74CFF98
:1054700000F00F0040EA05106086E6212046FFF7A5
:1054800043FFE52105462046FFF73EFF001140EAB5
:105490000510A086E7212046FFF736FF84F8360086
:1054A00038BD00007FB590F91030013304460E4638
:1054B000154611D10179006803F099F92068036855
:1054C00031469B6898472068036829469B6898473F
:1054D000206803F097F92DE090F9133001330ED1D5
:1054E000154B164A009302920023012268468DF85C
:1054F00004308DF80C208DF80D30FFF797FC94F9EF
:105500001000002180B203F032FE06F07F01204639
:10551000FFF74EFC29462046FFF74AFC94F910009D
:10552000012180B203F023FE94F91330013301D13D
:10553000FFF775FC04B070BDA8C80D0020A10700DE
:10554000F8B590F83C509DF818609DF81CE09DF867
:10555000207061F3871562F3020563F3C50590F8C7
:10556000403080F83C5066F3471380F8403090F8A4
:1055700038306EF3C503044667F3020380F8383011
:1055800006F00702F221FFF78DFF94F83820C2F3EE
:10559000C20302F007019B0043EA411343EAD2121F
:1055A0002046F521FFF77EFF94F83C20C2F3C203AA
:1055B00002F007019B0043EA411343EA921220469E
:1055C000F421BDE8F840FFF76DBF30B5044690F90F
:1055D0001000421C85B003D1206803F0D1F822E00E
:1055E000012180B203F0C3FD94F91000012180B2C3
:1055F00003F0ACFD94F91300431C04D1FFF7C0FB8A
:1056000001F008FE0FE0012180B203F09FFD94F944
:105610001100012180B203F099FD94F912000021DC
:1056200080B203F093FDD0212046FFF76DFE602885
:10563000A06020D12046B622E021FFF733FF4FF4CF
:10564000967002F03DFB2046FFF7B4FE054608B118
:105650006420F6E72046FFF7B4FE052300931A46C0
:105660000321204602950195FFF76AFF642002F0AE
:1056700027FB012000E0002005B030BD10B501710E
:10568000044603F0F7FD20602046BDE81040FFF718
:105690009CBF01F03DBA08B5D0F8D00003681B6B81
:1056A0009847003018BF012008BDF8B506460F46E0
:1056B0001446C4B1D6F8D00003681B6B984708B9EC
:1056C0000020F8BDD6F8D000FA2C03682546A8BF04
:1056D000FA25DB682A463946984780B2241A854263
:1056E000A4B2E6D0ECE70120F8BD2DE9F843064668
:1056F000884691461F461D460024D6F8D000036810
:105700001B6B9847D0B1002D18DBD6F8D00003688A
:105710001B69984760B1D6F8D00003685B69984769
:1057200008F804000134A4B24C4507D03D46ECE72C
:105730000A3D0A202DB202F0C3FADEE72046BDE89A
:10574000F88370B5044600F1220596220021284610
:1057500006F0E8F96168284606F01EFAD4F8D00091
:105760002289036829465E6A0023B047003018BFCB
:10577000012070BD10B50446D0F8D00003681B6B43
:10578000984720B1D4F8D0000368DB6A984701201D
:1057900010BD70B503689B6804469847C8B9204699
:1057A00000F05FFA042570B1013D15F0FF050AD045
:1057B000204600F0A9F841F2883002F081FA204634
:1057C00000F04FFAEFE7236820469B68BDE8704081
:1057D000184770BD01F09CB970B5044608460E46E6
:1057E00006F0FDF903122370607085B202342A4678
:1057F0003146204606F035FA601970BD30B50361B8
:10580000039B0D4D028143610C4A056000234160FA
:10581000C260C0F8BC30C0F8C030C0F8C430C0F8B6
:10582000C830C0F8CC308361C36180F8203080F884
:105830002130A0F8B83030BD20C90D0049C90D0095
:105840002DE9F74F0FFA83FA036801929D6901224F
:10585000534606460C46A847C0B2012801D0002096
:1058600034E0651C04F1050B80464FF000093368F5
:105870009B6901221F46294653463046B847C0B2AD
:105880000128ECD115F8013B03F07F025D4502FBD6
:1058900008994FEAC818E2D01B06E8D4019B2C1BDC
:1058A0001B1B013B9945336806D9019A9F69013A50
:1058B000121B534692B203E09F691FFA89F25346C6
:1058C00029463046B847C0B2204480B203B0BDE894
:1058D000F08F0000F8B505460C4616461F463B46BD
:1058E000962221462846FFF7ABFF48B12378B6EB56
:1058F000131F05D002F04AFE024902F00CF8EEE751
:10590000F8BD00BF4AC90D0010B5E02380F8223071
:10591000002380F82330036804465B69022200F10B
:1059200022019847236820461B69BDE810401847AC
:1059300000F1B80230B5134600F1CC0453F8045F0F
:105940008D420FD0A342F9D1002352F8044F24B95D
:1059500000EB8300C0F8BC1004E00133052BF4D148
:10596000002030BD012030BD2DE9F04F00F12209AB
:105970008BB287B0962249460446FFF761FF064680
:1059800010B394F82570BBB2019304F1260304F11F
:10599000B80A002502935AF804BFBBF1000F0ED0DD
:1059A000DBF800100391084606F019F9B84280466A
:1059B000039904D13A46029806F01AF928B1013544
:1059C000052DE8D100204AE049E094F822A00AF031
:1059D000060ABAF1020F3FD1E21992F8267092F846
:1059E000272042EA0727142200210BF1050006F0C8
:1059F00099F8019BC3F57F40FC30064404EB850514
:105A0000CAEB0606B6B2152ED5F8BC0008F10401A3
:105A100028BF1326514432464944053006F067F842
:105A2000D5F8BC305E8394F8223003F00603022BD5
:105A30000FD18DF815303B128DF8163023688DF894
:105A4000177040228DF814205B69042205A92046B6
:105A50009847D5F8BC0002E007468246C3E707B086
:105A6000BDE8F08F38B504460846102300F8023B25
:105A70000D462949FFF7B0FE04230370022343704B
:105A8000A369ABB11B789BB10623437094F8203017
:105A9000012B01D10E2302E0022B01D11E23437002
:105AA00094F82130012B02BF437843F02003437068
:105AB00023691B781BB1437863F07F0343706369EC
:105AC0001B781BB1437843F040034370012383707C
:105AD0002C23C370E1680B781BB10430FFF77CFE08
:105AE00002E0037143710630A16931B10B7823B133
:105AF000FFF772FEE169FFF76FFE21690B780BB1CA
:105B0000FFF76AFE61690B780BB1FFF765FE401B7A
:105B1000C0B2831E6B7038BD69C90D002DE9F84312
:105B2000054610460E4691461F4606F058F89DF869
:105B30002480BDF8204080B2B8F1000F01D1831C51
:105B400000E0031D4FEA480230469BB242F03002AB
:105B5000234400F8012B9BB203F07F02DB0918BF3E
:105B600042F0800200F8012B002BF5D14946FFF7E7
:105B700033FE0346B8F1000F0CD0B5F8B820120A76
:105B80000270B5F8B8204270B5F8B820013202337F
:105B9000A5F8B82022463946184605F0A8FF20444B
:105BA000801B80B2BDE8F88373B59DF8186000F1E2
:105BB000220504468DE8480013460A462946FFF7A9
:105BC000ADFF236802465B6929462046984708B91D
:105BD000002017E0B6B14FF4FA739622294620460A
:105BE000FFF72EFE0428F3D194F822301B11042B6A
:105BF000EED1A38CB4F8B8005BBA01339BB2C31AE0
:105C00005842584102B070BDF7B5054610461F46D0
:105C10000E46144605F0E3FF009783B22246314654
:105C20002846FFF7C1FF03B0F0BD38B51D468223FB
:105C30000B700C46B0F8B810090AA170B0F8B83073
:105C4000E370B0F8B8100131A0F8B8101146201D6B
:105C5000FFF7C2FD00F8015B001BC0B2831E63703A
:105C600038BD2DE9F0410368DB680446984718B950
:105C70004FF0FF30BDE8F08104F1220529462046AF
:105C8000FFF7F0FE236882B25B69294620469847F9
:105C90000028EDD041F27073962229462046FFF786
:105CA000CFFDC0B20428E3D1638CB3F5087FDFD108
:105CB00094F8250010B140B2BDE8F08104F1B807B6
:105CC00004F1CC0857F8043FFBB103263A68294693
:105CD000137912682046FFF7A8FF236882B25B6938
:105CE0002946204698470028C2D04FF4FA7309226B
:105CF00029462046FFF7EEFD38B9013E16F0FF06B3
:105D0000E4D16FF00100BDE8F0814745DAD1002011
:105D1000BDE8F08110B580E80600037210BD1FB524
:105D200004460A22084601A901F0C9FB237A01AA08
:105D300094E80300FFF768FF04B010BDFFF7EFBF62
:105D400010B592B004460B4600220B4902A88DED17
:105D5000000B01F0D9F99DED000B02A953EC102BBB
:105D600007A801F0D1F9237A07AA94E80300FFF706
:105D70004BFF12B010BD00BF6EC90D0010B503710E
:105D80000023416302604383C36143620362836211
:105D9000C362036310BD00F0BBBE000010B5054B2D
:105DA0000360037C04461BB9406808B101F09CF90C
:105DB000204610BD38CB0D0010B50446FFF7EEFFAE
:105DC0002046142103F08AFA204610BD10B5034B7B
:105DD00003600446FFF7E2FF204610BD48CB0D00EC
:105DE00010B50446FFF7F2FF2046302103F076FAA3
:105DF000204610BD00230122C36043610276437632
:105E000080F82A3070470000002310B5C3600123DA
:105E10000374054B03604FF0FF3341608260C3623F
:105E2000FFF7E8FF10BD00BF48CB0D00C3688268D4
:105E300010B593423FBF42685C1CC460D15424BF7C
:105E4000012380F82A3010BD10B54369044643B1E0
:105E500000EB4303597E09B1FFF7E8FF6369013B9B
:105E60006361A368E068616898424FF000022ABF4E
:105E70005B180A5403F8012C10BD70B50446C068C5
:105E8000A56866682D1A134630440A46294601F073
:105E900053F985422DBFE368A368E360C01836BF9D
:105EA0000123E06084F82A3070BD0EB403B503AA64
:105EB00052F8041B0192FFF7E0FF02B05DF804EB1B
:105EC00003B070472DE9F04104460E46174612B163
:105ED0002221FFF7ABFF0025715D06EB05080029C5
:105EE00071D0E268A3689A426DD20B0633D501F0F7
:105EF000F003E02B17D198F8013003F0C002802A9C
:105F000011D105F1020816F8082002F0C00080281F
:105F100009D102F03F029B0142EA013203F47C63A3
:105F20001A4392B211E001F0E003C02B46D105F113
:105F3000010816F8083003F0C002802A3ED189011A
:105F400001F4F86203F03F031A4323492046FFF7A8
:105F5000ACFF454635E00C2918D00BD8092921D0D3
:105F60000A2919D0082929D15C212046FFF75EFFB4
:105F7000622123E022291BD05C2919D00D291DD1D3
:105F80005C212046FFF752FF722117E05C2120467A
:105F9000FFF74CFF662111E05C212046FFF746FF2A
:105FA0006E210BE05C212046FFF740FF742105E0E5
:105FB0005C212046FFF73AFF98F800102046FFF7D3
:105FC00035FF013588E72FB120462221BDE8F04199
:105FD000FFF72CBFBDE8F08159CB0D00426900EB03
:105FE00042031A7E12B100221A7670472C21FFF765
:105FF0001DBFF8B543690133082B0E4617460ED86E
:10600000FFF7ECFF43695A1C00EB43030124426194
:1060100031469C76DF76FFF709FF2046F8BD002069
:10602000F8BD000037B5044610EE100AE56A002DF1
:106030000ADB04F04DFD2A46CDE90001084920465F
:10604000FFF733FF03B030BD04F042FD0B460549B6
:106050000246204603B0BDE83040FFF726BF00BF30
:106060006BCB0D0070CB0D0000F052BDF0B5447E3F
:10607000BDF81450022C08D0032C0FD0012C70D185
:106080000489013CA21A12B20CE04489013CA21A14
:106090000489E41A611A12B209B262E04489E41A6E
:1060A000611A09B2002A5BDBB0F90840944240F360
:1060B00090800029BEBF5B181BB20021B0F90A0016
:1060C000CC188442C4BF431A1BB2002B40F381801A
:1060D000C9B2C8083F4F02EBC01211F00701DBB292
:1060E00007EB020417D0C1F10801C8B23A49834254
:1060F0000E5C3FBFC3EB000EFF2141FA0EF10E40D4
:10610000B95C012D0CBF3143B1438342B95460D314
:10611000181AC3B28034072B17D9012D0CBFFF20EA
:10612000002004F180011A46083AD2B2072A01F889
:10613000800C01F18001F7D8A3F10802C2F3C40278
:10614000013204EBC21403F00703002B41D0234AB1
:10615000D25C2378012D0CBF134393432370F0BD11
:10616000F0BD002A35DBB0F90A40944231DD002948
:10617000BCBFC9180BB2B0F90870B8BF0021CE1867
:10618000BE42C4BF631A1BB2002B22DDD01001EB4C
:10619000C011104802F007020144012000FA02F287
:1061A0008542D2B209D1013B1BB25C1C11D011F85F
:1061B000010B104301F8010CF5E7D243D2B2013BC9
:1061C0001BB2581C05D011F8010B104001F8010C4E
:1061D000F5E7F0BD88DC032080DC032078DC0320B9
:1061E000F0B5447EBDF81450022C08D0032C0FD01B
:1061F000012C12D10489E41AA21A12B26DE00489AA
:10620000013C611A4489E41AA21A09B212B204E0EC
:106210004489013C611A09B25FE000295CDBB0F9F6
:1062200008408C4240F39180002ABCBFD21813B2C0
:10623000B0F90A00B8BF0022D4188442C4BF831A40
:106240001BB2002B40F38180D4B2404EDAB2E30897
:1062500001EBC31114F0070406EB010317D0C4F1DE
:106260000804E0B23A4C8242275C3FBFC2EB000E0A
:10627000FF2444FA0EF42740745C012D0CBF3C430C
:10628000BC438242745460D3101AC2B28033072ACE
:1062900017D9012D0CBFFF24002403F18000114603
:1062A0000839C9B2072900F8804C00F18000F7D8FE
:1062B000A2F10801C1F3C401013103EBC11302F0E3
:1062C0000702002A41D02349895C1A78012D0CBFAE
:1062D0000A438A431A70F0BDF0BD002935DBB0F9DE
:1062E0000A408C4231DD002ABCBFD21813B2B0F98B
:1062F0000870B8BF0022D618BE42C4BFA31A1BB292
:10630000002B22DDC81002EBC012104801F007017B
:106310001044012202FA01F19542C9B209D15A1E74
:1063200013B25C1C11D010F8012B0A4300F8012CA9
:10633000F5E7C943C9B25A1E13B25A1C05D010F86A
:10634000012B0A4000F8012CF5E7F0BD88DC0320A2
:1063500080DC032078DC0320F8B50D1E06461446C9
:106360001F463FDB00F0BCFB85423BDA002C39DBEB
:10637000304600F0B8FB844234DA304600F0AEFB21
:10638000022827D13189708901390138491B001B46
:106390000DB204B206E0012804D13389013B1B1B76
:1063A0002C461DB20820012F94FBF0F000B20E4BDA
:1063B00004F0070205EBC01104D197405A5C174363
:1063C0005F54F8BD585C012707FA02F220EA020286
:1063D0005A54F8BD0328DED17389013B5B1B254667
:1063E0001CB2DFE7F8BD00BF88DC032038B54022CF
:1063F00004460D46802100F087FA064B2360FF23F8
:10640000637784F82130E377A37784F8205020461F
:1064100038BD00BF88CB0D004FF4806200210148D9
:1064200005F080BB88DC032038B590F91D300133BE
:1064300004460D4628D090F92100012180B202F0D7
:1064400096FE94F91F00002180B202F090FE94F9AC
:106450002100002180B202F08AFE94F822302BB194
:10646000FEF78EFC294600F0E7FF05E02B460122EF
:10647000A17F607F02F0BEFE94F92100012180B26D
:10648000BDE8384002F073BE02F0F4FE94F91B1030
:1064900002F0B1F902F0EEFE036800219B68984714
:1064A00002F0E8FE036829469B68984702F0E2FE86
:1064B000BDE8384002F0A6B938B504460D4621774C
:1064C00090F91D30C276013337D090F91F000121B9
:1064D00080B202F03BFE94F92100012180B202F06B
:1064E00035FE94F822305BB994F91D00012180B289
:1064F00002F02CFE94F91E00012180B202F026FE6B
:1065000094F82230EBB194F92100012180B202F01D
:106510002EFEFEF735FC012100F08DFEFEF730FC6B
:10652000102100F065FFFEF72BFC002100F094FE27
:10653000FEF726FC00F06EFE03E002F09BFE02F088
:106540001FF994F92000012180B202F0FFFD94F9B7
:106550002000012180B202F00AFE012001F0B0FB10
:1065600094F92000002180B202F001FE0A2001F01F
:10657000A7FB94F92000012180B202F0F8FD20462B
:10658000AE21FFF751FF2046D521FFF74DFF2046F2
:106590008021FFF749FF2046A821FFF745FF20464D
:1065A0003F21FFF741FF2046D321FFF73DFF204663
:1065B0000021FFF739FF20464021FFF735FF8D21ED
:1065C0002046FFF731FF012D0CBF1021142120467A
:1065D000FFF72AFF20462021FFF726FF2046002153
:1065E000FFF722FF2046A121FFF71EFF2046C8210A
:1065F000FFF71AFF2046DA21FFF716FF2046122187
:10660000FFF712FF81212046FFF70EFF012D0CBF7F
:106610009F21CF212046FFF707FFD9212046FFF712
:1066200003FF012D0CBF2221F1212046FFF7FCFEC4
:106630002046DB21FFF7F8FE20464021FFF7F4FE5D
:106640002046A421FFF7F0FE2046A621FFF7ECFE2E
:106650002046AF21BDE83840FFF7E6BE2DE9F04106
:1066600021210446FFF7E0FE00212046FFF7DCFE73
:106670007F212046FFF7D8FE22212046FFF7D4FED7
:1066800000212046FFF7D0FE07212046FFF7CCFE71
:1066900094F91D30DFF8BC80013335D094F9210026
:1066A000012180B202F063FD94F91F00012180B244
:1066B00002F05DFD94F92100002180B202F057FD47
:1066C000012000F0CDFA002594F8223018F805607A
:1066D0002BB1FEF755FB314600F0AEFE05E0334628
:1066E0000122A17F607F02F085FD0135B5F5806F45
:1066F000EAD1012000F0B4FA94F92100012180B21E
:10670000BDE8F04102F033BD002502F0B3FD94F97D
:106710001B1002F070F802F0ADFD036840219B6889
:106720009847002602F0A6FDAF190368BFB29B6828
:1067300018F8071001369847102EF3D1103502F0E3
:1067400099FDADB202F05EF8B5F5806FDDD1BDE820
:10675000F08100BF88DC032000F0DAB92DE9F04FAA
:1067600085B01E46BDF93830BDF83CA015469A1AD2
:10677000002AB8BF52420092721A002AB8BF524291
:1067800001920C46009A01998A42814605DD324603
:106790001E46134622462C461546B44205DD2A46BF
:1067A0001D4613462246344616465A1B002AB8BFD9
:1067B0005242C4EB06089D42B4BF01234FF0FF33A1
:1067C0001FFA88F8029303920FFA88F7022297FBC8
:1067D000F2F7B4421FDC019A009B9342D9F80030D3
:1067E000C8BF2246D3F810B0C8BF29465346DCBF05
:1067F0002A4621464846D847039BFF1ABBB21FB220
:10680000002F05DA029A08EB030715442DB23FB2B8
:10681000013424B2DDE705B0BDE8F08F2DE9F34780
:10682000BDF82C600768BDF928A000960446FF69F2
:1068300091460D469846B847236800960AF1FF3204
:106840004A44DF6929464346204612B2B8472368C6
:1068500000969F694A46534629462046B847236812
:106860000A9608F1FF3129449D694A46534609B208
:106870002046AC4602B0BDE8F047604737B5013B63
:1068800013440468BDF8185001951BB20093646965
:106890000B46A04703B030BD37B5BDF818500468AB
:1068A0008DE82400013B0B4464691BB2A04703B090
:1068B00030BD2DE9F347BDF92880BDF82C90054681
:1068C00017460C4601EB030A54450BDA2B68CDF84A
:1068D00000909E69214643463A4628460134B04717
:1068E00024B2F1E702B0BDE8F08713B5B0F90E208D
:1068F0000468019100920022B0F90C30646A1146DC
:10690000A04702B010BD704730B501810024084D8A
:1069100042818181C2814FF6FF710122446005608E
:106920004476048244820276C1828182827630BDBE
:10693000C0CB0D002DE9F04F8FB005460691BDF894
:1069400060100791BDF864100891B0F90C1006981A
:106950009DF8688081427CDDB5F90E10914278DDAA
:10696000062111FB0800002873DD02EBC800002897
:106970006FDD03EB830396B20C9306F108039BB221
:10698000099100240D93052C1CBF334B0C9A0596DE
:1069900016BF1B194FF0000913F8029004961FFA56
:1069A00088F30393039ABDF8183004FB023213FAFC
:1069B00084F312B21BB20A9237460FFA88FA0B938D
:1069C00019F0010F11D0B8F1010F2B6803D1D3F8E2
:1069D00010B0079B14E0079A0192CDF800A0D3F8FD
:1069E00024B0BDF91020534618E0079B089A934243
:1069F00017D0B8F1010F2B6807D1D3F810B01346A8
:106A00003AB20B992846D8470BE0089A0192CDF884
:106A100000A0BDF91420D3F824B053460A992846A3
:106A2000D847049B039A13449BB20493059B1344D9
:106A30009BB2013705930D9BBFB29F424FEA5909A4
:106A4000BED1099B013B013413F0FF0364B20993EB
:106A500099D10FB0BDE8F08FF0CB0D0030B50A2909
:106A600085B004460B4604D1027E438A03EBC20381
:106A700023E00D2924D0057EB0F91220B0F91010C2
:106A80000295C58A0195858A0095FFF753FF227EFE
:106A9000238A91B201EB410003EB4003A07E1BB2BD
:106AA000238268B1B4F90C006FF0050505FB020202
:106AB000934205DD638A03EBC103638200232382D3
:106AC000012005B030BD018242827047002908BF15
:106AD000012101767047C18281827047407E7047F4
:106AE000B0F90C007047B0F90E00704700F010B814
:106AF00008B5024B1B689B68019308BD6802030040
:106B000008B5024B1B68DB68019308BD68020300EF
:106B100008B5024B1B681B68019308BD2C020300DB
:106B200008B5024B1B685B68019308BD2C0203008B
:106B300008B5024B1B689B68019308BD2C0203003B
:106B400008B5024B1B68DB68019308BD2C020300EB
:106B500008B5024B1B681B69019308BD2C0203009A
:106B600008B5024B1B685B69019308BD2C0203004A
:106B700008B5024B1B681B6B019308BD2C02030078
:106B800008B5024B1B68DB6C019308BD2C020300A7
:106B900008B5024B1B681B68019308BD3002030057
:106BA00008B5024B1B689B68019308BD30020300C7
:106BB00008B5024B1B68DB68019308BD3002030077
:106BC00008B5024B1B681B69019308BD3002030026
:106BD00008B5024B1B685B69019308BD30020300D6
:106BE00008B5024B1B68DB69019308BD3002030046
:106BF00008B5024B1B681B6A019308BD30020300F5
:106C000008B5024B1B685B6A019308BD30020300A4
:106C100008B5024B1B68DB6B019308BD3002030013
:106C200008B5024B1B681B6C019308BD30020300C2
:106C300008B5024B1B685B6C019308BD3002030072
:106C400008B5024B1B685B69019308BD6C02030029
:106C500008B5024B1B685B68019308BD180203006E
:106C600008B5024B1B68DB68019308BD18020300DE
:106C700008B5024B1B685B69019308BD180203004D
:106C800008B5024B1B68DB69019308BD18020300BD
:106C900008B5024B1B689B6D019308BD18020300E9
:106CA00008B5024B1B689B68019308BD48020300AE
:106CB00008B5024B1B681B69019308BD480203001D
:106CC00008B5024B1B685B69019308BD48020300CD
:106CD00008B5024B1B685B6C019308BD48020300BA
:106CE00008B5024B1B689B6C019308BD480203006A
:106CF00008B5024B1B685B69019308BD6402030081
:106D000008B5024B1B681B6A019308BD64020300AF
:106D100008B5024B1B689B6A019308BD640203001F
:106D200008B5024B1B681B68019308BD3C020300B9
:106D300008B5024B1B68DB68019308BD3C020300E9
:106D400008B5024B1B681B69019308BD3C02030098
:106D500008B5024B1B685B69019308BD3C02030048
:106D600008B5024B1B689B69019308BD3C020300F8
:106D700008B5024B1B68DB69019308BD3C020300A8
:106D800008B5024B1B681B6A019308BD3C02030057
:106D900008B5024B1B689B6A019308BD3C020300C7
:106DA00008B5024B1B68DB68019308BD280203008D
:106DB00008B5024B1B689B69019308BD28020300BC
:106DC00008B5024B1B68DB69019308BD280203006C
:106DD00008B5024B1B681B6A019308BD280203001B
:106DE00008B5024B1B685B6A019308BD28020300CB
:106DF00008B5024B1B689B6A019308BD280203007B
:106E000008B5024B1B68DB6A019308BD280203002A
:106E100008B5024B1B681B6B019308BD28020300D9
:106E200008B5024B1B685B6B019308BD2802030089
:106E300008B5024B1B681B6C019308BD28020300B8
:106E400008B5024B1B681B6D019308BD28020300A7
:106E500008B5024B1B689B69019308BD380203000B
:106E600008B5024B1B68DB69019308BD38020300BB
:106E700008B5024B1B681B6A019308BD380203006A
:106E800008B5024B1B689B6A019308BD38020300DA
:106E900008B5024B1B681B6B019308BD3802030049
:106EA00008B5024B1B689B6B019308BD38020300B9
:106EB00008B5024B1B681B68019308BD4C02030018
:106EC00008B5024B1B685B68019308BD4C020300C8
:106ED00008B5024B1B681B69019308BD4C020300F7
:106EE00008B5024B1B685B69019308BD4C020300A7
:106EF00008B5024B1B689B69019308BD4C02030057
:106F000008B5024B1B68DB69019308BD4C02030006
:106F100008B5024B1B681B6A019308BD4C020300B5
:106F200008B5024B1B685B6B019308BD6002030050
:106F300008B5024B1B681B6D019308BD600203007E
:106F400008B5024B1B681B68019308BD20020300B3
:106F500008B5024B1B685B68019308BD2002030063
:106F600008B5024B1B685B69019308BD2002030052
:106F700008B5024B1B68DB6C019308BD20020300BF
:106F800008B5024B1B685B6D019308BD200203002E
:106F900008B5024B1B689B6D019308BD20020300DE
:106FA00008B5034B1B68D3F88830019308BD000077
:106FB0002002030008B5034B1B68D3F894300193FB
:106FC00008BD00002002030008B5024B1B685B6887
:106FD000019308BD4002030008B5024B1B689B6883
:106FE000019308BD4002030008B5024B1B68DB6833
:106FF000019308BD4002030008B5024B1B681B69E2
:10700000019308BD4002030008B5024B1B685B6991
:10701000019308BD4002030008B5024B1B689B6941
:10702000019308BD4002030008B5024B1B68DB69F1
:10703000019308BD4002030008B5024B1B681B6AA0
:10704000019308BD4002030008B5024B1B681B6B8F
:10705000019308BD4002030008B5024B1B685B6B3F
:10706000019308BD4002030008B5024B1B681B6872
:10707000019308BD4402030008B5024B1B689B68DE
:10708000019308BD4402030008B5024B1B685B690D
:10709000019308BD4402030008B5024B1B681B6A3C
:1070A000019308BD4402030008B5024B1B68DB6A6C
:1070B000019308BD4402030008B5024B1B681B6B1B
:1070C000019308BD4402030008B5024B1B68DB6B4B
:1070D000019308BD4402030008B5024B1B681B68FE
:1070E000019308BD1C02030008B5024B1B685B68D6
:1070F000019308BD1C02030008B5024B1B689B6886
:10710000019308BD1C02030008B5024B1B68DB6835
:10711000019308BD1C02030008B5024B1B681B69E4
:10712000019308BD1C02030008B5024B1B689B6954
:10713000019308BD1C02030008B5024B1B685B6A83
:10714000019308BD1C02030008B5024B1B68DB6AF3
:10715000019308BD1C02030008B5024B1B681B6BA2
:10716000019308BD1C02030008B5024B1B68DB6BD2
:10717000019308BD1C020300002211464068FFF77E
:107180005BBF002211464068FFF766BF00224068DF
:10719000FFF75ABF002281F001014068FFF744BFAA
:1071A00000231A4619464068FFF736BF00231A46E7
:1071B00019464068FFF728BF002211464068FFF7D4
:1071C0001BBF002211464068FFF706BF00220221C4
:1071D0004068FFF709BF00231A464068FFF7F4BE76
:1071E000024B03225A60024A1A607047B0E3032040
:1071F000F4D00D000021FFF713BD0021FFF718BDEB
:1072000010B5044601700846FFF7EAFC00236360EE
:10721000204610BD10B504460078FFF7EBFF48B9D3
:1072200020784FF6FF71FFF7B3FC2078BDE81040DF
:10723000FFF7E3BF10BD38B5044600780D46FFF7F1
:10724000D9FF40B920782946FFF7AAFC2078BDE88D
:107250003840FFF7D2BF38BD38B5044600780D4638
:10726000FFF7C8FF40B920782946FFF7A1FC207836
:10727000BDE83840FFF7C1BF38BD0078FFF7BDBF9C
:10728000400830B51860002418688842E5B206D975
:107290000134082C02D040081860F5E70725024B9E
:1072A0005B5D137030BD00BF20D10D002DE9F043B0
:1072B00007468FB000780E46FFF79CFF002862DB80
:1072C0003C781422002109A804F02CFC0B23204652
:1072D000002209A9ADF82430FFF792FC9DF82D405B
:1072E00054B19DF82C5035B9DDF830809DF83490BC
:1072F0009DF8354003E00024A146A04601253379DE
:1073000005B1BBB99D420BD1B268424508D18DF899
:1073100020908DF82140BDF82010B289914209D00B
:1073200053B1002438780194009423462246012169
:10733000FFF76EFC002026E08DF80F30B1680A9848
:1073400004AB0DF10F02FFF79BFF317905B1B1B925
:10735000A94208D0002438780194747B337B9DF8CF
:107360000F200094E4E7B3684345F3D38DF82090F1
:107370008DF82140BDF82020B3899A42EAD1049BC0
:107380004345E7D1D6E70FB0BDE8F0832DE9F041E2
:1073900088B000230446007802930E461746FFF794
:1073A00029FF054600BB94F800800146142203A87B
:1073B00004F0B8FB0B232A4603A94046ADF80C3075
:1073C000FFF71EFC02AB0DF1070207FB06F1049864
:1073D0008DF80750FFF754FF20789DF80710FFF74E
:1073E000EFFB2078FFF709FF029808B0BDE8F081B5
:1073F00038B5044600780D46FFF7FCFEC8B9616851
:1074000071B10C4BC25CAA4202D001300828F9D1FC
:107410000130C0B2C14001222046FFF7B7FF03E0B0
:1074200029462078FFF7CCFB2078BDE83840FFF7ED
:10743000E4BE38BD20D10D0008B50078FFF7C8FBC9
:10744000C0B208BD0078FFF7D3BB10B50446006892
:1074500018B1FFF749FE0023236010BD10B50446A4
:10746000FFF7F3FF204610BD10B5094C00204FF682
:10747000FF732060A080A07120816381FFF768FD09
:107480002046044A0449BDE8104001F019BF00BF7E
:10749000B8E3032048E103205D740D0010B50446F5
:1074A00004F09DFB013823182046984206D202784A
:1074B000197800F8011B03F80129F6E710BD2DE942
:1074C000F041931E232B15468CB034BF15460A2578
:1074D00000230A2D0C468DF82C3007D1984205DA8E
:1074E0002D2301F101080B70404201E0B0B1A0462C
:1074F0000DF12B0601272A46014601A804F0D8FA0F
:10750000029B0198092BCCBF3722302252FA83F319
:1075100006F8013901370028EDD106E030238DF857
:107520002B30A0460DF12A0602273A46711C404630
:1075300004F0D2FA20460CB0BDE8F08170B50C46DC
:10754000911E222920D82546294610B923443022ED
:107550000EE0B0FBF2F602FB1600C1B205F8011B0B
:10756000092894BF3031573105F8011C3046EBE74C
:10757000994202D201F8012BFAE7002320460B7052
:10758000FFF78CFF204670BD002070BD38B5031E8C
:107590000C4615460BDAB3F1004F4FF02D0214BF25
:1075A0005842184601230A702A46194400E0012374
:1075B000FFF7C4FF204638BD2DE9F14F59EC108B81
:1075C00007460E460022002310EE100A494603F03B
:1075D00045FD28B109F1004399462D23337001364A
:1075E000002301240A22D9B28F4202D95443013325
:1075F000F9E7204603F05AFA42464B4603F0BCFA3C
:1076000082468B4603F076FF8046894603F07EFA79
:1076100002460B465046594603F0FAF80022174B33
:1076200003F030FD18B118F1010849F10009E51720
:1076300022462B464046494603F044FF01230A22D6
:107640003146FFF77BFFAFB1304604F0C8FA2E2376
:1076500033540130064422462B464046494603F047
:1076600031FF3B46104631460A2201B0BDE8F04FDB
:10767000FFF764BF01B0BDE8F08F00BF0000E03F3E
:1076800010B504460068FFF72FFD204610BD10B569
:107690000446006808B1FFF727FD00232360A360BC
:1076A000636010BD38B504460D4600680131FFF730
:1076B00023FD10B184E82100012038BD10B5036816
:1076C000044613B143688B4207D22046FFF7EAFF16
:1076D00020B1A3680BB922681370012010BD70B5EA
:1076E0000E46114604461546FFF7E8FF18B9204636
:1076F000FFF7CDFF09E02A463146A560206804F077
:10770000EBF92268A3680021D154204670BD38B53A
:107710000023044603604360836003730D4639B160
:10772000084604F05CFA294602462046FFF7D7FFD8
:10773000204638BD38B5054600680C4660B16A6819
:107740008B689A4206D3096804F026FAA368AB60F6
:1077500000230AE0FFF7C8FC23682B6063686B60B6
:10776000A368AB60002323606360A36038BD8842D8
:1077700010B5044601D0FFF7DDFF204610BD38B537
:1077800005460C4641B1084604F029FA2146024656
:107790002846FFF7A4FF01E0FFF779FF284638BD30
:1077A00010B5044600238AB023606360A36023738E
:1077B000084601A9FFF7EAFE01A92046FFF7DFFF0F
:1077C00020460AB010BD10B500238AB004460360FD
:1077D000436083600373C8B201A9FFF7EDFE01A9FE
:1077E0002046FFF7CCFF20460AB010BD70B50E460C
:1077F0009AB191B185689D4202D800230B7070BD8B
:10780000541EED1A0168AC4228BF2C46194422468A
:10781000304604F026FA0023335570BDF8B59A427D
:107820000F461D460C4988BF13461446064684BFC2
:107830002C461D46FFF76BFFBA6894420AD8396898
:10784000954294BFC4EB0502C4EB020221443046CA
:10785000FFF745FF3046F8BD49C90D0010B5044695
:10786000006808B1FFF73CFA204610BD0B680360C2
:1078700013B15A6801325A607047000010B5064CC7
:10788000002320462360FFF723FA2046034A0449D9
:10789000BDE8104001F014BDC4E3032048E103201B
:1078A0005D780D00F8B506460D468F180024BD42E0
:1078B0000CD0336815F8011B9B68304698470028A8
:1078C00001DB0444F3E7002C08BF04462046F8BD62
:1078D00070B505460C46084649B104F080F92B689E
:1078E000024621462846DB68BDE87040184770BD57
:1078F00008B5FFF7EDFF08BD03689B68184738B56A
:107900000D210546FFF7F8FF0A2104462846FFF738
:10791000F3FF204438BD38B50546FFF7D9FF0446CC
:107920002846FFF7ECFF204438BDFFF7F4BF30B521
:107930008BB00B4600218DF82410012A98BF0A2233
:107940000DF12304B3FBF2F505FB123303F0FF0343
:10795000092B94BF30333733DBB2214604F80139A9
:107960002B46002DEED1FFF7B3FF0BB030BD00006A
:107970002DE9F04757EC106B82460D4610EE102AA9
:107980003B4610EE100A394603F090FB08B14E4911
:1079900012E027F000494FF0FF324C4B3046494689
:1079A00003F084FB68B94FF0FF32484B304649463C
:1079B00003F05EFB28B946495046FFF789FFBDE852
:1079C000F0874FF06042434B3046394603F064FB8A
:1079D00008B14149F0E74FF06042404B304639462C
:1079E00003F03CFB0028F4D1002200233046394646
:1079F00003F034FB40B12D215046FFF77DFF07F126
:107A0000004304461F4600E0044635494FF0000895
:107A100000205FFA88F39D4206D90022314B03F023
:107A2000D5F908F10108F4E732463B4602F0F2FED0
:107A30000F46064603F078FB0A2201468046504670
:107A4000FFF775FF0444E5B3404603F01FF8024614
:107A50000B463046394602F0DBFE06460F465046DE
:107A60002149FFF735FF044400221E4B30463946BA
:107A700003F082F806460F4603F02EFBB0F1000932
:107A800007DA2D215046FFF737FFC9F10001804684
:107A900002E049464FF000080A225046FFF747FF30
:107AA00040440444484603F001F802460B46304681
:107AB000394602F0ADFE013D15F0FF0506460F46C2
:107AC000D2D12046BDE8F08728D10D00FFFFEF7F1F
:107AD00030D10D00FFFFEF412CD10D00FFFFEFC1B2
:107AE0000000E03F00002440C9CA0D0038B504463C
:107AF00010EE100ACDB202F0EBFF41EC100B29465C
:107B00002046BDE83840FFF733BF38B5C9B2054657
:107B1000FFF72EFF04462846FFF7F1FE204438BD4C
:107B200038B5044610EE100A0D4602F0D1FF41ECC4
:107B3000100B29462046BDE83840FFF7E6BF0CB4DD
:107B40002DE9F04387B000AF07F13804054654F83B
:107B5000049B3C600E4623464A461421381DFFF71D
:107B6000EBFA132805D8391D2846FFF7B1FE044665
:107B700013E000F1080323F00703E846ADEB030D23
:107B8000411C23464A4668463C60FFF7D5FA6946E1
:107B90002846FFF79DFE0446C5461EB12846FFF75E
:107BA000AEFE044420461C37BD46BDE8F04302B09B
:107BB00070470000014B024A1A607047C8E3032077
:107BC000A7D10D0008B50020FFF776FA28B1FFF71E
:107BD0005BFA80F00100C0B208BD012008BD0000C2
:107BE000FAEE087AB4EEE70AF1EE10FA0FD4F2EEEC
:107BF0000C7AB4EEE70AF1EE10FA08DCDFED047A55
:107C0000044B20EE270ABDEEC00A83ED000A704740
:107C100000006145D4E3032037B50E4B1B681944BF
:107C20000D4B1B68044602A8194440F8041D03F0DC
:107C300047FE03F0F7FD054603F0D1FF284400237B
:107C400000F8013C29462046FFF761FD204603B0BD
:107C500030BD00BFD4E30320D0E3032010B50020E3
:107C6000FFF716F8044668B9FFF76AF901280BD147
:107C70002046FFF78DF938B9FFF7A4FF30B9FFF7B9
:107C8000FBF9F9E7012010BD002010BDFFF79AFFB6
:107C90000020FEF7FDFF003018BF012010BD08B521
:107CA000FFF7DCFFBDE80840FEF7EABF024B1A68A9
:107CB000024B1A60704700BF88E00320CCE303202A
:107CC0000021FFF74DB910B58368044613B10322B4
:107CD00001469847204610BD10B50446FFF7F3FF54
:107CE000204610BD13B50B46044603C88DE80300BB
:107CF00093E8030084E803009DE8030083E80300A1
:107D000002B010BD0348044A04490023836001F017
:107D1000D7BA00BFD8E3032048E10320D97C0D0087
:107D200008B50C4B33B100F031FC03681B69984770
:107D3000002809DC084B63B100F0AAFC03681B694A
:107D40009847002803DC08BDAFF30080F2E7AFF3EB
:107D5000008008BD000000000000000008B5FFF72B
:107D6000DFFFFEF785FF014B186008BD0CE703201D
:107D70000248034A0349121A03F0AEBE00F403207E
:107D800004F40320D8D60D0007B5002300931A464B
:107D90006FF07701FFF70EF903B05DF804FB000008
:107DA00007B543880A2B08D0502B09D1094B1B6813
:107DB0003BB103B05DF804EB1847FFF7E5FF06E0C1
:107DC000002300931A466FF07701FFF7F3F803B032
:107DD0005DF804FBE8E3032038B5104C104D236830
:107DE000AB42104B0CBF012200221A7002D0FFF7E9
:107DF000BFFF2560FEF72CFF044603F09BFE0A4BF5
:107E000013B12046AFF3008000210748FFF75CF96B
:107E100000210648BDE83840FFF7C2B800F403204F
:107E20001E1C279AECE3032000000000A17D0D003A
:107E300070470020704710B51021044601F04EFA3B
:107E4000204610BD08B508B1FFF7F5FF08BD0022B8
:107E5000026010B54FF69C728280B1F904408480B4
:107E60008A8002680C6804600A6010BD10B5044680
:107E70000068FFF739F9204610BD38B5C468F4B181
:107E80002378022B03D104F10C00FFF7EFFF6568A4
:107E900035B12846FFF717FF1021284601F01EFADA
:107EA000A56835B12846FFF70EFF1021284601F0DE
:107EB00015FA20461421BDE8384001F00FBA38BD4C
:107EC00013B5044691E8050000234B600B60206069
:107ED000626001A801930093FCF79AFB204602B070
:107EE00010BDF7B50C4602AD54F8043B45F8083D0B
:107EF00006460F4601A82146FFF7B8FC2946304642
:107F0000FFF7DEFF01A8FCF783FB2046FCF780FBB0
:107F10003846082101F0E2F9304603B0F0BD000018
:107F200038B500230446036010200D46FCF7B5F871
:107F300028B1012343608360024B0360C560206069
:107F4000204638BD38D20D00826810B50AB901F05C
:107F5000D8F9C368BDE81040184708B5006800F1BB
:107F60001001FFF7F1FF08BD826810B50AB901F0F2
:107F7000C8F9C368BDE81040184708B5006800F1AB
:107F80001001FFF7F1FF08BD38B5002383608B684F
:107F900004460D462BB102229847EB68E360AB68BC
:107FA000A360204638BD0000F0B589B0046868467B
:107FB000FFF74DFF00238DF808304FF00202D4E8A0
:107FC0004F3F002B03D1C4E8412F0029F7D102D045
:107FD0008DF8083063E014F10C0503D0694628469B
:107FE000FFF735FFBFF35F8F01236370002004F1BB
:107FF0000803BFF35F8F53E8006F43E80002002AD5
:10800000F9D1BFF35F8F002E49D0FEF7B1FF20B149
:1080100029463046FFF798FF3AE0314602A8FFF7BD
:10802000B3FFE068B4F9105008B103F0BDFD06904D
:108030001020ADF81C50FCF730F80546E8B10027D9
:1080400087601820FCF729F8044688B1014687604C
:1080500002A8FFF747FE049BA268A360059B049259
:1080600006A9E268E36004F110000592FFF7EFFE55
:108070000D4BEB600D4B2C60AB6006A8FFF7F6FED6
:1080800002A8FFF720FE002229460948FEF778FFE4
:108090003046FFF718FE1021304601F01FF9684600
:1080A000FFF7E4FE09B0F0BD5B7F0D00D1810D004C
:1080B000DD860D002DE9F04F8BB006460F46904649
:1080C00099469DF850A0FEF7DFFF07AD834630BB11
:1080D0004FF62E73059005A92846ADF81830FFF726
:1080E000B6FE1420FBF7D9FF044658B102230370F3
:1080F00001234370C0F804B0C0F808B029460C3022
:10810000FFF7A5FE3046214640F8044BFFF708FF75
:108110002846FFF7ABFE05A8FFF7A8FE52E00024B3
:108120000C2314206C60AC600793FBF7B6FF01468C
:1081300018B1047044704460846004A80391FFF790
:10814000EFFE224B08930820FBF7A7FF044628B157
:10815000039B40F8043B04A9FFF788FB00955FFAF6
:108160008AF34A46414638460994FEF795FF20B9FE
:10817000039B5B7803F0FF0283B1039B059304A983
:1081800006A8FFF773FB05A93046FFF799FE06A87E
:10819000FCF73EFA04A8FCF73BFA13E04FF69C7399
:1081A00005A903A80592ADF81830FFF7FDFE05A854
:1081B000FFF75CFE05A80999FFF793FE06A8FCF7F8
:1081C00027FADAE730460BB0BDE8F08F41830D00A7
:1081D000022AF8B5044606D0032A17D0012A22D174
:1081E0000B6803601FE018200E68FBF756FF05467A
:1081F00050B13146FFF7C8FE3069B6F9147008B1C6
:1082000003F0D2FC2861AF8225600CE0046854B111
:1082100004F11000FFF72AFE2046FFF754FD182155
:10822000204601F05BF80020F8BD38B500238360DC
:108230008B6804460D462BB102229847EB68E36039
:10824000AB68A360204638BD022A70B5044606D04C
:10825000032A11D0012A18D10B68036015E01420FD
:108260000E68FBF71AFF054620B13146FFF7DDFF28
:10827000337C2B74256008E0046834B12046FFF796
:1082800022FD1421204601F029F8002070BD0000D5
:10829000F0B5002387B00C46BFF35F8F50E8006F46
:1082A00040E80032002AF9D1BFF35F8F002E3FD0A3
:1082B0001846FEF75DFE074620B121463046FFF71F
:1082C00053FE2EE0314601A8FFF7AFFF23788DF86B
:1082D00014301020FBF7E1FE0546D0B18760142072
:1082E000FBF7DBFE044678B18760014601A8FFF783
:1082F000F9FC039BA268A360049B0392E268E3601D
:108300009DF81430049223740A4BEB600A4B2C60E6
:10831000AB6001A8FFF7D7FC002229460748FEF70B
:108320002FFE3046FFF7CFFC1021304600F0D6FF7D
:1083300007B0F0BD7B7F0D0049820D00DD860D008A
:1083400030B585B004460D4668461146FFF7C9FDB5
:108350007CB124B228460DB103F026FC029002A99C
:108360006846ADF80C40FFF71FFE02A8FFF77EFD40
:108370001DE000988DF808404FF00102D0E84F3F13
:10838000A34203D1C0E8412F0029F7D102D08DF8D4
:1083900008300CE010F10C014FF0010318BF03731B
:1083A000BFF35F8F043000F8033CFFF771FF01A8B3
:1083B000FCF72EF905B030BD704710B51821044602
:1083C00000F08CFF204610BDF0B5037D062B8DB06C
:1083D0000E4600F104074FF0000402D000F108053A
:1083E00018E00CAD394605F8304D2F232A460A20F7
:1083F000FEF77EFC284603F0F2FB33680246DB689A
:108400002946304698470FE024B12E213046FFF729
:1084100073FA044415F8011D0A223046FFF787FA63
:10842000BD420444F0D120460DB0F0BD10B5054B5F
:108430000446112240F8043B002103F073FB204660
:1084400010BD00BF54D20D000346074A10B543F8D3
:10845000042B01F1100251F8044B43F8044B9142F4
:10846000F9D10A781A7010BD54D20D00037D042B87
:1084700001D1406808E0062B0AD1436853B98368EC
:1084800043B9C36833B90069003018BF0120704791
:10849000002070470120704710B59DF8084044EA5D
:1084A000032343EA024242EA016104234160037567
:1084B00010BD37B50D788B784A78C9780091294678
:1084C000FFF7EAFF03B030BD41747047704708B54D
:1084D0000021007CFEF70CFD30EA200028BF4FF0A1
:1084E000FF3008BD08B50121007CFEF701FD30EA30
:1084F000200028BF4FF0FF3008BD08B5007CFEF714
:10850000EFFC20EAE07008BD08B5007CFEF7E0FC57
:1085100020EAE07008BD007CFEF7FABC10B514211B
:10852000044600F0DBFE204610BD38B50446007C52
:108530000D46FEF7D5FC002801DC607C28B12946F9
:10854000207CFEF7DDFC20EAE07038BD10B5044663
:10855000002363604FF47A73A360054B236001230B
:108560000846217463741146FEF7A2FC204610BD34
:1085700068D20D000022007CFEF7A2BC10B51422C8
:108580000446002103F0CEFA204610BD30B50E4D52
:1085900087B001A8FFF7F2FF296811F0010410D19C
:1085A0002846FBF78BFD60B101AA21460748FFF77B
:1085B000CDFF2846FBF787FD054A0649034800F032
:1085C0007FFE024807B030BDF0E30320F4E3032050
:1085D00048E10320CD840D0070474174704708B511
:1085E000007CFEF7D5FB20EAE07008BD08B5007CF2
:1085F000FEF7A6FB20EAE07008BD08B5007CFEF798
:10860000AFFB30EA200028BF4FF0FF3008BD08B5AF
:10861000007CFEF79DFB30EA200028BF4FF0FF30C2
:1086200008BD007CFEF7A4BB10B51421044600F081
:1086300055FE204610BD70B5457C04460E4625B952
:10864000007CFEF7A5FB002805DD3146207CBDE857
:108650007040FEF76DBB284670BD000010B50446A3
:1086600008461146002262604FF47A72A260054A01
:1086700022600122207462741A46FEF751FB2046E4
:1086800010BD00BF98D20D00007CFEF779BB000042
:1086900038B50C4D296811F0010411D12846FBF7BB
:1086A0000DFD68B1084A094B09482146FFF7D6FF7E
:1086B0002846FBF708FD074A0749054800F000FE79
:1086C000034838BDA0E40320A4E403201CE40320F5
:1086D00008E4032048E10320D9850D0010B5836824
:1086E00004460BB900F00DFEC3689847A3681BB1A0
:1086F000032221462046984720461021BDE810401D
:1087000000F0ECBD7047F8B5064615460C468F18CC
:10871000BC4206D0336814F8011B9B68304698476A
:10872000F6E72846F8BD0022007CFEF751BB002189
:10873000007CFEF755BB0021007CFEF759BB0021F1
:10874000007CFEF75DBB0021007CFEF761BB10B52D
:108750001421044600F0C2FD204610BD10B50446A9
:10876000002363604FF47A73A360044B21740846BE
:1087700023601146FEF75CFB204610BDC8D20D00F9
:1087800000231A461946007CFEF70ABB70B50C465A
:1087900086B0142506462A46002101A803F0C2F936
:1087A00023788DF8083063680393E368049300220C
:1087B000237A307CADF8045001A90593FEF740FB05
:1087C00006B070BD1FB500338DF800104FF0640186
:1087D000039118BF0123694601928DF80830FFF715
:1087E000D5FF05B05DF804FB0123FFF7EBBF0022C6
:1087F000007CFEF7DDBAC9B2FFF7F9BF0022007CAA
:10880000FEF7DEBA0121FFF7F9BF0021007CFEF779
:1088100007BB002211464068FEF70EBC002211463D
:108820004068FEF719BC00224068FEF70DBC00222C
:1088300081F001014068FEF7F7BB00231A460121D1
:108840004068FEF7E9BB00231A4619464068FEF768
:10885000DBBB002211464068FEF7CEBB002211466A
:108860004068FEF7B9BB002202214068FEF7BCBB9E
:1088700000231A464068FEF7A7BB38B5054688B105
:1088800004684CB1A3681BB10322214620469847D7
:108890001021204600F022FD28461421BDE8384072
:1088A00000F01CBD38BD10B103685B681847704705
:1088B00010B503680446BBB15868FEF7F1F978B902
:1088C00023685A7C12B95868FEF7F2F92368586891
:1088D000FEF7F6F920680023236028B1FFF7CDFFEB
:1088E000206808B1FFF7C9FF204610BD38B504461F
:1088F000D0F8C40108B1FBF7D4FBD4F8C00108B12B
:10890000FEF7EEF9D4F8BC5135B12846FFF7D0FF99
:108910000421284600F0E2FC206808B1FFF7C3FFFD
:10892000204638BD10B5044B044640F8083BFFF71D
:10893000DDFF204610BD00BFF0D20D0038B50E4C53
:108940000E4B23600025022304F5E4706360A560EC
:10895000C4F8C451C4F8C851FEF7BAF9084BC4F8BA
:10896000CC5184F8D05123602046064A0649BDE820
:10897000384000F0A5BC00BF28E50320D8D30D0087
:10898000F0D20D0048E1032025890D0037B502AC77
:10899000036804F8011DDD6B01224FF0FF3321460F
:1089A000A84703B030BD10B40368DC6B4FF0FF3351
:1089B000A4465DF8044B604737B502AC036804F881
:1089C000011DDD6B214613460122A84703B030BDCF
:1089D000704738B543691A68002A044605DAB3F8C7
:1089E0008620B3F884309A4201D001250BE0036859
:1089F0001B699847002814BF0125002503D123686F
:108A00002046DB6A9847284638BD43691868C0434A
:108A1000C00F704770470020704710B514210446FE
:108A200000F05CFC204610BDFBF739BB7FB5164655
:108A300000224260029203925A1C04460D4608D05E
:108A40004FF47A72B3FBF2F1029102FB11314A4307
:108A5000039260690823009341F205026B4440F6DB
:108A6000FF710068FEF7F4F9002808DB6069002355
:108A7000324629460068FEF70BFA002804DAFEF7B2
:108A800073FB03686360002004B070BD10B5036819
:108A900004469B689847A368013BA3602BB92368F1
:108AA0002046DB68BDE81040184710BD70B504468D
:108AB0004D69054B44F8043B8C3506460FCD0FC479
:108AC0002B682370304670BD54D20D0010B5436939
:108AD000B3F88620B3F884309A42044605D0626920
:108AE000B2F884301344187910BD03681B699847A5
:108AF0000028F4D14FF0FF3010BD10B54369B3F832
:108B00008620B3F884309A42044608D06269B2F8ED
:108B10008430591C1344A2F88410187910BD0368DE
:108B20001B6998470028F1D14FF0FF3010BDF8B510
:108B300043691746B3F88620B3F884309A42054655
:108B40000E4606D103681B69984710B94FF0FF34F1
:108B500014E06969B1F88430B1F88640E41ABC4287
:108B600028BF3C46194422460431304602F0B4FF87
:108B70006A69B2F884302344A2F884302046F8BDF4
:108B80002DE9F0439846036893B0DB6A0D4606462C
:108B90001746984712AB002443F8484D2246214619
:108BA0002846FDF7ADFF814600283DD1009B002BF4
:108BB00056D05B69002B53D006A8FFF737FC009B0B
:108BC0005C696378022B01D1211D13E00A2B14D1BB
:108BD0001122494601A802F0A5FFA36833BBE36850
:108BE00023BB4FF6FF702569FEF78AF885421DD139
:108BF00004F1140106A8FFF75CFC06A8FFF736FC99
:108C000000282DD0336807ADD3F82090184B0C9373
:108C10000FCD0DAC0FC42B6823703A4643460CA908
:108C20003046C84781461BE0A14619E004F108031D
:108C300001AD1834186859682A4603C20833A342A4
:108C40001546F7D1062301A90CA80DAD8DF81430F7
:108C5000FFF7FAFB0FCD07AC0FC42B682370CCE7EE
:108C60000098FDF745FF484613B0BDE8F08300BF0C
:108C700054D20D0042690023A2F884304269A2F860
:108C8000863070472DE9F0411E4603680C468AB0D5
:108C9000DB6A054617469847237DD5F81480042BD8
:108CA0000CBF02200A2006220121FEF7F9F8C8F8BD
:108CB00000006B691B68002B18DB2846FFF7DAFF02
:108CC000D6B1002303A9F0B20393ADF81030FDF73D
:108CD000B7FF58B968690623009341F20B0203AB52
:108CE00040F6FF710068FEF7B3F828B12B682846FC
:108CF000DB6A002498473BE01C263246002103A88B
:108D000002F010FF237D8DF80C60042B0CD10223A0
:108D100038468DF80D30FDF7FBFFADF80E006068AA
:108D2000FDF7EEFF049013E00A2338468DF80D306E
:108D3000FDF7EEFF05AEADF80E00231D04F114079C
:108D400018685968324603C20833BB421646F7D149
:108D50006B691C2203A91868FEF78AF80028C5D1A0
:108D600004340FCC6D698C350FC523682B7001243A
:108D700020460AB0BDE8F08110B543690446186882
:108D8000002801DBFEF76CF863694FF0FF321A60D0
:108D90006069112200218C3002F0C4FE2046BDE83B
:108DA0001040FFF767BF000030B54269B2F8863067
:108DB0008BB004461BB1B2F884209A4240D063695C
:108DC000186800283FDBB3F886507F2D3BD8191D6B
:108DD000C5F1800208232944FEF752F800280CDD73
:108DE0006369B3F886200AB9A3F884206269B2F8EF
:108DF00086301844A2F8860025E0FEF7B5F903682E
:108E00000B2B20D0FEF7B0F903680B2B1BD02023CF
:108E1000002502930395FEF7A7F9036801930E4B13
:108E2000009302AA2B460D493220FEF781F86369B0
:108E30001868FEF715F863694FF0FF321A6002E018
:108E4000FFF718FFBBE76269B2F88630B2F884001A
:108E5000181A0BB030BD00BF8BD30D0084D30D00AA
:108E600010B5002304460160A0F88430A0F88630D5
:108E70008830FFF7DBFA204610BD00004FF47A720D
:108E800070B500238260144A4360026043618361CD
:108E90000446A0200E46FBF700F9054610B1314606
:108EA000FFF7DEFF1420FBF7F8F8034628B1012294
:108EB00042608260094A02600561A0696561A36140
:108EC00028B14368013B43600BB9FFF7DFFD204643
:108ED000FFF7D0FE204670BD40D30D0024D30D0017
:108EE00010B54FF0FF310446FFF7C8FF204610BD14
:108EF00010B504460068002801DBFDF7B1FF2046ED
:108F000010BD10B504692046FFF7F2FF24B12046DA
:108F1000BDE81040FBF7C3B810BD00221146406801
:108F2000FEF76AB8002211464068FEF785B80022B5
:108F300011464068FEF790B800224068FEF784B8FA
:108F4000002281F001014068FEF76EB800231A4646
:108F500019464068FEF760B800231A461946406873
:108F6000FEF752B8002211464068FEF735B80022DD
:108F700002214068FEF738B800231A464068FEF721
:108F800023B80000024B04225A60024A1A6070475C
:108F9000FCE60320A4D30D0000231A464068FEF728
:108FA00013B8002202214068FEF71EB800221146C5
:108FB0004068FEF711B8002211464068FEF71CB861
:108FC00000231A4619464068FEF71EB800231A46C9
:108FD00019464068FEF720B8002281F00101406880
:108FE000FEF722B800224068FEF72EB80022114694
:108FF0004068FEF731B8002211464068FEF71CB801
:109000002DE9F043002495B016460D460746FFF7BC
:109010000DFA214620220CA8009402F083FD402383
:109020000C9321466B460CAA3046FDF769FD0446B9
:10903000002844D1024601216868FDF7DDFF0221C6
:10904000804622466868FDF7D7FF009E814621468C
:10905000002E34D0002932D17368022B02D00A2BA3
:1090600009D02AE0B8F1000F27D0716938460431E1
:10907000FFF71FFA20E0B9F1000F1ED0746911222A
:1090800001A802F04FFD06238DF8143001AD04F164
:1090900008031834186859682A4603C20833A342E3
:1090A0001546F7D101A906A807ADFFF7CDF90FCDF9
:1090B0003C1D0FC42B6823700121F669C8E7009896
:1090C000FDF716FD384615B0BDE8F083024B034AA4
:1090D0001A6000225A60704704E70320D8D30D00BD
:1090E00070B5184E316811F0010504460AD13046BA
:1090F000FAF7E4FF30B129461348FEF781F830460D
:10910000FAF7E1FF1048FEF79DF928B1A4F10B032F
:10911000022B01D8002070BD00F0ACF8FFF775FB02
:1091200008B1012CF6D9FFF7B3FAFFF7ADFA18B181
:10913000A4F10903012BEDD9232C8CBF00200120C1
:1091400070BD00BFA4E30320A8E30320232838B5A3
:1091500004460D460AD8FF2908D0FFF7C1FF28B101
:1091600029462046BDE83840FDF7E2BC38BD38B599
:1091700004460D46FDF7E4FCFF2810D0062804D86D
:109180004D2323FA00F0C30709D42046FFF7A8FFB8
:1091900028B129462046BDE83840FDF7D9BC38BD86
:1091A00010B50446FDF7CCFC0438C0B2012808D93C
:1091B0002046FFF795FF20B12046BDE81040FDF79F
:1091C000CFBC002010BD0D2810B504469CBF0E3446
:1091D000A4B22046FFF784FF50B103212046FDF7DB
:1091E0009FFC032804D12046BDE81040FDF7C0BC19
:1091F000002010BD2DE9F04190461E460724074689
:109200000D46B8F1000F04D1C4F1070146FA01F18F
:1092100001E046FA04F101F001013846FFF7A7FF2B
:1092200001212846FFF7A3FF00212846FFF79FFFF3
:1092300014F1FF34E5D2BDE8F081FDF7A1BC0000D8
:1092400070B5044614252A46094E002102F06AFC36
:10925000258020253146A5602561284600F040F88C
:1092600031466060284600F03BF8E060204670BD63
:1092700004D40D0030B50E4D296811F0010487B0FB
:1092800013D12846FAF71AFF78B101A8FFF7D8FFE3
:1092900001AA21460748FFF761FA2846FAF713FFAB
:1092A000054A0649034800F00BF8024807B030BDF4
:1092B00010E7032014E7032048E1032005870D0091
:1092C0000B460146184602F0EDBA0000024B186842
:1092D000BFF35F8F704700BF28E70320FAF7DFBEB8
:1092E00000F000B810B5002814BF04460124204641
:1092F000FDF7F2FE20B9FFF7E9FF08B18047F6E776
:1093000010BD08B5FDF720FF184B1A68D1075CBFE8
:1093100001221A60164B1A68D2075CBF01221A603C
:10932000144B1A68D0075CBF01221A60124B1A68EE
:10933000D1075CBF01221A60104B1A68D2075CBFCC
:1093400001221A600E4B1A68D0075CBF01221A6016
:109350000C4B1A68D1075CBF01221A600A4B1A68CD
:10936000D2075CBF01221A60704700BF48E70320A4
:1093700044E7032040E703203CE7032038E70320CD
:1093800034E7032030E703202CE70320244B1A683E
:10939000D0075CBF01221A60224B1A68D1075CBF5C
:1093A00001221A60204B1A68D2075CBF01221A60A2
:1093B0001E4B1A68D0075CBF01221A601C4B1A684A
:1093C000D1075CBF01221A601A4B1A68D2075CBF32
:1093D00001221A60184B1A68D0075CBF01221A607C
:1093E000164B1A68D1075CBF01221A60144B1A6829
:1093F000D2075CBF01221A60124B1A68D0075CBF0B
:1094000001221A60104B1A68D1075CBF01221A6052
:109410000E4B1A68D2075CBF01221A60704700BF6A
:1094200078E7032074E7032070E703206CE703204C
:1094300068E7032064E7032060E703205CE703207C
:1094400058E7032054E7032050E703204CE70320AC
:10945000244B1A68D0075CBF01221A60224B1A689D
:10946000D1075CBF01221A60204B1A68D2075CBF8B
:1094700001221A601E4B1A68D0075CBF01221A60D5
:109480001C4B1A68D1075CBF01221A601A4B1A687C
:10949000D2075CBF01221A60184B1A68D0075CBF64
:1094A00001221A60164B1A68D1075CBF01221A60AC
:1094B000144B1A68D2075CBF01221A60124B1A685B
:1094C000D0075CBF01221A60104B1A68D1075CBF3D
:1094D00001221A600E4B1A68D2075CBF01221A6083
:1094E000704700BFA8E70320A4E70320A0E70320FC
:1094F0009CE7032098E7032094E7032090E70320EC
:109500008CE7032088E7032084E7032080E703201B
:109510007CE70320184B1A68D1075CBF01221A6050
:10952000164B1A68D2075CBF01221A60144B1A68E6
:10953000D0075CBF01221A60124B1A68D1075CBFCA
:1095400001221A60104B1A68D2075CBF01221A6010
:109550000E4B1A68D0075CBF01221A600C4B1A68C8
:10956000D1075CBF01221A600A4B1A68D2075CBFA0
:1095700001221A60704700BFC8E70320C4E7032038
:10958000C0E70320BCE70320B8E70320B4E70320CB
:10959000B0E70320ACE703202DE9F04F2DED028B5F
:1095A000DFF824A38BB057EC106B55EC114B00F097
:1095B0008FF99AF90080B0EE408AF0EE608AB8F137
:1095C000FF3F48D022462B462046294601F06EFD3B
:1095D000834600283FD132463B463046394601F0AB
:1095E00065FD8146002840F09080304639460022D3
:1095F000002301F029FD002836D000220023204658
:10960000294601F021FD8346B8B19FEDA57B0122DB
:10961000A94BCDF820900092CDE90267CDE9044531
:109620008DED067B0193B8F1000F5BD09FED9E0B93
:109630000BB0BDEC028BBDE8F08F45EC104B00F099
:10964000A7FF40B1002200232046294601F006FD75
:10965000002840F0C580B0EE480AF0EE680A0BB072
:10966000BDEC028BBDE8F08FB0EE480AF0EE680A60
:1096700000F08EFF8046002861D04FF000084FF0C8
:10968000000951EC180B42464B4601F0DDFC002866
:10969000E1D047EC106B00F07BFF0028DBD045ECFD
:1096A000104B00F075FF0028D5D09AF90030824A9F
:1096B000019204210022022BCDE90267CDE9044585
:1096C000CDE906890091089203D0684600F068FF52
:1096D00070B9FDF749FD2223036009E09FED707B1F
:1096E0008DED067B684600F05BFF002800F08E8061
:1096F000089B1BB1FDF738FD089B03609DED060B31
:109700000BB0BDEC028BBDE8F08F00220023204699
:10971000294601F099FC00289DD09FED630B664B14
:10972000CDF820B00122B8F1020FCDE90267CDE9F2
:1097300004458DED060B8DE80C00D3D18FE747EC87
:10974000106B00F025FF002897D045EC104B00F07F
:109750001FFF002891D053EC182B18EE100A194661
:1097600001F0A4FC00287CD103239AF90080009327
:10977000514B0890CDE90267CDE904450193B8F15A
:10978000000F48D1DFF844914FF0604800220023D9
:1097900030463946CDE9068901F060FC002894D0B6
:1097A0000022464B2046294601F0E6F904460D46C4
:1097B00045EC104B00F000FF204653EC102B2946DF
:1097C00001F042FC002849D13D4B9AF900804FF04E
:1097D0006042CDE90623B8F1020F7FF476AF78E757
:1097E000354A9AF90030CDF820B00121CDE9026761
:1097F000CDE904458DE80600002B3FF46FAF3149F9
:109800000020022BCDE906017FF46CAFFDF7ACFC24
:10981000212303606CE79FED267B00220023304666
:1098200039468DED067B01F019FC0028D3D00022CB
:10983000224B2046294601F09FF904460D4645EC8F
:10984000104B00F0B9FE204653EC102B294601F0D6
:10985000FBFB18B91B4B0022CDE906239AF90080C7
:10986000B9E7154B9AF90090CDF820800122CDE997
:109870000267CDE904458DE80C00B9F1000F3FF413
:109880002DAF002200231046194601F09FFAB9F1CE
:10989000020FCDE90601B9D024E700BFAFF3008085
:1098A0000000000000000000000000000000F03F89
:1098B000000000000000F07F08D40D000000E03F31
:1098C000FFFFEFC70000F0FF8CE00320FFFFEF4732
:1098D0002DE9F04F51EC110B21F0004858EA00043B
:1098E00093B03CD053EC102B6D4E23F00044B442A7
:1098F00010EE10AA1D462BDC894611EE10EA26D088
:10990000B04525DC664EB04577D0002D16461F4683
:10991000CDE9000175DB4FF0000BBEF1000F2DD13A
:109920005F4B984500F089805E4B98455ED0B9F159
:10993000804F00F0DE835C4B99451FD1002D1DDB6D
:1099400047EC106B13B0BDE8F04F00F049BD5AB1C1
:1099500004F1404404F5801454EA0A0306D19FED53
:109960004A0B13B0BDE8F08FA045CBDD4F4813B0D4
:10997000BDE8F04F00F018BE4FF0000B47EC106B45
:1099800000F0FEFD51EC100BBAF1000F1ED0ED0FF0
:1099900005F1FF3A5BEA0A0363D0454B984540F373
:1099A0008D8003F10473984540F33884414B9C4209
:1099B00062DDB9F1000F62DD35A3D3E90023104663
:1099C000194601F0D9F841EC100BCAE724B1354B28
:1099D00025F040429A42DAD1B9F1000FC0F2CB83B0
:1099E000002DC0F2748341EC100BBAE7B9F1000FFF
:1099F000C0F27A8447EC106BB3E7BEF1000F84D05D
:109A0000A6E72D4B984529DCA3F15473984582DDD8
:109A10004FEA2853A3F2FF33142B40F37F84C3F1A2
:109A200034032EFA03F202FA03F39E457FF473AF78
:109A300002F00102C2F1020B6FE704F1404303F5AB
:109A4000801353EA0A038AD01A4B9C4240F3858361
:109A5000B9F1000F13DB9DED000B82E74FF0020B15
:109A60005BE732463B461046194600F0D1FE0246FF
:109A70000B4601F0ABF9B6E7B9F1000F9CDB9FEDA7
:109A8000060B6EE7AFF30080000000000000F03F1F
:109A90009C7500883CE4377E000000000000000058
:109AA0000000F07F0000F03F0000E03F0CD40D000C
:109AB0000000E041FFFFEF3FFFFF3F43B4F5801F91
:109AC0004FF0000205DAD64B01F056F86FF0340281
:109AD0000C462315D34EC4F31304A3F2FF331344EF
