:02000002D0002C
:1040000000400D00E0930D00000006000C000501CB
:084010000401E80500000000B6
:04401800788A0D0095
:1040200009480A49884208B505D0094A824202D0A7
:10403000121A02F0CBFE0748074A0021121A02F0BA
:10404000D0FE014808BD00BF38E2032014930D00E4
:10405000DCE20320DCE20320F0E7032070B501F08E
:10406000FFFC074C074BE41AA40800251E46A54296
:1040700004D056F8253098470135F8E770BD00BFE9
:104080000C930D00C4920D0000F0A6B808B500F026
:10409000DFF8BDE8084001F0A5BC01F007B901F068
:1040A00005B90078B0FA80F0400970470123037029
:1040B000704703681847012A02D0022A02D004E0A0
:1040C000016002E00B6800B103600020704700004F
:1040D000014800F0F7BE00BFE0E20320436913B1DE
:1040E00083690C301847704713B500210446084611
:1040F00000F098FF02A90023204641F8043D00F09B
:10410000A9FF019C0CB1012323710021012000F0C3
:1041100089FF2CB1236820469B68984700232371B0
:1041200002B010BD10B58368044613B103220146E6
:104130009847204610BD07B58068002338B18DE848
:104140000A00022100F08EFFB0FA80F0400903B0AF
:104150005DF804FB38B5104B036083680446A3B1D7
:104160006FF000410022FFF7E6FF0021A06800F099
:1041700091FF237903F0FF0513B100F03BFFF8E74F
:104180002946A06800F05EFFA56004F10C00FFF76F
:10419000C9FF204638BD00BF948A0D0010B5044603
:1041A000FFF7D8FF20461C2101F0ABFF204610BDD1
:1041B00038B5044640B100F17005A54204D0103D69
:1041C000284601F0F3F8F8E7204638BD10B504465C
:1041D000FFF7EEFF204610BD13B54FF4FA6001F073
:1041E000CBFB01F03DFD4FF4165101F02DFD01F028
:1041F00037FD0D490D4C01F09AFA4FF416510C4859
:1042000000F026FE002211462046FFF794FFA0682A
:1042100040B100236FF000428DE80C0019461A46A9
:1042200000F020FF02B010BDA08A0D00DCE30320E7
:10423000E0E2032070B505460E4600243119281926
:10424000103401F039F9702CF8D1284670BD000007
:1042500010B5ADF5087DD34957A8FFF7EBFF57A977
:1042600001A800F01DFD57A8FFF7A2FF01A800F06C
:1042700047FC60B301F0F4FCCB4901F058FA01F0BF
:10428000EFFCCA4901F053FA01F0EAFCC84901F019
:104290003BFA01F0E5FC0A220B99044601F051FAC1
:1042A000204601F038FA01F0DBFCC24901F02CFA9B
:1042B00001F0D6FC0C990A22044601F042FA20468D
:1042C00001F029FA01F0CCFCBB4901F030FAB54904
:1042D00057A8FFF7AFFF57A929A800F003FD57A87B
:1042E000FFF766FF29A800F020FC002800F0A3805B
:1042F00001F0B6FCB14901F01AFA01F0B1FCAB498A
:1043000001F015FA01F0ACFCAD4901F0FDF901F046
:10431000A7FC339901F00BFA01F0A2FCA94901F0C6
:10432000F3F901F09DFC379901F001FA01F098FCD6
:10433000A54901F0E9F901F093FC3B9901F0F7F987
:1043400001F08EFCA14901F0DFF901F089FC3F99F1
:1043500001F0EDF901F084FC9D4901F0D5F901F07F
:104360007FFC439901F0E3F901F07AFC994901F0EF
:10437000CBF901F075FC0A229DF81C11044601F0EE
:10438000E0F9204601F0C7F901F06AFC924901F01A
:10439000BBF901F065FC0A229DF81D11044601F0ED
:1043A000D0F9204601F0B7F901F05AFC8B4901F031
:1043B000ABF901F055FC9DED480A022101F0BAFA73
:1043C00001F04EFC864901F09FF901F049FC9DED9A
:1043D000490A022101F094FA01F042FC814901F0FE
:1043E00093F901F03DFC4A9901F0A1F901F038FC84
:1043F0007D4901F089F901F033FC9DED4E0A02215F
:1044000001F07EFA01F02CFC764901F07DF901F013
:1044100027FC4F9901F08BF901F022FC734901F060
:1044200073F901F01DFC539901F081F901F018FCBA
:10443000614901F07CF95B490DA8FFF7FBFE0DA96E
:1044400057A800F09BFC0DA8FFF7B2FE57A800F09C
:10445000CCFB002800F0838001F002FC644901F0ED
:1044600066F901F0FDFB514901F061F901F0F8FB3B
:10447000534901F049F901F0F3FB619901F057F953
:1044800001F0EEFB4F4901F03FF901F0E9FB6999BA
:1044900001F04DF901F0E4FB4B4901F035F901F071
:1044A000DFFB6D9901F043F901F0DAFB474901F0B8
:1044B0002BF901F0D5FB719901F039F901F0D0FB2E
:1044C000434901F021F901F0CBFB759901F02FF977
:1044D00001F0C6FB474901F017F901F0C1FB9DED62
:1044E000790A022101F026FA01F0BAFB424901F0F3
:1044F0000BF901F0B5FB9DED7A0A022101F01AFAE1
:1045000001F0AEFB3D4901F0FFF801F0A9FB7B99FA
:1045100001F00DF901F0A4FB394901F0F5F801F0C3
:104520009FFB9DED7F0A022101F0EAF901F098FB63
:104530002C4901F0E9F801F093FB809901F0F7F8BC
:1045400001F08EFB2F4901F0DFF801F089FB84991F
:1045500001F0EDF801F084FB174901F0E8F84FF4A1
:104560007A7001F009FA284B579384A800F01EFFD7
:1045700080A800F01BFF7BA800F018FF75A800F0D2
:1045800015FF71A800F012FF6DA800F00FFF69A8D9
:1045900000F00CFF65A800F009FF61A800F006FF1D
:1045A00034E000BFE0E20320B08A0D00CB8A0D00AA
:1045B000028B0D000F8B0D00938E0D00208B0D00D4
:1045C000518B0D005C8B0D00678B0D007E8B0D00F9
:1045D0008A8B0D009F8B0D00B88B0D00CA8B0D00D0
:1045E000ED8B0D00718E0D00F88B0D000D8C0D0004
:1045F000228C0D00598C0D006D8C0D00828C0D00ED
:10460000898C0D009E8C0D00F48C0D005DA800F0CF
:10461000CDFE58A800F0CAFE154B299353A800F010
:10462000C5FE4FA800F0C2FE4AA800F0BFFE43A896
:1046300000F0BCFE3FA800F0B9FE3BA800F0B6FEBB
:1046400037A800F0B3FE33A800F0B0FE2FA800F0AA
:10465000ADFE2AA800F0AAFE064B019307A800F0C1
:10466000A5FE02A800F0A2FE0DF5087D10BD00BF5A
:10467000008D0D000C8D0D00F0B589B000F09AFC96
:1046800001F074FB1E4C1F4F0146204600F0CAFB90
:104690003A461D49204601F02FFD1C4B049304AD02
:1046A0001B4C1C4B236095E8030004F10C0202AE86
:1046B00086E8030092E8030085E8030096E803001B
:1046C00082E80300144A6261A26907920023134A38
:1046D0002371A360A261069301930093104A2346BD
:1046E000012104F1080000F0A5FC2846FFF71AFD9F
:1046F0003A460C49204601F0FFFC09B0F0BD00BF6E
:10470000E0E20320DCE20320CD410D00D1400D00AA
:10471000DCE30320948A0D00B7400D00B3400D0088
:10472000E9400D0055410D002DE9F043114F0446BD
:1047300085B0894604F1140539461646984600F0BE
:104740007CFE3946284600F078FE4946204600F0B7
:10475000A4FE08EB06112674684600F0ADFE69461B
:10476000284600F0B4FE684600F020FE204605B062
:10477000BDE8F083938E0D00F0B585B0074600F1DB
:1047800014051849684600F058FE6946284600F0AE
:104790003AFF0446684600F009FEE1B28E1CFB6950
:1047A000B2B29A421BD80131284600F0F4FE3146DD
:1047B0000446284600F0EFFEA4F13103DBB2152BCE
:1047C0009ABF094AD35C00231A01A0F13103DBB27E
:1047D000152B9ABF0449CB5C0023D01800E00020C1
:1047E00005B0F0BDA58C0D00AB8C0D00F0B585B00B
:1047F00000F114060F490746684600F01EFE6946A0
:10480000304600F0B6FE0446684600F0CFFD74B1B5
:1048100001250024FB69033B9D4208D2294630460E
:1048200000F0B9FE0135604084B2EDB2F2E72046F7
:1048300005B0F0BDA78C0D0038B501460546143013
:1048400000F097FE48B12846FFF796FF0446284639
:10485000FFF7CCFF231A5842584138BD30B585B018
:1048600004460D466846084900F0E7FD2A466946B9
:1048700004F1140000F091FE0446684600F096FD35
:10488000204605B030BD00BFA98C0D001FB5013119
:10489000143000F080FE0146684600F031FE064903
:1048A000684600F03EFE0446684600F07FFD201C8E
:1048B00018BF012004B010BDA98C0D007FB50023E6
:1048C000136006461546FFF7C9FF431C044604D093
:1048D00001463046FFF7DAFF10B14FF0FF340DE02C
:1048E0000134224606F11401684600F0B1FE684624
:1048F00000F0B5FE2860684600F058FD204604B080
:1049000070BD7FB50023137006461546FFF7A6FF5E
:10491000431C044604D001463046FFF7B7FF10B1F0
:104920004FF0FF340DE00134224606F114016846D1
:1049300000F08EFE684600F092FE2870684600F097
:1049400035FD204604B070BD7FB5002313600646D8
:104950001546FFF783FF431C044604D0014630464A
:10496000FFF794FF10B14FF0FF340EE00134224600
:1049700006F11401684600F06BFE684600F074FE14
:10498000684685ED000A00F011FD204604B070BDB8
:104990002DE9FF4198460C460646174968461746DA
:1049A00000F04BFD6946404600F091FD684600F07E
:1049B000FDFC21463046FFF751FF431C044604D05E
:1049C00001463046FFF762FF10B14FF0FF350FE0B0
:1049D000651C7B1C23442A4606F11401684600F03E
:1049E00017FE6946404600F072FD684600F0DEFCA6
:1049F000284604B0BDE8F081938E0D0000F0DABACD
:104A000070B50546044600F170062046034910348F
:104A100000F013FDB442F8D1284670BD938E0D000E
:104A200030B585B00C4668462E4900F006FD694653
:104A3000204600F09EFD0546684600F0B7FC002DBC
:104A400045D12949684600F0F8FC6946204600F047
:104A500090FD0546684600F0A9FC002D39D1234998
:104A6000684600F0EAFC6946204600F082FD0546F3
:104A7000684600F09BFC75BB1D49684600F0DDFCF4
:104A80006946204600F075FD0546684600F08EFC3C
:104A90001DBB1849684600F0D0FC6946204600F06E
:104AA00068FD0546684600F081FCC5B912496846B4
:104AB00000F0C3FC6946204600F05BFD04466846F2
:104AC00000F074FC002C0CBF0020062008E0012040
:104AD00006E0022004E0032002E0042000E00520BC
:104AE00005B030BDC18C0D00C88C0D00CF8C0D0001
:104AF000D68C0D00DD8C0D00E48C0D0000F05ABA50
:104B000038B5041D05462046FFF796FE60B105F155
:104B1000280200212046FFF7D1FE05F12C020146B4
:104B20002046FFF7CBFE012038BD38B5041D0546F1
:104B30002046FFF781FE002856D005F128030A22FF
:104B400000212046FFF724FF05F138030146092222
:104B50002046FFF71DFF05F14803014601222046CC
:104B6000FFF716FF05F1580301460A222046FFF71A
:104B70000FFF05F16803014601222046FFF708FFF9
:104B800005F1780201462046FFF7BBFE05F17902E8
:104B900001462046FFF7B5FE05F17C02014620469E
:104BA000FFF7D2FE05F1800201462046FFF7CCFE5A
:104BB00005F18403014601222046FFF7E9FE05F1D5
:104BC000940201462046FFF7BFFE05F19803014617
:104BD00001222046FFF7DCFE05F1A8030146012271
:104BE0002046FFF7D5FE012038BD38B5041D054627
:104BF0002046FFF721FE002851D005F128030A22A4
:104C000000212046FFF7C4FE05F1380301460122CA
:104C10002046FFF7BDFE05F1480301460922204664
:104C2000FFF7B6FE05F15803014601222046FFF7C3
:104C3000AFFE05F1680301460A222046FFF7A8FEF1
:104C400005F17803014601222046FFF7A1FE05F198
:104C5000880201462046FFF777FE05F18C020146E7
:104C60002046FFF771FE05F190030146062220461B
:104C7000FFF78EFE05F1A00201462046FFF764FE15
:104C800005F1A403014601222046FFF781FE05F14C
:104C9000B403014601222046FFF77AFE012038BD09
:104CA00030B5A1B004460D4668460C4900F0C5FB7E
:104CB000294604A8FFF7BEFA04AB06226946201D68
:104CC000FFF732FD04A8FFF773FA684600F06EFBA9
:104CD000034B2360204621B030BD00BFE48C0D00A3
:104CE0000C8D0D0030B5A1B004460D466846204934
:104CF00000F0A3FB294604A8FFF79CFA012204ABAD
:104D00006946201DFFF710FD04A8FFF751FA684619
:104D1000184D00F04BFB2046174B40F8283B294626
:104D200000F08BFB294604F1380000F086FB294691
:104D300004F1480000F081FB294604F1580000F01E
:104D40007CFB294604F1680000F077FB294604F15A
:104D5000840000F072FB294604F1980000F06DFB1E
:104D6000294604F1A80000F068FB204621B030BDC0
:104D7000C18C0D00938E0D00008D0D0030B5A1B0DB
:104D800004460D466846234900F057FB294604A80F
:104D9000FFF750FA0422A01804AB6946FFF7C4FCE1
:104DA00004A8FFF705FA68461B4D00F0FFFA2046FD
:104DB0001A4B40F8283B294600F03FFB294604F1F6
:104DC000380000F03AFB294604F1480000F035FBBA
:104DD000294604F1580000F030FB294604F1680030
:104DE00000F02BFB294604F1780000F026FB294651
:104DF00004F1900000F021FB294604F1A40000F02A
:104E00001CFB294604F1B40000F017FB204621B03A
:104E100030BD00BFD68C0D00938E0D00F48C0D00BC
:104E200000F0C8B838B504460D46FFF7E9FD002389
:104E3000C4F8F430256784F8F830204638BD08B54A
:104E4000006F00F074FCFA20BDE8084000F094BD4B
:104E500010B50446006F00F085FF206F0368012144
:104E60001B6A984720460C49FFF7E9FF20460B498B
:104E7000FFF7E5FF20460A49FFF7E1FF2046094911
:104E8000FFF7DDFF20460849FFF7D9FF2046074915
:104E9000BDE81040FFF7D3BF108D0D00218D0D0030
:104EA000328D0D004B8D0D007D8D0D008B8D0D0015
:104EB00000231946C2180133802B82F87410F9D1EF
:104EC0007047000070B50446006F036888B01B6926
:104ED0009847002857D0206F03685B69984794F87B
:104EE000F830C0B20BB9242849D094F8F830002B20
:104EF00049D0D4F8F430802B0ADD00F0B1FE23490C
:104F000000F015FC0023C4F8F43084F8F8303AE0DF
:104F1000D4F8F4300D28234403D1002283F8742000
:104F200027E00A2823D1002583F8745004F1740186
:104F3000684600F082FA694604A800F0BDFA04A9A8
:104F40002046FFF76DFD064604A800F02FFA6946DB
:104F500004EB061000F0A1FAC4F8F450204684F8DF
:104F6000F850FFF7A5FF684600F020FA0BE083F841
:104F70007400D4F8F4300133C4F8F43003E00123B2
:104F800084F8F830B1E708B070BD00BF9A8D0D000D
:104F900000F010B808B5024B1B689B68019308BD70
:104FA0006802030008B5024B1B68DB68019308BD6B
:104FB0006802030008B5024B1B681B68019308BD1B
:104FC0002C02030008B5024B1B685B68019308BD07
:104FD0001802030008B5024B1B685B69019308BD0A
:104FE0001802030008B5024B1B689B68019308BDBB
:104FF0004802030008B5024B1B68DB68019308BD3B
:105000004802030008B5024B1B681B69019308BDE9
:105010004802030008B5024B1B685B69019308BD99
:105020004802030008B5024B1B68DB69019308BD09
:105030004802030008B5024B1B681B6A019308BDB8
:105040004802030008B5024B1B685B6A019308BD68
:105050004802030008B5024B1B689B6A019308BD18
:105060004802030008B5024B1B68DB6A019308BDC8
:105070004802030008B5024B1B685B6C019308BD36
:105080004802030008B5024B1B689B6C019308BDE6
:105090004802030008B5024B1B681B6F019308BD53
:1050A0004802030008B5024B1B685B69019308BD09
:1050B0006402030008B5024B1B681B68019308BD1E
:1050C0003C02030008B5024B1B68DB68019308BD76
:1050D0003C02030008B5024B1B681B69019308BD25
:1050E0003C02030008B5024B1B685B69019308BDD5
:1050F0003C02030008B5024B1B689B69019308BD85
:105100003C02030008B5024B1B68DB69019308BD34
:105110003C02030008B5024B1B689B6A019308BD63
:105120003C02030008B5024B1B68DB6A019308BD13
:105130003C02030008B5024B1B681B68019308BDC5
:105140004C02030008B5024B1B685B68019308BD65
:105150004C02030008B5024B1B681B69019308BD94
:105160004C02030008B5024B1B685B69019308BD44
:105170004C02030008B5024B1B689B69019308BDF4
:105180004C02030008B5024B1B68DB69019308BDA4
:105190004C02030008B5024B1B681B6A019308BD53
:1051A0004C02030008B5024B1B685B68019308BD05
:1051B0002002030008B5024B1B685B69019308BD20
:1051C0002002030008B5034B1B68D3F88830019315
:1051D00008BD00002002030008B5034B1B68D3F88C
:1051E0009430019308BD00002002030008B5024B73
:1051F0001B685B68019308BD4002030008B5024BC1
:105200001B689B68019308BD4002030008B5024B70
:105210001B68DB68019308BD4002030008B5024B20
:105220001B681B69019308BD4002030008B5024BCF
:105230001B685B69019308BD4002030008B5024B7F
:105240001B689B69019308BD4002030008B5024B2F
:105250001B68DB69019308BD4002030008B5024BDF
:105260001B681B6A019308BD4002030008B5024B8E
:105270001B681B6B019308BD4002030008B5024B7D
:105280001B685B6B019308BD4002030008B5024B2D
:105290001B68DB6B019308BD4402030008B5024B99
:1052A0001B681B68019308BD1C02030008B5024B74
:1052B0001B685B68019308BD1C02030008B5024B24
:1052C0001B689B68019308BD1C02030008B5024BD4
:1052D0001B681B6B019308BD1C02030000221146D2
:1052E0004068FFF7BBBF002211464068FFF7C6BF0A
:1052F00000224068FFF7BABF002281F00101406838
:10530000FFF7A4BF00231A4619464068FFF796BF6F
:1053100000231A4619464068FFF788BF002211464D
:105320004068FFF77BBF002211464068FFF766BF69
:10533000002202214068FFF769BF00231A46406837
:10534000FFF754BF024B03225A60024A1A607047AB
:10535000F8E30320B48D0D0010B50446006818B1C1
:10536000FFF7A4FF0023236010BD10B50446FFF72C
:10537000F3FF204610BD000010B5094C00204FF689
:10538000FF732060A080A07120816381FFF70AFF76
:105390002046044A0449BDE8104000F0ADBE00BFFD
:1053A00000E40320DCE203206B530D0010B504463B
:1053B0000068FFF77BFF204610BD10B5044600686B
:1053C00008B1FFF773FF00232360A360636010BD83
:1053D00038B504460D4600680131FFF76FFF10B184
:1053E00084E82100012038BD10B50368044613B1DC
:1053F00043688B4207D22046FFF7EAFF20B1A3683B
:105400000BB922681370012010BD70B50E4611460D
:1054100004461546FFF7E8FF18B92046FFF7CDFF11
:1054200009E02A463146A560206801F0CFFC2268D9
:10543000A3680021D154204670BD38B5002304462E
:1054400003604360836003730D4639B1084601F081
:105450000BFD294602462046FFF7D7FF204638BD00
:1054600038B5054600680C4660B16A688B689A4298
:1054700006D3096801F0F0FCA368AB6000230AE0E2
:10548000FFF714FF23682B6063686B60A368AB6051
:10549000002323606360A36038BD884210B50B46CB
:1054A000044607D0096819B19A68FFF7AEFF01E01A
:1054B000FFF783FF204610BD10B5002304460360AC
:1054C000436083600373FFF7E8FF204610BD884206
:1054D00010B5044601D0FFF7C3FF204610BD38B514
:1054E00005460C4641B1084601F0BEFC2146024685
:1054F0002846FFF78AFF01E0FFF75FFF284638BD27
:1055000013B500238DF804100360436083600373B8
:1055100001A904468DF80530FFF7E1FF204602B0EF
:1055200010BD08B582680B4612B919B9012008BD33
:1055300011B90368187802E0006801F083FCB0FA42
:1055400080F0400908BD10B5144683688A689B1A2C
:10555000A3420AD3006858B1096841B1204401F060
:105560008BFCB0FA80F0400910BD002010BD084649
:1055700010BD82688B689A4202D30022FFF7E3BF16
:105580000020704783688B4203D9006810B1405CEB
:10559000704700207047FFF7F5BF10B5836893424E
:1055A00007D904680968A01801F07BFC08B1001B4A
:1055B00010BD4FF0FF3010BD2DE9F04115468A684F
:1055C0000F46CAB18368BBB19A4215D80668AB4290
:1055D00098BF03F1FF3530464FF0FF3406EB050866
:1055E00040450DD8396801F05CFC48B1831B9D42F1
:1055F00028BF1C460130F3E74FF0FF30BDE8F081D3
:105600002046BDE8F08182688B68D21AFFF7D4BFCC
:10561000F8B59A420F461D460C4988BF13461446FA
:10562000064684BF2C461D46FFF707FFBA68944222
:105630000AD83968954294BFC4EB0502C4EB020254
:1056400021443046FFF7E1FE3046F8BD938E0D0051
:1056500010B504468B68FFF7DBFF204610BD0068DD
:1056600008B101F09CBB704708B5006830B101F08B
:1056700093FB51EC100B01F03FFB00E0002000EE2B
:10568000100A08BD10B50446006808B1FFF7FAFC1F
:10569000204610BD10B5064C002320462360FFF7BE
:1056A000E9FC2046034A0449BDE8104000F024BD4F
:1056B0000CE40320DCE2032085560D00F8B5064615
:1056C0000D468F180024BD420CD0336815F8011B1D
:1056D0009B6830469847002801DB0444F3E7002C20
:1056E00008BF04462046F8BD70B505460C4608467E
:1056F00049B101F0B9FB2B68024621462846DB6818
:10570000BDE87040184770BD08B5FFF7EDFF08BD54
:1057100003689B68184738B50D210546FFF7F8FF69
:105720000A2104462846FFF7F3FF204438BD38B568
:105730000546FFF7D9FF04462846FFF7ECFF204453
:1057400038BD30B58BB00B4600218DF82410012AEE
:1057500098BF0A220DF12304B3FBF2F505FB1233C7
:1057600003F0FF03092B94BF30333733DBB22146FC
:1057700004F801392B46002DEED1FFF7B5FF0BB031
:1057800030BD00002DE9F04757EC106B82460D4606
:1057900010EE102A3B4610EE100A394601F04EFA80
:1057A00008B14E4912E027F000494FF0FF324C4B50
:1057B0003046494601F042FA68B94FF0FF32484B93
:1057C0003046494601F01CFA28B946495046FFF7D1
:1057D0008BFFBDE8F0874FF06042434B30463946BF
:1057E00001F022FA08B14149F0E74FF06042404B26
:1057F0003046394601F0FAF90028F4D1002200239E
:105800003046394601F0F2F940B12D215046FFF7FC
:105810007FFF07F1004304461F4600E00446354978
:105820004FF0000800205FFA88F39D4206D900225D
:10583000314B01F093F808F10108F4E732463B469A
:1058400000F0B0FD0F46064601F036FA0A22014686
:1058500080465046FFF775FF0444E5B3404600F02C
:10586000DDFE02460B463046394600F099FD0646FD
:105870000F4650462149FFF737FF044400221E4BD4
:105880003046394600F040FF06460F4601F0ECF97D
:10589000B0F1000907DA2D215046FFF739FFC9F1B1
:1058A0000001804602E049464FF000080A225046B7
:1058B000FFF747FF40440444484600F0BFFE02465D
:1058C0000B463046394600F06BFD013D15F0FF05F3
:1058D00006460F46D2D12046BDE8F087E08D0D0088
:1058E000FFFFEF7FE88D0D00FFFFEF41E48D0D001E
:1058F000FFFFEFC10000E03F00002440AE8A0D0032
:1059000038B5044610EE100ACDB200F0A9FE41EC05
:10591000100B29462046BDE83840FFF733BF38B5A5
:10592000C9B20546FFF72EFF04462846FFF7F3FEEF
:10593000204438BD38B5044610EE100A0D4600F07C
:105940008FFE41EC100B29462046BDE83840FFF79A
:10595000E6BF0000014B024A1A60704710E40320C2
:105960005F8E0D00024B1A68024B1A60704700BF31
:1059700038E2032014E403200021FFF71BBC10B51C
:105980000446FEF7CFFB204610BD00000348044A42
:1059900004490023836000F0AFBB00BF18E403207C
:1059A000DCE203207F590D0008B50C4B33B100F049
:1059B00057F903681B699847002809DC084B63B155
:1059C00000F0D4F903681B699847002803DC08BD80
:1059D000AFF30080F2E7AFF3008008BD00000000E5
:1059E0000000000008B5FFF7DFFFFFF7F3FA014BF7
:1059F000186008BD4CE703200248034A0349121A05
:105A000001F0E4B900F4032004F4032010930D0026
:105A100007B5002300931A466FF07701FFF7DCFB10
:105A200003B05DF804FB000007B543880A2B08D0DB
:105A3000502B09D1094B1B683BB103B05DF804EB57
:105A40001847FFF7E5FF06E0002300931A466FF0C2
:105A50007701FFF7C1FB03B05DF804FB28E40320E6
:105A600038B5104C104D2368AB42104B0CBF0122CF
:105A700000221A7002D0FFF7BFFF2560FFF7A2FADD
:105A8000044601F0B7F90A4B13B12046AFF300808A
:105A900000210748FFF7FAFB00210648BDE838401F
:105AA000FFF790BB00F403201E1C279A2CE4032070
:105AB00000000000295A0D00704710B51821044657
:105AC00000F01FFB204610BDF0B5037D062B8DB006
:105AD0000E4600F104074FF0000402D000F1080563
:105AE00018E00CAD394605F8304D2F232A460A2020
:105AF000FFF7D8FA284601F0B7F933680246DB68A9
:105B00002946304698470FE024B12E213046FFF752
:105B1000FFFD044415F8011D0A223046FFF711FE6F
:105B2000BD420444F0D120460DB0F0BD10B5054B88
:105B30000446112240F8043B002101F052F92046AE
:105B400010BD00BFFC8E0D000346074A10B543F898
:105B5000042B01F1100251F8044B43F8044B91421D
:105B6000F9D10A781A7010BDFC8E0D0010B59DF8A1
:105B7000084044EA032343EA024242EA0161042363
:105B80004160037510BD37B50D788B784A78C978B8
:105B900000912946FFF7EAFF03B030BD417470471A
:105BA000704708B50021007CFFF7E4FA30EA2000D6
:105BB00028BF4FF0FF3008BD08B50121007CFFF77A
:105BC000D9FA30EA200028BF4FF0FF3008BD08B5F1
:105BD000007CFFF7C7FA20EAE07008BD08B5007C3A
:105BE000FFF7B8FA20EAE07008BD007CFFF7D2BAF0
:105BF00010B51421044600F084FA204610BD38B5D3
:105C00000446007C0D46FFF7ADFA002801DC607CFD
:105C100028B12946207CFFF7B5FA20EAE07038BDAC
:105C200010B50446002363604FF47A73A360054BFC
:105C3000236001230846217463741146FFF77AFA42
:105C4000204610BD108F0D000022007CFFF77ABAAD
:105C500010B514220446002101F0C3F8204610BDFF
:105C600030B50E4D87B001A8FFF7F2FF296811F09B
:105C7000010410D12846FEF714FA60B101AA2146AA
:105C80000748FFF7CDFF2846FEF710FA054A0649F8
:105C9000034800F031FA024807B030BD30E4032079
:105CA00034E40320DCE20320A15B0D007047417463
:105CB000704708B5007CFFF72DFA20EAE07008BDB8
:105CC00008B5007CFFF706FA20EAE07008BD08B5C9
:105CD000007CFFF70FFA30EA200028BF4FF0FF30BA
:105CE00008BD08B5007CFFF7FDF930EA200028BFA9
:105CF0004FF0FF3008BD007CFFF704BA10B5142147
:105D0000044600F0FEF9204610BD70B5457C0446FF
:105D10000E4625B9007CFFF7FDF9002805DD314668
:105D2000207CBDE87040FFF7CDB9284670BD00006B
:105D300010B5044608461146002262604FF47A729C
:105D4000A260054A22600122207462741A46FFF79D
:105D5000B1F9204610BD00BF408F0D000023007C2C
:105D6000FFF7E0B90022FFF7F9BF000038B50C4D8E
:105D7000296811F0010411D12846FEF792F968B1A3
:105D8000084A094B09482146FFF7D2FF2846FEF78B
:105D90008DF9074A0749054800F0AEF9034838BDB8
:105DA000E0E40320E4E403205CE4032048E403206F
:105DB000DCE20320AD5C0D00002211464068FFF7D5
:105DC0004DBA002211464068FFF758BA00224068D9
:105DD000FFF74CBA002281F001014068FFF736BAA4
:105DE00000231A4601214068FFF728BA00231A460B
:105DF00019464068FFF71ABA002211464068FFF7BB
:105E00000DBA002211464068FFF7F8B900220221BE
:105E10004068FFF7FBB900231A464068FFF7E6B970
:105E200038B5054688B104684CB1A3681BB103229C
:105E30002146204698471021204600F062F9284666
:105E40001421BDE8384000F05CB938BD10B10368DA
:105E50005B681847704710B503680446BBB15868C3
:105E6000FFF7C0F878B923685A7C12B95868FFF771
:105E7000C9F823685868FFF7CDF82068002323602D
:105E800028B1FFF7CDFF206808B1FFF7C9FF204612
:105E900010BD38B50446D0F8C40108B1FEF7FFF8CC
:105EA000D4F8C00108B1FFF7EDF8D4F8BC5135B112
:105EB0002846FFF7D0FF0421284600F022F9206889
:105EC00008B1FFF7C3FF204638BD000010B5044BF2
:105ED000044640F8083BFFF7DCFF204610BD00BF3A
:105EE000708F0D0038B50E4C0E4B23600025022339
:105EF00004F5E4706360A560C4F8C451C4F8C851E7
:105F0000FFF7B8F8084BC4F8CC5184F8D05123609F
:105F10002046064A0649BDE8384000F0EDB800BF0B
:105F200068E50320D88F0D00708F0D00DCE20320A0
:105F3000CD5E0D00002211464068FFF76FB90022C8
:105F400011464068FFF78AB9002211464068FFF702
:105F500095B900224068FFF789B9002281F001015C
:105F60004068FFF773B900231A4619464068FFF7E7
:105F700065B900231A4619464068FFF757B9002251
:105F800011464068FFF73AB9002202214068FFF746
:105F90003DB900231A464068FFF728B9024B042296
:105FA0005A60024A1A6070473CE70320A48F0D0034
:105FB00000231A464068FFF719B900220221406801
:105FC000FFF724B9002211464068FFF717B90022F5
:105FD00011464068FFF722B900231A461946406867
:105FE000FFF724B900231A4619464068FFF726B97F
:105FF000002281F001014068FFF728B900224068C3
:10600000FFF734B9002211464068FFF737B9002284
:1060100011464068FFF722B92DE9F043002495B0FE
:1060200016460D460746FFF781FD214620220CA8A3
:10603000009400F0D6FE40230C9321466B460CAA38
:106040003046FEF7AFFF0446002844D10246012146
:106050006868FFF7E3F80221804622466868FFF788
:10606000DDF8009E81462146002E34D0002932D131
:106070007368022B02D00A2B09D02AE0B8F1000F76
:1060800027D0716938460431FFF77DFD20E0B9F172
:10609000000F1ED07469112201A800F0A2FE062391
:1060A0008DF8143001AD04F10803183418685968EC
:1060B0002A4603C20833A3421546F7D101A906A810
:1060C00007ADFFF741FD0FCD3C1D0FC42B682370BA
:1060D0000121F669C8E70098FEF75CFF384615B065
:1060E000BDE8F083024B034A1A6000225A607047F1
:1060F00044E70320D88F0D000B460146184600F0F8
:1061000053BEFDF7CABF0000184B1A68D1075CBF29
:1061100001221A60164B1A68D2075CBF01221A606E
:10612000144B1A68D0075CBF01221A60124B1A6820
:10613000D1075CBF01221A60104B1A68D2075CBFFE
:1061400001221A600E4B1A68D0075CBF01221A6048
:106150000C4B1A68D1075CBF01221A600A4B1A68FF
:10616000D2075CBF01221A60704700BF6CE70320B2
:1061700068E7032064E7032060E703205CE703206F
:1061800058E7032054E7032050E70320244B1A6804
:10619000D0075CBF01221A60224B1A68D1075CBF8E
:1061A00001221A60204B1A68D2075CBF01221A60D4
:1061B0001E4B1A68D0075CBF01221A601C4B1A687C
:1061C000D1075CBF01221A601A4B1A68D2075CBF64
:1061D00001221A60184B1A68D0075CBF01221A60AE
:1061E000164B1A68D1075CBF01221A60144B1A685B
:1061F000D2075CBF01221A60124B1A68D0075CBF3D
:1062000001221A60104B1A68D1075CBF01221A6084
:106210000E4B1A68D2075CBF01221A60704700BF9C
:106220009CE7032098E7032094E7032090E70320EE
:106230008CE7032088E7032084E7032080E703201E
:106240007CE7032078E7032074E7032070E703204E
:10625000244B1A68D0075CBF01221A60224B1A68CF
:10626000D1075CBF01221A60204B1A68D2075CBFBD
:1062700001221A601E4B1A68D0075CBF01221A6007
:106280001C4B1A68D1075CBF01221A601A4B1A68AE
:10629000D2075CBF01221A60184B1A68D0075CBF96
:1062A00001221A60164B1A68D1075CBF01221A60DE
:1062B000144B1A68D2075CBF01221A60124B1A688D
:1062C000D0075CBF01221A60104B1A68D1075CBF6F
:1062D00001221A600E4B1A68D2075CBF01221A60B5
:1062E000704700BFCCE70320C8E70320C4E70320C2
:1062F000C0E70320BCE70320B8E70320B4E703208E
:10630000B0E70320ACE70320A8E70320A4E70320BD
:10631000A0E70320184B1A68D1075CBF01221A605E
:10632000164B1A68D2075CBF01221A60144B1A6818
:10633000D0075CBF01221A60124B1A68D1075CBFFC
:1063400001221A60104B1A68D2075CBF01221A6042
:106350000E4B1A68D0075CBF01221A600C4B1A68FA
:10636000D1075CBF01221A600A4B1A68D2075CBFD2
:1063700001221A60704700BFECE70320E8E7032022
:10638000E4E70320E0E70320DCE70320D8E703206D
:10639000D4E70320D0E7032081F0004102E000BFF2
:1063A00083F0004330B54FEA41044FEA430594EAD5
:1063B000050F08BF90EA020F1FBF54EA000C55EA10
:1063C000020C7FEA645C7FEA655C00F0E2804FEAE1
:1063D0005454D4EB5555B8BF6D420CDD2C4480EAC3
:1063E000020281EA030382EA000083EA010180EAF3
:1063F000020281EA0303362D88BF30BD11F0004F41
:106400004FEA01314FF4801C4CEA113102D0404276
:1064100061EB410113F0004F4FEA03334CEA1333B1
:1064200002D0524263EB430394EA050F00F0A780C9
:10643000A4F10104D5F1200E0DDB02FA0EFC22FAC4
:1064400005F2801841F1000103FA0EF2801843FAB8
:1064500005F359410EE0A5F120050EF1200E012AA9
:1064600003FA0EFC28BF4CF0020C43FA05F3C018E7
:1064700051EBE37101F0004507D54FF0000EDCF160
:10648000000C7EEB00006EEB0101B1F5801F1BD309
:10649000B1F5001F0CD349085FEA30004FEA3C0C0D
:1064A00004F101044FEA445212F5800F80F09A8003
:1064B000BCF1004F08BF5FEA500C50F1000041EB07
:1064C000045141EA050130BD5FEA4C0C404141EB0B
:1064D000010111F4801FA4F10104E9D191F0000F32
:1064E00004BF01460020B1FA81F308BF2033A3F1B5
:1064F0000B03B3F120020CDA0C3208DD02F1140CAC
:10650000C2F10C0201FA0CF021FA02F10CE002F1E6
:106510001402D8BFC2F1200C01FA02F120FA0CFCDF
:10652000DCBF41EA0C019040E41AA2BF01EB045128
:10653000294330BD6FEA04041F3C1CDA0C340EDC26
:1065400004F11404C4F1200220FA04F001FA02F369
:1065500040EA030021FA04F345EA030130BDC4F127
:106560000C04C4F1200220FA02F001FA04F340EA1C
:106570000300294630BD21FA04F0294630BD94F0CD
:10658000000F83F4801306BF81F480110134013DB4
:106590004EE77FEA645C18BF7FEA655C29D094EA25
:1065A000050F08BF90EA020F05D054EA000C04BFA3
:1065B0001946104630BD91EA030F1EBF002100208E
:1065C00030BD5FEA545C05D14000494128BF41F02D
:1065D000004130BD14F580043CBF01F5801130BD91
:1065E00001F0004545F0FE4141F470014FF000001C
:1065F00030BD7FEA645C1ABF194610467FEA655CCD
:106600001CBF0B46024650EA013406BF52EA03356E
:1066100091EA030F41F4002130BD00BF90F0000F5C
:1066200004BF0021704730B54FF4806404F1320498
:106630004FF000054FF0000150E700BF90F0000F51
:1066400004BF0021704730B54FF4806404F1320478
:1066500010F0004548BF40424FF000013EE700BF48
:1066600042004FEAE2014FEA31014FEA02701FBFD8
:1066700012F07F4393F07F4F81F06051704792F0AA
:10668000000F14BF93F07F4F704730B54FF4607424
:1066900001F0004521F0004120E700BF50EA01026F
:1066A00008BF704730B54FF000050AE050EA01021C
:1066B00008BF704730B511F0004502D5404261EB8C
:1066C00041014FF4806404F132045FEA915C3FF4CD
:1066D000DCAE4FF003025FEADC0C18BF03325FEA66
:1066E000DC0C18BF033202EBDC02C2F1200300FA1B
:1066F00003FC20FA02F001FA03FE40EA0E0021FA40
:1067000002F11444C1E600BF70B54FF0FF0C4CF429
:10671000E06C1CEA11541DBF1CEA135594EA0C0FDF
:1067200095EA0C0F00F0DEF82C4481EA030621EA1A
:106730004C5123EA4C5350EA013518BF52EA033555
:1067400041F4801143F4801338D0A0FB02CE4FF007
:106750000005E1FB02E506F00042E0FB03E54FF037
:106760000006E1FB03569CF0000F18BF4EF0010E2F
:10677000A4F1FF04B6F5007F64F5407404D25FEA2B
:106780004E0E6D4146EB060642EAC62141EA5551DE
:106790004FEAC52040EA5E504FEACE2EB4F1FD0C20
:1067A00088BFBCF5E06F1ED8BEF1004F08BF5FEA9E
:1067B000500E50F1000041EB045170BD06F0004650
:1067C00046EA010140EA020081EA0301B4EB5C04FD
:1067D000C2BFD4EB0C0541EA045170BD41F48011F5
:1067E0004FF0000E013C00F3AB8014F1360FDEBF1A
:1067F000002001F0004170BDC4F10004203C35DAF6
:106800000C341BDC04F11404C4F1200500FA05F378
:1068100020FA04F001FA05F240EA020001F0004219
:1068200021F0004110EBD37021FA04F642EB06018F
:106830005EEA430E08BF20EAD37070BDC4F10C04B9
:10684000C4F1200500FA04F320FA05F001FA04F27D
:1068500040EA020001F0004110EBD37041F1000169
:106860005EEA430E08BF20EAD37070BDC4F1200574
:1068700000FA05F24EEA020E20FA04F301FA05F2DC
:1068800043EA020321FA04F001F0004121FA04F284
:1068900020EA020000EBD3705EEA430E08BF20EA54
:1068A000D37070BD94F0000F0FD101F0004640008E
:1068B00041EB010111F4801F08BF013CF7D041EA10
:1068C000060195F0000F18BF704703F00046520014
:1068D00043EB030313F4801F08BF013DF7D043EAE5
:1068E0000603704794EA0C0F0CEA135518BF95EA9B
:1068F0000C0F0CD050EA410618BF52EA4306D1D122
:1069000081EA030101F000414FF0000070BD50EA40
:10691000410606BF1046194652EA430619D094EACA
:106920000C0F02D150EA013613D195EA0C0F05D1B4
:1069300052EA03361CBF104619460AD181EA030108
:1069400001F0004141F0FE4141F470014FF00000C0
:1069500070BD41F0FE4141F4780170BD70B54FF05B
:10696000FF0C4CF4E06C1CEA11541DBF1CEA1355DB
:1069700094EA0C0F95EA0C0F00F0A7F8A4EB0504BD
:1069800081EA030E52EA03354FEA013100F08880B4
:106990004FEA03334FF0805545EA131343EA12637D
:1069A0004FEA022245EA111545EA10654FEA002632
:1069B0000EF000419D4208BF964244F1FD0404F5EB
:1069C000407402D25B084FEA3202B61A65EB030547
:1069D0005B084FEA32024FF480104FF4002CB6EB04
:1069E000020E75EB030E22BFB61A754640EA0C0084
:1069F0005B084FEA3202B6EB020E75EB030E22BFC4
:106A0000B61A754640EA5C005B084FEA3202B6EB04
:106A1000020E75EB030E22BFB61A754640EA9C00C3
:106A20005B084FEA3202B6EB020E75EB030E22BF93
:106A3000B61A754640EADC0055EA060E18D04FEA51
:106A4000051545EA16754FEA06164FEAC30343EAF1
:106A500052734FEAC2025FEA1C1CC0D111F4801FBE
:106A60000BD141EA00014FF000004FF0004CB6E7B7
:106A700011F4801F04BF01430020B4F1FD0C88BF56
:106A8000BCF5E06F3FF6AFAEB5EB030C04BFB6EB61
:106A9000020C5FEA500C50F1000041EB045170BD54
:106AA0000EF0004E4EEA113114EB5C04C2BFD4EB81
:106AB0000C0541EA045170BD41F480114FF0000E05
:106AC000013C90E645EA060E8DE60CEA135594EA81
:106AD0000C0F08BF95EA0C0F3FF43BAF94EA0C0F84
:106AE0000AD150EA01347FF434AF95EA0C0F7FF4F9
:106AF00025AF104619462CE795EA0C0F06D152EA4D
:106B000003353FF4FDAE1046194622E750EA410630
:106B100018BF52EA43067FF4C5AE50EA41047FF441
:106B20000DAF52EA43057FF4EBAE12E74FF0FF3CA6
:106B300006E000BF4FF0010C02E000BF4FF0010C77
:106B40004DF804CD4FEA410C7FEA6C5C4FEA430CF0
:106B500018BF7FEA6C5C1BD001B050EA410C0CBF3F
:106B600052EA430C91EA030F02BF90EA020F0020A1
:106B7000704710F1000F91EA030F58BF994208BF08
:106B800090422CBFD8176FEAE37040F001007047C5
:106B90004FEA410C7FEA6C5C02D150EA013C07D11C
:106BA0004FEA430C7FEA6C5CD6D152EA033CD3D067
:106BB0005DF8040B704700BF8446104662468C4661
:106BC0001946634600E000BF01B5FFF7B7FF002894
:106BD00048BF10F1000F01BD4DF808EDFFF7F4FFBD
:106BE0000CBF012000205DF808FB00BF4DF808ED48
:106BF000FFF7EAFF34BF012000205DF808FB00BF6B
:106C00004DF808EDFFF7E0FF94BF012000205DF88C
:106C100008FB00BF4DF808EDFFF7CEFF94BF012041
:106C200000205DF808FB00BF4DF808EDFFF7C4FF3A
:106C300034BF012000205DF808FB00BF4FEA410C83
:106C40007FEA6C5C02D150EA013C0AD14FEA430C66
:106C50007FEA6C5C02D152EA033C02D14FF00000A3
:106C600070474FF0010070474FEA410212F50012E1
:106C700015D211D56FF47873B3EB625212D94FEA83
:106C8000C12343F0004343EA505311F0004F23FA6D
:106C900002F018BF404270474FF00000704750EAC2
:106CA000013005D111F0004008BF6FF0004070477F
:106CB0004FF00000704700BF4A0011D212F50012D9
:106CC00011D20DD56FF47873B3EB62520ED44FEA44
:106CD000C12343F0004343EA505323FA02F07047C4
:106CE0004FF00000704750EA013002D14FF0FF3002
:106CF00070474FF0000070474FEA4102B2F1E043A5
:106D000024BFB3F5001CDCF1FE5C0DD901F0004C92
:106D10004FEAC0024CEA5070B2F1004F40EB8300E2
:106D200008BF20F00100704711F0804F21D113F10E
:106D30003872BCBF01F00040704741F480114FEA47
:106D40005252C2F11802C2F1200C10FA0CF320FAD0
:106D500002F018BF40F001004FEAC1234FEAD323ED
:106D600003FA0CFC40EA0C0023FA02F34FEA430357
:106D7000CCE77FEA625307D150EA01331EBF4FF0E0
:106D8000FE4040F44000704701F0004040F0FE40FB
:106D900040F40000704700BF002100F0B9BE0A2295
:106DA000002100F043BF000010B5054C13462CB184
:106DB0000A4601460220AFF3008010BD204610BDF8
:106DC0000000000000487047A4E2032010B5431EF5
:106DD0000A44914204D011F8014B03F8014FF8E73F
:106DE00010BD02440346934202D003F8011BFAE7A8
:106DF0007047000038B5124B1C68A36B0546D3B929
:106E00001820FEF74BFA43F20E33A06303804AF6D4
:106E1000CD33438041F2342383804EF26D63C380CF
:106E20004DF6EC630381052343810B23838101220B
:106E30000023C0E90423A36B00221D615A6138BD01
:106E4000A0E2032010F8012B11F8013B012A28BF12
:106E50009A42F7D0D01A7047034611F8012B03F875
:106E6000012B002AF9D17047034613F8012B002AA1
:106E7000FBD1181A0138704730B582B1451E01396F
:106E800015F8013F11F8014FA34206D1EC43144419
:106E9000E04201D0002BF3D11C46181B30BD104638
:106EA00030BDF0B5037863B90B78002B18BF002014
:106EB000F0BD15F8012F62B114F8017F97423046FA
:106EC000F7D00346461C007810B14D1E5C1EF0E75B
:106ED000F0BD1846F0BD70B504460D4645EC104BAC
:106EE000164601F091FC51EC100B7EB1C5F30A532C
:106EF000C3F16B03002B09DD1B0503F17F55002453
:106F000005F5401522462B46FFF7FEFB70BD00003D
:106F10002DE9F04F9DB0002302900C461392189378
:106F20004FF0000A4FF0000B1791179B1A780D2AAB
:106F300005D8092A13D2002A00F0AC8112E02B2ACE
:106F400004D02D2A04D0202A0CD108E0002200E031
:106F500001220C925A1C17925B782BB99AE10133EB
:106F60001793E2E700230C93179D2B78302B5CD10D
:106F70006B78582B01D0782B4CD10C9B019318AB1C
:106F80000093A94A029819AB17A900F0A4FE10F0CB
:106F90000706044600F08785062E05D1013500233B
:106FA00017950C9300F07FBD189A3AB135211AA8B5
:106FB00001F017FD1899029801F094F9062E22D8D5
:106FC000DFE806F0040D08181D0D04004FF0000B5B
:106FD000DA4618E0DDF868A0DDF86CB013E01B9B22
:106FE000199ADDF868A023F4801302F2334243EAD1
:106FF000025B08E0DFF834B24FF0000A03E06FF004
:10700000004B4FF0FF3A210740F14D854BF0004B0C
:1070100000F049BD179B5A1C17925B78302BF9D0B2
:10702000002B00F04085012300E000234FF0000812
:107030000693179B0793CDF81480CDF810800A2291
:10704000179D2E78A6F13003D9B209290ED80499DC
:107050000829DDBF059902FB0133059302FB0838BF
:10706000049B0135013304931795E9E70298FFF774
:10707000A9FE07680298FFF7A5FE0068FFF7F4FE77
:10708000394602462846FFF7F7FE074628B100209A
:107090003346049D0246014657E00298FFF792FEF0
:1070A0000068FFF7E1FE179B1A181792049A1B5C01
:1070B000002A42D11046302B05D1179B5A1C17923B
:1070C00001305B78F7E7A3F13102082A43D8179A19
:1070D0000792024600200546303B00F1010126D010
:1070E0000A4405EB000C29460A2661450ED0013101
:1070F00001F1FF3EBEF1080F03DC059F77430597C2
:10710000F3E71029D8BF06FB08F8EEE72844082863
:1071100000F1010505DC05980A2101FB0033059308
:1071200004E0102DDCBF0A2101FB08380021179B69
:10713000581C17905B78084602E0049D38463A4692
:10714000A3F130010929C7D90121652B01D0452BB5
:1071500051D16DB904E0652B40F0B38400220121C8
:1071600028B9069B002B00F09580054600E000251D
:10717000179C631C179363782B2B06D02D2B02D002
:107180000026039606E0012300E000230393A31CDE
:107190001793A378A3F13006092E2BD8302B04D1F6
:1071A000179B5E1C17965B78F8E7A3F13106082E53
:1071B00021D8A3F1300E179B4FF00A0C1F46179BE6
:1071C0005E1C17965B78A3F13009B9F1090F04D85A
:1071D0000CFB0E3EAEF1300EF1E7F61B082E44F626
:1071E0001F6902DCF145A8BFF146039E2EB1C9F12B
:1071F000000902E017944FF00009002D53D1002838
:1072000040F05184069A002A40F04D84002941D173
:107210004E2B20D002DC492B0AD03BE0692B07D053
:107220006E2B18D036E000BF70910D000000F07F8B
:10723000A84917A800F080FF60B3179BA649013B3F
:1072400017A8179300F078FF10B9179B0133179315
:10725000DFF8A0B21AE0A14917A800F06DFFC8B18D
:10726000179B1B78282B0FD11AAA9D4917A800F04D
:1072700076FF052808D11B9BDDF868A043F0FF4B83
:107280004BF4E00B00F00FBCDFF86CB24FF0000ADB
:1072900000F009BC139B1794002B00F00F8400230F
:1072A0000C9300F002BC049B0598002B08BF2B46F2
:1072B000102D2C46C2EB0909A8BF10240493FFF738
:1072C000ADF9092C82468B4613DD864B03EBC403D4
:1072D00053E91223FFF718FA064640460F46FFF718
:1072E0009DF902460B4630463946FFF75BF8824669
:1072F0008B460F2D36DCB9F1000F00F0D48324DD6E
:10730000B9F1160F07DC774D05EBC90952465B460C
:10731000D9E9000114E0C5F12503994522DC714C3F
:10732000C5F10F0504EBC501C5EB090552465B46E7
:10733000D1E9000104EBC504FFF7E6F9D4E9002325
:10734000FFF7E2F982468B46ADE319F1160F09DB30
:10735000644DA5EBC909D9E9002350465946FFF70A
:10736000FDFAEFE72C1B4C44002C57DD14F00F0105
:107370000AD05C4B03EBC10152465B46D1E90001E8
:10738000FFF7C2F982468B4634F00F0400F0B88054
:10739000B4F59A7F0BDD0024254605940494029AE7
:1073A000DFF850B1222313604FF0000A87E14E4E00
:1073B000002324115046594698463746012C0BDDD0
:1073C000E20704D5D6E90023FFF79EF9012308F16F
:1073D000010864100836F1E70BB182468B46ABF129
:1073E000547B07EBC80752465B46D7E90001FFF71D
:1073F0008BF921F000438B460A461B0D3B491B05C8
:107400008B428246C7D8A1F580118B4286BFDFF838
:10741000ECB04FF0FF3A02F1547B71E070D064425F
:1074200014F00F020AD02F4B03EBC203504659460B
:10743000D3E90023FFF792FA82468B4624115FD0EE
:107440001F2C04DD002425460594049430E114F03B
:10745000100F0CBF00236A23254E03935046594654
:107460000023002C09DDE20704D5D6E90023FFF74D
:107470004BF9012364100836F3E70BB182468B46C3
:10748000039BEBB1CBF30A53C3F16B03002B5946BB
:1074900016DD1F2B0EDD342BDEBF203B4FF0FF32FD
:1074A00002FA03F34FF0000ACCBF4FF05C7B03EA13
:1074B000010B05E04FF0FF3202FA03F303EA0A0A78
:1074C0000022002350465946FFF786FB0028B9D119
:1074D00018E000BFE98D0D0098910D00E18D0D00C1
:1074E00084910D00C8910D0090920D000000A07CC9
:1074F000A0910D000000F07F0000F8FFFFFFEF7F7C
:1075000000230393059B0093049A079902982B4646
:1075100000F03AFF059000283FF43DAFB9F1000FAD
:10752000C9F10003A8BF00230D93002429EAE973E1
:1075300012932546059B0298596800F09EFE049020
:1075400000283FF42CAF059B1A69023203F10C01AD
:1075500092000C30FFF73AFC1AAA19A94BEC10ABB9
:107560000298CDE908AB01F0C4F9189000283FF467
:1075700016AF0121029800F092FF054600283FF463
:107580000EAF199B03991A9E002BADBF0D9A129A4C
:10759000DDF8348002EB0308B8BFD21AA3EB010375
:1075A0003344B549A8BF129A013B8B42C6F1360657
:1075B00080F28A80C91A1F29C8BFB04F4FF0010955
:1075C000D4BF09FA01F3FF1AA6EB0106D9BF06934F
:1075D000002709FA07F7CDF8189008EB0609039B76
:1075E000C84516441E444346A8BF4B46B342A8BFF5
:1075F0003346002BC2BFC3EB0909F61AC3EB0808D8
:107600000D9B002B64D1B9F1000F7ADC129B002B8B
:1076100040F08180002E00F38880B8F1000F00F365
:107620008E80049A1899029801F08FF80446002879
:107630003FF4B5AEC36807930023C360294601F049
:1076400068F8002880F28980079B002B40F00482B4
:10765000BAF1000F40F00082CBF31303002B40F08F
:10766000FB812BF000431B0D1B05B3F1D66F40F2DD
:10767000F3816369002B6CD021460122029800F04F
:10768000F7FF2946044601F044F8002840F3E4815E
:107690002BF00043039A1B0D1B05002A00F08C8081
:1076A000B3F1D66F00F38880B3F15C7F00F3D6812D
:1076B000029A22234FF0000A4FF0000B1360059B43
:1076C000002B40F0DC81EEE101230027069384E7E4
:1076D00029461A46029800F07DFF054600283FF42F
:1076E0005EAE0146189A029800F0E2FE079000286C
:1076F0003FF455AE1899029800F0F4FD079B1893DB
:1077000081E74A461899029800F0B2FF18900028C5
:107710007FF47CAF43E6129A0499029800F05AFF76
:10772000049000287FF476AF39E632460499029837
:1077300000F09EFF049000287FF46FAF2FE62946EB
:107740004246029800F094FF054600287FF469AF96
:1077500025E62369012B8FDC7EE161D1079ACBF30B
:10776000130322B346498B425A462ED1039B5146FE
:1077700063B1444B1340B3F1D46F07D81B0DC3F171
:107780006B034FF0FF3000FA03F301E04FF0FF33DB
:107790008B421AD13C498A4202D101333FF4FFADFA
:1077A000384B134003F5801B4FF0000A54E163B9D6
:1077B000BAF1000F09D16BE7A3F580136FEA135BF1
:1077C0006FEA0B5B4FF0FF3A46E117B117EA0B0F78
:1077D00002E0069B13EA0A0F00F03E81079B039A22
:1077E0005046594653B1FFF776FB02460B46DDE99A
:1077F0000801FEF7D7FD82468B462DE1FFF76BFBB4
:1078000002460B46DDE90801FEF7CAFD002200230F
:1078100082468B46FFF7E0F900287FF449AF1BE171
:107820002946204601F0B3F857EC106B00224FF0C8
:10783000804310EE100A3946FFF7E2F9002842D0E3
:10784000079B23B14FF00008DFF8409011E0BAF138
:10785000000F03D1CBF313033BB91BE0BAF1010FC7
:1078600003D1BBF1000F3FF423AFDFF824904FF0BA
:1078700000080026054F39E002FCFFFFE2FBFFFF96
:10788000FFFF0F000000F07FFFFFEF7F0000F03FE1
:107890000000F0BF0022984B30463946FFF7A6F9AA
:1078A00040B9304639460022944BFEF72DFF06467C
:1078B0000F4601E0914F002607F1004314961593FF
:1078C000DDE9148912E08D4B304639460022FEF77F
:1078D0001BFF079B06460F4623B901F100430E909C
:1078E0000F9301E0CDE90E67DDE90E892BF000432F
:1078F0001B0D1B050693069A814B9A422BD1DDE99D
:107900000823ABF1547B4BEC10ABCDE90A2300F01C
:107910007BFF404653EC102B4946FEF7F5FE5246DE
:107920005B46FEF73FFD21F000431B0D754A1B052A
:10793000934282460CD9744B0B9A9A4203D10A9B0C
:1079400001333FF42CADDFF8C0B14FF0FF3A72E0E5
:1079500001F1547B38E0039B33B3069BB3F1D46F42
:1079600022D85DA3D3E9002330463946FFF748F912
:10797000A8B139463046FFF79FF9002808BF01201B
:10798000FEF74CFE079B06460F4623B901F1004364
:107990001090119301E0CDE91067DDE91089069A96
:1079A00009F1D663C2EB03099DED080B00F02CFF33
:1079B000404653EC102B4946FEF7A6FEDDE90823AE
:1079C000FEF7F0FC82468B46039BA3BB2BF00043E3
:1079D0001B0D069A1B059A42D8462CD139463046D3
:1079E000FFF742F9FEF72AFE0B46024639463046BB
:1079F000FEF7D6FC079B06460F462BB9BAF1000FDF
:107A000002D1CBF3130383B135A3D3E9002330466E
:107A10003946FFF7EBF8002831D133A3D3E900232F
:107A200030463946FFF700F904E031A3D3E90023DB
:107A3000FFF7DCF818BB1899029800F053FC049982
:107A4000029800F04FFC2946029800F04BFC2146BA
:107A5000029800F047FC6DE5039B83B12B4B0B9321
:107A600000230A9350465946DDE90A23FEF74CFEEF
:107A700082468B4619B910B9029A222313601899CD
:107A8000029800F02FFC0499029800F02BFC294684
:107A9000029800F027FC0599029800F023FC21468B
:107AA000029800F01FFC139B13B1139A179B1360ED
:107AB0000C9B1BB152460BF1004307E052465B465C
:107AC00004E000252A460121FFF741BB43EC102BBF
:107AD0001DB0BDE8F08F00BF0000C0FFFFFFDF4119
:107AE0009535A094FFFFDF3F35E5AF350000E03F5F
:107AF0009535A094FFFFCF3F0000F03F0000E03F2E
:107B00000000E07FFFFF9F7CFFFFEF7F0000503908
:107B1000024B0A4601461868FFF7FAB9A0E20320B3
:107B20002DE9F04780464048D0F800900F463D468A
:107B300015F8014B09EB0400407800F0080000F054
:107B4000FF0608B12F46F2E72D2C03D1BD1C7C782F
:107B5000012603E02B2C04BF7C78BD1C13B1102B35
:107B60000AD15BE0302C57D1287800F0DF0058288C
:107B70004DD16C7810230235002E14BF4FF0004C0D
:107B80006FF0004C0027BCFBF3FA384603FB1ACC1D
:107B900009EB040E9EF801E01EF0040F01D0303C0A
:107BA0000BE01EF0030E1BD0BEF1010F0CBF4FF017
:107BB000370E4FF0570ECEEB0404A34210DDB7F1A1
:107BC000FF3F0AD0504506D801D1644503DC03FBD2
:107BD0000040012701E04FF0FF3715F8014BD7E7D0
:107BE0007B1C0CD1002E4FF0220314BF4FF000403D
:107BF0006FF00040C8F800302AB9BDE8F08706B140
:107C0000404272B107B1691E1160BDE8F0873024AF
:107C1000002BB1D10823AFE70A23ADE7302CA3D066
:107C2000AAE7BDE8F08700BF3CE2032013460A46FE
:107C3000014602480068FFF773BF00BFA0E20320BF
:107C4000F0B506694B11B34200F1140527DA11F0C3
:107C50001F0105EB860605EB830201D1294616E0DC
:107C6000141D55F82320C1F1200ECA402B46B44202
:107C700009D2276807FA0EF73A4343F8042B54F861
:107C8000042BCA40F3E71A6052B1043308E0B24251
:107C90000B4605D252F8043B41F8043BF7E72B466C
:107CA0005B1B9B10036103B94361F0BDA0F130037E
:107CB000092B01D820380AE0A0F16103052B01D877
:107CC000473804E0A0F14103052B02D82738C0B2A1
:107CD0007047002070472DE9F04F8BB08A469046E0
:107CE00006930290FFF76EF8036803931846FFF7B8
:107CF000BBF8039B019003444FF0000B13F8013CC9
:107D00000793DAF8003002331F4613F8010B3028CE
:107D100002D10BF1010BF7E7FFF7C8FF0446E0B90A
:107D2000019A03993846FFF7A7F8002834D1019B40
:107D3000F85CFE18FFF7BAFF80B333461878302896
:107D40001F4603F10103F9D0FFF7B0FFB0FA80F549
:107D50006D0934464FF0010B01E000252C463A46F0
:107D6000164601323078FFF7A1FF0028F8D1019ABA
:107D700003993046FFF780F850B954B9019BF418C5
:107D80002246164601323078FFF790FF0028F8D1DE
:107D900034B1A41BA40003E03E4600E004460125E4
:107DA0003378502B01D0702B2AD173782B2B08D02D
:107DB0002D2B03D0711C4FF0000905E04FF0010995
:107DC00001E04FF00009B11C0878FFF76FFF431E78
:107DD000DBB2182B14D8A0F1100211F8010FFFF735
:107DE00065FF431EDBB2182B04D80A2303FB0202F3
:107DF000103AF2E7B9F1000F00D05242144400E00B
:107E00003146CAF800102DB1BBF1000F14BF00209D
:107E100006207CE1F31B013B2946072B02DD0131E3
:107E20005B10FAE7029800F028FA019B00F1140AAF
:107E30004FF00009C3F101030546CDF810A0CB4671
:107E40000893B7422FD2731E0593079A16F8013C88
:107E500093420BD0BBF1200F16D1049BC3F80090C6
:107E600004334FF000090493CB460DE0059B089ABC
:107E700013449F42EED81846019A03990993FEF7DE
:107E8000FBFF099B68B1E5E716F8010CFFF70EFF51
:107E900000F00F0000FA0BF0059B49EA00090BF116
:107EA000040B1E46CDE7049840F8049BCAEB000083
:107EB000801028614701484600F0A4FAD8F8006015
:107EC000381AB04226DD871B3946284600F0A3FD4C
:107ED000C8B17B1E591103F01F024FF001095AF877
:107EE000211009FA02F20A420ED04B4502DC4FF093
:107EF000020909E0B91E284600F08DFD0028F6D0E1
:107F00004FF0030900E0814639462846FFF798FE06
:107F10003C440CE009DA371A29463A46029800F048
:107F2000A7FBE41B054600F1140A4FF00009D8F83E
:107F300008309C4208DD0298294600F0D3F9149AD3
:107F400000231360A320E2E0D8F80400844253DA4F
:107F5000041BA6422EDCD8F80C30022B1AD0032BBF
:107F60001CD0012B1DD1A6421BD1012E0BDC069A81
:107F7000D8F80430136001232B61CAF80030149B39
:107F800062201D60C3E0711E284600F044FD0028F9
:107F9000EDD106E0159B002BE9D002E0159B002BEC
:107FA000E5D10298294600F09DF9149A0023136048
:107FB0005020ACE0671EB9F1000F06D13FB1394641
:107FC000284600F028FD814601E04FF001097A11B2
:107FD000012307F01F0703FA07F75AF8223021465A
:107FE0001F42284618BF49F00209361BFFF728FE3A
:107FF0000227D8F8044000E00127B9F1000F00F093
:108000008180D8F80C30022B0ED0032B10D0012B1E
:1080100076D119F0020F73D0DAF8000049EA0009AE
:1080200019F0010F07D16BE0159BC3F10103159304
:10803000159B002B64D0D5F810A005F114034FEA6E
:108040008A0903EB090100201A68B2F1FF3F02D050
:1080500001321A6020E043F8040B9942F4D8AB686F
:108060009A4512DB69680298013100F006F92A6925
:10807000023205F10C01834692000C30FEF7A6FE99
:108080002946029800F02EF95D462B695A1C05EB33
:1080900083032A6101225A61022F05F1140211D1D2
:1080A000D8F80030013B9E4227D17111012306F020
:1080B0001F0603FA06F652F821301E420CBF0227B3
:1080C00001271AE02B699A450ADA01212846FFF7B1
:1080D000B7FDD8F8083001349C423FF72CAF0BE0D5
:1080E00016F01F0608D09144C6F1200659F8040C7A
:1080F00000F088F9B042E8DB012747F0200701E0F3
:1081000047F01007149B1D60069B38461C600BB09F
:10811000BDE8F08FC2F10802920070B5C2F12006EE
:108120004368056803FA06F42C43D340046040F822
:10813000043F8842F4D370BD30B5036811F8014B99
:1081400001334CB11A78A2F14105192D98BF2032A4
:10815000A242F3D0002030BD0360012030BD2DE9E4
:10816000F04F0B68D0F800B05E1102EB860613F0FA
:108170001F0385B018BF0436351F174600228246FC
:10818000019346F8042CA8462C46009291461BF811
:10819000011F00293CD0084603920291FFF786FD9B
:1081A000039A00BB0299202916D8009B9945EEDD61
:1081B000444505D2072A03DC41462046FFF7AAFFC3
:1081C000BC4223D90023A4F1040844F8043CCDF8B0
:1081D000009044461A46DAE7292948D10BF10103F9
:1081E000CAF8003014E00132082A09F1010906DD5D
:1081F000BC42CCD9002344F8043C0122043C216851
:1082000000F00F0040EA01102060C0E70822BEE73E
:10821000B9F1000F2BD0444505D2072A03DC4146B3
:108220002046FFF777FFBC420CD93B4654F8042B9D
:1082300043F8042BA542F9D2002243F8042B9D42B7
:10824000FBD20BE0019B4BB1C3F120024FF0FF3397
:10825000D34056F8042C134046F8043C2B6843B92D
:10826000BD4202D101232B6003E0043DF6E7042068
:1082700000E0052005B0BDE8F08F70B5456A044602
:108280000E463DB91020FDF709F860624560856033
:108290000560C560656AEB6843B1636ADB6853F8E3
:1082A000260078B1026843F8262017E02122042135
:1082B000204600F0D2FB636AE860DB68002BECD15B
:1082C000002070BD012101FA06F56A1D92002046CA
:1082D00000F0C3FB0028F3D04660856000230361F3
:1082E000C36070BD70B5446A06460D463CB91020A7
:1082F000FCF7D4FF7062446084600460C4603DB1E8
:10830000736A6A68DB6853F82210296043F82250C8
:1083100070BD2DE9F0410D691F4606460C4601F17E
:10832000140E0023DEF8000081B202FB01710F0C75
:10833000000C02FB007089B2013301EB00419D4249
:108340004FEA10474EF8041BECDCD7B1A3689D42FE
:1083500012DB616830460131FFF78FFF226902327C
:1083600004F10C01804692000C30FEF72FFD2146EF
:108370003046FFF7B7FF444604EB850301355F61E4
:1083800025612046BDE8F0812DE9F8430C461546ED
:108390001F4609220833064693FBF2F3002101220F
:1083A0009A4202DA52000131FAE73046FFF765FFE0
:1083B000089B4361092D4FF00103036111DD04F1B6
:1083C0000908C1462C4419F8013B0146303B0A22FA
:1083D0003046FFF79EFFA145F5D108EB0504083CA8
:1083E00001E00A3409252D1B63199F4208DD14F8AA
:1083F000013B0146303B0A223046FFF78AFFF3E794
:10840000BDE8F883030C1B0413B90004102300E03B
:10841000002310F07F4F04BF0002083310F0704FAC
:1084200004BF0001043310F0404F04BF800002334A
:10843000002803DB420003D5581C704718467047DC
:1084400020207047036813F007020BD0D90722D40D
:108450009A074BBF5B089B08036003604CBF012079
:108460000220704799B209B91B0C102213F0FF0FBC
:1084700004BF1B0A0832190704BF1B0904329907FD
:1084800004BF9B080232D90702D45B0805D0013231
:10849000036010467047002070472020704710B5D9
:1084A0000C460121FFF7E9FE01224461026110BD83
:1084B0002DE9F74F14460A6923699A42B8BF0B4663
:1084C0008846BCBFA0461C46D8F81070D4F810905F
:1084D000D8F80830D8F8041007EB09069E42C8BF48
:1084E0000131FFF7CAFE00F1140505EB860C2B469F
:1084F0000022634502D243F8042BFAE704F1140288
:1085000008F1140102EB890301EB87070093009B3C
:108510000192934257D9B2F800B0BBF1000F23D0BB
:108520008946AE464FF0000859F8044BBEF800A04B
:10853000A3B20BFB03A34FEA144ADEF80040434406
:108540004FEA14480BFB0A8404EB1344F2469BB237
:1085500043EA04434F454FEA14484AF8043B01D923
:10856000D646E1E7CEF80480019BB3F802A00432BE
:10857000BAF1000F21D02B682C4689464FF0000835
:10858000B9F800E0B4F802B00AFB0EBEF044A3460E
:108590009BB243EA08434BF8043B59F8043BB4F858
:1085A00004E01B0C0AFB03E303EB18434F454FEABF
:1085B000134801D95C46E3E763600435A7E75CF83C
:1085C000043D13B9013E002EF9DC066103B0BDE89D
:1085D000F08F00002DE9F843154612F0030206461D
:1085E0000F4607D0013A214C002354F82220FFF710
:1085F00090FE0746AD1036D0746A3CB91020FCF7E7
:108600004DFE7062446084600460C460D6F82480CB
:10861000D8F808404CB940F271213046FFF73FFFCF
:108620000023C8F80800044603604FF00008EB0779
:108630000AD5394622463046FFF73AFF3946814689
:108640003046FFF74FFE4F466D100CD0206808B142
:108650000446ECE7224621463046FFF729FF20601A
:10866000C0F80080F4E73846BDE8F883B8920D0002
:108670002DE9F0470C464FEA621A26694968A3685B
:10868000564407469146751CAB4202DA01315B0045
:10869000FAE73846FFF7F1FD0023804600F11401A8
:1086A0001A46534503DA41F823200133F9E72AEA51
:1086B000EA73206901EB830319F01F0904F1140127
:1086C00001EB800E14D0C9F1200C0022086800FADA
:1086D00009F002439A4643F8042B51F8042B8E45C7
:1086E00022FA0CF2F2D8CAF8042042B1B51C06E016
:1086F000043B51F8042B43F8042F8E45F9D8013D73
:108700003846C8F810502146FFF7ECFD4046BDE85A
:10871000F08703690A699B1A10B511D192001430D1
:10872000143183180A4453F8044D52F8041D8C4246
:1087300002D007D3012010BD9842F4D3002010BD11
:10874000184610BD4FF0FF3010BD2DE9F8430C4620
:108750000746114620461546FFF7DBFF061E08D1E7
:1087600031463846FFF789FD012303614661BDE8C4
:10877000F883BCBF23462C4638466168BABF1D4605
:1087800001260026FFF779FD2B69C660266905F1F1
:108790001409143404EB860709EB830800F114056F
:1087A0004FF0000C54F8043B59F8042B1CFA83F1E9
:1087B0001FFA82FE120CCEEB0101C2EB134303EB56
:1087C000214389B24FEA234CC84541EA0343A646F8
:1087D00045F8043BE6D8BE450ED25EF8041B1CFAF1
:1087E00081F2131403EB114392B242EA03424FEABF
:1087F000234C45F8042BEEE755F8043D0BB9013E38
:10880000FAE70661BDE8F883124B10EE902A1A4091
:10881000A2F15073002B02DD0020194617E05B42E5
:108820001B15132B4FF000004FF0000104DC4FF438
:10883000002242FA03F10AE0143B1E2B4FF0010222
:10884000DABFC3F11F0302FA03F31346184641ECE3
:10885000100B70470000F07FF8B5056900F11406B1
:1088600006EB85052F1F55F8044C2046FFF7CAFD7F
:10887000C0F120030A280B6014DCC0F10B0E24FAAF
:108880000EF1BE4241F07F5334BF55F8081C002161
:10889000153004FA00F021FA0EF143F4401340EAD7
:1088A000010223E0BE423ABFA5F1080755F8081CB3
:1088B00000210B3815D08440C0F1200544F07F54CE
:1088C00044F44014B74221FA05FE44EA0E038CBF7B
:1088D00057F8044C002401FA00F0EC4040EA04028E
:1088E00004E044F07F5343F440130A4643EC102B5A
:1088F000F8BD2DE9F7430E46012159EC108B1546C2
:10890000FFF7BBFCC9F30A540746C9F313030CB1C4
:1089100043F480130193B8F1000F19D002A840F876
:10892000088DFFF78FFD009B48B1019AC0F120012F
:1089300002FA01F10B43C2407B61019200E07B61CE
:10894000019BBB61002B14BF02210121396107E0AB
:1089500001A8FFF777FD019B7B6101213961203080
:1089600034B1A4F2334404443460C0F1350009E06A
:1089700007EB8103A0F2324030601869FFF742FD37
:10898000C0EB41102860384603B0BDE8F0832DE904
:10899000F743884669468146FFF75EFF01A94046D6
:1089A00055EC104BFFF758FFD9F81030D8F81020CD
:1089B0009A1A9DE80A00C91A57EC106B01EB421392
:1089C000002BCCBF05EB0355A7EB035732463B46C4
:1089D00020462946FDF7C2FF41EC100B03B0BDE86D
:1089E000F083013910B549111469013102F1140302
:1089F00000EB810103EB8404A342024604D253F846
:108A0000042B40F8042BF7E700238A4202D242F8F5
:108A1000043BFAE710BD00F1140200694B119842C3
:108A200010B50CDB0CDD11F01F0109D052F823400A
:108A300024FA01F000FA01F18C420CD100E0034667
:108A400002EB8303934204D953F8041D0029F9D0A3
:108A500001E0002010BD012010BD38B502FB01F47B
:108A60002146FCF733FC054618B122460021FEF7EB
:108A7000B8F9284638BD000021400D005D400D00CA
:108A800089400D008D400D00000000000000000036
:108A90000000000055410D009D410D00DD400D001E
:108AA000496E697469616C697A696E672E2E2E0051
:108AB000312920416E74656E6E6120537461747546
:108AC000732028245047544F5029003D3D3D3D3DE3
:108AD0003D3D3D3D3D3D3D3D3D3D3D3D3D3D3D3DC6
:108AE0003D3D3D3D3D3D3D3D3D3D3D3D3D3D3D3DB6
:108AF0003D3D3D3D3D3D3D3D3D3D3D3D3D3D3D3DA6
:108B00003D00436F6D6D616E642049443A20004121
:108B10006E74656E6E61205374617475733A2000D3
:108B2000322920476C6F62616C20506F73697469E1
:108B30006F6E696E672053797374656D204669782E
:108B400065642044617461202824475047474129C7
:108B5000005554432054696D653A20004C61746996
:108B6000747564653A20004E6F7274682F536F7588
:108B70007468496E64696361746F723A20004C6F67
:108B80006E6769747564653A2000456173742F5788
:108B9000657374496E64696361746F723A20005042
:108BA0006F736974696F6E2046697820496E6469D5
:108BB0006361746F723A2000536174656C6C697400
:108BC000657320557365643A2000486F72697A6F47
:108BD0006E74616C2044696C7574696F6E206F6689
:108BE00020507265636973696F6E3A2000416C743E
:108BF00069747564653A200047656F6964616C202B
:108C000053657061726174696F6E3A2000416765E7
:108C1000206F6620446966662E20436F72722E3A7A
:108C200020003329205265636F6D6D656E64656445
:108C3000204D696E696D756D204E6176696761744E
:108C4000696F6E20496E666F726D6174696F6E2018
:108C500028244750524D4329005370656564204FC6
:108C60007665722047726F756E643A2000436F75A7
:108C7000727365204F7665722047726F756E643A25
:108C80002000446174653A20004D61676E65746927
:108C90006320566172696174696F6E3A20004D6F8E
:108CA00064653A20002A0024002C00010203040518
:108CB00006070809000000000000000A0B0C0D0E5A
:108CC0000F24475047474100244750475341002451
:108CD000475047535600244750524D4300244750B5
:108CE00056544700245047544F50000000000000E5
:108CF00000000000EB4B0D00000000000000000031
:108D00002B4B0D000000000000000000014B0D0087
:108D100024504D544B3235312C393630302A3137CE
:108D20000024504D544B3232302C353030302A3103
:108D3000420024504D544B3330302C313030302CE5
:108D4000302C302C302C302A31430024504D544BE1
:108D50003331342C302C312C302C312C302C302C25
:108D6000302C302C302C302C302C302C302C302C23
:108D7000302C302C302C302C302A32380024504DFE
:108D8000544B3330312C322A324500245047434D66
:108D9000442C33332C312A364300427566666572A3
:108DA000204F766572756E3A2027000000000000A3
:108DB000000000003B530D0031530D0027530D0000
:108DC0001D530D0011530D0005530D00F9520D00F8
:108DD000F1520D00E7520D00DD520D0019600D003B
:108DE0006E616E006F766600696E66006261756422
:108DF0000053657269616C0053657269616C310082
:108E00007479706500706172616D00636D640069F2
:108E10006400686E64007374726D0066696C74003F
:108E20006C766C0061646448616E646C657200729B
:108E3000656D6F766548616E646C657200656E7510
:108E40006D48616E646C657273004A534F4E537483
:108E50007265616D4C6F6748616E646C657200612C
:108E6000707000253031307520005D2000256400D1
:108E70002C200028293A2000205B00636F646520C5
:108E80003D200025690064657461696C73203D2094
:108E9000000D0A006C6E00666E00636F646500640E
:108EA000657461696C006E6F6E65007472616365F4
:108EB00000696E666F007761726E006572726F7224
:108EC0000070616E696300616C6C005A00252B3084
:108ED00033643A253032750025592D256D2D2564D2
:108EE0005425483A254D3A2553257A006173637419
:108EF000696D65000000000000000000C95A0D0007
:108F0000B95A0D00BB5A0D0000000000000000001F
:108F1000A15B0D00F15B0D00FF5B0D00BD560D0068
:108F2000DD5B0D00A35B0D00B95B0D00EB5B0D007D
:108F3000CF5B0D009D5B0D000000000000000000F5
:108F4000AD5C0D00FD5C0D000B5D0D00BD560D0010
:108F5000C15C0D00E35C0D00CF5C0D00F75C0D0003
:108F6000AF5C0D00B35C0D000000000000000000CD
:108F7000175E0D000D5E0D00035E0D00F95D0D0026
:108F8000ED5D0D00E15D0D00D55D0D00CD5D0D00C9
:108F9000C35D0D00B95D0D0019600D0000000000FB
:108FA00000000000935F0D00895F0D007F5F0D00E2
:108FB000355F0D00735F0D00675F0D005B5F0D0097
:108FC000535F0D00495F0D003F5F0D0019600D00FC
:108FD0000000000000000000B15F0D00BB5F0D004D
:108FE000C55F0D00CF5F0D00D95F0D00E55F0D007F
:108FF000F15F0D00FD5F0D0005600D000F600D00BD
:1090000019600D000020202020202020202028286A
:109010002828282020202020202020202020202038
:109020002020202020881010101010101010101078
:1090300010101010100404040404040404040410A8
:109040001010101010104141414141410101010136
:109050000101010101010101010101010101010100
:10906000101010101010424242424242020202020C
:1090700002020202020202020202020202020202D0
:109080001010101020000000000000000000000080
:1090900000000000000000000000000000000000D0
:1090A00000000000000000000000000000000000C0
:1090B00000000000000000000000000000000000B0
:1090C00000000000000000000000000000000000A0
:1090D0000000000000000000000000000000000090
:1090E0000000000000000000000000000000000080
:1090F0000000000000000000000000000000000070
:10910000000000000000000000000000000000005F
:10911000000000000000000000000000000000004F
:10912000000000000000000000000000000000003F
:10913000000000000000000000000000000000002F
:10914000000000000000000000000000000000001F
:10915000000000000000000000000000000000000F
:109160000000000000000000504F5349580000006C
:1091700035000000CEFBFFFFCB0300000100000024
:109180000000000034000000CEFBFFFFCB03000016
:109190000100000000000000696E697479000000A1
:1091A000BC89D897B2D29C3C33A7A8D523F64939BD
:1091B0003DA7F444FD0FA5329D978CCF08BA5B25DF
:1091C000436FAC6428066811000000000000F03F07
:1091D0000000000000002440000000000000594092
:1091E0000000000000408F40000000000088C340E5
:1091F00000000000006AF8400000000080842E415A
:1092000000000000D01263410000000084D79741A5
:109210000000000065CDCD41000000205FA00242AB
:10922000000000E876483742000000A2941A6D4220
:10923000000040E59C30A2420000901EC4BCD64213
:1092400000003426F56B0C430080E03779C34143BE
:1092500000A0D8855734764300C84E676DC1AB4334
:10926000003D9160E458E143408CB5781DAF154452
:1092700050EFE2D6E41A4B4492D54D06CFF080442D
:10928000F64AE1C7022DB544B49DD9794378EA4442
:109290000080E03779C34143176E05B5B5B89346F2
:1092A000F5F93FE9034F384D321D30F94877825ABE
:1092B0003CBF737FDD4F15750500000019000000ED
:1092C0007D00000079460D00FD490D00FD4A0D00AE
:1092D000214E0D00914F0D0045530D0079530D00A7
:1092E00095560D0055590D0065590D008D590D000D
:1092F000E55E0D009D5F0D00E5600D0009610D004C
:109300008D610D0051620D0015630D00000000001D
:049310000000000059
:10931400EC8E0D0004900D000000000008910D007B
:1093240028910D0048910D0000000000000000008D
:109334000000000000000000498D0D000000000046
:109344000000000000000000000000000000000019
:109354000000000000000000000000000000000009
:1093640000000000000000000000000000000000F9
:10937400000000000000000040E20320AE8A0D005F
:10938400938E0D00938E0D00938E0D00938E0D0021
:10939400938E0D00938E0D00938E0D00938E0D0011
:1093A400938E0D00FFFFFFFFFFFFFFFFFFFFFFFF97
:0493B400FFFF0000B7
:1093B800FFFFFFFF00000102030405060708090A72
:1093C8000B0C0D0E0F101112131415161718191A6D
:0893D8001B1C1D1E1F202800B4
:0493E0007856341275
:04000003D0004020C9
:00000001FF
